:020000040000FA
:0600000002136D02080866
:03001B0002095E79
:03002B000210F2CE
:03004300020FC0E9
:0300530002073D64
:030073000209B3CC
:1000830002079C0100F0FF0700080000FFFF0000CB
:100093000704000000030001FF1E102700000020DA
:1000A300FD000206FFFF1E008000806666B64096D4
:1000B3001D00000000000000000000000000000020
:1000C30000000000000100010001E803000000003F
:1000D3000000000000000100010001E8030000002F
:1000E300000F0000000F0000000104010C000204D7
:1000F3007F84011A860204010C000202F2850000CB
:100103000001040000951A000000E8030000FFFF4F
:10011300F21A88130000E803000064006400B801C9
:10012300A0BB0D00A0BB0D000202020704010107E2
:100133001E02051E020A0A0101010809080103B88B
:100143000B02803E0102FEFFE8030A050001FFFFE8
:10015300010A011401E00200000001050301010F7F
:1001630010FEFF030003000300030003000300036A
:10017300000300030005000A00140028004F009E3E
:10018300000000D633000000000C3300000000FF25
:10019300000000FF0012139B60461213B9603DE993
:1001A300687008F618F618F618F622748067F712C6
:1001B30001CC090909748067F7221213B9601D1273
:1001C300139B7005191919801A121245701F121208
:1001D30059C37003E6673319191940071818182211
:1001E30008080874FFF618F618F618F622121259C2
:1001F3006017121451702192F012143F70195017A6
:1002030020F014080808090909E7F61819E7F61891
:1002130019E7F61819E7F62212143F60E6E8697049
:100223001F0808E62480F608E436F618547FB47FE6
:100233000CE654806007F6E418F618F62218182224
:10024300E9C6CC08C6CD08C6CE08C6CFC0E0E8C014
:10025300E0EAC0E0EBC0E009E9F809E7FA09E7FBE7
:10026300E6F918E6F8C3EC98ED99EE9AEBC2E7F5D8
:10027300F0EFC2E795F0500E600CEBCFFBEACEFA3D
:10028300E9CDF9E8CCF8EAA2E7D2E7FAEB33FB13BE
:10029300F5F0EEA2E7D2E7FEEF33FFC5F013A2E7D6
:1002A30030E601B313C5F0C3C0E0C0F07F00C39BC9
:1002B300FB605E9418600F401D14601AD0E023F9B0
:1002C300D0E0F802039E8AF0E9486003D2F0E4AF7D
:1002D300F0FAF9F8803BEB30E40D89F0EA6003D2E1
:1002E300F0E4AFF0F9CAF8EB30E30D88F0EF600209
:1002F300D2F0AFF0E4CAC9F8EB54076014FBC3EAC9
:1003030013FAE913F9E813F8EF135002D2E0FFDB15
:10031300EDD0E0C0E030E739C3E49FFFF5F0EC989F
:10032300FC42F0ED99FD42F0EE9AFE42F0D0E0F986
:10033300D0E0F8E5F0607AE923F9EE20E742D8024D
:100343008067C3EF33FFEC33FCED33FDEE33FE8008
:10035300EAEC28FCED39FDEE3AFED0E023F9D0E0DB
:10036300F84002801BC3EE13FEED13FDEC13FCEF0C
:10037300135002D2E0FF08B800067F7F74FF802E7F
:10038300EF3350178CF020F00260100CBC000C0D02
:10039300BD00080EBE000408E860DFE933E813FF80
:1003A300EE2313FE4F4D4C8008E95480FFE4FEFD1D
:1003B300FCEE33EF33F47004FCFD7E80D0E0FBD021
:1003C300E0FAD0E0F8D0E0CFC618CEC618CDC618F4
:1003D300CCC6F9221213B970041818182212139BF1
:1003E300700D74FFF61819F61819F61819F622E7A6
:1003F300548066F612143F700F12145170F014F605
:1004030008F608F608F680D1121451700CF608F6B7
:1004130008768008E6447F80EC12125C700C12129E
:100423004860BFE65480F6E480BB12124870051999
:10043300191980A5E869700C763F18768018F618AC
:10044300F6E8F922E6CDC0E018ECC0E0E633CD33A0
:10045300CDD313F6E719FCE7191933CC33C3947FD3
:10046300400ECD9D502408E65480F6E418F6800F24
:10047300F4043D14501408E6447FF6187680E4181B
:10048300F618F6D0E0FCD0E0FD22CCD313CCFD1857
:10049300E4C6CBC0E018E4C6CAC0E00808ED08C64D
:1004A30033E613F618E433C675F003C3CA97CA09D3
:1004B300CB97CB199C40047D08802EBD0003020519
:1004C3008016B6FF050606081618C3CA33CACB330F
:1004D300CB33CA27CA09CB37CB193CC37D08803E2F
:1004E300187D0820E75CC633C6CA33CACB33CB3387
:1004F300DDF1D5F0EB30E77BCA97CA09CB974ACB3E
:10050300199C406F4B7025E620E0218066187D081A
:10051300C3CA97CA09CB97CB199CD3C633C6CA3370
:10052300CACB33CB3350C9DDE7D5F0E1D3E4C636CC
:10053300C608C636C608C636C608C636C61818184C
:100543008031C3CA97CA09CB97CB199CB34097C6CE
:1005530033C6CA33CACB33CB33DD34D5F02EC6A270
:10056300E0C640C8CA27CA09CB37194A70BECB3C7C
:10057300B480B90808E63308E633601F181818D0AA
:10058300E0FAD0E0FBD0E0FCD0E0FD22187D08CA01
:1005930027CA09CB37CB193CD3808013F618E4B6AE
:1005A3007F11F618B6FF0EF618C60470D208087647
:1005B3008080CAF618F618F680C5001213B9604F8A
:1005C30012139B6012E7548066F6121245701112E3
:1005D3001451703B090909F4F618F618F618F622B7
:1005E300121259701512143F08080860EAE6447F96
:1005F300F618768018E4F618F62212143F601612E5
:1006030014517012E4F608F608F608E65480F60969
:10061300090918181822EAC0E0EBC0E0ECC0E0EDCD
:10062300C0E0E687F0A4FBACF008E687F0A42CFC5E
:10063300E435F0FA1809E687F0A42C4B6002740144
:10064300CA35F0FCE433FB09E687F0D2F7A42CCBE0
:1006530035F0FC1908E687F0A42BCC35F0FBE43326
:10066300FD0819E687F0D2E7A42C4ACB35F0CD3448
:1006730000FC09E687F0D2E7A42DCC35F0FDE43386
:10068300FA0918E687F0D2F7A42CCD35F0CA340066
:10069300FC08E687F0D2E7D2F7A42ACC35F07A7EBD
:1006A30020E70B0ACB33CBCD33CDCC33CC33CB3399
:1006B30050147004ED30E00ED2F1E4CD3DCDCC3CCE
:1006C300CC3B5005DA05C2F1EB547FC63308E63361
:1006D30092F0FBE73309E733C39A502D2B70190CC3
:1006E3000D4C4D70151806E608C333700D20F10A42
:1006F300A2F013F6E418800B4024E4F630F00276FF
:100703008018F618F618F68024D33B14501074FFA3
:10071300A2F013F6187680E418F618F6800FA2F00C
:1007230013F618E63303F618ECF618EDF6D0E0FDF1
:10073300D0E0FCD0E0FBD0E0FA22C0E074F1120B71
:10074300CBA2AFE433F509D2AF85A708AFA1EF552C
:1007530008FE74105E600612172475A1EF74085E1C
:10076300600812172A75A1F78024EFA2E092F0E542
:1007730008A2E082F05017906198E0F8900B47E0F0
:10078300C398A2D265D0335002E8F075A1FEE50903
:10079300A2E092AF7F02020C2AC0E074F2120BCBEC
:1007A300A2AFE433FED2AF9061A4E0F8759B00E5FD
:1007B3009158540860087591F71217788023E591D2
:1007C30058541060087591EF12177E8014E591A2BA
:1007D300E092F0E8A2E082F05007E0C2E0F01218E5
:1007E300C89061A3E0F8E5E9585404600E12189E1E
:1007F30075E9FB906193E0A2E640F2EEA2E092AFCE
:100803007F01020C2AC0E074F2120BCBA2AFE433D7
:10081300FED2AF9061A5E0F8E5BF585404600675B9
:10082300BFFB1218E080D412087530F0391208BAF1
:10083300803412087520F01430E72B74FFFCFBFAA8
:10084300747F8022E4FCFBFA7480801AB48008BCB5
:1008530000F2BB00EF800F50EBF9E4C39AFAE49B7C
:10086300FBE49CFCE499C6CC18C6CB18C6CA18C6D0
:10087300F922E4C9C608CAC608CBC6D3330308CCD9
:10088300C63392F0C3947F402E94184019C9B90718
:1008930004CACBCC225025C309CA33CACB33CBCC31
:1008A30033CC33D9F422F4600DC9CCC313CB13CBAF
:1008B300CA13CAD9F6CC22E4FCFBFA2214FCFBFAD5
:1008C30022C3E498F8E499F91209058026C3E49A4F
:1008D300FAE49BFBE920E7E9120905E498F8E499B7
:1008E300F922C3E498F8E499F9120905E498F8E4C5
:1008F30099F9C3E49AFAE49BFB22EB20E7CFE920C2
:10090300E7E0B90010BB0008E88AF084F8AAF022F7
:10091300E4FBC8FA22EB70227B10C833C8C933C981
:10092300335007C39AC3DBF280069A50012ADBEAED
:10093300C833F4C8C933F4C9FA2275F008E4C833DC
:10094300C8C933C933C99AC99B5004C92AC93BD5FD
:10095300F0ECFBC833F4C8E4C9FA22C0E0C0D0E825
:10096300C0E0E9C0E0C082C083A8F9E8C0E0900A13
:10097300B4E0F8743328F582E4340AF583D0E0F068
:10098300900AB3E0F8A3E0687006E595900AB6F024
:10099300900AB4E004F0C394804002E4F0A374C668
:1009A300F0D083D082D0E0F9D0E0F8D0D0D0E032DC
:1009B300C0E0C0D0E8C0E0E9C0E0C082C083900BD3
:1009C30037E0F8A3E0687008539AF7A37401802214
:1009D300C2EA900B37E0F8740128F074B728F58267
:1009E300E4340AF583E0F5F9900B37E0C3948040D3
:1009F30002E4F080AC080808EAC0E0EBC0E086F04F
:100A0300E7A4FA180986F0E7A42AFA180986F0E79A
:100A1300A42AFA180986F0E7A42AFA1986F0E7A4AB
:100A2300FBE5F02AFA190886F0E7A42BFBE5F03A78
:100A3300FA190886F0E7A42BFBE5F03AFA1818092F
:100A430086F0E7A4C5F02BFBE43AFA1908E7C5F0F2
:100A5300C6A426F6E5F03BFBE43AFA1886F0E7A4D1
:100A6300F6E5F00826F6E43B08F6E43A08F6D0E0AB
:100A7300FBD0E0FA22080808E630E71112121D1233
:100A83000A90080808C64480C618181822181818AF
:100A9300E9799EC608CAC608CBC608CCC6C370206F
:100AA3007996CACBCC7019798ECBCC70137986CC5E
:100AB300700EF9802ACA33CACB33CBCC33CC33196B
:100AC30030E7F2CCCBCA3350147004EA30E00DE4C3
:100AD300CA3ACACB3BCBCC3CCC500209C3E913C6C0
:100AE300CC182313C6CB18C6CA18C6F922E4CFC044
:100AF300E0E4CEC0E0E4CDC0E0E4CCC0E075F0209B
:100B0300E626F608E633F608E633F608E633F61883
:100B13001818EC33FCED33FDEE33FEEF33FFC3EC7B
:100B23009709ED9709EE9709EF97191919400FFFE8
:100B3300EC97FC09ED97FD09EE97FE191906D5F020
:100B4300BFECF709EDF709EEF709EFF7191919D01B
:100B5300E0FCD0E0FDD0E0FED0E0FF222521C582FD
:100B6300C0E0E52234FFC583C0E0E521C3958224BC
:100B7300F810AF088583228582218008858322852A
:100B83008221D2AFCEF0A3E520F0A37808E608F0E7
:100B9300A3DEFAEFF0A3E58124FAF8E608F0A3E672
:100BA30008F0A3E608F0A30808E608F0A3E608F0B7
:100BB300A315811581D0E0FED0E0F81581158115CC
:100BC30081E8C0E0EEC0E022C0D02521C582C0E0AC
:100BD300E52234FFC583C0E0E521C3958224F310E9
:100BE300AF0885832285822180088583228582211F
:100BF300D2AFC8F0A3E9F0A3EAF0A3EBF0A379081E
:100C0300E709F0A3D8FAECF0A3EDF0A3EEF0A3EF1D
:100C1300F0A3D0E0F0A3D0E0F0A3D0E0F0A3E52070
:100C2300F0A3E5F0F0A322852283852182E0C0E0D2
:100C3300A3E0F9A3E0FAA3E0FBA37808E0F608A396
:100C4300DFFAE0FCA3E0FDA3E0FEA3E0FFA3E0C026
:100C5300E0A3E0C0E0A3E0F5D0A3E0F520A3E0A388
:100C6300F5F010AF088583228582218008858322D1
:100C7300858221D2AFD082D083D0E0F8D0E0321287
:100C83001220181818120AF012132C19191922120B
:100C9300132C191919080808E618181820E7E01288
:100CA3000AF012122018181822090909E71919194C
:100CB30020E7DC080808E618181820E703020AF002
:100CC300121220181818120AF012122018181812EB
:100CD300132C1919192212142AB90003020D18E44E
:100CE30090050178EC79198002F0A3D8FCD9FA7A3F
:100CF300EC7B1D900086781379028015E493A3ADF5
:100D030082AE838A828B83F0A3AA82AB838D828E89
:100D130083D8E9D9E77582877583AB74061210838C
:100D230075823E7583307400121083E47375F0107E
:100D33008E238F248582288583278521828522839C
:100D4300E0CEA3E0CF852882852783EBC9EAC8EDEF
:100D5300CBECCAC3E833C8E933C9EA33CAEB33CBB4
:100D6300C3EA9EF526EB9FF525B35004AB25AA26CF
:100D7300EC33CCED33CDD5F0DAAE23AF242212130E
:100D8300B9601C12139B601712143F7007121451A1
:100D93007001D322C0D01214517006D0D0B322C335
:100DA3002233D0D0501430E0F6C3E7960809E79613
:100DB3000809E7960809E796B32220E0D5E69708E5
:100DC30009E6970809E6970809E697B322D083D086
:100DD30082ECC0E0EDC0E0E493A3FCE493A3FDED5B
:100DE3004C600D120EA8EC24FFFCED34FFFD80EFE8
:100DF300E493A3FCE493A3FDED4C600D120F45ECCB
:100E030024FFFCED34FFFD80EFD0E0FDD0E0FCE4F7
:100E130093A3C0E0E493C0E022852283852182E08E
:100E2300A3FEE0A3F5207808E0A3F608DFFAE0A329
:100E3300FFE0A3C0E0E0A3C0E0E0A3C0E0E0A3C004
:100E4300E0E0A3C0E010AF088582218583228008FB
:100E5300858221858322D2AFD083D082021089D0AC
:100E630083D082E9C0E0E493A3C386F0C5F095F094
:100E7300F908E493A386F0C5F095F0700BE493A30F
:100E8300C3994005E9048002A3E475F002A4258216
:100E9300F582E5F03583F583D0E0F9E493A3C0E070
:100EA300E493C0E022C0E0C3E493960874019396F0
:100EB30018400FE493667008087401936618700075
:100EC3007019A3A3C3E49396087401939618A3A37C
:100ED300400DD0E0D0E0D0E0020E0CA3A3A3A3A367
:100EE300A3D0E0227404800474028000CCC0E0ED3F
:100EF300C0E0E521C39CCCAD2250011D10AF068C90
:100F0300218D2280068C218D22D2AF121005D0E0D4
:100F1300FDD0E0FC2274028000CCC0E0EDC0E0E52F
:100F230021C39CCCAD2250011D10AF068C218D2214
:100F330080068C218D22D2AF120FE3D0E0FDD0E0EA
:100F4300FC22C0E0C0F088F0E493667008087401E6
:100F53009366187000A8F0A3A3700BD0F0D0E0D074
:100F6300E0D0E0020E0CA3A3D0F0D0E022D083D0D7
:100F730082CCC0E0E493A360061210261470FAE456
:100F830093A360061211891470FAD0E0FCE493A3D2
:100F9300C0E0E493C0E022C008C3E096F50808A3CC
:100FA300E096420808A3E096420808A3E0964208A8
:100FB300A2D265D033E5087001D3D00822C0E07413
:100FC300F2120BCBA2AFE433FED2AFC2C0E5D1A283
:100FD300E45003121688EEA2E092AF7F01020C2ABE
:100FE300CAC0E0E493A3C582CCC582C583CDC583C3
:100FF300F0A3C582CCC582C583CDC583DAE5D0E035
:10100300CA22CAC0E0E0A3C582CCC582C583CDC5D0
:1010130083F0A3C582CCC582C583CDC583DAE6D070
:10102300E0CA22C0E0E493A3D39C5010E493A3C38B
:101033009C400AD0E0D0E0D0E0020F8DA3A3A3D060
:10104300E0227009080808226016181818C6C3336E
:10105300C608C633C608C633C608C633C6D5E0EAD3
:1010630022C008C3E096F50808A3E096420808A347
:10107300E096420808A3E09645087001D3D0082201
:10108300C09FF59FE473D09F22D083D082C09FE49A
:1010930093C0E0740193C0E0740293F59F2225216D
:1010A300F58210AF08F521400C15228008F5214088
:1010B300021522D2AF852283227404800A7403802E
:1010C30006740280027401C0E0F4041210A1D0E09F
:1010D3001213C82200C0D0252110AF08F521500CEF
:1010E30005228008F52150020522D2AFD0D022C0BC
:1010F300E0C0D0E8C0E0A8A8D2AFC2C7E8A2E79298
:10110300AFD0E0F8D0D0D0E032BB0102E722C082FA
:10111300C08389828A83BB0003E08002E493D08387
:10112300D082226017080808C6A2E713C618C613A0
:10113300C618C613C618C613C6D5E0E9226016083A
:101143000808C6C313C618C613C618C613C618C6DE
:1011530013C6D5E0EA222521F8E43522F922252118
:10116300FAE43522FB222521FCE43522FD22C3E0EB
:10117300C696F608A3E0C696F608A3E0C696F60858
:10118300A3E0C696F622C0E0E493A36C7009D0E016
:10119300D0E0D0E0020F8DA3A3D0E022252110AF31
:1011A30008F521400C15228008F52140021522D2B2
:1011B300AF22C3E09608A3E09608A3E09608A3E055
:1011C30096A2D265D03322E76670100809E76670ED
:1011D3000A0809E76670040809E76622E0667010EA
:1011E30008A3E066700A08A3E066700408A3E0663B
:1011F30022C3E7960809E7960809E7960809E796E0
:10120300A2D265D03322C3E096F008A3E096F0089B
:10121300A3E096F008A3E096F022181818E4C3960A
:10122300F608E496F608E496F608E496F622C3E692
:1012330097F60809E697F60809E697F60809E69788
:10124300F622181818E60846087009E626087005FD
:10125300E633F4220822191919E70947097009E747
:1012630027097005E733F4220922C3E4939608742F
:101273000193960874029396087403939622E026CA
:10128300F008A3E036F008A3E036F008A3E036F058
:1012930022700422600D18C6C333C608C633C6D5F0
:1012A300E0F41822E657F60809E657F60809E65768
:1012B300F60809E657F622E627F60809E637F608A0
:1012C30009E637F60809E637F622E026F608A3E032
:1012D30036F608A3E036F608A3E036F622E056F623
:1012E30008A3E056F608A3E056F608A3E056F62254
:1012F300E493F608740193F608740293F6087403F2
:1013030093F622E647F60809E647F60809E647F6A4
:101313000809E647F622E056F008A3E056F008A3D2
:10132300E056F008A3E056F022E4C397F709E497E8
:10133300F709E497F709E497F722C6F4C608C6F459
:10134300C608C6F4C608C6F4C622C3E09608A3E0DE
:101353009608A3E09608A3E09622C3E7960809E758
:10136300960809E7960809E7962275D00075813F2C
:1013730075210175220500020CD9600C08C6C31340
:10138300C618C613C6D5E0F422E6F008A3E6F008B3
:10139300A3E6F008A3E6F022E7094709C3134709C8
:1013A300336002E733F422E0F608A3E0F608A3E093
:1013B300F608A3E0F622E6084608C313460833609E
:1013C30002E633F422CAC0E0E6F0A308DAFAD0E07A
:1013D300FA22800100E9F874FF28F90470F622E08C
:1013E300FAA3E0FBA3E0FCA3E0FD22ECF0A3EDF005
:1013F300A3EEF0A3EFF022E0F8A3E0F9A3E0FAA351
:10140300E0FB22E8F0A3E9F0A3EAF0A3EBF022E08B
:10141300FCA3E0FDA3E0FEA3E0FF22EAF0A3EBF0D0
:10142300A3ECF0A3EDF022E5C754F84401F5C77926
:1014330001222521F582E43522F58322E62618468A
:101443001846184622C2AF75D69F02000022E7272E
:101453001947194719472212108CEBE00312108C1D
:101463005BE10312108C8AE10312108C90E20312E9
:10147300108CBAE20312108C0EE30312108CE2E319
:101483000312108C10E60312108CBEE60312108CAC
:101493002BE90312108CB0E90312108CB3EC031286
:1014A300108CE7EE0312108C23EF0312108C7CF0E8
:1014B3000312108C8FF00312108CCCF00312108CDB
:1014C30068F20312108C1CF40312108C27D005123F
:1014D300108CA3D00512108CD6D00512108C04D119
:1014E3000512108C42D10512108C7FD30512108C7B
:1014F3009ED30512108CE3D30512108C79D40512F8
:10150300108CC5D40512108C59D50512108C32D607
:101513000512108C8ED60512108CECD60512108C89
:101523005FD70512108CA3D70512108CFBD70512B9
:10153300108C1DD80512108CADD80512108C3ED915
:101543000512108C8AD90512108CB6D90512108C8D
:10155300F7D90512108C8DDB0512108C79DC05127E
:10156300108C54DD0512108C029B0612108C2E9BDE
:101573000612108C4E9B0612108C759B0612108C53
:10158300A29C0612108CC39C0612108C6E9D061230
:10159300108C5CB70612108C61B70612108C94B7CE
:1015A3000612108C2CB80612108C47B80612108C39
:1015B3008BA90612108C52AA0612108C64AA06126A
:1015C300108C6EB80612108C7FB80612108C99B866
:1015D3000612108CF6FF0112108CF8B80612108C4C
:1015E30033B60612108C43B60612108C58B6061288
:1015F300108CA1B60612108CA2B20612108C26B360
:101603000612108C8EB30612108C56A50612108C7F
:101613006AA50612108CE0A50612108C2FA60612DE
:10162300108C64A60612108C87A60612108CAAA62C
:101633000612108CE3A60612108C14A70612108C47
:101643005BA70612108C0DB90612108C4F9406126C
:10165300108C5D940612108CD6940612108CAF95E4
:101663000612108C72970612108CA8B80612108CF2
:10167300DCF50512108C48F60512108CEBF60512FA
:10168300108C60F80512108CC7F80512108C14F931
:101693000512108C6DF90512108CF1F90512108CDE
:1016A30026FA0512108C44FA0512108CCAFA051298
:1016B300108C4DFB0512108C5AFB0512108CD4FABA
:1016C3000412108C00FB0412108C6AFD0412108C9F
:1016D300AAFD0412108CE6FD0412108CFAFD04120C
:1016E300108C13FE0412108C05FF0412108CB8FF2B
:1016F3000412108CCCFF0412108CD0AE0612108C86
:10170300F4AE0612108C0DAF0612108C4BAF0612FE
:10171300108C7BAF0612108CA8AF0612108C0EB083
:101723000612108C11B00612108C1BB00612108C0E
:1017330028B00612108C597D0012108C797D00128E
:10174300108CB87D0012108CD67D0012108CF17DA8
:101753000012108C577E0012108C637E0012108CC6
:10176300C07E0012108CCF7E0012108CF37E00120C
:10177300108CB47F0012108CC17F0012108CD27FAA
:101783000012108C7EFF0512108CC6FF0512108C00
:10179300F2FF0512108CFA840612108C548606127E
:1017A300108C62860612108C75860612108C8A863F
:1017B3000612108C9F860612108CB2860612108CAD
:1017C3002E870612108C93870612108C2988061216
:1017D300108C02890612108C12890612108C218932
:1017E3000612108C57FF0312108C7BFF0312108C10
:1017F300A3FF0312108CCBFF0312108CC3A006129D
:10180300108CEAA00612108C08A10612108C77A186
:101813000612108CFA9D0612108C139E0612108C61
:101823001F9E0612108C339E0612108C519E0612B8
:10183300108C5B9E0612108C659E0612108C789E8F
:101843000612108CFE9E0612108C739F0612108CCB
:10185300A29F0612108CF09F0612108C3FA0061256
:10186300108C5AA00612108C64A00612108C75A05E
:101873000612108CB8A00612108C09B70612108C31
:10188300D3F50312108CFFF50312108C1CF6031210
:10189300108C2FF60312108C4AF60312108CA4F648
:1018A3000312108CD2F60312108CE2FA0312108C7E
:1018B30040FC0312108C72FC0312108CD5FC031233
:1018C300108C41FE0312108C69FE0312108C7EFEF5
:1018D3000312108C8EFE0312108CCEFE0312108C9A
:1018E30010FF0312108C20FF0312108C72B106122A
:1018F300108C8CB10612108CB4B10612108CCDB1C1
:101903000612108CF1B10612108C0FB20612108C55
:1019130026B20612108C54B20612108C6FB2061245
:10192300108CE8B70612108CC6900612108CD69055
:101933000612108CDB910612108C0D920612108C7D
:101943003D920612108C60920612108C779206124A
:10195300108CB1920612108C16930612108C5893A9
:101963000612108C9F930612108CCC930612108CC7
:10197300F7930612108C6CAD0612108C8CAD061208
:10198300108CA0AE0612108CA3AE0612108CA7B456
:101993000612108CDDB40612108C1FB50612108CC3
:1019A3002FB50612108C73B50612108C1AE90512A6
:1019B300108C5DE90512108CC2E90512108CE1E967
:1019C3000512108C83EA0512108C8CEA0512108C18
:1019D300DDEA0512108C06EB0512108C13EB0512D1
:1019E300108C85EB0512108C13EC0512108C58EC3F
:1019F3000512108C91EC0512108CF6EC0512108C6C
:101A03001FED0512108C96ED0512108CE5ED0512F5
:101A1300108C22EE0512108C57EE0512108C69EE15
:101A23000512108C7BEE0512108C9AEE0512108CA9
:101A3300A3EE0512108C5FEF0512108CA2EF0512B6
:101A4300108CE0EF0512108C9BFF0112108C32B04A
:101A53000612108C18A30612108C4EA30612108CBB
:101A630096A30612108CEFA40612108CF0960512A2
:101A7300108C16980512108C52980512108C109A1F
:101A83000512108C3E9A0512108CA89C0512108C1E
:101A9300E89C0512108C8A9E0512108C209F05125B
:101AA300108C7A9F0512108C0AA00512108C4EA080
:101AB3000512108C90A00512108CF5A10512108C44
:101AC30075A30512108CB6A50512108CE4A505129A
:101AD300108C10A60512108C19A60512108C76A670
:101AE3000512108C0FA70512108C26AA0512108C54
:101AF300ACAA0512108CE0FF0412108CF6FF04123E
:101B0300108C79FB0512108C8FFB0512108C33FCA3
:101B13000512108C72FC0512108C8FFC0512108CB0
:101B2300C0FC0512108C0DFD0512108C41FD051231
:101B3300108C7CFD0512108C71FF0512108CA7B35D
:101B43000612108C06B40612108C44B40612108CC4
:101B530085B40612108C0CF00512108C1EF00512C1
:101B6300108C09F10512108C21F10512108C39F13A
:101B73000512108CA6F10512108CD6F20512108CEA
:101B830052F30512108C1FF40512108C56F4051233
:101B9300108C7EF40512108C25F50512108C6FF550
:101BA3000512108C87F50512108CBCF50512108CEC
:101BB30075A70612108CB3A70612108CDCA70612A9
:101BC300108C17A80612108C78A80612108C8AA8FD
:101BD3000612108C56A90612108CE0B80612108C4F
:101BE30000800512108C34800512108C0B820512B4
:101BF300108CAA830512108CE9840512108CBE8503
:101C03000512108C02870512108C38870512108C70
:101C1300F4870512108C778A0512108C9B8B0512A2
:101C2300108CBE8B0512108C518F0512108CC8912D
:101C33000512108CF4910512108C80920512108CF1
:101C4300A7920512108CE2920512108CBD94051216
:101C5300108C7DB50612108C00800412108C0C8041
:101C63000412108C6E800412108C78800412108C75
:101C730007810412108C43810412108C3C820412DD
:101C8300108C99820412108C27830412108C788391
:101C93000412108CF8830412108CBA850412108C71
:101CA300BF870412108CB9880412108CEB890412BC
:101CB300108C3D8C0412108C808D0412108C258E98
:101CC3000412108CD3920412108CC9930412108C3A
:101CD3005F940412108C84940412108C21950412C6
:101CE300108C3E950412108C5E950412108CCC95CA
:101CF3000412108CE9950412108C17960412108CA0
:101D0300AF970412108CD0970412108C769804129B
:101D1300108CBE980412108C1C990412108CBF995D
:101D23000412108C249A0412108C839A0412108CBF
:101D3300359B0412108CA49B0412108CDF9B04129D
:101D4300108C539C0412108C9E9D0412108C2E9F99
:101D53000412108CCD9F0412108C0DA20412108C4F
:101D63006FA20412108C9DA20412108CC0A4041242
:101D7300108C6AA70412108C7DA80412108C20BE4C
:101D83000512108C0DC10512108CD3C20512108CD4
:101D930085C60512108C9FC60512108CB2C605129B
:101DA300108CD1C60512108C9CC70512108C4EC91D
:101DB3000512108C00CA0512108C6ACA0512108C09
:101DC300FCCB0512108C2BCD0512108C64CE0512A2
:101DD300108C378D0612108CF28D0612108C588ED3
:101DE3000612108C798E0612108C548F0612108CEA
:101DF3006DC80412108C9CC80412108C20C90412E4
:101E0300108C83CA0412108C6DCB0412108C29CD54
:101E13000412108C4ECD0412108CA0CD0412108C21
:101E230032CE0412108C7ECE0412108C91CE04128A
:101E3300108CEECE0412108CBBCF0412108C2DD05C
:101E43000412108C64D00412108CADD00412108CC8
:101E530055D20412108C34D30412108C82D4041281
:101E6300108C65D50412108CF1D50412108C2AD66F
:101E73000412108C49D60412108C94D60412108CC0
:101E8300B4D60412108C71D70412108C94D8041297
:101E9300108CEFD80412108C35D90412108C3DDA53
:101EA3000412108CD8DC0412108CFEDC0412108C8B
:101EB30079DD0412108C9EDD0412108C12DE0412E4
:101EC300108CF0DE0412108C2EDF0412108CB8DF9D
:101ED3000412108C9FE00412108CA2E00412108CE8
:101EE300ACE00412108CB6E00412108CD2E00412A1
:101EF300108C44E10412108C7DE10412108CA9E1D2
:101F03000412108CD0E10412108CF4E10412108C32
:101F13002FE20412108CA2E20412108CD6E20412F7
:101F2300108CE0E20412108C1CE30412108C51E3B9
:101F33000412108C70E30412108CA2B70612108CDA
:101F4300BAB70612108CF3FF0112108C9EAC041268
:101F5300108CC1AC0412108C1FAE0412108C68AE2E
:101F63000412108CD4AE0412108C32AF0412108CF5
:101F730035AF0412108C86AF0412108CFBAF041221
:101F8300108C8BB00412108C8EB00412108C0FB115
:101F93000412108C50B10412108C75B50412108CFD
:101FA3001FB70412108C73B70412108C02BB0412F7
:101FB300108C3ABC0412108C0EBD0412108C78BD28
:101FC3000412108CA2BD0412108C5BBF0412108C7F
:101FD3003EC10412108CEDC10412108C8AC204128B
:101FE300108C75C30412108CDDC50412108C37C716
:101FF3000412108CA5C70412108C0BAB0512108CA5
:10200300B5AB0512108C20AC0512108C3BAC05123D
:10201300108CBCAC0512108C16AD0512108C5DAD86
:102023000512108CBCAD0512108CCEAE0512108CAF
:10203300F7B10512108C27B30512108CAFB305123C
:10204300108CB8B50512108C6AB60512108C04B743
:102053000512108CD5B70512108C90B90512108C8F
:102063002EBB0512108CBBBB0512108CE1BC0512F4
:10207300108C04D90212108C67D90212108CAFD9BC
:102083000212108CF3D90212108C4EDA0212108C49
:10209300ABDA0212108CE6DA0212108C68DB021241
:1020A300108CC2DB0212108C40DD0212108CB8DDE2
:1020B3000212108CD5DE0212108CFDDE0212108C7F
:1020C30050E00212108C61E00212108C79E00212CF
:1020D300108C82E10212108C5FE20212108C5CE31E
:1020E3000212108C80E30212108C97E30212108C00
:1020F300B8E30212108CDAE30212108CF9E3021235
:10210300108CD1E40212108C2BE50212108CC2E762
:102113000212108C1BE80212108C3AE80212108C87
:102123002AE90212108C60E90212108C93EA02125F
:10213300108C12EB0212108C4EEB0212108C88EBF7
:102143000212108CF7EB0212108CACEC0212108C02
:1021530084EE0212108C21FF0112108C09F102127D
:10216300108CFFF20212108C75F50212108C4FF7CF
:102173000212108C10F80212108C51E00312108C12
:102183009FF80212108C96F90212108C8AFA02122E
:10219300108CF9FA0212108CB7970612108C6799FB
:1021A3000612108C269A0612108C8E9A0612108C28
:1021B30052890612108C70890612108CB48906128B
:1021C300108CDA890612108C018A0612108C198A77
:1021D3000612108C318A0612108CD38A0612108CC8
:1021E30077DE0312108C388C0612108C418C061289
:1021F300108C4A8C0612108C538C0612108C5D8C3A
:102203000612108C7E8C0612108C00800612108C25
:102213003E840612108C4C840612108C51840612D4
:10222300108CF9AB0612108CD4FF0212108CAAB6D4
:102233000612108CBAB60612108C9CFB0212108C7C
:1022430000800212108C32800212108C9E800212C7
:10225300108C39810212108CD8810212108C1D82CD
:102263000212108C3F820212108C58820212108CC0
:102273007E820212108CA0820212108CDE82021265
:10228300108C22830212108C44830212108CA683BA
:102293000212108C6D840212108C24850212108C91
:1022A30096850212108C68860212108CB286021276
:1022B300108C05870212108C6B870212108CA58775
:1022C3000212108CF7870212108C13880212108CE2
:1022D3003E880212108C458A0212108C998B0212CE
:1022E300108CBB8B0212108CEF8B0212108C108C93
:1022F3000212108C1F8C0212108C2A8C0212108C6A
:10230300DA8C0212108C438D0212108CF08D0212A3
:10231300108C288E0212108CEE8E0212108CFB8F02
:102323000212108C45900212108CD4900212108C61
:1023330038910212108C73910212108CDF930212E7
:10234300108C33950212108C6C980212108C3999F0
:102353000212108CC7990212108CF0990212108C81
:10236300629A0212108CF69A0212108C549B02127B
:10237300108C469C0212108C689C0212108CC49D17
:102383000212108CDD9D0212108CF09D0212108C33
:102393005F9E0212108C6B9F0212108C789F0212A8
:1023A300108C819F0212108C59A10212108C7FA2F3
:1023B3000212108C8FA20212108C91A30212108CA5
:1023C30008A40212108C37A40212108C4CA502121E
:1023D300108C18A70212108CF0AA0212108CFAAA01
:1023E3000212108C0EAB0212108C18AB0212108C5E
:1023F30022AB0212108C2CAB0212108C45AB0212D2
:10240300108C4FAB0212108CC3AB0212108CCEABEC
:102413000212108CF3AB0212108CFEAB0212108C62
:102423004CAC0212108C56AC0212108C61AC02122E
:10243300108C85AC0212108CA9AC0212108C05AD65
:102443000212108C4BAD0212108C68AD0212108C6C
:10245300E5AD0212108C1CAE0212108C5BAE0212A0
:10246300108CA8AE0212108C2AAF0212108CC3AFCC
:102473000212108C93B10212108CF1B10212108C63
:102483000DB30212108C33B30212108C72B4021209
:10249300108C98B70212108CD9B90212108CB5BBEC
:1024A3000212108C4BBC0212108C72BE0212108CE2
:1024B3001EBF0212108C53BF0212108CB8BF02123F
:1024C300108CC2BF0212108CECC10212108C13C309
:1024D3000212108C53C30212108CF9C30212108C17
:1024E3008AC50212108C13C70212108C33C7021252
:1024F300108C8CC70212108C8EC80212108CD8C894
:102503000212108C28C90212108C12CA0212108CEB
:1025130087CA0212108CA1CB0212108C1CCC02129F
:10252300108C21CD0212108CCCCF0212108CEBCF69
:102533000212108C4CD10212108C0ED30212108C8A
:1025430062D30212108C1AD40212108CC9D4021254
:10255300108C1FD50212108CD5D50212108C6AD69E
:102563000212108CD6D60212108C10D70212108CC5
:1025730041D70212108C9DD80212108C00800312D6
:10258300108C32800312108C69800312108C5282DB
:102593000312108C35830312108C8D830312108C5D
:1025A300C8840312108C14850312108C3C88031208
:1025B300108C9E8B0312108CEB8C0312108C818D6C
:1025C3000312108C8D8D0312108CBF8D0312108C8F
:1025D300418F0312108CDC900312108C8491031230
:1025E300108CC7910312108C2D920312108C4A92F7
:1025F3000312108C7A920312108CAF920312108C78
:102603007F930312108C28940312108CAC96031240
:10261300108CCC970312108CB5980312108C379939
:102623000312108C569D0312108C939D0312108C71
:10263300EB9D0312108C1E9E0312108C9F9E03129F
:10264300108CEC9E0312108C779F0312108CC99F81
:102653000312108CA0A00312108C59A10312108C2A
:10266300F4A10312108C0DA50312108C2DA60312D6
:10267300108CDAA90312108CF8AA0312108CFBAA8F
:102683000312108C2AAB0312108C30AD0312108C82
:1026930009AE0312108C3EAE0312108C46AF031228
:1026A300108CFCAF0312108C9DB10312108CC2B1BD
:1026B3000312108C01B20312108C73B20312108C2C
:1026C30057B30312108C24B40312108C5AB603129E
:1026D300108CCBB60312108C0BB70312108C6CB793
:1026E3000312108C2FBB0312108C1EBC0312108C10
:1026F30005BD0312108C7DBD0312108C3FBE031267
:10270300108C3DC00312108C55C00312108C69C08D
:102713000312108CA1C00312108CCFC00312108CB3
:1027230056C20312108C61C30312108CB3C303127D
:10273300108C14C40312108CC6C40312108CEDC485
:102743000312108CD1C50312108C82C60312108C95
:1027530071C80312108CA6C80312108C0EC9031281
:10276300108C3DCA0312108CEFCA0312108C20CBBD
:102773000312108C38CB0312108CC7CB0312108CAE
:102783007BCE0312108C53D00312108C6FD0031224
:10279300108C8BD00312108C59D10312108C3DD5A1
:1027A3000312108C22860112108C5A860112108C8F
:1027B300388B0112108C7E8B0112108CCB8C011282
:1027C300108C368D0112108CBF8E0112108CCF919C
:1027D3000112108CEA920112108CFC9C0112108CD5
:1027E3008F9D0112108CE1A00112108CDDA101124A
:1027F300108C38A20112108C82A30112108C70A4C9
:102803000112108C0CA70112108C80A80112108CDD
:1028130003A90112108C06A90112108C7BA90112C5
:10282300108C85A90112108C92A90112108CBDA9DC
:102833000112108C6DAA0112108C66AB0112108C60
:1028430011AC0112108C2FAC0112108C48AC011288
:10285300108C71AC0112108C93AC0112108CE8AE89
:102863000112108CADAF0112108CF2AF0112108C5B
:1028730071B00112108C1DB10112108C4FB10112F5
:10288300108CA3B10112108CDEB10112108C25B291
:102893000112108C75B20112108C7AB20112108CD5
:1028A300CEB20112108CFAB20112108CE3B30112F2
:1028B300108C34B40112108C94B40112108CEEB449
:1028C3000112108C89B50112108CC8B80112108C3A
:1028D300DAB90112108C54BB0112108C64BE0112C0
:1028E300108C02BF0112108CF8C10112108CB7C2F8
:1028F3000112108CFBC20112108CA6C40112108CA1
:10290300BAC40112108CC4C40112108CCEC40112BB
:10291300108CDAC40112108CFFC40112108CD8C6BB
:102923000112108C2DC70112108C37C70112108CA5
:1029330041C70112108CB6C70112108C05C80112D1
:10294300108C16C90112108C63C90112108C70CA45
:102953000112108CB4CA0112108C5ACB0112108CC4
:102963004DCC0112108C13CD0112108C36CE0112F6
:10297300108C54CF0112108C3CD00112108C54D007
:102983000112108CABD00112108CB5D00112108C37
:10299300C0D00112108CDED00112108C26D101128E
:1029A300108C88D10112108CAFD10112108CC1D1BF
:1029B3000112108C5CD20112108C91D20112108C76
:1029C30078D30112108CBDD30112108CA3D4011241
:1029D300108CCAD40112108C4DD50112108CBED5A7
:1029E3000112108C47D70112108C73D80112108C6E
:1029F30036D90112108CFED90112108C88DA01121B
:102A0300108CB0DB0112108C52DC0112108CCDDC67
:102A13000112108C89DD0112108CD3DD0112108C90
:102A23002DDE0112108C05DF0112108C28DF01123C
:102A3300108CDBDF0112108CFDDF0112108C66E0BD
:102A43000112108C7CE20112108C74E30112108CC1
:102A530038E40112108C6AE60112108CB4E60112FC
:102A6300108C04E70112108C68E70112108CCAE77E
:102A73000112108CF8E70112108C1CE80112108C63
:102A830051E80112108C82E80112108CB5E8011292
:102A9300108C05E90112108C58E90112108C7DEAA3
:102AA3000112108C1DEC0112108C78EC0112108CA9
:102AB300A1EC0112108C2EED0112108C9CED011271
:102AC300108CAAED0112108CCEED0112108C23EEA6
:102AD3000112108C3EEE0112108CF0EE0112108CDC
:102AE30028EF0112108C6BEF0112108CCEEF011244
:102AF300108CD0F10112108CFAF10112108CF1F24A
:102B03000112108CFBF30112108CABF40112108C28
:102B13003A720012108C72720012108C93720012AF
:102B2300108CD5720012108C37730012108C417305
:102B33000012108C51730012108C8C730012108CC5
:102B43006C770012108C59790012108C3F7B0012A5
:102B5300108CD67B0012108C787C0012108C2B38D2
:102B63000012108CD6380012108C84390012108C8D
:102B73008A3A0012108CAA3A0012108CD33B00122E
:102B8300108C8E3D0012108C013E0012108CA53E5D
:102B93000012108CB13F0012108C1C400012108CDC
:102BA30058400012108C9B400012108CD64000122B
:102BB300108C18410012108CAD410012108C294268
:102BC3000012108CF3420012108CD0430012108CB0
:102BD30068440012108C82440012108CB24400121C
:102BE300108CE3440012108CA9450012108CB945D7
:102BF3000012108C08460012108C15460012108C1F
:102C03001E460012108C9C460012108CF8460012CF
:102C1300108C43470012108C5E470012108C8947BA
:102C23000012108CA6470012108CB2470012108CB1
:102C330049490012108C62490012108CE7490012B6
:102C4300108CFA490012108C194A0012108CBD4ADC
:102C53000012108C3E4C0012108CF14D0012108C9F
:102C6300874E0012108C8A4E0012108CFA4E0012FE
:102C7300108C184F0012108CAF4F0012108CF74FAE
:102C83000012108CFA4F0012108CC0500012108CDE
:102C93002D510012108C53510012108CDE51001272
:102CA300108CFC510012108C42520012108CF65200
:102CB3000012108C40530012108C6F530012108CB2
:102CC300CC530012108C01540012108C2D5400129E
:102CD300108C3B540012108C88540012108CF85442
:102CE3000012108C41550012108C8D550012108C5F
:102CF300B9550012108CC4550012108CE255001205
:102D0300108CCD560012108CD7560012108C12570F
:102D13000012108C22570012108C76570012108C60
:102D23008A570012108CB9580012108CCE5800121A
:102D3300108C5C590012108CA1590012108C2D5A62
:102D43000012108C385A0012108C7A5B0012108C0F
:102D5300955B0012108CE15B0012108C505C00122A
:102D6300108C895C0012108CA35C0012108C035D24
:102D73000012108CA25D0012108CED5D0012108CFD
:102D8300BD600012108C6F610012108CDC610012A8
:102D9300108C1C640012108C34640012108C376485
:102DA3000012108C43640012108C57640012108CB4
:102DB3005F640012108C92640012108C95650012EF
:102DC300108C22660012108C92660012108C14670D
:102DD3000012108CD5670012108CF4670012108C4F
:102DE30095680012108CF2680012108CF5680012BE
:102DF300108C69690012108CB86A0012108CBE6BBB
:102E03000012108C496C0012108C646D0012108C2F
:102E13002C6E0012108C5D6E0012108C806E0012EE
:102E2300108C896E0012108CB86E0012108C486FD3
:102E33000012108CFE6F0012108C73700012108C35
:102E43001A710012108C8F710012108CC67100124F
:102E5300108C04720012108C0DE00312108CCAFE49
:102E63000112108C53FD0112108CA5FC0112108C61
:102E730008FC0112108CFEFB0112108C97FB01124F
:102E8300108C7CFB0112108CD9FA0112108CD9F929
:102E93000112108CF7F80112108CE7F60112108C56
:102EA300F5F50112108CBCDF0312108C88F80212A6
:102EB300108C93F50112108CC0FA0412108C17DEDB
:102EC3000312108CE7DD0312108CB6FA0412108C77
:102ED3004BFA0412108C7FF80412108C3DF8041284
:102EE300108C49F70412108C1DF70412108CD4F6C1
:102EF3000412108C15F60412108CEDF20412108CCF
:102F030091F00412108C61F00412108C11F0041271
:102F1300108CABEF0412108C6AEF0412108C9CEE31
:102F23000412108C36EE0412108CD5ED0412108CA2
:102F330075ED0412108C13EC0412108CA7EB041221
:102F4300108CFBEA0412108CF6EA0412108CDFEAF0
:102F53000412108C3BDD0312108CAAEA0412108CAD
:102F6300D4DA0312108C8BD70312108CDFD6031222
:102F7300108C4DD60312108C07D60312108CD2D5A9
:102F83000312108C9FD50312108C8AD50312108C58
:102F93003CE70412108C39E70412108CF7E6041294
:102FA300108C5FD50312108CE4E60412108CD9E662
:102FB3000412108CA8E60412108CA0E40412108CE6
:102FC3000BDF0312108C13E40412108C158B061202
:102FD300108CCFE30412108CA3E30412108CB4E81A
:102FE3000512108C87E80512108C54E80512108C1A
:102FF3002CE80512108CCDE70512108CADE70512F5
:10300300108C78E70512108C24E40512108C0CE266
:103013000512108CF6DF0512108C76DF0512108C6A
:1030230022DF0512108C2EDE0512108CD6DE05125F
:10303300108C55FF0112108C91EF0200000080FBF1
:103043000000228F000100BB1E87000100B91E355E
:103053000004007F1E25000200831E260002008557
:103063001E27000200871E28000100911E2900016F
:1030730000921E84000400801B86000100FA1D2AB2
:10308300000100931E2B000100941E2C00010099E7
:103093001E2D0008008E1B2E0001009A1E2F00011A
:1030A300009B1E300001009C1E310001009D1E325A
:1030B300000100961B33000100971B340001009EA2
:1030C3001E36000100981B380001009F1E390001C5
:1030D30000981E83000200B71E63000100A31B6457
:1030E300000100951E65000100961E6D000100A4FD
:1030F3001B71000800861B66000100B61E43000119
:1031030000A71E44000200A81E45000100AA1E4697
:10311300000200AB1E470008009B1B48000100ADE6
:103123001E4B000100AE1E04000100BA1EA10001E7
:1031330000BE1E37000100BD1E88000100BC1E3CFE
:10314300000100991B3D000100A01E49000200AFD1
:103153001E67000100A51B4D000200B11E4E0001B9
:1031630000B31E4F000200B41E3E000100A61E5114
:10317300000100A21E52000100A31E53000100A57E
:103183001E540001009A1B00000000000000000014
:1031930000200121860000010020011C860000029E
:1031A3000020011D8600000300200120860000048A
:1031B300004201DE83000005004201308300000667
:1031C3000042012E840000070030011E860000002B
:1031D3004042019C840000FDFF210118862A04005F
:1031E3000039054B1A2A04C8003905531A2A04C9A1
:1031F3000039054F1A2A04010221234A1E2A0421F9
:10320300022123331E2A0422022123351E2A0420ED
:10321300021023371E2A0425021023381E0C0055E2
:10322300003905591A0C00650039055D1A0D0400B3
:10323300003905611A0D04020210232A1E0D04062B
:103243000210232C1E0D0405022123281E0D040247
:10325300041023321E000136360101000102010071
:103263000103010001040106060502000007010035
:10327300340801000F090401010D0100FF0E0800CD
:103283000017020000190100FF1A0100011B0100D1
:10329300FE1C0100081D0200001F010001200100A7
:1032A30001210200002301000F2402000026010077
:1032B3000127010008280200FF2A0100072B010251
:1032C300402C0100002D0100012E0100012F0100FF
:1032D300FF30010B1D310800003A0100083B0100DB
:1032E3000F3C0100013D0100FF3E040000420400C9
:1032F30000460400004A0400004E0400005204008B
:1033030000560400005A0400000103710301030185
:10331300030103010301032203020301031003005A
:103323000300030003000300030003000342030040
:1033330003240306030003000304031203250323EA
:1033430003250323030403040300030003000344CE
:1033530003000300032303000365032100350381F6
:1033630003000305030003000300030003250323F5
:1033730003030271023001600211027002010202B2
:103383000202028002100261023A004100630273EA
:1033930002720262024302000213023800000200BA
:1033A30002040212020002000200020002040204EC
:1033B30002370037003C02440200023900000200D9
:1033C30002650200023502810200020502820283C5
:1033D300020002030071003001600011007000312F
:1033E30002200350048000100061000000140063F9
:1033F3000073007200620043000000130006000027
:10340300000000040012000000000000000000049F
:10341300000400370037003C0244000000000000B5
:103423000000006500000035008100000005000079
:10343300008300000001017101010101011101017B
:10344300013101010101018001100161013B0014FF
:10345300006301730172016201430100011301065C
:10346300013D0135000401120100010001000100CA
:103473000104010401330133013C014401320136EB
:103483000000010001650100013500810100010513
:103493000182018301000103047104020460041129
:1034A3000470040204020401040204100461040011
:1034B30004140463047304720462044304000413D5
:1034C30004060400040004040412040004000400BD
:1034D30004000451046400000400040004440400D4
:1034E300040004000400046504000435048104643A
:1034F30000050400048304000436000100060000F4
:10350300000F0000000000000000000000000003A6
:10351300FFFF00000403FFFF0000FFFF0FF40100A3
:1035230005C4040320000100000B0000000000009C
:10353300000003010F000000000000000000000075
:103543000000000000000000000000000000000078
:10355300000000000000003C1D661D421D761C4853
:103563001D6C1D481D781D4E1D761C481D6C1D5479
:103573001D761C000000005A1D761C000000000090
:10358300000000601D761C00000000000000000029
:103593000000000000000000000000000000000028
:1035A3000000000000000000000000000000000018
:1035B3000000001300C41F1F00CA1F1F80D01F007C
:1035C300002A2001002A200200701F02806A1F03C4
:1035D30000761F04007C1F0480821F0500881F06DD
:1035E30000941F3100A61F3300AC1F3400B21F36F6
:1035F30000B81FFFFF00000A0000000200000004E3
:10360300000000080000001000000020000000403F
:103613000000008000000000010000000200000024
:10362300040000000800000010000000200000005B
:1036330040000001E027061028080A280B2E281056
:103643002E2502E62705FE2707EC270CC8270DD4F5
:1036530027642423FF000003000300040008001074
:10366300001F003E007B00F600EC01D703AF075DAF
:103673000FB91E713D0000020400002905651A02FE
:1036830004100229232E1E050400002105671A05D4
:103693000410022923301E07ECFDFDFDECDCDCCC1D
:1036A300BCACAC9C9C8C7C7C6C6C5C5C5C4C4C3C87
:1036B3003C2C2C1C1C03EAF5E5D5D5C5B5A5959581
:1036C3008585757565655555454535352525151527
:1036D3000500160F00000B150B020002220F33002A
:1036E300000E0F5A6967426565416C6C69616E63D0
:1036F30065303900000000000000000000000000F9
:10370300000000D0D1D2D3D4D5D6D7D8D9DADBDCD8
:10371300DDDEDF00034D4C4651181A25050230301B
:1037230017181921301B1D1F30003C40423A3F3F00
:10373300392F4730000119161816161823030030C5
:103743003016181920231A1C1E300C0E020B040B02
:103753000A0708000F02040201010101090200BE69
:10376300040AE80300000000E80303007F000E00E2
:1037730001000000040409100803030A0C051904DE
:1037830008001E0C281EFF000209033C0C05081547
:103793001004E4F0A3F0A3F0A322123795F02290D3
:1037A3001CEC124DA1122BCA221237B022E0F508ED
:1037B300E4F509F50AF50B22E824FBF582E934FF69
:1037C300F58322E82411F582E439F583E022F583B9
:1037D3001237D722E0F508A3E0F50922122E46742A
:1037E300041210D77F08020E1C7401F0900B5FE0E7
:1037F300640F2274091210D77F04020E1CEA2413EB
:10380300FAE43FFB122D74E9227905122D80740628
:1038130022A3A3E024F5C3941322122E52900B7F0C
:10382300126D5F7A147B0022C082C083901CCB741C
:10383300BEF0A3742BF0A374D0F0A3742BF0901CF0
:10384300CF74A6F0A3742BF0A374A0F0A3742BF091
:10385300A374DCF0A3742BF0A374E2F0A3742BF035
:10386300A374D6F0A3742BF0A3748EF0A3742BF07F
:10387300901CDB74B2F0A3742BF0A374B8F0A374A0
:103883002BF0A374ACF0A3742BF0A374E8F0A3742F
:103893002BF0901CEC1257706009901CEC124D9D9C
:1038A300121A66901CE91250B7740812640CA3F044
:1038B300901D95F0901CEEF07C0BFDF97AEF7B1CCC
:1038C3001219B87C0B7D0079007AFA7B1C1219B8A7
:1038D300024F1174F7120B5F74F712119FEAFEEB9C
:1038E300FF12396974051251D57403F0123A80122C
:1038F30051B72430FCE43FFD8C82123961123975D3
:10390300600812418E74FFF0A3F0EE242EE43F1CF6
:103913001CFD8C82F583A3E0C0E08A828B83124E68
:1039230069D0E0123975888289831256A42403F082
:10393300EE1241981214357403F0900B74120EEBCF
:103943007402121169123D621210D7E9F50870076B
:10395300EEFAEFFB122C5AA90874090241A7F5836A
:10396300E08882898322EA12396E221258B33FF526
:10397300832212668C1251C3E8F0A3E9126963E053
:103983002274F0120B5FEAFEEBFF8C0C8D0D890B9A
:10399300123A80F5831251CB7410121435E0F508F6
:1039A300A3123963F0E824FFF582E9123D74E508B8
:1039B300F0E824FEF582E9123D74E50BF0900B79F3
:1039C300E0C0E0E824FDF582E9123D74D0E0F09018
:1039D3000B78E0C0E0E824FCF582E9123D74D0E006
:1039E300F074121214351237D31237BBE509F0E81D
:1039F30024FAF8E934FFF98882F583E508F0EE2428
:103A030004FCE43FFD88088A828B83E0F50E8C82F8
:103A13008D83E0250EC3950812668C124FF1850C39
:103A230082850D83A3A3A3A3A3A3A3A3E06403702D
:103A330009EE1251A5F0A3E48003123D79123D81F2
:103A43007409F07508EF75091C750A0078081210DF
:103A5300C01261561210D77508FF7509FF78081256
:103A630010C4AC0CAD0D123D621210D7E9F508700D
:103A730007EEFAEFFB122C5AA9080237E7EA2402F1
:103A8300FAE43FFB8A8222C082C083901D0BE0C30D
:103A93009408400474078001E08A828B83F03333F7
:103AA3003354F8F9024F1174F0120B5F8A088B0933
:103AB300890A8C0E8D0F750C00A2AFE433F50BC28F
:103AC300AF901D058045123BAC503D123BC66403CD
:103AD3007036E50824F9F508E50934FFF5098E8207
:103AE3008F83A3A3E02405FCA3E03400FDAA08AB65
:103AF30009121B50E50824FFF508E50934FFF50911
:103B03007410250CF50C150A123F9B127114E50A6B
:103B13006004EE4F70B0E50BA2E092AFA2AFE433C6
:103B2300F50BC2AF901D05803E12567D8882F5834A
:103B33001248F1850882850983F08A828983123BC2
:103B4300BDA3A3E0C0E0E50824FFF582E509123D2B
:103B530074D0E0F0E50824FEF508E50934FFF50923
:103B6300050C150A123F9B123DEF6021123BC66400
:103B73000270F1123BACEE40B01252ECA2E550E4FD
:103B8300850E82850F837401F0E50A70D7E50BA2D9
:103B9300E092AF850882850983E50CF0E50824FFF0
:103BA300FAE50934FFFB0237E7123BB2A2E622EE45
:103BB3002411F582E43FF583E022123BC122125621
:103BC300C2A3228E828F83A3A3124E6D125D99220C
:103BD30074F0120B5F74F312119F7403121435E91E
:103BE300F07402121435EAF08B0B8521828522834F
:103BF300E4F004121161122B70E9F8900B5EE029D6
:103C03002437F508FA7B001219CA8A0C8B0DAE0C07
:103C1300AF0DEA4F7003023D59EA2402F50EE43F6B
:103C2300F50FA808EA28F8E43BF9850E82850F838F
:103C33001246ED900B5EE0F9FAC3E49AFA95E0FBC5
:103C4300850E82850F83E02AF50CA3E03BF50D90EA
:103C53000B5C1237D3750A0078081210C0E9FC7D9B
:103C630000AA0CAB0D1251271210D7AC21AD227450
:103C730001121435E0F9E50C24FFFAE50D34FFFBDE
:103C8300122B768A828B83E4F0E50BC454F0F9900F
:103C93001D96E0C4333354C0F8900B58E0A2E0E41F
:103CA3003313134849440FC0E0EA24FFF582EB12B3
:103CB3003D74D0E0F0EA24FEF50CEB34FFF50D740F
:103CC30003121435E0F87402121435E0C454F048BA
:103CD300850C82850D83F0A80C850E82850F8312D7
:103CE30063D92AC3988E828F83A3A3A3A3F0850EDF
:103CF30082850F83E8F0A3E50DF0123D79123D8133
:103D0300E4F0740C121435E4F07508FA75091C78A4
:103D1300081210C01261561210D7852182852283A2
:103D2300E06009EE240E1252EE4408F0122D62E90F
:103D3300F9E4F508F50978081210C474061211693C
:103D4300123D641210D7E97006EEFAEFFB800BEE1A
:103D5300FAEFFB1219D07A007B00740D0237E47975
:103D630003EEFAEFFB122D7A740222EE24FFF582A2
:103D7300EF34FFF58322EE12396EE4F0A322F01242
:103D83003D8622EE1260793FF5832274F2120B5FB7
:103D93008A0C8B0DA2AFE433F50AC2AF7508007528
:103DA3000900901D05802C123FAB5024850C8285A1
:103DB3000D83A3A31261698E828F83A3A3124D9DEA
:103DC300122D68E9600A123FA6C2E6F08E088F0939
:103DD300123F9B123DEF70CFE50845096006123E86
:103DE30088D2E6F0E50AA2E092AF800DE0FEA3E000
:103DF300FFEE4F2274021210D77F06020E1C74F0DE
:103E0300120B5F8A0E8B0F8C0C8D0D750A00A2AFFF
:103E1300E433F50BC2AF7E007F00901D058010AE2A
:103E230008AF09123E801252ECD2E7F0124D7B121A
:103E33004D8F6034123E88A2E750F18508828509D0
:103E430083A3A3120EEBAC0CAD0DAA0EAB0F122D78
:103E53006E74021210D7E960D3EE4F60C212422291
:103E63007006123E9AD2E4F0E50BA2E092AFEE4F59
:103E73006006122C54750A01A90A0237E7123BB2F5
:103E8300D2E4F0EE22E5081260933509F583E022CF
:103E9300AA82AB83121B508E828F83A3A3124E6D13
:103EA300E02274F2120B5F74FE12119F750C007501
:103EB3000D00852182852283E4F0A3F0A2AF33F5C0
:103EC3000AC2AF901D05127114802BEE24FBF582FC
:103ED300EF34FF1237D1780C1210C4123F8912103D
:103EE300D7EEFCEFFDAA21AB221219EEAE08AF0903
:103EF300901D0BE014F0EE4F602B123FAB501DEE04
:103F0300240BF8E43FF98882F583E024FFF0A3E073
:103F130034FFF08882898312577060AF8E0C8F0D47
:103F2300123F9B80A1E50AA2E092AF901D0BE060D7
:103F33002C900B5FE0640F6006901D95E0701E7A75
:103F4300E37B1C122E52908612120EE77AE37B1C3F
:103F5300124F991210D7800574F0124E7AAA21AB32
:103F6300221219F48A088B09AE08AF09EA4F6013CD
:103F7300122B82123FA6A2E28E828F83A350D974A2
:103F8300E980D7023DF7EEFCEFFD7A057B1D121A9F
:103F9300007402228E0A8F0BEE24FBF582EF34FFAE
:103FA300F58322EE123BB322123BB2A2E72274F74F
:103FB300120B5FEAFEEBFF122B82124E66120D2EDE
:103FC300E96401900B7B700AE02401F8A3E034005C
:103FD3008003124DECF91254EE124FF1901D0BE0D9
:103FE300701F900B5FE0640F70177AE37B1C122E37
:103FF30052908612120EE77AE37B1C124F9912102D
:10400300D7A8A8C2AF901D0BE004F0E8A2E7800494
:10401300E508A2E092AF0253FC74F7120B5FEAFECD
:10402300EBFFEA124052F0122B82EEFCEFFD7A0511
:104033007B1D1219FAA8A8C2AF901D0B124940901C
:104043000B5FE0640F70057908122D1A0253FC12FE
:104053003BB3C2E42274F7120B5F74EA12119FEAB6
:10406300FEEBFF900B58E0602A8521828522837442
:1040730001F0121435E412410D121435123E93C0AF
:10408300E0740A121435D0E01263F9740B1214357C
:1040930012565974160241A774F7120B5FEAFEEB2E
:1040A300FF122B64E9F974DC69601E74DD69601921
:1040B30074E469601474F369600F74DE69600A74F0
:1040C300DF69600574DB697007EEFAEFFB122D20E0
:1040D3000253FC74F7120B5F74EB12119FEAFEEBB1
:1040E300FF852182852283740612410D121435AA9D
:1040F30082AB83121B50EE2408FCE43FFD740A12CA
:10410300143512565974150241A7F0EA2413FCE43E
:104113003FFD74022274F7120B5F74F712119FEACA
:10412300FEEBFFEA24301252EE605DEA1241981270
:1041330014357403F0900B74120EEB12418E120EB1
:10414300EB900B87E0F97404121169EEFAEFFB129E
:104153002B6A74041210D7E9F974DC69602374DDE7
:1041630069601E74E469601974F369601474DE692C
:10417300600F74DF69600A74E869600574DB697055
:1041830007EEFAEFFB122D2002395CEE242EF582A6
:10419300E43FF5832212656AAA21AB22121B5074F5
:1041A300082274031210D70253FC74F2120B5F8AB5
:1041B3000C8B0D750A00750B007508E7A2AFE4338D
:1041C300F509C2AF901D058003123F97123DEF60C2
:1041D30025123FAB50F312422270EEEE243212430B
:1041E300B9E06870E4780A1210C4123F891210D73C
:1041F300901D0BE014F0E509A2E092AFEE4F6013BF
:10420300EEFAEFFB122B8279F0EEFAEFFB122D2080
:10421300750800A908AA0CAB0D122D20023DFC1253
:104223003D86E064012274F4120B5F74F712119F50
:10423300EAFEEBFF8A82F583A3E064F37003024294
:10424300C78A828B83A3E064DF60798A828B83A32E
:10425300E064E8606F8A828B83A3E064DB606512AD
:104263002BC4E9F5087055EE240E1252EE604D1280
:1042730042D1604874081214351242E0120EEB75F5
:1042830008FF7509FF78081210C48E828F83A3A3D9
:10429300A3A3A3A3A3A3E0F97404121169122B6AC5
:1042A30074041210D7E9F50874F369600F74DF69B9
:1042B300600A74E869600574DB69700F8E828F830E
:1042C300A3E508F0EEFAEFFB122BD00237F6EE244B
:1042D3000FFAE43FFB7909122C06EA4B227402120F
:1042E3005B5F74FFF0A31242ED221256ADA3A3222B
:1042F30074F1120B5FEAFEEBFF7508008A82F58307
:10430300A3A3A3A3A3A312381440037508E88A82C6
:104313008B83A3A3A3A3A3A3A3A3A3A3E0C39410E7
:1043230040057508E880138A828B83A3A3A3A3A304
:10433300A3A3A3A3A3E0640F600B901D72E0540832
:1043430070037508E8EA240B1243B9A3A3A3A3A33C
:10435300A3A3A3E0C398500DEA240B1252EE640FFB
:1043630060037508E8900B78E0F47003A3E0F47041
:10437300037508EC7A237B00121A608B0BA90B9050
:104383001CEC1243C860278E828F83A3A3A982AA41
:1043930083890C8A0D750E00780C1210C07C237D66
:1043A30000901CECE0FA1251271210D78003750815
:1043B3001AA908026151F582E43FF583E0F88A8285
:1043C3008B83A3A322EAF0A3EBF0EA492274F5124C
:1043D3000B5FEAFEEBFF8A82F583A3A3A3A3A3A348
:1043E300A3A3E0900B5F124460E0900B7AF0EA2401
:1043F3000B1252EE900B5A124460A3E0901D96F0FC
:10440300F9121826901D96E0600BEE24041252E078
:104413002406124456901D951237EC6004740180F3
:10442300027400901CEE126AA41210C07C0B7D0073
:104433007AEF7B1C1251271210D7EE2418F508E4EB
:104443003FF50978081210C07C0B7D007AFA7B1CBB
:10445300025114FAE43FFB79E112180E22126A8E1C
:10446300A3A3A3A32274F7120B5FEAFEEBFF8A82D6
:10447300F583A3E070031237A21266150253FC748E
:10448300F7120B5FEAFEEBFF901CEC125770601003
:10449300901CEC124D9D901CECE4F0A3F0121A66F4
:1044A3008E828F837408124E8112220A0253FC7487
:1044B300F6120B5F901D95E06010901CEEE0700A01
:1044C3001244D0EA4B6003122C5A02670F900B5A26
:1044D300E0FB900B7AE0FA900B5FE0F9122B7C2261
:1044E30074F4120B5F74E712119FEAFEEBFF750B76
:1044F300018A82F583A3A3A3A3A3A3A3E0A2E2500B
:1045030069EA242BF582E43F126167EA2413FAE493
:104513003FFB122B88E97052908494E0640170058C
:10452300750B0080451245A21210C07C0B7D0074F0
:10453300111211611251271210D7122D62E9FA7468
:104543000E1211598808890978081210C4750830A9
:1045530075090078081210C4EE1263C2120EEB1232
:10456300655C790112380E1210D78521828522836A
:104573007410F012655C7402121435AA82AB8312B4
:104583001B44EE242B126D55740B121435124FF18C
:10459300740D121435E50B1267CE74190237F8EE59
:1045A3002408126AAC22C082C083901D96E0600387
:1045B300122DD4024F11C082C083901D8D74CBF095
:1045C300A3741CF0A374CFF0A3741CF0A374DBF0EA
:1045D300A3741CF0901EF4749AF0A37434F0901D2D
:1045E30077745EF0A3742BF0901D107494F0A37491
:1045F3002BF0901D12749AF0A3742BF0901D72E0AF
:104603004402024A15C082C083EAFCEBFD7903022F
:10461300571CC082C083790802688FC082C083742C
:10462300FE12119F901D187442F0A3742CF0901D7C
:104633001A743CF0A3742CF080077A057B1D124694
:104643007A901D0512577070F1901D071257706014
:10465300097A077B1D12467A80EF901D05E4F0A3CB
:10466300F0901D0BF0A3F0A3F0901D26747EF0A331
:10467300742CF07402801C1219F485218285228324
:10468300EAF0A3EB12468E122D5022F0AA21AB22A0
:104693002274111210D7024F1174F6120B5FE9FF47
:1046A300742C29F582E43437F583E493FEFA7B0016
:1046B3001219CAEA4B6007EA2E1246EA80267A02EA
:1046C3007B001219CAEA4B601774212FF582E43478
:1046D30037F583E4938A828B83F0A3741A124AB367
:1046E3007A007B0002670F124FE0E8126689A3A3EA
:1046F300A3A3E4F022E9FC740629F8EAA2E0501E21
:10470300E875F00A84E5F0F96014740A28C399F88F
:10471300E9C394054004740A28F8740B28F8ECC321
:1047230094134004791480027906E8297900240956
:10473300F85001097A0A7B001208FDE8F902108992
:10474300C082C083901D72E05402600A122210E9F5
:104753006004790180027900024F11C082C0839006
:104763001D72E054026014901D0BE0700A12576D25
:1047730060091247835004790180027900024F11C6
:104783001237C6A2E722C082C083908491E0F890DA
:104793001D0DE0C39850051219CA80047A007B00EE
:1047A300024F11C082C083122D507900024F11C0F5
:1047B30082C08374FE12119F852182852283EAF0D1
:1047C300A3EB12491CA3A3A3A3A3E0600A1460579D
:1047D30024FE605A02488C900B5FE0640F60121253
:1047E3002D26E9700C124D97901D14124E69120D6F
:1047F3002E900B87E0C0E08521828522831256909C
:10480300D0E012491C74141260ADFCA3E0FD7A07DA
:104813007B1D1219EEA8A8C2AF901D0D1249407955
:1048230020122D1A024676124BEA741580D9124BC8
:10483300EAA3A3A3A3E06051124BEA123E9EC0E099
:10484300852182852283E02406F582E43BF583D02B
:10485300E01260AD2402F8A3E03400F98882F58306
:10486300E02401FAA3E03400FB88828983EAF0A301
:10487300EB1260AD124C2A852182852283601312CC
:1048830048F160051249034048AA21AB22122D507A
:1048930080921248F160F21249035021124910FA32
:1048A300852182852283A3E0C82406124BE6F8748F
:1048B300571258A53437F583E4936A60148521822F
:1048C3008522831248F1640870BF1249106408708E
:1048D300B812491014124924240AC0E085218285A4
:1048E3002283124E69D0E01249240402480A124876
:1048F300F522124DECC82406F582E438F583E02254
:104903008521828522831248F5C3940A2285218258
:10491300852283123BC1A3E02212492EF5838882AC
:104923002212492EC82406124C1422F085218285B6
:104933002283124DEC22A8A8C2AF901D0CE004F014
:10494300E8A2E792AF22C082C083901D1C12577069
:104953006008124BF1120D2E80027900024F117480
:10496300F7120B5FEAFEEBFFEA123D877401124F69
:104973009FF8A3E0F9123969124FF1EA2435125274
:10498300EEC0E0EA2413F582E43FF583D0E0F0EAD9
:1049930024361252EEC0E0EA2414F582E43FF58394
:1049A300D0E0F0EA24381252EEC0E0EA2418F5828F
:1049B300E43FF583D0E0F0EA242FF582E43FF5836A
:1049C300120EEB126569EA24311252EEF9123D68B8
:1049D3001210D7E9F5087007EEFAEFFB122C5AA96B
:1049E300080253FCC082C083122D26E9600479209B
:1049F30080027901024F11C082C083EA2411124A56
:104A03000BD2E0800DEA240DF582E43BF583E0222E
:104A1300F0A3F0024F11C082C083124A08640170F0
:104A230011124AAD400C8A828B83A3E0F9122D2028
:104A33008066124A9EA2E650128A828B83A3E0F913
:104A4300901D16124E69120D2E804D124A086401F4
:104A5300700D124AAD50088A828B83743080368A77
:104A6300828B83A3E0641B8A828B8370047422800D
:104A730024A3E0700D124A08F874421258A5343783
:104A8300800B124A08F874211258A53437F583E4D1
:104A9300938A828B83124AB3024F11124AA222EAEB
:104AA3002410F582E43BF583E022124AA2A2E3221A
:104AB300F0901D6DE0F91219D62274F7120B5FE91D
:104AC300FE12576D7003024BE3EE6014741B6E709D
:104AD3001AE812607939F583E064057003024BBB71
:104AE300901D0F124BF1A3E4024BC274E96E706880
:104AF300E82412F582E439F583E0700B122216E9FB
:104B03006005124C34606179EE121790901D0E12FD
:104B13004C0B901D0E603A124C37901D0E700B1209
:104B23004C0B14F0121946024BE3124C29C2E71244
:104B33004DD2240D124BE664037009124C04124D3E
:104B430088D2E2F079ED121790124C1C120D2E80D0
:104B530078124BF774E9806774E16E703E12221687
:104B6300E96055124C347050900B81E0C0E0124C58
:104B7300042412F582E438F583D0E0F0900B70E062
:104B8300C0E0901D0E124C00124C00D0E0F0900BD0
:104B930070E004F0790112192E8045741C6E7018B0
:104BA300901D0E124D9D901D1E124E69120D2E90DA
:104BB3001D0EE4F0A3F08028901D0E124BF7EEF0CB
:104BC300901D0E124D9D122C48124DB3E05480607F
:104BD3000312687E901D0EE4F0A3F07910122D1AD3
:104BE3000253FC124C1422852182852283A3E0F513
:104BF30083888222124BFB22124E71A3221256BECD
:104C030022901D0E12569F2212569F2412124C14EC
:104C130022F582E438F583E022901D0E124DA19017
:104C23001D12124E6D22E0F8A3E0C82410124C149A
:104C330022901D0E124DBAE054042274F4120B5F3D
:104C4300750A00750B00A2AFE433FEC2AF12576DB5
:104C53006003024D31124E66120D2EE94410F89096
:104C63001D05800985080A85090B124D7B124D8F9E
:104C73007003024D31123E88586870E8780A1210AA
:104C8300C4AC08AD09123F8D1210D7901D0EE50874
:104C9300F0A3E509124DD2124D88A2E75003024D4D
:104CA30038901D0CE014F0EEA2E092AF901D0EE0E0
:104CB300240EF8A3E03400F9E8FEE9FF8882F583C7
:104CC300124D9D901D0E124916F9122C0CE9901DE0
:104CD3000912640C8E828F83E054806018124C0496
:104CE3002413124BE6F912184A124C042414124BE3
:104CF300E6F912183E124DB3A3E05401605F901D14
:104D0300091257706045124DC96040124DC9F879B8
:104D130000901D09124D9D120905E8C0E0124DA730
:104D2300D0E0124DD7C3941340117402800FEEA24A
:104D3300E092AF8037901D0B024CA77400C0E09047
:104D43001D0FE0C8124D72D0E0800D124DA7740103
:104D5300124DD2124D727401F07903800C901D0E26
:104D6300124C29A2E1B3E433F912192E0237FB24C2
:104D73001AF582E438F58322E50824FBF582E50978
:104D830034FFF58322126093124C17221237D7E5B2
:104D930008450922852182852283124DA122E0FA4A
:104DA300A3E0FB2212569C2419F582E438F58322F2
:104DB300901D0E124DBA22124DECC8124DC2221292
:104DC30058B338F5832212569C2418124C1422121D
:104DD3004DE4C822124DE4F5838882A3A3A3A3E084
:104DE30022F0901D0E124DEC22E0F8A3E02274F79E
:104DF300120B5FEAFEEBFF122D4A1252EBA2E340C5
:104E03000A124222700590848F8003908490E0F907
:104E1300EEFCEFFD7A057B1D121A06E96038EEFA07
:104E2300EFFB901D18124E69120D2EEE240E125236
:104E3300EE54047012124939EE12396AA3E0540198
:104E4300701E122C548019EEFAEFFB901D10124EB7
:104E530069120D2E800A8E828F83A374F1124E7A0B
:104E63000253FC901D1A124E6D22124E7122E0F86D
:104E7300A3E0F583888222124E81122C4822F0EEA1
:104E8300FAEFFB22024F0A74F7120B5FEAFEEBFF05
:104E93007900901D72E05402700CEA24331252EE32
:104EA3005404600279E8901D72E05460700CEA24A7
:104EB300331252EE5402600279E88A828B83A3A3F1
:104EC300A3A3E0F8908495E0C398500279E8EA241C
:104ED300311252EE700CEA242E1252EE700479F560
:104EE300800BE97005122C36E9F9E96007EEFAEF59
:104EF300FB122D200253FCC082C0838A828B8374F1
:104F03000DF012220A8007C082C083122C54D08372
:104F1300D08202108974F4120B5FEAFEEBFF8A82DF
:104F2300F583E4F0A3124F9F540490848F7012E032
:104F3300F8901D0CE0C398401279F1122D2002372E
:104F4300FBE0F8901D0BE0C39850EE124FA5A3E0D1
:104F530054016037EA24371252EEC394054033EA12
:104F630024331252EE540570297A207B1D122E52DF
:104F7300EE2437F582E43FF5831237AC780812103C
:104F8300BC7A207B1D124F991210D7EEFA12599654
:104F930080AC79E880A5122E46740422F0124FA546
:104FA300E022EA2433F582E43FF5832274F6120B00
:104FB3005FE9FE2451FAE43400FB1219CAEA4B609C
:104FC30015EE8A828B83A3A3A3A3F0EA2451124F85
:104FD300E0124FF180047A007B0002670FF8E43B94
:104FE300F98A828B83A3A322126D5F901DEAE8F0F6
:104FF300A3E9F022024F0AC082C083901D2974A83E
:10500300F0A3742CF0A374D8F0A3742CF0A374AEA3
:10501300F0A3742CF0A374B4F0A3742CF0A374D293
:10502300F0A3742CF0A374C6F0A3742CF0A374C083
:10503300F0A3742CF0A374DEF0A3742CF0A374E437
:10504300F0A3742CF0A374EAF0A3742CF0A374F609
:10505300F0A3742CF0A374BAF0A3742CF0A374A27D
:10506300F0A3742CF0A3749CF0A3742CF0901D4552
:1050730074CCF0A3742CF0A374F0F0A3742CF0A3FD
:10508300740AF0A3742EF0A374FCF0A3742CF0A3A1
:105093007402F0A3742DF0901D69E4F0901D6CF080
:1050A300901D551250B77402F0901D5E1250B774E4
:1050B30001024A15741AF0A3742DF0A32274F51299
:1050C3000B5F74F112119F8521828522837402F094
:1050D3007401121435E9F060047AFF7BFF74021245
:1050E3001435125B5475086175091D750A0078083B
:1050F3001210C07C0B7D007407121435AA82AB8397
:105103001251271210D7AA21AB2212220A740F8040
:10511300031251271210D77F03020E1C7C0B7D0054
:105123007A617B1D1219AC74032274F7120B5F743E
:10513300FD12119F852182852283740AF074011266
:105143001435E9F07402121435EA1267CE0241A550
:1051530074F6120B5F74F712119FEAFEEBFFEA126B
:1051630051A51251D57402F0EA2428FCE43FFDAAAC
:1051730021AB22121B44EE24311251AB24331261B2
:10518300CD1210C4740212116979831A1A123D6682
:105193001210D7E9F5087007EEFAEFFB122C5A024A
:1051A300670812396E740122F582E43FF5831237E2
:1051B300D7125675F5831251C3E8F0A3E9F0EE2236
:1051C3001251CB8A828B8322E024FFF8A3E034FFC1
:1051D300F922F0A3E4F0EA123D872274F0120B5F88
:1051E300126C3D1213AA7808790C1209F878081288
:1051F30010BC7A587B1D0237DF74F4120B5F74C640
:1052030012119F900B5FE0640F600D852182852250
:1052130083742E125B7380227A4F7B1D12381D120A
:10522300090588088909E4F50AF50B78081210BC0A
:105233007A4F7B1D124F991210D7743A0237F874C4
:10524300F5120B5FEAFEEBFF8A82F583A3E0F870A9
:1052530078EA24301252EE64026007E064036002CD
:1052630078E8EA2426F582E43FF5831238164004F1
:1052730078E88058E87052EA2426124456EE243126
:105283001252E024301252EE6402700EEE24281201
:105293006D55900B6E124FF18017900B6E74FEF0EC
:1052A300A304F0EE2428FCE43FFD7A657B0B121B7C
:1052B30050EE241B1245A51210C012511F1210D715
:1052C300EEFAEFFB122C96E9F8E8600EE88E828F77
:1052D30083A3126571741712661B02511AFAE43F15
:1052E300FB795012180EEE22EE2410F582E43FF5FE
:1052F30083E02274F6120B5F74F712119F901D6CFA
:10530300E070377401F0F91218F8AA21AB22122DBC
:105313005C75086175091D78081210C4750801755C
:10532300090078081210C4900B74120EEB74061265
:1053330011697A0312380C1210D702670A74F71234
:105343000B5F12551C7004A374EBF0901D6CE0A26C
:10535300E25003C2E2F0E0A2E1500512552D8009AC
:105363008E828F83742A12661B0253FC74F4120B11
:105373005F74FE12119F125422125668EC8521822B
:105383008522831256B7E0F50B7015AA21AB22795B
:105393005312180EEE2413FAE43FFB794A12180E47
:1053A3001245A21210C012511F1210D7124D97A905
:1053B3000B122C8A901D6CE0A2E15003125534901D
:1053C3001D6CE4F074020237F874F7120B5FEAFE07
:1053D300EBFF8A82F583A374EBF0901D6CE0A2E1EE
:1053E30050077A0079EB122C90EEFAEFFB122CC6E1
:1053F3008007EEFAEFFB122DC87F01020E1C74F733
:10540300120B5F125422901D69E4F0901D6CF07A28
:10541300FF7BFF8E828F83A3E0F9122C8A80DA123E
:10542300556D7A587B1D122E522274F7120B5FEAC8
:10543300FEEBFF122CC080BA74F7120B5F1255AA51
:10544300A3A3A3E060047400800274EB12547B50A6
:1054530003C2E2F0E0A2E1500512557E8011A2E002
:10546300500D8E828F83742AF0A374EB12661BEEA9
:10547300FAEFFB122C6C80818E828F83A3F0901D38
:105483006CE0A2E22274F6120B5FEAFEEBFF901DC2
:105493006CE0D2E1F079011218F88E828F83A3E0D9
:1054A3007038122D62E9FAEE240DF508E43FF50990
:1054B30078081210C475080175090078081210C421
:1054C3001254EE120EEBEE2402FCE43FFD12380CF4
:1054D3001210D7E98E828F83A3F08E828F83A3E08D
:1054E30060067A00F9122C9002670FEE240BF58206
:1054F300E43FF5832274F7120B5F12551C7004A36B
:1055030074EBF0901D6CE0A2E25003C2E2F0E0A263
:10551300E1500312552D0253FCEAFEEBFF79011211
:1055230018FE8E828F83E0642022C2E1F01255348C
:10553300227A008E828F83A3E0F9122C902274F7D3
:10554300120B5F12556D8E828F83A3A3A3A3E0601A
:10555300047400800274EB12547B5003C2E2F0E047
:10556300A2E1500312557E025472EAFEEBFF790169
:105573001218FE7A4F7B1D122E5222C2E1126A9F2D
:10558300E0A2E4E433FA1255362274F7120B5F12E9
:1055930055AA74EB1254805003C2E2F0E0A2E1502A
:1055A3000312552D0253FCEAFEEBFF79011218FE9C
:1055B3008E828F83A32274F7120B5F1255CF02538F
:1055C300F574F7120B5F1255CF0253FCEAFEEBFFA3
:1055D3007A4F7B1D122E52EEFAEFFB122CEA227445
:1055E300F7120B5F74EF12119FEAFEEBFFEA1265ED
:1055F3005D7A657B0B121B3EE9605685218285220D
:10560300837409F0740112143574EFF01256687440
:1056130002121435EC1256B7A3A3E0C0E0740412CF
:105623001435D0E01256A4640870158E828F83A3BC
:10563300A3125690E0C0E07405121435D0E0800642
:105643007405121435E41263F974061214351256F4
:105653005974110241A7AA82AB83122D92AA21ABDE
:105663002212220A22125675F583125687FCA3E0F2
:10567300F922EE12567DFB8882222402F8E43FF9D8
:10568300E8FAE922124DEC8882F583E02212569F54
:105693002407F582E438F58322901D0E124DECC8E1
:1056A300221256A8221256ADE022F08E828F83A3D7
:1056B300A3A3A3221266891256BE221256C222E067
:1056C300F8A3E0F5838882A3A322C082C083122DAE
:1056D300D4024F11C082C083901D897429F0A37432
:1056E3001DF0A37445F0A3741DF0901EEE7438F002
:1056F300A37434F0A37474F0A37433F0901D757421
:1057030084F0A3742CF0901D72E04401024A15C08A
:1057130082C083EAFCEBFD7902122D38024F11742B
:10572300F6120B5F74FE12119F901D6E125770607C
:10573300077A6E7B1D122D50901D74E4F0901218A1
:1057430012577060208007AA21AB22122D50901DA2
:105753006DE0F91219E28B09A9098521828522835B
:105763001243C870E2740202670C901D0E126D5F43
:10577300E8492274F7120B5FE9FA7B00901D6DE094
:10578300F9121A0C0253FC74F7120B5F74F0121126
:105793009FEAFCEBFDE9FE8A828B83E0F8744D12ED
:1057A30058A53437F583E493C0E07401121435D05F
:1057B300E0F0640B700DE98A828B83A3F0122DB69F
:1057C3000258A0E070030258A0640C6003025891D1
:1057D300741A6E700B7404121435E4F0A30258901B
:1057E3007404121435125B54EA243212605DC0E073
:1057F3007403121435D0E0126A8A1213FA74061273
:1058030014351214068C828D83A3A3A3A3A3A3A38D
:10581300A3A3126D5B740A121435E8F0A3E91258BE
:10582300AAE054106009852182852283E48013EC69
:10583300241212605DF8900B81E0C3988521828564
:105843002283F0E0C0E0740C121435D0E0F0EC24B5
:105853001512605DC0E0740D121435D0E0F0EC2435
:105863001612605DC0E0740E121435D0E0F0EC2423
:105873001712605DC0E0740F121435D0E01258AAFD
:10588300A3E05401600874011214357411F074021A
:10589300121435EEF0740112116112220A7410020F
:1058A30041A728F582E422F0EC1258B33DF5832298
:1058B300240EF582E422C082C083901D74E0640349
:1058C3007004790180027900024F1174F7120B5FA3
:1058D300901D74E012594974EC28F582741E39F551
:1058E30083125DDBC2E7F0125950A3E493FE25E077
:1058F300FCE433FD74EC2CF582741E3D126167ECFD
:105903004D6005EE901D74F08A828B83E025E0FCE8
:10591300E433FDE82CF582E93DF583E493FCC454BC
:105923000F25E0F874831258A5341DF583125770C0
:105933007005122DA4800CEC540F125950124E69AD
:10594300120D2E0253FC25E0F8E433F92225E0FC86
:10595300E82CF582E439F5832274F2120B5F74FEAE
:1059630012119F890B8A088B091259FB1259EC609B
:105973001A126406F50A78081210C0125A08240293
:1059830012615D1210D71259948003125A1A023D04
:10599300F7AA0CEFFB901D6DE0F91219D62274F0F3
:1059A300120B5F74FE12119F890B8A0E8B0F125913
:1059B300FBF5081259EC6027126406A808EA2812BE
:1059C30046EA850E08850F09F50A78081210C012F9
:1059D3005A0812615B1210D712599479008005128C
:1059E3005A1A791A74020237E4FA7B001219CA8A26
:1059F3000C8B0DAF0DEA4F22741629F582E4343770
:105A0300F583E49322A80B74371258A53437F58332
:105A1300E493FC7D00EA22852182852283E50BF055
:105A2300791AAA21AB22122D2022C082C083E990C9
:105A33001D6D024A1574F6120B5F74FE12119FEA74
:105A4300FEEBFFEA542070308039A8A8C2AF901D46
:105A53000DE0141249428A828B83125B41901D70C0
:105A6300125B54122D2C852182852283E0641560FC
:105A7300077A707B1D122D507A077B1D1219F4EAE9
:105A83004B70C7EF5480700C8016901D70EAF0A322
:105A9300EB125B67901D6DE0F91219E2EA4B70EAB5
:105AA300EE5410600B852182852283742D125B7363
:105AB300EEA2E0500B8521828522837424125B734E
:105AC300EE5402600B8521828522837425125B7359
:105AD300EE5404600B8521828522837426125B7346
:105AE300EE5408600B8521828522837428125B7330
:105AF300EE5440600D7401121435125B5A742C126B
:105B03005B73EE5480600D7401121435125B5A748A
:105B13002F125B73901D6E125770601BA8A8C2AF43
:105B2300901D6E124D9D901D6EE4F0A3124942A389
