:020000040000FA
:0600000002135202080188
:03001B0002095780
:03002B0002111EA1
:03004300020FB8F1
:030053000207366B
:030073000209ACD3
:100083000207950100F0FF0700080000FFFF0000D2
:100093000504000000030001FF1E102700000020DC
:1000A300FD000206FFFF1E008000806666B64081E9
:1000B3001D00000000000000000000000000000020
:1000C30000000000000100010001E803000000003F
:1000D3000000000000000100010001E8030000002F
:1000E300000F0000000F0000000104010C000204D7
:1000F300168401B9850204010C000202A1850000E7
:100103000001040000BB18000000E8030000FFFF2B
:100113000C1988130000E803000064006400B801B0
:10012300A0BB0D00A0BB0D00020202070401071EC5
:1001330002051E020A0A010108080103B80B028026
:100143003E0102FEFFE8030A050001FFFF020A0168
:100153001401E002000000050301010F0300030086
:100163000300030003000300030003000300050072
:100173000A00140028004F009E0000006D2F0000AD
:100183000000A32E00000000FF000000FF00121378
:1001930080604612139E603DE9687008F618F618F1
:1001A300F618F622748067F71201C50909097480ED
:1001B30067F72212139E601D121380700519191917
:1001C300801A121265701F121251C37003E667334F
:1001D30019191940071818182208080874FFF61887
:1001E300F618F618F62212125160171214367021FF
:1001F30092F01214247019501720F01408080809FB
:100203000909E7F61819E7F61819E7F61819E7F6D2
:100213002212142460E6E869701F0808E62480F6B9
:1002230008E436F618547FB47F0CE654806007F672
:10023300E418F618F622181822E9C6CC08C6CD0829
:10024300C6CE08C6CFC0E0E8C0E0EAC0E0EBC0E03D
:1002530009E9F809E7FA09E7FBE6F918E6F8C3EC58
:1002630098ED99EE9AEBC2E7F5F0EFC2E795F050FF
:100273000E600CEBCFFBEACEFAE9CDF9E8CCF8EA55
:10028300A2E7D2E7FAEB33FB13F5F0EEA2E7D2E7EE
:10029300FEEF33FFC5F013A2E730E601B313C5F059
:1002A300C3C0E0C0F07F00C39BFB605E9418600F87
:1002B300401D14601AD0E023F9D0E0F80203978AB6
:1002C300F0E9486003D2F0E4AFF0FAF9F8803BEBD1
:1002D30030E40D89F0EA6003D2F0E4AFF0F9CAF834
:1002E300EB30E30D88F0EF6002D2F0AFF0E4CAC95F
:1002F300F8EB54076014FBC3EA13FAE913F9E813A4
:10030300F8EF135002D2E0FFDBEDD0E0C0E030E7BE
:1003130039C3E49FFFF5F0EC98FC42F0ED99FD4200
:10032300F0EE9AFE42F0D0E0F9D0E0F8E5F0607A22
:10033300E923F9EE20E742D8028067C3EF33FFECED
:1003430033FCED33FDEE33FE80EAEC28FCED39FDA2
:10035300EE3AFED0E023F9D0E0F84002801BC3EE72
:1003630013FEED13FDEC13FCEF135002D2E0FF0874
:10037300B800067F7F74FF802EEF3350178CF02078
:10038300F00260100CBC000C0DBD00080EBE000492
:1003930008E860DFE933E813FFEE2313FE4F4D4C0B
:1003A3008008E95480FFE4FEFDFCEE33EF33F47084
:1003B30004FCFD7E80D0E0FBD0E0FAD0E0F8D0E092
:1003C300CFC618CEC618CDC618CCC6F92212139EB6
:1003D300700418181822121380700D74FFF6181980
:1003E300F61819F61819F622E7548066F612142443
:1003F300700F12143670F014F608F608F608F6803B
:10040300D1121436700CF608F608768008E6447F9D
:1004130080EC121254700C12126860BFE65480F61E
:10042300E480BB121268700519191980A5E8697078
:100433000C763F18768018F618F6E8F922E6CDC058
:10044300E018ECC0E0E633CD33CDD313F6E719FC67
:10045300E7191933CC33C3947F400ECD9D50240844
:10046300E65480F6E418F6800FF4043D14501408A3
:10047300E6447FF6187680E418F618F6D0E0FCD050
:10048300E0FD22CCD313CCFD18E4C6CBC0E018E4C6
:10049300C6CAC0E00808ED08C633E613F618E4330D
:1004A300C675F003C3CA97CA09CB97CB199C4004FE
:1004B3007D08802EBD000302057916B6FF050606EA
:1004C300081618C3CA33CACB33CB33CA27CA09CBDE
:1004D30037CB193CC37D08803E187D0820E75CC6F6
:1004E30033C6CA33CACB33CB33DDF1D5F0EB30E7B8
:1004F3007BCA97CA09CB974ACB199C406F4B70258F
:10050300E620E0218066187D08C3CA97CA09CB9705
:10051300CB199CD3C633C6CA33CACB33CB3350C9EA
:10052300DDE7D5F0E1D3E4C636C608C636C608C64D
:1005330036C608C636C61818188031C3CA97CA0902
:10054300CB97CB199CB34097C633C6CA33CACB33B8
:10055300CB33DD34D5F02EC6A2E0C640C8CA27CAC5
:1005630009CB37194A70BECB3CB480B90808E633CF
:1005730008E633601F181818D0E0FAD0E0FBD0E08B
:10058300FCD0E0FD22187D08CA27CA09CB37CB1956
:100593003CD3808013F618E4B67F11F618B6FF0E2D
:1005A300F618C60470D20808768080CAF618F618C2
:1005B300F680C50012139E604F1213806012E75439
:1005C3008066F61212657011121436703B09090920
:1005D300F4F618F618F618F62212125170151214C2
:1005E3002408080860EAE6447FF618768018E4F6E3
:1005F30018F62212142460161214367012E4F60848
:10060300F608F608E65480F609090918181822EACC
:10061300C0E0EBC0E0ECC0E0EDC0E0E687F0A4FB97
:10062300ACF008E687F0A42CFCE435F0FA1809E6F0
:1006330087F0A42C4B60027401CA35F0FCE433FB51
:1006430009E687F0D2F7A42CCB35F0FC1908E6872E
:10065300F0A42BCC35F0FBE433FD0819E687F0D288
:10066300E7A42C4ACB35F0CD3400FC09E687F0D261
:10067300E7A42DCC35F0FDE433FA0918E687F0D270
:10068300F7A42CCD35F0CA3400FC08E687F0D2E796
:10069300D2F7A42ACC35F07A7E20E70B0ACB33CBF2
:1006A300CD33CDCC33CC33CB3350147004ED30E0A9
:1006B3000ED2F1E4CD3DCDCC3CCC3B5005DA05C2A6
:1006C300F1EB547FC63308E63392F0FBE73309E7D7
:1006D30033C39A502D2B70190C0D4C4D7015180601
:1006E300E608C333700D20F10AA2F013F6E4188074
:1006F3000B4024E4F630F002768018F618F618F66C
:100703008024D33B14501074FFA2F013F6187680A4
:10071300E418F618F6800FA2F013F618E63303F682
:1007230018ECF618EDF6D0E0FDD0E0FCD0E0FBD0FD
:10073300E0FA22C0E074F1120BC4A2AFE433F5096E
:10074300D2AF85A708AFA1EF5508FE74105E60060F
:1007530012171575A1EF74085E600812171B75A1B7
:10076300F78024EFA2E092F0E508A2E082F05017B0
:10077300906198E0F8900B47E0C398A2D265D0331C
:100783005002E8F075A1FEE509A2E092AF7F0202F4
:100793000C23C0E074F2120BC4A2AFE433FED2AF59
:1007A3009061A4E0F8759B00E591585408600875C2
:1007B30091F71217698023E59158541060087591D9
:1007C300EF12176F8014E591A2E092F0E8A2E082A5
:1007D300F05007E0C2E0F01218B99061A3E0F8E529
:1007E300E9585404600E12188F75E9FB906193E089
:1007F300A2E640F2EEA2E092AF7F01020C23C0E03A
:1008030074F2120BC4A2AFE433FED2AF9061A5E041
:10081300F8E5BF585404600675BFFB1218D180D4A5
:1008230012086E30F0391208B3803412086E20F0CB
:100833001430E72B74FFFCFBFA747F8022E4FCFB8B
:10084300FA7480801AB48008BC00F2BB00EF800FFA
:1008530050EBF9E4C39AFAE49BFBE49CFCE499C6ED
:10086300CC18C6CB18C6CA18C6F922E4C9C608CA2A
:10087300C608CBC6D3330308CCC63392F0C3947FE8
:10088300402E94184019C9B90704CACBCC2250256D
:10089300C309CA33CACB33CBCC33CC33D9F422F418
:1008A300600DC9CCC313CB13CBCA13CAD9F6CC2260
:1008B300E4FCFBFA2214FCFBFA22C3E498F8E49963
:1008C300F91208FE8026C3E49AFAE49BFBE920E7C9
:1008D300E91208FEE498F8E499F922C3E498F8E4ED
:1008E30099F91208FEE498F8E499F9C3E49AFAE452
:1008F3009BFB22EB20E7CFE920E7E0B90010BB0028
:1009030008E88AF084F8AAF022E4FBC8FA22EB7024
:10091300227B10C833C8C933C9335007C39AC3DB1A
:10092300F280069A50012ADBEAC833F4C8C933F4CB
:10093300C9FA2275F008E4C833C8C933C933C99A60
:10094300C99B5004C92AC93BD5F0ECFBC833F4C892
:10095300E4C9FA22C0E0C0D0E8C0E0E9C0E0C08248
:10096300C083A8F9E8C0E0900AB4E0F8743328F52E
:1009730082E4340AF583D0E0F0900AB3E0F8A3E010
:10098300687006E595900AB6F0900AB4E004F0C3E7
:1009930094804002E4F0A374C6F0D083D082D0E008
:1009A300F9D0E0F8D0D0D0E032C0E0C0D0E8C0E069
:1009B300E9C0E0C082C083900B37E0F8A3E0687021
:1009C30008539AF7A374018022C2EA900B37E0F828
:1009D300740128F074B728F582E4340AF583E0F54E
:1009E300F9900B37E0C394804002E4F080AC080830
:1009F30008EAC0E0EBC0E086F0E7A4FA180986F045
:100A0300E7A42AFA180986F0E7A42AFA180986F057
:100A1300E7A42AFA1986F0E7A4FBE5F02AFA1908F5
:100A230086F0E7A42BFBE5F03AFA190886F0E7A471
:100A33002BFBE5F03AFA18180986F0E7A4C5F02B6A
:100A4300FBE43AFA1908E7C5F0C6A426F6E5F03B3D
:100A5300FBE43AFA1886F0E7A4F6E5F00826F6E494
:100A63003B08F6E43A08F6D0E0FBD0E0FA220808A7
:100A730008E630E711121215120A89080808C6445D
:100A830080C618181822181818E9799EC608CAC60D
:100A930008CBC608CCC6C370207996CACBCC7019D4
:100AA300798ECBCC70137986CC700EF9802ACA3339
:100AB300CACB33CBCC33CC331930E7F2CCCBCA33EC
:100AC30050147004EA30E00DE4CA3ACACB3BCBCCF5
:100AD3003CCC500209C3E913C6CC182313C6CB1868
:100AE300C6CA18C6F922E4CFC0E0E4CEC0E0E4CD24
:100AF300C0E0E4CCC0E075F020E626F608E633F665
:100B030008E633F608E633F6181818EC33FCED3331
:100B1300FDEE33FEEF33FFC3EC9709ED9709EE9734
:100B230009EF97191919400FFFEC97FC09ED97FD91
:100B330009EE97FE191906D5F0BFECF709EDF70991
:100B4300EEF709EFF7191919D0E0FCD0E0FDD0E07A
:100B5300FED0E0FF222521C582C0E0E52234FFC597
:100B630083C0E0E521C3958224F810AF0885832272
:100B73008582218008858322858221D2AFCEF0A38E
:100B8300E520F0A37808E608F0A3DEFAEFF0A3E58A
:100B93008124FAF8E608F0A3E608F0A3E608F0A338
:100BA3000808E608F0A3E608F0A315811581D0E054
:100BB300FED0E0F8158115811581E8C0E0EEC0E0B4
:100BC30022C0D02521C582C0E0E52234FFC583C001
:100BD300E0E521C3958224F310AF08858322858243
:100BE300218008858322858221D2AFC8F0A3E9F052
:100BF300A3EAF0A3EBF0A37908E709F0A3D8FAEC92
:100C0300F0A3EDF0A3EEF0A3EFF0A3D0E0F0A3D0B8
:100C1300E0F0A3D0E0F0A3E520F0A3E5F0F0A322F9
:100C2300852283852182E0C0E0A3E0F9A3E0FAA353
:100C3300E0FBA37808E0F608A3DFFAE0FCA3E0FDFD
:100C4300A3E0FEA3E0FFA3E0C0E0A3E0C0E0A3E0D5
:100C5300F5D0A3E0F520A3E0A3F5F010AF0885835A
:100C6300228582218008858322858221D2AFD0828A
:100C7300D083D0E0F8D0E032121218181818120AF4
:100C8300E912131119191922121311191919080844
:100C930008E618181820E7E0120AE91212181818C3
:100CA3001822090909E719191920E7DC080808E6D9
:100CB30018181820E703020AE91212181818181254
:100CC3000AE91212181818181213111919192212F5
:100CD300140FB90003020D11E490050178A87917E8
:100CE3008002F0A3D8FCD9FA7AA87B1B90008678FF
:100CF3000C79028015E493A3AD82AE838A828B8341
:100D0300F0A3AA82AB838D828E83D8E9D9E775825B
:100D1300F0758393740512107B7582D375832B74DE
:100D23000012107BFF75F0108E238F248582288597
:100D33008327852182852283E0CEA3E0CF85288285
:100D4300852783EBC9EAC8EDCBECCAC3E833C8E90E
:100D530033C9EA33CAEB33CBC3EA9EF526EB9FF5DF
:100D630025B35004AB25AA26EC33CCED33CDD5F017
:100D7300DAAE23AF242212139E601C121380601775
:100D830012142470071214367001D322C0D0121427
:100D9300367006D0D0B322C32233D0D0501430E003
:100DA300F6C3E7960809E7960809E7960809E79660
:100DB300B32220E0D5E6970809E6970809E69708E5
:100DC30009E697B322D083D082ECC0E0EDC0E0E423
:100DD30093A3FCE493A3FDED4C600D120EA0EC2451
:100DE300FFFCED34FFFD80EFE493A3FCE493A3FD4C
:100DF300ED4C600D120F3DEC24FFFCED34FFFD8044
:100E0300EFD0E0FDD0E0FCE493A3C0E0E493C0E0C6
:100E130022852283852182E0A3FEE0A3F5207808C2
:100E2300E0A3F608DFFAE0A3FFE0A3C0E0E0A3C07D
:100E3300E0E0A3C0E0E0A3C0E0E0A3C0E010AF089F
:100E43008582218583228008858221858322D2AFF2
:100E5300D083D082021081D083D082E9C0E0E493B2
:100E6300A3C386F0C5F095F0F908E493A386F0C513
:100E7300F095F0700BE493A3C3994005E904800255
:100E8300A3E475F002A42582F582E5F03583F583AA
:100E9300D0E0F9E493A3C0E0E493C0E022C0E0C350
:100EA300E49396087401939618400FE493667008D0
:100EB30008740193661870007019A3A3C3E4939692
:100EC300087401939618A3A3400DD0E0D0E0D0E0BE
:100ED300020E04A3A3A3A3A3A3D0E022740480045B
:100EE30074028000CCC0E0EDC0E0E521C39CCCAD32
:100EF3002250011D10AF068C218D2280068C218D7E
:100F030022D2AF120FFDD0E0FDD0E0FC22740280AC
:100F130000CCC0E0EDC0E0E521C39CCCAD22500184
:100F23001D10AF068C218D2280068C218D22D2AF1D
:100F3300120FDBD0E0FDD0E0FC22C0E0C0F088F06F
:100F4300E4936670080874019366187000A8F0A310
:100F5300A3700BD0F0D0E0D0E0D0E0020E04A3A346
:100F6300D0F0D0E022D083D082CCC0E0E493A36061
:100F73000612101E1470FAE493A36006121197145C
:100F830070FAD0E0FCE493A3C0E0E493C0E022C095
:100F930008C3E096F50808A3E096420808A3E09684
:100FA300420808A3E0964208A2D265D033E5087050
:100FB30001D3D00822C0E074F2120BC4A2AFE43311
:100FC300FED2AFC2C0E5D1A2E45003121679EEA25D
:100FD300E092AF7F01020C23CAC0E0E493A3C58271
:100FE300CCC582C583CDC583F0A3C582CCC582C5DC
:100FF30083CDC583DAE5D0E0CA22CAC0E0E0A3C549
:1010030082CCC582C583CDC583F0A3C582CCC582FE
:10101300C583CDC583DAE6D0E0CA22C0E0E493A35A
:10102300D39C5010E493A3C39C400AD0E0D0E0D0FB
:10103300E0020F85A3A3A3D0E022700908080822C9
:101043006016181818C6C333C608C633C608C63395
:10105300C608C633C6D5E0EA22C008C3E096F50841
:1010630008A3E096420808A3E096420808A3E09686
:1010730045087001D3D00822C09FF59FE473D09F29
:1010830022D083D082C09FE493C0E0740193C0E078
:10109300740293F59F222521F58210AF08F52140B4
:1010A3000C15228008F52140021522D2AF85228338
:1010B300227404800A74038006740280027401C0DF
:1010C300E0F404121099D0E01213AD2200C0D02531
:1010D3002110AF08F521500C05228008F52150029C
:1010E3000522D2AFD0D022BB0102E722C082C08347
:1010F30089828A83BB0003E08002E493D083D08299
:10110300226017080808C6A2E713C618C613C61834
:10111300C613C618C613C6D5E0E922C0E0C0D0E89E
:10112300C0E0A8A8D2AFC2C7E8A2E792AFD0E0F868
:10113300D0D0D0E0326016080808C6C313C618C65C
:1011430013C618C613C618C613C6D5E0EA2225214E
:10115300F8E43522F9222521FAE43522FB22252160
:10116300FCE43522FD22C3E0C696F608A3E0C6964A
:10117300F608A3E0C696F608A3E0C696F622252154
:1011830010AF08F521400C15228008F52140021507
:1011930022D2AF22C0E0E493A36C7009D0E0D0E088
:1011A300D0E0020F85A3A3D0E022C3E7960809E7A6
:1011B300960809E7960809E796A2D265D03322E795
:1011C3006670100809E766700A0809E76670040884
:1011D30009E76622C3E09608A3E09608A3E0960811
:1011E300A3E096A2D265D03322E066701008A3E094
:1011F30066700A08A3E066700408A3E06622C3E4ED
:101203009396087401939608740293960874039353
:101213009622181818E4C396F608E496F608E4969E
:10122300F608E496F622C3E096F008A3E096F008E9
:10123300A3E096F008A3E096F022C3E697F6080928
:10124300E697F60809E697F60809E697F6221919CC
:1012530019E70947097009E727097005E733F422FD
:101263000922181818E60846087009E626087005CA
:10127300E633F4220822E026F608A3E036F608A3B4
:10128300E036F608A3E036F622E026F008A3E036BF
:10129300F008A3E036F008A3E036F022E627F608CC
:1012A30009E637F60809E637F60809E637F6227045
:1012B3000422600D18C6C333C608C633C6D5E0F48E
:1012C3001822E657F60809E657F60809E657F6081E
:1012D30009E657F622E647F60809E647F60809E65F
:1012E30047F60809E647F622E056F608A3E056F665
:1012F30008A3E056F608A3E056F622E056F008A34A
:10130300E056F008A3E056F008A3E056F022E4C349
:1013130097F709E497F709E497F709E497F722C6E3
:10132300F4C608C6F4C608C6F4C608C6F4C622C383
:10133300E7960809E7960809E7960809E79622C39E
:10134300E09608A3E09608A3E09608A3E09622752A
:10135300D00075813F75210175220500020CD26012
:101363000C08C6C313C618C613C6D5E0F422E6F0AC
:1013730008A3E6F008A3E6F008A3E6F022E709478E
:1013830009C3134709336002E733F422E0F608A3E5
:10139300E0F608A3E0F608A3E0F622E6084608C351
:1013A300134608336002E633F422CAC0E0E6F0A332
:1013B30008DAFAD0E0FA22800100E9F874FF28F98C
:1013C3000470F622E0FAA3E0FBA3E0FCA3E0FD2215
:1013D300ECF0A3EDF0A3EEF0A3EFF022E0F8A3E02E
:1013E300F9A3E0FAA3E0FB22E8F0A3E9F0A3EAF013
:1013F300A3EBF022E0FCA3E0FDA3E0FEA3E0FF22C9
:10140300EAF0A3EBF0A3ECF0A3EDF022E5C754F868
:101413004401F5C77901222521F582E43522F583BC
:1014230022E62618461846184622C2AF75D69F02F2
:10143300000022E727194719471947221210849CF5
:10144300DC02121084E0DC021210847ADD02121036
:1014530084EADD0212108419DE021210841FDF02F7
:1014630012108449DF021210849DDF02121084716E
:10147300E0021210849FE2021210844DE302121064
:1014830084BAE5021210843FE60212108442E90294
:1014930012108476EB02121084B2EB021210840B4A
:1014A300ED021210841EED021210845BED02121085
:1014B30084F7EE02121084ABF00212108422A60409
:1014C3001210849EA604121084D1A604121084FF65
:1014D300A6041210843DA7041210847AA9041210E2
:1014E3008499A904121084DEA90412108474AA0436
:1014F300121084C0AA0412108454AB041210842D59
:10150300AC0412108489AC04121084E7AC041210EA
:10151300845AAD041210849EAD04121084F6AD04F7
:1015230012108418AE04121084A8AE041210843969
:10153300AF0412108485AF04121084B1AF041210EB
:1015430084F2AF0412108488B10412108474B204BC
:101553001210844FB3041210840080051210842CDF
:1015630080051210844C80051210847380051210BC
:1015730084A08105121084C181051210848982051B
:10158300121084499F051210844E9F051210848106
:101593009F05121084D39F05121084EE9F0512102D
:1015A30084F49105121084BB9205121084CD920528
:1015B300121084BFFF01121084D0FF01121084EABD
:1015C300FF01121084F9FF0112108463A0051210A9
:1015D30084539D05121084639D05121084789D0524
:1015E300121084C19D05121084F3FE041210847737
:1015F300FF04121084DFFF04121084BF8D05121044
:1016030084D38D05121084498E05121084988E059B
:10161300121084CD8E05121084F08E0512108413DF
:101623008F051210844C8F051210847D8F051210C4
:1016330084C48F0512108478A00512108466F80400
:1016430012108474F804121084EDF804121084C686
:10165300F90412108489FB0412108415A0051210DA
:101663008454D504121084C0D50412108463D604A4
:10167300121084D8D7041210843FD8041210848C1B
:10168300D804121084E5D80412108469D904121006
:10169300849ED904121084BCD90412108442DA0443
:1016A300121084C5DA04121084D2DA04121084F101
:1016B300DA041210841DDB0412108487DD04121077
:1016C30084C7DD0412108403DE0412108417DE04C1
:1016D30012108430DE0412108422DF04121084D529
:1016E300DF04121084E9DF04121084D5950512106B
:1016F30084F99505121084129605121084509605EC
:10170300121084809605121084AD9605121084136E
:10171300970512108416970512108420970512104E
:10172300842D9705121084DA8805121084FA88052F
:101733001210843989051210845789051210847296
:101743008905121084D88905121084E489051210C2
:1017530084418A05121084508A05121084748A0504
:10176300121084358B05121084428B05121084539A
:101773008B0512108481FF03121084C9FF0312101A
:1017830084F5FF031210843FE00412108499E104EE
:10179300121084A7E104121084BAE104121084CF5A
:1017A300E104121084E4E104121084F7E10412103E
:1017B3008473E204121084D8E2041210846EE304EA
:1017C30012108447E40412108457E4041210846650
:1017D300E404121084BA9C05121084DE9C051210D6
:1017E30084069D051210842E9D0512108477FD0238
:1017F3001210849EFD02121084BCFD021210842B71
:10180300FE0212108407860512108420860512102A
:10181300842C86051210844086051210845E86058A
:10182300121084688605121084728605121084854E
:1018330086051210840B8705121084808705121009
:1018430084AF8705121084FD87051210844C880528
:10185300121084678805121084718805121084821F
:101863008805121084C58805121084F69E0512108F
:101873008415BF0412108441BF041210845EBF0498
:1018830012108471BF041210848CBF04121084E6FA
:10189300BF0412108414C00412108424C404121050
:1018A3008482C504121084B4C50412108417C604BC
:1018B30012108483C704121084ABC704121084C0AF
:1018C300C704121084D0C70412108410C804121065
:1018D3008452C80412108462C804121084CD99057E
:1018E300121084E799051210840F9A0512108428A8
:1018F3009A051210844C9A051210846A9A051210E4
:1019030084819A05121084AF9A05121084CA9A052D
:101913001210848F9F05121084DDF404121084EDDD
:10192300F404121084F2F50412108424F604121045
:101933008454F60412108477F6041210848EF6048D
:10194300121084C8F6041210842DF7041210846F49
:10195300F704121084B6F704121084E3F70412108C
:10196300840EF804121084379705121084499705E2
:101973001210845D98051210846098051210840D6E
:101983007F00121084437F00121084857F001210A1
:1019930084957F00121084D97F0012108492C804AA
:1019A300121084D5C8041210843AC9041210845941
:1019B300C904121084FBC90412108404CA0412104F
:1019C3008455CA041210847ECA041210848BCA047C
:1019D300121084FDCA041210848BCB04121084D01D
:1019E300CB0412108409CC041210846ECC041210A0
:1019F3008497CC041210840ECD041210845DCD04A0
:101A03001210849ACD04121084CFCD04121084E1F5
:101A1300CD04121084F3CD0412108412CE041210DC
:101A2300841BCE04121084D7CE041210841ACF0460
:101A330012108458CF041210843F9E051210848D17
:101A43009805121084818B05121084B78B05121030
:101A530084FF8B05121084588D05121084008004B6
:101A630012108426810412108462810412108420CF
:101A730083041210844E8304121084B88504121058
:101A830084F885041210849A870412108430880421
:101A93001210848A88041210841A89041210845E36
:101AA3008904121084A08904121084058B04121077
:101AB30084858C04121084C68E04121084F48E0460
:101AC300121084208F04121084298F04121084862C
:101AD3008F041210841F9004121084369304121082
:101AE30084BC93041210844DA00512108449ED04A4
:101AF3001210845FED0412108403EE04121084426A
:101B0300EE041210845FEE0412108490EE0412109F
:101B130084DDEE0412108411EF041210844CEF04E0
:101B230012108441F104121084FD9A051210845C92
:101B33009B051210849A9B05121084DB9B051210DF
:101B43008484CF0412108496CF0412108481D004AD
:101B530012108499D004121084B1D0041210841E80
:101B6300D1041210844ED204121084CAD20412106B
:101B73008497D304121084CED304121084F6D304B2
:101B83001210849DD404121084E7D404121084FF2D
:101B9300D40412108434D504121084DE8F0512107D
:101BA300841C9005121084459005121084809005C2
:101BB300121084E19005121084F39005121084BF73
:101BC3009105121084E37F0012108415B3031210E1
:101BD3008449B30312108420B503121084BFB603E3
:101BE300121084FEB703121084D3B80312108417A3
:101BF300BA031210844DBA0312108409BB031210E6
:101C0300848CBD03121084B0BE03121084D3BE03B0
:101C130012108466C203121084DDC40312108409F7
:101C2300C50312108495C503121084BCC50312109A
:101C330084F7C503121084D2C703121084FD9B05D9
:101C4300121084B8C201121084C4C2011210842677
:101C5300C30112108430C301121084BFC3011210D8
:101C630084FBC301121084F4C40112108451C50112
:101C7300121084DFC50112108430C601121084B023
:101C8300C60112108472C80112108477CA0112109F
:101C93008471CB01121084A3CC01121084F5CE0100
:101CA30012108438D001121084DDD0011210848BFD
:101CB300D50112108481D60112108417D701121096
:101CC300843CD701121084D9D701121084F6D701AE
:101CD30012108416D80112108484D801121084A122
:101CE300D801121084CFD80112108467DA011210C0
:101CF3008488DA011210842EDB0112108476DB0152
:101D0300121084D4DB0112108477DC01121084DCFE
:101D1300DC011210843BDD01121084EDDD01121091
:101D2300845CDE0112108497DE011210840BDF0144
:101D330012108456E001121084E6E101121084852A
:101D4300E201121084C5E40112108427E501121088
:101D53008455E50112108478E70112108422EA0108
:101D630012108435EB011210841B940412108408A2
:101D73009704121084CE9804121084809C041210CD
:101D8300849A9C04121084AD9C04121084CC9C048D
:101D9300121084979D04121084499F04121084FB2F
:101DA3009F0412108465A004121084F7A10412107A
:101DB3008426A3041210845FA4041210844EF10439
:101DC30012108409F2041210846FF204121084902A
:101DD300F2041210846BF30412108434E003121023
:101DE3008463E003121084DBE003121084EAE1034E
:101DF30012108446E203121084B3E303121084CF5B
:101E0300E30312108421E4031210845FE40312102D
:101E13008472E403121084CAE4031210848CE50371
:101E230012108408E6031210843FE603121084772D
:101E3300E603121084FFE703121084DEE803121096
:101E4300842CEA031210840FEB031210849BEB0320
:101E5300121084DBEB03121084FAEB031210844597
:101E6300EC0312108465EC03121084FEEC031210D1
:101E73008484ED03121084DFED031210841FEE033C
:101E8300121084B5F003121084CEF10312108414DF
:101E9300F20312108409F30312108431F3031210B6
:101EA3008434F3031210843EF3031210845AF303B1
:101EB300121084D4F3031210840DF4031210843926
:101EC300F40312108460F40312108484F4031210D8
:101ED30084F5F40312108408F50312108437F50314
:101EE300121084CA9D05121084D69D051210840A0F
:101EF3009E05121084FB7F0012108405CA03121082
:101F03008428CA0312108475CB03121084BECB033A
:101F13001210841EFD0312108488CC031210848BCC
:101F2300CC03121084DCCC0312108451CD031210A5
:101F330084D6CD031210844BDC021210845ACE03D4
:101F43001210849BCE0312108487D20312108431A3
:101F5300D40312108481D40312108408D8031210FE
:101F6300843BD903121084B5DA0312108452DB03C5
:101F73001210843DDC0312108492DE031210845687
:101F8300EF0112108400F0011210846BF0011210A3
:101F93008486F0011210840BF10112108476DA02A8
:101FA300121084ACF10112108413F2011210849206
:101FB300F301121084C1F40112108449F5011210C7
:101FC3008452F701121084FFF701121084A3F80161
:101FD30012108474F9011210842FFB01121084C7AC
:101FE300FC011210845AFD0112108480FE011210AC
:101FF30084008003121084638003121084AB800377
:10200300121084EF80031210844A8103121084A7F4
:102013008103121084E2810312108464820312107C
:1020230084BE82031210843C8403121084BC840394
:102033001210841785031210843185031210845201
:102043008503121084AC85031210842888031210B0
:10205300844788031210843789031210846A8A0321
:10206300121084E98A03121084258B0312108494BE
:102073008B03121084498C03121084218E031210D7
:1020830084288F03121084A0900312108496920365
:102093001210840C9503121084E69603121084A781
:1020A30097031210841F980312108436980312109A
:1020B300842D9903121084219A03121084909A0399
:1020C3001210841583051210846C84051210842B5E
:1020D3008505121084938505121084CEFB0412101B
:1020E30084E9FB041210842DFC0412108453FC04B5
:1020F3001210847AFC0412108492FC0412108434AB
:10210300FD0412108449FD041210846CFE041210A5
:102113008475FE041210847EFE0412108487FE046C
:1021230012108491FE0412108497E404121084A305
:10213300E804121084A8E804121084AAE804121018
:1021430084629405121084CCFF02121084979E05BA
:10215300121084A79E0512108411E904121084350D
:10216300AC0212108468AC02121084D4AC021210B8
:10217300846FAD021210840CAE0212108451AE02B1
:1021830012108473AE021210848CAE02121084B249
:10219300AE02121084D4AE0212108412AF021210D7
:1021A3008456AF0212108478AF02121084DAAF02A1
:1021B300121084A1B00212108458B102121084CA02
:1021C300B10212108495B202121084E8B202121006
:1021D300844EB30212108488B302121084DAB3025D
:1021E30012108448B402121084B3B402121084B6DD
:1021F300B40212108437B502121084CEB502121045
:10220300844EB6021210846DB602121084D1B70246
:10221300121084DEB702121084EAB802121084F797
:10222300B80212108400B902121084D8BA02121034
:1022330084F2BB021210846BBC02121084DDBC0258
:10224300121084FFBC0212108493BD021210846723
:10225300BF021210843EC30212108452C302121032
:102263008462C3021210846CC30212108475C30209
:102273001210847EC30212108488C302121084B524
:10228300C302121084DEC302121084E9C3021210C7
:10229300840DC40212108431C4021210849BC40240
:1022A300121084E1C402121084FEC4021210847B53
:1022B300C502121084B2C502121084F1C5021210B5
:1022C300843EC602121084C4C60212108492C8024D
:1022D30012108415C902121084F9C9021210846005
:1022E300CC02121084B9CC0212108403CD02121056
:1022F300845ECE0212108493CE02121084E5CE02C5
:102303001210849ACF0212108449D00212108486CC
:10231300D0021210841BD10212108487D102121032
:1023230084503200121084823200121084B03200C2
:10233300121084863400121084663500121084BE95
:102343003500121084F9360012108445370012103C
:10235300846E3A00121084613D00121084B13E0075
:10236300121084473F00121084533F0012108485DB
:102373003F00121084084100121084B94200121069
:10238300844D43001210849043001210840E4400C5
:102393001210842B44001210845B440012108490AA
:1023A3004400121084604500121084094600121084
:1023B300848F4800121084AF49001210849A4A0097
:1023C3001210841C4B00121084504F001210848D85
:1023D3004F00121084E54F001210841850001210A1
:1023E30084825000121084B85000121084435100AC
:1023F3001210849B51001210847252001210842B0D
:102403005300121084C65300121084CE56001210CB
:1024130084EA57001210848D5B00121084815C00E3
:10242300121084845C00121084B35C00121084B90F
:102433005E00121084925F00121084D55F001210A8
:10244300842B61001210846A6100121084F361000E
:10245300121084276200121084EC620012108404AC
:102463006500121084756500121084B565001210A2
:102473008443660012108465670012108427680085
:102483001210842E6A00121084466A001210845AB5
:102493006A00121084926A00121084C06A0012103B
:1024A300843F6C00121084646D00121084C16D00AF
:1024B300121084736E001210849A6E0012108461DD
:1024C3006F00121084F96F001210841F7200121033
:1024D30084547200121084B77200121084E67300E1
:1024E3001210848E7400121084BF7400121084D7EB
:1024F30074001210846675001210841A780012108A
:1025030084F279001210840E7A001210842A7A0061
:10251300121084F87A00121084EB7E00121084C12A
:102523008501121084F38501121084E289011210CF
:10253300842E8A01121084748A01121084168B016E
:10254300121084728B01121084B78B01121084FE57
:102553008C01121084128E01121084019201121048
:1025630084859201121084929301121084EE9301D8
:10257300121084DE95011210845396011210845DAB
:1025830096011210846A9601121084959601121016
:10259300847C9701121084269801121084A4980158
:1025A300121084C49801121084ED98011210840F44
:1025B30099011210846F9B01121084359C01121033
:1025C300847A9C01121084F79C01121084A89D0147
:1025D300121084DA9D01121084209E011210845C73
:1025E3009E01121084AC9E01121084009F011210F0
:1025F30084569F01121084A29F011210840FA00120
:102603001210848AA00112108455A201121084555D
:10261300A3011210847AA401121084B9A701121025
:1026230084CCAA0112108489AB01121084CDAB01B2
:102633001210847DAD0112108491AD011210849BA0
:10264300AD01121084A5AD01121084B1AD011210B9
:1026530084CDAD0112108478AE01121084B7AE019F
:10266300121084C1AE01121084CBAE011210843B50
:10267300AF0112108486AF011210849BB0011210B7
:1026830084F7B00112108478B10112108437B201BB
:1026930012108440B30112108474B40112108462C6
:1026A300B5011210847AB501121084D5B501121048
:1026B30084F3B5011210843BB60112108462B60193
:1026C300121084FDB601121084C3B7011210845591
:1026D300B801121084CFB801121084E9B9011210A5
:1026E3008496BA01121084BEBB011210840EBC0181
:1026F30012108472BC01121084D4BC011210840223
:10270300BD0112108426BD011210845BBD0112109D
:10271300848CBD01121084BFBD01121084DFBD0182
:1027230012108447BE011210843BBF01121084961D
:10273300BF01121084BFBF0112108447C0011210E1
:1027430084CAC001121084F5C001121084DAC101D9
:1027530012108462F2021210849AF202121084BBE5
:10276300F202121084FDF2021210845FF3021210BF
:102773008469F30212108479F302121084B4F30211
:1027830012108494F70212108481F90212108467E4
:10279300FB02121084FEFB02121084A0FC02121032
:1027A30084248102121084A28102121084FE810209
:1027B3001210844982021210846482021210848FE0
:1027C3008202121084AC8202121084B882021210A8
:1027D300844F8402121084688402121084ED8402F0
:1027E3001210840085021210841F8502121084C304
:1027F3008502121084448702121084F78802121093
:10280300848D8902121084908902121084008A0236
:102813001210841E8A02121084B58A02121084FDDB
:102823008A02121084008B02121084C68B021210CB
:1028330084338C02121084598C02121084E48C02AB
:10284300121084028D02121084488D02121084FC2F
:102853008D02121084468E02121084758E0212109D
:1028630084D28E02121084078F02121084338F02D7
:10287300121084418F021210848E8F02121084FE74
:102883008F02121084479002121084939002121048
:1028930084BF9002121084CA9002121084E890023E
:1028A300121084D39102121084DD91021210841845
:1028B3009202121084289202121084319202121092
:1028C30084859202121084999202121084C8930292
:1028D300121084DD93021210846B9402121084B0E0
:1028E30094021210843C9502121084479502121030
:1028F30084899602121084A49602121084F0960220
:102903001210845F9702121084989702121084B2F7
:102913009702121084F49702121084C49A021210C0
:1029230084719B02121084DE9B021210841E9E028D
:10293300121084369E02121084399E0212108445AE
:102943009E02121084599E02121084619E0212107C
:1029530084949E02121084969F021210841DA0027A
:102963001210848DA0021210840FA102121084D0C1
:10297300A102121084EFA10212108490A20212107D
:1029830084EDA202121084F0A20212108464A30246
:10299300121084B3A402121084B9A5021210844445
:1029A300A6021210845FA70212108427A802121035
:1029B3008458A8021210847BA80212108484A802EF
:1029C300121084B3A80212108443A902121084F9CE
:1029D300A9021210846EAA0212108415AB021210FF
:1029E300848AAB02121084C1AB02121084FFAB02C3
:1029F3001210849ADB0212108470FC03121084D329
:102A0300FB03121084C9FB0312108462FB03121030
:102A1300844EFB03121084ABFA03121084ABF90348
:102A2300121084C4F803121084B4F603121084C283
:102A3300F50312108460F50312108401B30312101E
:102A43008406DB02121084D9CD03121084F7B2037B
:102A53001210848CB203121084CAD9021210846338
:102A6300D702121084C0B0031210847EB003121078
:102A73008482AF0312108456AF031210840DAF0388
:102A83001210844EAE031210843AAB03121084FB6F
:102A9300A803121084C8A8031210846FA80312108D
:102AA3008402A803121084C1A703121084FAA60398
:102AB30012108494A60312108433A603121084D335
:102AC300A503121084AAA4031210843EA4031210B7
:102AD3008496A30312108491A30312108485A30385
:102AE300121084B89F03121084929F031210841A49
:102AF300D4021210846ED302121084DCD20212109C
:102B03008496D20212108461D2021210842ED20251
:102B130012108419D202121084EED1021210843BD7
:102B2300FF03121084309F03121084D19E031210EE
:102B330084929E0312108407FF031210847F9E0366
:102B4300121084749E03121084439E031210843067
:102B53009C03121084A6DA02121084A39B031210A2
:102B63008465F1011210845F9B03121084339B036D
:102B7300121084AFBE0412108482BE041210844F5C
:102B8300BE0412108427BE04121084C8BD041210A0
:102B930084A8BD0412108473BD041210841FBA04E8
:102BA30012108407B804121084F1B5041210847152
:102BB300B5041210841DB50412108429B404121034
:102BC30084D1B404121084B0FE031210842ACC03FF
:102BD30000000080FB000022E4738F000100741CDE
:102BE30087000100721C350004003B1C2500020015
:102BF3003F1C26000200411C27000200431C280042
:102C030001004D1C290001004E1C8400040098198A
:102C130086000100B61B2A0001004F1C2B00010097
:102C2300501C2C000100541C2D000800A4192E0078
:102C33000100551C2F000100561C30000100571CD9
:102C430031000100581C32000100AC1933000100AF
:102C5300AD1934000100591C36000100AE193800CB
:102C630001005A1C39000100531C83000200701C30
:102C730063000100BA1964000100511C65000100E2
:102C8300521C6D000100BB19710008009C196600FD
:102C930001006F1C43000100601C44000200611C22
:102CA30045000100631C46000200641C4700080045
:102CB300B21948000100661C4B000100671C0400A8
:102CC3000100731CA1000100771C37000100761C72
:102CD30088000100751C3C000100AF193D00010094
:102CE3005B1C49000200681C67000100BC194D0011
:102CF30002006A1C4E0001006C1C4F0002006D1C98
:102D03003E0001005F1C51000100B0195200010098
:102D13005D1C530001005E1C54000100B11900004A
:102D230000000000000000002001C0850000010039
:102D33002001BB85000002002001BC8500000300C8
:102D43002001BF850000040042019D8300000500AF
:102D53004201EF82000006004201EA8300000700FF
:102D63003001BD850000004042014B840000FDFF9F
:102D73002101B7852A040000390571182A04C80007
:102D8300390579182A04C900390575182A0401027E
:102D93002123061C2A0421022123EF1B2A042202D9
:102DA3002123F11B2A0420021023F31B2A042502EA
:102DB3001023F41B0C00550039057F180C00650027
:102DC300390583180D040000390587180D04020224
:102DD3001023E61B0D0406021023E81B0D04050255
:102DE3002123E41B0D0402041023EE1B00013636DD
:102DF30001010001020100010301000104010606B3
:102E030005020000070100340801000F0904010155
:102E13000D0100FF0E08000017020000190100FF5A
:102E23001A0100011B0100FE1C0100081D02000025
:102E33001F01000120010001210200002301000FF6
:102E4300240200002601000127010008280200FFD8
:102E53002A0100072B0102402C0100002D01000173
:102E63002E0100012F0100FF30010B1D310800006E
:102E73003A0100083B01000F3C0100013D0100FF46
:102E83003E04000042040000460400004A0400001F
:102E93004E04000052040000560400005A040000CF
:102EA300010371030103010301030103010322036E
:102EB30002030103100300030003000300030003E4
:102EC300000300034203000324030603000300037B
:102ED3000403120325032303250323030403040329
:102EE3000003000300034403000300032303000360
:102EF3006503210035038103000305030003000379
:102F030000030003250323030101710101010101F2
:102F13001101010131010101010180011001610170
:102F23003B0014006301730172016201430100015C
:102F3300130106013D0135000401120100010001E6
:102F43000001000104010401330133013C01440188
:102F530032013600000100016501000135008101E5
:102F630000010501820183010001030071003001AA
:102F73006000110070003102200350048000100033
:102F830061000000140063007300720062004300DC
:102F930000001300060000000000040012000000FF
:102FA30000000000000004000400370037003C026A
:102FB3004400000000000000000065000000350030
:102FC300810000000500000083000000030271027D
:102FD3003001600211027002010202020202800249
:102FE300100261023A00410063027302720262023C
:102FF300430200021302380000020002040212021C
:10300300000200020002000204020402370037003B
:103013003C02440200023900000200026502000281
:103023003502810200020502820283020002360099
:103033000100060000000F00000000000000000077
:103043000000000003FFFF00000403FFFF0000FF78
:10305300FF0FF4010005C4040320000100000B006E
:103063000000000000000003010F0000000000004A
:10307300000000000000000000000000000000004D
:10308300000000000000000000000000271D511D8B
:103093002D1D611C331D571D331D631D391D611CFF
:1030A300331D571D3F1D611C00000000451D611CA1
:1030B30000000000000000004B1D611C0000000028
:1030C30000000000000000000000000000000000FD
:1030D30000000000000000000000000000000000ED
:1030E30000000000000000000000A91F0100A91F4C
:1030F30002001F1F0280191F0300251F04002B1F3E
:103103000480311F0500472A0600431F3100551F65
:1031130033005B1F3400611FFFFF00000204000047
:1031230029058B18020410022923EA1B0504000059
:1031330021058D18050410022923EC1B030003004D
:103143000400080010001F003E007B00F600EC01A5
:10315300D703AF075D0FB91E713D000007ECFDFDFE
:10316300FDECDCDCCCBCACAC9C9C8C7C7C6C6C5CEB
:103173005C5C4C4C3C3C2C2C1C1C03EAF5E5D5D583
:10318300C5B5A595958585757565655555454535CC
:103193003525251515050A9725026125056D250792
:1031A30067250C49250D5525FF000000160F00006B
:1031B3000B150B020002220F3300000E0FD0D1D2E9
:1031C300D3D4D5D6D7D8D9DADBDCDDDEDF5A6967CD
:1031D300426565416C6C69616E63653039303016E8
:1031E300181920231A1C1E3000034D4C4651181A7F
:1031F300250502000119161816161823030030308E
:1032030017181921301B1D1F30003C40423A3F3F25
:10321300392F47300C0E020B040B0A0708000F026C
:10322300040201010101090200BE040AE8030000CF
:103233000E0001000300E80304091904031E100330
:103243000A0C041E0828020C0508150404C082C0D9
:10325300831214BD9019E57439F0A37423F0901907
:10326300E7743FF0A37423F09019E97445F0A37455
:1032730023F09019EB744BF0A37423F0025F8B746B
:10328300F7120B589019D9E4F0E99019D8F07CB2F1
:103293007D197ADA7B19121B3B901C66E09019E2C8
:1032A300F09019E3749CF0A3741902421874F0129D
:1032B3000B58EAFEEBFF548070030234219019D8B7
:1032C3001242AD700302341AEA241B125B18707C9D
:1032D300EA241F125B1864137002A3E0706E8A82E3
:1032E3008B8312346F9019F31250AA750A00750B71
:1032F30000800D1240EE12718A121A57AA0EAB0FFC
:10330300EA4B60488A828B83E0650C7004A3E06516
:103313000D702C8A828B83A3A3A3A3E0F50EA3E0F5
:10332300F50FE50A450B8A828B83A3A3A3A360C38E
:103333001243F0850A82850B83A3A3A3A380B78AD4
:103343000A8B0B8A828B831250A680B4E508242A49
:10335300125B18FCE5082402F8E43509F9E8FAE9F8
:10336300FB9019F3123556A3A3E06402703C8A82E2
:103373008B831250AA800B88828983A3A3A3A312F1
:1033830043F0E849601F88828983E06A7003A3E001
:103393006B70E488828983A3A3E06C70DA901C6C61
:1033A300125E48806BECF9122375850882850983C8
:1033B300E06401704FE50824181234581210C0124B
:1033C3006732120EDFE50824121234581210C0E5DA
:1033D300081242A11210BCE508240B126736120E24
:1033E300E3E508241712423EE5082402FCE435090C
:1033F300FDE5082419FAE43509FB122BA9740A1216
:1034030010CF800CE064027007AA08AB09122453A2
:10341300AA08AB091219C1EEFAEF6480802DEA54B1
:1034230002600C901C7F7401F0EA6402FA8023EAC4
:103433005408601A12236FEA4B700B9019F5126649
:103443000D7A08123465EE6408FAEFFB80047A0003
:103453007B00026DBCF582E43509F583E0F50A785B
:103463000A22FB9019D8E0F9121B1122A3A3E0F55D
:103473000CA3E0F50D227B009019D8E0F9121B058F
:1034830074042274F4120B588A088B098A828B8382
:10349300A3A3A3124EA212424938F583E02409FAEA
:1034A300126D5470030235498A828B837402124F62
:1034B30017850882850983123556E8F0A3E9126956
:1034C300CE8A828B83A3A3A3A3A3A3A3A3F0E5081C
:1034D3002403F8E4350912354B1242493AF583E0E7
:1034E3008E828B83A3A3A3A3F0EE2409FAE43FFB0C
:1034F3008E828F83A3A31260FAF5838882E0A2E50C
:103503008E828F83A3A3A3A3A3500474018001E439
:10351300F0E5082403F58289831250AAEA12562B98
:103523003BF583126D1B1210B81242483B1261EC3B
:103533008E828F83A3A3127ECA1210CFEEFAEFFB03
:103543009019D8126DA18016F98882F583E0FAA349
:10355300E0CA22125247A3A32274021210CF7F049F
:10356300020E1474F2120B588A088B09ECFAEDFB65
:10357300740E12141AE0FC1214F38A0C8B0DAE0CA9
:10358300AF0DEA4F6030AC08AD091214E1E96026D3
:10359300AC08AD09EEFAEFFB1214E7E970148E8262
:1035A3008F831243DDFAEFFB1214DBAA08AB091277
:1035B300150B7900800279B402519674F0120B58FE
:1035C30074F6121181EAFEEBFF8C088D09750FB3B7
:1035D300852182852283E4F0750E008002050E901A
:1035E300324EE493F8E50EC39840030236E5AA0E83
:1035F3007B0012152F8A0A8B0BEA4B60E08A828BC1
:1036030083A3A31236EC28F0F8C3EE98EF9400508E
:10361300CC7C157D007900AA08AB091219A9850A8B
:1036230082850B83A3A3A3A31271C7E0F8EEC3980B
:103633002925E0F8E433F9E50A28F582E50B39F5A5
:1036430083A3A3A3A3A3A3124253A3125C6F8A0C65
:103653008B0DAC0CAD0DAA08AB09121B3B850A827E
:10366300850B83A3E06401700A126732740112426E
:103673006580447401121161850A82850B8312509F
:10368300A8121517E9603D740912141AE0C0E0127C
:103693006732D0E0F0740912141AE06403701374F3
:1036A30001121161E508240BFAE43509FB121B3BF7
:1036B3008012740112141A1243F0E508125C553596
:1036C30009127188850A82850B8312673E1242654F
:1036D300A3A3E0C0E0E5082414126736D0E0F07538
:1036E3000F00A90F740A026DB9A3A3A3E0F8852103
:1036F30082852283E02274F7120B58E9FE8A828BBB
:1037030083A3A3A3A3A3A3E0540860338A828B8378
:10371300A3A3A3A3A3A3E0540260218A828B83A360
:10372300A3A3A3A3A3A3A3A3E06406600F74E96EFA
:10373300600A74CD6E600574F06E70031223570235
:103743004A9574F0120B5874EF121181740F12140E
:103753001A1264F1740812141AE9F0ECFEEDFF7406
:103763000512141A12485D124A81A3E0F91214FFDC
:10377300740612141A1264F1740612141A1256BC47
:103783007003023A0012428DE0FA740612141AE032
:10379300F9122297123A60F8A3E0F9E8497003029C
:1037A3003A00EE2403F50AE43FF50BEE2406F50890
:1037B300E43FF5097C00850882F5831250AA850A47
:1037C30082850B83E0F9121505740312141A12642F
:1037D300F1850A82850B83E0C0E0852182852283FF
:1037E300123A59D0E01257D1F985218285228312EA
:1037F30040F51253231236EFFAA3E0CA2407F582E9
:10380300E43AF583E8F0A3E41264FC2406F582E4C9
:1038130038F583E4127194124E961210B8EE1242E8
:10382300493F1261EC740312141A124EA2240912B6
:103833007EC41210CF742912141A1271C11235509A
:103843001257E43A127188742B12141AE0C0E085FF
:103853002182852283125683D0E0F0740212141A57
:10386300E4F0742512141A780812138F023957746E
:103873000312141A1261B48882F583123A48A3A37F
:10388300A3125C7AFB12151D850E82850F83A3EAB2
:10389300F0A3EBF0740312141A123A59A3123A4824
:1038A300125E89A2E6500F850E82850F83A3A3A320
:1038B300A3A3E0D2E1F0740512141AE0706B850E35
:1038C30082850F83A31243F0901A33E0687003A339
:1038D300E0697055850E82850F83A3A3A312422846
:1038E300750C00780C1210C078081210B4742912E9
:1038F300141AE0F50C780C1210C0742712141A1263
:103903000EE3901A40120EE37900741912141A127E
:10391300507A12249B740A1210CF850E82850F836E
:10392300A3A3A3A3A3E04405F0740212141AE004B2
:10393300FC8E828F831250A48E828F83A3A3A3E075
:10394300F9121505740312141A1264F17402121495
:103953001AE004F0740312141A1256BC606774025E
:1039630012141AE0FA740612141A1243F0C3EA98F6
:10397300E4995051740212141A123D328521828542
:103983002283E028F8A3E039F9E8240FF50EE4399F
:10399300F50F850E82F583E4F0740312141A123ABC
:1039A3005364016003023872740512141A7401120D
:1039B3006DA7F0740312141A125F7B123D55E8F0E1
:1039C300A3E90238968521828522831250AA122206
:1039D3009D852182852283120EE3742612141AE038
:1039E300FD742512141AE0FC740A12141AE0F9EE9D
:1039F300FAEFFB12235174021210CF80438E828F91
:103A030083A3A3A3E0C0E0740C12141AD0E0F01255
:103A13006C10E0C0E0740D12141AD0E0F0740612BA
:103A2300141A1256BC7009740E12141A74B9800752
:103A3300740E12141A7410F0740912115912249589
:103A43007411026DB9E0850E82850F83A3A3A322AF
:103A5300E01257A9E022E01257A9A3A322852182ED
:103A6300852283EAF0A3EB1256C52274F0120B5899
:103A730074E1121181740412141AE9F0740312141C
:103A83001AECF0740212141AEDF08A0E8B0F742FD5
:103A930012141A123471AA0CFB12228B7401121421
:103AA3001AE9F0AA0CAB0D122291740112141AE058
:103AB3007003023D2D852182852283E480158E8249
:103AC3008F83A3A3A3A3A3E0D2E3F085218285225E
:103AD30083E004126CFFF8852182852283E0C3987A
:103AE3004003023D24740112141AE07003023D24C2
:103AF300852182852283123D32E50C28F8E50D39B4
:103B0300F9E8240FFEE439FF8E82F583A3A3A3A370
:103B1300A3E0A2E040B5750800750A08750B0074B0
:103B23000212141AE060037508207C087D007900F6
:103B330074051211591219A98E828F83E0603E9089
:103B43001A83E06401701AE508D2E3F508750B10D7
:103B5300123D4212141AE8F0A3E9125B6D74FF8060
:103B63007643080C750A0C8E828F83A3123D4D1287
:103B7300718A740512141A74FFF0A3805A74041224
:103B8300141AE06009E508D2E6F508750A0A8E8280
:103B93008F83A3E064FE7003A3E0F4703074121209
:103BA300141A740412675CF8741D12141AE8124F85
:103BB3001774121211591221B97D007C0079007417
:103BC3001512141AAA82AB83121F91800B123D4265
:103BD30012141AE8F0A3E9F0740712141AE508F0B6
:103BE300124284C0E0740912141AD0E0F0740A126D
:103BF300141A7401F0740512115912245974111214
:103C0300141AE06003023D02740D12141A1257CC09
:103C13008E828F83A3A3A3A3F0740D12141A124EE2
:103C2300E5E50AF0A3E50BF0740312141AE0C0E013
:103C3300124E76D0E0125E896011901A83E0C0E0E4
:103C4300740D12141A124EC0D0E0F0740D12141A2F
:103C53001243F0850C82850D83A3A3A3A3A3123D76
:103C63003B241C1264EB1271A4123D3D125E3B39DE
:103C7300126C2FC0E0124E5DD0E0126CF4C0E07401
:103C83000D12141A1249A3D0E01269F5C0E0740DA5
:103C930012141A124999D0E0F0740D12141A123D3D
:103CA3004D123D3B242A1264EB850E82850F83A3BC
:103CB300A3A3A3A3A3A3A3E01264E4124273C0E0EB
:103CC300124985D0E0F0740D12141A1250AA850E11
:103CD30082850F83126D0A2428F582E43B127188D2
:103CE30012427C126D1B1210B81261E5EA12647D58
:103CF3003B127EC81210CF740512115912245F8E25
:103D0300828F83A3A3A3A3A3E0D2E0F074111214C0
:103D13001AE06003023AC1740112141AE014023A61
:103D2300CD7900AA0CAB0D12235D741F026DB9E0AF
:103D330075F007A4F8A9F022A3A31250AEE8228ECF
:103D4300828F83A31243F4740522E0123D55A3A38B
:103D5300A322F8A3E0F9850E82850F83A32274F0D2
:103D6300120B5874E8121181E9852182852283F0B0
:103D73008A0E8B0F8A828B83A3A3A3A3A3A3A3A3DC
:103D8300E0F91222B58A088B09EA4B7003023E3E22
:103D9300E50E12563F12429C124233852182852240
:103DA30083E06003023E417C04850E82850F83A37A
:103DB300A3A3A3A3A3A3A3E0F91222BBEE4F607BAB
:103DC3008E828F83A3A3A3A31243F0740712141A42
:103DD3001266221243F0740912141A124F47C0E0FC
:103DE300741112141AD0E01269D3A3A3A3A3A3A33B
:103DF300A31243F0740F12141A12718A741212145C
:103E03001AE4126DAFC8241FF582E438F5831261FA
:103E1300B0C413135403FC70027C048E828F83E0BE
:103E2300F978081210BC742059FD744059F97403D1
:103E330012115912235174021210CF026DB77C086C
:103E4300850E82850F83A3A3A3A3A3A3A3A3E0F952
:103E53001222BB8B0BEA4B7003023DBFEE4F60DBBC
:103E6300852182852283E0F50C780C1210C0850829
:103E730082850983A3A3A3A3A3A3A3E0F50C780CD2
:103E83001210C08A828B83A3A3A3E0FB8A82850BD3
:103E9300831279E78A82850B83E0FA8E828F83A36C
:103EA300A3E0F9122BAF74021210CF023DC374F7D3
:103EB300120B5874FA121181E9FE780179017F001F
:103EC300800379000F125226E0FCEFC39C5026EFCB
:103ED30075F007A4FC85F008AD08EA2CFCEB3DFD6A
:103EE300124815E0A2E050DA540C60D6E0A2E2508A
:103EF300D3780080CF8A828B83A3A3A3A3A3A3E059
:103F0300703DE9A2E0400574016E70338A828B83B1
:103F1300A3A3A3A3A3A37401124205E0C0E0740307
:103F230012141AD0E0124874E0C0E0740412141A98
:103F3300D0E0F0740512141AE812614F122495743C
:103F430006024A92C082C083790112235D025F8B0D
:103F530074F4120B58EA4B901C7F6019E4F08A0842
:103F63008B09F50AF50B78081210B47A021234792A
:103F73001210CF800A7401F07A027B0012346602B9
:103F8300356174F0120B5874F31211817403121417
:103F93001AE4F0A3F09019F3124233740112141AC5
:103FA300E4F0A3124F1C04F0901A2DE0A2E3500397
:103FB3000240781241F9740912141A1213EB7409AE
:103FC30012141A780812138F9019F57808121169D0
:103FD300740512141A78081213711240FC74051236
:103FE300141A780812134250077A017B000240E941
:103FF300740512141A780C12138F901C6BE0F509D8
:10400300780C7908120AE9A80CA90D901C6CE0C37E
:1040130098E4995003E08001E8852182852283F0AA
:10402300740912141A780812138FC008C009C00A41
:10403300C00B740512141A780C12138F1240FC78FB
:104043000C7908120AE9E4F50AF50BD00FD00ED06B
:104053000DD00C780C790812123D9019F5780C12DA
:10406300137180111240EE12718AEEFAEFFB121AED
:1040730057AE08AF09EE4F60658E828F831236EC20
:10408300C398502DEE2403F8E43FF9E0FA888289BF
:1040930083E0C39AF06023740312141A1245567412
:1040A3000112141AEEF0A3EF12663DFEA3E0FF80A7
:1040B300C48E828F83A3A3A3E4F08E828F83127EA8
:1040C30081740112141A1256BC8E828F83A3A3A388
:1040D300A3609112661612141A1240F580897403B4
:1040E30012141A1250AA740D026DB91243F49019E6
:1040F300F3221261DBA3A3A322901C6A127E89E43C
:10410300F50AF50B2274F0120B588A088B09890AF9
:10411300780079009019F3124233FBEE4B601E08CE
:104123008E828F83A3A3A3A3125074601008E87038
:1041330001098E828F8312422FEA4F70E3901C6D28
:104143001250AAC3E89AE99B40030241EC7A061293
:1041530041EFA80CA90DEA4970030241EC8A828B56
:1041630083E508F0A3E50912420EE50AF0901C6C02
:1041730012522E124205A3E4F0A3F09019F3125049
:1041830074600D8E828F83A3A3A3A312718A8017F9
:104193009019F312718A901A2DE0A2E3400912419B
:1041A300F99019F51213EB901A2DE0A2E3503A7A25
:1041B300087B009019D8E0F9121B17EA4B4C4D709D
:1041C30028901C6AE0F508A3E085080CF50DE4F5DA
:1041D3000EF50F780C1210B47A087B009019D8E012
:1041E300F9121B0B74041210CF026DBC7B00121A60
:1041F300518A0C8B0D22121B23EAF8EBF9ECFAED32
:10420300FB221242092212420EA322F08A828B83DE
:10421300A3A322E508F0024A95F08E828F83A3A31D
:10422300A3A3A3A322125B26A3A3F022A3A3A3A366
:10423300E0FEA3E0FF227F05020E14F582E43509B8
:10424300F583E0F922EA12424D222410F582E4229A
:1042530012425BA3A3A3A3221243F8850882850914
:10426300832212426922F0850A82850B83A3A3224B
:10427300E50E2411124299E022E50E240E12429912
:1042830022E50E2410124299E02212429122EE12EC
:10429300424D3FF58322F582E4350FF58322240F47
:1042A300F50AE43509F50B780A22E0F91219D38AE5
:1042B300088B09EA4B2274F2120B58890B8A088B7C
:1042C300098A828B831250AA122381EA4B600479F4
:1042D300B8806A12238DE9F8903241E493F9E8C378
:1042E30099400479B280567A151241EFAE0CAF0DA6
:1042F300EA4F7004791080458A828B83E4F0A3121D
:10430300420EE50BF0750A0078081210B87C127D96
:1043130000EA2403126CC61210CF9019F91256BC8E
:1043230070089019F9800C1243F088828983124334
:104333004370F4EEF0A3EFF012239F79000251963D
:104343001250AEEA4B8882898322C082C0839019BF
:10435300F980048C828D831279E8EC4D60288C827D
:104363008D83A3A3E069600574FF6970E68C828D79
:1043730083A3A3A3E06A7003A3E06B70D6EC2403CA
:10438300FAE43DFB80047A007B00025F8B74F71232
:104393000B58E9FD74FE6D70047C0180027C009073
:1043A30019F980096D70027C01888289831256BCD9
:1043B300601F88828983A3A3A3E06A7003A3E06BD1
:1043C30070E7ECA2E088828983A3A3E050D6F9804A
:1043D3000279FE024A95EEF9800CA3A3127E89EEC0
:1043E3002274021210CF7F02020E14F5831243F4DB
:1043F300221243F822E0F8A3E0F9221243F88E8256
:104403008F83221210CF7F03020E14C082C08379E0
:10441300009019F9800109E0FAA3E08A82F583E5A7
:1044230082458370F1025F8B74F6120B58E4F50832
:10443300F50978081210BC903241E49375F013A487
:10444300A9F012454B1271E81210CFE9FE74096E00
:1044530070031223990243D974F6120B5874FE1297
:104463001181852182852283E4F0A3F0A821A9226A
:104473008808890978081210BC7508027509007844
:10448300081210BC126E591210CF0243E474F512D5
:104493000B5874EB121181852182852283E4F0A3EA
:1044A300F09019F980748E828F83A3A3E0C0E07427
:1044B3000212141AD0E0125B6DA982AA8389088ABA
:1044C30009750A0078081210B87C127D0074061270
:1044D300141A1271AD1210CF740212115188088987
:1044E3000978081210BC75081375090078081210B2
:1044F300BC740412141A12565F75F013A4F8AAF0D0
:1045030075F013E9124547126E611210CF852182AF
:104513008522831245568E828F83124233EE4F706B
:1045230085A821A9228808890978081210BC750872
:104533000275090078081210BC126E591210CF745C
:1045430015024406A42AF9E82402FCE439FD7A4260
:104553007B0022E02401F0A3E03400F02274F41283
:104563000B5874EB1211817E007F00A821A92288C9
:1045730008890978081210BC7508028E0978081298
:1045830010BC7C007D007A421271F41210CFE970E6
:104593006C8E0880567402121151880A890B780AAE
:1045A3001210BC750A13750B00780A1210BCE508CB
:1045B30075F013A4F8AAF075F013E5091245471234
:1045C30071F61210CFE9701B740312141AAA82AB8E
:1045D30083740212141AE0F912237BE970050EEEBC
:1045E30070010F0508E508700205098521828522FF
:1045F300831243F0C3E50898E509994098EEFAEF72
:10460300FB741502355E74F6120B588C828D83A3EE
:10461300A3124862F0EA1264833BF583E0C0E01220
:10462300481FD0E0F0EA241DF582E43B1243EE126A
:10463300480312485DF0A3F0EA241FF582E43BF53A
:1046430083124233EC1247F63DF583EEF0A3EFF00D
:104653001247FC3BF58312482DA3A3A3A3A3A3EE08
:10466300F0A3EF1260DEFE8C828D8312486C74031C
:104673005EFEC3940340030247E9EE600874026ED2
:10468300600302470E8C828D83E0540CFE740C6E23
:10469300700302474DE0A2E4400D88828983E08CD9
:1046A300828D83A312488274086E600302474D1201
:1046B300480D7401F08A828B83A3A3A3A3A3125B87
:1046C3003370148C828D83E0440C124874A3A312BC
:1046D300482DEEF0A3EFF08C828D83E0A2E4402B13
:1046E300888212483B124850500109F58212483B18
:1046F300A3A3A3A3A3A3F0A3EF12487C8C828D836F
:10470300A3A3A3F0E82403F850010988828983E076
:10471300C0E0EC2411F582E43DF583D0E012486C4F
:104723008C828D83E0A2E7507588828983E0FE8CBA
:10473300828D8312488274FC5E700C8C828D83A3FD
:10474300E054036403701E0247E912480DE4F07459
:104753000C6E60030246B8888212484112485050DA
:1047630001090246DA8C828D83A3E0540360328808
:10477300828983E0C0E0EC1248273DF583D0E01244
:1047830048838C828D83E054036402701488828989
:1047930083E0C0E0124815D0E01248838003A3E40D
:1047A300F0EC12562B3D127188EC2410FEE43DFF11
:1047B300EA241DF582E43BF583E0F5088E828F83BE
:1047C300E0C3982508F508F0EA2417F8E43BF988D4
:1047D30082F583E0C39508C0E0124803D0E012607D
:1047E300DEC39508500A124803E4F012481FE4F0B0
:1047F3000243E92415F582E422EA240DF582E4223A
:10480300EC240DF582E43DF58322EC1257E43DF5EB
:104813008322EC2414F582E43DF58322EC12424D0D
:104823003DF583222413F582E422E0FEA3E0FF8C0E
:10483300828D83A3A3A3A322124841A3A322898326
:10484300E0F508A3E0FFE5088C828D8322A3A3A3F0
:10485300A3F0A3EFF0E82402F822124862A322E4B3
:10486300F08C828D83A3A3A32212488AA882A983F2
:1048730022124209A3A3A3A32212488AA3E022A3DC
:1048830012488A08A983221260E7A32274F4120B48
:104893005874F31211818A0A8B0BECFEEDFF8C82A4
:1048A300F583E0540CF508E0A2E75006E508D2E7EB
:1048B300F508E508D2E1F508125B337006E508D286
:1048C300E4F508E0A2E55006E508D2E5F5087C0822
:1048D3007D007900AA21AB221219A9740212141ABD
:1048E300E50812718EC0E0740312141AD0E0124F5F
:1048F3001CE50AF0A3E50BF0740512141A1269FA09
:1049030012141AE07077740812141A124EA212606D
:10491300D038126A15C0E0740812141A1249A3D0D1
:10492300E01269F5C0E0740812141A124999D0E034
:10493300F0740812141A12498FE0124ECA124F4B28
:104943001264E4EE2411125AFFC0E0124985D0E04C
:10495300F0EE2414125AFFC0E0740812141A124E17
:10496300A22435F582E438F583D0E0124EEFC0E09F
:10497300740812141A124EA6D0E012674E740D0278
:10498300355EE82432F582E439F583221243FEA32F
:10499300A3A3A3A3A322124EB6126BF438F583226A
:1049A300124EB62426F582E438F5832274F7120BEF
:1049B300587E008A828B83A3A3A3A3A3A3A3A3A349
:1049C300E064046003024A711257DCE06003024AA8
:1049D3007112563E3B1256BA7003024A718882899D
:1049E30083E054036003024A71E81257E439F58304
:1049F300E0FA8C828D83A3A3E0FBA3E0CB2411F523
:104A030082E43BF583E06A706588828983A3A3A36C
:104A1300A3A3A3A3A3A3124A75E06A7003A3E06B45
:104A2300704C88828983A3A3124A81E0FFA3E0CF5D
:104A33002406125AFF6A7003A3E06B7031888289DF
:104A430083A3A3E0F88C828D83A3A3E0F9A3E0F50D
:104A5300838982A3A3E06860138C828D83A3A3A3BD
:104A6300E0F5838982E0540C640470027E01EEF960
:104A73008020124A79221250B28C828D8322A3A302
:104A8300124A79A3A322740C12141AE0F9740D12BA
:104A930010CF7F01020E1474F6120B5874FC12111E
:104AA30081EAFEEBFFECFAEDFB8C82F583A3E05485
:104AB3000360169019EF1256BC60597900EEFCEFB3
:104AC300FD1262DB122BDB804B852182852283EE74
:104AD300F0A3EFF0740212141A124F11AC21AD229D
:104AE3007AB77B231225DF8A088B09A808A909EA6C
:104AF3004960218A828B83A3A3A3A3A3A3A3A3A314
:104B03007406F07A0088828B83124EA21264A4E0AA
:104B1300F912253D74040243E674F2120B5874F340
:104B2300121181EAFEEBFF8A82F583A3A3A3A3A359
:104B3300A3A3A3A3A3E0F50A901C7FE0700579BAB1
:104B4300024E5A750801750900750C00750D007C3D
:104B5300087D007900AA21AB221219A97405121449
:104B63001A7401124F2454046012740212141AE0CE
:104B7300D2E6124F2454087003750803E054106002
:104B83000674404508F508E05408602274021214C4
:104B93001AE044C0124F245420600A740312141AFA
:104BA300E0D2E08008740312141AE0D2E1F0EE249C
:104BB30015125AFF124E8A70037401697006740845
:104BC3004508F5088E828F83A3A3A3A3A3A3A3A35E
:104BD300E070161226398521828522831264F174CE
:104BE3000212141AE0D2E28030640F7010740212C1
:104BF300141A124F2C74044508F508807F8E828F97
:104C030083A3A3A3A3A3A3A3A3E064028E828F839E
:104C1300700A1271C1E8F0A3E9F08060A3A3A3A313
:104C2300A3A3A3A3E06403700DAC21AD22EEFAEFBE
:104C3300FB1223ED80468E828F83A3A3A3A3A3A39A
:104C4300A3A3E064017035901A83E060107402122C
:104C5300141A124F2C750910750AFF80187402126A
:104C6300141AE0440C124F1C74FDF0A374FFF0748B
:104C7300044508F5088E828F83123471EE241512D1
:104C83005AFFA2E0503F740212141AE0540C701B36
:104C93008E828F831250AA12205DE9700579BB02C0
:104CA3004E5A740212141AE0D2E5F0EE2415125A89
:104CB300FFA2E05010740212141AE0540C64047042
:104CC30004E0D2E5F0EE2411125AFFC0E07404129E
:104CD300141AD0E01269FC12141AE06003024E5356
:104CE300740812141A124EE5E508F0A3E509F01250
:104CF3004E80E0C0E0124E76D0E0F0124E67E0C086
:104D0300E0740812141A124EA212482738F583D001
:104D1300E0124F4B64017011901A83E0C0E07408F5
:104D230012141A124EC0D0E0F0740812141A124E64
:104D3300E0124E71FAE8241CF582E439F583EA1295
:104D43004F17EE2415FAE43FFB8A82F5831279E8C4
:104D5300E8125E3B39F583124F11EE241C125AFF01
:104D6300C0E0124E5DD0E0125F81124E8A70037470
:104D730001697013740812141A1257CCFAEE241D29
:104D8300125AFFF91222C18E828F83A3A3A3A3A376
:104D9300A3A3A3A3E0C0E0740812141A1249A3D07A
:104DA300E0F0740812141A124999E50AF074081213
:104DB300141A12565F2428F582E439F583E50CF0C2
:104DC300A3E50D124EF7124ECA125B781264E4EE9D
:104DD300124E71C0E0E82433F582E439F583D0E064
:104DE300F0EE241B125AFFC0E0740812141A124E7C
:104DF300A6D0E0F0EE241A125AFFC0E07408121491
:104E03001A124EA22432F582E438F583D0E0124E12
:104E1300EF124E961210B8126BFA1279E8740B1255
:104E2300141A124EA2242F127EC41210CFEE241590
:104E3300125AFF54406012901A0F1256BC600AAA0D
:104E430021AB221262DB122BDBAA21AB2212245FDD
:104E5300740C12141AE0F9025191E82420F582E44B
:104E630039F58322EE2419F582E43FF58322126C8F
:104E730009E022E82412F582E439F58322EE2418AE
:104E8300F582E43FF583225480F8A3E05401F974DA
:104E9300806822F508A3E0F509750A007808221254
:104EA3004EB622124EB62434F582E438F58322A39B
:104EB300A3A3A3124EBA22E0F8A3E0C822124EB66F
:104EC3001247F638F58322FAA3E0FBE8242AF58299
:104ED300E439F583EAF0A3EB22A3A3A3A31243F4DB
:104EE300EE2212566312564339F58322F0EE241351
:104EF300125B8022F0EE240D125B8022E0FC8A829A
:104F03008B83E02CFCA3E03400FD8A828B83ECF0DE
:104F1300A3EDF022F0A3E4F022F085218285228321
:104F230022F0EE2415125B8022E0D2E3F0124F341C
:104F3300228E828F831243F8852182852283E8F0B3
:104F4300A3E9F022E8F0A3E9126637E02274F7122E
:104F53000B588A828B83A3E0640170047E63800212
:104F63007E648A828B83E060087905124F8424F380
:104F7300FE901A2BE06007F9124F8424F2FE024AD6
:104F830071122507E9F8EEC3982274F6120B5874D0
:104F9300FE1211818521828522831264F1E9FEECE0
:104FA300FAEDFB9005C21256BC6032A821A92288F3
:104FB30008890978081210BC7D01740E12141AE0D6
:104FC300FCEEF99005C21264C5122BDB74021210B9
:104FD300CFEA4B60047900800679B2800279B60289
:104FE30043E474F7120B58E9FE9019E51256BC60BE
:104FF3001F740912141AE0F50878081210C0EEF9AC
:105003009019E51264C5122BDB74011210CF8002D4
:1050130079B6024A9574F7120B588908ECFEEDFF36
:1050230079B5E508245E602014600624F8603480B6
:105033003D9005C41250746035127205122BDB8E3D
:10504300828F831264F180249019E71279E8EC4D82
:10505300601CEEFCEFFD9019E71264C5122BDBE92F
:10506300F9800B9019E312507A121B3B7900024A24
:10507300951250AEEA4B221279ECEEFAEFFB227452
:10508300F7120B58E9FE79B574AB6E700B9019E308
:105093001250AA121B3B7900024A958E828F83A37A
:1050A300A3A3A3A3A3A3A31250AE221250B222E040
:1050B300FAA3E0FB2274F1120B58EAFEEBFF8C0A11
:1050C3008D0B750801901A33E06E7003A3E06F70C7
:1050D3000C125185AA0AAB0B121B3B805E12263FB2
:1050E300EE6A7002EF6B7009AA0AAB0B12264580B9
:1050F3004AAC0AAD0BEEFAEFFB122195E9F50890E5
:105103001C72E07036122AD7E97030E508702C90D3
:105113001A03E06E7003A3E06F7020EE4F601C75FE
:105123000CFB750D19750E00780C1210B87C087DF8
:1051330000AA0AAB0B1271B11210CFA908027AE4CC
:1051430074F2120B58EAFEEBFF8C088D09750A0105
:10515300125185EEFAEFFB121B35E96401701190D1
:105163001A331243F085088285098312718A800EEF
:10517300AC08AD09EEFAEFFB12219BE9F50AA90A87
:1051830080111226338A0C8B0DAC0CAD0D22740DDD
:105193001210CF7F06020E1474F6120B58EAFEEBC0
:1051A300FF7A0D7B00121A51EA4B6062EE2424123F
:1051B3006E8EF0EE2425126E8EA3125253126E944D
:1051C300A3A3126C2712522EF0EE12521412524362
:1051D300E8F0A3E912526A12523B12718AEE12529C
:1051E3001D126CEAA3A3A3A3F0EE2433125AFFC04B
:1051F300E0125226D0E0126A1912523BA3A3A3E88D
:10520300F0A3E9125262C0E01257DCD0E0F002438F
:10521300E9242AF582E43FF58322242EF582E43F34
:10522300F58322EA125C553BF5832212523222E0C7
:105233008A828B83A3A3A322126D49A3A3A3A322D0
:10524300125247221243F88A828B83A3A3A3A32279
:10525300F012525822EE2426F582E43FF58322F021
:10526300EE2432125B8022F0EE242C125B80227437
:10527300F4120B5874FE121181ECFEEDFFEC2416B0
:10528300125AFF64057010EC2406FCE43FFD122360
:10529300E7E9700302531EAC21AD22126F431220C3
:1052A300638521828522831256BC606B8E828F8335
:1052B300E064017058E875F009A4F8AAF075F009E4
:1052C300E9A42AF9745C28F8740739F9E8FAE9FBC8
:1052D3008882F583780812138FEE1253C01213429B
:1052E3004027852182852283124EE0125B0D1253E3
:1052F30023780812138F90846978081212798A82AE
:105303008B837808121371800A79A28010EE240F20
:105313001271847900800679A1800279C802355C14
:10532300124F41EE126C152274F2120B588A0C8B39
:105333000DECFEEDFFEC125B0DE4F0A3F09084594D
:10534300780812138FEC1253C01211EC6067EC242F
:105353000E125B06703478B3901A2AE07028901A04
:105363005CE064017020EC2411125AFFF91224EF5F
:105373008B09A909EE12563F3F1264EFEA49600414
:105383007800800278A18808802EE06004640270AF
:105393000A1223F9E9F5087007801DE06403701011
:1053A300EEFCEFFDAA0CAB0D122087E9F50880088F
:1053B3007508A180037508A3A908025196126C15FC
:1053C30078082274F0120B5874F5121181EAFEEB7F
:1053D300FFEA240AFCE43F8C82F583127E85125691
:1053E3004974031211618A828B831262E5E97003A7
:1053F3000254AF7401121161740312115912206324
:10540300740112141A1256BC70030254AFE875F0FB
:1054130009A4F8AAF075F009E9A42AF9745828FC3C
:10542300740739FDE508240E126736E4F0041214FC
:105433001A1243F0E50812563F35091271888C821F
:105443008D831213DFE50824121267361213EB90D3
:105453008469780812138F8C828D83780812128CDA
:105463008C828D83780C12138F9085A57808121384
:105473008F780C7908120AE9E5084509450A450BB6
:10548300702A740112141A12565F75F009A4F8AA4F
:10549300F075F009E9A42AF9746028F582740739D4
:1054A300F5837401F07A007B0812566C8E828F8329
:1054B300A3A3A3A3A3A3A3A3A3A3E02406FCA3E002
:1054C3003400FD8E828F831262E5126A07603EEE1E
:1054D300240A125631124EE57468124F17E8125619
:1054E3002B39F5837402F0901A151213DF8C828D19
:1054F300831264DE1260D03CF5831213EB9084694F
:10550300780812138F901A15780812128C1256A766
:10551300705D9019E3125657A3A3A3A3A3A3A3A358
:10552300A3A3126106121B35E970101260C490190F
:10553300E31260D67005126A0760348E828F83A3EC
:10554300A3A3A3A3A3A3A3A3A31256571250AA12C0
:10555300208DE960118E828F83A3A3A3A3A3A3123B
:105563005693E4F0A3F08E828F83125679E4F012FF
:1055730056A760030256268E828F83A3A3A3A3A3F9
:10558300A3127E81901A2AE0600302561B901A5CD4
:10559300E06401600302561B750A3A750B00780A32
:1055A3001210BC7402121151880A890B780A121066
:1055B300BC1274801210CFE9705BE508240E1267E9
:1055C3003674011256C1C0E0E5082411126736D0C3
:1055D300E0F0E508240F126736743A124F17901A59
:1055E300111213DFE50824121267361213EB9084AD
:1055F30069780812138F901A11780812128C90840C
:1056030069780812138F901A1178081211EC700838
:1056130012566880031256491256A77006125FC7C6
:1056230074A1F0740B026DB9240EF582E422F8E440
:105633003FF9E8FCE9FD8882F58322EA125643220A
:10564300240FF582E422E5081256433509F583E475
:10565300F0A3F0221279EC8E828F832212566322FA
:105663001243F8E8227A007B029018BBE0F9121982
:10567300FD228A828B83A3A3A3A3A3A3A3A3A3A390
:1056830012568722124EBA240EF582E438F583228D
:10569300A3A3A3A312569B22124EBA240FF582E4AE
:1056A30038F583228E828F83A3A3A3A3A3A3124ED1
:1056B300B2240FF582E438F5831256634922125659
:1056C300C522F0852182852283E02274F6120B58CD
:1056D300EAFEEBFF7A237B00121A51EE240AF50847
:1056E300E43FF5098508821264EF7C237D0079008D
:1056F3001219A98508828509831256BC70030257C3
:105703008FEEFAEFFB1224051256A760748E828F78
:10571300831257C264018E828F83A3A3A3A3A3A37F
:1057230070071257B8740E80211256BC7010126A9B
:1057330007700B8E828F83A3A3E0A2E0500712575A
:10574300AE740D80051257AE7405126A19540364C2
:105753000170071257967405800B901A2BE0C0E076
:10576300125796D0E01257D1F5838882125B2C85AD
:105773000882850983124EA212648338F583E98077
:105783000E85088285098312656880031264ABF075
:105793000243E98E828F83A3A3A3A3A3A3A3A3A3FB
:1057A300A31257A822E01264CAA3228E828F83A376
:1057B300A3A3A3A3A3124EB212648938F58322A331
:1057C300A3A3A3A3A3A3A3A3A3125687E0221257C1
:1057D300D522126F58F8A3E022EA1257E43BF5836F
:1057E30022240CF582E42274F1120B5874E4121192
:1057F300818A0C8B0D8C088D097A237B00121A5138
:105803008A0A8B0BAE0AAF0BEA4F7003025AE712F8
:10581300648FE5082415125B18687003A3E0698E92
:10582300828F837004740280027401F0E508240DF2
:10583300F8E43509F98882F583E0FAC3E49AFA9526
:10584300E0FB125B142AFAA3E03BFB8E828F83A357
:10585300A3A3A31260ED8E828F83A3A3F0EE242073
:10586300F582E43FF583E4F0EE2421F582E43FF58D
:1058730083E4F0EEFAEFFB1224B9850882850983ED
:10588300125B3370098E828F83A374058006901A8E
:105893002B125B21F0EE2417F50AE43FF50B8E8201
:1058A3008F83125B2CE9850A82850B83F0EE241625
:1058B300F8E43FF9E508240EFAE43509FB88828908
:1058C30083124EFFE5082410FAE43509FB850A82AA
:1058D300850B83E0FC88828983E0F88A828B83E0EE
:1058E300C398C39CF8125B6DF0EEFCEFFDAA0CAB02
:1058F3000D1223FFE9F50B8E828F83E0640270069D
:105903001260C4125AF1E50B6003025ADE750C00F3
:10591300750D00901C72E064016005E06402703F45
:10592300125B036008EE2421125B0670328E828FB5
:1059330083A3A3A31264B1125B39EE2416125AFF98
:10594300125B62FAE439FB1241F1EA4B6011126D0A
:10595300131210B8125B47AA0C1271B11210CFEEDA
:10596300FAEFFB1224C5E9F50B901C72E0640160A9
:1059730008E064026003025AD1E97003025AD1E5D8
:105983000C450D7003025ADE8003850E0B125B0378
:10599300600BEE2421125B066003025AD7850B0EBF
:1059A300850C08850D09750A0078081210B8125B7A
:1059B300478E828F83A3A3A3A3127ECA1210CFEEB6
:1059C3002420125AFF600D125B0C7468124F17EEFD
:1059D30024208015EE2421125AFF6015125B0C74EB
:1059E30003F0A37401F0EE2421F582E43FF583E490
:1059F300F0EEFAEFFB1224C5E9F50B70907C137DF2
:105A030000790074091211591219A9741A12141A7F
:105A13007401125B7864687002A3E0704F8E828F0A
:105A230083125693E06405600302598D7C0879FF65
:105A33008E828F83A3A3A3A3E0242A126109121ADF
:105A430033E9700302598D7C087D0079FF740112DC
:105A530011591219A974011211617A007B0079ABF3
:105A63001223E1741912141A74FC8015125B0CE0F2
:105A730064037004A3E064017008741912141A74A7
:105A8300FFF0E4F508F50978081210BC740212114E
:105A930061741312141AAA82AB831265EE1210CF2B
:105AA300852182852283E0602B74091211518808B5
:105AB300890978081210BC75081375090078081253
:105AC30010BC7C007D00126E611210CF8006E50CC5
:105AD300450D6007AA0CAB0D121A57EEFAEFFB1235
:105AE3001A578003750B10A90B741C027AE1EE247C
:105AF30006FAE43FFB121B3B22EE240C125B8022CE
:105B0300EE2420125B80640122EE1256433FF5839C
:105B130022E508240EF582E43509F583E022125BC1
:105B230026A322E08E828F8322A3E0F91225072287
