:020000040000FA
:0600000002136D02080866
:03001B0002095E79
:03002B000210F2CE
:03004300020FC0E9
:0300530002073D64
:030073000209B3CC
:1000830002079C0100F0FF0700080000FFFF0000CB
:100093000704000000030001FF1E102700000020DA
:1000A300FD000206FFFF1E008000806666B640A2C8
:1000B3001D00000000000000000000000000000020
:1000C30000000000000100010001E803000000003F
:1000D3000000000000000100010001E8030000002F
:1000E300000F0000000F0000000104010C000204D7
:1000F3007F84011A860204010C000202F2850000CB
:100103000001040000971A000000E8030000FFFF4D
:10011300F41A88130000E803000064006400B801C7
:10012300A0BB0D00A0BB0D000202020704010107E2
:100133001E02051E020A0A0101010809080103B88B
:100143000B02803E0102FEFFE8030A050001FFFFE8
:10015300010A011401E00200000001050301010F7F
:1001630010FEFF030003000300030003000300036A
:10017300000300030005000A00140028004F009E3E
:10018300000000E23300000000183300000000FF0D
:10019300000000FF0012139B60461213B9603DE993
:1001A300687008F618F618F618F622748067F712C6
:1001B30001CC090909748067F7221213B9601D1273
:1001C300139B7005191919801A121245701F121208
:1001D30059C37003E6673319191940071818182211
:1001E30008080874FFF618F618F618F622121259C2
:1001F3006017121451702192F012143F70195017A6
:1002030020F014080808090909E7F61819E7F61891
:1002130019E7F61819E7F62212143F60E6E8697049
:100223001F0808E62480F608E436F618547FB47FE6
:100233000CE654806007F6E418F618F62218182224
:10024300E9C6CC08C6CD08C6CE08C6CFC0E0E8C014
:10025300E0EAC0E0EBC0E009E9F809E7FA09E7FBE7
:10026300E6F918E6F8C3EC98ED99EE9AEBC2E7F5D8
:10027300F0EFC2E795F0500E600CEBCFFBEACEFA3D
:10028300E9CDF9E8CCF8EAA2E7D2E7FAEB33FB13BE
:10029300F5F0EEA2E7D2E7FEEF33FFC5F013A2E7D6
:1002A30030E601B313C5F0C3C0E0C0F07F00C39BC9
:1002B300FB605E9418600F401D14601AD0E023F9B0
:1002C300D0E0F802039E8AF0E9486003D2F0E4AF7D
:1002D300F0FAF9F8803BEB30E40D89F0EA6003D2E1
:1002E300F0E4AFF0F9CAF8EB30E30D88F0EF600209
:1002F300D2F0AFF0E4CAC9F8EB54076014FBC3EAC9
:1003030013FAE913F9E813F8EF135002D2E0FFDB15
:10031300EDD0E0C0E030E739C3E49FFFF5F0EC989F
:10032300FC42F0ED99FD42F0EE9AFE42F0D0E0F986
:10033300D0E0F8E5F0607AE923F9EE20E742D8024D
:100343008067C3EF33FFEC33FCED33FDEE33FE8008
:10035300EAEC28FCED39FDEE3AFED0E023F9D0E0DB
:10036300F84002801BC3EE13FEED13FDEC13FCEF0C
:10037300135002D2E0FF08B800067F7F74FF802E7F
:10038300EF3350178CF020F00260100CBC000C0D02
:10039300BD00080EBE000408E860DFE933E813FF80
:1003A300EE2313FE4F4D4C8008E95480FFE4FEFD1D
:1003B300FCEE33EF33F47004FCFD7E80D0E0FBD021
:1003C300E0FAD0E0F8D0E0CFC618CEC618CDC618F4
:1003D300CCC6F9221213B970041818182212139BF1
:1003E300700D74FFF61819F61819F61819F622E7A6
:1003F300548066F612143F700F12145170F014F605
:1004030008F608F608F680D1121451700CF608F6B7
:1004130008768008E6447F80EC12125C700C12129E
:100423004860BFE65480F6E480BB12124870051999
:10043300191980A5E869700C763F18768018F618AC
:10044300F6E8F922E6CDC0E018ECC0E0E633CD33A0
:10045300CDD313F6E719FCE7191933CC33C3947FD3
:10046300400ECD9D502408E65480F6E418F6800F24
:10047300F4043D14501408E6447FF6187680E4181B
:10048300F618F6D0E0FCD0E0FD22CCD313CCFD1857
:10049300E4C6CBC0E018E4C6CAC0E00808ED08C64D
:1004A30033E613F618E433C675F003C3CA97CA09D3
:1004B300CB97CB199C40047D08802EBD0003020519
:1004C3008016B6FF050606081618C3CA33CACB330F
:1004D300CB33CA27CA09CB37CB193CC37D08803E2F
:1004E300187D0820E75CC633C6CA33CACB33CB3387
:1004F300DDF1D5F0EB30E77BCA97CA09CB974ACB3E
:10050300199C406F4B7025E620E0218066187D081A
:10051300C3CA97CA09CB97CB199CD3C633C6CA3370
:10052300CACB33CB3350C9DDE7D5F0E1D3E4C636CC
:10053300C608C636C608C636C608C636C61818184C
:100543008031C3CA97CA09CB97CB199CB34097C6CE
:1005530033C6CA33CACB33CB33DD34D5F02EC6A270
:10056300E0C640C8CA27CA09CB37194A70BECB3C7C
:10057300B480B90808E63308E633601F181818D0AA
:10058300E0FAD0E0FBD0E0FCD0E0FD22187D08CA01
:1005930027CA09CB37CB193CD3808013F618E4B6AE
:1005A3007F11F618B6FF0EF618C60470D208087647
:1005B3008080CAF618F618F680C5001213B9604F8A
:1005C30012139B6012E7548066F6121245701112E3
:1005D3001451703B090909F4F618F618F618F622B7
:1005E300121259701512143F08080860EAE6447F96
:1005F300F618768018E4F618F62212143F601612E5
:1006030014517012E4F608F608F608E65480F60969
:10061300090918181822EAC0E0EBC0E0ECC0E0EDCD
:10062300C0E0E687F0A4FBACF008E687F0A42CFC5E
:10063300E435F0FA1809E687F0A42C4B6002740144
:10064300CA35F0FCE433FB09E687F0D2F7A42CCBE0
:1006530035F0FC1908E687F0A42BCC35F0FBE43326
:10066300FD0819E687F0D2E7A42C4ACB35F0CD3448
:1006730000FC09E687F0D2E7A42DCC35F0FDE43386
:10068300FA0918E687F0D2F7A42CCD35F0CA340066
:10069300FC08E687F0D2E7D2F7A42ACC35F07A7EBD
:1006A30020E70B0ACB33CBCD33CDCC33CC33CB3399
:1006B30050147004ED30E00ED2F1E4CD3DCDCC3CCE
:1006C300CC3B5005DA05C2F1EB547FC63308E63361
:1006D30092F0FBE73309E733C39A502D2B70190CC3
:1006E3000D4C4D70151806E608C333700D20F10A42
:1006F300A2F013F6E418800B4024E4F630F00276FF
:100703008018F618F618F68024D33B14501074FFA3
:10071300A2F013F6187680E418F618F6800FA2F00C
:1007230013F618E63303F618ECF618EDF6D0E0FDF1
:10073300D0E0FCD0E0FBD0E0FA22C0E074F1120B71
:10074300CBA2AFE433F509D2AF85A708AFA1EF552C
:1007530008FE74105E600612172475A1EF74085E1C
:10076300600812172A75A1F78024EFA2E092F0E542
:1007730008A2E082F05017906198E0F8900B47E0F0
:10078300C398A2D265D0335002E8F075A1FEE50903
:10079300A2E092AF7F02020C2AC0E074F2120BCBEC
:1007A300A2AFE433FED2AF9061A4E0F8759B00E5FD
:1007B3009158540860087591F71217788023E591D2
:1007C30058541060087591EF12177E8014E591A2BA
:1007D300E092F0E8A2E082F05007E0C2E0F01218E5
:1007E300D49061A3E0F8E5E9585404600E1218AA06
:1007F30075E9FB906193E0A2E640F2EEA2E092AFCE
:100803007F01020C2AC0E074F2120BCBA2AFE433D7
:10081300FED2AF9061A5E0F8E5BF585404600675B9
:10082300BFFB1218EC80D412087530F0391208BAE5
:10083300803412087520F01430E72B74FFFCFBFAA8
:10084300747F8022E4FCFBFA7480801AB48008BCB5
:1008530000F2BB00EF800F50EBF9E4C39AFAE49B7C
:10086300FBE49CFCE499C6CC18C6CB18C6CA18C6D0
:10087300F922E4C9C608CAC608CBC6D3330308CCD9
:10088300C63392F0C3947F402E94184019C9B90718
:1008930004CACBCC225025C309CA33CACB33CBCC31
:1008A30033CC33D9F422F4600DC9CCC313CB13CBAF
:1008B300CA13CAD9F6CC22E4FCFBFA2214FCFBFAD5
:1008C30022C3E498F8E499F91209058026C3E49A4F
:1008D300FAE49BFBE920E7E9120905E498F8E499B7
:1008E300F922C3E498F8E499F9120905E498F8E4C5
:1008F30099F9C3E49AFAE49BFB22EB20E7CFE920C2
:10090300E7E0B90010BB0008E88AF084F8AAF022F7
:10091300E4FBC8FA22EB70227B10C833C8C933C981
:10092300335007C39AC3DBF280069A50012ADBEAED
:10093300C833F4C8C933F4C9FA2275F008E4C833DC
:10094300C8C933C933C99AC99B5004C92AC93BD5FD
:10095300F0ECFBC833F4C8E4C9FA22C0E0C0D0E825
:10096300C0E0E9C0E0C082C083A8F9E8C0E0900A13
:10097300B4E0F8743328F582E4340AF583D0E0F068
:10098300900AB3E0F8A3E0687006E595900AB6F024
:10099300900AB4E004F0C394804002E4F0A374C668
:1009A300F0D083D082D0E0F9D0E0F8D0D0D0E032DC
:1009B300C0E0C0D0E8C0E0E9C0E0C082C083900BD3
:1009C30037E0F8A3E0687008539AF7A37401802214
:1009D300C2EA900B37E0F8740128F074B728F58267
:1009E300E4340AF583E0F5F9900B37E0C3948040D3
:1009F30002E4F080AC080808EAC0E0EBC0E086F04F
:100A0300E7A4FA180986F0E7A42AFA180986F0E79A
:100A1300A42AFA180986F0E7A42AFA1986F0E7A4AB
:100A2300FBE5F02AFA190886F0E7A42BFBE5F03A78
:100A3300FA190886F0E7A42BFBE5F03AFA1818092F
:100A430086F0E7A4C5F02BFBE43AFA1908E7C5F0F2
:100A5300C6A426F6E5F03BFBE43AFA1886F0E7A4D1
:100A6300F6E5F00826F6E43B08F6E43A08F6D0E0AB
:100A7300FBD0E0FA22080808E630E71112121D1233
:100A83000A90080808C64480C618181822181818AF
:100A9300E9799EC608CAC608CBC608CCC6C370206F
:100AA3007996CACBCC7019798ECBCC70137986CC5E
:100AB300700EF9802ACA33CACB33CBCC33CC33196B
:100AC30030E7F2CCCBCA3350147004EA30E00DE4C3
:100AD300CA3ACACB3BCBCC3CCC500209C3E913C6C0
:100AE300CC182313C6CB18C6CA18C6F922E4CFC044
:100AF300E0E4CEC0E0E4CDC0E0E4CCC0E075F0209B
:100B0300E626F608E633F608E633F608E633F61883
:100B13001818EC33FCED33FDEE33FEEF33FFC3EC7B
:100B23009709ED9709EE9709EF97191919400FFFE8
:100B3300EC97FC09ED97FD09EE97FE191906D5F020
:100B4300BFECF709EDF709EEF709EFF7191919D01B
:100B5300E0FCD0E0FDD0E0FED0E0FF222521C582FD
:100B6300C0E0E52234FFC583C0E0E521C3958224BC
:100B7300F810AF088583228582218008858322852A
:100B83008221D2AFCEF0A3E520F0A37808E608F0E7
:100B9300A3DEFAEFF0A3E58124FAF8E608F0A3E672
:100BA30008F0A3E608F0A30808E608F0A3E608F0B7
:100BB300A315811581D0E0FED0E0F81581158115CC
:100BC30081E8C0E0EEC0E022C0D02521C582C0E0AC
:100BD300E52234FFC583C0E0E521C3958224F310E9
:100BE300AF0885832285822180088583228582211F
:100BF300D2AFC8F0A3E9F0A3EAF0A3EBF0A379081E
:100C0300E709F0A3D8FAECF0A3EDF0A3EEF0A3EF1D
:100C1300F0A3D0E0F0A3D0E0F0A3D0E0F0A3E52070
:100C2300F0A3E5F0F0A322852283852182E0C0E0D2
:100C3300A3E0F9A3E0FAA3E0FBA37808E0F608A396
:100C4300DFFAE0FCA3E0FDA3E0FEA3E0FFA3E0C026
:100C5300E0A3E0C0E0A3E0F5D0A3E0F520A3E0A388
:100C6300F5F010AF088583228582218008858322D1
:100C7300858221D2AFD082D083D0E0F8D0E0321287
:100C83001220181818120AF012132C19191922120B
:100C9300132C191919080808E618181820E7E01288
:100CA3000AF012122018181822090909E71919194C
:100CB30020E7DC080808E618181820E703020AF002
:100CC300121220181818120AF012122018181812EB
:100CD300132C1919192212142AB90003020D18E44E
:100CE30090050178EE79198002F0A3D8FCD9FA7A3D
:100CF300EE7B1D900086781379028015E493A3ADF3
:100D030082AE838A828B83F0A3AA82AB838D828E89
:100D130083D8E9D9E775821B7583AC7406121083F7
:100D230075824A7583307400121083E47375F01072
:100D33008E238F248582288583278521828522839C
:100D4300E0CEA3E0CF852882852783EBC9EAC8EDEF
:100D5300CBECCAC3E833C8E933C9EA33CAEB33CBB4
:100D6300C3EA9EF526EB9FF525B35004AB25AA26CF
:100D7300EC33CCED33CDD5F0DAAE23AF242212130E
:100D8300B9601C12139B601712143F7007121451A1
:100D93007001D322C0D01214517006D0D0B322C335
:100DA3002233D0D0501430E0F6C3E7960809E79613
:100DB3000809E7960809E796B32220E0D5E69708E5
:100DC30009E6970809E6970809E697B322D083D086
:100DD30082ECC0E0EDC0E0E493A3FCE493A3FDED5B
:100DE3004C600D120EA8EC24FFFCED34FFFD80EFE8
:100DF300E493A3FCE493A3FDED4C600D120F45ECCB
:100E030024FFFCED34FFFD80EFD0E0FDD0E0FCE4F7
:100E130093A3C0E0E493C0E022852283852182E08E
:100E2300A3FEE0A3F5207808E0A3F608DFFAE0A329
:100E3300FFE0A3C0E0E0A3C0E0E0A3C0E0E0A3C004
:100E4300E0E0A3C0E010AF088582218583228008FB
:100E5300858221858322D2AFD083D082021089D0AC
:100E630083D082E9C0E0E493A3C386F0C5F095F094
:100E7300F908E493A386F0C5F095F0700BE493A30F
:100E8300C3994005E9048002A3E475F002A4258216
:100E9300F582E5F03583F583D0E0F9E493A3C0E070
:100EA300E493C0E022C0E0C3E493960874019396F0
:100EB30018400FE493667008087401936618700075
:100EC3007019A3A3C3E49396087401939618A3A37C
:100ED300400DD0E0D0E0D0E0020E0CA3A3A3A3A367
:100EE300A3D0E0227404800474028000CCC0E0ED3F
:100EF300C0E0E521C39CCCAD2250011D10AF068C90
:100F0300218D2280068C218D22D2AF121005D0E0D4
:100F1300FDD0E0FC2274028000CCC0E0EDC0E0E52F
:100F230021C39CCCAD2250011D10AF068C218D2214
:100F330080068C218D22D2AF120FE3D0E0FDD0E0EA
:100F4300FC22C0E0C0F088F0E493667008087401E6
:100F53009366187000A8F0A3A3700BD0F0D0E0D074
:100F6300E0D0E0020E0CA3A3D0F0D0E022D083D0D7
:100F730082CCC0E0E493A360061210261470FAE456
:100F830093A360061211891470FAD0E0FCE493A3D2
:100F9300C0E0E493C0E022C008C3E096F50808A3CC
:100FA300E096420808A3E096420808A3E0964208A8
:100FB300A2D265D033E5087001D3D00822C0E07413
:100FC300F2120BCBA2AFE433FED2AFC2C0E5D1A283
:100FD300E45003121688EEA2E092AF7F01020C2ABE
:100FE300CAC0E0E493A3C582CCC582C583CDC583C3
:100FF300F0A3C582CCC582C583CDC583DAE5D0E035
:10100300CA22CAC0E0E0A3C582CCC582C583CDC5D0
:1010130083F0A3C582CCC582C583CDC583DAE6D070
:10102300E0CA22C0E0E493A3D39C5010E493A3C38B
:101033009C400AD0E0D0E0D0E0020F8DA3A3A3D060
:10104300E0227009080808226016181818C6C3336E
:10105300C608C633C608C633C608C633C6D5E0EAD3
:1010630022C008C3E096F50808A3E096420808A347
:10107300E096420808A3E09645087001D3D0082201
:10108300C09FF59FE473D09F22D083D082C09FE49A
:1010930093C0E0740193C0E0740293F59F2225216D
:1010A300F58210AF08F521400C15228008F5214088
:1010B300021522D2AF852283227404800A7403802E
:1010C30006740280027401C0E0F4041210A1D0E09F
:1010D3001213C82200C0D0252110AF08F521500CEF
:1010E30005228008F52150020522D2AFD0D022C0BC
:1010F300E0C0D0E8C0E0A8A8D2AFC2C7E8A2E79298
:10110300AFD0E0F8D0D0D0E032BB0102E722C082FA
:10111300C08389828A83BB0003E08002E493D08387
:10112300D082226017080808C6A2E713C618C613A0
:10113300C618C613C618C613C6D5E0E9226016083A
:101143000808C6C313C618C613C618C613C618C6DE
:1011530013C6D5E0EA222521F8E43522F922252118
:10116300FAE43522FB222521FCE43522FD22C3E0EB
:10117300C696F608A3E0C696F608A3E0C696F60858
:10118300A3E0C696F622C0E0E493A36C7009D0E016
:10119300D0E0D0E0020F8DA3A3D0E022252110AF31
:1011A30008F521400C15228008F52140021522D2B2
:1011B300AF22C3E09608A3E09608A3E09608A3E055
:1011C30096A2D265D03322E76670100809E76670ED
:1011D3000A0809E76670040809E76622E0667010EA
:1011E30008A3E066700A08A3E066700408A3E0663B
:1011F30022C3E7960809E7960809E7960809E796E0
:10120300A2D265D03322C3E096F008A3E096F0089B
:10121300A3E096F008A3E096F022181818E4C3960A
:10122300F608E496F608E496F608E496F622C3E692
:1012330097F60809E697F60809E697F60809E69788
:10124300F622181818E60846087009E626087005FD
:10125300E633F4220822191919E70947097009E747
:1012630027097005E733F4220922C3E4939608742F
:101273000193960874029396087403939622E026CA
:10128300F008A3E036F008A3E036F008A3E036F058
:1012930022700422600D18C6C333C608C633C6D5F0
:1012A300E0F41822E657F60809E657F60809E65768
:1012B300F60809E657F622E627F60809E637F608A0
:1012C30009E637F60809E637F622E026F608A3E032
:1012D30036F608A3E036F608A3E036F622E056F623
:1012E30008A3E056F608A3E056F608A3E056F62254
:1012F300E493F608740193F608740293F6087403F2
:1013030093F622E647F60809E647F60809E647F6A4
:101313000809E647F622E056F008A3E056F008A3D2
:10132300E056F008A3E056F022E4C397F709E497E8
:10133300F709E497F709E497F722C6F4C608C6F459
:10134300C608C6F4C608C6F4C622C3E09608A3E0DE
:101353009608A3E09608A3E09622C3E7960809E758
:10136300960809E7960809E7962275D00075813F2C
:1013730075210175220500020CD9600C08C6C31340
:10138300C618C613C6D5E0F422E6F008A3E6F008B3
:10139300A3E6F008A3E6F022E7094709C3134709C8
:1013A300336002E733F422E0F608A3E0F608A3E093
:1013B300F608A3E0F622E6084608C313460833609E
:1013C30002E633F422CAC0E0E6F0A308DAFAD0E07A
:1013D300FA22800100E9F874FF28F90470F622E08C
:1013E300FAA3E0FBA3E0FCA3E0FD22ECF0A3EDF005
:1013F300A3EEF0A3EFF022E0F8A3E0F9A3E0FAA351
:10140300E0FB22E8F0A3E9F0A3EAF0A3EBF022E08B
:10141300FCA3E0FDA3E0FEA3E0FF22EAF0A3EBF0D0
:10142300A3ECF0A3EDF022E5C754F84401F5C77926
:1014330001222521F582E43522F58322E62618468A
:101443001846184622C2AF75D69F02000022E7272E
:101453001947194719472212108CEBE00312108C1D
:101463005BE10312108C8AE10312108C90E20312E9
:10147300108CBAE20312108C0EE30312108CE2E319
:101483000312108C10E60312108CBEE60312108CAC
:101493002BE90312108CB0E90312108CB3EC031286
:1014A300108CE7EE0312108C23EF0312108C7CF0E8
:1014B3000312108C8FF00312108CCCF00312108CDB
:1014C30068F20312108C1CF40312108C27D005123F
:1014D300108CA3D00512108CD6D00512108C04D119
:1014E3000512108C42D10512108C7FD30512108C7B
:1014F3009ED30512108CE3D30512108C79D40512F8
:10150300108CC5D40512108C59D50512108C32D607
:101513000512108C8ED60512108CECD60512108C89
:101523005FD70512108CA3D70512108CFBD70512B9
:10153300108C1DD80512108CADD80512108C3ED915
:101543000512108C8AD90512108CB6D90512108C8D
:10155300F7D90512108C8DDB0512108C79DC05127E
:10156300108C54DD0512108C039E0612108C2F9ED6
:101573000612108C4F9E0612108C769E0612108C4B
:10158300A39F0612108CC49F0612108C6FA0061224
:10159300108CB27F0012108CB77F0012108CEA7F80
:1015A3000012108C09B90612108C24B90612108C83
:1015B3001FAA0612108CE6AA0612108CF8AA0612AD
:1015C300108C4BB90612108C5CB90612108C76B9CC
:1015D3000612108CF87F0012108CD5B90612108CED
:1015E3007EFF0512108C8EFF0512108CA3FF0512CF
:1015F300108CECFF0512108C3FB30612108CC3B392
:101603000612108C2BB40612108CEAA50612108C4D
:10161300FEA50612108C74A60612108CC3A6061221
:10162300108CF8A60612108C1BA70612108C3EA76E
:101633000612108C77A70612108CA8A70612108C1E
:10164300EFA70612108CEAB90612108C4994061201
:10165300108C57940612108CD0940612108CA995F6
:101663000612108C6C970612108C85B90612108C1A
:10167300DCF50512108C48F60512108CEBF60512FA
:10168300108C60F80512108CC7F80512108C14F931
:101693000512108C6DF90512108CF1F90512108CDE
:1016A30026FA0512108C44FA0512108CCAFA051298
:1016B300108C4DFB0512108C5AFB0512108CD4FABA
:1016C3000412108C00FB0412108C6AFD0412108C9F
:1016D300AAFD0412108CE6FD0412108CFAFD04120C
:1016E300108C13FE0412108C05FF0412108CB8FF2B
:1016F3000412108CCCFF0412108C6DAF0612108CE8
:1017030091AF0612108CAAAF0612108CE8AF061226
:10171300108C18B00612108C45B00612108CABB0AA
:101723000612108CAEB00612108CB8B00612108CD4
:10173300C5B00612108C05A10612108C25A1061245
:10174300108C64A10612108C82A10612108C9DA12C
:101753000612108C03A20612108C0FA20612108C14
:101763006CA20612108C7BA20612108C9FA206128A
:10177300108C60A30612108C6DA30612108C7EA32E
:101783000612108C6DFF0312108CB5FF0312108C20
:10179300E1FF0312108CFA840612108C4E86061297
:1017A300108C5C860612108C6F860612108C848651
:1017B3000612108C99860612108CAC860612108CB9
:1017C30028870612108C8D870612108C2388061228
:1017D300108CFC880612108C0C890612108C1B8945
:1017E3000612108C8FB70612108CB3B70612108C2A
:1017F300DBB70612108C03B80612108C557D00124D
:10180300108C7C7D0012108C9A7D0012108C097E46
:101813000012108CFC9A0612108C159B0612108C69
:10182300219B0612108C359B0612108C539B0612BB
:10183300108C5D9B0612108C679B0612108C7A9B92
:101843000612108C049C0612108C799C0612108CC4
:10185300AD9C0612108CFB9C0612108C489D061240
:10186300108C639D0612108C6D9D0612108C939D37
:101873000612108CF89D0612108C1AB60612108CE4
:101883003CB60612108CE4FF0312108CD3F503123E
:10189300108CFFF50312108C1CF60312108C2FF61C
:1018A3000312108C4AF60312108CA4F60312108C48
:1018B300D2F60312108CE6FA0312108C44FC0312C6
:1018C300108C76FC0312108CD9FC0312108C5EFE74
:1018D3000312108C86FE0312108C9BFE0312108CD5
:1018E300ABFE0312108CEBFE0312108C2DFF0312C0
:1018F300108C3DFF0312108C0FB20612108C29B20C
:101903000612108C51B20612108C6AB20612108C99
:101913008EB20612108CACB20612108CC3B2061231
:10192300108CF1B20612108C0CB30612108CC5B8D1
:101933000612108CC0900612108CD0900612108CD8
:10194300D5910612108C07920612108C379206124C
:10195300108C5A920612108C71920612108CAB9254
:101963000612108C10930612108C52930612108CD0
:1019730099930612108CC6930612108CF1930612DB
:10198300108C09AE0612108C29AE0612108C3DAFD6
:101993000612108C40AF0612108C44B50612108C40
:1019A3007AB50612108CBCB50612108CCCB5061293
:1019B300108C10B60612108C1AE90512108C5DE912
:1019C3000512108CC2E90512108CE1E90512108C86
:1019D30083EA0512108C8CEA0512108CDDEA0512DD
:1019E300108C06EB0512108C13EB0512108C85EB93
:1019F3000512108C13EC0512108C58EC0512108C88
:101A030091EC0512108CF6EC0512108C1FED0512EB
:101A1300108C96ED0512108CE5ED0512108C22EE5C
:101A23000512108C57EE0512108C69EE0512108CFE
:101A33007BEE0512108C9AEE0512108CA3EE0512A4
:101A4300108C5FEF0512108CA2EF0512108CE0EFE3
:101A53000512108C9BFF0112108CCFB00612108C54
:101A6300ACA30612108CE2A30612108C2AA4061251
:101A7300108C83A50612108CF0960512108C169804
:101A83000512108C52980512108C109A0512108CA6
:101A93003E9A0512108CA89C0512108CE89C051226
:101AA300108C8A9E0512108C209F0512108C7A9F31
:101AB3000512108C0AA00512108C4EA00512108C72
:101AC30090A00512108CF5A10512108C75A30512B8
:101AD300108CB6A50512108CE4A50512108C10A667
:101AE3000512108C19A60512108C76A60512108CFF
:101AF3000FA70512108C26AA0512108CACAA05128A
:101B0300108CE0FF0412108CF6FF0412108C79FB8A
:101B13000512108C8FFB0512108C33FC0512108CF0
:101B230072FC0512108C8FFC0512108CC0FC051280
:101B3300108C0DFD0512108C41FD0512108C7CFDDF
:101B43000512108C71FF0512108C44B40612108C10
:101B5300A3B40612108CE1B40612108C22B506123F
:101B6300108C0CF00512108C1EF00512108C09F16C
:101B73000512108C21F10512108C39F10512108C0D
:101B8300A6F10512108CD6F20512108C52F3051231
:101B9300108C1FF40512108C56F40512108C7EF471
:101BA3000512108C25F50512108C6FF50512108C9B
:101BB30087F50512108CBCF50512108C09A80612C6
:101BC300108C47A80612108C70A80612108CABA8B4
:101BD3000612108C0CA90612108C1EA90612108C6A
:101BE300EAA90612108CBDB90612108C00800512EA
:101BF300108C34800512108C0B820512108CAA8372
:101C03000512108CE9840512108CBE850512108C08
:101C130002870512108C38870512108CF487051281
:101C2300108C778A0512108C9B8B0512108CBE8B3F
:101C33000512108C518F0512108CC8910512108C4F
:101C4300F4910512108C80920512108CA792051244
:101C5300108CE2920512108CBD940512108CD2B632
:101C63000612108C00800412108C0C800412108C4D
:101C73006E800412108C78800412108C0781041279
:101C8300108C43810412108C3C820412108C9982B4
:101C93000412108C27830412108C78830412108C86
:101CA300F8830412108CBA850412108CBF870412B7
:101CB300108CB9880412108CEB890412108C3D8CA3
:101CC3000412108C808D0412108C258E0412108C3B
:101CD300D3920412108CC9930412108C5F940412D3
:101CE300108C84940412108C21950412108C3E9550
:101CF3000412108C5E950412108CCC950412108C77
:101D0300E9950412108C17960412108CAF970412E5
:101D1300108CD0970412108C76980412108CBE98F5
:101D23000412108C1C990412108CBF990412108C8D
:101D3300249A0412108C839A0412108C359B04127B
:101D4300108CA49B0412108CDF9B0412108C539CE8
:101D53000412108C9E9D0412108C2E9F0412108C62
:101D6300CD9F0412108C0DA20412108C6FA20412CA
:101D7300108C9DA20412108CC0A40412108C6AA7AC
:101D83000412108C7DA80412108C20BE0512108C36
:101D93000DC10512108CD3C20512108C85C6051215
:101DA300108C9FC60512108CB2C60512108CD1C6BA
:101DB3000512108C9CC70512108C4EC90512108C8D
:101DC30000CA0512108C6ACA0512108CFCCB0512CE
:101DD300108C2BCD0512108C64CE0512108C318D16
:101DE3000612108CEC8D0612108C528E0612108C7B
:101DF300738E0612108C4E8F0612108C6DC804124F
:101E0300108C9CC80412108C20C90412108C83CA35
:101E13000412108C6DCB0412108C29CD0412108C7B
:101E23004ECD0412108CA0CD0412108C32CE0412AD
:101E3300108C7ECE0412108C91CE0412108CEECE38
:101E43000412108CBBCF0412108C2DD00412108CF2
:101E530064D00412108CADD00412108C55D204122D
:101E6300108C34D30412108C82D40412108C65D5D8
:101E73000412108CF1D50412108C2AD60412108C83
:101E830049D60412108C94D60412108CB4D60412C2
:101E9300108C71D70412108C94D80412108CEFD8C4
:101EA3000412108C35D90412108C3DDA0412108CF4
:101EB300D8DC0412108CFEDC0412108C79DD0412C1
:101EC300108C9EDD0412108C12DE0412108CF0DED6
:101ED3000412108C2EDF0412108CB8DF0412108C45
:101EE3009FE00412108CA2E00412108CACE00412E8
:101EF300108CB6E00412108CD2E00412108C44E172
:101F03000412108C7DE10412108CA9E10412108CD0
:101F1300D0E10412108CF4E10412108C2FE20412AD
:101F2300108CA2E20412108CD6E20412108CE0E2B0
:101F33000412108C1CE30412108C51E30412108C55
:101F430070E30412108C7FB80612108C97B8061237
:101F5300108CFB7F0012108C9EAC0412108CC1AC51
:101F63000412108C1FAE0412108C68AE0412108C75
:101F7300D4AE0412108C32AF0412108C35AF04129D
:101F8300108C86AF0412108CFBAF0412108C8BB034
:101F93000412108C8EB00412108C0FB10412108C2A
:101FA30050B10412108C75B50412108C1FB70412B3
:101FB300108C73B70412108C02BB0412108C3ABC41
:101FC3000412108C0EBD0412108C78BD0412108CF8
:101FD300A2BD0412108C5BBF0412108C3EC104120C
:101FE300108CEDC10412108C8AC20412108C75C3BC
:101FF3000412108CDDC50412108C37C70412108C28
:10200300A5C70412108C0BAB0512108CB5AB0512CF
:10201300108C20AC0512108C3BAC0512108CBCACA0
:102023000512108C16AD0512108C5DAD0512108CC7
:10203300BCAD0512108CCEAE0512108CF7B1051293
:10204300108C27B30512108CAFB30512108CB8B5E2
:102053000512108C6AB60512108C04B70512108C89
:10206300D5B70512108C90B90512108C2EBB051232
:10207300108CBBBB0512108CE1BC0512108C04D96B
:102083000212108C67D90212108CAFD90212108C75
:10209300F3D90212108C4EDA0212108CABDA021250
:1020A300108CE6DA0212108C68DB0212108CC2DB91
:1020B3000212108C40DD0212108CB8DD0212108C5B
:1020C300D5DE0212108CFDDE0212108C50E00212DB
:1020D300108C61E00212108C79E00212108C82E104
:1020E3000212108C5FE20212108C5CE30212108C5D
:1020F30080E30212108C97E30212108CB8E30212F1
:10210300108CDAE30212108CF9E30212108CD1E482
:102113000212108C2BE50212108CC2E70212108CF3
:102123001BE80212108C3AE80212108C2AE9021200
:10213300108C60E90212108C93EA0212108C12EBDD
:102143000212108C4EEB0212108C88EB0212108CD0
:10215300F7EB0212108CACEC0212108C21FF01126F
:10216300108C91EF0212108C09F10212108CFFF205
:102173000212108C75F50212108C4FF70212108C9C
:1021830051E00312108C88F80212108C9FF802128F
:10219300108C96F90212108C8AFA0212108CF9FA3A
:1021A3000212108CB1970612108C61990612108CD2
:1021B300209A0612108C889A0612108C4C890612EB
:1021C300108C6A890612108CAE890612108CD48981
:1021D3000612108CFB890612108C138A0612108CBF
:1021E3002B8A0612108C77DE0312108C0F8B0612CB
:1021F300108C328C0612108C3B8C0612108C448C83
:102203000612108C4D8C0612108C578C0612108CF3
:10221300788C0612108C00800612108C3E840612F5
:10222300108C4C840612108C51840612108C96ACC0
:102233000612108CD4FF0212108C28B80612108CD0
:1022430038B80612108C9CFB0212108C008002120C
:10225300108C32800212108C9E800212108C3981F5
:102263000212108CD8810212108C1D820212108C63
:102273003F820212108C58820212108C7E8202124C
:10228300108CA0820212108CDE820212108C228328
:102293000212108C44830212108CA6830212108C3B
:1022A3006D840212108C24850212108C9685021202
:1022B300108C68860212108CB2860212108C05876D
:1022C3000212108C6B870212108CA5870212108CDD
:1022D300F7870212108C13880212108C3E880212A8
:1022E300108C458A0212108C998B0212108CBB8BB6
:1022F3000212108CEF8B0212108C108C0212108CB5
:102303001F8C0212108C2A8C0212108CDA8C02128F
:10231300108C438D0212108CF08D0212108C288EBB
:102323000212108CEE8E0212108CFB8F0212108C94
:1023330045900212108CD4900212108C3891021224
:10234300108C73910212108CDF930212108C339550
:102353000212108C6C980212108C39990212108C94
:10236300C7990212108CF0990212108C629A021211
:10237300108CF69A0212108C549B0212108C469CFD
:102383000212108C689C0212108CC49D0212108CD5
:10239300DD9D0212108CF09D0212108C5F9E0212C2
:1023A300108C6B9F0212108C789F0212108C819FED
:1023B3000212108C59A10212108C7FA20212108CEF
:1023C3008FA20212108C91A30212108C08A4021285
:1023D300108C37A40212108C4CA50212108C18A773
:1023E3000212108CF0AA0212108CFAAA0212108C9C
:1023F3000EAB0212108C18AB0212108C22AB02121D
:10240300108C2CAB0212108C45AB0212108C4FAB0C
:102413000212108CC3AB0212108CCEAB0212108CC2
:10242300F3AB0212108CFEAB0212108C4CAC0212F6
:10243300108C56AC0212108C61AC0212108C85AC5D
:102443000212108CA9AC0212108C05AD0212108C72
:102453004BAD0212108C68AD0212108CE5AD021266
:10246300108C1CAE0212108C5BAE0212108CA8AE44
:102473000212108C2AAF0212108CC3AF0212108CFE
:1024830093B10212108CF1B10212108C0DB302122F
:10249300108C33B30212108C72B40212108C98B7E2
:1024A3000212108CD9B90212108CB5BB0212108C17
:1024B3004BBC0212108C72BE0212108C1EBF021291
:1024C300108C53BF0212108CB8BF0212108CC2BF03
:1024D3000212108CECC10212108C13C30212108C66
:1024E30053C30212108CF9C30212108C8AC5021254
:1024F300108C13C70212108C33C70212108C8CC7B6
:102503000212108C8EC80212108CD8C80212108CC2
:1025130028C90212108C12CA0212108C87CA021226
:10252300108CA1CB0212108C1CCC0212108C21CD6A
:102533000212108CCCCF0212108CEBCF0212108C33
:102543004CD10212108C0ED30212108C62D30212E1
:10255300108C1AD40212108CC9D40212108C1FD5FD
:102563000212108CD5D50212108C6AD60212108C6E
:10257300D6D60212108C10D70212108C41D7021239
:10258300108C9DD80212108C00800312108C3280A4
:102593000312108C69800312108C52820312108C68
:1025A30035830312108C8D830312108CC88403129D
:1025B300108C14850312108C3C880312108C9E8B94
:1025C3000312108CEB8C0312108C818D0312108C70
:1025D3008D8D0312108CBF8D0312108C418F03124B
:1025E300108CDC900312108C84910312108CC79111
:1025F3000312108C2D920312108C4A920312108C2A
:102603007A920312108CAF920312108C7F930312F1
:10261300108C28940312108CAC960312108CCC9758
:102623000312108CB5980312108C37990312108C77
:10263300569D0312108C939D0312108CEB9D031275
:10264300108C1E9E0312108C9F9E0312108CEC9E06
:102653000312108C779F0312108CC99F0312108CE6
:10266300A0A00312108C59A10312108CF4A1031221
:10267300108C0DA50312108C2DA60312108CDAA951
:102683000312108CF8AA0312108CFBAA0312108CED
:102693002AAB0312108C30AD0312108C09AE031257
:1026A300108C3EAE0312108C46AF0312108CFCAF9D
:1026B3000312108C9DB10312108CC2B10312108C43
:1026C30001B20312108C73B20312108C57B30312AE
:1026D300108C24B40312108C5AB60312108CCBB690
:1026E3000312108C0BB70312108C6CB70312108CEF
:1026F3002FBB0312108C1EBC0312108C05BD0312DA
:10270300108C7DBD0312108C3FBE0312108C3DC094
:102713000312108C55C00312108C69C00312108C65
:10272300A1C00312108CCFC00312108C56C2031227
:10273300108C61C30312108CB3C30312108C14C426
:102743000312108CC6C40312108CEDC40312108C38
:10275300D1C50312108C82C60312108C71C80312E8
:10276300108CA6C80312108C0EC90312108C3DCA1C
:102773000312108CEFCA0312108C20CB0312108C9F
:1027830038CB0312108CC7CB0312108C7BCE0312F1
:10279300108C53D00312108C6FD00312108C8BD07B
:1027A3000312108C59D10312108C3DD50312108CD7
:1027B30022860112108C5A860112108C388B01125A
:1027C300108C7E8B0112108CCB8C0112108C368DE9
:1027D3000112108CBF8E0112108CCF910112108C3C
:1027E300EA920112108CFC9C0112108C8F9D011235
:1027F300108CE1A00112108CDDA10112108C38A203
:102803000112108C82A30112108C70A40112108C7F
:102813000CA70112108C80A80112108C03A90112BD
:10282300108C06A90112108C7BA90112108C85A9AA
:102833000112108C92A90112108CBDA90112108CE7
:102843006DAA0112108C66AB0112108C11AC01122F
:10285300108C2FAC0112108C48AC0112108C71AC8F
:102863000112108C93AC0112108CE8AE0112108C83
:10287300ADAF0112108CF2AF0112108C71B00112C6
:10288300108C1DB10112108C4FB10112108CA3B129
:102893000112108CDEB10112108C25B20112108CC2
:1028A30075B20112108C7AB20112108CCEB20112E1
:1028B300108CFAB20112108CE3B30112108C34B4F1
:1028C3000112108C94B40112108CEEB40112108C0E
:1028D30089B50112108CC8B80112108CDAB9011233
:1028E300108C54BB0112108C64BE0112108C02BFF9
:1028F3000112108CF8C10112108CB7C20112108C96
:10290300FBC20112108CA6C40112108CBAC40112AE
:10291300108CC4C40112108CCEC40112108CDAC402
:102923000112108CFFC40112108CD8C60112108C36
:102933002DC70112108C37C70112108C41C7011229
:10294300108CB6C70112108C05C80112108C16C961
:102953000112108C63C90112108C70CA0112108C01
:10296300B4CA0112108C5ACB0112108C4DCC011237
:10297300108C13CD0112108C36CE0112108C54CF53
:102983000112108C3CD00112108C54D00112108C07
:10299300ABD00112108CB5D00112108CC0D0011233
:1029A300108CDED00112108C26D10112108C88D12C
:1029B3000112108CAFD10112108CC1D10112108CF5
:1029C3005CD20112108C91D20112108C78D30112B7
:1029D300108CBDD30112108CA3D40112108CCAD455
:1029E3000112108C4DD50112108CBED50112108C22
:1029F30047D70112108C73D80112108C36D90112EB
:102A0300108CFED90112108C88DA0112108CB0DB05
:102A13000112108C52DC0112108CCDDC0112108CCF
:102A230089DD0112108CD3DD0112108C2DDE011211
:102A3300108C05DF0112108C28DF0112108CDBDFF4
:102A43000112108CFDDF0112108C66E00112108C54
:102A53007CE20112108C74E30112108C38E4011231
:102A6300108C6AE60112108CB4E60112108C04E794
:102A73000112108C68E70112108CCAE70112108C46
:102A8300F8E70112108C1CE80112108C51E80112B6
:102A9300108C82E80112108CB5E80112108C05E944
:102AA3000112108C58E90112108C7DEA0112108C6E
:102AB3001DEC0112108C78EC0112108CA1EC0112A8
:102AC300108C2EED0112108C9CED0112108CAAEDCE
:102AD3000112108CCEED0112108C23EE0112108C1A
:102AE3003EEE0112108CF0EE0112108C28EF011251
:102AF300108C6BEF0112108CCEEF0112108CD0F101
:102B03000112108CFAF10112108CF1F20112108CE7
:102B1300FBF30112108CABF40112108C4072001203
:102B2300108C78720012108C99720012108CDB7268
:102B33000012108C3D730012108C47730012108C1E
:102B430057730012108C92730012108C727700125C
:102B5300108C5F790012108C457B0012108CDC7B8B
:102B63000012108C7E7C0012108C31380012108CF5
:102B7300DC380012108C8A390012108C903A001243
:102B8300108CB03A0012108CD93B0012108C943D7B
:102B93000012108C073E0012108CAB3E0012108CFA
:102BA300B73F0012108C22400012108C5E400012BE
:102BB300108CA1400012108CDC400012108C1E41BE
:102BC3000012108CB3410012108C2F420012108C93
:102BD300F9420012108CD6430012108C6E4400127E
:102BE300108C88440012108CB8440012108CE944F5
:102BF3000012108CAF450012108CBF450012108CD0
:102C03000E460012108C1B460012108C2446001234
:102C1300108CA2460012108CFE460012108C4947FD
:102C23000012108C64470012108C8F470012108C16
:102C3300AC470012108CB8470012108C4F49001299
:102C4300108C68490012108CED490012108C004A58
:102C53000012108C1F4A0012108CC34A0012108CF1
:102C6300444C0012108CF74D0012108C8D4E001244
:102C7300108C904E0012108C004F0012108C1E4FBF
:102C83000012108CB54F0012108CFD4F0012108CE7
:102C930000500012108CC6500012108C33510012D9
:102CA300108C59510012108CE4510012108C0252F6
:102CB3000012108C48520012108CFC520012108C1F
:102CC30046530012108C75530012108CD25300120D
:102CD300108C07540012108C33540012108C415482
:102CE3000012108C8E540012108CFE540012108CA3
:102CF30047550012108C93550012108CBF550012CB
:102D0300108CCA550012108CE8550012108CD35643
:102D13000012108CDD560012108C18570012108C04
:102D230028570012108C7C570012108C90570012F9
:102D3300108CBF580012108CD4580012108C62599A
:102D43000012108CA7590012108C335A0012108CE9
:102D53003E5A0012108C805B0012108C9B5B001299
:102D6300108CE75B0012108C565C0012108C8F5C89
:102D73000012108CA95C0012108C095D0012108CDB
:102D8300A85D0012108CF35D0012108CC36000125A
:102D9300108C75610012108CE2610012108C226499
:102DA3000012108C3A640012108C3D640012108CD7
:102DB30049640012108C5D640012108C656400126B
:102DC300108C98640012108C9B650012108C28667E
:102DD3000012108C98660012108C1A670012108C67
:102DE300DB670012108CFA670012108C9B680012CC
:102DF300108CF8680012108CFB680012108C6F693D
:102E03000012108CBE6A0012108CC46B0012108C5E
:102E13004F6C0012108C6A6D0012108C326E00120F
:102E2300108C636E0012108C866E0012108C8F6EE5
:102E33000012108CBE6E0012108C4E6F0012108C9C
:102E430004700012108C79700012108C2071001223
:102E5300108C95710012108CCC710012108C0A72B8
:102E63000012108C0DE00312108CCAFE0112108C9C
:102E730053FD0112108CA5FC0112108C08FC0112E9
:102E8300108CFEFB0112108C97FB0112108C7CFB43
:102E93000112108CD9FA0112108CD9F90112108C7D
:102EA300F7F80112108CE7F60112108CF5F50112F8
:102EB300108CBCDF0312108C10F80212108C93F5E7
:102EC3000112108CC0FA0412108C17DE0312108C3E
:102ED300E7DD0312108CB6FA0412108C4BFA0412BD
:102EE300108C7FF80412108C3DF80412108C49F7F3
:102EF3000412108C1DF70412108CD4F60412108CDB
:102F030015F60412108CEDF20412108C91F00412D9
:102F1300108C61F00412108C11F00412108CABEFC2
:102F23000412108C6AEF0412108C9CEE0412108CA5
:102F330036EE0412108CD5ED0412108C75ED0412CC
:102F4300108C13EC0412108CA7EB0412108CFBEA08
:102F53000412108CF6EA0412108CDFEA0412108CAF
:102F63003BDD0312108CAAEA0412108CD4DA03128C
:102F7300108C8BD70312108CDFD60312108C4DD616
:102F83000312108C07D60312108CD2D50312108CA7
:102F93009FD50312108C8AD50312108C3CE70412C0
:102FA300108C39E70412108CF7E60412108C5FD5ED
:102FB3000312108CE4E60412108CD9E60412108C70
:102FC300A8E60412108CA0E40412108C0BDF031289
:102FD300108C13E40412108CCD8A0612108CCFE3EC
:102FE3000412108CA3E30412108CB4E80512108CA5
:102FF30087E80512108C54E80512108C2CE8051292
:10300300108CCDE70512108CADE70512108C78E714
:103013000512108C24E40512108C0CE20512108C9E
:10302300F6DF0512108C76DF0512108C22DF0512F5
:10303300108C2EDE0512108CD6DE0512108C55FF77
:103043000112108C84EE0200000080FB0000228F2E
:10305300000100BD1E87000100BB1E350004008176
:103063001E25000200851E26000200871E2700027F
:1030730000891E28000100931E29000100941E846C
:10308300000400821B86000100FC1D2A000100953C
:103093001E2B000100961E2C0001009B1E2D000814
:1030A30000901B2E0001009C1E2F0001009D1E306E
:1030B3000001009E1E310001009F1E320001009896
:1030C3001B33000100991B34000100A01E360001D0
:1030D300009A1B38000100A11E390001009A1E83CB
:1030E300000200B91E63000100A51B6400010097E4
:1030F3001E65000100981E6D000100A61B710008EB
:1031030000881B66000100B81E43000100A91E448D
:10311300000200AA1E45000100AC1E46000200ADDD
:103123001E470008009D1B48000100AF1E4B000115
:1031330000B01E04000100BC1EA1000100C01E3728
:10314300000100BF1E88000100BE1E3C0001009B61
:103153001B3D000100A21E49000200B11E670001D1
:1031630000A71B4D000200B31E4E000100B51E4F09
:10317300000200B61E3E000100A81E51000100A47B
:103183001E52000100A51E53000100A71E5400019A
:10319300009C1B0000000000000000000020012133
:1031A300860000010020011C860000020020011D92
:1031B300860000030020012086000004004201DE97
:1031C3008300000500420130830000060042012E07
:1031D300840000070030011E860000004042019C6D
:1031E300840000FDFF210118862A04000039054DE3
:1031F3001A2A04C8003905551A2A04C90039055189
:103203001A2A04010221234C1E2A042102212335F8
:103213001E2A0422022123371E2A042002102339E6
:103223001E2A04250210233A1E0C00550039055BA3
:103233001A0C00650039055F1A0D04000039056397
:103243001A0D04020210232C1E0D04060210232E55
:103253001E0D04050221232A1E0D0402041023342B
:103263001E000136360101000102010001030100C5
:1032730001040106060502000007010034080100ED
:103283000F090401010D0100FF0E080000170200E1
:1032930000190100FF1A0100011B0100FE1C0100BF
:1032A300081D0200001F010001200100012102008E
:1032B300002301000F240200002601000127010062
:1032C30008280200FF2A0100072B0102402C0100FD
:1032D300002D0100012E0100012F0100FF30010B21
:1032E3001D310800003A0100083B01000F3C0100BA
:1032F300013D0100FF3E04000042040000460400BB
:10330300004A0400004E040000520400005604006A
:10331300005A0400000103710301030103010301C7
:10332300030103220302030103100300030003004C
:103333000300030003000300034203000324030606
:1033430003000300030403120325032303250323BC
:103353000304030403000300030003440300030006
:1033630003230300036503210035038103000305E1
:103373000300030003000300032503230303027177
:103383000230016002110270020102020202028095
:1033930002100261023A0041006302730272026288
:1033A3000243020002130238000002000204021268
:1033B3000200020002000200020402040237003786
:1033C300003C0244020002390000020002650200D0
:1033D3000235028102000205028202830200020317
:1033E30000710030016000110070003102200350B1
:1033F3000480001000610000001400630073007279
:1034030000620043000000130006000000000004F7
:103413000012000000000000000000040004003758
:103423000037003C0244000000000000000000657B
:10343300000000350081000000050000008300004B
:1034430000010171010101010111010101310101BA
:103453000101018001100161013B0014006301734C
:10346300017201620143010001130106013D0135AF
:103473000004011201000100010001000104010424
:1034830001330133013C01440132013600000100E4
:1034930001650100013500810100010501820183FD
:1034A30001000103047104020460041104700402A6
:1034B30004020401040204100461040004140463FC
:1034C3000473047204620443040004130406040036
:1034D3000400040404120400040004000400045162
:1034E3000464000004000400044404000400040015
:1034F3000400046504000435048104640005040029
:10350300048304000436000100060000000F0000DD
:10351300000000000000000000000003FFFF0000A7
:103523000403FFFF0000FFFF0FF4010005C40403C1
:1035330020000100000B0000000000000000030158
:103543000F00000000000000000000000000000069
:103553000000000000000000000000000000000068
:10356300000000481D721D4E1D821C541D781D5401
:103573001D841D5A1D821C541D781D601D821C0054
:10358300000000661D821C00000000000000006CAB
:103593001D821C000000000000000000000000006D
:1035A3000000000000000000000000000000000018
:1035B30000000000000000000000000000000013F5
:1035C30000D01F1F00D61F1F80DC1F000036200104
:1035D30000362002007C1F0280761F0300821F0436
:1035E30000881F04808E1F0500941F0600A01F3152
:1035F30000B21F3300B81F3400BE1F3600C41FFFC4
:10360300FF00000A000000020000000400000008A0
:1036130000000010000000200000004000000080B7
:103623000000000001000000020000000400000090
:10363300080000001000000020000000400000010E
:10364300EC27061C280816280B3A28103A2502F204
:1036530027050A2807F8270CD4270DE02764302311
:10366300FF0000030003000400080010001F003ED9
:10367300007B00F600EC01D703AF075D0FB91E71A5
:103683003D0000020400002905671A020410022904
:1036930023301E050400002105691A0504100229C0
:1036A30023321E07ECFDFDFDECDCDCCCBCACAC9C9A
:1036B3009C8C7C7C6C6C5C5C5C4C4C3C3C2C2C1C77
:1036C3001C00160F00000B150B020002220F330023
:1036D300000E0F00000000000000000000000000CA
:1036E3000000005A6967426565416C6C69616E63ED
:1036F300653039D0D1D2D3D4D5D6D7D8D9DADBDC1B
:10370300DDDEDF150AF4D4C0A595827263615550DE
:103713004900034D4C4651181A250502303017183D
:103723001921301B1D1F30003C40423A3F3F392FC7
:1037330047300001191618161618230300303016E7
:10374300181920231A1C1E300C0E020B040B0A0737
:1037530008000F02040201010101090200BE040A6C
:10376300E8030000F6FB010003000000E80300008B
:10377300A6360E007F0006370C0504041E10100841
:103783000A28FF00190402040009033C0C09050878
:10379300150800FF030C031EE4F0A3F0A3F0A3221B
:1037A30012379BF022901CEE124DA7122BD6221239
:1037B30037B622E0F508E4F509F50AF50B22E8240B
:1037C300FBF582E934FFF58322E82411F582E4391D
:1037D300F583E022F5831237DD22E0F508A3E0F557
:1037E3000922122E5274041210D77F08020E1C7481
:1037F30001F0900B5FE0640F2274091210D77F046D
:10380300020E1CEA2413FAE43FFB122D80E922790D
:1038130005122D8C740622A3A3E024F5C39413226E
:10382300122E5E900B7F126D657A147B0022C0828C
:10383300C083901CCD74CAF0A3742BF0A374DCF086
:10384300A3742BF0901CD174B2F0A3742BF0A37467
:10385300ACF0A3742BF0A374E8F0A3742BF0A3745F
:10386300EEF0A3742BF0A374E2F0A3742BF0A37413
:103873009AF0A3742BF0901CDD74BEF0A3742BF0AC
:10388300A374C4F0A3742BF0A374B8F0A3742BF047
:10389300A374F4F0A3742BF0901CEE125776600916
:1038A300901CEE124DA3121A72901CEB1250BD74B1
:1038B30008126412A3F0901D97F0901CF0F07C0B9B
:1038C300FDF97AF17B1C1219C47C0B7D0079007A17
:1038D300FC7B1C1219C4024F1774F7120B5F74F7A9
:1038E30012119FEAFEEBFF12396F74051251DB745C
:1038F30003F0123A861251BD2430FCE43FFD8C8262
:1039030012396712397B600812419474FFF0A3F0F7
:10391300EE242EE43F1C1CFD8C82F583A3E0C0E063
:103923008A828B83124E6FD0E012397B888289831F
:103933001256AA2403F0EE12419E1214357403F0BA
:10394300900B74120EEB7402121169123D6812107F
:10395300D7E9F5087007EEFAEFFB122C66A9087495
:10396300090241ADF583E08882898322EA12397422
:10397300221258B93FF583221266921251C9E8F018
:10398300A3E9126969E02274F0120B5FEAFEEBFF10
:103993008C0C8D0D890B123A86F5831251D174105C
:1039A300121435E0F508A3123969F0E824FFF58213
:1039B300E9123D7AE508F0E824FEF582E9123D7A42
:1039C300E50BF0900B79E0C0E0E824FDF582E91205
:1039D3003D7AD0E0F0900B78E0C0E0E824FCF5827B
:1039E300E9123D7AD0E0F074121214351237D9126D
:1039F30037C1E509F0E824FAF8E934FFF98882F5DC
:103A030083E508F0EE2404FCE43FFD88088A828BFA
:103A130083E0F50E8C828D83E0250EC39508126634
:103A230092124FF7850C82850D83A3A3A3A3A3A3AF
:103A3300A3A3E064037009EE1251ABF0A3E4800387
:103A4300123D7F123D877409F07508F175091C75E5
:103A53000A0078081210C012615C1210D77508FFB3
:103A63007509FF78081210C4AC0CAD0D123D681235
:103A730010D7E9F5087007EEFAEFFB122C66A908D8
:103A83000237EDEA2402FAE43FFB8A8222C082C0B5
:103A930083901D0DE0C39408400474078001E08AFD
:103AA300828B83F033333354F8F9024F1774F012D7
:103AB3000B5F8A088B09890A8C0E8D0F750C00A287
:103AC300AFE433F50BC2AF901D078045123BB250F4
:103AD3003D123BCC64037036E50824F9F508E5098B
:103AE30034FFF5098E828F83A3A3E02405FCA3E0B2
:103AF3003400FDAA08AB09121B5CE50824FFF50896
:103B0300E50934FFF5097410250CF50C150A123F6D
:103B1300A112711AE50A6004EE4F70B0E50BA2E042
:103B230092AFA2AFE433F50BC2AF901D07803E12F4
:103B330056838882F5831248F7850882850983F0C6
:103B43008A828983123BC3A3A3E0C0E0E50824FF74
:103B5300F582E509123D7AD0E0F0E50824FEF50888
:103B6300E50934FFF509050C150A123FA1123DF5CD
:103B73006021123BCC640270F1123BB2EE40B012F2
:103B830052F2A2E550E4850E82850F837401F0E5BD
:103B93000A70D7E50BA2E092AF850882850983E519
:103BA3000CF0E50824FFFAE50934FFFB0237ED12B8
:103BB3003BB8A2E622EE2411F582E43FF583E0222E
:103BC300123BC7221256C8A3228E828F83A3A3124D
:103BD3004E73125D9F2274F0120B5F74F312119FE8
:103BE3007403121435E9F07402121435EAF08B0BE6
:103BF300852182852283E4F004121161122B7CE972
:103C0300F8900B5EE0292437F508FA7B001219D6E9
:103C13008A0C8B0DAE0CAF0DEA4F7003023D5FEAC9
:103C23002402F50EE43FF50FA808EA28F8E43BF96F
:103C3300850E82850F831246F3900B5EE0F9FAC37B
:103C4300E49AFA95E0FB850E82850F83E02AF50C52
:103C5300A3E03BF50D900B5C1237D9750A00780889
:103C63001210C0E9FC7D00AA0CAB0D12512D1210ED
:103C7300D7AC21AD227401121435E0F9E50C24FF11
:103C8300FAE50D34FFFB122B828A828B83E4F0E585
:103C93000BC454F0F9901D98E0C4333354C0F8902A
:103CA3000B58E0A2E0E43313134849440FC0E0EAA1
:103CB30024FFF582EB123D7AD0E0F0EA24FEF50C06
:103CC300EB34FFF50D7403121435E0F8740212148B
:103CD30035E0C454F048850C82850D83F0A80C852B
:103CE3000E82850F831263DF2AC3988E828F83A38C
:103CF300A3A3A3F0850E82850F83E8F0A3E50DF05F
:103D0300123D7F123D87E4F0740C121435E4F07514
:103D130008FC75091C78081210C012615C1210D7D8
:103D2300852182852283E06009EE240E1252F44439
:103D330008F0122D6EE9F9E4F508F5097808121078
:103D4300C47406121169123D6A1210D7E97006EEA7
:103D5300FAEFFB800BEEFAEFFB1219DC7A007B0023
:103D6300740D0237EA7903EEFAEFFB122D86740223
:103D730022EE24FFF582EF34FFF58322EE1239742D
:103D8300E4F0A322F0123D8C22EE12607F3FF58314
:103D93002274F2120B5F8A0C8B0DA2AFE433F50A87
:103DA300C2AF750800750900901D07802C123FB142
:103DB3005024850C82850D83A3A312616F8E828F9D
:103DC30083A3A3124DA3122D74E9600A123FACC260
:103DD300E6F08E088F09123FA1123DF570CFE5087A
:103DE30045096006123E8ED2E6F0E50AA2E092AFE4
:103DF300800DE0FEA3E0FFEE4F2274021210D77F86
:103E030006020E1C74F0120B5F8A0E8B0F8C0C8D46
:103E13000D750A00A2AFE433F50BC2AF7E007F003D
:103E2300901D078010AE08AF09123E861252F2D2DF
:103E3300E7F0124D81124D956034123E8EA2E75089
:103E4300F1850882850983A3A3120EEBAC0CAD0D9B
:103E5300AA0EAB0F122D7A74021210D7E960D3EEBB
:103E63004F60C21242287006123EA0D2E4F0E50B66
:103E7300A2E092AFEE4F6006122C60750A01A90A08
:103E83000237ED123BB8D2E4F0EE22E50812609956
:103E93003509F583E022AA82AB83121B5C8E828FE5
:103EA30083A3A3124E73E02274F2120B5F74FE120B
:103EB300119F750C00750D00852182852283E4F026
:103EC300A3F0A2AF33F50AC2AF901D0712711A8097
:103ED3002BEE24FBF582EF34FF1237D7780C121048
:103EE300C4123F8F1210D7EEFCEFFDAA21AB2212B2
:103EF30019FAAE08AF09901D0DE014F0EE4F602BD8
:103F0300123FB1501DEE240BF8E43FF98882F5838C
:103F1300E024FFF0A3E034FFF08882898312577610
:103F230060AF8E0C8F0D123FA180A1E50AA2E09233
:103F3300AF901D0DE0602C900B5FE0640F60069066
:103F43001D97E0701E7AE57B1C122E5E908612127E
:103F53000EE77AE57B1C124F9F1210D7800574F091
:103F6300124E80AA21AB22121A008A088B09AE08CE
:103F7300AF09EA4F6013122B8E123FACA2E28E827E
:103F83008F83A350D974E980D7023DFDEEFCEFFD8A
:103F93007A077B1D121A0C7402228E0A8F0BEE24F1
:103FA300FBF582EF34FFF58322EE123BB922123B7D
:103FB300B8A2E72274F7120B5FEAFEEBFF122B8E17
:103FC300124E6C120D2EE96401900B7B700AE024F3
:103FD30001F8A3E034008003124DF2F91254F412F5
:103FE3004FF7901D0DE0701F900B5FE0640F70178B
:103FF3007AE57B1C122E5E908612120EE77AE57B21
:104003001C124F9F1210D7A8A8C2AF901D0DE00439
:10401300F0E8A2E78004E508A2E092AF025402743C
:10402300F7120B5FEAFEEBFFEA124058F0122B8EF9
:10403300EEFCEFFD7A077B1D121A06A8A8C2AF900B
:104043001D0D124946900B5FE0640F70057908124D
:104053002D26025402123BB9C2E42274F7120B5FFD
:1040630074EA12119FEAFEEBFF900B58E0602A8579
:1040730021828522837401F0121435E41241131254
:104083001435123E99C0E0740A121435D0E012635D
:10409300FF740B12143512565F74160241AD74F798
:1040A300120B5FEAFEEBFF122B70E9F974DC696017
:1040B3001E74DD69601974E469601474F369600F38
:1040C30074DE69600A74DF69600574DB697007EE8A
:1040D300FAEFFB122D2C02540274F7120B5F74EBF0
:1040E30012119FEAFEEBFF8521828522837406125B
:1040F3004113121435AA82AB83121B5CEE2408FC15
:10410300E43FFD740A12143512565F74150241AD73
:10411300F0EA2413FCE43FFD74022274F7120B5FF0
:1041230074F712119FEAFEEBFFEA24301252F46097
:104133005DEA12419E1214357403F0900B74120E53
:10414300EB124194120EEB900B87E0F974041211F9
:1041530069EEFAEFFB122B7674041210D7E9F974A7
:10416300DC69602374DD69601E74E469601974F3AB
:1041730069601474DE69600F74DF69600A74E8694A
:10418300600574DB697007EEFAEFFB122D2C023920
:1041930062EE242EF582E43FF58322126570AA2194
:1041A300AB22121B5C74082274031210D702540250
:1041B30074F2120B5F8A0C8B0D750A00750B007578
:1041C30008E7A2AFE433F509C2AF901D07800312DD
:1041D3003F9D123DF56025123FB150F31242287006
:1041E300EEEE24321243BFE06870E4780A1210C482
:1041F300123F8F1210D7901D0DE014F0E509A2E0D5
:1042030092AFEE4F6013EEFAEFFB122B8E79F0EEC6
:10421300FAEFFB122D2C750800A908AA0CAB0D129E
:104223002D2C023E02123D8CE064012274F4120B29
:104233005F74F712119FEAFEEBFF8A82F583A3E016
:1042430064F370030242CD8A828B83A3E064DF6050
:10425300798A828B83A3E064E8606F8A828B83A36D
:10426300E064DB6065122BD0E9F5087055EE240E8F
:104273001252F4604D1242D760487408121435127A
:1042830042E6120EEB7508FF7509FF78081210C499
:104293008E828F83A3A3A3A3A3A3A3A3E0F9740490
:1042A300121169122B7674041210D7E9F50874F30E
:1042B30069600F74DF69600A74E869600574DB691B
:1042C300700F8E828F83A3E508F0EEFAEFFB122BBB
:1042D300DC0237FCEE240FFAE43FFB7909122C12BF
:1042E300EA4B227402125B6574FFF0A31242F322BD
:1042F3001256B3A3A32274F1120B5FEAFEEBFF7510
:1043030008008A82F583A3A3A3A3A3A312381A40A8
:10431300037508E88A828B83A3A3A3A3A3A3A3A300
:10432300A3A3E0C3941040057508E880138A828B29
:1043330083A3A3A3A3A3A3A3A3A3A3E0640F600BDB
:10434300901D74E0540870037508E8EA240B1243C7
:10435300BFA3A3A3A3A3A3A3A3E0C398500DEA24DD
:104363000B1252F4640F60037508E8900B78E0F4C5
:104373007003A3E0F470037508EC7A237B00121A30
:104383006C8B0BA90B901CEE1243CE60278E828F91
:1043930083A3A3A982AA83890C8A0D750E00780CC6
:1043A3001210C07C237D00901CEEE0FA12512D12F6
:1043B30010D7800375081AA908026157F582E43FF4
:1043C300F583E0F88A828B83A3A322EAF0A3EBF0C0
:1043D300EA492274F5120B5FEAFEEBFF8A82F5834A
:1043E300A3A3A3A3A3A3A3A3E0900B5F124466E03C
:1043F300900B7AF0EA240B1252F4900B5A12446693
:10440300A3E0901D98F0F9121826901D98E0600B18
:10441300EE24041252E6240612445C901D971237D0
:10442300F26004740180027400901CF0126AAA12F4
:1044330010C07C0B7D007AF17B1C12512D1210D71A
:10444300EE2418F508E43FF50978081210C07C0B38
:104453007D007AFC7B1C02511AFAE43FFB79E112DE
:10446300180E22126A94A3A3A3A32274F7120B5F5C
:10447300EAFEEBFF8A82F583A3E070031237A812EA
:10448300661B02540274F7120B5FEAFEEBFF901CEB
:10449300EE1257766010901CEE124DA3901CEEE4C2
:1044A300F0A3F0121A728E828F837408124E871251
:1044B300221602540274F6120B5F901D97E06010EF
:1044C300901CF0E0700A1244D6EA4B6003122C668B
:1044D300026715900B5AE0FB900B7AE0FA900B5FA2
:1044E300E0F9122B882274F4120B5F74E712119F08
:1044F300EAFEEBFF750B018A82F583A3A3A3A3A3B3
:10450300A3A3E0A2E25069EA242BF582E43F1261FF
:104513006DEA2413FAE43FFB122B94E97052908462
:1045230094E064017005750B0080451245A81210D4
:10453300C07C0B7D00741112116112512D1210D722
:10454300122D6EE9FA740E12115988088909780838
:104553001210C475083075090078081210C4EE12E1
:1045630063C8120EEB12656279011238141210D768
:104573008521828522837410F012656274021214FD
:1045830035AA82AB83121B50EE242B126D5B740B86
:10459300121435124FF7740D121435E50B1267D44C
:1045A30074190237FEEE2408126AB222C082C08355
:1045B300901D98E06003122DE0024F17C082C08364
:1045C300901D8F74CDF0A3741CF0A374D1F0A37469
:1045D3001CF0A374DDF0A3741CF0901EF674A6F017
:1045E300A37434F0901D79746AF0A3742BF0901DBA
:1045F3001274A0F0A3742BF0901D1474A6F0A3748E
:104603002BF0901D74E04402024A1BC082C083EA6F
:10461300FCEBFD7903025722C082C083790802684C
:1046230095C082C08374FE12119F901D1A744EF0C0
:10463300A3742CF0901D1C7448F0A3742CF0800715
:104643007A077B1D124680901D0712577670F190F2
:104653001D0912577660097A097B1D12468080EF87
:10466300901D07E4F0A3F0901D0DF0A3F0A3F090CC
:104673001D28748AF0A3742CF07402801C121A0093
:10468300852182852283EAF0A3EB124694122D5CE6
:1046930022F0AA21AB222274111210D7024F1774F1
:1046A300F6120B5FE9FF742A29F582E43437F583A8
:1046B300E493FEFA7B001219D6EA4B6007EA2E1246
:1046C30046F080267A027B001219D6EA4B601774F3
:1046D3001F2FF582E43437F583E4938A828B83F0CA
:1046E300A3741A124AB97A007B00026715124FE6C7
:1046F300E812668FA3A3A3A3E4F022E9FC740629BE
:10470300F8EAA2E0501EE875F00A84E5F0F96014B7
:10471300740A28C399F8E9C394054004740A28F875
:10472300740B28F8ECC394134004791480027906BF
:10473300E82979002409F85001097A0A7B00120854
:10474300FDE8F9021089C082C083901D74E0540211
:10475300600A12221CE96004790180027900024F89
:1047630017C082C083901D74E054026014901D0D25
:10477300E0700A1257736009124789500479018067
:10478300027900024F171237CCA2E722C082C083FE
:10479300908491E0F8901D0FE0C39850051219D64C
:1047A30080047A007B00024F17C082C083122D5C05
:1047B3007900024F17C082C08374FE12119F8521B6
:1047C30082852283EAF0A3EB124922A3A3A3A3A326
:1047D300E0600A14605724FE605A024892900B5F0F
:1047E300E0640F6012122D32E9700C124D9D901D82
:1047F30016124E6F120D2E900B87E0C0E0852182BA
:10480300852283125696D0E012492274141260B3A3
:10481300FCA3E0FD7A097B1D1219FAA8A8C2AF9088
:104823001D0F1249467920122D2602467C124BF0A9
:10483300741580D9124BF0A3A3A3A3E06051124BCC
:10484300F0123EA4C0E0852182852283E02406F590
:1048530082E43BF583D0E01260B32402F8A3E03492
:1048630000F98882F583E02401FAA3E03400FB8891
:10487300828983EAF0A3EB1260B3124C3085218264
:1048830085228360131248F760051249094048AA3C
:1048930021AB22122D5C80921248F760F212490973
:1048A3005021124916FA852182852283A3E0C82468
:1048B30006124BECF874551258AB3437F583E49376
:1048C3006A60148521828522831248F7640870BFC9
:1048D300124916640870B81249161412492A240A98
:1048E300C0E0852182852283124E6FD0E012492ACF
:1048F300040248101248FB22124DF2C82406F58226
:10490300E438F583E0228521828522831248FBC3A4
:10491300940A22852182852283123BC7A3E02212B7
:104923004934F583888222124934C82406124C1A6A
:1049330022F0852182852283124DF222A8A8C2AFDC
:10494300901D0EE004F0E8A2E792AF22C082C0837C
:10495300901D1E1257766008124BF7120D2E80021F
:104963007900024F1774F7120B5FEAFEEBFFEA12AE
:104973003D8D7401124FA5F8A3E0F912396F124F60
:10498300F7EA24351252F4C0E0EA2413F582E43F37
:10499300F583D0E0F0EA24361252F4C0E0EA24149E
:1049A300F582E43FF583D0E0F0EA24381252F4C0F4
:1049B300E0EA2418F582E43FF583D0E0F0EA242FFF
:1049C300F582E43FF583120EEB12656FEA24311290
:1049D30052F4F9123D6E1210D7E9F5087007EEFA9A
:1049E300EFFB122C66A908025402C082C083122D69
:1049F30032E96004792080027901024F17C082C036
:104A030083EA2411124A11D2E0800DEA240DF582C3
:104A1300E43BF583E022F0A3F0024F17C082C0838A
:104A2300124A0E64017011124AB3400C8A828B83BE
:104A3300A3E0F9122D2C8066124AA4A2E650128A32
:104A4300828B83A3E0F9901D18124E6F120D2E80F6
:104A53004D124A0E6401700D124AB350088A828BBC
:104A630083743080368A828B83A3E0641B8A828BB3
:104A730083700474228024A3E0700D124A0EF8742C
:104A8300401258AB3437800B124A0EF8741F125879
:104A9300AB3437F583E4938A828B83124AB9024F8E
:104AA30017124AA822EA2410F582E43BF583E02298
:104AB300124AA8A2E322F0901D6FE0F91219E22234
:104AC30074F7120B5FE9FE1257737003024BE9EEA2
:104AD3006014741B6E701AE812607F39F583E0640A
:104AE300057003024BC1901D11124BF7A3E4024B57
:104AF300C874E96E7068E82412F582E439F583E03E
:104B0300700B122222E96005124C3A606179EE12B1
:104B13001790901D10124C11901D10603A124C3DCD
:104B2300901D10700B124C1114F0121952024BE924
:104B3300124C2FC2E7124DD8240D124BEC640370B4
:104B430009124C0A124D8ED2E2F079ED121790122F
:104B53004C22120D2E8078124BFD74E9806774E1AC
:104B63006E703E122222E96055124C3A7050900B3F
:104B730081E0C0E0124C0A2412F582E438F583D0B8
:104B8300E0F0900B70E0C0E0901D10124C06124C48
:104B930006D0E0F0900B70E004F0790112193A802E
:104BA30045741C6E7018901D10124DA3901D201299
:104BB3004E6F120D2E901D10E4F0A3F08028901D6F
:104BC30010124BFDEEF0901D10124DA3122C541237
:104BD3004DB9E054806003126884901D10E4F0A383
:104BE300F07910122D26025402124C1A22852182CA
:104BF300852283A3E0F583888222124C0122124E80
:104C030077A3221256C422901D101256A5221256C3
:104C1300A52412124C1A22F582E438F583E022907F
:104C23001D10124DA7901D14124E7322E0F8A3E03D
:104C3300C82410124C1A22901D10124DC0E05404C7
:104C43002274F4120B5F750A00750B00A2AFE433F4
:104C5300FEC2AF1257736003024D37124E6C120D32
:104C63002EE94410F8901D07800985080A85090B71
:104C7300124D81124D957003024D37123E8E5868C6
:104C830070E8780A1210C4AC08AD09123F931210F1
:104C9300D7901D10E508F0A3E509124DD8124D8EEB
:104CA300A2E75003024D3E901D0EE014F0EEA2E089
:104CB30092AF901D10E0240EF8A3E03400F9E8FE53
:104CC300E9FF8882F583124DA3901D1012491CF948
:104CD300122C18E9901D0B1264128E828F83E054FC
:104CE300806018124C0A2413124BECF912184A1262
:104CF3004C0A2414124BECF912183E124DB9A3E0DE
:104D03005401605F901D0B1257766045124DCF60C2
:104D130040124DCFF87900901D0B124DA3120905D7
:104D2300E8C0E0124DADD0E0124DDDC39413401145
:104D33007402800FEEA2E092AF8037901D0D024CFB
:104D4300AD7400C0E0901D11E0C8124D78D0E08032
:104D53000D124DAD7401124DD8124D787401F079D6
:104D630003800C901D10124C2FA2E1B3E433F9120F
:104D7300193A023801241AF582E438F58322E5084A
:104D830024FBF582E50934FFF58322126099124C66
:104D93001D221237DDE508450922852182852283FC
:104DA300124DA722E0FAA3E0FB221256A22419F522
:104DB30082E438F58322901D10124DC022124DF269
:104DC300C8124DC8221258B938F583221256A224AC
:104DD30018124C1A22124DEAC822124DEAF58388A2
:104DE30082A3A3A3A3E022F0901D10124DF222E0B0
:104DF300F8A3E02274F7120B5FEAFEEBFF122D56C5
:104E03001252F1A2E3400A124228700590848F8067
:104E130003908490E0F9EEFCEFFD7A077B1D121AF4
:104E230012E96038EEFAEFFB901D1A124E6F120D65
:104E33002EEE240E1252F45404701212493FEE1255
:104E43003970A3E05401701E122C608019EEFAEF42
:104E5300FB901D12124E6F120D2E800A8E828F83CD
:104E6300A374F1124E80025402901D1C124E732241
:104E7300124E7722E0F8A3E0F583888222124E8750
:104E8300122C5422F0EEFAEFFB22024F1074F712A9
:104E93000B5FEAFEEBFF7900901D74E05402700C87
:104EA300EA24331252F45404600279E8901D74E04A
:104EB3005460700CEA24331252F45402600279E80D
:104EC3008A828B83A3A3A3A3E0F8908495E0C3987D
:104ED300500279E8EA24311252F4700CEA242E12BB
:104EE30052F4700479F5800BE97005122C42E9F94C
:104EF300E96007EEFAEFFB122D2C025402C082C0C8
:104F0300838A828B83740DF01222168007C082C0BD
:104F130083122C60D083D08202108974F4120B5F49
:104F2300EAFEEBFF8A82F583E4F0A3124FA5540453
:104F330090848F7012E0F8901D0EE0C398401279B0
:104F4300F1122D2C023801E0F8901D0DE0C39850AA
:104F5300EE124FABA3E054016037EA24371252F448
:104F6300C394054033EA24331252F4540570297A6A
:104F7300227B1D122E5EEE2437F582E43FF5831269
:104F830037B278081210BC7A227B1D124F9F121081
:104F9300D7EEFA12599C80AC79E880A5122E527490
:104FA3000422F0124FABE022EA2433F582E43FF50A
:104FB300832274F6120B5FE9FE2451FAE43400FBFA
:104FC3001219D6EA4B6015EE8A828B83A3A3A3A39F
:104FD300F0EA2451124FE6124FF780047A007B0067
:104FE300026715F8E43BF98A828B83A3A322126D2F
:104FF30065901DECE8F0A3E9F022024F10C082C0D7
:1050030083901D2B74B4F0A3742CF0A374E4F0A369
:10501300742CF0A374BAF0A3742CF0A374C0F0A39F
:10502300742CF0A374DEF0A3742CF0A374D2F0A359
:10503300742CF0A374CCF0A3742CF0A374EAF0A343
:10504300742CF0A374F0F0A3742CF0A374F6F0A303
:10505300742CF0A37402F0A3742DF0A374C6F0A310
:10506300742CF0A374AEF0A3742CF0A374A8F0A373
:10507300742CF0901D4774D8F0A3742CF0A374FC27
:10508300F0A3742CF0A37416F0A3742EF0A3740889
:10509300F0A3742DF0A3740EF0A3742DF0901D6B88
:1050A300E4F0901D6EF0901D571250BD7402F09005
:1050B3001D601250BD7401024A1B7426F0A3742DA7
:1050C300F0A32274F5120B5F74F112119F852182F4
:1050D3008522837402F07401121435E9F060047AB6
:1050E300FF7BFF7402121435125B5A75086375094E
:1050F3001D750A0078081210C07C0B7D007407121E
:105103001435AA82AB8312512D1210D7AA21AB22D8
:10511300122216740F800312512D1210D77F03022F
:105123000E1C7C0B7D007A637B1D1219B87403225D
:1051330074F7120B5F74FD12119F85218285228300
:10514300740AF07401121435E9F07402121435EA8A
:105153001267D40241AB74F6120B5F74F712119FFE
:10516300EAFEEBFFEA1251AB1251DB7402F0EA24C0
:1051730028FCE43FFDAA21AB22121B50EE2431127E
:1051830051B124331261D31210C47402121169791C
:10519300831A1A123D6C1210D7E9F5087007EEFA5C
:1051A300EFFB122C6602670E123974740122F5822A
:1051B300E43FF5831237DD12567BF5831251C9E8BC
:1051C300F0A3E9F0EE221251D18A828B8322E024EC
:1051D300FFF8A3E034FFF922F0A3E4F0EA123D8DD7
:1051E3002274F0120B5F126C431213AA7808790C25
:1051F3001209F878081210BC7A5A7B1D0237E5743D
:10520300F4120B5F74C612119F900B5FE0640F6082
:105213000D852182852283742E125B7980227A5137
:105223007B1D12382312090588088909E4F50AF55C
:105233000B78081210BC7A517B1D124F9F1210D7A6
:10524300743A0237FE74F5120B5FEAFEEBFF8A82B3
:10525300F583A3E0F87078EA24301252F464026014
:1052630007E06403600278E8EA2426F582E43FF568
:105273008312381C400478E88058E87052EA2426E8
:1052830012445CEE24311252E624301252F46402CA
:10529300700EEE2428126D5B900B6E124FF7801781
:1052A300900B6E74FEF0A304F0EE2428FCE43FFDA3
:1052B3007A657B0B121B5CEE241B1245AB1210C0EC
:1052C3001251251210D7EEFAEFFB122CA2E9F8E8DF
:1052D300600EE88E828F83A312657774171266219E
:1052E300025120FAE43FFB795012180EEE22EE240D
:1052F30010F582E43FF583E02274F6120B5F74F736
:1053030012119F901D6EE070377401F0F9121904A9
:10531300AA21AB22122D6875086375091D7808123E
:1053230010C475080175090078081210C4900B7435
:10533300120EEB74061211697A031238121210D787
:1053430002671074F7120B5F1255227004A374EBFB
:10535300F0901D6EE0A2E25003C2E2F0E0A2E15041
:105363000512553380098E828F83742A12662102B7
:10537300540274F4120B5F74FE12119F125428121C
:10538300566EEC8521828522831256BDE0F50B70A3
:1053930015AA21AB22795312180EEE2413FAE43F17
:1053A300FB794A12180E1245A81210C01251251289
:1053B30010D7124D9DA90B122C96901D6EE0A2E101
:1053C300500312553A901D6EE4F074020237FE74D6
:1053D300F7120B5FEAFEEBFF8A82F583A374EBF00F
:1053E300901D6EE0A2E150077A0079EB122C9CEE3F
:1053F300FAEFFB122CD28007EEFAEFFB122DD47FCB
:1054030001020E1C74F7120B5F125428901D6BE4FB
:10541300F0901D6EF07AFF7BFF8E828F83A3E0F9FD
:10542300122C9680DA1255737A5A7B1D122E5E2245
:1054330074F7120B5FEAFEEBFF122CCC80BA74F701
:10544300120B5F1255B0A3A3A3E0600474008002A3
:1054530074EB1254815003C2E2F0E0A2E150051252
:1054630055848011A2E0500D8E828F83742AF0A39D
:1054730074EB126621EEFAEFFB122C7880818E8298
:105483008F83A3F0901D6EE0A2E22274F6120B5FED
:10549300EAFEEBFF901D6EE0D2E1F07901121904F0
:1054A3008E828F83A3E07038122D6EE9FAEE240DFD
:1054B300F508E43FF50978081210C4750801750969
:1054C3000078081210C41254F4120EEBEE2402FCFE
:1054D300E43FFD1238121210D7E98E828F83A3F0B6
:1054E3008E828F83A3E060067A00F9122C9C0267F8
:1054F30015EE240BF582E43FF5832274F7120B5F5C
:105503001255227004A374EBF0901D6EE0A2E250DA
:1055130003C2E2F0E0A2E15003125533025402EA5F
:10552300FEEBFF790112190A8E828F83E064202239
:10553300C2E1F012553A227A008E828F83A3E0F9FA
:10554300122C9C2274F7120B5F1255738E828F8379
:10555300A3A3A3A3E060047400800274EB1254813C
:105563005003C2E2F0E0A2E15003125584025478E2
:10557300EAFEEBFF790112190A7A517B1D122E5EA6
:1055830022C2E1126AA5E0A2E4E433FA12553C22F6
:1055930074F7120B5F1255B074EB1254865003C2AA
:1055A300E2F0E0A2E15003125533025402EAFEEBAB
:1055B300FF790112190A8E828F83A32274F7120BCB
:1055C3005F1255D50253FB74F7120B5F1255D502C8
:1055D3005402EAFEEBFF7A517B1D122E5EEEFAEFC8
:1055E300FB122CF62274F7120B5F74EF12119FEA71
:1055F300FEEBFFEA1265637A657B0B121B4AE960D7
:10560300568521828522837409F07401121435743E
:10561300EFF012566E7402121435EC1256BDA3A3AA
:10562300E0C0E07404121435D0E01256AA64087086
:10563300158E828F83A3A3125696E0C0E0740512E1
:105643001435D0E080067405121435E41263FF7438
:105653000612143512565F74110241ADAA82AB8350
:10566300122D9EAA21AB221222162212567BF583FB
:1056730012568DFCA3E0F922EE125683FB88822298
:105683002402F8E43FF9E8FAE922124DF28882F5A0
:1056930083E0221256A52407F582E438F58322908D
:1056A3001D10124DF2C8221256AE221256B3E0223A
:1056B300F08E828F83A3A3A3A32212668F1256C4F4
:1056C300221256C822E0F8A3E0F5838882A3A3221E
:1056D300C082C083122DE0024F17C082C083901D89
:1056E3008B742BF0A3741DF0A37447F0A3741DF007
:1056F300901EF07444F0A37434F0A37480F0A37488
:1057030033F0901D777490F0A3742CF0901D74E027
:105713004401024A1BC082C083EAFCEBFD790212FA
:105723002D44024F1774F6120B5F74FE12119F90F3
:105733001D7012577660077A707B1D122D5C901DC9
:1057430076E4F090121A12577660208007AA21ABF4
:1057530022122D5C901D6FE0F91219EE8B09A90935
:105763008521828522831243CE70E274020267127E
:10577300901D10126D65E8492274F7120B5FE9FA68
:105783007B00901D6FE0F9121A1802540274F7128D
:105793000B5F74F012119FEAFCEBFDE9FE8A828B2A
:1057A30083E0F8744B1258AB3437F583E493C0E0CD
:1057B3007401121435D0E0F0640B700DE98A828B0A
:1057C30083A3F0122DC20258A6E070030258A66408
:1057D3000C6003025897741A6E700B74041214351C
:1057E300E4F0A30258967404121435125B5AEA24A7
:1057F30032126063C0E07403121435D0E0126A9071
:105803001213FA74061214351214068C828D83A3B4
:10581300A3A3A3A3A3A3A3A3126D61740A121435B4
:10582300E8F0A3E91258B0E054106009852182859D
:105833002283E48013EC2412126063F8900B81E05E
:10584300C398852182852283F0E0C0E0740C121492
:1058530035D0E0F0EC2415126063C0E0740D12142F
:1058630035D0E0F0EC2416126063C0E0740E12141D
:1058730035D0E0F0EC2417126063C0E0740F12140B
:1058830035D0E01258B0A3E054016008740112143B
:10589300357411F07402121435EEF07401121161B3
:1058A30012221674100241AD28F582E422F0EC12A4
:1058B30058B93DF58322240EF582E422C082C083C9
:1058C300901D76E064037004790180027900024F31
:1058D3001774F7120B5F901D76E012594F74EE2880
:1058E300F582741E39F583125DE1C2E7F012595651
:1058F300A3E493FE25E0FCE433FD74EE2CF58274FF
:105903001E3D12616DEC4D6005EE901D76F08A82AE
:105913008B83E025E0FCE433FDE82CF582E93DF5DB
:1059230083E493FCC4540F25E0F874851258AB3418
:105933001DF5831257767005122DB0800CEC540FB1
:10594300125956124E6F120D2E02540225E0F8E43E
:1059530033F92225E0FCE82CF582E439F58322743F
:10596300F2120B5F74FE12119F890B8A088B0912C6
:105973005A011259F2601A12640CF50A78081210CF
:10598300C0125A0E24021261631210D712599A8060
:1059930003125A20023DFDAA0CEFFB901D6FE0F9A4
:1059A3001219E22274F0120B5F74FE12119F890B1D
:1059B3008A0E8B0F125A01F5081259F260271264EE
:1059C3000CA808EA281246F0850E08850F09F50A87
:1059D30078081210C0125A0E1261611210D71259B0
:1059E3009A79008005125A20791A74020237EAFA6A
:1059F3007B001219D68A0C8B0DAF0DEA4F2274145B
:105A030029F582E43437F583E49322A80B74351225
:105A130058AB3437F583E493FC7D00EA2285218279
:105A2300852283E50BF0791AAA21AB22122D2C22B1
:105A3300C082C083E9901D6F024A1B74F6120B5F8C
:105A430074FE12119FEAFEEBFFEA54207030803996
:105A5300A8A8C2AF901D0FE0141249488A828B8315
:105A6300125B47901D72125B5A122D388521828575
:105A73002283E0641560077A727B1D122D5C7A091C
:105A83007B1D121A00EA4B70C7EF5480700C80160E
:105A9300901D72EAF0A3EB125B6D901D6FE0F9129B
:105AA30019EEEA4B70EAEE5410600B8521828522D1
:105AB30083742D125B79EEA2E0500B85218285223F
:105AC300837424125B79EE5402600B852182852254
:105AD300837425125B79EE5404600B852182852241
:105AE300837426125B79EE5408600B85218285222C
:105AF300837428125B79EE5440600D7401121435DF
:105B0300125B60742C125B79EE5480600D74011289
:105B13001435125B60742F125B79901D70125776E7
:105B2300601BA8A8C2AF901D70124DA3901D70E416
