:020000040000FA
:060000000210B40205F934
:03001B000206B525
:03002B00020E645E
:03004300020D3279
:0300530002052E75
:0300730002070A77
:1000830002058D0100F0FF0700080000FFFF0000DC
:100093000704000000030001FF32102700000020C6
:1000A300FD000206FFFF1EB0190000000000000063
:1000B30000000000000000E80300000000E8030067
:1000C3000000000F0000000F0000000104010C00FD
:1000D3000202CB8401F58401040000C01A00000071
:1000E300E8030000FFFF1D1B0188130000E8030065
:1000F3000064006400B801A0BB0D00A0BB0D0002AA
:10010300020207040101071E02051E020A0A010179
:10011300010809080103B80B02803E0102FEFFE853
:10012300030A050001FFFF010A011401E0020000B8
:100133000001050301010F10FEFF0300030003008C
:1001430003000300030003000300030005000A008B
:10015300140028004F009E00000042300000000001
:10016300B42E00000000FF000000FF001211006029
:10017300461210C4603DE9687008F618F618F618C0
:10018300F622748067F71201A3090909748067F7DF
:10019300221210C4601D1211007005191919801A5A
:1001A300120F9D701F120FB1C37003E66733191945
:1001B3001940071818182208080874FFF618F618CB
:1001C300F618F622120FB16017121161702192F026
:1001D3001211737019501720F0140808080909093F
:1001E300E7F61819E7F61819E7F61819E7F62212D1
:1001F300117360E6E869701F0808E62480F608E4D6
:1002030036F618547FB47F0CE654806007F6E41882
:10021300F618F622181822E9C6CC08C6CD08C6CEB1
:1002230008C6CFC0E0E8C0E0EAC0E0EBC0E009E9FF
:10023300F809E7FA09E7FBE6F918E6F8C3EC98EDE5
:1002430099EE9AEBC2E7F5F0EFC2E795F0500E6036
:100253000CEBCFFBEACEFAE9CDF9E8CCF8EAA2E75A
:10026300D2E7FAEB33FB13F5F0EEA2E7D2E7FEEFAA
:1002730033FFC5F013A2E730E601B313C5F0C3C0E3
:10028300E0C0F07F00C39BFB605E9418600F401DCD
:1002930014601AD0E023F9D0E0F80203758AF0E97C
:1002A300486003D2F0E4AFF0FAF9F8803BEB30E4B6
:1002B3000D89F0EA6003D2F0E4AFF0F9CAF8EB304D
:1002C300E30D88F0EF6002D2F0AFF0E4CAC9F8EBB7
:1002D30054076014FBC3EA13FAE913F9E813F8EFC0
:1002E300135002D2E0FFDBEDD0E0C0E030E739C3CA
:1002F300E49FFFF5F0EC98FC42F0ED99FD42F0EE3F
:100303009AFE42F0D0E0F9D0E0F8E5F0607AE92314
:10031300F9EE20E742D8028067C3EF33FFEC33FCEA
:10032300ED33FDEE33FE80EAEC28FCED39FDEE3AC9
:10033300FED0E023F9D0E0F84002801BC3EE13FEA9
:10034300ED13FDEC13FCEF135002D2E0FF08B800ED
:10035300067F7F74FF802EEF3350178CF020F0025E
:1003630060100CBC000C0DBD00080EBE000408E8B4
:1003730060DFE933E813FFEE2313FE4F4D4C800893
:10038300E95480FFE4FEFDFCEE33EF33F47004FC2C
:10039300FD7E80D0E0FBD0E0FAD0E0F8D0E0CFC61D
:1003A30018CEC618CDC618CCC6F922001210C460E8
:1003B3004F1211006012E7548066F6120F9D701100
:1003C300121161703B090909F4F618F618F618F6CC
:1003D30022120FB1701512117308080860EAE6447F
:1003E3007FF618768018E4F618F622121173601659
:1003F3001211617012E4F608F608F608E65480F666
:1004030009090918181822EAC0E0EBC0E0ECC0E0C3
:10041300EDC0E0E687F0A4FBACF008E687F0A42C7F
:10042300FCE435F0FA1809E687F0A42C4B6002745B
:1004330001CA35F0FCE433FB09E687F0D2F7A42CBC
:10044300CB35F0FC1908E687F0A42BCC35F0FBE4A0
:1004530033FD0819E687F0D2E7A42C4ACB35F0CD5B
:100463003400FC09E687F0D2E7A42DCC35F0FDE497
:1004730033FA0918E687F0D2F7A42CCD35F0CA3445
:1004830000FC08E687F0D2E7D2F7A42ACC35F07A4D
:100493007E20E70B0ACB33CBCD33CDCC33CC33CB60
:1004A3003350147004ED30E00ED2F1E4CD3DCDCCE9
:1004B3003CCC3B5005DA05C2F1EB547FC63308E66A
:1004C3003392F0FBE73309E733C39A502D2B7019AE
:1004D3000C0D4C4D70151806E608C333700D20F152
:1004E3000AA2F013F6E418800B4024E4F630F0027D
:1004F300768018F618F618F68024D33B145010743F
:10050300FFA2F013F6187680E418F618F6800FA20F
:10051300F013F618E63303F618ECF618EDF6D0E010
:10052300FDD0E0FCD0E0FBD0E0FA22C0E074F11291
:1005330009BCA2AFE433F509D2AF85A708AFA1EF99
:100543005508FE74105E600612142875A1EF740836
:100553005E600812142E75A1F78024EFA2E092F0DA
:10056300E508A2E082F05017906198E0F8900B46FE
:10057300E0C398A2D265D0335002E8F075A1FEE53E
:1005830009A2E092AF7F02020A1BC0E074F21209D3
:10059300BCA2AFE433FED2AF9061A4E0F8759B0038
:1005A300E59158540860087591F712147C8023E58F
:1005B3009158541060087591EF1214828014E591DC
:1005C300A2E092F0E8A2E082F05007E0C2E0F0126D
:1005D30015D89061A3E0F8E5E9585404600E1215AC
:1005E300AE75E9FB906193E0A2E640F2EEA2E092E1
:1005F300AF7F01020A1BC0E074F21209BCA2AFE490
:1006030033FED2AF9061A5E0F8E5BF58540460060D
:1006130075BFFB1215F080D4C3E498F8E499F9127E
:10062300065C8026C3E49AFAE49BFBE920E7E9121F
:10063300065CE498F8E499F922C3E498F8E499F99C
:1006430012065CE498F8E499F9C3E49AFAE49BFB94
:1006530022EB20E7CFE920E7E0B90010BB0008E870
:100663008AF084F8AAF022E4FBC8FA22EB70227B1A
:1006730010C833C8C933C9335007C39AC3DBF280E8
:10068300069A50012ADBEAC833F4C8C933F4C9FA1D
:100693002275F008E4C833C8C933C933C99AC99B62
:1006A3005004C92AC93BD5F0ECFBC833F4C8E4C9EC
:1006B300FA22C0E0C0D0E8C0E0E9C0E0C082C08355
:1006C300A8F9E8C0E0900AB3E0F8743228F582E4B0
:1006D300340AF583D0E0F0900AB2E0F8A3E0687042
:1006E30006E595900AB5F0900AB3E004F0C3948050
:1006F3004002E4F0A374C6F0D083D082D0E0F9D0F6
:10070300E0F8D0D0D0E032C0E0C0D0E8C0E0E9C02B
:10071300E0C082C083900B36E0F8A3E06870085312
:100723009AF7A374018022C2EA900B36E0F87401B1
:1007330028F074B628F582E4340AF583E0F5F990DD
:100743000B36E0C394804002E4F080AC12079A3089
:10075300F0391207DF803412079A20F01430E72BA8
:1007630074FFFCFBFA747F8022E4FCFBFA74808044
:100773001AB48008BC00F2BB00EF800F50EBF9E421
:10078300C39AFAE49BFBE49CFCE499C6CC18C6CB61
:1007930018C6CA18C6F922E4C9C608CAC608CBC611
:1007A300D3330308CCC63392F0C3947F402E9418FE
:1007B3004019C9B90704CACBCC225025C309CA338F
:1007C300CACB33CBCC33CC33D9F422F4600DC9CCB0
:1007D300C313CB13CBCA13CAD9F6CC22E4FCFBFA5E
:1007E3002214FCFBFA22080808EAC0E0EBC0E0860A
:1007F300F0E7A4FA180986F0E7A42AFA180986F0A4
:10080300E7A42AFA180986F0E7A42AFA1986F0E77A
:10081300A4FBE5F02AFA190886F0E7A42BFBE5F020
:100823003AFA190886F0E7A42BFBE5F03AFA181810
:100833000986F0E7A4C5F02BFBE43AFA1908E7C5EB
:10084300F0C6A426F6E5F03BFBE43AFA1886F0E797
:10085300A4F6E5F00826F6E43B08F6E43A08F6D0F9
:10086300E0FBD0E0FA22080808E630E711120F6136
:10087300120881080808C64480C6181818221818D8
:1008830018E9799EC608CAC608CBC608CCC6C37089
:10089300207996CACBCC7019798ECBCC701379861C
:1008A300CC700EF9802ACA33CACB33CBCC33CC33CA
:1008B3001930E7F2CCCBCA3350147004EA30E00DA0
:1008C300E4CA3ACACB3BCBCC3CCC500209C3E913B4
:1008D300C6CC182313C6CB18C6CA18C6F922E4CF50
:1008E300C0E0E4CEC0E0E4CDC0E0E4CCC0E075F00D
:1008F30020E626F608E633F608E633F608E633F68E
:10090300181818EC33FCED33FDEE33FEEF33FFC361
:10091300EC9709ED9709EE9709EF97191919400F0D
:10092300FFEC97FC09ED97FD09EE97FE191906D523
:10093300F0BFECF709EDF709EEF709EFF71919190D
:10094300D0E0FCD0E0FDD0E0FED0E0FF222521C5C1
:1009530082C0E0E52234FFC583C0E0E521C3958270
:1009630024F810AF0885832285822180088583229D
:10097300858221D2AFCEF0A3E520F0A37808E60864
:10098300F0A3DEFAEFF0A3E58124FAF8E608F0A37A
:10099300E608F0A3E608F0A30808E608F0A3E608D3
:1009A300F0A315811581D0E0FED0E0F81581158103
:1009B3001581E8C0E0EEC0E022C0D02521C582C089
:1009C300E0E52234FFC583C0E0E521C3958224F32B
:1009D30010AF088583228582218008858322858242
:1009E30021D2AFC8F0A3E9F0A3EAF0A3EBF0A37917
:1009F30008E709F0A3D8FAECF0A3EDF0A3EEF0A317
:100A0300EFF0A3D0E0F0A3D0E0F0A3D0E0F0A3E5B3
:100A130020F0A3E5F0F0A322852283852182E0C0A4
:100A2300E0A3E0F9A3E0FAA3E0FBA37808E0F6086B
:100A3300A3DFFAE0FCA3E0FDA3E0FEA3E0FFA3E055
:100A4300C0E0A3E0C0E0A3E0F5D0A3E0F520A3E07D
:100A5300A3F5F010AF088583228582218008858362
:100A630022858221D2AFD082D083D0E0F8D0E03289
:100A730012114CB90003020AB2E490050178167909
:100A83001A8002F0A3D8FCD9FA7A167B1E9000864E
:100A930078EA79018015E493A3AD82AE838A828BD1
:100AA30083F0A3AA82AB838D828E83D8E9D9E775BD
:100AB300822D7583FC7405120DF575821C75832CCC
:100AC3007400120DF575F0108E238F24858228850E
:100AD3008327852182852283E0CEA3E0CF852882E8
:100AE300852783EBC9EAC8EDCBECCAC3E833C8E971
:100AF30033C9EA33CAEB33CBC3EA9EF526EB9FF542
:100B030025B35004AB25AA26EC33CCED33CDD5F079
:100B1300DAAE23AF24221210C4601C121100601736
:100B230012117370071211617001D322C0D0121118
:100B3300617006D0D0B322C32233D0D0501430E03A
:100B4300F6C3E7960809E7960809E7960809E796C2
:100B5300B32220E0D5E6970809E6970809E6970847
:100B630009E697B322D083D082ECC0E0EDC0E0E485
:100B730093A3FCE493A3FDED4C600D120C40EC2415
:100B8300FFFCED34FFFD80EFE493A3FCE493A3FDAE
:100B9300ED4C600D120CDDEC24FFFCED34FFFD8009
:100BA300EFD0E0FDD0E0FCE493A3C0E0E493C0E029
:100BB30022D083D082E9C0E0E493A3C386F0C5F0DA
:100BC30095F0F908E493A386F0C5F095F0700BE473
:100BD30093A3C3994005E9048002A3E475F002A43A
:100BE3002582F582E5F03583F583D0E0F9E493A31C
:100BF300C0E0E493C0E022852283852182E0A3FE46
:100C0300E0A3F5207808E0A3F608DFFAE0A3FFE00D
:100C1300A3C0E0E0A3C0E0E0A3C0E0E0A3C0E0E045
:100C2300A3C0E010AF0885822185832280088582D6
:100C330021858322D2AFD083D082020DFBC0E0C3D3
:100C4300E49396087401939618400FE49366700832
:100C530008740193661870007019A3A3C3E49396F4
:100C6300087401939618A3A3400DD0E0D0E0D0E020
:100C7300020BA4A3A3A3A3A3A3D0E0227404800420
:100C830074028000CCC0E0EDC0E0E521C39CCCAD94
:100C93002250011D10AF068C218D2280068C218DE0
:100CA30022D2AF120D77D0E0FDD0E0FC2274028097
:100CB30000CCC0E0EDC0E0E521C39CCCAD225001E7
:100CC3001D10AF068C218D2280068C218D22D2AF80
:100CD300120D55D0E0FDD0E0FC22C0E0C0F088F05A
:100CE300E4936670080874019366187000A8F0A373
:100CF300A3700BD0F0D0E0D0E0D0E0020BA4A3A30C
:100D0300D0F0D0E022D083D082CCC0E0E493A360C3
:100D130006120D981470FAE493A36006120EF714EA
:100D230070FAD0E0FCE493A3C0E0E493C0E022C0F7
:100D3300E074F21209BCA2AFE433FED2AFC2C0E545
:100D4300D1A2E4500312138CEEA2E092AF7F010212
:100D53000A1BCAC0E0E493A3C582CCC582C583CD78
:100D6300C583F0A3C582CCC582C583CDC583DAE52F
:100D7300D0E0CA22CAC0E0E0A3C582CCC582C58345
:100D8300CDC583F0A3C582CCC582C583CDC583DA27
:100D9300E6D0E0CA22C0E0E493A3D39C5010E493CE
:100DA300A3C39C400AD0E0D0E0D0E0020D25A3A36A
:100DB300A3D0E022C008C3E096F50808A3E096425A
:100DC3000808A3E096420808A3E09645087001D3FB
:100DD300D008227009080808226016181818C6C31C
:100DE30033C608C633C608C633C608C633C6D5E0FD
:100DF300EA22C09FF59FE473D09F22D083D082C0A4
:100E03009FE493C0E0740193C0E0740293F59F22C2
:100E13007404800A74038006740280027401C0E0C3
:100E2300F404120E49D0E012110F2200C0D0252184
:100E330010AF08F521500C05228008F5215002055A
:100E430022D2AFD0D0222521F58210AF08F5214060
:100E53000C15228008F52140021522D2AF8522838A
:100E630022C0E0C0D0E8C0E0A8A8D2AFC2C7E8A2C1
:100E7300E792AFD0E0F8D0D0D0E032BB0102E72256
:100E8300C082C08389828A83BB0003E08002E4932B
:100E9300D083D082226016080808C6C313C618C6BA
:100EA30013C618C613C618C613C6D5E0EA22C3E094
:100EB300C696F608A3E0C696F608A3E0C696F6081B
:100EC300A3E0C696F6222521F8E43522F92225214E
:100ED300FAE43522FB222521FCE43522FD222521DB
:100EE30010AF08F521400C15228008F521400215AA
:100EF30022D2AF22C0E0E493A36C7009D0E0D0E02B
:100F0300D0E0020D25A3A3D0E022C3E09608A3E01E
:100F13009608A3E09608A3E096A2D265D03322E711
:100F23006670100809E766700A0809E76670040826
:100F330009E76622C3E7960809E7960809E79608D2
:100F430009E796A2D265D03322E066701008A3E0C9
:100F530066700A08A3E066700408A3E06622181806
:100F630018E4C396F608E496F608E496F608E496C1
:100F7300F622C3E096F008A3E096F008A3E096F00B
:100F830008A3E096F022C3E697F60809E697F60869
:100F930009E697F60809E697F622181818E60846B0
:100FA300087009E626087005E633F42208221919A9
:100FB30019E70947097009E727097005E733F422A0
:100FC3000922C3E4939608740193960874029396D6
:100FD300087403939622E627F60809E637F608090C
:100FE300E637F60809E637F622700422600D18C6C4
:100FF300C333C608C633C6D5E0F41822E657F6084D
:1010030009E657F60809E657F60809E657F622E017
:1010130026F608A3E036F608A3E036F608A3E03682
:10102300F622E026F008A3E036F008A3E036F00845
:10103300A3E036F022E056F608A3E056F608A3E054
:1010430056F608A3E056F622E493F608740193F6E5
:1010530008740293F608740393F622E647F6080928
:10106300E647F60809E647F60809E647F622E0569A
:10107300F008A3E056F008A3E056F008A3E056F00A
:1010830022C6F4C608C6F4C608C6F4C608C6F4C623
:1010930022C3E09608A3E09608A3E09608A3E0968F
:1010A30022C3E7960809E7960809E7960809E79631
:1010B3002275D00075813F75210175220500020A52
:1010C30073E6084608C3134608336002E633F42286
:1010D300600C08C6C313C618C613C6D5E0F422E0D5
:1010E300F608A3E0F608A3E0F608A3E0F622E6F08C
:1010F30008A3E6F008A3E6F008A3E6F022E7094711
:1011030009C3134709336002E733F422CAC0E0E698
:10111300F0A308DAFAD0E0FA22E8F0A3E9F0A3EAB0
:10112300F0A3EBF022E0FAA3E0FBA3E0FCA3E0FDD5
:1011330022EAF0A3EBF0A3ECF0A3EDF022E0F8A396
:10114300E0F9A3E0FAA3E0FB22E5C754F84401F574
:10115300C77901222521F582E43522F58322E72789
:1011630019471947194722C2AF75D69F02000022BB
:10117300E62618461846184622120DFE3BDD0312DA
:101183000DFEE7DD03120DFE17DE03120DFE77DE03
:1011930003120DFE0BDF03120DFEBCDF03120DFE67
:1011A3000DE003120DFE51E003120DFEEBE00312FE
:1011B3000DFE5BE103120DFE8AE103120DFE90E2C8
:1011C30003120DFEBAE203120DFE0EE303120DFE2F
:1011D300E2E303120DFE10E603120DFEBEE6031258
:1011E3000DFE2BE903120DFEB0E903120DFEB3EC65
:1011F30003120DFEE7EE03120DFE23EF03120DFEA5
:101203007CF003120DFE8FF003120DFECCF00312DF
:101213000DFE95F203120DFEBB6D00120DFE376E2F
:1012230000120DFE6A6E00120DFE986E00120DFE86
:10123300D66E00120DFE137100120DFE32710012F4
:101243000DFE777100120DFE0D7200120DFE597224
:1012530000120DFEED7200120DFEC67300120DFE9C
:10126300227400120DFE807400120DFEF37400123E
:101273000DFE377500120DFE8F7500120DFEB17550
:1012830000120DFE417600120DFED27600120DFE05
:101293001E7700120DFE4A7700120DFE8B770012A7
:1012A3000DFE217900120DFE0D7A00120DFEE87A73
:1012B30000120DFEEFEF05120DFE22F005120DFEDA
:1012C30042F005120DFE69F005120DFE96F10512AE
:1012D3000DFEB7F105120DFE62F205120DFEC48775
:1012E30006120DFEC98706120DFEFC8706120DFEBF
:1012F30031FA05120DFEF8FA05120DFE0AFB05126E
:101303000DFE948806120DFEA58806120DFEBF88F9
:1013130006120DFEFA7F00120DFEE8FF03120DFE0A
:1013230079FF01120DFE89FF01120DFE9EFF0112CE
:101333000DFEE7FF01120DFED28306120DFE568449
:1013430006120DFEBE8406120DFE4C8906120DFE1A
:1013530035E605120DFE43E605120DFEBCE6051249
:101363000DFE95E705120DFE58E905120DFECE8818
:1013730006120DFE28CB05120DFE94CB05120DFEB1
:1013830037CC05120DFEACCD05120DFE13CE0512A2
:101393000DFE60CE05120DFEB9CE05120DFE3DCF3A
:1013A30005120DFE72CF05120DFE90CF05120DFE34
:1013B30016D005120DFE99D005120DFEA6D005120A
:1013C3000DFEC5D005120DFEF1D005120DFE5BD347
:1013D30005120DFE9BD305120DFED7D305120DFE8C
:1013E300EBD305120DFE04D405120DFEF6D405123F
:1013F3000DFEA9D505120DFEBDD505120DFE00800B
:1014030006120DFE248006120DFE3D8006120DFE0F
:101413007B8006120DFEAB8006120DFED8800612ED
:101423000DFE3E8106120DFE418106120DFE4B811B
:1014330006120DFE588106120DFEF8F205120DFE7E
:1014430018F305120DFE57F305120DFE75F3051281
:101453000DFE90F305120DFEF6F305120DFE02F4D8
:1014630005120DFE5FF405120DFE6EF405120DFE5E
:1014730092F405120DFE53F505120DFE60F50512EB
:101483000DFE71F505120DFE7AFF04120DFEC2FF6B
:1014930004120DFEEEFF04120DFECBDA05120DFE53
:1014A3001FDC05120DFE2DDC05120DFE40DC0512BE
:1014B3000DFE55DC05120DFE6ADC05120DFE7DDC0A
:1014C30005120DFEF9DC05120DFE5EDD05120DFEA3
:1014D300F4DD05120DFECDDE05120DFEDDDE051277
:1014E3000DFEECDE05120DFECC8606120DFEF08617
:1014F30006120DFE188706120DFE408706120DFE1A
:101503009FF505120DFEC6F505120DFEE4F5051255
:101513000DFE53F605120DFEE8EC05120DFE01ED6E
:1015230005120DFE0DED05120DFE21ED05120DFE4A
:101533003FED05120DFE49ED05120DFE53ED0512AB
:101543000DFE66ED05120DFEF0ED05120DFE65EEC6
:1015530005120DFE99EE05120DFEE7EE05120DFEC6
:1015630034EF05120DFE4FEF05120DFE59EF051274
:101573000DFE7FEF05120DFEE4EF05120DFE38FFA1
:1015830003120DFE5AFF03120DFE328906120DFEE1
:1015930042B105120DFE6EB105120DFE8BB105129F
:1015A3000DFE9EB105120DFEB9B105120DFE13B26B
:1015B30005120DFE41B205120DFE55B605120DFEC4
:1015C300B3B705120DFEE5B705120DFE48B80512B7
:1015D3000DFECDB905120DFEF5B905120DFE0ABAC1
:1015E30005120DFE1ABA05120DFE5ABA05120DFEAA
:1015F3009CBA05120DFEACBA05120DFEA2820612AC
:101603000DFEBC8206120DFEE48206120DFEFD8263
:1016130006120DFE218306120DFE3F8306120DFEF8
:10162300568306120DFE848306120DFE9F83061257
:101633000DFE508806120DFEACE205120DFEBCE253
:1016430005120DFEC1E305120DFEF3E305120DFEB7
:1016530023E405120DFE46E405120DFE5DE40512BA
:101663000DFE97E405120DFEFCE405120DFE3EE5AA
:1016730005120DFE85E505120DFEB2E505120DFE00
:10168300DDE505120DFE1BFE05120DFE3BFE0512E8
:101693000DFE4FFF05120DFE52FF05120DFED785FD
:1016A30006120DFE0D8606120DFE258606120DFE90
:1016B300678606120DFE778606120DFEBB8606129E
:1016C3000DFE36C405120DFE79C405120DFEDEC4EF
:1016D30005120DFEFDC405120DFE9FC505120DFE7C
:1016E300A8C505120DFEF9C505120DFE22C6051289
:1016F3000DFE2FC605120DFEA1C605120DFE2FC746
:1017030005120DFE74C705120DFEADC705120DFEC1
:1017130012C805120DFE3BC805120DFEB2C8051214
:101723000DFE01C905120DFE3EC905120DFE73C95A
:1017330005120DFE85C905120DFE97C905120DFE92
:10174300B6C905120DFEBFC905120DFE7BCA0512EF
:101753000DFEBECA05120DFEFCCA05120DFEA1FF49
:1017630002120DFE628106120DFEF4F705120DFE44
:1017730029F805120DFE71F805120DFECAF90512BE
:101783000DFE008005120DFE268105120DFE6281FD
:1017930005120DFE208305120DFE4E8305120DFE6C
:1017A300B88505120DFEF88505120DFE9A87051200
:1017B3000DFE308805120DFE8A8805120DFE1A896A
:1017C30005120DFE5E8905120DFEA08905120DFEA0
:1017D300058B05120DFE858C05120DFEC68E0512B6
:1017E3000DFEF48E05120DFE208F05120DFE298FBE
:1017F30005120DFE868F05120DFE1F9005120DFEBC
:10180300369305120DFEBC9305120DFE7FFF0512E4
:101813000DFE95FF05120DFE9FFF05120DFE9CFBAD
:1018230002120DFEB2FB02120DFE56FC02120DFE59
:1018330095FC02120DFEB2FC02120DFEE3FC021235
:101843000DFE30FD02120DFE64FD02120DFE9FFD22
:1018530002120DFE94FF02120DFED78406120DFE36
:10186300368506120DFE748506120DFEB585061229
:101873000DFE008004120DFE0C8004120DFE6E801E
:1018830004120DFE788004120DFE078104120DFE72
:10189300438104120DFE3A8204120DFE9782041254
:1018A3000DFE258304120DFE768304120DFEF683CE
:1018B30004120DFEB88504120DFEBD8704120DFE41
:1018C300B78804120DFEE98904120DFE3B8C041245
:1018D3000DFE7E8D04120DFE238E04120DFED69294
:1018E30004120DFECC9304120DFE629404120DFE3D
:1018F300879404120DFE249504120DFE41950412E3
:101903000DFE619504120DFECF9504120DFEEC95AC
:1019130004120DFE1A9604120DFEB29704120DFE68
:10192300D39704120DFE799804120DFEC198041288
:101933000DFE1F9904120DFEC29904120DFE279A83
:1019430004120DFE869A04120DFE3C9B04120DFE3A
:10195300AB9B04120DFEE69B04120DFE5A9C04126F
:101963000DFEBB9D04120DFE529E04120DFEF19E50
:1019730004120DFE4DA104120DFEAFA104120DFEC3
:101983003CA304120DFE6AA304120DFE8DA50412DE
:101993000DFE37A804120DFE4AA904120DFEDCBA8F
:1019A30005120DFEF5BB05120DFE78BD05120DFEE9
:1019B30092BD05120DFEA5BD05120DFEC4BD051297
:1019C3000DFE8DBE05120DFEF2BF05120DFED2C037
:1019D30005120DFE3CC105120DFE07C305120DFED7
:1019E3001DDF05120DFED8DF05120DFE3EE00512C8
:1019F3000DFE5FE005120DFE3AE105120DFE2EC944
:101A030004120DFE5DC904120DFEE1C904120DFEA0
:101A130044CB04120DFE2ECC04120DFEEACD0412AB
:101A23000DFE0FCE04120DFE61CE04120DFEF3CE99
:101A330004120DFE3FCF04120DFE52CF04120DFE11
:101A4300AFCF04120DFE7CD004120DFEEED00412B3
:101A53000DFE25D104120DFE6ED104120DFE16D318
:101A630004120DFEF5D304120DFE43D504120DFE30
:101A730026D604120DFEB2D604120DFEEBD60412C6
:101A83000DFE0AD704120DFE55D704120DFE75D7AD
:101A930004120DFE32D804120DFE55D904120DFEA8
:101AA300B0D904120DFEF6D904120DFEFEDA0412AB
:101AB3000DFE99DD04120DFEBFDD04120DFE3ADEAC
:101AC30004120DFE5FDE04120DFED3DE04120DFEC2
:101AD300B1DF04120DFEEFDF04120DFE79E00412F4
:101AE3000DFE60E104120DFE63E104120DFE6DE1D3
:101AF30004120DFE77E104120DFE93E104120DFEB4
:101B030005E204120DFE3EE204120DFE6AE2041227
:101B13000DFE91E204120DFEB5E204120DFEF0E299
:101B230004120DFE63E304120DFE97E304120DFE8F
:101B3300A1E304120DFEDDE304120DFE12E4041210
:101B43000DFE31E404120DFE0A8806120DFE2288F2
:101B530006120DFEFD7F00120DFE5FAD04120DFE99
:101B630082AD04120DFEE0AE04120DFE29AF041285
:101B73000DFE95AF04120DFEF3AF04120DFEF6AF8A
:101B830004120DFE47B004120DFEBCB004120DFE8C
:101B93004CB104120DFE4FB104120DFED0B104126C
:101BA3000DFE11B204120DFE36B604120DFEE0B79F
:101BB30004120DFE34B804120DFEC3BB04120DFE55
:101BC300FBBC04120DFECFBD04120DFE39BE041280
:101BD3000DFE63BE04120DFE1CC004120DFEFFC1F8
:101BE30004120DFEAEC204120DFE4BC304120DFE11
:101BF30036C404120DFE9EC604120DFEF8C704126D
:101C03000DFE66C804120DFE1B9405120DFEC5944D
:101C130005120DFE309505120DFE4B9505120DFEB6
:101C2300CC9505120DFE269605120DFE6D96051236
:101C33000DFECC9605120DFEDE9705120DFE079BD9
:101C430005120DFE379C05120DFEBF9C05120DFEFD
:101C5300C89E05120DFE7A9F05120DFE14A00512F3
:101C63000DFEE5A005120DFEA0A205120DFE3EA479
:101C730005120DFECBA405120DFEF1A505120DFEF6
:101C830004D902120DFE67D902120DFEAFD902125A
:101C93000DFEF3D902120DFE4EDA02120DFEABDA7F
:101CA30002120DFEE6DA02120DFE68DB02120DFED1
:101CB300C2DB02120DFE40DD02120DFEB8DD021280
:101CC3000DFED5DE02120DFEFDDE02120DFE50E00A
:101CD30002120DFE61E002120DFE79E002120DFE0A
:101CE30082E102120DFE5FE202120DFE5CE30212BC
:101CF3000DFE80E302120DFE97E302120DFEB8E320
:101D030002120DFEDAE302120DFEF9E302120DFEDA
:101D1300D1E402120DFE2BE502120DFEC2E7021200
:101D23000DFE1BE802120DFE3AE802120DFE2AE92F
:101D330002120DFE60E902120DFE93EA02120DFE7D
:101D430012EB02120DFE4EEB02120DFE88EB021295
:101D53000DFEF7EB02120DFEACEC02120DFE84EE4B
:101D630002120DFE91EF02120DFE09F102120DFE99
:101D7300FFF202120DFE75F502120DFE4FF702126D
:101D83000DFE10F802120DFE88F802120DFE9FF8E8
:101D930002120DFE96F902120DFE8AFA02120DFED0
:101DA300F9FA02120DFE9DE905120DFE4DEB051227
:101DB3000DFE0CEC05120DFE74EC05120DFE95FBE9
:101DC30004120DFEB3FB04120DFEF7FB04120DFE0D
:101DD3001DFC04120DFE44FC04120DFE5CFC0412F7
:101DE3000DFE74FC04120DFE16FD04120DFEA5ADCE
:101DF30005120DFE7BFE04120DFE84FE04120DFE81
:101E03008DFE04120DFE96FE04120DFED4DA0312AB
:101E13000DFEC1FE04120DFED1D505120DFE0FDA23
:101E230005120DFE1DDA05120DFE22DA05120DFE56
:101E3300A8FC05120DFE068906120DFE6587061223
:101E43000DFE758706120DFEC27B00120DFE00808B
:101E530002120DFE328002120DFE9E8002120DFE52
:101E6300398102120DFE4DD603120DFE1D820212A0
:101E73000DFE3F8202120DFE588202120DFE7E827B
:101E830002120DFEA08202120DFEDE8202120DFE70
:101E9300228302120DFE448302120DFEA683021258
:101EA3000DFE6D8402120DFE248502120DFE968531
:101EB30002120DFE688602120DFEB28602120DFE9C
:101EC300058702120DFE6B8702120DFEA587021213
:101ED3000DFEF78702120DFE138802120DFE3E88D7
:101EE30002120DFE458A02120DFE998B02120DFE9F
:101EF300BB8B02120DFEEF8B02120DFE108C021231
:101F03000DFE1F8C02120DFE2A8C02120DFEDA8CBE
:101F130002120DFE438D02120DFEF08D02120DFE14
:101F2300288E02120DFEEE8E02120DFEFB8F0212A0
:101F33000DFE459002120DFED49002120DFE389153
:101F430002120DFE739102120DFEDF9302120DFEBB
:101F5300339502120DFE6C9802120DFE399902128E
:101F63000DFEC79902120DFEF09902120DFE629A40
:101F730002120DFEF69A02120DFE549B02120DFE82
:101F8300469C02120DFE689C02120DFEC49D0212B5
:101F93000DFEDD9D02120DFEF09D02120DFE5F9EF1
:101FA30002120DFE6B9F02120DFE789F02120DFEB0
:101FB300819F02120DFE59A102120DFE7FA2021291
:101FC3000DFE8FA202120DFE91A302120DFE08A4B4
:101FD30002120DFE37A402120DFE4CA502120DFED5
:101FE30018A702120DFEF0AA02120DFEFAAA02129F
:101FF3000DFE0EAB02120DFE18AB02120DFE22AB4C
:1020030002120DFE2CAB02120DFE45AB02120DFEA9
:102013004FAB02120DFEC3AB02120DFECEAB02128A
:102023000DFEF3AB02120DFEFEAB02120DFE4CAC25
:1020330002120DFE56AC02120DFE61AC02120DFE31
:1020430085AC02120DFEA9AC02120DFE05AD021203
:102053000DFE4BAD02120DFE68AD02120DFEE5AD95
:1020630002120DFE1CAE02120DFE5BAE02120DFE3D
:10207300A8AE02120DFE2AAF02120DFEC3AF02126A
:102083000DFE93B102120DFEF1B102120DFE0DB35E
:1020930002120DFE33B302120DFE72B402120DFED4
:1020A30098B702120DFED9B902120DFEB5BB02128A
:1020B3000DFE4BBC02120DFE72BE02120DFE1EBFC0
:1020C30002120DFE53BF02120DFEB8BF02120DFE27
:1020D300C2BF02120DFEECC102120DFE13C30212A7
:1020E3000DFE53C302120DFEF9C302120DFE8AC583
:1020F30002120DFE13C702120DFE33C702120DFEAC
:102103008CC702120DFE8EC802120DFED8C8021231
:102113000DFE28C902120DFE12CA02120DFE87CA55
:1021230002120DFEA1CB02120DFE1CCC02120DFEFB
:1021330021CD02120DFECCCF02120DFEEBCF021207
:102143000DFE4CD102120DFE0ED302120DFE62D310
:1021530002120DFE1AD402120DFEC9D402120DFE94
:102163001FD502120DFED5D502120DFE6AD602123C
:102173000DFED6D602120DFE10D702120DFE41D768
:1021830002120DFE9DD802120DFE008003120DFEF9
:10219300328003120DFE698003120DFE5282031278
:1021A3000DFE358303120DFE8D8303120DFEC884CD
:1021B30003120DFE148503120DFE3C8803120DFE5F
:1021C3009E8B03120DFEEB8C03120DFE818D031209
:1021D3000DFE8D8D03120DFEBF8D03120DFE418F7B
:1021E30003120DFEDC9003120DFE849103120DFE0B
:1021F300C79103120DFE2D9203120DFE4A92031294
:102203000DFE7A9203120DFEAF9203120DFE7F9321
:1022130003120DFE289403120DFEAC9603120DFE5D
:10222300CC9703120DFEB59803120DFE37990312D6
:102233000DFE569D03120DFE939D03120DFEEB9DA5
:1022430003120DFE1E9E03120DFE9F9E03120DFE32
:10225300EC9E03120DFE779F03120DFEC99F03121E
:102263000DFEA0A003120DFE59A103120DFEF4A151
:1022730003120DFE0DA503120DFE2DA603120DFE76
:10228300DAA903120DFEF8AA03120DFEFBAA03122C
:102293000DFE2AAB03120DFE30AD03120DFE09AE87
:1022A30003120DFE3EAE03120DFE46AF03120DFEEA
:1022B300FCAF03120DFE9DB103120DFEC2B103125A
:1022C3000DFE01B203120DFE73B203120DFE57B3DE
:1022D30003120DFE24B403120DFE5AB603120DFEB3
:1022E300CBB603120DFE0BB703120DFE6CB7031230
:1022F3000DFE2FBB03120DFE1EBC03120DFE05BD0A
:1023030003120DFE7DBD03120DFE3FBE03120DFE33
:102313003DC003120DFE55C003120DFE69C003122A
:102323000DFEA1C003120DFECFC003120DFE56C257
:1023330003120DFE61C303120DFEB3C303120DFEA0
:1023430014C403120DFEC6C403120DFEEDC4031222
:102353000DFED1C503120DFE82C603120DFE71C818
:1023630003120DFEA6C803120DFE0EC903120DFEC5
:102373003DCA03120DFEEFCA03120DFE20CB03125A
:102383000DFE38CB03120DFEC7CB03120DFE7BCE21
:1023930003120DFE53D003120DFE6FD003120DFE78
:1023A3008BD003120DFE59D103120DFE3DD503123E
:1023B3000DFEFD8401120DFE358501120DFE138AFB
:1023C30001120DFE598A01120DFEA68B01120DFE9C
:1023D300118C01120DFE9A8D01120DFEAA900112AD
:1023E3000DFEC59101120DFED79B01120DFE6A9CD5
:1023F30001120DFEBC9F01120DFEB8A001120DFECD
:1024030013A101120DFE5DA201120DFE4BA30112D9
:102413000DFEE7A501120DFE5BA701120DFEDEA75F
:1024230001120DFEE1A701120DFE56A801120DFEC9
:1024330060A801120DFE6DA801120DFE98A80112ED
:102443000DFE48A901120DFE41AA01120DFEECAAD0
:1024530001120DFE0AAB01120DFE23AB01120DFE9C
:102463004CAB01120DFE6EAB01120DFEC3AD01129A
:102473000DFE88AE01120DFECDAE01120DFE4CAF66
:1024830001120DFEF8AF01120DFE2AB001120DFE6E
:102493007EB001120DFEB9B001120DFE00B10112A2
:1024A3000DFE50B101120DFE55B101120DFEA9B181
:1024B30001120DFED5B101120DFEBEB201120DFEC9
:1024C3000FB301120DFE6FB301120DFEC9B301125A
:1024D3000DFE64B401120DFEA3B701120DFEB5B8D3
:1024E30001120DFE2FBA01120DFE3FBD01120DFEAA
:1024F300DDBD01120DFED3C001120DFE92C101120A
:102503000DFED6C101120DFE81C301120DFE95C34E
:1025130001120DFE9FC301120DFEA9C301120DFE90
:10252300B5C301120DFEDAC301120DFEB3C50112CC
:102533000DFE08C601120DFE12C601120DFE1CC6C9
:1025430001120DFE91C601120DFEE0C601120DFE31
:10255300F1C701120DFE3EC801120DFE4BC9011257
:102563000DFE8FC901120DFE35CA01120DFE28CBD7
:1025730001120DFEEECB01120DFE11CD01120DFE67
:102583002FCE01120DFE17CF01120DFE2FCF011218
:102593000DFE86CF01120DFE90CF01120DFE9BCFD3
:1025A30001120DFEB9CF01120DFE01D001120DFE75
:1025B30063D001120DFE8AD001120DFE9CD00112D0
:1025C3000DFE37D101120DFE6CD101120DFE53D257
:1025D30001120DFE98D201120DFE7ED301120DFEE3
:1025E300A5D301120DFE28D401120DFE99D40112B8
:1025F3000DFE22D601120DFE4ED701120DFE11D88B
:1026030001120DFED9D801120DFE63D901120DFE80
:102613008BDA01120DFE2DDB01120DFEA8DB011278
:102623000DFE64DC01120DFEAEDC01120DFE08DDB1
:1026330001120DFEE0DD01120DFE03DE01120DFE9F
:10264300B6DE01120DFED8DE01120DFE41DF0112CE
:102653000DFE57E101120DFE4FE201120DFE13E3D1
:1026630001120DFE45E501120DFE8FE501120DFE6F
:10267300DFE501120DFE43E601120DFEA5E6011290
:102683000DFED3E601120DFEF7E601120DFE2CE757
:1026930001120DFE5DE701120DFE90E701120DFE22
:1026A300E0E701120DFE33E801120DFE58E90112B5
:1026B3000DFEF8EA01120DFE53EB01120DFE7CEB49
:1026C30001120DFE09EC01120DFE77EC01120DFE55
:1026D30085EC01120DFEA9EC01120DFEFEEC0112B8
:1026E3000DFE19ED01120DFECBED01120DFE03EEF1
:1026F30001120DFE46EE01120DFEA9EE01120DFEB2
:10270300ABF001120DFED5F001120DFECCF101125A
:102713000DFED6F201120DFE86F301120DFE64F4D6
:1027230001120DFE9CF401120DFEBDF401120DFE0B
:10273300FFF401120DFE61F501120DFE6BF501129E
:102743000DFE7BF501120DFEB6F501120DFE96F995
:1027530001120DFE83FB01120DFE69FD01120DFE38
:1027630000FE01120DFEA2FE01120DFEAC3300129B
:102773000DFE573400120DFE053500120DFE0B360B
:1027830000120DFE2B3600120DFE543700120DFE03
:102793000F3900120DFE823900120DFE263A001287
:1027A3000DFE323B00120DFE9D3B00120DFED93B88
:1027B30000120DFE1C3C00120DFE573C00120DFED4
:1027C300993C00120DFE2E3D00120DFEAA3D001293
:1027D3000DFE743E00120DFE513F00120DFEE93F47
:1027E30000120DFE034000120DFE334000120DFED9
:1027F300644000120DFE2A4100120DFE3A41001200
:102803000DFE894100120DFE964100120DFE9F41FF
:1028130000120DFE1D4200120DFE794200120DFE44
:10282300C44200120DFEDF4200120DFE0A430012E5
:102833000DFE274300120DFE334300120DFECA4462
:1028430000120DFEE34400120DFE684500120DFE5A
:102853007B4500120DFE9A4500120DFE3E46001206
:102863000DFEBF4700120DFE724900120DFE084A0D
:1028730000120DFE0B4A00120DFE7B4A00120DFEE4
:10288300994A00120DFE304B00120DFE784B0012D8
:102893000DFE7B4B00120DFE414C00120DFEAE4CA3
:1028A30000120DFED44C00120DFE5F4D00120DFE02
:1028B3007D4D00120DFEC34D00120DFE774E00122A
:1028C3000DFEC14E00120DFEF04E00120DFE4D4FD7
:1028D30000120DFE824F00120DFEAE4F00120DFED0
:1028E300BC4F00120DFE095000120DFE795000126C
:1028F3000DFEC25000120DFE0E5100120DFE3A5194
:1029030000120DFE455100120DFE635100120DFE23
:102913004E5200120DFE585200120DFE9352001239
:102923000DFEA35200120DFEF75200120DFE0B53C3
:1029330000120DFE3A5400120DFE4F5400120DFE0C
:10294300DD5400120DFE225500120DFEAE5500128D
:102953000DFEB95500120DFEFB5600120DFE165763
:1029630000120DFE625700120DFED15700120DFE2C
:102973000A5800120DFE245800120DFE845800124E
:102983000DFE235900120DFE6E5900120DFE3E5C22
:1029930000120DFEF05C00120DFE5D5D00120DFED7
:1029A3009D5F00120DFEB55F00120DFEB85F0012B1
:1029B3000DFEC45F00120DFED85F00120DFEE05F36
:1029C30000120DFE136000120DFE166100120DFEC3
:1029D300A36100120DFE136200120DFE9562001238
:1029E3000DFE566300120DFE756300120DFE166494
:1029F30000120DFE736400120DFE766400120DFECC
:102A0300EA6400120DFE396600120DFE3F670012E4
:102A13000DFECA6700120DFEE56800120DFEAD69DA
:102A230000120DFEDE6900120DFE016A00120DFE9A
:102A33000A6A00120DFE396A00120DFEC96A0012FD
:102A43000DFE7F6B00120DFEF46B00120DFE9B6CEE
:102A530000120DFE106D00120DFE476D00120DFEEB
:102A6300856D00120DFE8BD703120DFE3EAD0512D0
:102A73000DFE23AD05120DFE80AC05120DFE80ABDD
:102A830005120DFE9EAA05120DFE8EA805120DFE5F
:102A93009CA705120DFE3AA705120DFE81FB041239
:102AA3000DFE77FB04120DFE0CFB04120DFEA0FEBF
:102AB30004120DFEDFD603120DFE40F904120DFEC3
:102AC300FEF804120DFE07D603120DFED2D5031233
:102AD3000DFE0AF804120DFEDEF704120DFE95F743
:102AE30004120DFED6F604120DFEAEF304120DFE13
:102AF30052F104120DFE22F104120DFED2F0041263
:102B03000DFE6CF004120DFE2BF004120DFE5DEFB2
:102B130004120DFEF7EE04120DFE96EE04120DFEE6
:102B230036EE04120DFED4EC04120DFE68EC041212
:102B33000DFEBCEB04120DFEB7EB04120DFEA0EB71
:102B430004120DFE9FD503120DFE6BEB04120DFE56
:102B53008AD503120DFE5FD503120DFEFCB00512DC
:102B63000DFEC8B005120DFE71B005120DFEFAAED2
:102B730005120DFEFDE704120DFEFAE704120DFE29
:102B8300B8E704120DFE4CAE05120DFEA5E70412C4
:102B93000DFE9AE704120DFE69E704120DFE61E5CE
:102BA30004120DFED88102120DFED4E404120DFEB0
:102BB300AFAD05120DFE90E404120DFE64E40412A1
:102BC3000DFED2FE03120DFEA5FE03120DFE72FED4
:102BD30003120DFE4AFE03120DFEEBFD03120DFE62
:102BE300CBFD03120DFE96FD03120DFE42FA0312F6
:102BF3000DFE2AF803120DFE14F603120DFE94F5D2
:102C030003120DFE40F503120DFE4CF403120DFEEC
:102C1300F4F403120DFE58FD0400000080FB0000D5
:102C230022E4738F000100BC1E87000100BA1E3529
:102C3300000400801E25000200841E260002008678
:102C43001E27000200881E28000100921E29000191
:102C530000931E84000400AA1B86000100241E2A80
:102C6300000100941E2B000100951E2C0001009A08
:102C73001E2D000800B81B2E0001009B1E2F000113
:102C8300009C1E300001009D1E310001009E1E327B
:102C9300000100C01B33000100C11B340001009F71
:102CA3001E36000100C21B38000100A01E390001BE
:102CB30000991E83000200B81E63000100CD1B644F
:102CC300000100961E65000100971E6D000100CEF5
:102CD3001B71000800B01B66000100B71E43000112
:102CE30000A81E44000200A91E45000100AB1E46B9
:102CF300000200AC1E47000800C51B48000100AEDF
:102D03001E4B000100AF1E04000100BB1EA1000109
:102D130000BF1E37000100BE1E88000100BD1E3C1F
:102D2300000100C31B3D000100A11E49000200B0C9
:102D33001E67000100CF1B4D000200B21E4E0001B2
:102D430000B41E4F000200B51E3E000100A71E5135
:102D5300000100A31E52000100A41E53000100A69F
:102D63001E54000100C41B000000000000000136D7
:102D73003601010001020100010301000104010603
:102D83000605020000070100340801000F090401D1
:102D9300010D0100FF0E08000017020000190100D9
:102DA300FF1A0100011B0100FE1C0100081D0200A7
:102DB300001F010001200100012102000023010086
:102DC3000F24020000260100012701000828020049
:102DD300FF2A0100072B0102402C0100002D0100F6
:102DE300012E0100012F0100FF30010B1D310800EE
:102DF300003A0100083B01000F3C0100013D0100C6
:102E0300FF3E04000042040000460400004A0400A0
:102E1300004E04000052040000560400005A04004F
:102E230000000000002001FB84000001002001FCE1
:102E330084000002002001F784000003002001F851
:102E4300840000040042011F840000050042018445
:102E5300830000060042011284000007003001F9DC
:102E63008400000040420112840000FDFF2101F3B1
:102E7300842A0400003905861A2A04C80039058EFD
:102E83001A2A04C90039058A1A2A04010221235681
:102E93001E2A04210221234A1E2A04220221234C32
:102EA3001E2A04200210234E1E2A04250210234F3B
:102EB3001E01037103010301030103010301032243
:102EC30003020301031003000300030003000300D4
:102ED300030003000342030003240306030003006B
:102EE3000304031203250323032503230304030419
:102EF3000300030003000344030003000323030050
:102F03000365032100350381030003050300030068
:102F1300030003000325032303030271023001604E
:102F23000211027002010202020202800210026117
:102F3300023A00410063027302720262024302001A
:102F4300021302380000020002040212020002000F
:102F5300020002000204020402370037003C02446C
:102F630002000239000002000265020002350281FC
:102F730002000205028202830200020101710101C3
:102F83000101011101010131010101010180011060
:102F93000161013B0014006301730172016201438B
:102FA300010001130106013D013500040112010076
:102FB3000100010001000104010401330133013C5C
:102FC30001440132013600000100016501000135B1
:102FD30000810100010501820183010001030471E5
:102FE30004020460041104700402040204010402D4
:102FF300041004610400041404630473047204627F
:10300300044304000413040604000400040404122B
:1030130004000400040004000451046400000400DC
:1030230004000444040004000400040004650400D4
:1030330004350481046400050400048304000403CC
:103043000071003001600011007000310220035054
:10305300048000100061000000140063007300721C
:10306300006200430000001300060000000000049B
:1030730000120000000000000000000400040037FC
:103083000037003C0244000000000000000000651F
:1030930000000035008100000005000000830000EF
:1030A3000036000100060000000F000000000000D1
:1030B3000000000000000003FFFF00000403FFFF07
:1030C3000000FFFF0FF4010005C40403200001000A
:1030D300000B000000000000000003010F000000CF
:1030E30000000000000000000000000000000000DD
:1030F3000000000000000000000000000000005677
:103103001986195C19901862198C19621998196833
:1031130019901862198C196E199018000000007428
:10312300199018000000007A19901880199018005F
:10313300000000000000000000000000000000008C
:10314300000000000000000000000000000000007C
:1031530000000000000000000000001300D21B1F4D
:1031630000D81B1F80DE1B0000381C0100381C0226
:10317300007E1B0280781B0300841B04008A1B044F
:1031830080901B0500961B0600A21B3100B41B3365
:1031930000BA1B3400C01B3600C61BFFFF00000A29
:1031A30000000002000000040000000800000010FE
:1031B300000000200000004000000080000000002C
:1031C30001000000020000000400000008000000ED
:1031D300100000002000000040000001EE23061E46
:1031E300240818240B3C24103C2102F423050C244E
:1031F30007FA230CD6230DE22364321FFF000003DA
:103203000003000400080010001F003E007B00F6CE
:1032130000EC01D703AF075D0FB91E713D00000736
:10322300ECFDFDFDECDCDCCCBCACAC9C9C8C7C7C78
:103233006C6C5C5C5C4C4C3C3C2C2C1C1C00160FDA
:1032430000000B150B020002220F3300000E0F00CB
:103253000000000000000000000000000000005A11
:103263006967426565416C6C69616E63653039D02D
:10327300D1D2D3D4D5D6D7D8D9DADBDCDDDEDF158E
:103283000AF4D4C0A5958272636155504900034D79
:103293004C4651181A250502303016181920231AE6
:1032A3001C1E30003C40423A3F3F392F473000015B
:1032B3001916181616182303003030171819213061
:1032C3001B1D1F300C0E020B040B0A0708000F0214
:1032D300040201010101090200BE040AE80300001F
:1032E300F6FB0100030000000000E80322320E0099
:1032F30082327F0005101E04041E10080C280004EF
:103303001202000909033C0C080508150300FF031A
:103313000C0AFFE4F0A3F0A3F0A322123316F02269
:10332300901D161249221227D82212333122E0F5BA
:1033330008E4F509F50AF50B22E824FBF582E934E4
:10334300FFF58322E82411F582E439F583E022F5C1
:103353008312335822E0F508A3E0F50922122A5418
:103363007404120E2E7F08020BFA7401F0900B5EA8
:10337300E0640F227409120E2E7F04020BFAEA2472
:1033830013FAE43FFB122982E922790512298E748C
:103393000622A3A3E024F5C3941322122A60900B00
:1033A3007E1268E07A147B0022C082C083901CF5F1
:1033B30074CCF0A37427F0A374DEF0A37427F09009
:1033C3001CF974B4F0A37427F0A374AEF0A37427AC
:1033D300F0A374EAF0A37427F0A374F0F0A37427A6
:1033E300F0A374E4F0A37427F0A3749CF0A37427F0
:1033F300F0901D0574C0F0A37427F0A374C6F0A366
:103403007427F0A374BAF0A37427F0A374F6F0A39F
:103413007427F0901D161252F16009901D1612497F
:103423001E12177C901D13124C387408125F8DA363
:10343300F0901DBFF0901D18F07C0BFDF97A197BFD
:103443001D1216CE7C0B7D0079007A247B1D12168B
:10345300CE024A9274F712095074F7120EE1EAFE93
:10346300EBFF1234EA7405124D567403F012360161
:10347300124D382430FCE43FFD8C821234E21234C6
:10348300F66008123D0F74FFF0A3F0EE242EE43F24
:103493001C1CFD8C82F583A3E0C0E08A828B83121F
:1034A30049EAD0E01234F688828983125225240334
:1034B300F0EE123D191211577403F0900B73120CB6
:1034C300837402120ED91238E3120E2EE9F5087036
:1034D30007EEFAEFFB122868A9087409023D28F5E4
:1034E30083E08882898322EA1234EF221254343F24
:1034F300F5832212620D124D44E8F0A3E91264E44D
:10350300E02274F0120950EAFEEBFF8C0C8D0D895A
:103513000B123601F583124D4C7410121157E0F55E
:1035230008A31234E4F0E824FFF582E91238F5E544
:1035330008F0E824FEF582E91238F5E50BF0900B6C
:1035430078E0C0E0E824FDF582E91238F5D0E0F038
:10355300900B77E0C0E0E824FCF582E91238F5D05F
:10356300E0F0741212115712335412333CE509F090
:10357300E824FAF8E934FFF98882F583E508F0EEE8
:103583002404FCE43FFD88088A828B83E0F50E8CDB
:10359300828D83E0250EC3950812620D124B72854E
:1035A3000C82850D83A3A3A3A3A3A3A3A3E0640316
:1035B3007009EE124D26F0A3E480031238FA123993
:1035C300027409F075081975091D750A0078081247
:1035D3000E17125CD7120E2E7508FF7509FF7808B7
:1035E300120E1BAC0CAD0D1238E3120E2EE9F508CA
:1035F3007007EEFAEFFB122868A908023368EA2481
:1036030002FAE43FFB8A8222C082C083901D35E028
:10361300C39408400474078001E08A828B83F033EB
:10362300333354F8F9024A9274F01209508A088B22
:1036330009890A8C0E8D0F750C00A2AFE433F50BCC
:10364300C2AF901D2F804512372D503D123747646E
:10365300037036E50824F9F508E50934FFF5098E0A
:10366300828F83A3A3E02405FCA3E03400FDAA0812
:10367300AB0912186CE50824FFF508E50934FFF5DA
:10368300097410250CF50C150A123B1C126C95E5F8
:103693000A6004EE4F70B0E50BA2E092AFA2AFE474
:1036A30033F50BC2AF901D2F803E1251FE8882F579
:1036B30083124472850882850983F08A8289831282
:1036C300373EA3A3E0C0E0E50824FFF582E5091235
:1036D30038F5D0E0F0E50824FEF508E50934FFF5F8
:1036E30009050C150A123B1C123970602112374769
:1036F300640270F112372DEE40B0124E6DA2E55008
:10370300E4850E82850F837401F0E50A70D7E50B1B
:10371300A2E092AF850882850983E50CF0E50824D1
:10372300FFFAE50934FFFB023368123733A2E622BE
:10373300EE2411F582E43FF583E022123742221290
:103743005243A3228E828F83A3A31249EE12591AE6
:103753002274F012095074F3120EE174031211571C
:10376300E9F07402121157EAF08B0B85218285224E
:1037730083E4F004120ED112277EE9F8900B5DE08A
:10378300292437F508FA7B001216E08A0C8B0DAE5C
:103793000CAF0DEA4F70030238DAEA2402F50EE4A7
:1037A3003FF50FA808EA28F8E43BF9850E82850F58
:1037B3008312426E900B5DE0F9FAC3E49AFA95E046
:1037C300FB850E82850F83E02AF50CA3E03BF50D04
:1037D300900B5B123354750A007808120E17E9FC3C
:1037E3007D00AA0CAB0D124CA8120E2EAC21AD22FB
:1037F3007401121157E0F9E50C24FFFAE50D34FFCB
:10380300FB1227848A828B83E4F0E50BC454F0F91E
:10381300901DC0E0C4333354C0F8900B57E0A2E0CE
:10382300E43313134849440FC0E0EA24FFF582EB65
:103833001238F5D0E0F0EA24FEF50CEB34FFF50D79
:103843007403121157E0F87402121157E0C454F0D4
:1038530048850C82850D83F0A80C850E82850F8325
:10386300125F5A2AC3988E828F83A3A3A3A3F085E2
:103873000E82850F83E8F0A3E50DF01238FA1239B2
:1038830002E4F0740C121157E4F075082475091D55
:103893007808120E17125CD7120E2E85218285220C
:1038A30083E06009EE240E124E6F4408F012297073
:1038B300E9F9E4F508F5097808120E1B7406120EEF
:1038C300D91238E5120E2EE97006EEFAEFFB800BE3
:1038D300EEFAEFFB1216E67A007B00740D023365F5
:1038E3007903EEFAEFFB122988740222EE24FFF526
:1038F30082EF34FFF58322EE1234EFE4F0A322F0DB
:1039030012390722EE125BFA3FF5832274F2120991
:10391300508A0C8B0DA2AFE433F50AC2AF750800D1
:10392300750900901D2F802C123B2C5024850C828E
:10393300850D83A3A3125CEA8E828F83A3A312490E
:103943001E122976E9600A123B27C2E6F08E088F21
:1039530009123B1C12397070CFE508450960061245
:103963003A09D2E6F0E50AA2E092AF800DE0FEA3A9
:10397300E0FFEE4F227402120E2E7F06020BFA7442
:10398300F01209508A0E8B0F8C0C8D0D750A00A254
:10399300AFE433F50BC2AF7E007F00901D2F801084
:1039A300AE08AF09123A01124E6DD2E7F01248FC8D
:1039B3001249106034123A09A2E750F18508828552
:1039C3000983A3A3120C83AC0CAD0DAA0EAB0F128B
:1039D300297C7402120E2EE960D3EE4F60C2123DB1
:1039E300A37006123A1BD2E4F0E50BA2E092AFEE0D
:1039F3004F6006122862750A01A90A02336812375A
:103A030033D2E4F0EE22E508125C143509F583E0C5
:103A130022AA82AB8312186C8E828F83A3A31249CE
:103A2300EEE02274F212095074FE120EE1750C00DE
:103A3300750D00852182852283E4F0A3F0A2AF33C4
:103A4300F50AC2AF901D2F126C95802BEE24FBF567
:103A530082EF34FF123352780C120E1B123B0A1200
:103A63000E2EEEFCEFFDAA21AB22121704AE08AF17
:103A730009901D35E014F0EE4F602B123B2C501DC6
:103A8300EE240BF8E43FF98882F583E024FFF0A3EA
:103A9300E034FFF0888289831252F160AF8E0C8F7D
:103AA3000D123B1C80A1E50AA2E092AF901D35E008
:103AB300602C900B5EE0640F6006901DBFE0701EEB
:103AC3007A0D7B1D122A609084EF120C7F7A0D7B96
:103AD3001D124B1A120E2E800574F01249FBAA21F7
:103AE300AB2212170A8A088B09AE08AF09EA4F60A6
:103AF30013122790123B27A2E28E828F83A350D901
:103B030074E980D7023978EEFCEFFD7A2F7B1D1222
:103B130017167402228E0A8F0BEE24FBF582EF3404
:103B2300FFF58322EE12373422123733A2E72274D1
:103B3300F7120950EAFEEBFF1227901249E7122C05
:103B430024E96401900B7A700AE02401F8A3E034BD
:103B530000800312496DF912506F124B72901D359C
:103B6300E0701F900B5EE0640F70177A0D7B1D12DF
:103B73002A609084EF120C7F7A0D7B1D124B1A1270
:103B83000E2EA8A8C2AF901D35E004F0E8A2E7808E
:103B930004E508A2E092AF024F7D74F7120950EAE0
:103BA300FEEBFFEA123BD3F0122790EEFCEFFD7A17
:103BB3002F7B1D121710A8A8C2AF901D351244C148
:103BC300900B5EE0640F70057908122928024F7D7F
:103BD300123734C2E42274F712095074EA120EE168
:103BE300EAFEEBFF900B57E0602A85218285228352
:103BF3007401F0121157E4123C8E121157123A1449
:103C0300C0E0740A121157D0E0125F7A740B1211DC
:103C1300571251DA7416023D2874F7120950EAFE5E
:103C2300EBFF122772E9F974DC69601E74DD6960C9
:103C33001974E469601474F369600F74DE69600ACF
:103C430074DF69600574DB697007EEFAEFFB122914
:103C53002E024F7D74F712095074EB120EE1EAFE47
:103C6300EBFF8521828522837406123C8E12115745
:103C7300AA82AB8312186CEE2408FCE43FFD740A9D
:103C83001211571251DA7415023D28F0EA2413FC7D
:103C9300E43FFD74022274F712095074F7120EE127
:103CA300EAFEEBFFEA2430124E6F605DEA123D1923
:103CB3001211577403F0900B73120C83123D0F1201
:103CC3000C83900B86E0F97404120ED9EEFAEFFB25
:103CD3001227787404120E2EE9F974DC69602374D8
:103CE300DD69601E74E469601974F369601474DE3D
:103CF30069600F74DF69600A74E869600574DB69E1
:103D03007007EEFAEFFB12292E0234DDEE242EF5B6
:103D130082E43FF583221260EBAA21AB2212186CD6
:103D23007408227403120E2E024F7D74F21209508E
:103D33008A0C8B0D750A00750B007508E7A2AFE4BA
:103D430033F509C2AF901D2F8003123B181239704F
:103D53006025123B2C50F3123DA370EEEE24321279
:103D63003F3AE06870E4780A120E1B123B0A120E07
:103D73002E901D35E014F0E509A2E092AFEE4F60FE
:103D830013EEFAEFFB12279079F0EEFAEFFB12290C
:103D93002E750800A908AA0CAB0D12292E02397D35
:103DA300123907E064012274F412095074F7120EF9
:103DB300E1EAFEEBFF8A82F583A3E064F37003027A
:103DC3003E488A828B83A3E064DF60798A828B8397
:103DD300A3E064E8606F8A828B83A3E064DB6065A1
:103DE3001227D2E9F5087055EE240E124E6F604D7E
:103DF300123E5260487408121157123E61120C832E
:103E03007508FF7509FF7808120E1B8E828F83A336
:103E1300A3A3A3A3A3A3A3E0F97404120ED91227A7
:103E2300787404120E2EE9F50874F369600F74DFD9
:103E330069600A74E869600574DB69700F8E828FAC
:103E430083A3E508F0EEFAEFFB1227DE023377EEE9
:103E5300240FFAE43FFB7909122814EA4B22740277
:103E63001256E074FFF0A3123E6E2212522EA3A349
:103E73002274F1120950EAFEEBFF7508008A82F5FD
:103E830083A3A3A3A3A3A312339540037508E88ACE
:103E9300828B83A3A3A3A3A3A3A3A3A3A3E0C394FA
:103EA3001040057508E880138A828B83A3A3A3A31C
:103EB300A3A3A3A3A3A3E0640F600B901D9CE054F2
:103EC3000870037508E8EA240B123F3AA3A3A3A3DF
:103ED300A3A3A3A3E0C398500DEA240B124E6F646F
:103EE3000F60037508E8900B77E0F47003A3E0F428
:103EF30070037508EC7A237B001217768B0BA90BE2
:103F0300901D16123F4960278E828F83A3A3A98237
:103F1300AA83890C8A0D750E00780C120E177C2368
:103F23007D00901D16E0FA124CA8120E2E80037528
:103F3300081AA908025CD2F582E43FF583E0F88A07
:103F4300828B83A3A322EAF0A3EBF0EA492274F560
:103F5300120950EAFEEBFF8A82F583A3A3A3A3A36E
:103F6300A3A3A3E0900B5E123FE1E0900B79F0EA8C
:103F7300240B124E6F900B59123FE1A3E0901DC02A
:103F8300F0F912152A901DC0E0600BEE2404124EC6
:103F9300612406123FD7901DBF12336D6004740174
:103FA30080027400901D18126625120E177C0B7D7B
:103FB300007A197B1D124CA8120E2EEE2418F50858
:103FC300E43FF5097808120E177C0B7D007A247BF9
:103FD3001D024C95FAE43FFB79E112151222126699
:103FE3000FA3A3A3A32274F7120950EAFEEBFF8ADF
:103FF30082F583A3E07003123323126196024F7D8F
:1040030074F7120950EAFEEBFF901D161252F1608D
:1040130010901D1612491E901D16E4F0A3F01217FE
:104023007C8E828F837408124A02121E18024F7DFF
:1040330074F6120950901DBFE06010901D18E070D7
:104043000A124051EA4B6003122868026290900BF7
:1040530059E0FB900B79E0FA900B5EE0F912278AA6
:104063002274F412095074E7120EE1EAFEEBFF75B5
:104073000B018A82F583A3A3A3A3A3A3A3E0A2E2D4
:104083005069EA242BF582E43F125CE8EA2413FA30
:10409300E43FFB122796E97052908457E064017065
:1040A30005750B008045124123120E177C0B7D0012
:1040B3007411120ED1124CA8120E2E122970E9FAA5
:1040C300740E120EC9880889097808120E1B750828
:1040D300307509007808120E1BEE125F43120C8331
:1040E3001260DD790112338F120E2E852182852213
:1040F300837410F01260DD7402121157AA82AB832D
:10410300121860EE242B1268D6740B121157124B3F
:1041130072740D121157E50B12634F741902337940
:10412300EE240812662D22C082C083901DC0E06079
:10413300031229E2024A92C082C083901DB774F52C
:10414300F0A3741CF0A374F9F0A3741CF0A374051A
:10415300F0A3741DF0901EF574E0F0A3742FF0909B
:104163001DA1746CF0A37427F0901D3A74A2F0A300
:104173007427F0901D3C74A8F0A37427F0901D9C45
:10418300E04402024596C082C083EAFCEBFD79035A
:1041930002529DC082C0837908026410C082C0832A
:1041A30074FE120EE1901D427450F0A37428F09037
:1041B3001D44744AF0A37428F080077A2F7B1D12E4
:1041C30041FB901D2F1252F170F1901D311252F1EB
:1041D30060097A317B1D1241FB80EF901D2FE4F0C3
:1041E300A3F0901D35F0A3F0A3F0901D50748CF054
:1041F300A37428F07402801C12170A852182852279
:1042030083EAF0A3EB12420F12295E22F0AA21AB3C
:1042130022227411120E2E024A9274F6120950E9E8
:10422300FF74A629F582E43432F583E493FEFA7B26
:10423300001216E0EA4B6007EA2E12426B80267AE0
:10424300027B001216E0EA4B601774BC2FF582E480
:104253003432F583E4938A828B83F0A3741A124673
:10426300347A007B00026290124B61E812620AA367
:10427300A3A3A3E4F022E9FC740629F8EAA2E05020
:104283001EE875F00A84E5F0F96014740A28C399EE
:10429300F8E9C394054004740A28F8740B28F8EC71
:1042A300C394134004791480027906E82979002421
:1042B30009F85001097A0A7B00120654E8F9020D45
:1042C300FBC082C083901D9CE05402600A121E1E34
:1042D300E96004790180027900024A92C082C083B6
:1042E300901D9CE054026014901D35E0700A125238
:1042F300EE60091243045004790180027900024AF6
:1043030092123347A2E722C082C083908454E0F81C
:10431300901D37E0C39850051216E080047A007BA5
:1043230000024A92C082C08312295E7900024A9237
:10433300C082C08374FE120EE1852182852283EA46
:10434300F0A3EB12449DA3A3A3A3A3E0600A14600C
:104353005724FE605A02440D900B5EE0640F601216
:10436300122934E9700C124918901D3E1249EA12C1
:104373002C24900B86E0C0E0852182852283125293
:1043830011D0E012449D7414125C2EFCA3E0FD7A5C
:10439300317B1D121704A8A8C2AF901D371244C168
:1043A30079201229280241F712476B741580D9121C
:1043B300476BA3A3A3A3E0605112476B123A1FC03C
:1043C300E0852182852283E02406F582E43BF583A0
:1043D300D0E0125C2E2402F8A3E03400F98882F5C1
:1043E30083E02401FAA3E03400FB88828983EAF0A6
:1043F300A3EB125C2E1247AB8521828522836013C7
:1044030012447260051244844048AA21AB22122947
:104413005E809212447260F21244845021124491DD
:10442300FA852182852283A3E0C82406124767F810
:1044330074D11254263432F583E4936A60148521CF
:1044430082852283124472640870BF124491640807
:1044530070B8124491141244A5240AC0E085218245
:104463008522831249EAD0E01244A50402438B1249
:1044730044762212496DC82406F582E438F583E0B8
:1044830022852182852283124476C3940A228521C0
:1044930082852283123742A3E0221244AFF5838838
:1044A30082221244AFC8240612479522F085218246
:1044B30085228312496D22A8A8C2AF901D36E0045D
:1044C300F0E8A2E792AF22C082C083901D46125249
:1044D300F16008124772122C2480027900024A927A
:1044E30074F7120950EAFEEBFFEA1239087401125D
:1044F3004B20F8A3E0F91234EA124B72EA24351286
:104503004E6FC0E0EA2413F582E43FF583D0E0F078
:10451300EA2436124E6FC0E0EA2414F582E43FF534
:1045230083D0E0F0EA2438124E6FC0E0EA2418F595
:1045330082E43FF583D0E0F0EA242FF582E43FF5EF
:1045430083120C831260EAEA2431124E6FF9123897
:10455300E9120E2EE9F5087007EEFAEFFB12286850
:10456300A908024F7DC082C083122934E96004790F
:104573002080027901024A92C082C083EA24111288
:10458300458CD2E0800DEA240DF582E43BF583E00F
:1045930022F0A3F0024A92C082C0831245896401CB
:1045A300701112462E400C8A828B83A3E0F91229E4
:1045B3002E806612461FA2E650128A828B83A3E0E6
:1045C300F9901D401249EA122C24804D124589644A
:1045D30001700D12462E50088A828B837430803608
:1045E3008A828B83A3E0641B8A828B837004742288
:1045F3008024A3E0700D124589F8749B125426346D
:1046030032800B124589F874BC1254263432F58378
:10461300E4938A828B83124634024A9212462322FF
:10462300EA2410F582E43BF583E022124623A2E359
:1046330022F0901D97E0F91216EC2274F71209503C
:10464300E9FE1252EE7003024764EE6014741B6EAF
:10465300701AE8125BFA39F583E0640570030247C8
:104663003C901D39124772A3E402474374E96E700C
:1046730068E82412F582E439F583E0700B121E24F6
:10468300E960051247B5606179EE121494901D3804
:1046930012478C901D38603A1247B8901D38700B42
:1046A30012478C14F01216560247641247AAC2E747
:1046B300124953240D124767640370091247851288
:1046C3004909D2E2F079ED12149412479D122C2479
:1046D300807812477874E9806774E16E703E121E29
:1046E30024E960551247B57050900B80E0C0E0128A
:1046F30047852412F582E438F583D0E0F0900B6F00
:10470300E0C0E0901D38124781124781D0E0F0905D
:104713000B6FE004F0790112163E8045741C6E7035
:1047230018901D3812491E901D481249EA122C2474
:10473300901D38E4F0A3F08028901D38124778EEDE
:10474300F0901D3812491E122856124934E0548045
:1047530060031263FF901D38E4F0A3F0791012296F
:1047630028024F7D12479522852182852283A3E06B
:10477300F58388822212477C221249F2A322125225
:104783003F22901D38125220221252202412124727
:104793009522F582E438F583E022901D38124922F0
:1047A300901D3C1249EE22E0F8A3E0C82410124702
:1047B3009522901D3812493BE054042274F41209E7
:1047C30050750A00750B00A2AFE433FEC2AF12525C
:1047D300EE60030248B21249E7122C24E94410F8B0
:1047E300901D2F800985080A85090B1248FC124980
:1047F3001070030248B2123A09586870E8780A1236
:104803000E1BAC08AD09123B0E120E2E901D38E59F
:1048130008F0A3E509124953124909A2E75003021C
:1048230048B9901D36E014F0EEA2E092AF901D3827
:10483300E0240EF8A3E03400F9E8FEE9FF8882F5EE
:104843008312491E901D38124497F912281AE990D1
:104853001D33125F8D8E828F83E054806018124760
:10486300852413124767F912154E12478524141233
:104873004767F9121542124934A3E05401605F906F
:104883001D331252F1604512494A604012494AF8F9
:104893007900901D3312491E12065CE8C0E01249EC
:1048A30028D0E0124958C3941340117402800FEECC
:1048B300A2E092AF8037901D350248287400C0E013
:1048C300901D39E0C81248F3D0E0800D12492874D6
:1048D300011249531248F37401F07903800C901DBF
:1048E300381247AAA2E1B3E433F912163E02337C2D
:1048F300241AF582E438F58322E50824FBF582E5E2
:104903000934FFF58322125C14124798221233589C
:10491300E50845092285218285228312492222E066
:10492300FAA3E0FB2212521D2419F582E438F58321
:1049330022901D3812493B2212496DC81249432265
:1049430012543438F5832212521D2418124795222B
:10495300124965C822124965F5838882A3A3A3A3DC
:10496300E022F0901D3812496D22E0F8A3E0227492
:10497300F7120950EAFEEBFF122958124E6CA2E31C
:10498300400A123DA370059084528003908453E043
:10499300F9EEFCEFFD7A2F7B1D12171CE96038EE50
:1049A300FAEFFB901D421249EA122C24EE240E1258
:1049B3004E6F540470121244BAEE1234EBA3E05457
:1049C30001701E1228628019EEFAEFFB901D3A1255
:1049D30049EA122C24800A8E828F83A374F1124930
:1049E300FB024F7D901D441249EE221249F222E050
:1049F300F8A3E0F583888222124A0212285622F095
:104A0300EEFAEFFB22024A8B74F7120950EAFEEB2F
:104A1300FF7900901D9CE05402700CEA2433124E7F
:104A23006F5404600279E8901D9CE05460700CEAB6
:104A33002433124E6F5402600279E88A828B83A377
:104A4300A3A3A3E0F8908458E0C398500279E8EA5E
:104A53002431124E6F700CEA242E124E6F700479BB
:104A6300F5800BE97005122844E9F9E96007EEFACD
:104A7300EFFB12292E024F7DC082C0838A828B8373
:104A8300740DF0121E188007C082C083122862D0F2
:104A930083D082020DFB74F4120950EAFEEBFF8A05
:104AA30082F583E4F0A3124B2054049084527012D5
:104AB300E0F8901D36E0C398401279F112292E02D6
:104AC300337CE0F8901D35E0C39850EE124B26A3DB
:104AD300E054016037EA2437124E6FC39405403324
:104AE300EA2433124E6F540570297A4A7B1D122A29
:104AF30060EE2437F582E43FF58312332D780812F4
:104B03000E137A4A7B1D124B1A120E2EEEFA125511
:104B13001780AC79E880A5122A54740422F0124B52
:104B230026E022EA2433F582E43FF5832274F61269
:104B33000950E9FE2451FAE43400FB1216E0EA4B73
:104B43006015EE8A828B83A3A3A3A3F0EA245112F8
:104B53004B61124B7280047A007B00026290F8E48E
:104B63003BF98A828B83A3A3221268E0901E14E888
:104B7300F0A3E9F022024A8BC082C083901D5374D4
:104B8300B6F0A37428F0A374E6F0A37428F0A3741A
:104B9300BCF0A37428F0A374C2F0A37428F0A37428
:104BA300E0F0A37428F0A374D4F0A37428F0A374E2
:104BB300CEF0A37428F0A374ECF0A37428F0A374CC
:104BC300F2F0A37428F0A374F8F0A37428F0A3748C
:104BD30004F0A37429F0A374C8F0A37428F0A37499
:104BE300B0F0A37428F0A374AAF0A37428F0901D66
:104BF3006F74DAF0A37428F0A374FEF0A37428F0A2
:104C0300A37418F0A3742AF0A3740AF0A37429F010
:104C1300A37410F0A37429F0901D93E4F0901D96F3
:104C2300F0901D7F124C387402F0901D88124C389E
:104C330074010245967428F0A37429F0A32274F535
:104C430012095074F1120EE18521828522837402C8
:104C5300F07401121157E9F060047AFF7BFF7402CC
:104C63001211571256D575088B75091D750A0078F0
:104C730008120E177C0B7D007407121157AA82AB22
:104C830083124CA8120E2EAA21AB22121E18740FE7
:104C93008003124CA8120E2E7F03020BFA7C0B7DAD
:104CA300007A8B7B1D1216C274032274F71209500B
:104CB30074FD120EE1852182852283740AF074014A
:104CC300121157E9F07402121157EA12634F023DB1
:104CD3002674F612095074F7120EE1EAFEEBFFEAAE
:104CE300124D26124D567402F0EA2428FCE43FFDCF
:104CF300AA21AB22121860EE2431124D2C24331258
:104D03005D4E120E1B7402120ED979831A1A1238D1
:104D1300E7120E2EE9F5087007EEFAEFFB1228688A
:104D23000262891234EF740122F582E43FF58312A3
:104D330033581251F6F583124D44E8F0A3E9F0EE2F
:104D430022124D4C8A828B8322E024FFF8A3E034A5
:104D5300FFF922F0A3E4F0EA1239082274F01209F1
:104D6300501267BE1210E27808790C1207E978082E
:104D7300120E137A827B1D02336074F4120950748D
:104D8300C6120EE1900B5EE0640F600D85218285F3
:104D93002283742E1256F480227A797B1D12339E5D
:104DA30012065C88088909E4F50AF50B7808120EE7
:104DB300137A797B1D124B1A120E2E743A02337931
:104DC30074F5120950EAFEEBFF8A82F583A3E0F83B
:104DD3007078EA2430124E6F64026007E064036067
:104DE3000278E8EA2426F582E43FF58312339740FC
:104DF3000478E88058E87052EA2426123FD7EE245C
:104E030031124E612430124E6F6402700EEE24286C
:104E13001268D6900B6D124B728017900B6D74FE57
:104E2300F0A304F0EE2428FCE43FFD7A647B0B122C
:104E3300186CEE241B124126120E17124CA0120EF0
:104E43002EEEFAEFFB1228A4E9F8E8600EE88E8252
:104E53008F83A31260F2741712619C024C9BFAE4D5
:104E63003FFB7950121512EE22EE2410F582E43F37
:104E7300F583E02274F612095074F7120EE1901DC7
:104E830096E070377401F0F9121608AA21AB2212CA
:104E9300296A75088B75091D7808120E1B750801A0
:104EA3007509007808120E1B900B73120C8374069D
:104EB300120ED97A0312338D120E2E02628B74F7FF
:104EC30012095012509D7004A374EBF0901D96E0EC
:104ED300A2E25003C2E2F0E0A2E150051250AE801C
:104EE300098E828F83742A12619C024F7D74F4129F
:104EF300095074FE120EE1124FA31251E9EC852101
:104F030082852283125238E0F50B7015AA21AB2259
:104F13007953121512EE2413FAE43FFB794A121562
:104F230012124123120E17124CA0120E2E12491800
:104F3300A90B122898901D96E0A2E150031250B5D8
:104F4300901D96E4F0740202337974F7120950EA63
:104F5300FEEBFF8A82F583A374EBF0901D96E0A22B
:104F6300E150077A0079EB12289EEEFAEFFB122844
:104F7300D48007EEFAEFFB1229D67F01020BFA74F5
:104F8300F7120950124FA3901D93E4F0901D96F071
:104F93007AFF7BFF8E828F83A3E0F912289880DA51
:104FA3001250EE7A827B1D122A602274F712095086
:104FB300EAFEEBFF1228CE80BA74F71209501251A1
:104FC3002BA3A3A3E060047400800274EB124FFCD4
:104FD3005003C2E2F0E0A2E150051250FF8011A29B
:104FE300E0500D8E828F83742AF0A374EB12619CC0
:104FF300EEFAEFFB12287A80818E828F83A3F090E2
:105003001D96E0A2E22274F6120950EAFEEBFF902D
:105013001D96E0D2E1F079011216088E828F83A3E8
:10502300E07038122970E9FAEE240DF508E43FF533
:10503300097808120E1B7508017509007808120E0D
:105043001B12506F120C83EE2402FCE43FFD12335B
:105053008D120E2EE98E828F83A3F08E828F83A30F
:10506300E060067A00F912289E026290EE240BF5A6
:1050730082E43FF5832274F712095012509D7004A5
:10508300A374EBF0901D96E0A2E25003C2E2F0E0BD
:10509300A2E150031250AE024F7DEAFEEBFF79010D
:1050A30012160E8E828F83E0642022C2E1F012502A
:1050B300B5227A008E828F83A3E0F912289E227490
:1050C300F71209501250EE8E828F83A3A3A3A3E09D
:1050D30060047400800274EB124FFC5003C2E2F0D0
:1050E300E0A2E150031250FF024FF3EAFEEBFF7917
:1050F3000112160E7A797B1D122A6022C2E1126612
:1051030020E0A2E4E433FA1250B72274F7120950F4
:1051130012512B74EB1250015003C2E2F0E0A2E1F2
:1051230050031250AE024F7DEAFEEBFF79011216D7
:105133000E8E828F83A32274F712095012515002EC
:105143004F7674F7120950125150024F7DEAFEEB6D
:10515300FF7A797B1D122A60EEFAEFFB1228F82200
:1051630074F712095074EF120EE1EAFEEBFFEA1234
:1051730060DE7A647B0B12185AE9605685218285BA
:1051830022837409F0740112115774EFF01251E97C
:105193007402121157EC125238A3A3E0C0E0740456
:1051A300121157D0E0125225640870158E828F8336
:1051B300A3A3125211E0C0E07405121157D0E0808E
:1051C300067405121157E4125F7A7406121157120E
:1051D30051DA7411023D28AA82AB831229A0AA21B5
:1051E300AB22121E18221251F6F583125208FCA3A9
:1051F300E0F922EE1251FEFB8882222402F8E43FFA
:10520300F9E8FAE92212496D8882F583E022125205
:10521300202407F582E438F58322901D3812496D66
:10522300C8221252292212522EE022F08E828F833C
:10523300A3A3A3A32212620A12523F2212524322B1
:10524300E0F8A3E0F5838882A3A322C082C083127F
:1052530029E2024A92C082C083901DB37453F0A323
:10526300741DF0A3746FF0A3741DF0901EEF747E91
:10527300F0A3742FF0A3741CF0A3742FF0901D9F60
:105283007492F0A37428F0901D9CE04401024596AB
:10529300C082C083EAFCEBFD7902122946024A92DE
:1052A30074F612095074FE120EE1901D981252F119
:1052B30060077A987B1D12295E901D9EE4F0901280
:1052C300191252F160208007AA21AB2212295E90A5
:1052D3001D97E0F91216F88B09A909852182852209
:1052E30083123F4970E2740202628D901D38126886
:1052F300E0E8492274F7120950E9FA7B00901D9700
:10530300E0F9121722024F7D74F712095074F0125C
:105313000EE1EAFCEBFDE9FE8A828B83E0F874C7B9
:105323001254263432F583E493C0E074011211570A
:10533300D0E0F0640B700DE98A828B83A3F012290D
:10534300C4025421E07003025421640C600302542C
:1053530012741A6E700B7404121157E4F0A3025402
:105363001174041211571256D5EA2432125BDEC0AF
:10537300E07403121157D0E012660B121140740649
:1053830012115712111C8C828D83A3A3A3A3A3A371
:10539300A3A3A31268DC740A121157E8F0A3E9125D
:1053A300542BE054106009852182852283E4801305
:1053B300EC2412125BDEF8900B80E0C39885218207
:1053C300852283F0E0C0E0740C121157D0E0F0ECBA
:1053D3002415125BDEC0E0740D121157D0E0F0EC1F
:1053E3002416125BDEC0E0740E121157D0E0F0EC0D
:1053F3002417125BDEC0E0740F121157D0E0125471
:105403002BA3E05401600874011211577411F07456
:1054130002121157EEF07401120ED1121E187410FD
:10542300023D2828F582E422F0EC1254343DF58342
:1054330022240EF582E422C082C083901D9EE06484
:10544300037004790180027900024A9274F7120909
:1054530050901D9EE01254CA74ED28F582741E39D3
:10546300F58312595CC2E7F01254D1A3E493FE25ED
:10547300E0FCE433FD74ED2CF582741E3D125CE810
:10548300EC4D6005EE901D9EF08A828B83E025E053
:10549300FCE433FDE82CF582E93DF583E493FCC499
:1054A300540F25E0F874AD125426341DF5831252BF
:1054B300F170051229B2800CEC540F1254D1124929
:1054C300EA122C24024F7D25E0F8E433F92225E08B
:1054D300FCE82CF582E439F5832274F21209507446
:1054E300FE120EE1890B8A088B0912557C12556D49
:1054F300601A125F87F50A7808120E17125589246D
:1055030002125CDE120E2E125515800312559B02F9
:105513003978AA0CEFFB901D97E0F91216EC227470
:10552300F012095074FE120EE1890B8A0E8B0F12D2
:10553300557CF50812556D6027125F87A808EA2885
:1055430012426B850E08850F09F50A7808120E17AB
:10555300125589125CDC120E2E1255157900800546
:1055630012559B791A7402023365FA7B001216E016
:105573008A0C8B0DAF0DEA4F22749029F582E43427
:1055830032F583E49322A80B74B11254263432F516
:1055930083E493FC7D00EA22852182852283E50B47
:1055A300F0791AAA21AB2212292E22C082C083E9E4
:1055B300901D9702459674F612095074FE120EE17F
:1055C300EAFEEBFFEA542070308039A8A8C2AF90FE
:1055D3001D37E0141244C38A828B831256C2901D76
:1055E3009A1256D512293A852182852283E06415C1
:1055F30060077A9A7B1D12295E7A317B1D12170A86
:10560300EA4B70C7EF5480700C8016901D9AEAF035
:10561300A3EB1256E8901D97E0F91216F8EA4B70C7
:10562300EAEE5410600B852182852283742D125675
:10563300F4EEA2E0500B8521828522837424125656
:10564300F4EE5402600B8521828522837425125661
:10565300F4EE5404600B852182852283742612564E
:10566300F4EE5408600B8521828522837428125638
:10567300F4EE5440600D74011211571256DB742C72
:105683001256F4EE5480600D74011211571256DB5A
:10569300742F1256F4901D981252F1601BA8A8C2E1
:1056A300AF901D9812491E901D98E4F0A31244C3B5
:1056B300A3EAF0A3E91256E87A007B000252E9124A
:1056C30056C622E0852182852283F022A3A3A3A3C9
:1056D300A3A3EAF0A3EBF022E41256E022F0852123
:1056E3008285228322F012293A7A9A7B1D12295E3F
:1056F3002212420F12293A22C082C083901D9A12AD
:10570300634A687002EB697007901D9AE4F0A3F096
:10571300024A9274F7120950EAFEEBFFEA4F700354
:10572300121314A2AFE433F508C2AF8E828F831233
:1057330052F16028E824FBFAE934FFFB901D9A122A
:105743005CEAE86C7002E96D7007901D9AE4F0A3BF
:10575300F08E828F83E4F0A3F012177C023B94C097
:1057630082C083901DC174A6F0A37429F0A374B8FA
:10577300F0A37429F0A374BEF0A37429F0A3747486
:10578300F0A37428F0A374C4F0A37429F0A3746E77
:10579300F0A37428F0A3747AF0A37428F0901DCFBB
:1057A30074F4F0A37429F0A374CAF0A37429F0A3CA
:1057B30074D0F0A37429F0A374DCF0A37429F0A3CC
:1057C30074D6F0A37429F0901DC0E4024596C082FC
:1057D300C083900B6DE064FE7003A3E0F470097C5A
:1057E300647D0B121860801C8A828B83A3A3A3A3FE
:1057F300A3A3A3A37402F0900B6D1268DC8A828BBF
:1058030083124B72024A92C082C083900B77C3E02B
:1058130094FEA3E094FF4004790380027902024AD4
:1058230092C082C0831259658C828D8312591A6883
:105833007039740268701C8A828B83125873E06813
:1058430070298A828B83A3125873A3E068701C7932
:1058530001801A7403687013EC2405FC50010DEAEF
:105863002405FA50010B12186680027900024A924D
:10587300A3A3A3A3A3E0F88C828D83A3A3A3A3A3D1
:105883002274F61209507E00740A121157E012595D
:105893000EFF8A828B83A3A3A3A3A3A3A3A3E06F77
:1058A300706474026F704E8A828B83C082C0838857
:1058B300828983A3A3A3A3A3E0F50888828983A392
:1058C300A3A3A3A3A3E0FBAA08D083D082E06A70BA
:1058D30003A3E06B703088828983A3A3A3E0FA88D3
:1058E300828983A3A3A3A3E0F9EA6C7002E96D7034
:1058F300157E01801174036F700CE82405FCE439F4
:10590300FD121866E9FEEEF9026290F8A3E0F98849
:1059130082F58312591A22A3E01313543F5403222E
:10592300C082C0838A828B83A3A3A3A3A3A3A3A3BD
:10593300E064027016900B6D12595C687003A3E06B
:105943006970047901800F7900800BEAFCEBFD7A22
:10595300647B0B12185A024A921268E08A828B8384
:10596300E0228A828B8312591AF82274F0120950AA
:1059730074FC120EE1E9852182852283F074021200
:105983001157ECF0A3EDF08A0A8B0B750800740233
:10599300121157E02408125BDEC0E07401121157A4
:1059A300D0E0125C2EA2E75008750EFF750FFF8042
:1059B3000A900B73E0F50EA3E0F50F852182852293
:1059C30083E0C2E7125C3354206007125C00740862
:1059D3008004125C00E4125C3354046007125C0B15
:1059E30074808005125C0B7410125C3354106006D3
:1059F300125BE6E4800B900B80E0C0E0125BE6D024
:105A0300E0125C33A2E0500375082054086006746A
:105A1300104508F5088A828B83A3A3E024FFFEA325
:105A2300E034FFFFEA125BF1C39402E0400F640B22
:105A33006009E0148E828F83125C2474034508F599
:105A430008750900900B93E0640170118A828B83BF
:105A5300A3A3A3A3E0C39467400375091085218220
:105A6300852283E0F50C750D00740E780C120FEC93
:105A7300E50D4509F509E06402701B900B78E08E93
:105A8300828F83F0900B77E0C0E01238EFD0E0F024
:105A9300EE24FEFE801CE06403701DEE24F9FEEF8D
:105AA30034FFFF7C877D0BEEFAEFFB12186CEE24BC
:105AB300FF1EEF34FFFF8003E0602F7401121157C4
:105AC300E060187414121157E0650E7004A3E065CA
:105AD3000F700874404508F508800F8E828F83E5A8
:105AE3000FF01238EFE50E125C1A7401121157E031
:105AF300F50C750D00740A780C120FECE50D4509D1
:105B0300F509E06402702374021211571263458E83
:105B1300828F83F07402121157123A21C0E01238B7
:105B2300EFD0E0F0EE24FEFE8020E064037021EE6F
