:020000040000FA
:060000000210B40205F934
:03001B000206B525
:03002B00020E645E
:03004300020D3279
:0300530002052E75
:0300730002070A77
:1000830002058D0100F0FF0700080000FFFF0000DC
:100093000704000000030001FF32102700000020C6
:1000A300FD000206FFFF1EA419000000000000006F
:1000B30000000000000000E80300000000E8030067
:1000C3000000000F0000000F0000000104010C00FD
:1000D3000202CF8401F98401040000BE1A0000006B
:1000E300E8030000FFFF1B1B0188130000E8030067
:1000F3000064006400B801A0BB0D00A0BB0D0002AA
:10010300020207040101071E02051E020A0A010179
:10011300010809080103B80B02803E0102FEFFE853
:10012300030A050001FFFF010A011401E0020000B8
:100133000001050301010F10FEFF0300030003008C
:1001430003000300030003000300030005000A008B
:10015300140028004F009E0000003630000000000D
:10016300A82E00000000FF000000FF001211006035
:10017300461210C4603DE9687008F618F618F618C0
:10018300F622748067F71201A3090909748067F7DF
:10019300221210C4601D1211007005191919801A5A
:1001A300120F9D701F120FB1C37003E66733191945
:1001B3001940071818182208080874FFF618F618CB
:1001C300F618F622120FB16017121161702192F026
:1001D3001211737019501720F0140808080909093F
:1001E300E7F61819E7F61819E7F61819E7F62212D1
:1001F300117360E6E869701F0808E62480F608E4D6
:1002030036F618547FB47F0CE654806007F6E41882
:10021300F618F622181822E9C6CC08C6CD08C6CEB1
:1002230008C6CFC0E0E8C0E0EAC0E0EBC0E009E9FF
:10023300F809E7FA09E7FBE6F918E6F8C3EC98EDE5
:1002430099EE9AEBC2E7F5F0EFC2E795F0500E6036
:100253000CEBCFFBEACEFAE9CDF9E8CCF8EAA2E75A
:10026300D2E7FAEB33FB13F5F0EEA2E7D2E7FEEFAA
:1002730033FFC5F013A2E730E601B313C5F0C3C0E3
:10028300E0C0F07F00C39BFB605E9418600F401DCD
:1002930014601AD0E023F9D0E0F80203758AF0E97C
:1002A300486003D2F0E4AFF0FAF9F8803BEB30E4B6
:1002B3000D89F0EA6003D2F0E4AFF0F9CAF8EB304D
:1002C300E30D88F0EF6002D2F0AFF0E4CAC9F8EBB7
:1002D30054076014FBC3EA13FAE913F9E813F8EFC0
:1002E300135002D2E0FFDBEDD0E0C0E030E739C3CA
:1002F300E49FFFF5F0EC98FC42F0ED99FD42F0EE3F
:100303009AFE42F0D0E0F9D0E0F8E5F0607AE92314
:10031300F9EE20E742D8028067C3EF33FFEC33FCEA
:10032300ED33FDEE33FE80EAEC28FCED39FDEE3AC9
:10033300FED0E023F9D0E0F84002801BC3EE13FEA9
:10034300ED13FDEC13FCEF135002D2E0FF08B800ED
:10035300067F7F74FF802EEF3350178CF020F0025E
:1003630060100CBC000C0DBD00080EBE000408E8B4
:1003730060DFE933E813FFEE2313FE4F4D4C800893
:10038300E95480FFE4FEFDFCEE33EF33F47004FC2C
:10039300FD7E80D0E0FBD0E0FAD0E0F8D0E0CFC61D
:1003A30018CEC618CDC618CCC6F922001210C460E8
:1003B3004F1211006012E7548066F6120F9D701100
:1003C300121161703B090909F4F618F618F618F6CC
:1003D30022120FB1701512117308080860EAE6447F
:1003E3007FF618768018E4F618F622121173601659
:1003F3001211617012E4F608F608F608E65480F666
:1004030009090918181822EAC0E0EBC0E0ECC0E0C3
:10041300EDC0E0E687F0A4FBACF008E687F0A42C7F
:10042300FCE435F0FA1809E687F0A42C4B6002745B
:1004330001CA35F0FCE433FB09E687F0D2F7A42CBC
:10044300CB35F0FC1908E687F0A42BCC35F0FBE4A0
:1004530033FD0819E687F0D2E7A42C4ACB35F0CD5B
:100463003400FC09E687F0D2E7A42DCC35F0FDE497
:1004730033FA0918E687F0D2F7A42CCD35F0CA3445
:1004830000FC08E687F0D2E7D2F7A42ACC35F07A4D
:100493007E20E70B0ACB33CBCD33CDCC33CC33CB60
:1004A3003350147004ED30E00ED2F1E4CD3DCDCCE9
:1004B3003CCC3B5005DA05C2F1EB547FC63308E66A
:1004C3003392F0FBE73309E733C39A502D2B7019AE
:1004D3000C0D4C4D70151806E608C333700D20F152
:1004E3000AA2F013F6E418800B4024E4F630F0027D
:1004F300768018F618F618F68024D33B145010743F
:10050300FFA2F013F6187680E418F618F6800FA20F
:10051300F013F618E63303F618ECF618EDF6D0E010
:10052300FDD0E0FCD0E0FBD0E0FA22C0E074F11291
:1005330009BCA2AFE433F509D2AF85A708AFA1EF99
:100543005508FE74105E600612142875A1EF740836
:100553005E600812142E75A1F78024EFA2E092F0DA
:10056300E508A2E082F05017906198E0F8900B46FE
:10057300E0C398A2D265D0335002E8F075A1FEE53E
:1005830009A2E092AF7F02020A1BC0E074F21209D3
:10059300BCA2AFE433FED2AF9061A4E0F8759B0038
:1005A300E59158540860087591F712147C8023E58F
:1005B3009158541060087591EF1214828014E591DC
:1005C300A2E092F0E8A2E082F05007E0C2E0F0126D
:1005D30015CC9061A3E0F8E5E9585404600E1215B8
:1005E300A275E9FB906193E0A2E640F2EEA2E092ED
:1005F300AF7F01020A1BC0E074F21209BCA2AFE490
:1006030033FED2AF9061A5E0F8E5BF58540460060D
:1006130075BFFB1215E480D4C3E498F8E499F9128A
:10062300065C8026C3E49AFAE49BFBE920E7E9121F
:10063300065CE498F8E499F922C3E498F8E499F99C
:1006430012065CE498F8E499F9C3E49AFAE49BFB94
:1006530022EB20E7CFE920E7E0B90010BB0008E870
:100663008AF084F8AAF022E4FBC8FA22EB70227B1A
:1006730010C833C8C933C9335007C39AC3DBF280E8
:10068300069A50012ADBEAC833F4C8C933F4C9FA1D
:100693002275F008E4C833C8C933C933C99AC99B62
:1006A3005004C92AC93BD5F0ECFBC833F4C8E4C9EC
:1006B300FA22C0E0C0D0E8C0E0E9C0E0C082C08355
:1006C300A8F9E8C0E0900AB3E0F8743228F582E4B0
:1006D300340AF583D0E0F0900AB2E0F8A3E0687042
:1006E30006E595900AB5F0900AB3E004F0C3948050
:1006F3004002E4F0A374C6F0D083D082D0E0F9D0F6
:10070300E0F8D0D0D0E032C0E0C0D0E8C0E0E9C02B
:10071300E0C082C083900B36E0F8A3E06870085312
:100723009AF7A374018022C2EA900B36E0F87401B1
:1007330028F074B628F582E4340AF583E0F5F990DD
:100743000B36E0C394804002E4F080AC12079A3089
:10075300F0391207DF803412079A20F01430E72BA8
:1007630074FFFCFBFA747F8022E4FCFBFA74808044
:100773001AB48008BC00F2BB00EF800F50EBF9E421
:10078300C39AFAE49BFBE49CFCE499C6CC18C6CB61
:1007930018C6CA18C6F922E4C9C608CAC608CBC611
:1007A300D3330308CCC63392F0C3947F402E9418FE
:1007B3004019C9B90704CACBCC225025C309CA338F
:1007C300CACB33CBCC33CC33D9F422F4600DC9CCB0
:1007D300C313CB13CBCA13CAD9F6CC22E4FCFBFA5E
:1007E3002214FCFBFA22080808EAC0E0EBC0E0860A
:1007F300F0E7A4FA180986F0E7A42AFA180986F0A4
:10080300E7A42AFA180986F0E7A42AFA1986F0E77A
:10081300A4FBE5F02AFA190886F0E7A42BFBE5F020
:100823003AFA190886F0E7A42BFBE5F03AFA181810
:100833000986F0E7A4C5F02BFBE43AFA1908E7C5EB
:10084300F0C6A426F6E5F03BFBE43AFA1886F0E797
:10085300A4F6E5F00826F6E43B08F6E43A08F6D0F9
:10086300E0FBD0E0FA22080808E630E711120F6136
:10087300120881080808C64480C6181818221818D8
:1008830018E9799EC608CAC608CBC608CCC6C37089
:10089300207996CACBCC7019798ECBCC701379861C
:1008A300CC700EF9802ACA33CACB33CBCC33CC33CA
:1008B3001930E7F2CCCBCA3350147004EA30E00DA0
:1008C300E4CA3ACACB3BCBCC3CCC500209C3E913B4
:1008D300C6CC182313C6CB18C6CA18C6F922E4CF50
:1008E300C0E0E4CEC0E0E4CDC0E0E4CCC0E075F00D
:1008F30020E626F608E633F608E633F608E633F68E
:10090300181818EC33FCED33FDEE33FEEF33FFC361
:10091300EC9709ED9709EE9709EF97191919400F0D
:10092300FFEC97FC09ED97FD09EE97FE191906D523
:10093300F0BFECF709EDF709EEF709EFF71919190D
:10094300D0E0FCD0E0FDD0E0FED0E0FF222521C5C1
:1009530082C0E0E52234FFC583C0E0E521C3958270
:1009630024F810AF0885832285822180088583229D
:10097300858221D2AFCEF0A3E520F0A37808E60864
:10098300F0A3DEFAEFF0A3E58124FAF8E608F0A37A
:10099300E608F0A3E608F0A30808E608F0A3E608D3
:1009A300F0A315811581D0E0FED0E0F81581158103
:1009B3001581E8C0E0EEC0E022C0D02521C582C089
:1009C300E0E52234FFC583C0E0E521C3958224F32B
:1009D30010AF088583228582218008858322858242
:1009E30021D2AFC8F0A3E9F0A3EAF0A3EBF0A37917
:1009F30008E709F0A3D8FAECF0A3EDF0A3EEF0A317
:100A0300EFF0A3D0E0F0A3D0E0F0A3D0E0F0A3E5B3
:100A130020F0A3E5F0F0A322852283852182E0C0A4
:100A2300E0A3E0F9A3E0FAA3E0FBA37808E0F6086B
:100A3300A3DFFAE0FCA3E0FDA3E0FEA3E0FFA3E055
:100A4300C0E0A3E0C0E0A3E0F5D0A3E0F520A3E07D
:100A5300A3F5F010AF088583228582218008858362
:100A630022858221D2AFD082D083D0E0F8D0E03289
:100A730012114CB90003020AB2E49005017814790B
:100A83001A8002F0A3D8FCD9FA7A147B1E90008650
:100A930078EA79018015E493A3AD82AE838A828BD1
:100AA30083F0A3AA82AB838D828E83D8E9D9E775BD
:100AB30082DD7583FB7405120DF575821075832C29
:100AC3007400120DF575F0108E238F24858228850E
:100AD3008327852182852283E0CEA3E0CF852882E8
:100AE300852783EBC9EAC8EDCBECCAC3E833C8E971
:100AF30033C9EA33CAEB33CBC3EA9EF526EB9FF542
:100B030025B35004AB25AA26EC33CCED33CDD5F079
:100B1300DAAE23AF24221210C4601C121100601736
:100B230012117370071211617001D322C0D0121118
:100B3300617006D0D0B322C32233D0D0501430E03A
:100B4300F6C3E7960809E7960809E7960809E796C2
:100B5300B32220E0D5E6970809E6970809E6970847
:100B630009E697B322D083D082ECC0E0EDC0E0E485
:100B730093A3FCE493A3FDED4C600D120C40EC2415
:100B8300FFFCED34FFFD80EFE493A3FCE493A3FDAE
:100B9300ED4C600D120CDDEC24FFFCED34FFFD8009
:100BA300EFD0E0FDD0E0FCE493A3C0E0E493C0E029
:100BB30022D083D082E9C0E0E493A3C386F0C5F0DA
:100BC30095F0F908E493A386F0C5F095F0700BE473
:100BD30093A3C3994005E9048002A3E475F002A43A
:100BE3002582F582E5F03583F583D0E0F9E493A31C
:100BF300C0E0E493C0E022852283852182E0A3FE46
:100C0300E0A3F5207808E0A3F608DFFAE0A3FFE00D
:100C1300A3C0E0E0A3C0E0E0A3C0E0E0A3C0E0E045
:100C2300A3C0E010AF0885822185832280088582D6
:100C330021858322D2AFD083D082020DFBC0E0C3D3
:100C4300E49396087401939618400FE49366700832
:100C530008740193661870007019A3A3C3E49396F4
:100C6300087401939618A3A3400DD0E0D0E0D0E020
:100C7300020BA4A3A3A3A3A3A3D0E0227404800420
:100C830074028000CCC0E0EDC0E0E521C39CCCAD94
:100C93002250011D10AF068C218D2280068C218DE0
:100CA30022D2AF120D77D0E0FDD0E0FC2274028097
:100CB30000CCC0E0EDC0E0E521C39CCCAD225001E7
:100CC3001D10AF068C218D2280068C218D22D2AF80
:100CD300120D55D0E0FDD0E0FC22C0E0C0F088F05A
:100CE300E4936670080874019366187000A8F0A373
:100CF300A3700BD0F0D0E0D0E0D0E0020BA4A3A30C
:100D0300D0F0D0E022D083D082CCC0E0E493A360C3
:100D130006120D981470FAE493A36006120EF714EA
:100D230070FAD0E0FCE493A3C0E0E493C0E022C0F7
:100D3300E074F21209BCA2AFE433FED2AFC2C0E545
:100D4300D1A2E4500312138CEEA2E092AF7F010212
:100D53000A1BCAC0E0E493A3C582CCC582C583CD78
:100D6300C583F0A3C582CCC582C583CDC583DAE52F
:100D7300D0E0CA22CAC0E0E0A3C582CCC582C58345
:100D8300CDC583F0A3C582CCC582C583CDC583DA27
:100D9300E6D0E0CA22C0E0E493A3D39C5010E493CE
:100DA300A3C39C400AD0E0D0E0D0E0020D25A3A36A
:100DB300A3D0E022C008C3E096F50808A3E096425A
:100DC3000808A3E096420808A3E09645087001D3FB
:100DD300D008227009080808226016181818C6C31C
:100DE30033C608C633C608C633C608C633C6D5E0FD
:100DF300EA22C09FF59FE473D09F22D083D082C0A4
:100E03009FE493C0E0740193C0E0740293F59F22C2
:100E13007404800A74038006740280027401C0E0C3
:100E2300F404120E49D0E012110F2200C0D0252184
:100E330010AF08F521500C05228008F5215002055A
:100E430022D2AFD0D0222521F58210AF08F5214060
:100E53000C15228008F52140021522D2AF8522838A
:100E630022C0E0C0D0E8C0E0A8A8D2AFC2C7E8A2C1
:100E7300E792AFD0E0F8D0D0D0E032BB0102E72256
:100E8300C082C08389828A83BB0003E08002E4932B
:100E9300D083D082226016080808C6C313C618C6BA
:100EA30013C618C613C618C613C6D5E0EA22C3E094
:100EB300C696F608A3E0C696F608A3E0C696F6081B
:100EC300A3E0C696F6222521F8E43522F92225214E
:100ED300FAE43522FB222521FCE43522FD222521DB
:100EE30010AF08F521400C15228008F521400215AA
:100EF30022D2AF22C0E0E493A36C7009D0E0D0E02B
:100F0300D0E0020D25A3A3D0E022C3E09608A3E01E
:100F13009608A3E09608A3E096A2D265D03322E711
:100F23006670100809E766700A0809E76670040826
:100F330009E76622C3E7960809E7960809E79608D2
:100F430009E796A2D265D03322E066701008A3E0C9
:100F530066700A08A3E066700408A3E06622181806
:100F630018E4C396F608E496F608E496F608E496C1
:100F7300F622C3E096F008A3E096F008A3E096F00B
:100F830008A3E096F022C3E697F60809E697F60869
:100F930009E697F60809E697F622181818E60846B0
:100FA300087009E626087005E633F42208221919A9
:100FB30019E70947097009E727097005E733F422A0
:100FC3000922C3E4939608740193960874029396D6
:100FD300087403939622E627F60809E637F608090C
:100FE300E637F60809E637F622700422600D18C6C4
:100FF300C333C608C633C6D5E0F41822E657F6084D
:1010030009E657F60809E657F60809E657F622E017
:1010130026F608A3E036F608A3E036F608A3E03682
:10102300F622E026F008A3E036F008A3E036F00845
:10103300A3E036F022E056F608A3E056F608A3E054
:1010430056F608A3E056F622E493F608740193F6E5
:1010530008740293F608740393F622E647F6080928
:10106300E647F60809E647F60809E647F622E0569A
:10107300F008A3E056F008A3E056F008A3E056F00A
:1010830022C6F4C608C6F4C608C6F4C608C6F4C623
:1010930022C3E09608A3E09608A3E09608A3E0968F
:1010A30022C3E7960809E7960809E7960809E79631
:1010B3002275D00075813F75210175220500020A52
:1010C30073E6084608C3134608336002E633F42286
:1010D300600C08C6C313C618C613C6D5E0F422E0D5
:1010E300F608A3E0F608A3E0F608A3E0F622E6F08C
:1010F30008A3E6F008A3E6F008A3E6F022E7094711
:1011030009C3134709336002E733F422CAC0E0E698
:10111300F0A308DAFAD0E0FA22E8F0A3E9F0A3EAB0
:10112300F0A3EBF022E0FAA3E0FBA3E0FCA3E0FDD5
:1011330022EAF0A3EBF0A3ECF0A3EDF022E0F8A396
:10114300E0F9A3E0FAA3E0FB22E5C754F84401F574
:10115300C77901222521F582E43522F58322E72789
:1011630019471947194722C2AF75D69F02000022BB
:10117300E62618461846184622120DFE3BDD0312DA
:101183000DFEE7DD03120DFE17DE03120DFE77DE03
:1011930003120DFE0BDF03120DFEBCDF03120DFE67
:1011A3000DE003120DFE51E003120DFEEBE00312FE
:1011B3000DFE5BE103120DFE8AE103120DFE90E2C8
:1011C30003120DFEBAE203120DFE0EE303120DFE2F
:1011D300E2E303120DFE10E603120DFEBEE6031258
:1011E3000DFE2BE903120DFEB0E903120DFEB3EC65
:1011F30003120DFEE7EE03120DFE23EF03120DFEA5
:101203007CF003120DFE8FF003120DFECCF00312DF
:101213000DFE95F203120DFEB56D00120DFE316E3B
:1012230000120DFE646E00120DFE926E00120DFE92
:10123300D06E00120DFE0D7100120DFE2C71001206
:101243000DFE717100120DFE077200120DFE537236
:1012530000120DFEE77200120DFEC07300120DFEA8
:101263001C7400120DFE7A7400120DFEED74001250
:101273000DFE317500120DFE897500120DFEAB7562
:1012830000120DFE3B7600120DFECC7600120DFE11
:10129300187700120DFE447700120DFE85770012B9
:1012A3000DFE1B7900120DFE077A00120DFEE27A85
:1012B30000120DFED6EC05120DFE09ED05120DFE12
:1012C30029ED05120DFE50ED05120DFE7DEE051202
:1012D3000DFE9EEE05120DFE49EF05120DFE208751
:1012E30006120DFE258706120DFE588706120DFE07
:1012F300E1F905120DFEA8FA05120DFEBAFA051260
:101303000DFEF08706120DFE018806120DFE1B88E6
:1013130006120DFEF47F00120DFED8FF03120DFE20
:101323007AFF04120DFE8AFF04120DFE9FFF0412C2
:101333000DFEE8FF04120DFED28306120DFE568445
:1013430006120DFEBE8406120DFEEDFF03120DFE06
:1013530023E605120DFE31E605120DFEAAE605127F
:101363000DFE83E705120DFE46E905120DFE2A88E0
:1013730006120DFE10CB05120DFE7CCB05120DFEE1
:101383001FCC05120DFE94CD05120DFEFBCD0512EB
:101393000DFE48CE05120DFEA1CE05120DFE25CF82
:1013A30005120DFE5ACF05120DFE78CF05120DFE64
:1013B300FECF05120DFE81D005120DFE8ED0051253
:1013C3000DFEADD005120DFED9D005120DFE43D38F
:1013D30005120DFE83D305120DFEBFD305120DFEBC
:1013E300D3D305120DFEECD305120DFEDED4051288
:1013F3000DFE91D505120DFEA5D505120DFE00803B
:1014030006120DFE248006120DFE3D8006120DFE0F
:101413007B8006120DFEAB8006120DFED8800612ED
:101423000DFE3E8106120DFE418106120DFE4B811B
:1014330006120DFE588106120DFEA8F205120DFECE
:10144300C8F205120DFE07F305120DFE25F3051272
:101453000DFE40F305120DFEA6F305120DFEB2F3C9
:1014630005120DFE0FF405120DFE1EF405120DFEFE
:1014730042F405120DFE03F505120DFE10F50512DB
:101483000DFE21F505120DFE7DFF01120DFEC5FFB8
:1014930001120DFEF1FF01120DFEB3DA05120DFE6E
:1014A3000DDC05120DFE1BDC05120DFE2EDC0512F4
:1014B3000DFE43DC05120DFE58DC05120DFE6BDC40
:1014C30005120DFEE7DC05120DFE4CDD05120DFEC7
:1014D300E2DD05120DFEBBDE05120DFECBDE0512AD
:1014E3000DFEDADE05120DFE3FFF03120DFE63FF54
:1014F30003120DFE8BFF03120DFEB3FF03120DFE4D
:101503004FF505120DFE76F505120DFE94F5051245
:101513000DFE03F605120DFED5EF05120DFEEEEFDF
:1015230005120DFEFAEF05120DFE0EF005120DFE6B
:101533002CF005120DFE36F005120DFE40F00512DB
:101543000DFE53F005120DFED9F005120DFE4EF1FE
:1015530005120DFE7DF105120DFECBF105120DFEF8
:101563001AF205120DFE35F205120DFE3FF20512B9
:101573000DFE50F205120DFE93F205120DFECD86FF
:1015830006120DFE42B105120DFE6EB105120DFEDF
:101593008BB105120DFE9EB105120DFEB9B10512F8
:1015A3000DFE13B205120DFE41B205120DFE51B62A
:1015B30005120DFEAFB705120DFEE1B705120DFEC4
:1015C30044B805120DFEB0B905120DFED8B90512C7
:1015D3000DFEEDB905120DFEFDB905120DFE3DBA66
:1015E30005120DFE7FBA05120DFE8FBA05120DFE10
:1015F300A28206120DFEBC8206120DFEE4820612C2
:101603000DFEFD8206120DFE218306120DFE3F83A1
:1016130006120DFE568306120DFE848306120DFE7E
:101623009F8306120DFEAC8706120DFE9AE2051289
:101633000DFEAAE205120DFEAFE305120DFEE1E376
:1016430005120DFE11E405120DFE34E405120DFE24
:101653004BE405120DFE85E405120DFEEAE40512C6
:101663000DFE2CE505120DFE73E505120DFEA0E53A
:1016730005120DFECBE505120DFEC2FD05120DFE92
:10168300E2FD05120DFEF6FE05120DFEF9FE051232
:101693000DFED78506120DFE0D8606120DFE25865C
:1016A30006120DFE678606120DFE778606120DFEE4
:1016B300BB8606120DFE1EC405120DFE61C4051283
:1016C3000DFEC6C405120DFEE5C405120DFE87C549
:1016D30005120DFE90C505120DFEE1C505120DFEA6
:1016E3000AC605120DFE17C605120DFE89C60512A0
:1016F3000DFE17C705120DFE5CC705120DFE95C73B
:1017030005120DFEFAC705120DFE23C805120DFEC4
:101713009AC805120DFEE9C805120DFE26C9051269
:101723000DFE5BC905120DFE6DC905120DFE7FC9C5
:1017330005120DFE9EC905120DFEA7C905120DFE69
:1017430063CA05120DFEA6CA05120DFEE4CA0512F0
:101753000DFEA1FF02120DFE628106120DFEA4F71B
:1017630005120DFED9F705120DFE21F805120DFE27
:101773007AF905120DFE008005120DFE2681051271
:101783000DFE628105120DFE208305120DFE4E83B0
:1017930005120DFEB88505120DFEF88505120DFE26
:1017A3009A8705120DFE308805120DFE8A880512F0
:1017B3000DFE1A8905120DFE5E8905120DFEA08924
:1017C30005120DFE058B05120DFE858C05120DFE0F
:1017D300C68E05120DFEF48E05120DFE208F051226
:1017E3000DFE298F05120DFE868F05120DFE1F902B
:1017F30005120DFE369305120DFEBC9305120DFE68
:1018030026FF05120DFE3CFF05120DFE46FF0512D5
:101813000DFE9CFB02120DFEB2FB02120DFE56FCE6
:1018230002120DFE95FC02120DFEB2FC02120DFE19
:10183300E3FC02120DFE30FD02120DFE64FD0212E6
:101843000DFE9FFD02120DFE94FF02120DFED784C2
:1018530006120DFE368506120DFE748506120DFE68
:10186300B58506120DFE008004120DFE0C800412D5
:101873000DFE6E8004120DFE788004120DFE0781AA
:1018830004120DFE438104120DFE3A8204120DFE72
:10189300978204120DFE258304120DFE7683041233
:1018A3000DFEF68304120DFEB88504120DFEBD87EE
:1018B30004120DFEB78804120DFEE98904120DFE11
:1018C3003B8C04120DFE7E8D04120DFE238E04123A
:1018D3000DFED69204120DFECC9304120DFE6294FB
:1018E30004120DFE879404120DFE249504120DFEBE
:1018F300419504120DFE619504120DFECF9504125D
:101903000DFEEC9504120DFE1A9604120DFEB2970D
:1019130004120DFED39704120DFE799804120DFEE6
:10192300C19804120DFE1F9904120DFEC2990412F0
:101933000DFE279A04120DFE869A04120DFE3C9B9F
:1019430004120DFEAB9B04120DFEE69B04120DFE6A
:101953005A9C04120DFEBB9D04120DFE529E0412EE
:101963000DFEF19E04120DFE4DA104120DFEAFA15A
:1019730004120DFE3CA304120DFE6AA304120DFE15
:101983008DA504120DFE37A804120DFE4AA90412F8
:101993000DFEBFBA05120DFED8BB05120DFE60BDCC
:1019A30005120DFE7ABD05120DFE8DBD05120DFE4D
:1019B300ACBD05120DFE75BE05120DFEDABF051294
:1019C3000DFEBAC005120DFE24C105120DFEEFC2B5
:1019D30005120DFE0BDF05120DFEC6DF05120DFE0F
:1019E3002CE005120DFE4DE005120DFE28E1051257
:1019F3000DFE2EC904120DFE5DC904120DFEE1C9D0
:101A030004120DFE44CB04120DFE2ECC04120DFE67
:101A1300EACD04120DFE0FCE04120DFE61CE0412A8
:101A23000DFEF3CE04120DFE3FCF04120DFE52CF76
:101A330004120DFEAFCF04120DFE7CD004120DFE76
:101A4300EED004120DFE25D104120DFE6ED1041248
:101A53000DFE16D304120DFEF5D304120DFE43D56D
:101A630004120DFE26D604120DFEB2D604120DFE8C
:101A7300EBD604120DFE0AD704120DFE55D704123D
:101A83000DFE75D704120DFE32D804120DFE55D982
:101A930004120DFEB0D904120DFEF6D904120DFE88
:101AA300FEDA04120DFE99DD04120DFEBFDD0412F1
:101AB3000DFE3ADE04120DFE5FDE04120DFED3DED0
:101AC30004120DFEB1DF04120DFEEFDF04120DFE52
:101AD30079E004120DFE60E104120DFE63E10412CD
:101AE3000DFE6DE104120DFE77E104120DFE93E18C
:101AF30004120DFE05E204120DFE3EE204120DFE79
:101B03006AE204120DFE91E204120DFEB5E2041224
:101B13000DFEF0E204120DFE63E304120DFE97E3E3
:101B230004120DFEA1E304120DFEDDE304120DFE0B
:101B330012E404120DFE31E404120DFE6687061250
:101B43000DFE7E8706120DFEF77F00120DFE5FADC0
:101B530004120DFE82AD04120DFEE0AE04120DFE62
:101B630029AF04120DFE95AF04120DFEF3AF04125C
:101B73000DFEF6AF04120DFE47B004120DFEBCB00D
:101B830004120DFE4CB104120DFE4FB104120DFEF2
:101B9300D0B104120DFE11B204120DFE36B60412BA
:101BA3000DFEE0B704120DFE34B804120DFEC3BBE4
:101BB30004120DFEFBBC04120DFECFBD04120DFE7C
:101BC30039BE04120DFE63BE04120DFE1CC00412C6
:101BD3000DFEFFC104120DFEAEC204120DFE4BC377
:101BE30004120DFE36C404120DFE9EC604120DFE31
:101BF300F8C704120DFE66C804120DFE1B940512ED
:101C03000DFEC59405120DFE309505120DFE4B9584
:101C130005120DFECC9505120DFE269605120DFE3E
:101C23006D9605120DFECC9605120DFEDE9705127C
:101C33000DFE079B05120DFE379C05120DFEBF9C82
:101C430005120DFEC89E05120DFE7A9F05120DFEAC
:101C530014A005120DFEE5A005120DFEA0A20512AB
:101C63000DFE3EA405120DFECBA405120DFEF1A53B
:101C730005120DFE04D902120DFE67D902120DFEE4
:101C8300AFD902120DFEF3D902120DFE4EDA021283
:101C93000DFEABDA02120DFEE6DA02120DFE68DB70
:101CA30002120DFEC2DB02120DFE40DD02120DFE1A
:101CB300B8DD02120DFED5DE02120DFEFDDE0212AC
:101CC3000DFE50E002120DFE61E002120DFE79E0FE
:101CD30002120DFE82E102120DFE5FE202120DFE00
:101CE3005CE302120DFE80E302120DFE97E3021283
:101CF3000DFEB8E302120DFEDAE302120DFEF9E364
:101D030002120DFED1E402120DFE2BE502120DFEAE
:101D1300C2E702120DFE1BE802120DFE3AE80212A0
:101D23000DFE2AE902120DFE60E902120DFE93EA8E
:101D330002120DFE12EB02120DFE4EEB02120DFE0D
:101D430088EB02120DFEF7EB02120DFEACEC021251
:101D53000DFE84EE02120DFE91EF02120DFE09F14B
:101D630002120DFEFFF202120DFE75F502120DFEB8
:101D73004FF702120DFE10F802120DFE88F8021240
:101D83000DFE9FF802120DFE96F902120DFE8AFA5D
:101D930002120DFEF9FA02120DFE8BE905120DFE79
:101DA3003BEB05120DFEFAEB05120DFE62EC05127C
:101DB3000DFE95FB04120DFEB3FB04120DFEF7FBA3
:101DC30004120DFE1DFC04120DFE44FC04120DFE54
:101DD3005CFC04120DFE74FC04120DFE16FD0412CD
:101DE3000DFE58FD04120DFEA5AD05120DFE84FE79
:101DF30004120DFE8DFE04120DFE96FE04120DFE5E
:101E0300A0FE04120DFED4DA03120DFEB9D505129D
:101E13000DFEF7D905120DFE05DA05120DFE0ADADD
:101E230005120DFE4FFC05120DFE628806120DFE13
:101E33009CFF05120DFEACFF05120DFEBC7B0012CC
:101E43000DFE008002120DFE328002120DFE9E80F6
:101E530002120DFE398102120DFED88102120DFE0F
:101E63004DD603120DFE3F8202120DFE588202125E
:101E73000DFE7E8202120DFEA08202120DFEDE8294
:101E830002120DFE228302120DFE448302120DFE86
:101E9300A68302120DFE6D8402120DFE248502122A
:101EA3000DFE968502120DFE688602120DFEB286A5
:101EB30002120DFE058702120DFE6B8702120DFE44
:101EC300A58702120DFEF78702120DFE1388021278
:101ED3000DFE3E8802120DFE458A02120DFE998BFD
:101EE30002120DFEBB8B02120DFEEF8B02120DFED2
:101EF300108C02120DFE1F8C02120DFE2A8C021290
:101F03000DFEDA8C02120DFE438D02120DFEF08DD2
:101F130002120DFE288E02120DFEEE8E02120DFE2F
:101F2300FB8F02120DFE459002120DFED490021299
:101F33000DFE389102120DFE739102120DFEDF9316
:101F430002120DFE339502120DFE6C9802120DFE65
:101F5300399902120DFEC79902120DFEF099021271
:101F63000DFE629A02120DFEF69A02120DFE549BAA
:101F730002120DFE469C02120DFE689C02120DFE1B
:101F8300C49D02120DFEDD9D02120DFEF09D021294
:101F93000DFE5F9E02120DFE6B9F02120DFE789FD7
:101FA30002120DFE819F02120DFE59A102120DFEB7
:101FB3007FA202120DFE8FA202120DFE91A3021246
:101FC3000DFE08A402120DFE37A402120DFE4CA54D
:101FD30002120DFE18A702120DFEF0AA02120DFE48
:101FE300FAAA02120DFE0EAB02120DFE18AB02127C
:101FF3000DFE22AB02120DFE2CAB02120DFE45AB01
:1020030002120DFE4FAB02120DFEC3AB02120DFE08
:10201300CEAB02120DFEF3AB02120DFEFEAB0212AB
:102023000DFE4CAC02120DFE56AC02120DFE61AC5D
:1020330002120DFE85AC02120DFEA9AC02120DFEBA
:1020430005AD02120DFE4BAD02120DFE68AD02127C
:102053000DFEE5AD02120DFE1CAE02120DFE5BAECF
:1020630002120DFEA8AE02120DFE2AAF02120DFEE1
:10207300C3AF02120DFE93B102120DFEF1B10212B3
:102083000DFE0DB302120DFE33B302120DFE72B438
:1020930002120DFE98B702120DFED9B902120DFEFF
:1020A300B5BB02120DFE4BBC02120DFE72BE021234
:1020B3000DFE1EBF02120DFE53BF02120DFEB8BF6E
:1020C30002120DFEC2BF02120DFEECC102120DFE82
:1020D30013C302120DFE53C302120DFEF9C3021203
:1020E3000DFE8AC502120DFE13C702120DFE33C781
:1020F30002120DFE8CC702120DFE8EC802120DFED7
:10210300D8C802120DFE28C902120DFE12CA02120D
:102113000DFE87CA02120DFEA1CB02120DFE1CCCCE
:1021230002120DFE21CD02120DFECCCF02120DFEC6
:10213300EBCF02120DFE4CD102120DFE0ED3021292
:102143000DFE62D302120DFE1AD402120DFEC9D483
:1021530002120DFE1FD502120DFED5D502120DFE81
:102163006AD602120DFED6D602120DFE10D7021247
:102173000DFE41D702120DFE9DD802120DFE008006
:1021830003120DFE328003120DFE698003120DFE51
:10219300528203120DFE358303120DFE8D8303124B
:1021A3000DFEC88403120DFE148503120DFE3C8838
:1021B30003120DFE9E8B03120DFEEB8C03120DFE1C
:1021C300818D03120DFE8D8D03120DFEBF8D031243
:1021D3000DFE418F03120DFEDC9003120DFE849160
:1021E30003120DFEC79103120DFE2D9203120DFE75
:1021F3004A9203120DFE7A9203120DFEAF9203125E
:102203000DFE7F9303120DFE289403120DFEAC9670
:1022130003120DFECC9703120DFEB59803120DFEAB
:10222300379903120DFE569D03120DFE939D031263
:102233000DFEEB9D03120DFE1E9E03120DFE9F9ECF
:1022430003120DFEEC9E03120DFE779F03120DFE8B
:10225300C99F03120DFEA0A003120DFE59A1031284
:102263000DFEF4A103120DFE0DA503120DFE2DA606
:1022730003120DFEDAA903120DFEF8AA03120DFED6
:10228300FBAA03120DFE2AAB03120DFE30AD03129F
:102293000DFE09AE03120DFE3EAE03120DFE46AF58
:1022A30003120DFEFCAF03120DFE9DB103120DFED2
:1022B300C2B103120DFE01B203120DFE73B203127B
:1022C3000DFE57B303120DFE24B403120DFE5AB6CE
:1022D30003120DFECBB603120DFE0BB703120DFE58
:1022E3006CB703120DFE2FBB03120DFE1EBC0312AF
:1022F3000DFE05BD03120DFE7DBD03120DFE3FBE97
:1023030003120DFE3DC003120DFE55C003120DFE58
:1023130069C003120DFEA1C003120DFECFC003124C
:102323000DFE56C203120DFE61C303120DFEB3C3AD
:1023330003120DFE14C403120DFEC6C403120DFED8
:10234300EDC403120DFED1C503120DFE82C60312A6
:102353000DFE71C803120DFEA6C803120DFE0EC9B1
:1023630003120DFE3DCA03120DFEEFCA03120DFE4A
:1023730020CB03120DFE38CB03120DFEC7CB031285
:102383000DFE7BCE03120DFE53D003120DFE6FD054
:1023930003120DFE8BD003120DFE59D103120DFE55
:1023A3003DD503120DFE018501120DFE3985011283
:1023B3000DFE178A01120DFE5D8A01120DFEAA8B16
:1023C30001120DFE158C01120DFE9E8D01120DFEE4
:1023D300AE9001120DFEC99101120DFEDB9B01129D
:1023E3000DFE6E9C01120DFEC09F01120DFEBCA0DE
:1023F30001120DFE17A101120DFE61A201120DFEC5
:102403004FA301120DFEEBA501120DFE5FA70112F2
:102413000DFEE2A701120DFEE5A701120DFE5AA85B
:1024230001120DFE64A801120DFE71A801120DFE2A
:102433009CA801120DFE4CA901120DFE45AA011222
:102443000DFEF0AA01120DFE0EAB01120DFE27AB1D
:1024530001120DFE50AB01120DFE72AB01120DFE07
:10246300C7AD01120DFE8CAE01120DFED1AE0112ED
:102473000DFE50AF01120DFEFCAF01120DFE2EB08A
:1024830001120DFE82B001120DFEBDB001120DFE50
:1024930004B101120DFE54B101120DFE59B1011226
:1024A3000DFEADB101120DFED9B101120DFEC2B286
:1024B30001120DFE13B301120DFE73B301120DFED3
:1024C300CDB301120DFE68B401120DFEA7B70112C0
:1024D3000DFEB9B801120DFE33BA01120DFE43BD54
:1024E30001120DFEE1BD01120DFED7C001120DFE5A
:1024F30096C101120DFEDAC101120DFE85C3011250
:102503000DFE99C301120DFEA3C301120DFEADC34F
:1025130001120DFEB9C301120DFEDEC301120DFE41
:10252300B7C501120DFE0CC601120DFE16C601122F
:102533000DFE20C601120DFE95C601120DFEE4C666
:1025430001120DFEF5C701120DFE42C801120DFE68
:102553004FC901120DFE93C901120DFE39CA0112B2
:102563000DFE2CCB01120DFEF2CB01120DFE15CD8B
:1025730001120DFE33CE01120DFE1BCF01120DFE13
:1025830033CF01120DFE8ACF01120DFE94CF01123B
:102593000DFE9FCF01120DFEBDCF01120DFE05D022
:1025A30001120DFE67D001120DFE8ED001120DFE39
:1025B300A0D001120DFE3BD101120DFE70D101120C
:1025C3000DFE57D201120DFE9CD201120DFE82D3D5
:1025D30001120DFEA9D301120DFE2CD401120DFE22
:1025E3009DD401120DFE26D601120DFE52D7011203
:1025F3000DFE15D801120DFEDDD801120DFE67D9AF
:1026030001120DFE8FDA01120DFE31DB01120DFEF8
:10261300ACDB01120DFE68DC01120DFEB2DC01120F
:102623000DFE0CDD01120DFEE4DD01120DFE07DED1
:1026330001120DFEBADE01120DFEDCDE01120DFEEB
:1026430045DF01120DFE5BE101120DFE53E20112A3
:102653000DFE17E301120DFE49E501120DFE93E590
:1026630001120DFEE3E501120DFE47E601120DFE18
:10267300A9E601120DFED7E601120DFEFBE60112DB
:102683000DFE30E701120DFE61E701120DFE94E726
:1026930001120DFEE4E701120DFE37E801120DFEF3
:1026A3005CE901120DFEFCEA01120DFE57EB01126B
:1026B3000DFE80EB01120DFE0DEC01120DFE7BEC05
:1026C30001120DFE89EC01120DFEADEC01120DFE9F
:1026D30002ED01120DFE1DED01120DFECFED0112F3
:1026E3000DFE07EE01120DFE4AEE01120DFEADEED8
:1026F30001120DFEAFF001120DFED9F001120DFE15
:10270300D0F101120DFEDAF201120DFE8AF301126D
:102713000DFE68F401120DFEA0F401120DFEC1F4CA
:1027230001120DFE03F501120DFE65F501120DFEFA
:102733006FF501120DFE7FF501120DFEBAF50112C0
:102743000DFE9AF901120DFE87FB01120DFE6DFDC0
:1027530001120DFE04FE01120DFEA6FE01120DFE76
:10276300A63300120DFE513400120DFEFF34001289
:102773000DFE053600120DFE253600120DFE4E37F6
:1027830000120DFE093900120DFE7C3900120DFEF8
:10279300203A00120DFE2C3B00120DFE973B001257
:1027A3000DFED33B00120DFE163C00120DFE513CF4
:1027B30000120DFE933C00120DFE283D00120DFE8B
:1027C300A43D00120DFE6E3E00120DFE4B3F0012A3
:1027D3000DFEE33F00120DFEFD3F00120DFE2D40E6
:1027E30000120DFE5E4000120DFE244100120DFE8C
:1027F300344100120DFE834100120DFE9041001280
:102803000DFE994100120DFE174200120DFE734298
:1028130000120DFEBE4200120DFED94200120DFE43
:10282300044300120DFE214300120DFE2D4300123E
:102833000DFEC44400120DFEDD4400120DFE624580
:1028430000120DFE754500120DFE944500120DFE9B
:10285300384600120DFEB94700120DFE6C490012F6
:102863000DFE024A00120DFE054A00120DFE754AC6
:1028730000120DFE934A00120DFE2A4B00120DFEAC
:10288300724B00120DFE754B00120DFE3B4C0012F5
:102893000DFEA84C00120DFECE4C00120DFE594D3C
:1028A30000120DFE774D00120DFEBD4D00120DFE00
:1028B300714E00120DFEBB4E00120DFEEA4E0012C9
:1028C3000DFE474F00120DFE7C4F00120DFEA84F68
:1028D30000120DFEB64F00120DFE035000120DFE46
:1028E300735000120DFEBC5000120DFE0851001271
:1028F3000DFE345100120DFE3F5100120DFE5D51CD
:1029030000120DFE485200120DFE525200120DFE2F
:102913008D5200120DFE9D5200120DFEF152001257
:102923000DFE055300120DFE345400120DFE4954E2
:1029330000120DFED75400120DFE1C5500120DFEA1
:10294300A85500120DFEB35500120DFEF5560012E8
:102953000DFE105700120DFE5C5700120DFECB57F3
:1029630000120DFE045800120DFE1E5800120DFE3B
:102973007E5800120DFE1D5900120DFE68590012FB
:102983000DFE385C00120DFEEA5C00120DFE575D71
:1029930000120DFE975F00120DFEAF5F00120DFED9
:1029A300B25F00120DFEBE5F00120DFED25F001279
:1029B3000DFEDA5F00120DFE0D6000120DFE1061B8
:1029C30000120DFE9D6100120DFE0D6200120DFE40
:1029D3008F6200120DFE506300120DFE6F63001232
:1029E3000DFE106400120DFE6D6400120DFE706486
:1029F30000120DFEE46400120DFE336600120DFE9C
:102A0300396700120DFEC46700120DFEDF68001265
:102A13000DFEA76900120DFED86900120DFEFB69B9
:102A230000120DFE046A00120DFE336A00120DFE41
:102A3300C36A00120DFE796B00120DFEEE6B0012DD
:102A43000DFE956C00120DFE0A6D00120DFE416D18
:102A530000120DFE7F6D00120DFE8BD703120DFECB
:102A63003EAD05120DFE23AD05120DFE80AC051221
:102A73000DFE80AB05120DFE9EAA05120DFE8EA85B
:102A830005120DFE9CA705120DFE3AA705120DFEB9
:102A930081FB04120DFE77FB04120DFE0CFB0412E6
:102AA3000DFEC1FE04120DFEDFD603120DFE40F92A
:102AB30004120DFEFEF804120DFE07D603120DFEDE
:102AC300D2D503120DFE0AF804120DFEDEF704122E
:102AD3000DFE95F704120DFED6F604120DFEAEF3AD
:102AE30004120DFE52F104120DFE22F104120DFE2A
:102AF300D2F004120DFE6CF004120DFE2BF0041242
:102B03000DFE5DEF04120DFEF7EE04120DFE96EEC0
:102B130004120DFE36EE04120DFED4EC04120DFE6B
:102B230068EC04120DFEBCEB04120DFEB7EB0412AD
:102B33000DFEA0EB04120DFE9FD503120DFE6BEBF1
:102B430004120DFE8AD503120DFE5FD503120DFE8E
:102B5300FCB005120DFEC8B005120DFE71B00512D2
:102B63000DFEFAAE05120DFEFDE704120DFEFAE7A7
:102B730004120DFEB8E704120DFE4CAE05120DFE55
:102B8300A5E704120DFE9AE704120DFE69E704128D
:102B93000DFE61E504120DFE1D8202120DFED4E44A
:102BA30004120DFEAFAD05120DFE90E404120DFEEE
:102BB30064E404120DFED2FE03120DFEA5FE031201
:102BC3000DFE72FE03120DFE4AFE03120DFEEBFD17
:102BD30003120DFECBFD03120DFE96FD03120DFE37
:102BE30042FA03120DFE2AF803120DFE14F6031225
:102BF3000DFE94F503120DFE40F503120DFE4CF489
:102C030003120DFEF4F403120DFE7BFE040000001C
:102C130080FB000022E4738F000100BA1E870001CD
:102C230000B81E350004007E1E25000200821E2609
:102C3300000200841E27000200861E280001009067
:102C43001E29000100911E84000400A81B860001B8
:102C530000221E2A000100921E2B000100931E2C4D
:102C6300000100981E2D000800B61B2E00010099DC
:102C73001E2F0001009A1E300001009B1E3100012F
:102C8300009C1E32000100BE1B33000100BF1B3439
:102C93000001009D1E36000100C01B380001009E8C
:102CA3001E39000100971E83000200B61E63000157
:102CB30000CB1B64000100941E65000100951E6D8E
:102CC300000100CC1B71000800AE1B66000100B5BB
:102CD3001E43000100A61E44000200A71E4500017A
:102CE30000A91E46000200AA1E47000800C31B4895
:102CF300000100AC1E4B000100AD1E04000100B931
:102D03001EA1000100BD1E37000100BC1E8800018A
:102D130000BB1E3C000100C11B3D0001009F1E497A
:102D2300000200AE1E67000100CD1B4D000200B083
:102D33001E4E000100B21E4F000200B31E3E0001F2
:102D430000A51E51000100A11E52000100A21E5346
:102D5300000100A41E54000100C21B00000000007B
:102D630000000136360101000102010001030100E8
:102D730001040106060502000007010034080100F2
:102D83000F090401010D0100FF0E080000170200E6
:102D930000190100FF1A0100011B0100FE1C0100C4
:102DA300081D0200001F0100012001000121020093
:102DB300002301000F240200002601000127010067
:102DC30008280200FF2A0100072B0102402C010002
:102DD300002D0100012E0100012F0100FF30010B26
:102DE3001D310800003A0100083B01000F3C0100BF
:102DF300013D0100FF3E04000042040000460400C0
:102E0300004A0400004E040000520400005604006F
:102E1300005A040000000000002001FF84000001AC
:102E23000020010085000002002001FB8400000354
:102E3300002001FC840000040042011F84000005FF
:102E4300004201848300000600420112840000074F
:102E5300003001FD8400000040420112840000FDA7
:102E6300FF2101F7842A0400003905841A2A04C8C3
:102E7300003905881A2A04C90039058C1A2A040165
:102E8300022123541E2A0421022123481E2A04223C
:102E93000221234A1E2A04200210234C1E2A042541
:102EA3000210234D1E0103710301030103010301FA
:102EB30003010322030203010310030003000300C1
:102EC300030003000300030003420300032403067B
:102ED3000300030003040312032503230325032331
:102EE300030403040300030003000344030003007B
:102EF3000323030003650321003503810300030556
:102F030003000300030003000325032303030271EB
:102F13000230016002110270020102020202028009
:102F230002100261023A00410063027302720262FC
:102F330002430200021302380000020002040212DC
:102F430002000200020002000204020402370037FA
:102F5300003C024402000239000002000265020044
:102F6300023502810200020502820283020002018D
:102F7300017101010101011101010131010101018E
:102F8300018001100161013B0014006301730172B0
:102F930001620143010001130106013D01350004F3
:102FA30001120100010001000100010401040133C9
:102FB3000133013C01440132013600000100016587
:102FC3000100013500810100010501820183010037
:102FD3000103047104020460041104700402040276
:102FE3000401040204100461040004140463047360
:102FF300047204620443040004130406040004007E
:1030030004040412040004000400040004510464D2
:10301300000004000400044404000400040004004D
:10302300046504000435048104640005040004837A
:1030330004000403007100300160001100700031CE
:10304300022003500480001000610000001400639C
:1030530000730072006200430000001300060000CA
:103063000000000400120000000000000000000443
:10307300000400370037003C024400000000000059
:10308300000000650000003500810000000500001D
:10309300008300000036000100060000000F00005E
:1030A300000000000000000000000003FFFF00001C
:1030B3000403FFFF0000FFFF0FF4010005C4040336
:1030C30020000100000B00000000000000000301CD
:1030D3000F000000000000000000000000000000DE
:1030E30000000000000000000000000000000000DD
:1030F3000000004A197A1950198418561980195674
:10310300198C195C198418561980196219841800CE
:1031130000000068198418000000006E19841874F8
:1031230019841800000000000000000000000000E7
:10313300000000000000000000000000000000008C
:103143000000000000000000000000000000001369
:1031530000C61B1F00CC1B1F80D21B00002C1C01B0
:10316300002C1C0200721B02806C1B0300781B04E2
:10317300007E1B0480841B05008A1B0600961B31FE
:1031830000A81B3300AE1B3400B41B3600BA1BFF70
:10319300FF00000A00000002000000040000000815
:1031A300000000100000002000000040000000802C
:1031B3000000000001000000020000000400000005
:1031C3000800000010000000200000004000000183
:1031D300E223061224080C240B302410302102E8C9
:1031E3002305002407EE230CCA230DD62364261FD0
:1031F300FF0000030003000400080010001F003E4E
:10320300007B00F600EC01D703AF075D0FB91E7119
:103213003D000007ECFDFDFDECDCDCCCBCACAC9C64
:103223009C8C7C7C6C6C5C5C5C4C4C3C3C2C2C1C0B
:103233001C03EAF5E5D5D5C5B5A5959585857575C1
:103243006565555545453535252515150500160F75
:1032530000000B150B020002220F3300000E0F5A61
:103263006967426565416C6C69616E6365303900FD
:10327300000000000000000000000000000000D07B
:10328300D1D2D3D4D5D6D7D8D9DADBDCDDDEDF0093
:10329300034D4C4651181A250502303016181920D3
:1032A300231A1C1E30003C40423A3F3F392F47301F
:1032B30000011916181616182303003030171819B1
:1032C30021301B1D1F300C0E020B040B0A070800D4
:1032D3000F02040201010101090200BE040AE8030E
:1032E3000000E8030000010003007F0000000E005F
:1032F300000404080405030A0C101208091E0C2814
:10330300FF03100209033C0C050815001EE4F0A39B
:10331300F0A3F0A322123310F022901D1412491CC3
:103323001227CC2212332B22E0F508E4F509F50A23
:10333300F50B22E824FBF582E934FFF58322E82428
:1033430011F582E439F583E022F58312335222E04A
:10335300F508A3E0F50922122A487404120E2E7F01
:1033630008020BFA7401F0900B5EE0640F227409FB
:10337300120E2E7F04020BFAEA2413FAE43FFB1227
:103383002976E9227905122982740622A3A3E0246F
:10339300F5C3941322122A54900B7E1268DA7A141E
:1033A3007B0022C082C083901CF374C0F0A37427F7
:1033B300F0A374D2F0A37427F0901CF774A8F0A3C1
:1033C3007427F0A374A2F0A37427F0A374DEF0A310
:1033D3007427F0A374E4F0A37427F0A374D8F0A3C4
:1033E3007427F0A37490F0A37427F0901D0374B4B2
:1033F300F0A37427F0A374BAF0A37427F0A374AEF8
:10340300F0A37427F0A374EAF0A37427F0901D14BB
:103413001252EB6009901D14124918121770901D77
:1034230011124C327408125F87A3F0901DBDF09007
:103433001D16F07C0BFDF97A177B1D1216C27C0B4F
:103443007D0079007A227B1D1216C2024A8C74F722
:1034530012095074F7120EE1EAFEEBFF1234E47422
:1034630005124D507403F01235FB124D322430FC1B
:10347300E43FFD8C821234DC1234F06008123D0903
:1034830074FFF0A3F0EE242EE43F1C1CFD8C82F5A8
:1034930083A3E0C0E08A828B831249E4D0E0123434
:1034A300F08882898312521F2403F0EE123D131217
:1034B30011577403F0900B73120C837402120ED91C
:1034C3001238DD120E2EE9F5087007EEFAEFFB1243
:1034D300285CA9087409023D22F583E08882898368
:1034E30022EA1234E92212542E3FF5832212620794
:1034F300124D3EE8F0A3E91264DEE02274F01209F3
:1035030050EAFEEBFF8C0C8D0D890B1235FBF58316
:10351300124D467410121157E0F508A31234DEF071
:10352300E824FFF582E91238EFE508F0E824FEF518
:1035330082E91238EFE50BF0900B78E0C0E0E82465
:10354300FDF582E91238EFD0E0F0900B77E0C0E0B0
:10355300E824FCF582E91238EFD0E0F0741212117E
:103563005712334E123336E509F0E824FAF8E934FA
:10357300FFF98882F583E508F0EE2404FCE43FFDBF
:1035830088088A828B83E0F50E8C828D83E0250E7A
:10359300C39508126207124B6C850C82850D83A3B9
:1035A300A3A3A3A3A3A3A3E064037009EE124D2076
:1035B300F0A3E480031238F41238FC7409F07508A0
:1035C3001775091D750A007808120E17125CD112BF
:1035D3000E2E7508FF7509FF7808120E1BAC0CAD93
:1035E3000D1238DD120E2EE9F5087007EEFAEFFB27
:1035F30012285CA908023362EA2402FAE43FFB8A38
:103603008222C082C083901D33E0C39408400474B7
:10361300078001E08A828B83F033333354F8F90255
:103623004A8C74F01209508A088B09890A8C0E8D12
:103633000F750C00A2AFE433F50BC2AF901D2D80C4
:1036430045123727503D12374164037036E508248D
:10365300F9F508E50934FFF5098E828F83A3A3E00A
:103663002405FCA3E03400FDAA08AB09121860E5A9
:103673000824FFF508E50934FFF5097410250CF556
:103683000C150A123B16126C8FE50A6004EE4F709C
:10369300B0E50BA2E092AFA2AFE433F50BC2AF905B
:1036A3001D2D803E1251F88882F58312446C8508E3
:1036B30082850983F08A828983123738A3A3E0C005
:1036C300E0E50824FFF582E5091238EFD0E0F0E5E4
:1036D3000824FEF508E50934FFF509050C150A125F
:1036E3003B1612396A6021123741640270F11237B6
:1036F30027EE40B0124E67A2E550E4850E82850F97
:10370300837401F0E50A70D7E50BA2E092AF850858
:1037130082850983E50CF0E50824FFFAE50934FF07
:10372300FB02336212372DA2E622EE2411F582E466
:103733003FF583E02212373C2212523DA3228E82B0
:103743008F83A3A31249E81259142274F01209506B
:1037530074F3120EE17403121157E9F0740212119B
:1037630057EAF08B0B852182852283E4F004120E45
:10377300D1122772E9F8900B5DE0292437F508FA96
:103783007B001216D48A0C8B0DAE0CAF0DEA4F7072
:10379300030238D4EA2402F50EE43FF50FA808EA41
:1037A30028F8E43BF9850E82850F83124268900B5B
:1037B3005DE0F9FAC3E49AFA95E0FB850E82850F82
:1037C30083E02AF50CA3E03BF50D900B5B12334E1F
:1037D300750A007808120E17E9FC7D00AA0CAB0DE0
:1037E300124CA2120E2EAC21AD227401121157E01D
:1037F300F9E50C24FFFAE50D34FFFB1227788A82E2
:103803008B83E4F0E50BC454F0F9901DBEE0C433A0
:103813003354C0F8900B57E0A2E0E4331313484944
:10382300440FC0E0EA24FFF582EB1238EFD0E0F05A
:10383300EA24FEF50CEB34FFF50D7403121157E087
:10384300F87402121157E0C454F048850C82850DB8
:1038530083F0A80C850E82850F83125F542AC398C8
:103863008E828F83A3A3A3A3F0850E82850F83E8A3
:10387300F0A3E50DF01238F41238FCE4F0740C12E6
:103883001157E4F075082275091D7808120E1712F6
:103893005CD1120E2E852182852283E06009EE24FD
:1038A3000E124E694408F0122964E9F9E4F508F5AB
:1038B300097808120E1B7406120ED91238DF120E85
:1038C3002EE97006EEFAEFFB800BEEFAEFFB121611
:1038D300DA7A007B00740D02335F7903EEFAEFFBB3
:1038E30012297C740222EE24FFF582EF34FFF58364
:1038F30022EE1234E9E4F0A322F012390122EE128F
:103903005BF43FF5832274F21209508A0C8B0DA2EB
:10391300AFE433F50AC2AF750800750900901D2D99
:10392300802C123B265024850C82850D83A3A31281
:103933005CE48E828F83A3A312491812296AE9607B
:103943000A123B21C2E6F08E088F09123B16123988
:103953006A70CFE50845096006123A03D2E6F0E53E
:103963000AA2E092AF800DE0FEA3E0FFEE4F2274C7
:1039730002120E2E7F06020BFA74F01209508A0E01
:103983008B0F8C0C8D0D750A00A2AFE433F50BC2BF
:10399300AF7E007F00901D2D8010AE08AF09123955
:1039A300FB124E67D2E7F01248F612490A6034124E
:1039B3003A03A2E750F1850882850983A3A3120C79
:1039C30083AC0CAD0DAA0EAB0F1229707402120E4C
:1039D3002EE960D3EE4F60C2123D9D7006123A1578
:1039E300D2E4F0E50BA2E092AFEE4F600612285648
:1039F300750A01A90A02336212372DD2E4F0EE22CE
:103A0300E508125C0E3509F583E022AA82AB831226
:103A130018608E828F83A3A31249E8E02274F21206
:103A2300095074FE120EE1750C00750D008521829C
:103A3300852283E4F0A3F0A2AF33F50AC2AF901D51
:103A43002D126C8F802BEE24FBF582EF34FF1233A3
:103A53004C780C120E1B123B04120E2EEEFCEFFDE3
:103A6300AA21AB221216F8AE08AF09901D33E01459
:103A7300F0EE4F602B123B26501DEE240BF8E43F73
:103A8300F98882F583E024FFF0A3E034FFF0888215
:103A930089831252EB60AF8E0C8F0D123B1680A1FF
:103AA300E50AA2E092AF901D33E0602C900B5EE03C
:103AB300640F6006901DBDE0701E7A0B7B1D122AF9
:103AC300549084F3120C7F7A0B7B1D124B14120E4D
:103AD3002E800574F01249F5AA21AB221216FE8A34
:103AE300088B09AE08AF09EA4F6013122784123B13
:103AF30021A2E28E828F83A350D974E980D7023941
:103B030072EEFCEFFD7A2D7B1D12170A7402228ED2
:103B13000A8F0BEE24FBF582EF34FFF58322EE12BE
:103B2300372E2212372DA2E72274F7120950EAFE2C
:103B3300EBFF1227841249E1122C18E96401900B60
:103B43007A700AE02401F8A3E03400800312496785
:103B5300F9125069124B6C901D33E0701F900B5E8D
:103B6300E0640F70177A0B7B1D122A549084F312B2
:103B73000C7F7A0B7B1D124B14120E2EA8A8C2AF1A
:103B8300901D33E004F0E8A2E78004E508A2E09288
:103B9300AF024F7774F7120950EAFEEBFFEA123BCC
:103BA300CDF0122784EEFCEFFD7A2D7B1D12170456
:103BB300A8A8C2AF901D331244BB900B5EE0640F04
:103BC3007005790812291C024F7712372EC2E4229E
:103BD30074F712095074EA120EE1EAFEEBFF900B40
:103BE30057E0602A8521828522837401F0121157E0
:103BF300E4123C88121157123A0EC0E0740A1211F3
:103C030057D0E0125F74740B1211571251D474160B
:103C1300023D2274F7120950EAFEEBFF122766E910
:103C2300F974DC69601E74DD69601974E4696014F9
:103C330074F369600F74DE69600A74DF6960057488
:103C4300DB697007EEFAEFFB122922024F7774F754
:103C530012095074EB120EE1EAFEEBFF8521828517
:103C630022837406123C88121157AA82AB8312185E
:103C730060EE2408FCE43FFD740A1211571251D47C
:103C83007415023D22F0EA2413FCE43FFD74022282
:103C930074F712095074F7120EE1EAFEEBFFEA24FF
:103CA30030124E69605DEA123D131211577403F02E
:103CB300900B73120C83123D09120C83900B86E058
:103CC300F97404120ED9EEFAEFFB12276C74041286
:103CD3000E2EE9F974DC69602374DD69601E74E4F7
:103CE30069601974F369601474DE69600F74DF69C5
:103CF300600A74E869600574DB697007EEFAEFFB2C
:103D03001229220234D7EE242EF582E43FF58322D2
:103D13001260E5AA21AB2212186074082274031200
:103D23000E2E024F7774F21209508A0C8B0D750A0E
:103D330000750B007508E7A2AFE433F509C2AF9035
:103D43001D2D8003123B1212396A6025123B265047
:103D5300F3123D9D70EEEE2432123F34E06870E4BE
:103D6300780A120E1B123B04120E2E901D33E01420
:103D7300F0E509A2E092AFEE4F6013EEFAEFFB120B
:103D8300278479F0EEFAEFFB122922750800A908BF
:103D9300AA0CAB0D122922023977123901E0640112
:103DA3002274F412095074F7120EE1EAFEEBFF8A53
:103DB30082F583A3E064F37003023E428A828B831D
:103DC300A3E064DF60798A828B83A3E064E8606F99
:103DD3008A828B83A3E064DB60651227C6E9F5085A
:103DE3007055EE240E124E69604D123E4C604874BD
:103DF30008121157123E5B120C837508FF7509FFF9
:103E03007808120E1B8E828F83A3A3A3A3A3A3A35D
:103E1300A3E0F97404120ED912276C7404120E2E47
:103E2300E9F50874F369600F74DF69600A74E8697F
:103E3300600574DB69700F8E828F83A3E508F0EE53
:103E4300FAEFFB1227D2023371EE240FFAE43FFBA1
:103E53007909122808EA4B2274021256DA74FFF029
:103E6300A3123E6822125228A3A32274F11209500E
:103E7300EAFEEBFF7508008A82F583A3A3A3A3A33D
:103E8300A312338F40037508E88A828B83A3A3A30D
:103E9300A3A3A3A3A3A3A3E0C3941040057508E8B9
:103EA30080138A828B83A3A3A3A3A3A3A3A3A3A304
:103EB300E0640F600B901D9AE0540870037508E8E6
:103EC300EA240B123F34A3A3A3A3A3A3A3A3E0C396
:103ED30098500DEA240B124E69640F60037508E8CD
:103EE300900B77E0F47003A3E0F470037508EC7AA9
:103EF300237B0012176A8B0BA90B901D14123F43EF
:103F030060278E828F83A3A3A982AA83890C8A0D3B
:103F1300750E00780C120E177C237D00901D14E0A3
:103F2300FA124CA2120E2E800375081AA908025C1D
:103F3300CCF582E43FF583E0F88A828B83A3A32246
:103F4300EAF0A3EBF0EA492274F5120950EAFEEB1A
:103F5300FF8A82F583A3A3A3A3A3A3A3A3E0900B48
:103F63005E123FDBE0900B79F0EA240B124E69906E
:103F73000B59123FDBA3E0901DBEF0F912152A90F6
:103F83001DBEE0600BEE2404124E5B2406123FD1EB
:103F9300901DBD1233676004740180027400901D8C
:103FA3001612661F120E177C0B7D007A177B1D12EB
:103FB3004CA2120E2EEE2418F508E43FF5097808FA
:103FC300120E177C0B7D007A227B1D024C8FFAE4C4
:103FD3003FFB79E112151222126609A3A3A3A322C0
:103FE30074F7120950EAFEEBFF8A82F583A3E070AF
:103FF3000312331D126190024F7774F7120950EACE
:10400300FEEBFF901D141252EB6010901D14124929
:1040130018901D14E4F0A3F01217708E828F83742E
:10402300081249FC121E0C024F7774F612095090C5
:104033001DBDE06010901D16E0700A12404BEA4B64
:10404300600312285C02628A900B59E0FB900B79A3
:10405300E0FA900B5EE0F912277E2274F412095005
:1040630074E7120EE1EAFEEBFF750B018A82F5831A
:10407300A3A3A3A3A3A3A3E0A2E25069EA242BF57D
:1040830082E43F125CE2EA2413FAE43FFB12278A3C
:10409300E97052908457E064017005750B00804508
:1040A30012411D120E177C0B7D007411120ED112DA
:1040B3004CA2120E2E122964E9FA740E120EC9884C
:1040C3000889097808120E1B7508307509007808ED
:1040D300120E1BEE125F3D120C831260D779011290
:1040E3003389120E2E8521828522837410F012608B
:1040F300D77402121157AA82AB83121854EE242BE1
:104103001268D0740B121157124B6C740D121157A5
:10411300E50B1263497419023373EE240812662700
:1041230022C082C083901DBEE060031229D6024ADA
:104133008CC082C083901DB574F3F0A3741CF0A3EC
:1041430074F7F0A3741CF0A37403F0A3741DF09030
:104153001EF374D4F0A3742FF0901D9F7460F0A32A
:104163007427F0901D387496F0A37427F0901D3ACD
:10417300749CF0A37427F0901D9AE04402024590CA
:10418300C082C083EAFCEBFD7903025297C082C070
:1041930083790802640AC082C08374FE120EE19020
:1041A3001D407444F0A37428F0901D42743EF0A3A4
:1041B3007428F080077A2D7B1D1241F5901D2D1276
:1041C30052EB70F1901D2F1252EB60097A2F7B1D79
:1041D3001241F580EF901D2DE4F0A3F0901D33F014
:1041E300A3F0A3F0901D4E7480F0A37428F0740222
:1041F300801C1216FE852182852283EAF0A3EB122E
:10420300420912295222F0AA21AB22227411120E62
:104213002E024A8C74F6120950E9FF74A829F5821C
:10422300E43432F583E493FEFA7B001216D4EA4BAE
:104233006007EA2E12426580267A027B001216D4AA
:10424300EA4B601774BE2FF582E43432F583E493AE
:104253008A828B83F0A3741A12462E7A007B0002A3
:10426300628A124B5BE8126204A3A3A3A3E4F022C5
:10427300E9FC740629F8EAA2E0501EE875F00A8406
:10428300E5F0F96014740A28C399F8E9C39405406A
:1042930004740A28F8740B28F8ECC39413400479C7
:1042A3001480027906E82979002409F85001097A73
:1042B3000A7B00120654E8F9020DFBC082C083900A
:1042C3001D9AE05402600A121E12E960047901800B
:1042D300027900024A8CC082C083901D9AE0540286
:1042E3006014901D33E0700A1252E860091242FE16
:1042F3005004790180027900024A8C123341A2E70B
:1043030022C082C083908454E0F8901D35E0C398A6
:1043130050051216D480047A007B00024A8CC082B6
:10432300C0831229527900024A8CC082C08374FE72
:10433300120EE1852182852283EAF0A3EB124497D2
:10434300A3A3A3A3A3E0600A14605724FE605A0248
:104353004407900B5EE0640F6012122928E9700C89
:10436300124912901D3C1249E4122C18900B86E05E
:10437300C0E085218285228312520BD0E01244973C
:104383007414125C28FCA3E0FD7A2F7B1D1216F82F
:10439300A8A8C2AF901D351244BB792012291C0274
:1043A30041F1124765741580D9124765A3A3A3A3EE
:1043B300E06051124765123A19C0E08521828522D7
:1043C30083E02406F582E43BF583D0E0125C2824E5
:1043D30002F8A3E03400F98882F583E02401FAA30C
:1043E300E03400FB88828983EAF0A3EB125C281295
:1043F30047A5852182852283601312446C600512D0
:10440300447E4048AA21AB22122952809212446C66
:1044130060F212447E502112448BFA852182852258
:1044230083A3E0C82406124761F874D312542034DE
:1044330032F583E4936A60148521828522831244D2
:104443006C640870BF12448B640870B812448B14F8
:1044530012449F240AC0E08521828522831249E405
:10446300D0E012449F04024385124470221249672C
:10447300C82406F582E438F583E02285218285226B
:1044830083124470C3940A228521828522831237C2
:104493003CA3E0221244A9F5838882221244A9C8CE
:1044A300240612478F22F0852182852283124967D1
:1044B30022A8A8C2AF901D34E004F0E8A2E792AFAF
:1044C30022C082C083901D441252EB600812476CD5
:1044D300122C1880027900024A8C74F7120950EAF0
:1044E300FEEBFFEA1239027401124B1AF8A3E0F94A
:1044F3001234E4124B6CEA2435124E69C0E0EA240C
:1045030013F582E43FF583D0E0F0EA2436124E69D6
:10451300C0E0EA2414F582E43FF583D0E0F0EA2416
:1045230038124E69C0E0EA2418F582E43FF583D0DF
:10453300E0F0EA242FF582E43FF583120C83126046
:10454300E4EA2431124E69F91238E3120E2EE9F52A
:10455300087007EEFAEFFB12285CA908024F77C038
:1045630082C083122928E96004792080027901023C
:104573004A8CC082C083EA2411124586D2E0800DA2
:10458300EA240DF582E43BF583E022F0A3F0024A2E
:104593008CC082C083124583640170111246284087
:1045A3000C8A828B83A3E0F91229228066124619B2
:1045B300A2E650128A828B83A3E0F9901D3E124932
:1045C300E4122C18804D1245836401700D124628A5
:1045D30050088A828B83743080368A828B83A3E06F
:1045E300641B8A828B83700474228024A3E0700D81
:1045F300124583F8749D1254203432800B12458384
:10460300F874BE1254203432F583E4938A828B8388
:1046130012462E024A8C12461D22EA2410F582E429
:104623003BF583E02212461DA2E322F0901D95E0A4
:10463300F91216E02274F7120950E9FE1252E870DB
:104643000302475EEE6014741B6E701AE8125BF48B
:1046530039F583E064057003024736901D3712472E
:104663006CA3E402473D74E96E7068E82412F58296
:10467300E439F583E0700B121E18E960051247AFA9
:10468300606179EE121494901D36124786901D36A0
:10469300603A1247B2901D36700B12478614F0121F
:1046A300164A02475E1247A4C2E712494D240D126F
:1046B30047616403700912477F124903D2E2F0791C
:1046C300ED121494124797122C18807812477274C3
:1046D300E9806774E16E703E121E18E96055124757
:1046E300AF7050900B80E0C0E012477F2412F58238
:1046F300E438F583D0E0F0900B6FE0C0E0901D3616
:1047030012477B12477BD0E0F0900B6FE004F07907
:10471300011216328045741C6E7018901D361249B2
:1047230018901D461249E4122C18901D36E4F0A38C
:10473300F08028901D36124772EEF0901D36124914
:104743001812284A12492EE0548060031263F9902C
:104753001D36E4F0A3F0791012291C024F7712479B
:104763008F22852182852283A3E0F583888222120A
:104773004776221249ECA32212523922901D361297
:10478300521A2212521A241212478F22F582E43847
:10479300F583E022901D3612491C901D3A1249E818
:1047A30022E0F8A3E0C8241012478F22901D36128E
:1047B3004935E054042274F4120950750A00750B4C
:1047C30000A2AFE433FEC2AF1252E860030248AC6A
:1047D3001249E1122C18E94410F8901D2D80098527
:1047E300080A85090B1248F612490A70030248ACFD
:1047F300123A03586870E8780A120E1BAC08AD0928
:10480300123B08120E2E901D36E508F0A3E509129F
:10481300494D124903A2E750030248B3901D34E007
:1048230014F0EEA2E092AF901D36E0240EF8A3E060
:104833003400F9E8FEE9FF8882F583124918901DD8
:1048430036124491F912280EE9901D31125F878EBA
:10485300828F83E05480601812477F2413124761CC
:10486300F912154E12477F2414124761F9121542AB
:1048730012492EA3E05401605F901D311252EB6088
:10488300451249446040124944F87900901D3112A1
:10489300491812065CE8C0E0124922D0E0124952DE
:1048A300C3941340117402800FEEA2E092AF8037DD
:1048B300901D330248227400C0E0901D37E0C812F7
:1048C30048EDD0E0800D124922740112494D12487F
:1048D300ED7401F07903800C901D361247A4A2E118
:1048E300B3E433F9121632023376241AF582E4382C
:1048F300F58322E50824FBF582E50934FFF58322DD
:10490300125C0E12479222123352E50845092285A2
:10491300218285228312491C22E0FAA3E0FB2212A2
:1049230052172419F582E438F58322901D36124973
:104933003522124967C812493D2212542E38F58395
:1049430022125217241812478F2212495FC82212CB
:10495300495FF5838882A3A3A3A3E022F0901D36C9
:1049630012496722E0F8A3E02274F7120950EAFE25
:10497300EBFF12294C124E66A2E3400A123D9D70D2
:10498300059084528003908453E0F9EEFCEFFD7AA6
:104993002D7B1D121710E96038EEFAEFFB901D40D6
:1049A3001249E4122C18EE240E124E6954047012AC
:1049B3001244B4EE1234E5A3E05401701E122856DB
:1049C3008019EEFAEFFB901D381249E4122C18807F
:1049D3000A8E828F83A374F11249F5024F77901DDB
:1049E300421249E8221249EC22E0F8A3E0F5838859
:1049F30082221249FC12284A22F0EEFAEFFB22022D
:104A03004A8574F7120950EAFEEBFF7900901D9A6C
:104A1300E05402700CEA2433124E695404600279A4
:104A2300E8901D9AE05460700CEA2433124E6954E6
:104A330002600279E88A828B83A3A3A3A3E0F890A0
:104A43008458E0C398500279E8EA2431124E697021
:104A53000CEA242E124E69700479F5800BE9700577
:104A6300122838E9F9E96007EEFAEFFB122922026E
:104A73004F77C082C0838A828B83740DF0121E0C21
:104A83008007C082C083122856D083D082020DFBD8
:104A930074F4120950EAFEEBFF8A82F583E4F0A373
:104AA300124B1A54049084527012E0F8901D34E0B3
:104AB300C398401279F1122922023376E0F8901D4F
:104AC30033E0C39850EE124B20A3E054016037EA61
:104AD3002437124E69C394054033EA2433124E69D6
:104AE300540570297A487B1D122A54EE2437F58227
:104AF300E43FF5831233277808120E137A487B1D9F
:104B0300124B14120E2EEEFA12551180AC79E88076
:104B1300A5122A48740422F0124B20E022EA24331F
:104B2300F582E43FF5832274F6120950E9FE24511D
:104B3300FAE43400FB1216D4EA4B6015EE8A828B3A
:104B430083A3A3A3A3F0EA2451124B5B124B6C8003
:104B5300047A007B0002628AF8E43BF98A828B8341
:104B6300A3A3221268DA901E12E8F0A3E9F022024E
:104B73004A85C082C083901D5174AAF0A37428F0A3
:104B8300A374DAF0A37428F0A374B0F0A37428F02C
:104B9300A374B6F0A37428F0A374D4F0A37428F01C
:104BA300A374C8F0A37428F0A374C2F0A37428F00C
:104BB300A374E0F0A37428F0A374E6F0A37428F0C0
:104BC300A374ECF0A37428F0A374F8F0A37428F092
:104BD300A374BCF0A37428F0A374A4F0A37428F006
:104BE300A3749EF0A37428F0901D6D74CEF0A3748B
:104BF30028F0A374F2F0A37428F0A3740CF0A37448
:104C03002AF0A374FEF0A37428F0A37404F0A37431
:104C130029F0901D91E4F0901D94F0901D7D124CAD
:104C2300327402F0901D86124C3274010245907466
:104C33001CF0A37429F0A32274F512095074F11225
:104C43000EE18521828522837402F07401121157CB
:104C5300E9F060047AFF7BFF74021211571256CFFA
:104C630075088975091D750A007808120E177C0BE3
:104C73007D007407121157AA82AB83124CA2120E45
:104C83002EAA21AB22121E0C740F8003124CA21207
:104C93000E2E7F03020BFA7C0B7D007A897B1D129B
:104CA30016B674032274F712095074FD120EE185CF
:104CB3002182852283740AF07401121157E9F0747A
:104CC30002121157EA126349023D2074F612095089
:104CD30074F7120EE1EAFEEBFFEA124D20124D507B
:104CE3007402F0EA2428FCE43FFDAA21AB22121847
:104CF30054EE2431124D262433125D48120E1B74D8
:104D030002120ED979831A1A1238E1120E2EE9F51E
:104D1300087007EEFAEFFB12285C0262831234E993
:104D2300740122F582E43FF5831233521251F0F5F8
:104D330083124D3EE8F0A3E9F0EE22124D468A823B
:104D43008B8322E024FFF8A3E034FFF922F0A3E4ED
:104D5300F0EA1239022274F01209501267B81210E5
:104D6300E27808790C1207E97808120E137A807B2F
:104D73001D02335A74F412095074C6120EE1900BDB
:104D83005EE0640F600D852182852283742E1256A6
:104D9300EE80227A777B1D12339812065C8808898D
:104DA30009E4F50AF50B7808120E137A777B1D12C6
:104DB3004B14120E2E743A02337374F5120950EA2F
:104DC300FEEBFF8A82F583A3E0F87078EA243012C1
:104DD3004E6964026007E06403600278E8EA24260F
:104DE300F582E43FF583123391400478E88058E874
:104DF3007052EA2426123FD1EE2431124E5B243046
:104E0300124E696402700EEE24281268D0900B6D66
:104E1300124B6C8017900B6D74FEF0A304F0EE241C
:104E230028FCE43FFD7A647B0B121860EE241B120E
:104E33004120120E17124C9A120E2EEEFAEFFB12AD
:104E43002898E9F8E8600EE88E828F83A31260EC5D
:104E53007417126196024C95FAE43FFB79501215D0
:104E630012EE22EE2410F582E43FF583E02274F67D
:104E730012095074F7120EE1901D94E0703774011B
:104E8300F0F91215FCAA21AB2212295E7508897567
:104E9300091D7808120E1B750801750900780812A0
:104EA3000E1B900B73120C837406120ED97A031225
:104EB3003387120E2E02628574F71209501250972F
:104EC3007004A374EBF0901D94E0A2E25003C2E2DD
:104ED300F0E0A2E150051250A880098E828F8374FE
:104EE3002A126196024F7774F412095074FE120E5F
:104EF300E1124F9D1251E3EC8521828522831252E8
:104F030032E0F50B7015AA21AB227953121512EE7C
:104F13002413FAE43FFB794A12151212411D120EB3
:104F230017124C9A120E2E124912A90B12288C90AA
:104F33001D94E0A2E150031250AF901D94E4F0746D
:104F43000202337374F7120950EAFEEBFF8A82F50B
:104F530083A374EBF0901D94E0A2E150077A0079EB
:104F6300EB122892EEFAEFFB1228C88007EEFAEF55
:104F7300FB1229CA7F01020BFA74F7120950124F70
:104F83009D901D91E4F0901D94F07AFF7BFF8E823B
:104F93008F83A3E0F912288C80DA1250E87A807BA1
:104FA3001D122A542274F7120950EAFEEBFF12284D
:104FB300C280BA74F7120950125125A3A3A3E0606B
:104FC300047400800274EB124FF65003C2E2F0E067
:104FD300A2E150051250F98011A2E0500D8E828F8C
:104FE30083742AF0A374EB126196EEFAEFFB122896
:104FF3006E80818E828F83A3F0901D94E0A2E222C3
:1050030074F6120950EAFEEBFF901D94E0D2E1F032
:1050130079011215FC8E828F83A3E0703812296404
:10502300E9FAEE240DF508E43FF5097808120E1BA2
:105033007508017509007808120E1B125069120CCD
:1050430083EE2402FCE43FFD123387120E2EE98E19
:10505300828F83A3F08E828F83A3E060067A00F9A8
:1050630012289202628AEE240BF582E43FF5832232
:1050730074F71209501250977004A374EBF0901D4B
:1050830094E0A2E25003C2E2F0E0A2E15003125026
:10509300A8024F77EAFEEBFF79011216028E828F88
:1050A30083E0642022C2E1F01250AF227A008E82A4
:1050B3008F83A3E0F91228922274F7120950125039
:1050C300E88E828F83A3A3A3A3E06004740080020D
:1050D30074EB124FF65003C2E2F0E0A2E150031268
:1050E30050F9024FEDEAFEEBFF79011216027A77CF
:1050F3007B1D122A5422C2E112661AE0A2E4E433B1
:10510300FA1250B12274F712095012512574EB129E
:105113004FFB5003C2E2F0E0A2E150031250A80299
:105123004F77EAFEEBFF79011216028E828F83A37B
:105133002274F712095012514A024F7074F7120980
:105143005012514A024F77EAFEEBFF7A777B1D122A
:105153002A54EEFAEFFB1228EC2274F7120950746A
:10516300EF120EE1EAFEEBFFEA1260D87A647B0BE2
:1051730012184EE960568521828522837409F074E2
:105183000112115774EFF01251E37402121157EC2C
:10519300125232A3A3E0C0E07404121157D0E012FC
:1051A300521F640870158E828F83A3A312520BE0E3
:1051B300C0E07405121157D0E08006740512115730
:1051C300E4125F7474061211571251D47411023D24
:1051D30022AA82AB83122994AA21AB22121E0C228B
:1051E3001251F0F583125202FCA3E0F922EE1251A0
:1051F300F8FB8882222402F8E43FF9E8FAE9221254
:1052030049678882F583E02212521A2407F582E463
:1052130038F58322901D36124967C8221252232281
:10522300125228E022F08E828F83A3A3A3A322121B
:1052330062041252392212523D22E0F8A3E0F583B0
:105243008882A3A322C082C0831229D6024A8CC0BB
:1052530082C083901DB17451F0A3741DF0A3746DCB
:10526300F0A3741DF0901EED7472F0A3742FF0A3DD
:105273007410F0A3742FF0901D9D7486F0A374280E
:10528300F0901D9AE04401024590C082C083EAFC7D
:10529300EBFD790212293A024A8C74F61209507412
:1052A300FE120EE1901D961252EB60077A967B1D5B
:1052B300122952901D9CE4F09012171252EB6020B9
:1052C3008007AA21AB22122952901D95E0F91216EC
:1052D300EC8B09A909852182852283123F4370E261
:1052E3007402026287901D361268DAE8492274F765
:1052F300120950E9FA7B00901D95E0F91217160286
:105303004F7774F712095074F0120EE1EAFCEBFDCB
:10531300E9FE8A828B83E0F874C91254203432F593
:1053230083E493C0E07401121157D0E0F0640B7072
:105333000DE98A828B83A3F01229B802541BE07013
:105343000302541B640C600302540C741A6E700B3A
:105353007404121157E4F0A302540B74041211578E
:105363001256CFEA2432125BD8C0E07403121157ED
:10537300D0E0126605121140740612115712111C67
:105383008C828D83A3A3A3A3A3A3A3A3A31268D6F1
:10539300740A121157E8F0A3E9125425E05410607F
:1053A30009852182852283E48013EC2412125BD8C1
:1053B300F8900B80E0C398852182852283F0E0C0BA
:1053C300E0740C121157D0E0F0EC2415125BD8C036
:1053D300E0740D121157D0E0F0EC2416125BD8C024
:1053E300E0740E121157D0E0F0EC2417125BD8C012
:1053F300E0740F121157D0E0125425A3E05401605A
:105403000874011211577411F07402121157EEF05F
:105413007401120ED1121E0C7410023D2228F58263
:10542300E422F0EC12542E3DF58322240EF582E49F
:1054330022C082C083901D9CE064037004790180C4
:10544300027900024A8C74F7120950901D9CE012F5
:1054530054C474EB28F582741E39F583125956C26D
:10546300E7F01254CBA3E493FE25E0FCE433FD7490
:10547300EB2CF582741E3D125CE2EC4D6005EE9060
:105483001D9CF08A828B83E025E0FCE433FDE82C4D
:10549300F582E93DF583E493FCC4540F25E0F874E9
:1054A300AB125420341DF5831252EB70051229A65A
:1054B300800CEC540F1254CB1249E4122C18024FF7
:1054C3007725E0F8E433F92225E0FCE82CF582E4C3
:1054D30039F5832274F212095074FE120EE1890B1E
:1054E3008A088B09125576125567601A125F81F587
:1054F3000A7808120E171255832402125CD8120E72
:105503002E12550F8003125595023972AA0CEFFB28
:10551300901D95E0F91216E02274F012095074FE02
:10552300120EE1890B8A0E8B0F125576F508125570
:10553300676027125F81A808EA28124265850E0872
:10554300850F09F50A7808120E17125583125CD6D7
:10555300120E2E12550F79008005125595791A7483
:105563000202335FFA7B001216D48A0C8B0DAF0D47
:10557300EA4F22749229F582E43432F583E49322CC
:10558300A80B74B31254203432F583E493FC7D00EA
:10559300EA22852182852283E50BF0791AAA21ABC1
:1055A3002212292222C082C083E9901D95024590D0
:1055B30074F612095074FE120EE1EAFEEBFFEA5490
:1055C3002070308039A8A8C2AF901D35E014124472
:1055D300BD8A828B831256BC901D981256CF122916
:1055E3002E852182852283E0641560077A987B1DCE
:1055F3001229527A2F7B1D1216FEEA4B70C7EF5405
:1056030080700C8016901D98EAF0A3EB1256E2907E
:105613001D95E0F91216ECEA4B70EAEE5410600B9C
:10562300852182852283742D1256EEEEA2E0500B63
:1056330085218285228374241256EEEE5402600B78
:1056430085218285228374251256EEEE5404600B65
:1056530085218285228374261256EEEE5408600B50
:1056630085218285228374281256EEEE5440600D04
:1056730074011211571256D5742C1256EEEE548043
:10568300600D74011211571256D5742F1256EE90F5
:105693001D961252EB601BA8A8C2AF901D9612492B
:1056A30018901D96E4F0A31244BDA3EAF0A3E912F7
:1056B30056E27A007B000252E31256C022E08521B3
:1056C30082852283F022A3A3A3A3A3A3EAF0A3EBDF
:1056D300F022E41256DA22F085218285228322F019
:1056E30012292E7A987B1D1229522212420912295D
:1056F3002E22C082C083901D98126344687002EB0F
:10570300697007901D98E4F0A3F0024A8C74F712B5
:105713000950EAFEEBFFEA4F7003121314A2AFE441
:1057230033F508C2AF8E828F831252EB6028E824D0
:10573300FBFAE934FFFB901D98125CE4E86C7002FD
:10574300E96D7007901D98E4F0A3F08E828F83E4D7
:10575300F0A3F0121770023B8EC082C083901DBF6E
:10576300749AF0A37429F0A374ACF0A37429F0A382
:1057730074B2F0A37429F0A37468F0A37428F0A39F
:1057830074B8F0A37429F0A37462F0A37428F0A38F
:10579300746EF0A37428F0901DCD74E8F0A37429FF
:1057A300F0A374BEF0A37429F0A374C4F0A3742906
:1057B300F0A374D0F0A37429F0A374CAF0A37429DE
:1057C300F0901DBEE4024590C082C083900B6DE053
:1057D30064FE7003A3E0F470097C647D0B1218541B
:1057E300801C8A828B83A3A3A3A3A3A3A3A3740272
:1057F300F0900B6D1268D68A828B83124B6C024A2F
:105803008CC082C083900B77C3E094FEA3E094FF27
:105813004004790380027902024A8CC082C0831259
:10582300595F8C828D8312591468703974026870C1
:105833001C8A828B8312586DE06870298A828B835D
:10584300A312586DA3E068701C7901801A74036871
:105853007013EC2405FC50010DEA2405FA50010BEA
:1058630012185A80027900024A8CA3A3A3A3A3E0CF
:10587300F88C828D83A3A3A3A3A32274F6120950E9
:105883007E00740A121157E0125908FF8A828B8333
:10589300A3A3A3A3A3A3A3A3E06F706474026F7075
:1058A3004E8A828B83C082C08388828983A3A3A309
:1058B300A3A3E0F50888828983A3A3A3A3A3A3E0FA
:1058C300FBAA08D083D082E06A7003A3E06B703038
:1058D30088828983A3A3A3E0FA88828983A3A3A3ED
:1058E300A3E0F9EA6C7002E96D70157E0180117412
:1058F300036F700CE82405FCE439FD12185AE9FE25
:10590300EEF902628AF8A3E0F98882F5831259144A
:1059130022A3E01313543F540322C082C0838A821C
:105923008B83A3A3A3A3A3A3A3A3E06402701690F2
:105933000B6D125956687003A3E0697004790180F6
:105943000F7900800BEAFCEBFD7A647B0B12184E97
:10595300024A8C1268DA8A828B83E0228A828B83E2
:10596300125914F82274F012095074FC120EE1E972
:10597300852182852283F07402121157ECF0A3ED86
:10598300F08A0A8B0B7508007402121157E0240881
:10599300125BD8C0E07401121157D0E0125C28A248
:1059A300E75008750EFF750FFF800A900B73E0F543
:1059B3000EA3E0F50F852182852283E0C2E7125C06
:1059C3002D54206007125BFA74088004125BFAE41A
:1059D300125C2D54046007125C0574808005125C10
:1059E300057410125C2D54106006125BE0E4800B0A
:1059F300900B80E0C0E0125BE0D0E0125C2DA2E0EF
:105A030050037508205408600674104508F5088A89
:105A1300828B83A3A3E024FFFEA3E034FFFFEA12FB
:105A23005BEBC39402E0400F640B6009E0148E82C9
:105A33008F83125C1E74034508F508750900900BEB
:105A430093E0640170118A828B83A3A3A3A3E0C3B1
:105A530094674003750910852182852283E0F50C44
:105A6300750D00740E780C120FECE50D4509F50960
:105A7300E06402701B900B78E08E828F83F0900BB2
:105A830077E0C0E01238E9D0E0F0EE24FEFE801C9F
:105A9300E06403701DEE24F9FEEF34FFFF7C877D85
:105AA3000BEEFAEFFB121860EE24FF1EEF34FFFF3C
:105AB3008003E0602F7401121157E0601874141210
:105AC3001157E0650E7004A3E0650F70087440453C
:105AD30008F508800F8E828F83E50FF01238E9E511
:105AE3000E125C147401121157E0F50C750D00745D
:105AF3000A780C120FECE50D4509F509E064027014
:105B030023740212115712633F8E828F83F0740243
:105B1300121157123A1BC0E01238E9D0E0F0EE241C
:105B2300FEFE8020E064037021EE24F9FEEF34FFD3
