:020000040000FA
:0600000002129C0207DF62
:03001B00020801D7
:03002B0002104C74
:03004300020F1A8F
:030053000207148D
:030073000208562A
:100083000207730100F0FF0700080000FFFF0000F4
:100093000704000000030001FF32102700000020C6
:1000A300FD000206FFFF1E861B000000000000008B
:1000B30000000000000000E80300000000E8030067
:1000C3000000000F0000000F0000000104010C00FD
:1000D3000202D38401FD8401040000BE1A00000063
:1000E300E8030000FFFF1B1B0188130000E8030067
:1000F3000064006400B801A0BB0D00A0BB0D0002AA
:10010300020207040101071E02051E020A0A010179
:10011300010809080103B80B02803E0102FEFFE853
:10012300030A050001FFFF010A011401E0020000B8
:100133000001050301010F10FEFF0300030003008C
:1001430003000300030003000300030005000A008B
:10015300140028004F009E0000001C320000000025
:100163008E3000000000FF000000FF001212E86064
:10017300461212AC603DE9687008F618F618F618D6
:10018300F622748067F71201A3090909748067F7DF
:10019300221212AC601D1212E87005191919801A87
:1001A300121185701F121199C37003E66733191971
:1001B3001940071818182208080874FFF618F618CB
:1001C300F618F6221211996017121349702192F052
:1001D30012135B7019501720F01408080809090955
:1001E300E7F61819E7F61819E7F61819E7F62212D1
:1001F300135B60E6E869701F0808E62480F608E4EC
:1002030036F618547FB47F0CE654806007F6E41882
:10021300F618F622181822E9C6CC08C6CD08C6CEB1
:1002230008C6CFC0E0E8C0E0EAC0E0EBC0E009E9FF
:10023300F809E7FA09E7FBE6F918E6F8C3EC98EDE5
:1002430099EE9AEBC2E7F5F0EFC2E795F0500E6036
:100253000CEBCFFBEACEFAE9CDF9E8CCF8EAA2E75A
:10026300D2E7FAEB33FB13F5F0EEA2E7D2E7FEEFAA
:1002730033FFC5F013A2E730E601B313C5F0C3C0E3
:10028300E0C0F07F00C39BFB605E9418600F401DCD
:1002930014601AD0E023F9D0E0F80203758AF0E97C
:1002A300486003D2F0E4AFF0FAF9F8803BEB30E4B6
:1002B3000D89F0EA6003D2F0E4AFF0F9CAF8EB304D
:1002C300E30D88F0EF6002D2F0AFF0E4CAC9F8EBB7
:1002D30054076014FBC3EA13FAE913F9E813F8EFC0
:1002E300135002D2E0FFDBEDD0E0C0E030E739C3CA
:1002F300E49FFFF5F0EC98FC42F0ED99FD42F0EE3F
:100303009AFE42F0D0E0F9D0E0F8E5F0607AE92314
:10031300F9EE20E742D8028067C3EF33FFEC33FCEA
:10032300ED33FDEE33FE80EAEC28FCED39FDEE3AC9
:10033300FED0E023F9D0E0F84002801BC3EE13FEA9
:10034300ED13FDEC13FCEF135002D2E0FF08B800ED
:10035300067F7F74FF802EEF3350178CF020F0025E
:1003630060100CBC000C0DBD00080EBE000408E8B4
:1003730060DFE933E813FFEE2313FE4F4D4C800893
:10038300E95480FFE4FEFDFCEE33EF33F47004FC2C
:10039300FD7E80D0E0FBD0E0FAD0E0F8D0E0CFC61D
:1003A30018CEC618CDC618CCC6F9221212AC7004EA
:1003B300181818221212E8700D74FFF61819F6189F
:1003C30019F61819F622E7548066F612135B700FBC
:1003D30012134970F014F608F608F608F680D112E5
:1003E3001349700CF608F608768008E6447F80EC23
:1003F30012119C700C12118860BFE65480F6E480E1
:10040300BB121188700519191980A5E869700C765B
:100413003F18768018F618F6E8F922E6CDC0E01802
:10042300ECC0E0E633CD33CDD313F6E719FCE7197F
:100433001933CC33C3947F400ECD9D502408E6542A
:1004430080F6E418F6800FF4043D14501408E644D3
:100453007FF6187680E418F618F6D0E0FCD0E0FDBD
:1004630022CCD313CCFD18E4C6CBC0E018E4C6CA33
:10047300C0E00808ED08C633E613F618E433C67582
:10048300F003C3CA97CA09CB97CB199C40047D08D4
:10049300802EBD000302055716B6FF050606081693
:1004A30018C3CA33CACB33CB33CA27CA09CB37CB1A
:1004B300193CC37D08803E187D0820E75CC633C61F
:1004C300CA33CACB33CB33DDF1D5F0EB30E77BCA8C
:1004D30097CA09CB974ACB199C406F4B7025E620EE
:1004E300E0218066187D08C3CA97CA09CB97CB1948
:1004F3009CD3C633C6CA33CACB33CB3350C9DDE72B
:10050300D5F0E1D3E4C636C608C636C608C636C635
:1005130008C636C61818188031C3CA97CA09CB97BC
:10052300CB199CB34097C633C6CA33CACB33CB333C
:10053300DD34D5F02EC6A2E0C640C8CA27CA09CB0F
:1005430037194A70BECB3CB480B90808E63308E6D5
:1005530033601F181818D0E0FAD0E0FBD0E0FCD0CD
:10056300E0FD22187D08CA27CA09CB37CB193CD333
:10057300808013F618E4B67F11F618B6FF0EF6184E
:10058300C60470D20808768080CAF618F618F6807A
:10059300C5001212AC604F1212E86012E754806675
:1005A300F61211857011121349703B090909F4F60B
:1005B30018F618F618F622121199701512135B0823
:1005C300080860EAE6447FF618768018E4F618F621
:1005D3002212135B60161213497012E4F608F60830
:1005E300F608E65480F609090918181822EAC0E04B
:1005F300EBC0E0ECC0E0EDC0E0E687F0A4FBACF0BC
:1006030008E687F0A42CFCE435F0FA1809E687F035
:10061300A42C4B60027401CA35F0FCE433FB09E6F9
:1006230087F0D2F7A42CCB35F0FC1908E687F0A4A9
:100633002BCC35F0FBE433FD0819E687F0D2E7A4B1
:100643002C4ACB35F0CD3400FC09E687F0D2E7A481
:100653002DCC35F0FDE433FA0918E687F0D2F7A480
:100663002CCD35F0CA3400FC08E687F0D2E7D2F788
:10067300A42ACC35F07A7E20E70B0ACB33CBCD33DB
:10068300CDCC33CC33CB3350147004ED30E00ED2E9
:10069300F1E4CD3DCDCC3CCC3B5005DA05C2F1EBCA
:1006A300547FC63308E63392F0FBE73309E733C3DD
:1006B3009A502D2B70190C0D4C4D70151806E60829
:1006C300C333700D20F10AA2F013F6E418800B4037
:1006D30024E4F630F002768018F618F618F6802433
:1006E300D33B14501074FFA2F013F6187680E4186D
:1006F300F618F6800FA2F013F618E63303F618EC9B
:10070300F618EDF6D0E0FDD0E0FCD0E0FBD0E0FA47
:1007130022C0E074F1120BA2A2AFE433F509D2AF09
:1007230085A708AFA1EF5508FE74105E6006121688
:100733000A75A1EF74085E600812161075A1F780A0
:1007430024EFA2E092F0E508A2E082F05017906156
:1007530098E0F8900B46E0C398A2D265D0335002DC
:10076300E8F075A1FEE509A2E092AF7F02020C0159
:10077300C0E074F2120BA2A2AFE433FED2AF9061D9
:10078300A4E0F8759B00E59158540860087591F74B
:1007930012165E8023E59158541060087591EF128C
:1007A30016648014E591A2E092F0E8A2E082F05092
:1007B30007E0C2E0F01217AE9061A3E0F8E5E95854
:1007C3005404600E12178475E9FB906193E0A2E66E
:1007D30040F2EEA2E092AF7F01020C01C0E074F29E
:1007E300120BA2A2AFE433FED2AF9061A5E0F8E50D
:1007F300BF585404600675BFFB1217C680D4C0E00F
:10080300C0D0E8C0E0E9C0E0C082C083A8F9E8C076
:10081300E0900AB3E0F8743228F582E4340AF583F1
:10082300D0E0F0900AB2E0F8A3E0687006E5959096
:100833000AB5F0900AB3E004F0C394804002E4F0F8
:10084300A374C6F0D083D082D0E0F9D0E0F8D0D042
:10085300D0E032C0E0C0D0E8C0E0E9C0E0C082C070
:1008630083900B36E0F8A3E0687008539AF7A374FB
:10087300018022C2EA900B36E0F8740128F074B6C6
:1008830028F582E4340AF583E0F5F9900B36E0C3EA
:1008930094804002E4F080AC1208E630F03912098B
:1008A3002B80341208E620F01430E72B74FFFCFB96
:1008B300FA747F8022E4FCFBFA7480801AB4800807
:1008C300BC00F2BB00EF800F50EBF9E4C39AFAE4EB
:1008D3009BFBE49CFCE499C6CC18C6CB18C6CA188B
:1008E300C6F922E4C9C608CAC608CBC6D33303086F
:1008F300CCC63392F0C3947F402E94184019C9B9E3
:100903000704CACBCC225025C309CA33CACB33CB85
:10091300CC33CC33D9F422F4600DC9CCC313CB133D
:10092300CBCA13CAD9F6CC22E4FCFBFA2214FCFB93
:10093300FA22C3E498F8E499F91209768026C3E40D
:100943009AFAE49BFBE920E7E9120976E498F8E4D4
:1009530099F922C3E498F8E499F9120976E498F82E
:10096300E499F9C3E49AFAE49BFB22EB20E7CFE98D
:1009730020E7E0B90010BB0008E88AF084F8AAF089
:1009830022E4FBC8FA22EB70227B10C833C8C933B8
:10099300C9335007C39AC3DBF280069A50012ADB9E
:1009A300EAC833F4C8C933F4C9FA2275F008E4C8B5
:1009B30033C8C933C933C99AC99B5004C92AC93B2F
:1009C300D5F0ECFBC833F4C8E4C9FA22080808EAF6
:1009D300C0E0EBC0E086F0E7A4FA180986F0E7A4CC
:1009E3002AFA180986F0E7A42AFA180986F0E7A478
:1009F3002AFA1986F0E7A4FBE5F02AFA190886F02B
:100A0300E7A42BFBE5F03AFA190886F0E7A42BFBE1
:100A1300E5F03AFA18180986F0E7A4C5F02BFBE4D1
:100A23003AFA1908E7C5F0C6A426F6E5F03BFBE45D
:100A33003AFA1886F0E7A4F6E5F00826F6E43B0850
:100A4300F6E43A08F6D0E0FBD0E0FA22080808E61C
:100A530030E711121149120A67080808C64480C614
:100A630018181822181818E9799EC608CAC608CBA0
:100A7300C608CCC6C370207996CACBCC7019798EC0
:100A8300CBCC70137986CC700EF9802ACA33CACBCB
:100A930033CBCC33CC331930E7F2CCCBCA3350143D
:100AA3007004EA30E00DE4CA3ACACB3BCBCC3CCC71
:100AB300500209C3E913C6CC182313C6CB18C6CA00
:100AC30018C6F922E4CFC0E0E4CEC0E0E4CDC0E034
:100AD300E4CCC0E075F020E626F608E633F608E637
:100AE30033F608E633F6181818EC33FCED33FDEE55
:100AF30033FEEF33FFC3EC9709ED9709EE9709EF48
:100B030097191919400FFFEC97FC09ED97FD09EEB2
:100B130097FE191906D5F0BFECF709EDF709EEF7C3
:100B230009EFF7191919D0E0FCD0E0FDD0E0FED0B1
:100B3300E0FF222521C582C0E0E52234FFC583C042
:100B4300E0E521C3958224F810AF088583228582CE
:100B5300218008858322858221D2AFCEF0A3E520B0
:100B6300F0A37808E608F0A3DEFAEFF0A3E581240A
:100B7300FAF8E608F0A3E608F0A3E608F0A30808ED
:100B8300E608F0A3E608F0A315811581D0E0FED0B6
:100B9300E0F8158115811581E8C0E0EEC0E022C0C0
:100BA300D02521C582C0E0E52234FFC583C0E0E53E
:100BB30021C3958224F310AF088583228582218087
:100BC30008858322858221D2AFC8F0A3E9F0A3EA86
:100BD300F0A3EBF0A37908E709F0A3D8FAECF0A3AC
:100BE300EDF0A3EEF0A3EFF0A3D0E0F0A3D0E0F09C
:100BF300A3D0E0F0A3E520F0A3E5F0F0A322852243
:100C030083852182E0C0E0A3E0F9A3E0FAA3E0FB3F
:100C1300A37808E0F608A3DFFAE0FCA3E0FDA3E075
:100C2300FEA3E0FFA3E0C0E0A3E0C0E0A3E0F5D0B3
:100C3300A3E0F520A3E0A3F5F010AF088583228598
:100C430082218008858322858221D2AFD082D083FE
:100C5300D0E0F8D0E032121334B90003020C98E468
:100C63009005017814791A8002F0A3D8FCD9FA7A96
:100C7300147B1E90008678EA79018015E493A3AD76
:100C830082AE838A828B83F0A3AA82AB838D828E0A
:100C930083D8E9D9E77582B97583FD7405120FDD31
:100CA3007582F875832D7400120FDDE47375F010EF
:100CB3008E238F248582288583278521828522831D
:100CC300E0CEA3E0CF852882852783EBC9EAC8ED70
:100CD300CBECCAC3E833C8E933C9EA33CAEB33CB35
:100CE300C3EA9EF526EB9FF525B35004AB25AA2650
:100CF300EC33CCED33CDD5F0DAAE23AF2422121290
:100D0300AC601C1212E8601712135B7007121349D0
:100D13007001D322C0D01213497006D0D0B322C3BE
:100D23002233D0D0501430E0F6C3E7960809E79693
:100D33000809E7960809E796B32220E0D5E6970865
:100D430009E6970809E6970809E697B322D083D006
:100D530082ECC0E0EDC0E0E493A3FCE493A3FDEDDB
:100D63004C600D120E28EC24FFFCED34FFFD80EFE8
:100D7300E493A3FCE493A3FDED4C600D120EC5ECCC
:100D830024FFFCED34FFFD80EFD0E0FDD0E0FCE478
:100D930093A3C0E0E493C0E022D083D082E9C0E013
:100DA300E493A3C386F0C5F095F0F908E493A38612
:100DB300F0C5F095F0700BE493A3C3994005E904E3
:100DC3008002A3E475F002A42582F582E5F0358361
:100DD300F583D0E0F9E493A3C0E0E493C0E0228577
:100DE3002283852182E0A3FEE0A3F5207808E0A317
:100DF300F608DFFAE0A3FFE0A3C0E0E0A3C0E0E071
:100E0300A3C0E0E0A3C0E0E0A3C0E010AF08858288
:100E1300218583228008858221858322D2AFD083D6
:100E2300D082020FE3C0E0C3E49396087401939663
:100E330018400FE4936670080874019366187000F5
:100E43007019A3A3C3E49396087401939618A3A3FC
:100E5300400DD0E0D0E0D0E0020D8CA3A3A3A3A368
:100E6300A3D0E0227404800474028000CCC0E0EDBF
:100E7300C0E0E521C39CCCAD2250011D10AF068C10
:100E8300218D2280068C218D22D2AF120F5FD0E0FC
:100E9300FDD0E0FC2274028000CCC0E0EDC0E0E5B0
:100EA30021C39CCCAD2250011D10AF068C218D2295
:100EB30080068C218D22D2AF120F3DD0E0FDD0E011
:100EC300FC22C0E0C0F088F0E49366700808740167
:100ED3009366187000A8F0A3A3700BD0F0D0E0D0F5
:100EE300E0D0E0020D8CA3A3D0F0D0E022D083D0D9
:100EF30082CCC0E0E493A36006120F9F1470FAE45F
:100F030093A360061210DF1470FAD0E0FCE493A3FD
:100F1300C0E0E493C0E022C0E074F2120BA2A2AFDF
:100F2300E433FED2AFC2C0E5D1A2E4500312156E82
:100F3300EEA2E092AF7F01020C01CAC0E0E493A3EA
:100F4300C582CCC582C583CDC583F0A3C582CCC57C
:100F530082C583CDC583DAE5D0E0CA22CAC0E0E00A
:100F6300A3C582CCC582C583CDC583F0A3C582CC7E
:100F7300C582C583CDC583DAE6D0E0CA22700908ED
:100F83000808226016181818C6C333C608C633C625
:100F930008C633C608C633C6D5E0EA22C0E0E493E8
:100FA300A3D39C5010E493A3C39C400AD0E0D0E0A9
:100FB300D0E0020F0DA3A3A3D0E022C008C3E096A4
:100FC300F50808A3E096420808A3E096420808A3A0
:100FD300E09645087001D3D00822C09FF59FE473C3
:100FE300D09F22D083D082C09FE493C0E07401934A
:100FF300C0E0740293F59F2200C0D0252110AF08F2
:10100300F521500C05228008F52150020522D2AFAC
:10101300D0D0227404800A740380067402800274A0
:1010230001C0E0F404121031D0E01212F72225219E
:10103300F58210AF08F521400C15228008F52140F8
:10104300021522D2AF85228322C0E0C0D0E8C0E0DF
:10105300A8A8D2AFC2C7E8A2E792AFD0E0F8D0D039
:10106300D0E032BB0102E722C082C08389828A8337
:10107300BB0003E08002E493D083D0822260160891
:101083000808C6C313C618C613C618C613C618C69F
:1010930013C6D5E0EA22C3E0C696F608A3E0C696D7
:1010A300F608A3E0C696F608A3E0C696F622252125
:1010B300F8E43522F9222521FAE43522FB22252101
:1010C300FCE43522FD22252110AF08F521400C1543
:1010D300228008F52140021522D2AF22C0E0E4931A
:1010E300A36C7009D0E0D0E0D0E0020F0DA3A3D031
:1010F300E022E76670100809E766700A0809E766E8
:1011030070040809E76622E066701008A3E06670C1
:101113000A08A3E066700408A3E06622C3E7960802
:1011230009E7960809E7960809E796A2D265D0333E
:1011330022C3E09608A3E09608A3E09608A3E096EE
:10114300A2D265D03322181818E4C396F608E496A1
:10115300F608E496F608E496F622C3E096F008A3B0
:10116300E096F008A3E096F008A3E096F022C3E629
:1011730097F60809E697F60809E697F60809E69749
:10118300F622181818E60846087009E626087005BE
:10119300E633F4220822191919E70947097009E708
:1011A30027097005E733F4220922C3E493960874F0
:1011B3000193960874029396087403939622E62784
:1011C300F60809E637F60809E637F60809E637F6BA
:1011D30022700422600D18C6C333C608C633C6D5B1
:1011E300E0F41822E657F60809E657F60809E65729
:1011F300F60809E657F622E026F608A3E036F608D5
:10120300A3E036F608A3E036F622E026F008A3E0D2
:1012130036F008A3E036F008A3E036F022E056F6F5
:1012230008A3E056F608A3E056F608A3E056F62214
:10123300E493F608740193F608740293F6087403B2
:1012430093F622E647F60809E647F60809E647F665
:101253000809E647F622E056F008A3E056F008A393
:10126300E056F008A3E056F022C6F4C608C6F4C65A
:1012730008C6F4C608C6F4C622C3E09608A3E096DF
:1012830008A3E09608A3E09622C3E7960809E79629
:101293000809E7960809E7962275D00075813F751E
:1012A300210175220500020C59E6084608C31346BE
:1012B30008336002E633F422600C08C6C313C61871
:1012C300C613C6D5E0F422E0F608A3E0F608A3E0CF
:1012D300F608A3E0F622E6F008A3E6F008A3E6F09A
:1012E30008A3E6F022E7094709C31347093360025D
:1012F300E733F422CAC0E0E6F0A308DAFAD0E0FA52
:1013030022E8F0A3E9F0A3EAF0A3EBF022E0FAA3CA
:10131300E0FBA3E0FCA3E0FD22EAF0A3EBF0A3ECE7
:10132300F0A3EDF022E0F8A3E0F9A3E0FAA3E0FBD9
:1013330022E5C754F84401F5C77901222521F58236
:10134300E43522F58322E72719471947194722C2B3
:10135300AF75D69F02000022E626184618461846A7
:1013630022120FE6E7DD03120FE617DE03120FE684
:1013730077DE03120FE60BDF03120FE6BCDF031267
:101383000FE60DE003120FE651E003120FE6EBE068
:1013930003120FE65BE103120FE68AE103120FE685
:1013A30090E203120FE6BAE203120FE60EE3031212
:1013B3000FE6E2E303120FE610E603120FE6BEE6C2
:1013C30003120FE62BE903120FE6B0E903120FE64F
:1013D300B3EC03120FE6E7EE03120FE623EF03125B
:1013E3000FE67CF003120FE68FF003120FE6CCF04A
:1013F30003120FE695F203120FE69B6F00120FE63E
:10140300177000120FE64A7000120FE67870001290
:101413000FE6B67000120FE6F37200120FE61273B6
:1014230000120FE6577300120FE6ED7300120FE67A
:10143300397400120FE6CD7400120FE6A675001280
:101443000FE6027600120FE6607600120FE6D376FF
:1014530000120FE6177700120FE66F7700120FE600
:10146300917700120FE6217800120FE6B27800128E
:101473000FE6FE7800120FE62A7900120FE66B7969
:1014830000120FE6017B00120FE6ED7B00120FE660
:10149300C87C00120FE607F105120FE63AF10512B8
:1014A3000FE65AF105120FE681F105120FE6AEF2CF
:1014B30005120FE6CFF205120FE67AF305120FE6D7
:1014C300718906120FE6768906120FE6A9890612BC
:1014D3000FE6BDFB05120FE684FC05120FE696FC32
:1014E30005120FE6418A06120FE6528A06120FE62C
:1014F3006C8A06120FE6F77F00120FE6D8FF03127D
:101503000FE6298806120FE6398806120FE64E8881
:1015130006120FE6978806120FE6368506120FE6C7
:10152300BA8506120FE6228606120FE6EDFF0312B6
:101533000FE654EA05120FE662EA05120FE6DBEA4C
:1015430005120FE6B4EB05120FE677ED05120FE671
:101553007B8A06120FE65CCB05120FE6C8CB051299
:101563000FE66BCC05120FE6E0CD05120FE647CE72
:1015730005120FE694CE05120FE6EDCE05120FE627
:1015830071CF05120FE6A6CF05120FE6C4CF0512E1
:101593000FE64AD005120FE6CDD005120FE6DAD0DA
:1015A30005120FE6F9D005120FE625D105120FE655
:1015B3008FD305120FE6CFD305120FE60BD4051216
:1015C3000FE61FD405120FE638D405120FE62AD50D
:1015D30005120FE6DDD505120FE6F1D505120FE66C
:1015E300648106120FE6888106120FE6A1810612B6
:1015F3000FE6DF8106120FE60F8206120FE63C822A
:1016030006120FE6A28206120FE6A58206120FE665
:10161300AF8206120FE6BC8206120FE6D9F6051258
:101623000FE6F9F605120FE638F705120FE656F73F
:1016330005120FE671F705120FE6D7F705120FE64D
:10164300E3F705120FE640F805120FE64FF805120F
:101653000FE673F805120FE634F905120FE641F9A8
:1016630005120FE652F905120FE681FF01120FE68C
:10167300C9FF01120FE6F5FF01120FE6FFDA0512AB
:101683000FE659DC05120FE667DC05120FE67ADC7C
:1016930005120FE68FDC05120FE6A4DC05120FE638
:1016A300B7DC05120FE633DD05120FE698DD0512F0
:1016B3000FE62EDE05120FE607DF05120FE617DF32
:1016C30005120FE626DF05120FE63FFF03120FE6B2
:1016D30063FF03120FE68BFF03120FE6B3FF031240
:1016E3000FE6A27D00120FE6C97D00120FE6E77D2B
:1016F30000120FE6567E00120FE606F405120FE6FF
:101703001FF405120FE62BF405120FE63FF4051242
:101713000FE65DF405120FE667F405120FE671F4A8
:1017230005120FE684F405120FE60AF505120FE61B
:101733007FF505120FE6AEF505120FE6FCF505126F
:101743000FE64BF605120FE666F605120FE670F686
:1017530005120FE681F605120FE6C4F605120FE631
:101763001E8906120FE6EDBA05120FE619BB051224
:101773000FE636BB05120FE649BB05120FE664BB45
:1017830005120FE6BEBB05120FE6ECBB05120FE612
:10179300FCBF05120FE65AC105120FE68CC10512F4
:1017A3000FE6EFC105120FE65BC305120FE683C315
:1017B30005120FE698C305120FE6A8C305120FE63C
:1017C300E8C305120FE62AC405120FE63AC4051250
:1017D3000FE6068406120FE6208406120FE64884FD
:1017E30006120FE6618406120FE6858406120FE6E1
:1017F300A38406120FE6BA8406120FE6E8840612E3
:101803000FE6038506120FE6FD8906120FE6CBE607
:1018130005120FE6DBE605120FE6E0E705120FE619
:1018230012E805120FE642E805120FE665E8051215
:101833000FE67CE805120FE6B6E805120FE61BE992
:1018430005120FE65DE905120FE6A4E905120FE69E
:10185300D1E905120FE6FCE905120FE60080061236
:101863000FE6208006120FE6348106120FE6378159
:1018730006120FE63B8706120FE6718706120FE684
:10188300898706120FE6CB8706120FE6DB8706125F
:101893000FE61F8806120FE66AC405120FE6ADC4F1
:1018A30005120FE612C505120FE631C505120FE644
:1018B300D3C505120FE6DCC505120FE62DC60512CA
:1018C3000FE656C605120FE663C605120FE6D5C628
:1018D30005120FE663C705120FE6A8C705120FE648
:1018E300E1C705120FE646C805120FE66FC80512D9
:1018F3000FE6E6C805120FE635C905120FE672C9F1
:1019030005120FE6A7C905120FE6B9C905120FE6BE
:10191300CBC905120FE6EAC905120FE6F3C9051292
:101923000FE6AFCA05120FE6F2CA05120FE630CB77
:1019330005120FE69AFF04120FE6C68206120FE69F
:1019430080F905120FE6B5F905120FE6FDF9051248
:101953000FE656FB05120FE6008005120FE62681FF
:1019630005120FE6628105120FE6208305120FE6CA
:101973004E8305120FE6B88505120FE6F8850512AA
:101983000FE69A8705120FE6308805120FE68A885C
:1019930005120FE61A8905120FE65E8905120FE696
:1019A300A08905120FE6058B05120FE6858C05123B
:1019B3000FE6C68E05120FE6F48E05120FE6208F92
:1019C30005120FE6298F05120FE6868F05120FE623
:1019D3001F9005120FE6369305120FE6BC9305120E
:1019E3000FE6A08806120FE6B68806120FE6C08837
:1019F30006120FE695FB04120FE6ABFB04120FE68B
:101A03004FFC04120FE68EFC04120FE6ABFC04122B
:101A13000FE6DCFC04120FE629FD04120FE65DFD60
:101A230004120FE698FD04120FE68DFF04120FE671
:101A33003B8606120FE69A8606120FE6D886061232
:101A43000FE6198706120FE6008004120FE60C80DA
:101A530004120FE66E8004120FE6788004120FE67C
:101A6300078104120FE6438104120FE63A8204123F
:101A73000FE6978204120FE6258304120FE676839E
:101A830004120FE6F68304120FE6B88504120FE67C
:101A9300BD8704120FE6B78804120FE6E989041222
:101AA3000FE63B8C04120FE67E8D04120FE6238EA5
:101AB30004120FE6D69204120FE6CC9304120FE63B
:101AC300629404120FE6879404120FE6249504121D
:101AD3000FE6419504120FE6619504120FE6CF95C8
:101AE30004120FE6EC9504120FE61A9604120FE6A1
:101AF300B29704120FE6D39704120FE679980412F3
:101B03000FE6C19804120FE61F9904120FE6C2995B
:101B130004120FE6279A04120FE6869A04120FE6C0
:101B23003C9B04120FE6AB9B04120FE6E69B0412E8
:101B33000FE65A9C04120FE6BB9D04120FE6529E59
:101B430004120FE6F19E04120FE64DA104120FE6F4
:101B5300AFA104120FE63CA304120FE66AA304121A
:101B63000FE68DA504120FE637A804120FE64AA963
:101B730004120FE642B105120FE65BB205120FE63F
:101B8300E3B305120FE6FDB305120FE610B4051219
:101B93000FE62FB405120FE6F8B405120FE65DB693
:101BA30005120FE689B705120FE6F3B705120FE624
:101BB300BEB905120FE63CE305120FE6F7E3051283
:101BC3000FE65DE405120FE67EE405120FE659E524
:101BD30005120FE62EC904120FE65DC904120FE6C3
:101BE300E1C904120FE644CB04120FE62ECC041213
:101BF3000FE6EACD04120FE60FCE04120FE661CE14
:101C030004120FE6F3CE04120FE63FCF04120FE6E1
:101C130052CF04120FE6AFCF04120FE67CD00412AA
:101C23000FE6EED004120FE625D104120FE66ED1B3
:101C330004120FE616D304120FE6F5D304120FE6CF
:101C430043D504120FE626D604120FE6B2D60412C9
:101C53000FE6EBD604120FE60AD704120FE655D7A8
:101C630004120FE675D704120FE632D804120FE6FA
:101C730055D904120FE6B0D904120FE6F6D90412AF
:101C83000FE6FEDA04120FE699DD04120FE6BFDD5C
:101C930004120FE63ADE04120FE65FDE04120FE6CB
:101CA300D3DE04120FE6B1DF04120FE6EFDF0412F6
:101CB3000FE679E004120FE660E104120FE663E138
:101CC30004120FE66DE104120FE677E104120FE64A
:101CD30093E104120FE605E204120FE63EE204125A
:101CE3000FE66AE204120FE691E204120FE6B5E290
:101CF30004120FE6F0E204120FE663E304120FE6A8
:101D030097E304120FE6A1E304120FE6DDE30412E6
:101D13000FE612E404120FE631E404120FE6B7896A
:101D230006120FE6CF8906120FE6FA7F00120FE6BE
:101D33005FAD04120FE682AD04120FE6E0AE0412AB
:101D43000FE629AF04120FE695AF04120FE6F3AFC7
:101D530004120FE6F6AF04120FE647B004120FE6C3
:101D6300BCB004120FE64CB104120FE64FB10412DB
:101D73000FE6D0B104120FE611B204120FE636B625
:101D830004120FE6E0B704120FE634B804120FE6AC
:101D9300C3BB04120FE6FBBC04120FE6CFBD041253
:101DA3000FE639BE04120FE663BE04120FE61CC031
:101DB30004120FE6FFC104120FE6AEC204120FE6CF
:101DC3004BC304120FE636C404120FE69EC6041278
:101DD3000FE6F8C704120FE666C804120FE61B9459
:101DE30005120FE6C59405120FE6309505120FE6AE
:101DF3004B9505120FE6CC9505120FE626960512B4
:101E03000FE66D9605120FE6CC9605120FE6DE97E8
:101E130005120FE6079B05120FE6379C05120FE626
:101E2300BF9C05120FE6C89E05120FE67A9F0512A6
:101E33000FE614A005120FE6E5A005120FE6A0A217
:101E430005120FE63EA405120FE6CBA405120FE61A
:101E5300F1A505120FE604D902120FE667D90212A3
:101E63000FE6AFD902120FE6F3D902120FE64EDAEC
:101E730002120FE6ABDA02120FE6E6DA02120FE6FF
:101E830068DB02120FE6C2DB02120FE640DD02122C
:101E93000FE6B8DD02120FE6D5DE02120FE6FDDE15
:101EA30002120FE650E002120FE661E002120FE6A3
:101EB30079E002120FE682E102120FE65FE20212FC
:101EC3000FE65CE302120FE680E302120FE697E3EC
:101ED30002120FE6B8E302120FE6DAE302120FE68C
:101EE300F9E302120FE6D1E402120FE62BE5021228
:101EF3000FE6C2E702120FE61BE802120FE63AE80A
:101F030002120FE62AE902120FE660E902120FE657
:101F130093EA02120FE612EB02120FE64EEB0212E5
:101F23000FE688EB02120FE6F7EB02120FE6ACECBA
:101F330002120FE684EE02120FE691EF02120FE691
:101F430009F102120FE6FFF202120FE675F5021213
:101F53000FE64FF702120FE610F802120FE688F8A9
:101F630002120FE69FF802120FE696F902120FE62D
:101F73008AFA02120FE6F9FA02120FE6BCED051215
:101F83000FE66CEF05120FE62BF005120FE693F048
:101F930005120FE657DF05120FE675DF05120FE690
:101FA300B9DF05120FE6DFDF05120FE606E00512C3
:101FB3000FE61EE005120FE636E005120FE6D8E045
:101FC30005120FE61AE105120FE6AFAD05120FE693
:101FD30046E205120FE64FE205120FE658E205123C
:101FE3000FE662E205120FE683E205120FE63BDD20
:101FF30003120FE643DA05120FE651DA05120FE674
:1020030056DA05120FE62BFE05120FE6D4FF021275
:102013000FE69EFF05120FE6AEFF05120FE69CFBCF
:1020230002120FE6008002120FE6328002120FE660
:102033009E8002120FE6398102120FE6D881021246
:102043000FE61D8202120FE6DFD603120FE6588257
:1020530002120FE67E8202120FE6A08202120FE640
:10206300DE8202120FE6228302120FE6448302127B
:102073000FE6A68302120FE66D8402120FE6248593
:1020830002120FE6968502120FE6688602120FE629
:10209300B28602120FE6058702120FE66B87021261
:1020A3000FE6A58702120FE6F78702120FE61388E1
:1020B30002120FE63E8802120FE6458A02120FE66D
:1020C300998B02120FE6BB8B02120FE6EF8B021203
:1020D3000FE6108C02120FE61F8C02120FE62A8CF9
:1020E30002120FE6DA8C02120FE6438D02120FE69C
:1020F300F08D02120FE6288E02120FE6EE8E021208
:102103000FE6FB8F02120FE6459002120FE6D49002
:1021130002120FE6389102120FE6739102120FE6D4
:10212300DF9302120FE6339502120FE66C98021248
:102133000FE6399902120FE6C79902120FE6F099DA
:1021430002120FE6629A02120FE6F69A02120FE6E5
:10215300549B02120FE6469C02120FE6689C021281
:102163000FE6C49D02120FE6DD9D02120FE6F09DFD
:1021730002120FE65F9E02120FE66B9F02120FE63A
:10218300789F02120FE6819F02120FE659A10212F5
:102193000FE67FA202120FE68FA202120FE691A3AF
:1021A30002120FE608A402120FE637A402120FE68A
:1021B3004CA502120FE618A702120FE6F0AA0212AC
:1021C3000FE6FAAA02120FE60EAB02120FE618ABE5
:1021D30002120FE622AB02120FE62CAB02120FE63D
:1021E30045AB02120FE64FAB02120FE6C3AB02126E
:1021F3000FE6CEAB02120FE6F3AB02120FE6FEAB15
:1022030002120FE64CAC02120FE656AC02120FE6B6
:1022130061AC02120FE685AC02120FE6A9AC021202
:102223000FE605AD02120FE64BAD02120FE668ADE5
:1022330002120FE6E5AD02120FE61CAE02120FE624
:102243005BAE02120FE6A8AE02120FE62AAF02122D
:102253000FE6C3AF02120FE693B102120FE6F1B11C
:1022630002120FE60DB302120FE633B302120FE6AA
:1022730072B402120FE698B702120FE6D9B902122E
:102283000FE6B5BB02120FE64BBC02120FE672BE9D
:1022930002120FE61EBF02120FE653BF02120FE631
:1022A300B8BF02120FE6C2BF02120FE6ECC1021260
:1022B3000FE613C302120FE653C302120FE6F9C36C
:1022C30002120FE68AC502120FE613C702120FE6C7
:1022D30033C702120FE68CC702120FE68EC8021232
:1022E3000FE6D8C802120FE628C902120FE612CA77
:1022F30002120FE687CA02120FE6A1CB02120FE603
:102303001CCC02120FE621CD02120FE6CCCF021233
:102313000FE6EBCF02120FE64CD102120FE60ED3FB
:1023230002120FE662D302120FE61AD402120FE66C
:10233300C9D402120FE61FD502120FE6D5D5021239
:102343000FE66AD602120FE6D6D602120FE610D7B0
:1023530002120FE641D702120FE69DD802120FE6D2
:10236300008003120FE6328003120FE66980031226
:102373000FE6528203120FE6358303120FE68D83B5
:1023830003120FE6C88403120FE6148503120FE647
:102393003C8803120FE69E8B03120FE6EB8C0312AD
:1023A3000FE6818D03120FE68D8D03120FE6BF8DAD
:1023B30003120FE6418F03120FE6DC9003120FE6C0
:1023C300849103120FE6C79103120FE62D920312B5
:1023D3000FE64A9203120FE67A9203120FE6AF92C8
:1023E30003120FE67F9303120FE6289403120FE6FE
:1023F300AC9603120FE6CC9703120FE6B5980312BF
:102403000FE6379903120FE6569D03120FE6939DCD
:1024130003120FE6EB9D03120FE61E9E03120FE657
:102423009F9E03120FE6EC9E03120FE6779F0312A3
:102433000FE6C99F03120FE6A0A003120FE659A1EE
:1024430003120FE6F4A103120FE60DA503120FE624
:102453002DA603120FE6DAA903120FE6F8AA031258
:102463000FE6FBAA03120FE62AAB03120FE630AD09
:1024730003120FE609AE03120FE63EAE03120FE698
:1024830046AF03120FE6FCAF03120FE69DB1031232
:102493000FE6C2B103120FE601B203120FE673B2E5
:1024A30003120FE657B303120FE624B403120FE629
:1024B3005AB603120FE6CBB603120FE60BB703129D
:1024C3000FE66CB703120FE62FBB03120FE61EBC19
:1024D30003120FE605BD03120FE67DBD03120FE6DF
:1024E3003FBE03120FE63DC003120FE655C00312B1
:1024F3000FE669C003120FE6A1C003120FE6CFC0B7
:1025030003120FE656C203120FE661C303120FE66E
:10251300B3C303120FE614C403120FE6C6C40312B7
:102523000FE6EDC403120FE6D1C503120FE682C610
:1025330003120FE671C803120FE6A6C803120FE6D3
:102543000EC903120FE63DCA03120FE6EFCA0312C8
:102553000FE620CB03120FE638CB03120FE6C7CBEF
:1025630003120FE67BCE03120FE653D003120FE6DE
:102573006FD003120FE68BD003120FE659D103126B
:102583000FE63DD503120FE6058501120FE63D85E3
:1025930001120FE61B8A01120FE6618A01120FE690
:1025A300AE8B01120FE6198C01120FE6A28D0112F8
:1025B3000FE6B29001120FE6CD9101120FE6DF9BF9
:1025C30001120FE6729C01120FE6C49F01120FE67F
:1025D300C0A001120FE61BA101120FE665A20112B2
:1025E3000FE653A301120FE6EFA501120FE663A74F
:1025F30001120FE6E6A701120FE6E9A701120FE6A3
:102603005EA801120FE668A801120FE675A8011271
:102613000FE6A0A801120FE650A901120FE649AA7E
:1026230001120FE6F4AA01120FE612AB01120FE634
:102633002BAB01120FE654AB01120FE676AB01127E
:102643000FE6CBAD01120FE690AE01120FE6D5AE49
:1026530001120FE654AF01120FE600B001120FE6AC
:1026630032B001120FE686B001120FE6C1B00112BB
:102673000FE608B101120FE658B101120FE65DB182
:1026830001120FE6B1B101120FE6DDB101120FE63F
:10269300C6B201120FE617B301120FE677B30112A8
:1026A3000FE6D1B301120FE66CB401120FE6ABB71C
:1026B30001120FE6BDB801120FE637BA01120FE699
:1026C30047BD01120FE6E5BD01120FE6DBC00112A3
:1026D3000FE69AC101120FE6DEC101120FE689C3AC
:1026E30001120FE69DC301120FE6A7C301120FE605
:1026F300B1C301120FE6BDC301120FE6E2C301121B
:102703000FE6BBC501120FE610C601120FE61AC68B
:1027130001120FE624C601120FE699C601120FE655
:10272300E8C601120FE6F9C701120FE646C8011207
:102733000FE653C901120FE697C901120FE63DCA0E
:1027430001120FE630CB01120FE6F6CB01120FE6B2
:1027530019CD01120FE637CE01120FE61FCF01127A
:102763000FE637CF01120FE68ECF01120FE698CF97
:1027730001120FE6A3CF01120FE6C1CF01120FE63C
:1027830009D001120FE66BD001120FE692D00112AD
:102793000FE6A4D001120FE63FD101120FE674D168
:1027A30001120FE65BD201120FE6A0D201120FE66F
:1027B30086D301120FE6ADD301120FE630D4011216
:1027C3000FE6A1D401120FE62AD601120FE656D75F
:1027D30001120FE619D801120FE6E1D801120FE634
:1027E3006BD901120FE693DA01120FE635DB011202
:1027F3000FE6B0DB01120FE66CDC01120FE6B6DC6C
:1028030001120FE610DD01120FE6E8DD01120FE6FB
:102813000BDE01120FE6BEDE01120FE6E0DE01124F
:102823000FE649DF01120FE65FE101120FE657E2FF
:1028330001120FE61BE301120FE64DE501120FE64D
:1028430097E501120FE6E7E501120FE64BE60112E9
:102853000FE6ADE601120FE6DBE601120FE6FFE637
:1028630001120FE634E701120FE665E701120FE6E6
:1028730098E701120FE6E8E701120FE63BE80112C1
:102883000FE660E901120FE600EB01120FE65BEBC6
:1028930001120FE684EB01120FE611EC01120FE6B1
:1028A3007FEC01120FE68DEC01120FE6B1EC011281
:1028B3000FE606ED01120FE621ED01120FE6D3ED4F
:1028C30001120FE60BEE01120FE64EEE01120FE6B8
:1028D300B1EE01120FE6B3F001120FE6DDF00112C3
:1028E3000FE6D4F101120FE6DEF201120FE68EF3CA
:1028F30001120FE66CF401120FE6A4F401120FE6C5
:10290300C5F401120FE607F501120FE669F501128E
:102913000FE673F501120FE683F501120FE6BEF51C
:1029230001120FE69EF901120FE68BFB01120FE66F
:1029330071FD01120FE608FE01120FE6AAFE011255
:102943000FE68C3500120FE6373600120FE6E53638
:1029530000120FE6EB3700120FE60B3800120FE6FA
:10296300343900120FE6EF3A00120FE6623B001211
:102973000FE6063C00120FE6123D00120FE67D3D06
:1029830000120FE6B93D00120FE6FC3D00120FE600
:10299300373E00120FE6793E00120FE60E3F00129B
:1029A3000FE68A3F00120FE6544000120FE6314152
:1029B30000120FE6C94100120FE6E34100120FE6D1
:1029C300134200120FE6444200120FE60A430012BC
:1029D3000FE61A4300120FE6694300120FE676432F
:1029E30000120FE67F4300120FE6FD4300120FE6CD
:1029F300594400120FE6A44400120FE6BF4400122C
:102A03000FE6EA4400120FE6074500120FE61345EE
:102A130000120FE6AA4600120FE6C34600120FE6A5
:102A2300484700120FE65B4700120FE67A47001291
:102A33000FE61E4800120FE69F4900120FE6524BA5
:102A430000120FE6E84B00120FE6EB4B00120FE605
:102A53005B4C00120FE6794C00120FE6104D00128A
:102A63000FE6584D00120FE65B4D00120FE6214EA4
:102A730000120FE68E4E00120FE6B44E00120FE660
:102A83003F4F00120FE65D4F00120FE6A34F0012F7
:102A93000FE6575000120FE6A15000120FE6D05078
:102AA30000120FE62D5100120FE6625100120FE6DD
:102AB3008E5100120FE69C5100120FE6E9510012ED
:102AC3000FE6595200120FE6A25200120FE6EE5221
:102AD30000120FE61A5300120FE6255300120FE6F9
:102AE300435300120FE62E5400120FE6385400121F
:102AF3000FE6735400120FE6835400120FE6D75407
:102B030000120FE6EB5400120FE61A5600120FE6FE
:102B13002F5600120FE6BD5600120FE602570012A1
:102B23000FE68E5700120FE6995700120FE6DB5897
:102B330000120FE6F65800120FE6425900120FE694
:102B4300B15900120FE6EA5900120FE6045A0012B7
:102B53000FE6645A00120FE6035B00120FE64E5BAA
:102B630000120FE61E5E00120FE6D05E00120FE6A3
:102B73003D5F00120FE67D6100120FE695610012C2
:102B83000FE6986100120FE6A46100120FE6B86128
:102B930000120FE6C06100120FE6F36100120FE6A8
:102BA300F66200120FE6836300120FE6F36300126E
:102BB3000FE6756400120FE6366500120FE65565E1
:102BC30000120FE6F66500120FE6536600120FE6D9
:102BD300566600120FE6CA6600120FE61968001265
:102BE3000FE61F6900120FE6AA6900120FE6C56A15
:102BF30000120FE68D6B00120FE6BE6B00120FE69C
:102C0300E16B00120FE6EA6B00120FE6196C00127B
:102C13000FE6A96C00120FE65F6D00120FE6D46D8C
:102C230000120FE67B6E00120FE6F06E00120FE645
:102C3300276F00120FE6656F00120FE6D4DA031256
:102C43000FE6A5AD05120FE63EAD05120FE623AD67
:102C530005120FE680AC05120FE680AB05120FE6F6
:102C63009EAA05120FE68EA805120FE69CA7051271
:102C73000FE63AA705120FE681FB04120FE677FB76
:102C830004120FE605D605120FE68BD703120FE6E3
:102C93000CFB04120FE640F904120FE64DD60312A3
:102CA3000FE607D603120FE6FEF804120FE60AF842
:102CB30004120FE6DEF704120FE695F704120FE68F
:102CC300D6F604120FE6AEF304120FE652F1041225
:102CD3000FE622F104120FE6D2F004120FE66CF0B5
:102CE30004120FE62BF004120FE65DEF04120FE659
:102CF300F7EE04120FE696EE04120FE636EE041218
:102D03000FE6D4EC04120FE668EC04120FE6BCEBFA
:102D130004120FE6B7EB04120FE6A0EB04120FE662
:102D2300D2D503120FE66BEB04120FE69FD5031205
:102D33000FE68AD503120FE65FD503120FE6FCB048
:102D430005120FE6C8B005120FE671B005120FE6C3
:102D5300FDE704120FE6FAE704120FE6B8E70412E0
:102D63000FE6FAAE05120FE6A5E704120FE69AE79F
:102D730004120FE669E704120FE661E504120FE699
:102D83003F8202120FE6D4E404120FE64CAE0512A2
:102D93000FE690E404120FE664E404120FE6D2FE99
:102DA30003120FE6A5FE03120FE672FE03120FE6EF
:102DB3004AFE03120FE6EBFD03120FE6CBFD0312EF
:102DC3000FE696FD03120FE642FA03120FE62AF806
:102DD30003120FE614F603120FE694F503120FE63F
:102DE30040F503120FE64CF403120FE6F4F403125A
:102DF3000FE63DE20500000080FB0000228F00018A
:102E030000BA1E87000100B81E350004007E1E258F
:102E1300000200821E26000200841E270002008694
:102E23001E28000100901E29000100911E84000449
:102E330000A81B86000100221E2A000100921E2BFF
:102E4300000100931E2C000100981E2D000800B6FF
:102E53001B2E000100991E2F0001009A1E30000155
:102E6300009B1E310001009C1E32000100BE1B337B
:102E7300000100BF1B340001009D1E36000100C08D
:102E83001B380001009E1E39000100971E830002BB
:102E930000B61E63000100CB1B64000100941E6595
:102EA300000100951E6D000100CC1B71000800AEEF
:102EB3001B66000100B51E43000100A61E4400026C
:102EC30000A71E45000100A91E46000200AA1E47D6
:102ED300000800C31B48000100AC1E4B000100ADFD
:102EE3001E04000100B91EA1000100BD1E37000130
:102EF30000BC1E88000100BB1E3C000100C11B3D3D
:102F03000001009F1E49000200AE1E67000100CDB4
:102F13001B4D000200B01E4E000100B21E4F000206
:102F230000B31E3E000100A51E51000100A11E5268
:102F3300000100A21E53000100A41E54000100C2A0
:102F43001B000000000000000136360101000102F1
:102F53000100010301000104010606050200000748
:102F63000100340801000F090401010D0100FF0EE7
:102F730008000017020000190100FF1A0100011BDD
:102F83000100FE1C0100081D0200001F01000120BA
:102F9300010001210200002301000F24020000268A
:102FA30001000127010008280200FF2A0100072B66
:102FB3000102402C0100002D0100012E0100012F10
:102FC3000100FF30010B1D310800003A0100083BEE
:102FD30001000F3C0100013D0100FF3E04000042DF
:102FE300040000460400004A0400004E040000529E
:102FF300040000560400005A0400000000000020F2
:103003000103850000010020010485000002002067
:1030130001FF84000003002001008500000400423A
:10302300011F840000050042018483000006004262
:1030330001128400000700300101850000004042B6
:103043000112840000FDFF2101FB842A04000039E2
:1030530005841A2A04C8003905881A2A04C90039C4
:10306300058C1A2A0401022123541E2A0421022159
:1030730023481E2A04220221234A1E2A0420021066
:10308300234C1E2A04250210234D1E010371030144
:1030930003010301030103010322030203010310DC
:1030A30003000300030003000300030003000342C3
:1030B3000300032403060300030003040312032590
:1030C3000323032503230304030403000300030072
:1030D30003440300030003230300036503210035B6
:1030E300038103000305030003000300030003251A
:1030F3000323030302710230016002110270020113
:1031030002020202028002100261023A00410063DD
:1031130002730272026202430200021302380000C9
:103123000200020402120200020002000200020472
:10313300020402370037003C024402000239000057
:1031430002000265020002350281020002050282CA
:103153000283020002010171010101010111010158
:10316300013101010101018001100161013B0014E2
:10317300006301730172016201430100011301063F
:10318300013D0135000401120100010001000100AD
:103193000104010401330133013C014401320136CE
:1031A30000000100016501000135008101000105F6
:1031B300018201830100010304710402046004110C
:1031C30004700402040204010402041004610400F4
:1031D30004140463047304720462044304000413B8
:1031E30004060400040004040412040004000400A0
:1031F30004000451046400000400040004440400B7
:10320300040004000400046504000435048104641C
:10321300000504000483040004030071003001600E
:10322300001100700031022003500480001000617F
:10323300000000140063007300720062004300008A
:10324300001300060000000000040012000000004C
:10325300000000000004000400370037003C024473
:103263000000000000000000006500000035008140
:103273000000000500000083000000360001000686
:103283000000000F0000000000000000000000002C
:103293000003FFFF00000403FFFF0000FFFF0FF424
:1032A300010005C4040320000100000B000000001E
:1032B3000000000003010F000000000000000000F8
:1032C30000000000000000000000000000000000FB
:1032D3000000000000000000002C1B5C1B321B667A
:1032E3001A381B621B381B6E1B3E1B661A381B6287
:1032F3001B441B661A000000004A1B661A000000EC
:1033030000501B661A561B661A00000000000000DE
:1033130000000000000000000000000000000000AA
:10332300000000000000000000000000000000009A
:1033330000000000001300A81D1F00AE1D1F80B475
:103343001D00000E1E01000E1E0200541D02804EC1
:103353001D03005A1D0400601D0480661D05006CDA
:103363001D0600781D31008A1D3300901D34009620
:103373001D36009C1DFFFF00000A00000002000034
:1033830000040000000800000010000000200000FE
:103393000040000000800000000001000000020067
:1033A30000000400000008000000100000002000DE
:1033B300000040000001C42506F42508EE250B1289
:1033C3002610122302CA2505E22507D0250CAC25B9
:1033D3000DB825640821FF00000300030004000862
:1033E3000010001F003E007B00F600EC01D703AF86
:1033F300075D0FB91E713D000007ECFDFDFDECDC20
:10340300DCCCBCACAC9C9C8C7C7C6C6C5C5C5C4C09
:103413004C3C3C2C2C1C1C03EAF5E5D5D5C5B5A5C5
:1034230095958585757565655555454535352525C9
:1034330015150500160F00000B150B020002220FD5
:103443003300000E0F5A6967426565416C6C696110
:103453006E636530390000000000000000000000CA
:103463000000000000D0D1D2D3D4D5D6D7D8D9DA32
:10347300DBDCDDDEDF00034D4C4651181A25050267
:10348300303016181920231A1C1E30003C40423AD3
:103493003F3F392F4730000119161816161823031A
:1034A30000303017181921301B1D1F300C0E020B72
:1034B300040B0A0708000F020402010101010902BB
:1034C30000BE040AE8030000E80300000100030053
:1034D3007F0000000E00000404080405030A0C101A
:1034E3001208091E0C28FF03100209033C0C0508EF
:1034F30015001EE4F0A3F0A3F0A3221234F6F02289
:10350300901D14124B021229AE2212351122E0F53E
:1035130008E4F509F50AF50B22E824FBF582E93402
:10352300FFF58322E82411F582E439F583E022F5DF
:103533008312353822E0F508A3E0F50922122C2A7C
:103543007404120FFB7F08020DE27401F0900B5E0E
:10355300E0640F227409120FFB7F04020DE2EA24D8
:1035630013FAE43FFB122B58E9227905122B6474FA
:103573000622A3A3E024F5C3941322122C36900B46
:103583007E126AC07A147B0022C082C083901CF32F
:1035930074A2F0A37429F0A374B4F0A37429F09077
:1035A3001CF7748AF0A37429F0A37484F0A374291C
:1035B300F0A374C0F0A37429F0A374C6F0A3742914
:1035C300F0A374BAF0A37429F0A37472F0A374295E
:1035D300F0901D037496F0A37429F0A3749CF0A3D8
:1035E3007429F0A37490F0A37429F0A374CCF0A30E
:1035F3007429F0901D141254D16009901D14124ABD
:10360300FE121952901D11124E18740812616DA307
:10361300F0901DBDF0901D16F07C0BFDF97A177B21
:103623001D1218A47C0B7D0079007A227B1D1218D1
:10363300A4024C7274F7120B3674F71210C9EAFE27
:10364300EBFF1236CA7405124F367403F01237E1DA
:10365300124F182430FCE43FFD8C821236C212361E
:10366300D66008123EEF74FFF0A3F0EE242EE43F81
:103673001C1CFD8C82F583A3E0C0E08A828B83123D
:103683004BCAD0E01236D6888289831254052403AC
:10369300F0EE123EF912133F7403F0900B73120E07
:1036A3006B74021210C1123AC3120FFBE9F50870D2
:1036B30007EEFAEFFB122A3EA9087409023F08F548
:1036C30083E08882898322EA1236CF221256143F7E
:1036D300F583221263ED124F24E8F0A3E91266C4C6
:1036E300E02274F0120B36EAFEEBFF8C0C8D0D8991
:1036F3000B1237E1F583124F2C741012133FE0F5D0
:1037030008A31236C4F0E824FFF582E9123AD5E59E
:1037130008F0E824FEF582E9123AD5E50BF0900BA8
:1037230078E0C0E0E824FDF582E9123AD5D0E0F074
:10373300900B77E0C0E0E824FCF582E9123AD5D09B
:10374300E0F0741212133F12353412351CE509F000
:10375300E824FAF8E934FFF98882F583E508F0EE06
:103763002404FCE43FFD88088A828B83E0F50E8CF9
:10377300828D83E0250EC395081263ED124D5285A9
:103783000C82850D83A3A3A3A3A3A3A3A3E0640334
:103793007009EE124F06F0A3E48003123ADA123AEC
:1037A300E27409F075081775091D750A0078081287
:1037B300101A125EB7120FFB7508FF7509FF780820
:1037C30012101EAC0CAD0D123AC3120FFBE9F50833
:1037D3007007EEFAEFFB122A3EA908023548EA24E5
:1037E30002FAE43FFB8A8222C082C083901D33E049
:1037F300C39408400474078001E08A828B83F0330A
:10380300333354F8F9024C7274F0120B368A088B76
:1038130009890A8C0E8D0F750C00A2AFE433F50BEA
:10382300C2AF901D2D804512390D503D12392764CA
:10383300037036E50824F9F508E50934FFF5098E28
:10384300828F83A3A3E02405FCA3E03400FDAA0830
:10385300AB09121A42E50824FFF508E50934FFF520
:10386300097410250CF50C150A123CFC126E75E553
:103873000A6004EE4F70B0E50BA2E092AFA2AFE492
:1038830033F50BC2AF901D2D803E1253DE8882F5B7
:1038930083124652850882850983F08A82898312BE
:1038A300391EA3A3E0C0E0E50824FFF582E5091271
:1038B3003AD5D0E0F0E50824FEF508E50934FFF534
:1038C30009050C150A123CFC123B506021123927E2
:1038D300640270F112390DEE40B012504DA2E55062
:1038E300E4850E82850F837401F0E50A70D7E50B3A
:1038F300A2E092AF850882850983E50CF0E50824F0
:10390300FFFAE50934FFFB023548123913A2E62218
:10391300EE2411F582E43FF583E0221239222212CC
:103923005423A3228E828F83A3A3124BCE125AFA5F
:103933002274F0120B3674F31210C9740312133F7E
:10394300E9F0740212133FEAF08B0B852182852282
:1039530083E4F0041210B9122954E9F8900B5DE0E6
:10396300292437F508FA7B001218B68A0C8B0DAEA2
:103973000CAF0DEA4F7003023ABAEA2402F50EE4E3
:103983003FF50FA808EA28F8E43BF9850E82850F76
:103993008312444E900B5DE0F9FAC3E49AFA95E082
:1039A300FB850E82850F83E02AF50CA3E03BF50D22
:1039B300900B5B123534750A00780812101AE9FC73
:1039C3007D00AA0CAB0D124E88120FFBAC21AD2269
:1039D300740112133FE0F9E50C24FFFAE50D34FFFF
:1039E300FB12295A8A828B83E4F0E50BC454F0F965
:1039F300901DBEE0C4333354C0F8900B57E0A2E0EF
:103A0300E43313134849440FC0E0EA24FFF582EB83
:103A1300123AD5D0E0F0EA24FEF50CEB34FFF50DB5
:103A2300740312133FE0F8740212133FE0C454F01E
:103A330048850C82850D83F0A80C850E82850F8343
:103A430012613A2AC3988E828F83A3A3A3A3F0851E
:103A53000E82850F83E8F0A3E50DF0123ADA123AED
:103A6300E2E4F0740C12133FE4F075082275091DAB
:103A7300780812101A125EB7120FFB852182852275
:103A830083E06009EE240E12504F4408F0122B46D7
:103A9300E9F9E4F508F509780812101E7406121006
:103AA300C1123AC5120FFBE97006EEFAEFFB800B69
:103AB300EEFAEFFB1218BC7A007B00740D02354559
:103AC3007903EEFAEFFB122B5E740222EE24FFF56C
:103AD30082EF34FFF58322EE1236CFE4F0A322F017
:103AE300123AE722EE125DDA3FF5832274F2120BEB
:103AF300368A0C8B0DA2AFE433F50AC2AF7508000A
:103B0300750900901D2D802C123D0C5024850C82CC
:103B1300850D83A3A3125ECA8E828F83A3A3124A49
:103B2300FE122B4CE9600A123D07C2E6F08E088FA5
:103B330009123CFC123B5070CFE5084509600612A0
:103B43003BE9D2E6F0E50AA2E092AF800DE0FEA3E6
:103B5300E0FFEE4F227402120FFB7F06020DE274A8
:103B6300F0120B368A0E8B0F8C0C8D0D750A00A28A
:103B7300AFE433F50BC2AF7E007F00901D2D8010A4
:103B8300AE08AF09123BE112504DD2E7F0124ADC06
:103B9300124AF06034123BE9A2E750F185088285AE
:103BA3000983A3A3120E6BAC0CAD0DAA0EAB0F12BF
:103BB3002B527402120FFBE960D3EE4F60C2123F27
:103BC300837006123BFBD2E4F0E50BA2E092AFEE6A
:103BD3004F6006122A38750A01A90A0235481239BC
:103BE30013D2E4F0EE22E508125DF43509F583E023
:103BF30022AA82AB83121A428E828F83A3A3124B13
:103C0300CEE02274F2120B3674FE1210C9750C004A
:103C1300750D00852182852283E4F0A3F0A2AF33E2
:103C2300F50AC2AF901D2D126E75802BEE24FBF5A5
:103C330082EF34FF123532780C12101E123CEA1256
:103C43000FFBEEFCEFFDAA21AB221218DAAE08AF90
:103C530009901D33E014F0EE4F602B123D0C501D04
:103C6300EE240BF8E43FF98882F583E024FFF0A308
:103C7300E034FFF0888289831254D160AF8E0C8FB9
:103C83000D123CFC80A1E50AA2E092AF901D33E047
:103C9300602C900B5EE0640F6006901DBDE0701E0B
:103CA3007A0B7B1D122C369084F7120E677A0B7BEE
:103CB3001D124CFA120FFB800574F0124BDBAA2184
:103CC300AB221218E08A088B09AE08AF09EA4F60ED
:103CD30013122966123D07A2E28E828F83A350D965
:103CE30074E980D7023B58EEFCEFFD7A2D7B1D1261
:103CF30018EC7402228E0A8F0BEE24FBF582EF344C
:103D0300FFF58322EE12391422123913A2E722742B
:103D1300F7120B36EAFEEBFF122966124BC7120CA1
:103D2300AEE96401900B7A700AE02401F8A3E03451
:103D3300008003124B4DF912524F124D52901D3316
:103D4300E0701F900B5EE0640F70177A0B7B1D12FF
:103D53002C369084F7120E677A0B7B1D124CFA12E5
:103D63000FFBA8A8C2AF901D33E004F0E8A2E780E0
:103D730004E508A2E092AF02515D74F7120B36EA34
:103D8300FEEBFFEA123DB3F0122966EEFCEFFD7A7B
:103D93002D7B1D1218E6A8A8C2AF901D331246A1B1
:103DA300900B5EE0640F70057908122AFE02515DE4
:103DB300123914C2E42274F7120B3674EA1210C9D2
:103DC300EAFEEBFF900B57E0602A85218285228370
:103DD3007401F012133FE4123E6E12133F123BF4D0
:103DE300C0E0740A12133FD0E012615A740B12132D
:103DF3003F1253BA7416023F0874F7120B36EAFEE9
:103E0300EBFF122948E9F974DC69601E74DD69600F
:103E13001974E469601474F369600F74DE69600AED
:103E230074DF69600574DB697007EEFAEFFB122B30
:103E33000402515D74F7120B3674EB1210C9EAFEDB
:103E4300EBFF8521828522837406123E6E12133F97
:103E5300AA82AB83121A42EE2408FCE43FFD740AE3
:103E630012133F1253BA7415023F08F0EA2413FCED
:103E7300E43FFD74022274F7120B3674F71210C973
:103E8300EAFEEBFFEA243012504F605DEA123EF97E
:103E930012133F7403F0900B73120E6B123EEF126A
:103EA3000E6B900B86E0F974041210C1EEFAEFFB6F
:103EB30012294E7404120FFBE9F974DC6960237450
:103EC300DD69601E74E469601974F369601474DE5B
:103ED30069600F74DF69600A74E869600574DB69FF
:103EE3007007EEFAEFFB122B040236BDEE242EF51B
:103EF30082E43FF583221262CBAA21AB22121A423B
:103F03007408227403120FFB02515D74F2120B3614
:103F13008A0C8B0D750A00750B007508E7A2AFE4D8
:103F230033F509C2AF901D2D8003123CF8123B50AC
:103F33006025123D0C50F3123F8370EEEE243212D3
:103F4300411AE06870E4780A12101E123CEA120F5C
:103F5300FB901D33E014F0E509A2E092AFEE4F6051
:103F630013EEFAEFFB12296679F0EEFAEFFB122B50
:103F730004750800A908AA0CAB0D122B04023B5DC3
:103F8300123AE7E064012274F4120B3674F712104C
:103F9300C9EAFEEBFF8A82F583A3E064F3700302B0
:103FA30040288A828B83A3E064DF60798A828B83D3
:103FB300A3E064E8606F8A828B83A3E064DB6065BF
:103FC3001229A8E9F5087055EE240E12504F604DE2
:103FD3001240326048740812133F124041120E6BB4
:103FE3007508FF7509FF780812101E8E828F83A350
:103FF300A3A3A3A3A3A3A3E0F974041210C11229DA
:104003004E7404120FFBE9F50874F369600F74DF53
:1040130069600A74E869600574DB69700F8E828FCA
:1040230083A3E508F0EEFAEFFB1229B4023557EE4D
:10403300240FFAE43FFB79091229EAEA4B227402BE
:104043001258C074FFF0A312404E2212540EA3A3C1
:104053002274F1120B36EAFEEBFF7508008A82F533
:1040630083A3A3A3A3A3A312357540037508E88A0A
:10407300828B83A3A3A3A3A3A3A3A3A3A3E0C39418
:104083001040057508E880138A828B83A3A3A3A33A
:10409300A3A3A3A3A3A3E0640F600B901D9AE05412
:1040A3000870037508E8EA240B12411AA3A3A3A31B
:1040B300A3A3A3A3E0C398500DEA240B12504F64AB
:1040C3000F60037508E8900B77E0F47003A3E0F446
:1040D30070037508EC7A237B0012194C8B0BA90B28
:1040E300901D1412412960278E828F83A3A3A98276
:1040F300AA83890C8A0D750E00780C12101A7C2382
:104103007D00901D14E0FA124E88120FFB80037598
:10411300081AA908025EB2F582E43FF583E0F88A43
:10412300828B83A3A322EAF0A3EBF0EA492274F57E
:10413300120B36EAFEEBFF8A82F583A3A3A3A3A3A4
:10414300A3A3A3E0900B5E1241C1E0900B79F0EAC8
:10415300240B12504F900B591241C1A3E0901DBE86
:10416300F0F912170C901DBEE0600BEE2404125000
:104173004124061241B7901DBD12354D60047401F0
:1041830080027400901D1612680512101A7C0B7DB4
:10419300007A177B1D124E88120FFBEE2418F508C8
:1041A300E43FF509780812101A7C0B7D007A227B14
:1041B3001D024E75FAE43FFB79E11216F4221267F1
:1041C300EFA3A3A3A32274F7120B36EAFEEBFF8A35
:1041D30082F583A3E0700312350312637602515D07
:1041E30074F7120B36EAFEEBFF901D141254D160E4
:1041F30010901D14124AFE901D14E4F0A3F012193E
:10420300528E828F837408124BE2122C8402515D0A
:1042130074F6120B36901DBDE06010901D16E07011
:104223000A124231EA4B6003122A3E026470900B79
:1042330059E0FB900B79E0FA900B5EE0F9122960EC
:104243002274F4120B3674E71210C9EAFEEBFF7501
:104253000B018A82F583A3A3A3A3A3A3A3E0A2E2F2
:104263005069EA242BF582E43F125EC8EA2413FA6C
:10427300E43FFB12296CE97052908457E0640170AB
:1042830005750B00804512430312101A7C0B7D0049
:1042930074111210B9124E88120FFB122B46E9FA51
:1042A300740E1210B188088909780812101E750857
:1042B30030750900780812101EEE126123120E6B7E
:1042C3001262BD790112356F120FFB85218285229F
:1042D300837410F01262BD740212133FAA82AB837F
:1042E300121A36EE242B126AB6740B12133F124DB8
:1042F30052740D12133FE50B12652F7419023559D1
:10430300EE240812680D22C082C083901DBEE060B7
:1043130003122BB8024C72C082C083901DB574F394
:10432300F0A3741CF0A374F7F0A3741CF0A374033C
:10433300F0A3741DF0901EF374BAF0A37431F090DF
:104343001D9F7442F0A37429F0901D387478F0A374
:104353007429F0901D3A747EF0A37429F0901D9A8D
:10436300E04402024776C082C083EAFCEBFD790396
:1043730002547DC082C08379080265F0C082C08385
:1043830074FE1210C9901D407426F0A3742AF09095
:104393001D427420F0A3742AF080077A2D7B1D122E
:1043A30043DB901D2D1254D170F1901D2F1254D167
:1043B30060097A2F7B1D1243DB80EF901D2DE4F003
:1043C300A3F0901D33F0A3F0A3F0901D4E7462F0A0
:1043D300A3742AF07402801C1218E08521828522BE
:1043E30083EAF0A3EB1243EF122B3422F0AA21ABA2
:1043F30022227411120FFB024C7274F6120B36E96F
:10440300FF748E29F582E43434F583E493FEFA7B5A
:10441300001218B6EA4B6007EA2E12444B80267A44
:10442300027B001218B6EA4B601774A42FF582E4DE
:104433003434F583E4938A828B83F0A3741A12488D
:10444300147A007B00026470124D41E81263EAA300
:10445300A3A3A3E4F022E9FC740629F8EAA2E0503E
:104463001EE875F00A84E5F0F96014740A28C3990C
:10447300F8E9C394054004740A28F8740B28F8EC8F
:10448300C394134004791480027906E8297900243F
:1044930009F85001097A0A7B0012096EE8F9020F44
:1044A300E3C082C083901D9AE05402600A121FF495
:1044B300E96004790180027900024C72C082C083F2
:1044C300901D9AE054026014901D33E0700A125458
:1044D300CE60091244E45004790180027900024C51
:1044E30072123527A2E722C082C083908454E0F879
:1044F300901D35E0C39850051218B680047A007BEE
:1045030000024C72C082C083122B347900024C72B9
:10451300C082C08374FE1210C9852182852283EA7A
:10452300F0A3EB12467DA3A3A3A3A3E0600A146048
:104533005724FE605A0245ED900B5EE0640F601253
:10454300122B0AE9700C124AF8901D3C124BCA1246
:104553000CAE900B86E0C0E0852182852283125346
:10456300F1D0E012467D7414125E0EFCA3E0FD7AD6
:104573002F7B1D1218DAA8A8C2AF901D351246A1D1
:104583007920122AFE0243D712494B741580D9129F
:10459300494BA3A3A3A3E0605112494B123BFFC0B5
:1045A300E0852182852283E02406F582E43BF583BE
:1045B300D0E0125E0E2402F8A3E03400F98882F5FD
:1045C30083E02401FAA3E03400FB88828983EAF0C4
:1045D300A3EB125E0E12498B852182852283601321
:1045E30012465260051246644048AA21AB22122BA0
:1045F30034809212465260F2124664502112467180
:10460300FA852182852283A3E0C82406124947F84C
:1046130074B91256063434F583E4936A6014852121
:1046230082852283124652640870BF124671640861
:1046330070B812467114124685240AC0E08521829F
:10464300852283124BCAD0E01246850402456B12C1
:10465300465622124B4DC82406F582E438F583E012
:1046630022852182852283124656C3940A228521FC
:1046730082852283123922A3E02212468FF5838892
:10468300822212468FC8240612497522F0852182A0
:10469300852283124B4D22A8A8C2AF901D34E0049B
:1046A300F0E8A2E792AF22C082C083901D44125467
:1046B300D16008124952120CAE80027900024C728A
:1046C30074F7120B36EAFEEBFFEA123AE8740112B2
:1046D3004D00F8A3E0F91236CA124D52EA243512FE
:1046E300504FC0E0EA2413F582E43FF583D0E0F0B5
:1046F300EA243612504FC0E0EA2414F582E43FF571
:1047030083D0E0F0EA243812504FC0E0EA2418F5D1
:1047130082E43FF583D0E0F0EA242FF582E43FF50D
:1047230083120E6B1262CAEA243112504FF9123A05
:10473300C9120FFBE9F5087007EEFAEFFB122A3EE8
:10474300A90802515DC082C083122B0AE960047973
:104753002080027901024C72C082C083EA241112C4
:10476300476CD2E0800DEA240DF582E43BF583E04B
:1047730022F0A3F0024C72C082C083124769640125
:10478300701112480E400C8A828B83A3E0F9122B1E
:104793000480661247FFA2E650128A828B83A3E04D
:1047A300F9901D3E124BCA120CAE804D124769643C
:1047B30001700D12480E50088A828B837430803644
:1047C3008A828B83A3E0641B8A828B8370047422A6
:1047D3008024A3E0700D124769F8748312560634DF
:1047E30034800B124769F874A41256063434F583E7
:1047F300E4938A828B83124814024C721248032278
:10480300EA2410F582E43BF583E022124803A2E395
:1048130022F0901D95E0F91218C22274F7120B369C
:10482300E9FE1254CE7003024944EE6014741B6E09
:10483300701AE8125DDA39F583E064057003024902
:104843001C901D37124952A3E402492374E96E7088
:1048530068E82412F582E439F583E0700B121FFA3D
:10486300E96005124995606179EE121676901D365E
:1048730012496C901D36603A124998901D36700BA0
:1048830012496C14F012182C02494412498AC2E7E7
:10489300124B33240D124947640370091249651200
:1048A3004AE9D2E2F079ED12167612497D120CAE86
:1048B300807812495874E9806774E16E703E121F64
:1048C300FAE960551249957050900B80E0C0E012F0
:1048D30049652412F582E438F583D0E0F0900B6F3C
:1048E300E0C0E0901D36124961124961D0E0F090BA
:1048F3000B6FE004F079011218148045741C6E707C
:1049030018901D36124AFE901D46124BCA120CAE69
:10491300901D36E4F0A3F08028901D36124958EE1E
:10492300F0901D36124AFE122A2C124B14E05480CA
:1049330060031265DF901D36E4F0A3F07910122AAC
:10494300FE02515D12497522852182852283A3E0EF
:10495300F58388822212495C22124BD2A32212547D
:104963001F22901D361254002212540024121249A1
:104973007522F582E438F583E022901D36124B024E
:10498300901D3A124BCE22E0F8A3E0C8241012493E
:104993007522901D36124B1BE054042274F4120B43
:1049A30036750A00750B00A2AFE433FEC2AF125492
:1049B300CE6003024A92124BC7120CAEE94410F8C0
:1049C300901D2D800985080A85090B124ADC124ABD
:1049D300F07003024A92123BE9586870E8780A12B1
:1049E300101EAC08AD09123CEE120FFB901D36E50C
:1049F30008F0A3E509124B33124AE9A2E750030278
:104A03004A99901D34E014F0EEA2E092AF901D3667
:104A1300E0240EF8A3E03400F9E8FEE9FF8882F50C
:104A230083124AFE901D36124677F91229F0E99057
:104A33001D3112616D8E828F83E05480601812499C
:104A4300652413124947F9121730124965241412C9
:104A53004947F9121724124B14A3E05401605F90E5
:104A63001D311254D16045124B2A6040124B2AF873
:104A73007900901D31124AFE120976E8C0E0124B0C
:104A830008D0E0124B38C3941340117402800FEE28
:104A9300A2E092AF8037901D33024A087400C0E051
:104AA300901D37E0C8124AD3D0E0800D124B087432
:104AB30001124B33124AD37401F07903800C901D19
:104AC3003612498AA2E1B3E433F912181402355CB1
:104AD300241AF582E438F58322E50824FBF582E500
:104AE3000934FFF58322125DF41249782212353816
:104AF300E508450922852182852283124B0222E0A3
:104B0300FAA3E0FB221253FD2419F582E438F5835E
:104B130022901D36124B1B22124B4DC8124B2322DF
:104B230012561438F583221253FD241812497522A4
:104B3300124B45C822124B45F5838882A3A3A3A336
:104B4300E022F0901D36124B4D22E0F8A3E02274D0
:104B5300F7120B36EAFEEBFF122B2E12504CA2E398
:104B6300400A123F8370059084528003908453E07F
:104B7300F9EEFCEFFD7A2D7B1D1218F2E96038EE99
:104B8300FAEFFB901D40124BCA120CAEEE240E122C
:104B9300504F5404701212469AEE1236CBA3E054CF
:104BA30001701E122A388019EEFAEFFB901D38129D
:104BB3004BCA120CAE800A8E828F83A374F1124B00
:104BC300DB02515D901D42124BCE22124BD222E0EA
:104BD300F8A3E0F583888222124BE2122A2C22F0FA
:104BE300EEFAEFFB22024C6B74F7120B36EAFEEB84
:104BF300FF7900901D9AE05402700CEA243312509E
:104C03004F5404600279E8901D9AE05460700CEAF6
:104C1300243312504F5402600279E88A828B83A3B3
:104C2300A3A3A3E0F8908458E0C398500279E8EA7C
:104C3300243112504F700CEA242E12504F70047915
:104C4300F5800BE97005122A1AE9F9E96007EEFA13
:104C5300EFFB122B0402515DC082C0838A828B83D7
:104C6300740DF0122C848007C082C083122A38D0BE
:104C730083D082020FE374F4120B36EAFEEBFF8A51
:104C830082F583E4F0A3124D005404908452701211
:104C9300E0F8901D34E0C398401279F1122B04021E
:104CA300355CE0F8901D33E0C39850EE124D06A337
:104CB300E054016037EA243712504FC39405403360
:104CC300EA243312504F540570297A487B1D122C65
:104CD30036EE2437F582E43FF58312350D7808125A
:104CE30010167A487B1D124CFA120FFBEEFA12567D
:104CF300F780AC79E880A5122C2A740422F0124DB7
:104D030006E022EA2433F582E43FF5832274F612A7
:104D13000B36E9FE2451FAE43400FB1218B6EA4BD1
:104D23006015EE8A828B83A3A3A3A3F0EA24511216
:104D33004D41124D5280047A007B00026470F8E406
:104D43003BF98A828B83A3A322126AC0901E12E8C6
:104D5300F0A3E9F022024C6BC082C083901D517412
:104D63008CF0A3742AF0A374BCF0A3742AF0A37488
:104D730092F0A3742AF0A37498F0A3742AF0A37496
:104D8300B6F0A3742AF0A374AAF0A3742AF0A37450
:104D9300A4F0A3742AF0A374C2F0A3742AF0A3743A
:104DA300C8F0A3742AF0A374CEF0A3742AF0A374FA
:104DB300DAF0A3742AF0A3749EF0A3742AF0A37408
:104DC30086F0A3742AF0A37480F0A3742AF0901DD4
:104DD3006D74B0F0A3742AF0A374D4F0A3742AF012
:104DE300A374EEF0A3742BF0A374E0F0A3742AF081
:104DF300A374E6F0A3742AF0901D91E4F0901D943F
:104E0300F0901D7D124E187402F0901D86124E18FC
:104E1300740102477674FEF0A3742AF0A32274F59A
:104E2300120B3674F11210C9852182852283740214
:104E3300F0740112133FE9F060047AFF7BFF740200
:104E430012133F1258B575088975091D750A007844
:104E53000812101A7C0B7D00740712133FAA82AB51
:104E630083124E88120FFBAA21AB22122C84740FDB
:104E73008003124E88120FFB7F03020DE27C0B7D31
:104E8300007A897B1D12189874032274F7120B366B
:104E930074FD1210C9852182852283740AF074017E
:104EA30012133FE9F0740212133FEA12652F023F17
:104EB3000674F6120B3674F71210C9EAFEEBFFEA1A
:104EC300124F06124F367402F0EA2428FCE43FFD29
:104ED300AA21AB22121A36EE2431124F0C243312BC
:104EE3005F2E12101E74021210C179831A1A123A1D
:104EF300C7120FFBE9F5087007EEFAEFFB122A3E23
:104F03000264691236CF740122F582E43FF58312FD
:104F130035381253D6F583124F24E8F0A3E9F0EEA7
:104F230022124F2C8A828B8322E024FFF8A3E034E1
:104F3300FFF922F0A3E4F0EA123AE82274F0120B2C
:104F43003612699E1212CA7808790C1209CF7808B2
:104F53001210167A807B1D02354074F4120B3674DE
:104F6300C61210C9900B5EE0640F600D8521828527
:104F73002283742E1258D480227A777B1D12357EB9
:104F830012097688088909E4F50AF50B78081210E6
:104F9300167A777B1D124CFA120FFB743A023559BD
:104FA30074F5120B36EAFEEBFF8A82F583A3E0F871
:104FB3007078EA243012504F64026007E0640360A3
:104FC3000278E8EA2426F582E43FF5831235774038
:104FD3000478E88058E87052EA24261241B7EE2498
:104FE30031125041243012504F6402700EEE2428C7
:104FF300126AB6900B6D124D528017900B6D74FEB2
:10500300F0A304F0EE2428FCE43FFD7A647B0B124A
:105013001A42EE241B12430612101A124E80120F6C
:10502300FBEEFAEFFB122A7AE9F8E8600EE88E82CB
:105033008F83A31262D2741712637C024E7BFAE44D
:105043003FFB79501216F4EE22EE2410F582E43F72
:10505300F583E02274F6120B3674F71210C9901D13
:1050630094E070377401F0F91217DEAA21AB221213
:105073002B4075088975091D780812101E750801E3
:10508300750900780812101E900B73120E6B7406CC
:105093001210C17A0312356D120FFB02646B74F7A1
:1050A300120B3612527D7004A374EBF0901D94E042
:1050B300A2E25003C2E2F0E0A2E1500512528E8058
:1050C300098E828F83742A12637C02515D74F412F9
:1050D3000B3674FE1210C91251831253C9EC852189
:1050E30082852283125418E0F50B7015AA21AB2296
:1050F30079531216F4EE2413FAE43FFB794A12169D
:10510300F412430312101A124E80120FFB124AF8C4
:10511300A90B122A6E901D94E0A2E150031252953E
:10512300901D94E4F0740202355974F7120B36EAB9
:10513300FEEBFF8A82F583A374EBF0901D94E0A24B
:10514300E150077A0079EB122A74EEFAEFFB122A88
:10515300AA8007EEFAEFFB122BAC7F01020DE2747B
:10516300F7120B36125183901D91E4F0901D94F0C9
:105173007AFF7BFF8E828F83A3E0F9122A6E80DA97
:105183001252CE7A807B1D122C362274F7120B3604
:10519300EAFEEBFF122AA480BA74F7120B361253FD
:1051A3000BA3A3A3E060047400800274EB1251DC30
:1051B3005003C2E2F0E0A2E150051252DF8011A2D7
:1051C300E0500D8E828F83742AF0A374EB12637CFC
:1051D300EEFAEFFB122A5080818E828F83A3F09028
:1051E3001D94E0A2E22274F6120B36EAFEEBFF9066
:1051F3001D94E0D2E1F079011217DE8E828F83A332
:10520300E07038122B46E9FAEE240DF508E43FF579
:1052130009780812101E7508017509007808121024
:105223001E12524F120E6BEE2402FCE43FFD1235A8
:105233006D120FFBE98E828F83A3F08E828F83A37F
:10524300E060067A00F9122A74026470EE240BF50A
:1052530082E43FF5832274F7120B3612527D7004F9
:10526300A374EBF0901D94E0A2E25003C2E2F0E0DD
:10527300A2E1500312528E02515DEAFEEBFF790167
:105283001217E48E828F83E0642022C2E1F012526F
:1052930095227A008E828F83A3E0F9122A742274F6
:1052A300F7120B361252CE8E828F83A3A3A3A3E0F1
:1052B30060047400800274EB1251DC5003C2E2F00C
:1052C300E0A2E150031252DF0251D3EAFEEBFF7971
:1052D300011217E47A777B1D122C3622C2E1126881
:1052E30000E0A2E4E433FA1252972274F7120B3669
:1052F30012530B74EB1251E15003C2E2F0E0A2E14E
:10530300500312528E02515DEAFEEBFF7901121730
:10531300E48E828F83A32274F7120B36125330026A
:10532300515674F7120B3612533002515DEAFEEBFD
:10533300FF7A777B1D122C36EEFAEFFB122ACE2270
:1053430074F7120B3674EF1210C9EAFEEBFFEA1280
:1053530062BE7A647B0B121A30E96056852182851E
:1053630022837409F0740112133F74EFF01253C9CE
:10537300740212133FEC125418A3A3E0C0E07404A8
:1053830012133FD0E0125405640870158E828F8388
:10539300A3A31253F1E0C0E0740512133FD0E080E1
:1053A30006740512133FE412615A740612133F1276
:1053B30053BA7411023F08AA82AB83122B76AA2137
:1053C300AB22122C84221253D6F5831253E8FCA38A
:1053D300E0F922EE1253DEFB8882222402F8E43F36
:1053E300F9E8FAE922124B4D8882F583E022125440
:1053F300002407F582E438F58322901D36124B4DC5
:10540300C8221254092212540EE022F08E828F8396
:10541300A3A3A3A3221263EA12541F22125423222A
:10542300E0F8A3E0F5838882A3A322C082C083129D
:105433002BB8024C72C082C083901DB17451F0A38B
:10544300741DF0A3746DF0A3741DF0901EED7458D9
:10545300F0A37431F0A374F6F0A37430F0901D9DA3
:105463007468F0A3742AF0901D9AE0440102477611
:10547300C082C083EAFCEBFD7902122B1C024C7242
:1054830074F6120B3674FE1210C9901D961254D185
:1054930060077A967B1D122B34901D9CE4F09012CA
:1054A300171254D160208007AA21AB22122B34900B
:1054B3001D95E0F91218CE8B09A909852182852251
:1054C3008312412970E2740202646D901D36126AE0
:1054D300C0E8492274F7120B36E9FA7B00901D9558
:1054E300E0F91218F802515D74F7120B3674F012DA
:1054F30010C9EAFCEBFDE9FE8A828B83E0F874AF06
:105503001256063434F583E493C0E0740112133F5A
:10551300D0E0F0640B700DE98A828B83A3F0122B29
:105523009A025601E07003025601640C60030255AF
:10553300F2741A6E700B740412133FE4F0A3025555
:10554300F1740412133F1258B5EA2432125DBEC03F
:10555300E0740312133FD0E01267EB1213287406B2
:1055630012133F1213048C828D83A3A3A3A3A3A3BB
:10557300A3A3A3126ABC740A12133FE8F0A3E912AF
:10558300560BE054106009852182852283E4801341
:10559300EC2412125DBEF8900B80E0C39885218243
:1055A300852283F0E0C0E0740C12133FD0E0F0ECEE
:1055B3002415125DBEC0E0740D12133FD0E0F0EC71
:1055C3002416125DBEC0E0740E12133FD0E0F0EC5F
:1055D3002417125DBEC0E0740F12133FD0E01256C1
:1055E3000BA3E054016008740112133F7411F074AB
:1055F3000212133FEEF074011210B9122C847410CE
:10560300023F0828F582E422F0EC1256143DF5839C
:1056130022240EF582E422C082C083901D9CE064A4
:10562300037004790180027900024C7274F7120B43
:1056330036901D9CE01256AA74EB28F582741E392D
:10564300F583125B3CC2E7F01256B1A3E493FE2547
:10565300E0FCE433FD74EB2CF582741E3D125EC84E
:10566300EC4D6005EE901D9CF08A828B83E025E073
:10567300FCE433FDE82CF582E93DF583E493FCC4B7
:10568300540F25E0F874AB125606341DF5831254FB
:10569300D17005122B88800CEC540F1256B1124BAB
:1056A300CA120CAE02515D25E0F8E433F92225E07D
:1056B300FCE82CF582E439F5832274F2120B36747C
:1056C300FE1210C9890B8A088B0912575C12574DB9
:1056D300601A126167F50A780812101A12576924C2
:1056E30002125EBE120FFB1256F5800312577B02A5
:1056F3003B58AA0CEFFB901D95E0F91218C22274D7
:10570300F0120B3674FE1210C9890B8A0E8B0F121E
:10571300575CF50812574D6027126167A808EA28FD
:1057230012444B850E08850F09F50A780812101AE2
:10573300125769125EBC120FFB1256F579008005F1
:1057430012577B791A7402023545FA7B001218B698
:105753008A0C8B0DAF0DEA4F22747829F582E4345D
:1057630034F583E49322A80B74991256063434F566
:1057730083E493FC7D00EA22852182852283E50B65
:10578300F0791AAA21AB22122B0422C082C083E92A
:10579300901D9502477674F6120B3674FE1210C9EB
:1057A300EAFEEBFFEA542070308039A8A8C2AF901C
:1057B3001D35E0141246A38A828B831258A2901DD2
:1057C300981258B5122B10852182852283E0641527
:1057D30060077A987B1D122B347A2F7B1D1218E0F9
:1057E300EA4B70C7EF5480700C8016901D98EAF056
:1057F300A3EB1258C8901D95E0F91218CEEA4B702E
:10580300EAEE5410600B852182852283742D125891
:10581300D4EEA2E0500B8521828522837424125892
:10582300D4EE5402600B852182852283742512589D
:10583300D4EE5404600B852182852283742612588A
:10584300D4EE5408600B8521828522837428125874
:10585300D4EE5440600D740112133F1258BB742CE4
:105863001258D4EE5480600D740112133F1258BBCA
:10587300742F1258D4901D961254D1601BA8A8C23D
:10588300AF901D96124AFE901D96E4F0A31246A314
:10589300A3EAF0A3E91258C87A007B000254C912A4
:1058A30058A622E0852182852283F022A3A3A3A305
:1058B300A3A3EAF0A3EBF022E41258C022F085215F
:1058C3008285228322F0122B107A987B1D122B34AF
:1058D300221243EF122B1022C082C083901D981214
:1058E300652A687002EB697007901D98E4F0A3F0D5
:1058F300024C7274F7120B36EAFEEBFFEA4F7003A9
:105903001214F6A2AFE433F508C2AF8E828F83126E
:1059130054D16028E824FBFAE934FFFB901D981268
:105923005ECAE86C7002E96D7007901D98E4F0A3FD
:10593300F08E828F83E4F0A3F0121952023D74C0FB
:1059430082C083901DBF747CF0A3742BF0A3748E6C
:10595300F0A3742BF0A37494F0A3742BF0A3744AF4
:10596300F0A3742AF0A3749AF0A3742BF0A37444E5
:10597300F0A3742AF0A37450F0A3742AF0901DCD01
:1059830074CAF0A3742BF0A374A0F0A3742BF0A338
:1059930074A6F0A3742BF0A374B2F0A3742BF0A33A
:1059A30074ACF0A3742BF0901DBEE4024776C08262
:1059B300C083900B6DE064FE7003A3E0F470097C78
:1059C300647D0B121A36801C8A828B83A3A3A3A344
:1059D300A3A3A3A37402F0900B6D126ABC8A828BFB
:1059E30083124D52024C72C082C083900B77C3E086
:1059F30094FEA3E094FF4004790380027902024CF1
:105A030072C082C083125B458C828D83125AFA68FE
:105A13007039740268701C8A828B83125A53E0684F
:105A230070298A828B83A3125A53A3E068701C796E
:105A330001801A7403687013EC2405FC50010DEA0D
:105A43002405FA50010B121A3C80027900024C72B1
:105A5300A3A3A3A3A3E0F88C828D83A3A3A3A3A3EF
:105A63002274F6120B367E00740A12133FE0125AA8
:105A7300EEFF8A828B83A3A3A3A3A3A3A3A3E06FB5
:105A8300706474026F704E8A828B83C082C0838875
:105A9300828983A3A3A3A3A3E0F50888828983A3B0
:105AA300A3A3A3A3A3E0FBAA08D083D082E06A70D8
:105AB30003A3E06B703088828983A3A3A3E0FA88F1
:105AC300828983A3A3A3A3E0F9EA6C7002E96D7052
:105AD300157E01801174036F700CE82405FCE43912
:105AE300FD121A3CE9FEEEF9026470F8A3E0F988AE
:105AF30082F583125AFA22A3E01313543F5403226C
:105B0300C082C0838A828B83A3A3A3A3A3A3A3A3DB
:105B1300E064027016900B6D125B3C687003A3E0A7
:105B23006970047901800F7900800BEAFCEBFD7A40
