:020000040000FA
:060000000210F80205FCED
:03001B000206B822
:03002B00020E8E34
:03004300020D5C4F
:0300530002053172
:0300730002070D74
:100083000205900100F0FF0700080000FFFF0000D9
:100093000704000000030001FF1E102700000020DA
:1000A300FD000206FFFF1E00800080C71A0000004B
:1000B3000000000000000000000000E80300000052
:1000C30000E803000000000F0000000F0000000123
:1000D30004010C000203888401CC8501040000BBE9
:1000E3001A000000E8030000FFFF181B881300003C
:1000F300E803000064006400B801A0BB0D00A0BBCE
:100103000D0002020207040101071E02051E020A76
:100113000A0101010809080103B80B02803E01022C
:10012300FEFFE8030A050001FFFF010A011401E0D5
:100133000200000001050301010F10FEFF0300038D
:100143000003000300030003000300030003000592
:10015300000A00140028004F009E000000873100B1
:10016300000000F92F00000000FF000000FF001254
:1001730011266046121144603DE9687008F618F6CE
:1001830018F618F622748067F71201A60909097494
:100193008067F722121144601D1211267005191988
:1001A30019801A121009701F120FF5C37003E66746
:1001B3003319191940071818182208080874FFF68C
:1001C30018F618F618F622120FF560171211DC70E4
:1001D3002192F01211CA7019501720F01408080860
:1001E300090909E7F61819E7F61819E7F61819E7E0
:1001F300F6221211CA60E6E869701F0808E6248037
:10020300F608E436F618547FB47F0CE65480600792
:10021300F6E418F618F622181822E9C6CC08C6CD5B
:1002230008C6CE08C6CFC0E0E8C0E0EAC0E0EBC035
:10023300E009E9F809E7FA09E7FBE6F918E6F8C384
:10024300EC98ED99EE9AEBC2E7F5F0EFC2E795F083
:10025300500E600CEBCFFBEACEFAE9CDF9E8CCF80F
:10026300EAA2E7D2E7FAEB33FB13F5F0EEA2E7D20B
:10027300E7FEEF33FFC5F013A2E730E601B313C582
:10028300F0C3C0E0C0F07F00C39BFB605E941860C6
:100293000F401D14601AD0E023F9D0E0F802037870
:1002A3008AF0E9486003D2F0E4AFF0FAF9F8803B52
:1002B300EB30E40D89F0EA6003D2F0E4AFF0F9CA61
:1002C300F8EB30E30D88F0EF6002D2F0AFF0E4CA50
:1002D300C9F8EB54076014FBC3EA13FAE913F9E80E
:1002E30013F8EF135002D2E0FFDBEDD0E0C0E030B3
:1002F300E739C3E49FFFF5F0EC98FC42F0ED99FD7C
:1003030042F0EE9AFE42F0D0E0F9D0E0F8E5F0607A
:100313007AE923F9EE20E742D8028067C3EF33FF7F
:10032300EC33FCED33FDEE33FE80EAEC28FCED39D3
:10033300FDEE3AFED0E023F9D0E0F84002801BC383
:10034300EE13FEED13FDEC13FCEF135002D2E0FFAE
:1003530008B800067F7F74FF802EEF3350178CF0B0
:1003630020F00260100CBC000C0DBD00080EBE0096
:100373000408E860DFE933E813FFEE2313FE4F4D73
:100383004C8008E95480FFE4FEFDFCEE33EF33F4C8
:100393007004FCFD7E80D0E0FBD0E0FAD0E0F8D022
:1003A300E0CFC618CEC618CDC618CCC6F9220012A7
:1003B3001144604F1211266012E7548066F6121042
:1003C3000970111211DC703B090909F4F618F618CB
:1003D300F618F622120FF570151211CA08080860F4
:1003E300EAE6447FF618768018E4F618F62212112E
:1003F300CA60161211DC7012E4F608F608F608E675
:100403005480F609090918181822EAC0E0EBC0E085
:10041300ECC0E0EDC0E0E687F0A4FBACF008E687B3
:10042300F0A42CFCE435F0FA1809E687F0A42C4B71
:1004330060027401CA35F0FCE433FB09E687F0D2AD
:10044300F7A42CCB35F0FC1908E687F0A42BCC35A8
:10045300F0FBE433FD0819E687F0D2E7A42C4ACB7E
:1004630035F0CD3400FC09E687F0D2E7A42DCC3576
:10047300F0FDE433FA0918E687F0D2F7A42CCD3562
:10048300F0CA3400FC08E687F0D2E7D2F7A42ACCFE
:1004930035F07A7E20E70B0ACB33CBCD33CDCC338B
:1004A300CC33CB3350147004ED30E00ED2F1E4CDF5
:1004B3003DCDCC3CCC3B5005DA05C2F1EB547FC6B5
:1004C3003308E63392F0FBE73309E733C39A502D41
:1004D3002B70190C0D4C4D70151806E608C33370BC
:1004E3000D20F10AA2F013F6E418800B4024E4F681
:1004F30030F002768018F618F618F68024D33B14F1
:10050300501074FFA2F013F6187680E418F618F66C
:10051300800FA2F013F618E63303F618ECF618ED85
:10052300F6D0E0FDD0E0FCD0E0FBD0E0FA22C0E062
:1005330074F11209BFA2AFE433F509D2AF85A7085E
:10054300AFA1EF5508FE74105E60061214AF75A1DB
:10055300EF74085E60081214B575A1F78024EFA24A
:10056300E092F0E508A2E082F05017906198E0F87D
:10057300900B47E0C398A2D265D0335002E8F075E0
:10058300A1FEE509A2E092AF7F02020A1EC0E07459
:10059300F21209BFA2AFE433FED2AF9061A4E0F838
:1005A300759B00E59158540860087591F71215037F
:1005B3008023E59158541060087591EF1215098056
:1005C30014E591A2E092F0E8A2E082F05007E0C2C5
:1005D300E0F01216539061A3E0F8E5E95854046083
:1005E3000E12162975E9FB906193E0A2E640F2EE44
:1005F300A2E092AF7F01020A1EC0E074F21209BFAB
:10060300A2AFE433FED2AF9061A5E0F8E5BF585442
:1006130004600675BFFB12166B80D4C3E498F8E43C
:1006230099F912065F8026C3E49AFAE49BFBE9205A
:10063300E7E912065FE498F8E499F922C3E498F82D
:10064300E499F912065FE498F8E499F9C3E49AFA95
:10065300E49BFB22EB20E7CFE920E7E0B90010BBE6
:100663000008E88AF084F8AAF022E4FBC8FA22EB37
:1006730070227B10C833C8C933C9335007C39AC328
:10068300DBF280069A50012ADBEAC833F4C8C93387
:10069300F4C9FA2275F008E4C833C8C933C933C9A9
:1006A3009AC99B5004C92AC93BD5F0ECFBC833F463
:1006B300C8E4C9FA22C0E0C0D0E8C0E0E9C0E0C0A5
:1006C30082C083A8F9E8C0E0900AB4E0F874332844
:1006D300F582E4340AF583D0E0F0900AB3E0F8A39E
:1006E300E0687006E595900AB6F0900AB4E004F06D
:1006F300C394804002E4F0A374C6F0D083D082D0C8
:10070300E0F9D0E0F8D0D0D0E032C0E0C0D0E8C00B
:10071300E0E9C0E0C082C083900B37E0F8A3E06853
:100723007008539AF7A374018022C2EA900B37E052
:10073300F8740128F074B728F582E4340AF583E0ED
:10074300F5F9900B37E0C394804002E4F080AC12DB
:10075300079D30F0391207E2803412079D20F01410
:1007630030E72B74FFFCFBFA747F8022E4FCFBFA76
:100773007480801AB48008BC00F2BB00EF800F5075
:10078300EBF9E4C39AFAE49BFBE49CFCE499C6CC42
:1007930018C6CB18C6CA18C6F922E4C9C608CAC601
:1007A30008CBC6D3330308CCC63392F0C3947F403F
:1007B3002E94184019C9B90704CACBCC225025C3BB
:1007C30009CA33CACB33CBCC33CC33D9F422F4604C
:1007D3000DC9CCC313CB13CBCA13CAD9F6CC22E4AD
:1007E300FCFBFA2214FCFBFA22080808EAC0E0EB3F
:1007F300C0E086F0E7A4FA180986F0E7A42AFA18FD
:100803000986F0E7A42AFA180986F0E7A42AFA1958
:1008130086F0E7A4FBE5F02AFA190886F0E7A42B93
:10082300FBE5F03AFA190886F0E7A42BFBE5F03A6A
:10083300FA18180986F0E7A4C5F02BFBE43AFA1975
:1008430008E7C5F0C6A426F6E5F03BFBE43AFA1840
:1008530086F0E7A4F6E5F00826F6E43B08F6E43A6A
:1008630008F6D0E0FBD0E0FA22080808E630E711EA
:10087300120FA5120884080808C64480C618181861
:1008830022181818E9799EC608CAC608CBC608CC30
:10089300C6C370207996CACBCC7019798ECBCC7035
:1008A300137986CC700EF9802ACA33CACB33CBCCEA
:1008B30033CC331930E7F2CCCBCA3350147004EA8B
:1008C30030E00DE4CA3ACACB3BCBCC3CCC50020956
:1008D300C3E913C6CC182313C6CB18C6CA18C6F966
:1008E30022E4CFC0E0E4CEC0E0E4CDC0E0E4CCC07D
:1008F300E075F020E626F608E633F608E633F60858
:10090300E633F6181818EC33FCED33FDEE33FEEF47
:1009130033FFC3EC9709ED9709EE9709EF97191980
:1009230019400FFFEC97FC09ED97FD09EE97FE19AF
:100933001906D5F0BFECF709EDF709EEF709EFF764
:10094300191919D0E0FCD0E0FDD0E0FED0E0FF2281
:100953002521C582C0E0E52234FFC583C0E0E5213F
:10096300C3958224F810AF088583228582218008ED
:10097300858322858221D2AFCEF0A3E520F0A37830
:1009830008E608F0A3DEFAEFF0A3E58124FAF8E61F
:1009930008F0A3E608F0A3E608F0A30808E608F0C9
:1009A300A3E608F0A315811581D0E0FED0E0F81589
:1009B3008115811581E8C0E0EEC0E022C0D0252179
:1009C300C582C0E0E52234FFC583C0E0E521C395BD
:1009D3008224F310AF0885832285822180088583D2
:1009E30022858221D2AFC8F0A3E9F0A3EAF0A3EBFA
:1009F300F0A37908E709F0A3D8FAECF0A3EDF0A38C
:100A0300EEF0A3EFF0A3D0E0F0A3D0E0F0A3D0E0AA
:100A1300F0A3E520F0A3E5F0F0A32285228385214E
:100A230082E0C0E0A3E0F9A3E0FAA3E0FBA3780827
:100A3300E0F608A3DFFAE0FCA3E0FDA3E0FEA3E0F9
:100A4300FFA3E0C0E0A3E0C0E0A3E0F5D0A3E0F59E
:100A530020A3E0A3F5F010AF0885832285822180CF
:100A630008858322858221D2AFD082D083D0E0F85B
:100A7300D0E0321211B5B90003020AB5E4900501C2
:100A83007812791A8002F0A3D8FCD9FA7A127B1E65
:100A930090008678ED79018015E493A3AD82AE834F
:100AA3008A828B83F0A3AA82AB838D828E83D8E95B
:100AB300D9E77582B47583987406120E1F75825137
:100AC30075832D7400120E1F0075F0108E238F2472
:100AD300858228858327852182852283E0CEA3E032
:100AE300CF852882852783EBC9EAC8EDCBECCAC33F
:100AF300E833C8E933C9EA33CAEB33CBC3EA9EF51B
:100B030026EB9FF525B35004AB25AA26EC33CCED99
:100B130033CDD5F0DAAE23AF2422121144601C1278
:100B2300112660171211CA70071211DC7001D3224B
:100B3300C0D01211DC7006D0D0B322C32233D0D080
:100B4300501430E0F6C3E7960809E7960809E796DC
:100B53000809E796B32220E0D5E6970809E6970847
:100B630009E6970809E697B322D083D082ECC0E068
:100B7300EDC0E0E493A3FCE493A3FDED4C600D1200
:100B83000C44EC24FFFCED34FFFD80EFE493A3FC65
:100B9300E493A3FDED4C600D120CE1EC24FFFCED9E
:100BA30034FFFD80EFD0E0FDD0E0FCE493A3C0E090
:100BB300E493C0E022852283852182E0A3FEE0A3A3
:100BC300F5207808E0A3F608DFFAE0A3FFE0A3C06E
:100BD300E0E0A3C0E0E0A3C0E0E0A3C0E0E0A3C086
:100BE300E010AF08858221858322800885822185D4
:100BF3008322D2AFD083D082020E25D083D082E964
:100C0300C0E0E493A3C386F0C5F095F0F908E4933C
:100C1300A386F0C5F095F0700BE493A3C399400548
:100C2300E9048002A3E475F002A42582F582E5F0CD
:100C33003583F583D0E0F9E493A3C0E0E493C0E007
:100C430022C0E0C3E49396087401939618400FE41E
:100C53009366700808740193661870007019A3A353
:100C6300C3E49396087401939618A3A3400DD0E0B0
:100C7300D0E0D0E0020BA8A3A3A3A3A3A3D0E022B8
:100C83007404800474028000CCC0E0EDC0E0E52170
:100C9300C39CCCAD2250011D10AF068C218D228048
:100CA300068C218D22D2AF120DA1D0E0FDD0E0FC45
:100CB3002274028000CCC0E0EDC0E0E521C39CCCEF
:100CC300AD2250011D10AF068C218D2280068C2190
:100CD3008D22D2AF120D7FD0E0FDD0E0FC22C0E028
:100CE300C0F088F0E4936670080874019366187086
:100CF30000A8F0A3A3700BD0F0D0E0D0E0D0E002C6
:100D03000BA8A3A3D0F0D0E022D083D082CCC0E044
:100D1300E493A36006120DC21470FAE493A3600671
:100D2300120F251470FAD0E0FCE493A3C0E0E4931F
:100D3300C0E022C008C3E096F50808A3E096420885
:100D430008A3E096420808A3E0964208A2D265D021
:100D530033E5087001D3D00822C0E074F21209BF52
:100D6300A2AFE433FED2AFC2C0E5D1A2E450031276
:100D73001413EEA2E092AF7F01020A1ECAC0E0E4A0
:100D830093A3C582CCC582C583CDC583F0A3C58299
:100D9300CCC582C583CDC583DAE5D0E0CA22CAC0FB
:100DA300E0E0A3C582CCC582C583CDC583F0A3C5CE
:100DB30082CCC582C583CDC583DAE6D0E0CA22C022
:100DC300E0E493A3D39C5010E493A3C39C400AD0C4
:100DD300E0D0E0D0E0020D29A3A3A3D0E022700964
:100DE300080808226016181818C6C333C608C63385
:100DF300C608C633C608C633C6D5E0EA22C008C350
:100E0300E096F50808A3E096420808A3E096420896
:100E130008A3E09645087001D3D00822C09FF59F30
:100E2300E473D09F22D083D082C09FE493C0E07448
:100E33000193C0E0740293F59F227404800A740343
:100E43008006740280027401C0E0F404120E58D0CC
:100E5300E0121153222521F58210AF08F521400C31
:100E630015228008F52140021522D2AF8522832264
:100E730000C0D0252110AF08F521500C05228008B1
:100E8300F52150020522D2AFD0D022C0E0C0D0E875
:100E9300C0E0A8A8D2AFC2C7E8A2E792AFD0E0F8FB
:100EA300D0D0D0E0326017080808C6A2E713C618EE
:100EB300C613C618C613C618C613C6D5E0E922BBA7
:100EC3000102E722C082C08389828A83BB0003E0D8
:100ED3008002E493D083D082226016080808C6C338
:100EE30013C618C613C618C613C618C613C6D5E04C
:100EF300EA222521F8E43522F9222521FAE43522D4
:100F0300FB222521FCE43522FD22C3E0C696F60828
:100F1300A3E0C696F608A3E0C696F608A3E0C69635
:100F2300F622C0E0E493A36C7009D0E0D0E0D0E0F7
:100F3300020D29A3A3D0E022252110AF08F52140FB
:100F43000C15228008F52140021522D2AF22C3E7F7
:100F5300960809E7960809E7960809E796A2D26575
:100F6300D03322E76670100809E766700A0809E7BC
:100F73006670040809E76622C3E09608A3E09608B2
:100F8300A3E09608A3E096A2D265D03322E0667070
:100F93001008A3E066700A08A3E066700408A3E0E3
:100FA3006622181818E4C396F608E496F608E49641
:100FB300F608E496F622C3E4939608740193960820
:100FC30074029396087403939622C3E096F008A3E1
:100FD300E096F008A3E096F008A3E096F022C3E6BB
:100FE30097F60809E697F60809E697F60809E697DB
:100FF300F622191919E70947097009E72709700546
:10100300E733F4220922181818E60846087009E69F
:1010130026087005E633F4220822E026F008A3E050
:1010230036F008A3E036F008A3E036F022E026F617
:1010330008A3E036F608A3E036F608A3E036F62266
:10104300E627F60809E637F60809E637F60809E65B
:1010530037F622700422600D18C6C333C608C633A0
:10106300C6D5E0F41822E657F60809E657F608094C
:10107300E657F60809E657F622E493F60874019357
:10108300F608740293F608740393F622E056F60802
:10109300A3E056F608A3E056F608A3E056F622E0CE
:1010A30056F008A3E056F008A3E056F008A3E05674
:1010B300F022E647F60809E647F60809E647F60888
:1010C30009E647F622C6F4C608C6F4C608C6F4C63F
:1010D30008C6F4C622C3E7960809E7960809E79607
:1010E3000809E79622C3E09608A3E09608A3E096D2
:1010F30008A3E0962275D00075813F752101752202
:101103000500020A76600C08C6C313C618C613C6C8
:10111300D5E0F422E6F008A3E6F008A3E6F008A37E
:10112300E6F022E7094709C3134709336002E733AF
:10113300F422E0F608A3E0F608A3E0F608A3E0F63D
:1011430022E6084608C3134608336002E633F42256
:10115300CAC0E0E6F0A308DAFAD0E0FA2280010080
:10116300E9F874FF28F90470F622E0FAA3E0FBA380
:10117300E0FCA3E0FD22ECF0A3EDF0A3EEF0A3EF7F
:10118300F022E0F8A3E0F9A3E0FAA3E0FB22E8F001
:10119300A3E9F0A3EAF0A3EBF022E0FCA3E0FDA3B4
:1011A300E0FEA3E0FF22EAF0A3EBF0A3ECF0A3ED53
:1011B300F022E5C754F84401F5C77901222521F54A
:1011C30082E43522F58322E626184618461846227D
:1011D300C2AF75D69F02000022E7271947194719A6
:1011E3004722120E28BCDF03120E280DE003120E55
:1011F3002851E003120E28EBE003120E285BE103F3
:10120300120E288AE103120E2890E203120E28BA66
:10121300E203120E280EE303120E28E2E303120E7A
:101223002810E603120E28BEE603120E282BE9034C
:10123300120E28B0E903120E28B3EC03120E28E7AE
:10124300EE03120E2823EF03120E287CF003120E76
:10125300288FF003120E28CCF003120E2895F20308
:10126300120E28056F00120E28816F00120E28B48B
:101273006F00120E28E26F00120E28207000120E6B
:10128300285D7200120E287C7200120E28C17200B3
:10129300120E28577300120E28A37300120E28375C
:1012A3007400120E28107500120E286C7500120EB1
:1012B30028CA7500120E283D7600120E288176008A
:1012C300120E28D97600120E28FB7600120E288BF8
:1012D3007700120E281C7800120E28687800120E70
:1012E30028947800120E28D57800120E286B7A0005
:1012F300120E28577B00120E28327C00120E283C57
:101303008A06120E286F8A06120E288F8A06120E7C
:1013130028B68A06120E28E38B06120E28048C06C2
:10132300120E28AF8C06120E2881A506120E2886EF
:10133300A506120E28B9A506120E28F5FD05120EF4
:1013430028BCFE05120E28CEFE05120E280BA6069B
:10135300120E281CA606120E2836A606120E28F513
:101363007F00120E28E0FF04120E2861FF03120E05
:101373002871FF03120E2886FF03120E28CFFF03E6
:10138300120E28CF9F06120E2853A006120E28BB5A
:10139300A006120E287F9406120E28939406120EAE
:1013A30028099506120E28589506120E288D9506C3
:1013B300120E28B09506120E28D39506120E280C8D
:1013C3009606120E283D9606120E28849606120ED5
:1013D300287DA606120E28898306120E28978306F7
:1013E300120E28108406120E28E98406120E28AC69
:1013F3008606120E2845A606120E288DE305120E48
:1014030028F9E305120E289CE405120E2811E605BF
:10141300120E2878E605120E28C5E605120E281EC0
:10142300E705120E28A2E705120E28D7E705120ECC
:1014330028F5E705120E287BE805120E28FEE805BD
:10144300120E280BE905120E28D4FA04120E2800F6
:10145300FB04120E286AFD04120E28AAFD04120EC4
:1014630028E6FD04120E28FAFD04120E2813FE04CA
:10147300120E2805FF04120E28B8FF04120E28CC02
:10148300FF04120E28FD9B06120E28219C06120E45
:10149300283A9C06120E28789C06120E28A89C0651
:1014A300120E28D59C06120E283B9D06120E283ECE
:1014B3009D06120E28489D06120E28559D06120EF3
:1014C30028458D06120E28658D06120E28A48D065A
:1014D300120E28C28D06120E28DD8D06120E284329
:1014E3008E06120E284F8E06120E28AC8E06120E92
:1014F30028BB8E06120E28DF8E06120E28A08F063A
:10150300120E28AD8F06120E28BE8F06120E28006B
:10151300A406120E2848A406120E2874A406120E5E
:101523002824EE05120E287EEF05120E288CEF05F7
:10153300120E289FEF05120E28B4EF05120E28C9CC
:10154300EF05120E28DCEF05120E2858F005120ED7
:1015530028BDF005120E2853F105120E282CF205B2
:10156300120E283CF205120E284BF205120E2867C4
:10157300A306120E288BA306120E28B3A306120E7F
:1015830028DBA306120E28EC8F06120E28139006F2
:10159300120E28319006120E28A09006120E280C67
:1015A3007D00120E28257D00120E28317D00120EBB
:1015B30028457D00120E28637D00120E286D7D00E4
:1015C300120E28777D00120E288A7D00120E281035
:1015D3007E00120E28857E00120E28B47E00120EA5
:1015E30028027F00120E28517F00120E286C7F0004
:1015F300120E28767F00120E28877F00120E28CA4B
:101603007F00120E282EA506120E281ED305120ED9
:10161300284AD305120E2867D305120E287AD3055C
:10162300120E2895D305120E28EFD305120E281D8E
:10163300D405120E282DD805120E288BD905120EAB
:1016430028BDD905120E2820DA05120E288CDB05D9
:10165300120E28B4DB05120E28C9DB05120E28D999
:10166300DB05120E2819DC05120E285BDC05120EB1
:10167300286BDC05120E289F9E06120E28B99E06C3
:10168300120E28E19E06120E28FA9E06120E281E3E
:101693009F06120E283C9F06120E28539F06120E19
:1016A30028819F06120E289C9F06120E28C7A506A6
:1016B300120E28008006120E28108006120E28151E
:1016C3008106120E28478106120E28778106120E14
:1016D300289A8106120E28B18106120E28EB810684
:1016E300120E28508206120E28928206120E28D954
:1016F3008206120E28068306120E28318306120E66
:1017030028999A06120E28B99A06120E28CD9B061E
:10171300120E28D09B06120E28D4A106120E280AF8
:10172300A206120E284CA206120E285CA206120E66
:1017330028A0A206120E289BDC05120E28DEDC056B
:10174300120E2843DD05120E2862DD05120E280451
:10175300DE05120E280DDE05120E285EDE05120EC2
:101763002887DE05120E2894DE05120E2806DF05F3
:10177300120E2894DF05120E28D9DF05120E281247
:10178300E005120E2877E005120E28A0E005120EE0
:101793002817E105120E2866E105120E28A3E105BC
:1017A300120E28D8E105120E28EAE105120E28FCD4
:1017B300E105120E281BE205120E2824E205120E83
:1017C30028E0E205120E2823E305120E2861E30543
:1017D300120E2877A406120E285F9D06120E2841CA
:1017E3009206120E28779206120E28BF9206120E48
:1017F30028189406120E28F09605120E281698053E
:10180300120E28529805120E28109A05120E283E21
:101813009A05120E28A89C05120E28E89C05120EA4
:10182300288A9E05120E28209F05120E287A9F05EE
:10183300120E280AA005120E284EA005120E28909B
:10184300A005120E28F5A105120E2875A305120E88
:1018530028B6A505120E28E4A505120E2810A60524
:10186300120E2819A605120E2876A605120E280FA9
:10187300A705120E2826AA05120E28ACAA05120ED9
:1018830028D57F00120E28EB7F00120E287CF2056C
:10189300120E2892F205120E2836F305120E287541
:1018A300F305120E2892F305120E28C3F305120E48
:1018B3002810F405120E2844F405120E287FF405AF
:1018C300120E2874F605120E28D4A006120E283321
:1018D300A106120E2871A106120E28B2A106120E3D
:1018E300289E9606120E28DC9606120E28059706E9
:1018F300120E28409706120E28A19706120E28B33F
:101903009706120E287F9806120E28D8FF03120E90
:1019130028008005120E28348005120E280B82053C
:10192300120E28AA8305120E28E98405120E28BE7A
:101933008505120E28028705120E28388705120E18
:1019430028F48705120E28778A05120E289B8B052B
:10195300120E28BE8B05120E28518F05120E28C8B1
:101963009105120E28F49105120E28809205120E8D
:1019730028A79205120E28E29205120E28BD94059F
:10198300120E28AAA206120E28008004120E280C9A
:101993008004120E286E8004120E28788004120E22
:1019A30028078104120E28438104120E283C820466
:1019B300120E28998204120E28278304120E287807
:1019C3008304120E28F88304120E28BA8504120E1B
:1019D30028BF8704120E28B98804120E28EB890445
:1019E300120E283D8C04120E28808D04120E282519
:1019F3008E04120E28D39204120E28C99304120ED9
:101A0300285F9404120E28849404120E282195044E
:101A1300120E283E9504120E285E9504120E28CC51
:101A23009504120E28E99504120E28179604120E37
:101A330028AF9704120E28D09704120E2876980424
:101A4300120E28BE9804120E281C9904120E28BFE9
:101A53009904120E28249A04120E28839A04120E53
:101A630028359B04120E28A49B04120E28DF9B0426
:101A7300120E28539C04120E289E9D04120E282E2B
:101A83009F04120E28CD9F04120E280DA204120EDD
:101A9300286FA204120E289DA204120E28C0A404CB
:101AA300120E286AA704120E287DA804120E283BE2
:101AB300F501120E286EF601120E2836F801120EE9
:101AC300280FF901120E2829F901120E283CF901F9
:101AD300120E285BF901120E2824FA01120E288730
:101AE300FB01120E2847FC01120E28B1FC01120E55
:101AF300288AFE01120E2866FA05120E2821FB051C
:101B0300120E2887FB05120E28A8FB05120E288348
:101B1300FC05120E286DC804120E289CC804120E70
:101B23002820C904120E2883CA04120E286DCB0480
:101B3300120E2829CD04120E284ECD04120E28A011
:101B4300CD04120E2832CE04120E287ECE04120EBD
:101B53002891CE04120E28EECE04120E28BBCF0419
:101B6300120E282DD004120E2864D004120E28ADB4
:101B7300D004120E2855D204120E2834D304120EA8
:101B83002882D404120E2865D504120E28F1D50438
:101B9300120E282AD604120E2849D604120E2894AF
:101BA300D604120E28B4D604120E2871D704120ECE
:101BB3002894D804120E28EFD804120E2835D9041D
:101BC300120E283DDA04120E28D8DC04120E28FE69
:101BD300DC04120E2879DD04120E289EDD04120E99
:101BE3002812DE04120E28F0DE04120E282EDF0463
:101BF300120E28B8DF04120E289FE004120E28A24A
:101C0300E004120E28ACE004120E28B6E004120E13
:101C130028D2E004120E2844E104120E287DE104C8
:101C2300120E28A9E104120E28D0E104120E28F4A2
:101C3300E104120E282FE204120E28A2E204120E6F
:101C430028D6E204120E28E0E204120E281CE30454
:101C5300120E2851E304120E2870E304120E28B961
:101C6300FF01120E28D1FF01120E28F87F00120E79
:101C7300289EAC04120E28C1AC04120E281FAE0419
:101C8300120E2868AE04120E28D4AE04120E2832A7
:101C9300AF04120E2835AF04120E2886AF04120EBD
:101CA30028FBAF04120E288BB004120E288EB0044A
:101CB300120E280FB104120E2850B104120E28750B
:101CC300B504120E281FB704120E2873B704120EA0
:101CD3002802BB04120E283ABC04120E280EBD04BF
:101CE300120E2878BD04120E28A2BD04120E285B22
:101CF300BF04120E283EC104120E28EDC104120EB9
:101D0300288AC204120E2875C304120E28DDC504E6
:101D1300120E2837C704120E28A5C704120E280B6B
:101D2300AB05120E28B5AB05120E2820AC05120E1A
:101D3300283BAC05120E28BCAC05120E2816AD05C7
:101D4300120E285DAD05120E28BCAD05120E28CE6D
:101D5300AE05120E28F7B105120E2827B305120E91
:101D630028AFB305120E28B8B505120E286AB605BA
:101D7300120E2804B705120E28D5B705120E2890A7
:101D8300B905120E282EBB05120E28BBBB05120E79
:101D930028E1BC05120E2804D902120E2867D902C5
:101DA300120E28AFD902120E28F3D902120E284EB2
:101DB300DA02120E28ABDA02120E28E6DA02120E4B
:101DC3002868DB02120E28C2DB02120E2840DD0255
:101DD300120E28B8DD02120E28D5DE02120E28FDDF
:101DE300DE02120E2850E002120E2861E002120EEB
:101DF3002879E002120E2882E102120E285FE20225
:101E0300120E285CE302120E2880E302120E2897BA
:101E1300E302120E28B8E302120E28DAE302120ECE
:101E230028F9E302120E28D1E402120E282BE50250
:101E3300120E28C2E702120E281BE802120E283ADD
:101E4300E802120E282AE902120E2860E902120E95
:101E53002893EA02120E2812EB02120E284EEB020E
:101E6300120E2888EB02120E28F7EB02120E28AC92
:101E7300EC02120E2884EE02120E2891EF02120ECB
:101E83002809F102120E28FFF202120E2875F5023C
:101E9300120E284FF702120E2810F802120E28888D
:101EA300F802120E289FF802120E2828D005120EEF
:101EB300288AFA02120E28F9FA02120E28F186066F
:101EC300120E28A18806120E28608906120E280B0E
:101ED300DF03120E2881F605120E289FF605120E57
:101EE30028E3F605120E2809F705120E2830F70528
:101EF300120E2848F705120E2860F705120E280265
:101F0300F805120E2844F805120E2867F905120E7B
:101F13002870F905120E2879F905120E2882F905A1
:101F2300120E288CF905120E28ADF905120E283B66
:101F3300DD03120E2868ED05120E2876ED05120E4C
:101F4300287BED05120E28269906120E28D4FF02CF
:101F5300120E28CFA406120E28DFA406120E289C08
:101F6300FB02120E28008002120E28328002120E8B
:101F7300289E8002120E28398102120E28D881026F
:101F8300120E281D8202120E283F8202120E2858BA
:101F93008202120E287E8202120E28A08202120EE4
:101FA30028DE8202120E28228302120E28448302A4
:101FB300120E28A68302120E286D8402120E282404
:101FC3008502120E28968502120E28688602120ECA
:101FD30028B28602120E28058702120E286B87028A
:101FE300120E28A58702120E28F78702120E281355
:101FF3008802120E283E8802120E28458A02120E0B
:1020030028998B02120E28BB8B02120E28EF8B022B
:10201300120E28108C02120E281F8C02120E282A70
:102023008C02120E28DA8C02120E28438D02120E35
:1020330028F08D02120E28288E02120E28EE8E0230
:10204300120E28FB8F02120E28459002120E28D47E
:102053009002120E28389102120E28739102120E6A
:1020630028DF9302120E28339502120E286C980271
:10207300120E28399902120E28C79902120E28F05F
:102083009902120E28629A02120E28F69A02120E72
:1020930028549B02120E28469C02120E28689C02AA
:1020A300120E28C49D02120E28DD9D02120E28F086
:1020B3009D02120E285F9E02120E286B9F02120EC3
:1020C30028789F02120E28819F02120E2859A1021E
:1020D300120E287FA202120E288FA202120E28913E
:1020E300A302120E2808A402120E2837A402120E0D
:1020F300284CA502120E2818A702120E28F0AA02D5
:10210300120E28FAAA02120E280EAB02120E28187B
:10211300AB02120E2822AB02120E282CAB02120EB7
:102123002845AB02120E284FAB02120E28C3AB0296
:10213300120E28CEAB02120E28F3AB02120E28FEAB
:10214300AB02120E284CAC02120E2856AC02120E31
:102153002861AC02120E2885AC02120E28A9AC022B
:10216300120E2805AD02120E284BAD02120E28687E
:10217300AD02120E28E5AD02120E281CAE02120E9D
:10218300285BAE02120E28A8AE02120E282AAF0256
:10219300120E28C3AF02120E2893B102120E28F1B9
:1021A300B102120E280DB302120E2833B302120E1F
:1021B3002872B402120E2898B702120E28D9B90257
:1021C300120E28B5BB02120E284BBC02120E287247
:1021D300BE02120E281EBF02120E2853BF02120E99
:1021E30028B8BF02120E28C2BF02120E28ECC10289
:1021F300120E2813C302120E2853C302120E28F91B
:10220300C302120E288AC502120E2813C702120E29
:102213002833C702120E288CC702120E288EC8025A
:10222300120E28D8C802120E2828C902120E28122C
:10223300CA02120E2887CA02120E28A1CB02120E5E
:10224300281CCC02120E2821CD02120E28CCCF025C
:10225300120E28EBCF02120E284CD102120E280EBA
:10226300D302120E2862D302120E281AD402120EBF
:1022730028C9D402120E281FD502120E28D5D50262
:10228300120E286AD602120E28D6D602120E281073
:10229300D702120E2841D702120E289DD802120E21
:1022A30028008003120E28328003120E286980034F
:1022B300120E28528203120E28358303120E288D24
:1022C3008303120E28C88403120E28148503120EEA
:1022D300283C8803120E289E8B03120E28EB8C03D6
:1022E300120E28818D03120E288D8D03120E28BF26
:1022F3008D03120E28418F03120E28DC9003120E59
:1023030028849103120E28C79103120E282D9203DD
:10231300120E284A9203120E287A9203120E28AF45
:102323009203120E287F9303120E28289403120E91
:1023330028AC9603120E28CC9703120E28B59803E7
:10234300120E28379903120E28569D03120E289356
:102353009D03120E28EB9D03120E281E9E03120EE0
:10236300289F9E03120E28EC9E03120E28779F03CC
:10237300120E28C99F03120E28A0A003120E28597B
:10238300A103120E28F4A103120E280DA503120EA9
:10239300282DA603120E28DAA903120E28F8AA0381
:1023A300120E28FBAA03120E282AAB03120E2830A2
:1023B300AD03120E2809AE03120E283EAE03120E11
:1023C3002846AF03120E28FCAF03120E289DB1035B
:1023D300120E28C2B103120E2801B203120E287383
:1023E300B203120E2857B303120E2824B403120E9D
:1023F300285AB603120E28CBB603120E280BB703C6
:10240300120E286CB703120E282FBB03120E281EC0
:10241300BC03120E2805BD03120E287DBD03120E48
:10242300283FBE03120E283DC003120E2855C003D9
:10243300120E2869C003120E28A1C003120E28CF62
:10244300C003120E2856C203120E2861C303120ED4
:1024530028B3C303120E2814C403120E28C6C403E0
:10246300120E28EDC403120E28D1C503120E2882C2
:10247300C603120E2871C803120E28A6C803120E33
:10248300280EC903120E283DCA03120E28EFCA03F1
:10249300120E2820CB03120E2838CB03120E28C7A6
:1024A300CB03120E287BCE03120E2853D003120E39
:1024B300286FD003120E288BD003120E2859D10394
:1024C300120E283DD503120E28D48501120E280CB6
:1024D3008601120E28EA8A01120E28308B01120E91
:1024E300287D8C01120E28E88C01120E28718E01B2
:1024F300120E28819101120E289C9201120E28AE11
:102503009C01120E28419D01120E2893A001120E68
:10251300288FA101120E28EAA101120E2834A3016B
:10252300120E2822A401120E28BEA601120E283272
:10253300A801120E28B5A801120E28B8A801120E80
:10254300282DA901120E2837A901120E2844A9012A
:10255300120E286FA901120E281FAA01120E2818A5
:10256300AB01120E28C3AB01120E28E1AB01120E10
:1025730028FAAB01120E2823AC01120E2845AC0138
:10258300120E289AAE01120E285FAF01120E28A474
:10259300AF01120E2823B001120E28CFB001120E84
:1025A3002801B101120E2855B101120E2890B10174
:1025B300120E28D7B101120E2827B201120E282CB1
:1025C300B201120E2880B201120E28ACB201120E13
:1025D3002895B301120E28E6B301120E2846B40162
:1025E300120E28A0B401120E283BB501120E287A50
:1025F300B801120E288CB901120E2806BB01120E67
:102603002816BE01120E28B4BE01120E28AAC1015B
:10261300120E2869C201120E28ADC201120E2858EB
:10262300C401120E286CC401120E2876C401120EC6
:102633002880C401120E288CC401120E28B1C401D3
:10264300120E288AC601120E28DFC601120E28E9CF
:10265300C601120E28F3C601120E2868C701120E16
:1026630028B7C701120E28C8C801120E2815C901C0
:10267300120E2822CA01120E2866CA01120E280C55
:10268300CB01120E28FFCB01120E28C5CC01120E6E
:1026930028E8CD01120E2806CF01120E28EECF0135
:1026A300120E2806D001120E285DD001120E2867E3
:1026B300D001120E2872D001120E2890D001120EF2
:1026C30028D8D001120E283AD101120E2861D10167
:1026D300120E2873D101120E280ED201120E2843B6
:1026E300D201120E282AD301120E286FD301120E23
:1026F3002855D401120E287CD401120E28FFD401D0
:10270300120E2870D501120E28F9D601120E2825B3
:10271300D801120E28E8D801120E28B0D901120EE2
:10272300283ADA01120E2862DB01120E2804DC01BA
:10273300120E287FDC01120E283BDD01120E2885C4
:10274300DD01120E28DFDD01120E28B7DE01120EA5
:1027530028DADE01120E288DDF01120E28AFDF0109
:10276300120E2818E001120E282EE201120E28265E
:10277300E301120E28EAE301120E281CE601120EF1
:102783002866E601120E28B6E601120E281AE701A2
:10279300120E287CE701120E28AAE701120E28CE9A
:1027A300E701120E2803E801120E2834E801120E85
:1027B3002867E801120E28B7E801120E280AE9017A
:1027C300120E282FEA01120E28CFEB01120E282A2F
:1027D300EC01120E2853EC01120E28E0EC01120E4C
:1027E300284EED01120E285CED01120E2880ED013A
:1027F300120E28D5ED01120E28F0ED01120E28A2BB
:10280300EE01120E28DAEE01120E281DEF01120E50
:102813002880EF01120E2882F101120E28ACF1017B
:10282300120E28A3F201120E28ADF301120E285D39
:10283300F401120E284CF403120E2884F403120E32
:1028430028A5F403120E28E7F403120E2849F50312
:10285300120E2853F503120E2863F503120E289E59
:10286300F503120E287EF903120E286BFB03120EDA
:102873002851FD03120E28E8FD03120E288AFE03D9
:10288300120E28F63400120E28A13500120E284F1E
:102893003600120E28553700120E28753700120E17
:1028A300289E3800120E28593A00120E28CC3A00FE
:1028B300120E28703B00120E287C3C00120E28E7F3
:1028C3003C00120E28233D00120E28663D00120E16
:1028D30028A13D00120E28E33D00120E28783E0089
:1028E300120E28F43E00120E28BE3F00120E289B43
:1028F3004000120E28334100120E284D4100120EE3
:10290300287D4100120E28AE4100120E28744200A9
:10291300120E28844200120E28D34200120E28E021
:102923004200120E28E94200120E28674300120EDD
:1029330028C34300120E280E4400120E2829440017
:10294300120E28544400120E28714400120E287DE2
:102953004400120E28144600120E282D4600120EB3
:1029630028B24600120E28C54600120E28E446007F
:10297300120E28884700120E28094900120E28BC9F
:102983004A00120E28524B00120E28554B00120E0D
:1029930028C54B00120E28E34B00120E287A4C0078
:1029A300120E28C24C00120E28C54C00120E288BA2
:1029B3004D00120E28F84D00120E281E4E00120E66
:1029C30028A94E00120E28C74E00120E280D4F00E4
:1029D300120E28C14F00120E280B5000120E283A77
:1029E3005000120E28975000120E28CC5000120EE1
:1029F30028F85000120E28065100120E28535100D9
:102A0300120E28C35100120E280C5200120E285821
:102A13005200120E28845200120E288F5200120EFA
:102A230028AD5200120E28985300120E28A253000C
:102A3300120E28DD5300120E28ED5300120E28410A
:102A43005400120E28555400120E28845500120EFD
:102A530028995500120E28275600120E286C56008E
:102A6300120E28F85600120E28035700120E28459E
:102A73005800120E28605800120E28AC5800120E8F
:102A8300281B5900120E28545900120E286E5900A3
:102A9300120E28CE5900120E286D5A00120E28B8B5
:102AA3005A00120E28885D00120E283A5E00120E9C
:102AB30028A75E00120E28E76000120E28FF6000B0
:102AC300120E28026100120E280E6100120E282237
:102AD3006100120E282A6100120E285D6100120E99
:102AE30028606200120E28ED6200120E285D63005A
:102AF300120E28DF6300120E28A06400120E28BFF6
:102B03006400120E28606500120E28BD6500120EC7
:102B130028C06500120E28346600120E2883670051
:102B2300120E28896800120E28146900120E282F2D
:102B33006A00120E28F76A00120E28286B00120E84
:102B4300284B6B00120E28546B00120E28836B0067
:102B5300120E28136C00120E28C96C00120E283EA8
:102B63006D00120E28E56D00120E285A6E00120E2B
:102B730028916E00120E28CF6E00120E2877DE0306
:102B8300120E288BCF05120E2881CF05120E281A9C
:102B9300CF05120E28FFCE05120E285CCE05120EAD
:102BA300285CCD05120E287ACC05120E286ACA05B8
:102BB300120E2878C905120E2816C905120E28C050
:102BC300FA04120E28B6FA04120E2817DE03120EA8
:102BD30028C88906120E284BFA04120E287FF8041F
:102BE300120E28D4DA03120E288BD703120E283DB7
:102BF300F804120E2849F704120E281DF704120ECA
:102C030028D4F604120E2815F604120E28EDF20449
:102C1300120E2891F004120E2861F004120E2811EE
:102C2300F004120E28ABEF04120E286AEF04120E02
:102C3300289CEE04120E2836EE04120E28D5ED045D
:102C4300120E2875ED04120E2813EC04120E28A799
:102C5300EB04120E28FBEA04120E28F6EA04120E05
:102C630028DFEA04120E28DFD603120E28AAEA048C
:102C7300120E284DD603120E2807D603120E28D2A1
:102C8300D503120E289FD503120E288AD503120EE0
:102C9300285FD503120E28D8D205120E28A4D20518
:102CA300120E283CE704120E2839E704120E28F707
:102CB300E604120E284DD205120E28E4E604120E85
:102CC30028D9E604120E28A8E604120E28A0E4046C
:102CD300120E28E7DD03120E2813E404120E282A2D
:102CE300E905120E28CFE304120E28A3E304120E03
:102CF30028A6C805120E2879C805120E2846C8054D
:102D0300120E281EC805120E28BFC705120E289FD3
:102D1300C705120E286AC705120E2816C405120E1F
:102D230028FEC105120E28E8BF05120E2868BF054C
:102D3300120E2814BF05120E2820BE05120E28C835
:102D4300BE05120E28D6D005120E2896F9020000F1
:102D53000080FB000022E4738F000100BB1E87008C
:102D63000100B91E350004007F1E25000200831EEA
:102D730026000200851E27000200871E280001008E
:102D8300911E29000100921E84000400A61B8600E8
:102D93000100201E2A000100931E2B000100941E37
:102DA3002C000100991E2D000800B41B2E00010009
:102DB3009A1E2F0001009B1E300001009C1E310053
:102DC30001009D1E32000100BC1B33000100BD1B2E
:102DD300340001009E1E36000100BE1B38000100B6
:102DE3009F1E39000100981E83000200B71E630076
:102DF3000100C91B64000100951E65000100961EB9
:102E03006D000100CA1B71000800AC1B66000100C5
:102E1300B61E43000100A71E44000200A81E450081
:102E23000100AA1E46000200AB1E47000800C11B9A
:102E330048000100AD1E4B000100AE1E040001005E
:102E4300BA1EA1000100BE1E37000100BD1E88008E
:102E53000100BC1E3C000100BF1B3D000100A01E81
:102E630049000200AF1E67000100CB1B4D000200AA
:102E7300B11E4E000100B31E4F000200B41E3E00FF
:102E83000100A61E51000100A21E52000100A31E54
:102E930053000100A51E54000100C01B00000000E8
:102EA30000000001363601010001020100010301A7
:102EB30000010401060605020000070100340801B1
:102EC300000F090401010D0100FF0E0800001702A5
:102ED3000000190100FF1A0100011B0100FE1C0183
:102EE30000081D0200001F01000120010001210252
:102EF30000002301000F2402000026010001270126
:102F03000008280200FF2A0100072B0102402C01C0
:102F130000002D0100012E0100012F0100FF3001EF
:102F23000B1D310800003A0100083B01000F3C0172
:102F330000013D0100FF3E0400004204000046047E
:102F430000004A0400004E0400005204000056042E
:102F530000005A040000000000002001D285000098
:102F630001002001D385000002002001CE8500006E
:102F730003002001CF8500000400420142840000C9
:102F8300050042014C830000060042012884000032
:102F930007003001D0850000004042018284000018
:102FA300FDFF2101CA852A0400003905791A2A0484
:102FB300C8003905811A2A04C90039057D1A2A0473
:102FC30001022123561E2A04210221234A1E2A0418
:102FD300220221234C1E2A04200210234E1E2A04FF
:102FE300250210234F1E0C0055003905871A0C00CB
:102FF300650039058B1A0103710301030103010302
:10300300010301032203020301031003000300036E
:10301300000300030003000300034203000324032F
:1030230006030003000304031203250323032503FC
:103033002303040304030003000300034403000306
:103043000003230300036503210035038103000309
:103053000503000300030003000325032303030206
:1030630071023001600211027002010202020202C7
:103073008002100261023A0041006302730272028D
:10308300620243020002130238000002000204023B
:1030930012020002000200020002040204023700CE
:1030A30037003C02440200023900000200026502BC
:1030B300000235028102000205028202830200023D
:1030C300010171010101010111010101310101013D
:1030D30001018001100161013B00140063017301D0
:1030E3007201620143010001130106013D01350034
:1030F30004011201000100010001000104010401A7
:10310300330133013C014401320136000001000167
:103113006501000135008101000105018201830180
:103123000001030471040204600411047004020426
:10313300020401040204100461040004140463047F
:1031430073047204620443040004130406040004B9
:1031530000040404120400040004000400045104E5
:103163006400000400040004440400040004000498
:1031730000046504000435048104640005040004AC
:10318300830400040300710030016000110070002B
:10319300310220035004800010006100000014007D
:1031A3006300730072006200430000001300060016
:1031B30000000000040012000000000000000000F6
:1031C30004000400370037003C0244000000000004
:1031D30000000000650000003500810000000500CC
:1031E30000008300000036000100060000000F000D
:1031F30000000000000000000000000003FFFF00CB
:10320300000403FFFF0000FFFF0FF4010005C404E7
:103213000320000100000B00000000000000000379
:10322300010F00000000000000000000000000008B
:10323300000000000000000000000000000000008B
:10324300000000006D1A971A731AA719791A9D1AAC
:10325300791AA91A7F1AA719791A9D1A851AA71913
:10326300000000008B1AA7190000000000000000F6
:10327300911AA719000000000000000000000000E0
:10328300000000000000000000000000000000003B
:10329300000000000000000000000000000000002B
:1032A3001300E91C1F00EF1C1F80F51C00004F1DBD
:1032B30001004F1D0200951C02808F1C03009B1C04
:1032C3000400A11C0480A71C0500AD1C0600B91C4A
:1032D3003100CB1C3300D11C3400D71C3600DD1C5D
:1032E300FFFF00000A0000000200000004000000CD
:1032F3000800000010000000200000004000000053
:103303008000000000010000000200000004000033
:103313000008000000100000002000000040000032
:10332300010525063525082F250B532510532202A9
:103333000B250523250711250CED240DF9246449DC
:1033430020FF0000030003000400080010001F001A
:103353003E007B00F600EC01D703AF075D0FB91EFB
:10336300713D000007ECFDFDFDECDCDCCCBCACAC3E
:103373009C9C8C7C7C6C6C5C5C5C4C4C3C3C2C2C3A
:103383001C1C03EAF5E5D5D5C5B5A59595858575C9
:1033930075656555554545353525251515050016BE
:1033A3000F00000B150B020002220F3300000E0F5B
:1033B3005A6967426565416C6C69616E6365303952
:1033C30000000000000000000000000000000000FA
:1033D300D0D1D2D3D4D5D6D7D8D9DADBDCDDDEDF72
:1033E30000034D4C4651181A2505023030161819A2
:1033F30020231A1C1E30003C40423A3F3F392F47DE
:103403003000011916181616182303003030171848
:103413001921301B1D1F300C0E020B040B0A070869
:10342300000F02040201010101090200BE040AE8BF
:10343300030000E8030000010003007F0000000E0A
:10344300000404080405030A0C101408091E0C28C0
:10345300FF03100209033C0C050815001EE4F0A34A
:10346300F0A3F0A322123460F022901D12124A6CD2
:103473001228EF2212347B22E0F508E4F509F50A5D
:10348300F50B22E824FBF582E934FFF58322E824D7
:1034930011F582E439F583E022F5831234A222E0A8
:1034A300F508A3E0F50922122B6B7404120E737F47
:1034B30008020BB87401F0900B5FE0640F227409EB
:1034C300120E737F04020BB8EA2413FAE43FFB12D3
:1034D3002A99E9227905122AA5740622A3A3E024D6
:1034E300F5C3941322122B77900B7F126A2A7A1456
:1034F3007B0022C082C083901CF174E3F0A3742884
:10350300F0A374F5F0A37428F0901CF574CBF0A32A
:103513007428F0A374C5F0A37428F0A37401F0A376
:103523007429F0A37407F0A37429F0A374FBF0A328
:103533007428F0A374B3F0A37428F0901D0174D71A
:10354300F0A37428F0A374DDF0A37428F0A374D15E
:10355300F0A37428F0A3740DF0A37429F0901D1246
:1035630012543B6009901D12124A681217F1901D04
:103573000F124D8274081260D7A3F0901DBBF09018
:103583001D14F07C0BFDF97A157B1D1217437C0B80
:103593007D0079007A207B1D121743024BDC74F700
:1035A30012095374F7120F3BEAFEEBFF1236347421
:1035B30005124EA07403F012374B124E822430FCD6
:1035C300E43FFD8C8212362C1236406008123E59BD
:1035D30074FFF0A3F0EE242EE43F1C1CFD8C82F557
:1035E30083A3E0C0E08A828B83124B34D0E012368F
:1035F300408882898312536F2403F0EE123E6312D4
:1036030011C07403F0900B74120C877402120F052F
:10361300123A2D120E73E9F5087007EEFAEFFB125A
:10362300297FA9087409023E72F583E088828983A1
:1036330022EA1236392212557E3FF583221263574E
:10364300124E8EE8F0A3E912662EE02274F01209FE
:1036530053EAFEEBFF8C0C8D0D890B12374BF58370
:10366300124E9674101211C0E0F508A312362EF014
:10367300E824FFF582E9123A3FE508F0E824FEF575
:1036830082E9123A3FE50BF0900B79E0C0E0E824C1
:10369300FDF582E9123A3FD0E0F0900B78E0C0E00C
:1036A300E824FCF582E9123A3FD0E0F074121211DB
:1036B300C012349E123486E509F0E824FAF8E9349E
:1036C300FFF98882F583E508F0EE2404FCE43FFD6E
:1036D30088088A828B83E0F50E8C828D83E0250E29
:1036E300C39508126357124CBC850C82850D83A3C6
:1036F300A3A3A3A3A3A3A3E064037009EE124E70D4
:10370300F0A3E48003123A44123A4C7409F07508AA
:103713001575091D750A007808120E41125E2112F3
:103723000E737508FF7509FF7808120E45AC0CADD2
:103733000D123A2D120E73E9F5087007EEFAEFFB3E
:1037430012297FA9080234B2EA2402FAE43FFB8A71
:103753008222C082C083901D31E0C3940840047468
:10376300078001E08A828B83F033333354F8F90204
:103773004BDC74F01209538A088B09890A8C0E8D6D
:103783000F750C00A2AFE433F50BC2AF901D2B8075
:1037930045123877503D12389164037036E508249A
:1037A300F9F508E50934FFF5098E828F83A3A3E0B9
:1037B3002405FCA3E03400FDAA08AB091218DBE5DD
:1037C3000824FFF508E50934FFF5097410250CF505
:1037D3000C150A123C66126DDFE50A6004EE4F70A9
:1037E300B0E50BA2E092AFA2AFE433F50BC2AF900A
:1037F3001D2B803E1253488882F5831245BC8508F1
:1038030082850983F08A828983123888A3A3E0C062
:10381300E0E50824FFF582E509123A3FD0E0F0E540
:103823000824FEF508E50934FFF509050C150A120D
:103833003C66123ABA6021123891640270F1123870
:1038430077EE40B0124FB7A2E550E4850E82850FA4
:10385300837401F0E50A70D7E50BA2E092AF850807
:1038630082850983E50CF0E50824FFFAE50934FFB6
:10387300FB0234B212387DA2E622EE2411F582E473
:103883003FF583E02212388C2212538DA3228E82BD
:103893008F83A3A3124B38125A642274F012095374
:1038A30074F3120F3B74031211C0E9F07402121186
:1038B300C0EAF08B0B852182852283E4F004120E8B
:1038C300FD122895E9F8900B5EE0292437F508FAF4
:1038D3007B001217558A0C8B0DAE0CAF0DEA4F709F
:1038E30003023A24EA2402F50EE43FF50FA808EA9E
:1038F30028F8E43BF9850E82850F831243B8900BB9
:103903005EE0F9FAC3E49AFA95E0FB850E82850F2F
:1039130083E02AF50CA3E03BF50D900B5C12349E7B
:10392300750A007808120E41E9FC7D00AA0CAB0D64
:10393300124DF2120E73AC21AD2274011211C0E0CC
:10394300F9E50C24FFFAE50D34FFFB12289B8A826C
:103953008B83E4F0E50BC454F0F9901DBCE0C43351
:103963003354C0F8900B58E0A2E0E43313134849F2
:10397300440FC0E0EA24FFF582EB123A3FD0E0F0B7
:10398300EA24FEF50CEB34FFF50D74031211C0E0CD
:10399300F874021211C0E0C454F048850C82850DFE
:1039A30083F0A80C850E82850F831260A42AC39826
:1039B3008E828F83A3A3A3A3F0850E82850F83E852
:1039C300F0A3E50DF0123A44123A4CE4F0740C12F1
:1039D30011C0E4F075082075091D7808120E411214
:1039E3005E21120E73852182852283E06009EE2415
:1039F3000E124FB94408F0122A87E9F9E4F508F5E5
:103A0300097808120E457406120F05123A2F120E8A
:103A130073E97006EEFAEFFB800BEEFAEFFB121779
:103A23005B7A007B00740D0234AF7903EEFAEFFB8F
:103A3300122A9F740222EE24FFF582EF34FFF583EE
:103A430022EE123639E4F0A322F0123A5122EE129A
:103A53005D443FF5832274F21209538A0C8B0DA245
:103A6300AFE433F50AC2AF750800750900901D2B4A
:103A7300802C123C765024850C82850D83A3A312DF
:103A83005E348E828F83A3A3124A68122A8DE96063
:103A93000A123C71C2E6F08E088F09123C66123A94
:103AA300BA70CFE50845096006123B53D2E6F0E54C
:103AB3000AA2E092AF800DE0FEA3E0FFEE4F227476
:103AC30002120E737F06020BB874F01209538A0EAA
:103AD3008B0F8C0C8D0D750A00A2AFE433F50BC26E
:103AE300AF7E007F00901D2B8010AE08AF09123B04
:103AF3004B124FB7D2E7F0124A46124A5A603412B9
:103B03003B53A2E750F1850882850983A3A3120CD6
:103B130087AC0CAD0DAA0EAB0F122A937402120ED2
:103B230073E960D3EE4F60C2123EED7006123B653F
:103B3300D2E4F0E50BA2E092AFEE4F6006122979D2
:103B4300750A01A90A0234B212387DD2E4F0EE22DA
:103B5300E508125D5E3509F583E022AA82AB831284
:103B630018DB8E828F83A3A3124B38E02274F212E8
:103B7300095374FE120F3B750C00750D00852182ED
:103B8300852283E4F0A3F0A2AF33F50AC2AF901D00
:103B93002B126DDF802BEE24FBF582EF34FF123402
:103BA3009C780C120E45123C54120E73EEFCEFFD82
:103BB300AA21AB22121779AE08AF09901D31E01488
:103BC300F0EE4F602B123C76501DEE240BF8E43FD1
:103BD300F98882F583E024FFF0A3E034FFF08882C4
:103BE300898312543B60AF8E0C8F0D123C6680A10B
:103BF300E50AA2E092AF901D31E0602C900B5FE0EC
:103C0300640F6006901DBBE0701E7A097B1D122BAA
:103C1300779085C6120C837A097B1D124C64120EB1
:103C230073800574F0124B45AA21AB2212177F8AC9
:103C3300088B09AE08AF09EA4F60131228A7123C9C
:103C430071A2E28E828F83A350D974E980D7023A9E
:103C5300C2EEFCEFFD7A2B7B1D12178B7402228EB2
:103C63000A8F0BEE24FBF582EF34FFF58322EE126D
:103C7300387E2212387DA2E72274F7120953EAFE36
:103C8300EBFF1228A7124B31122D59E96401900B57
:103C93007B700AE02401F8A3E034008003124AB7E2
:103CA300F91251B9124CBC901D31E0701F900B5F9B
:103CB300E0640F70177A097B1D122B779085C6126B
:103CC3000C837A097B1D124C64120E73A8A8C2AF31
:103CD300901D31E004F0E8A2E78004E508A2E09239
:103CE300AF0250C774F7120953EAFEEBFFEA123D25
:103CF3001DF01228A7EEFCEFFD7A2B7B1D12178512
:103D0300A8A8C2AF901D3112460B900B5FE0640F61
:103D130070057908122A3F0250C712387EC2E42286
:103D230074F712095374EA120F3BEAFEEBFF900B90
:103D330058E0602A8521828522837401F01211C024
:103D4300E4123DD81211C0123B5EC0E0740A121196
:103D5300C0D0E01260C4740B1211C0125324741645
:103D6300023E7274F7120953EAFEEBFF122889E947
:103D7300F974DC69601E74DD69601974E4696014A8
:103D830074F369600F74DE69600A74DF6960057437
:103D9300DB697007EEFAEFFB122A450250C774F78E
:103DA30012095374EB120F3BEAFEEBFF8521828568
:103DB30022837406123DD81211C0AA82AB83121853
:103DC300DBEE2408FCE43FFD740A1211C0125324F5
:103DD3007415023E72F0EA2413FCE43FFD740222E0
:103DE30074F712095374F7120F3BEAFEEBFFEA2450
:103DF30030124FB9605DEA123E631211C07403F0D2
:103E0300900B74120C87123E59120C87900B87E0AB
:103E1300F97404120F05EEFAEFFB12288F740412E3
:103E23000E73E9F974DC69602374DD69601E74E460
:103E330069601974F369601474DE69600F74DF6973
:103E4300600A74E869600574DB697007EEFAEFFBDA
:103E5300122A45023627EE242EF582E43FF583220B
:103E6300126235AA21AB221218DB740822740312E2
:103E73000E730250C774F21209538A0C8B0D750A24
:103E830000750B007508E7A2AFE433F509C2AF90E4
:103E93001D2B8003123C62123ABA6025123C765005
:103EA300F3123EED70EEEE2432124084E06870E4CB
:103EB300780A120E45123C54120E73901D31E01411
:103EC300F0E509A2E092AFEE4F6013EEFAEFFB12BA
:103ED30028A779F0EEFAEFFB122A45750800A90826
:103EE300AA0CAB0D122A45023AC7123A51E06401FB
:103EF3002274F412095374F7120F3BEAFEEBFF8AA4
:103F030082F583A3E064F37003023F928A828B837A
:103F1300A3E064DF60798A828B83A3E064E8606F47
:103F23008A828B83A3E064DB60651228E9E9F508E4
:103F33007055EE240E124FB9604D123F9C604874C9
:103F4300081211C0123FAB120C877508FF7509FFE9
:103F53007808120E458E828F83A3A3A3A3A3A3A3E2
:103F6300A3E0F97404120F0512288F7404120E7360
:103F7300E9F50874F369600F74DF69600A74E8692E
:103F8300600574DB69700F8E828F83A3E508F0EE02
:103F9300FAEFFB1228F50234C1EE240FFAE43FFBDB
:103FA300790912292BEA4B22740212582A74FFF062
:103FB300A3123FB822125378A3A32274F112095318
:103FC300EAFEEBFF7508008A82F583A3A3A3A3A3EC
:103FD300A31234DF40037508E88A828B83A3A3A36B
:103FE300A3A3A3A3A3A3A3E0C3941040057508E868
:103FF30080138A828B83A3A3A3A3A3A3A3A3A3A3B3
:10400300E0640F600B901D98E0540870037508E896
:10401300EA240B124084A3A3A3A3A3A3A3A3E0C3F3
:1040230098500DEA240B124FB9640F60037508E82A
:10403300900B78E0F47003A3E0F470037508EC7A56
:10404300237B001217EB8B0BA90B901D12124093CD
:1040530060278E828F83A3A3A982AA83890C8A0DEA
:10406300750E00780C120E417C237D00901D12E02A
:10407300FA124DF2120E73800375081AA908025E34
:104083001CF582E43FF583E0F88A828B83A3A322A5
:10409300EAF0A3EBF0EA492274F5120953EAFEEBC6
:1040A300FF8A82F583A3A3A3A3A3A3A3A3E0900BF7
:1040B3005F12412BE0900B7AF0EA240B124FB99078
:1040C3000B5A12412BA3E0901DBCF0F91215B190CD
:1040D3001DBCE0600BEE2404124FAB2406124121F9
:1040E300901DBB1234B76004740180027400901DEC
:1040F3001412676F120E417C0B7D007A157B1D1223
:104103004DF2120E73EE2418F508E43FF509780812
:10411300120E417C0B7D007A207B1D024DDFFAE4F9
:104123003FFB79E112159922126759A3A3A3A32296
:1041330074F7120953EAFEEBFF8A82F583A3E0705A
:104143000312346D1262E00250C774F7120953EA86
:10415300FEEBFF901D1212543B6010901D12124A89
:1041630068901D12E4F0A3F01217F18E828F83740E
:1041730008124B4C122CDF0250C774F612095390ED
:104183001DBBE06010901D14E0700A12419BEA4BC6
:10419300600312297F0263DA900B5AE0FB900B7ADB
:1041A300E0FA900B5FE0F91228A12274F41209538C
:1041B30074E7120F3BEAFEEBFF750B018A82F5836E
:1041C300A3A3A3A3A3A3A3E0A2E25069EA242BF52C
:1041D30082E43F125E32EA2413FAE43FFB1228AD75
:1041E300E9705290847AE064017005750B00804594
:1041F30012426D120E417C0B7D007411120EFD12E2
:104203004DF2120E73122A87E9FA740E120EF58814
:104213000889097808120E45750830750900780871
:10422300120E45EE12608D120C871262277901126D
:1042330034D9120E738521828522837410F01262A1
:104243002774021211C0AA82AB831218CFEE242B5B
:10425300126A20740B1211C0124CBC740D1211C0DF
:10426300E50B12649974190234C3EE2408126777BC
:1042730022C082C083901DBCE06003122AF9024B66
:10428300DCC082C083901DB374F1F0A3741CF0A34F
:1042930074F5F0A3741CF0A37401F0A3741DF090E3
:1042A3001EF47425F0A37431F0901D9D7483F0A364
:1042B3007428F0901D3674B9F0A37428F0901D385B
:1042C30074BFF0A37428F0901D98E044020246E006
:1042D300C082C083EAFCEBFD79030253E7C082C0CE
:1042E30083790802655AC082C08374FE120F3B9023
:1042F3001D3E7467F0A37429F0901D407461F0A310
:104303007429F080077A2B7B1D124345901D2B12D5
:10431300543B70F1901D2D12543B60097A2D7B1D87
:1043230012434580EF901D2BE4F0A3F0901D31F074
:10433300A3F0A3F0901D4C74A3F0A37429F07402AE
:10434300801C12177F852182852283EAF0A3EB125A
:104353004359122A7522F0AA21AB22227411120E9C
:1043630073024BDC74F6120953E9FF74F929F582E1
:10437300E43433F583E493FEFA7B00121755EA4BDA
:104383006007EA2E1243B580267A027B0012175586
:10439300EA4B6017740F2FF582E43434F583E4930A
:1043A3008A828B83F0A3741A12477E7A007B000201
:1043B30063DA124CABE8126354A3A3A3A3E4F02281
:1043C300E9FC740629F8EAA2E0501EE875F00A84B5
:1043D300E5F0F96014740A28C399F8E9C394054019
:1043E30004740A28F8740B28F8ECC3941340047976
:1043F3001480027906E82979002409F85001097A22
:104403000A7B00120657E8F9020E25C082C083908A
:104413001D98E05402600A121F35E9600479018097
:10442300027900024BDCC082C083901D98E05402E5
:104433006014901D31E0700A125438600912444E22
:104443005004790180027900024BDC123491A2E717
:1044530022C082C083908477E0F8901D33E0C39834
:10446300500512175580047A007B00024BDCC08292
:10447300C083122A757900024BDCC082C08374FEAC
:10448300120F3B852182852283EAF0A3EB1245E7D5
:10449300A3A3A3A3A3E0600A14605724FE605A02F7
:1044A3004557900B5FE0640F6012122A4BE9700CC2
:1044B300124A62901D3A124B34122D59900B87E029
:1044C300C0E085218285228312535BD0E01245E749
:1044D3007414125D78FCA3E0FD7A2D7B1D1217790D
:1044E300A8A8C2AF901D3312460B7920122A3F02AF
:1044F30043411248B5741580D91248B5A3A3A3A3A9
:10450300E060511248B5123B69C0E08521828522E3
:1045130083E02406F582E43BF583D0E0125D782442
:1045230002F8A3E03400F98882F583E02401FAA3BA
:10453300E03400FB88828983EAF0A3EB125D7812F2
:1045430048F585218285228360131245BC600512DC
:1045530045CE4048AA21AB22122A7580921245BC4F
:1045630060F21245CE50211245DBFA852182852265
:1045730083A3E0C824061248B1F87424125570349A
:1045830034F583E4936A601485218285228312457E
:10459300BC640870BF1245DB640870B81245DB14B5
:1045A3001245EF240AC0E0852182852283124B3411
:1045B300D0E01245EF040244D51245C022124AB797
:1045C300C82406F582E438F583E02285218285221A
:1045D300831245C0C3940A2285218285228312381F
:1045E3008CA3E0221245F9F5838882221245F9C88B
:1045F30024061248DF22F0852182852283124AB7DE
:1046030022A8A8C2AF901D32E004F0E8A2E792AF5F
:1046130022C082C083901D4212543B60081248BCE2
:10462300122D5980027900024BDC74F7120953EA08
:10463300FEEBFFEA123A527401124C6AF8A3E0F956
:10464300123634124CBCEA2435124FB9C0E0EA24C6
:1046530013F582E43FF583D0E0F0EA2436124FB934
:10466300C0E0EA2414F582E43FF583D0E0F0EA24C5
:1046730038124FB9C0E0EA2418F582E43FF583D03D
:10468300E0F0EA242FF582E43FF583120C871262EF
:1046930034EA2431124FB9F9123A33120E73E9F5A1
:1046A300087007EEFAEFFB12297FA9080250C7C072
:1046B30082C083122A4BE9600479208002790102C7
:1046C3004BDCC082C083EA24111246D6D2E0800DAF
:1046D300EA240DF582E43BF583E022F0A3F0024BDC
:1046E300DCC082C0831246D3640170111247784044
:1046F3000C8A828B83A3E0F9122A458066124769EC
:10470300A2E650128A828B83A3E0F9901D3C124BE0
:1047130034122D59804D1246D36401700D1247781F
:1047230050088A828B83743080368A828B83A3E01D
:10473300641B8A828B83700474228024A3E0700D2F
:104743001246D3F874EE1255703433800B1246D3ED
:10475300F8740F1255703434F583E4938A828B8393
:1047630012477E024BDC12476D22EA2410F582E4E5
:104773003BF583E02212476DA2E322F0901D93E004
:10478300F91217612274F7120953E9FE12543870B3
:10479300030248AEEE6014741B6E701AE8125D4497
:1047A30039F583E064057003024886901D3512488D
:1047B300BCA3E402488D74E96E7068E82412F582A4
:1047C300E439F583E0700B121F3BE960051248FFE3
:1047D300606179EE12151B901D341248D6901D347A
:1047E300603A124902901D34700B1248D614F0122D
:1047F30016D10248AE1248F4C2E7124A9D240D12A4
:1048030048B1640370091248CF124A53D2E2F079D7
:10481300ED12151B1248E7122D5980781248C27405
:10482300E9806774E16E703E121F3BE960551248E0
:10483300FF7050900B81E0C0E01248CF2412F58244
:10484300E438F583D0E0F0900B70E0C0E0901D34C5
:104853001248CB1248CBD0E0F0900B70E004F07913
:10486300011216B98045741C6E7018901D34124ADB
:1048730068901D44124B34122D59901D34E4F0A35B
:10488300F08028901D341248C2EEF0901D34124A75
:104893006812296D124A7EE05480600312654990C4
:1048A3001D34E4F0A3F07910122A3F0250C71248D6
:1048B300DF22852182852283A3E0F5838882221269
:1048C30048C622124B3CA32212538922901D341254
:1048D300536A2212536A24121248DF22F582E43803
:1048E300F583E022901D34124A6C901D38124B3828
:1048F30022E0F8A3E0C824101248DF22901D3412EE
:104903004A85E054042274F4120953750A00750BA6
:1049130000A2AFE433FEC2AF12543860030249FC75
:10492300124B31122D59E94410F8901D2B80098543
:10493300080A85090B124A46124A5A70030249FCB7
:10494300123B53586870E8780A120E45AC08AD095B
:10495300123C58120E73901D34E508F0A3E50912BA
:104963004A9D124A53A2E75003024A03901D32E0C4
:1049730014F0EEA2E092AF901D34E0240EF8A3E011
:104983003400F9E8FEE9FF8882F583124A68901D36
:10499300341245E1F9122931E9901D2F1260D78EA7
:1049A300828F83E0548060181248CF24131248B1D9
:1049B300F91215D51248CF24141248B1F91215C9AA
:1049C300124A7EA3E05401605F901D2F12543B6096
:1049D30045124A946040124A94F87900901D2F12B0
:1049E3004A6812065FE8C0E0124A72D0E0124AA297
:1049F300C3941340117402800FEEA2E092AF80378C
:104A0300901D310249727400C0E0901D35E0C81258
:104A13004A3DD0E0800D124A727401124A9D124A37
:104A23003D7401F07903800C901D341248F4A2E127
:104A3300B3E433F91216B90234C6241AF582E43802
:104A4300F58322E50824FBF582E50934FFF583228B
:104A5300125D5E1248E2221234A2E508450922855E
:104A63002182852283124A6C22E0FAA3E0FB221200
:104A730053672419F582E438F58322901D34124AD2
:104A83008522124AB7C8124A8D2212557E38F58301
:104A93002212536724181248DF22124AAFC8221287
:104AA3004AAFF5838882A3A3A3A3E022F0901D3429
:104AB300124AB722E0F8A3E02274F7120953EAFE80
:104AC300EBFF122A6F124FB6A2E3400A123EED70BB
:104AD300059084758003908476E0F9EEFCEFFD7A0F
:104AE3002B7B1D121791E96038EEFAEFFB901D3E08
:104AF300124B34122D59EE240E124FB95404701276
:104B0300124604EE123635A3E05401701E122979C1
:104B13008019EEFAEFFB901D36124B34122D59809B
:104B23000A8E828F83A374F1124B450250C7901DE6
:104B330040124B3822124B3C22E0F8A3E0F5838865
:104B43008222124B4C12296D22F0EEFAEFFB220265
:104B53004BD574F7120953EAFEEBFF7900901D98C9
:104B6300E05402700CEA2433124FB9540460027902
:104B7300E8901D98E05460700CEA2433124FB95446
:104B830002600279E88A828B83A3A3A3A3E0F8904F
:104B9300847BE0C398500279E8EA2431124FB9705C
:104BA3000CEA242E124FB9700479F5800BE97005D5
:104BB30012295BE9F9E96007EEFAEFFB122A4502D5
:104BC30050C7C082C0838A828B83740DF0122CDF9E
:104BD3008007C082C083122979D083D082020E2538
:104BE30074F4120953EAFEEBFF8A82F583E4F0A31F
:104BF300124C6A54049084757012E0F8901D32E0F0
:104C0300C398401279F1122A450234C6E0F8901D88
:104C130031E0C39850EE124C70A3E054016037EAC0
:104C23002437124FB9C394054033EA2433124FB9E2
:104C3300540570297A467B1D122B77EE2437F582B3
:104C4300E43FF5831234777808120E3D7A467B1DD4
:104C5300124C64120E73EEFA12566180AC79E8803E
:104C6300A5122B6B740422F0124C70E022EA243359
:104C7300F582E43FF5832274F6120953E9FE2451C9
:104C8300FAE43400FB121755EA4B6015EE8A828B67
:104C930083A3A3A3A3F0EA2451124CAB124CBC8010
:104CA300047A007B000263DAF8E43BF98A828B839F
:104CB300A3A322126A2A901E10E8F0A3E9F02202AD
:104CC3004BD5C082C083901D4F74CDF0A37429F0DF
:104CD300A374FDF0A37429F0A374D3F0A37429F093
:104CE300A374D9F0A37429F0A374F7F0A37429F083
:104CF300A374EBF0A37429F0A374E5F0A37429F073
:104D0300A37403F0A3742AF0A37409F0A3742AF024
:104D1300A3740FF0A3742AF0A3741BF0A3742AF0F6
:104D2300A374DFF0A37429F0A374C7F0A37429F06C
:104D3300A374C1F0A37429F0901D6B74F1F0A374F4
:104D430029F0A37415F0A3742AF0A3742FF0A374AD
:104D53002BF0A37421F0A3742AF0A37427F0A37497
:104D63002AF0901D8FE4F0901D92F0901D7B124D60
:104D7300827402F0901D84124D8274010246E07425
:104D83003FF0A3742AF0A32274F512095374F112AD
:104D93000F3B8521828522837402F074011211C0B6
:104DA300E9F060047AFF7BFF74021211C012581FEE
:104DB30075088775091D750A007808120E417C0B6A
:104DC3007D0074071211C0AA82AB83124DF2120E3A
:104DD30073AA21AB22122CDF740F8003124DF2123F
:104DE3000E737F03020BB87C0B7D007A877B1D1249
:104DF300173774032274F712095374FD120F3B859E
:104E03002182852283740AF074011211C0E9F074BF
:104E1300021211C0EA126499023E7074F612095329
:104E230074F7120F3BEAFEEBFFEA124E70124EA02C
:104E33007402F0EA2428FCE43FFDAA21AB221218F5
:104E4300CFEE2431124E762433125E98120E45743F
:104E530002120F0579831A1A123A31120E73E9F509
:104E6300087007EEFAEFFB12297F0263D31236397B
:104E7300740122F582E43FF5831234A2125340F504
:104E830083124E8EE8F0A3E9F0EE22124E968A8248
:104E93008B8322E024FFF8A3E034FFF922F0A3E49C
:104EA300F0EA123A522274F01209531269081211ED
:104EB300357808790C1207EC7808120E3D7A7E7B60
:104EC3001D0234AA74F412095374C6120F3B900BDB
:104ED3005FE0640F600D852182852283742E125852
:104EE3003E80227A757B1D1234E812065F8808899A
:104EF30009E4F50AF50B7808120E3D7A757B1D124D
:104F03004C64120E73743A0234C374F5120953EAF3
:104F1300FEEBFF8A82F583A3E0F87078EA2430126F
:104F23004FB964026007E06403600278E8EA24266C
:104F3300F582E43FF5831234E1400478E88058E8D1
:104F43007052EA2426124121EE2431124FAB243051
:104F5300124FB96402700EEE2428126A20900B6E71
:104F6300124CBC8017900B6E74FEF0A304F0EE2479
:104F730028FCE43FFD7A657B0B1218DBEE241B1241
:104F83004270120E41124DEA120E73EEFAEFFB124B
:104F930029BBE9F8E8600EE88E828F83A312623C96
:104FA30074171262E6024DE5FAE43FFB79501215DD
:104FB30099EE22EE2410F582E43FF583E02274F6A5
:104FC30012095374F7120F3B901D92E0703774016E
:104FD300F0F9121683AA21AB22122A81750887756C
:104FE300091D7808120E4575080175090078081225
:104FF3000E45900B74120C877406120F057A031278
:1050030034D7120E730263D574F71209531251E7A2
:105013007004A374EBF0901D92E0A2E25003C2E28D
:10502300F0E0A2E150051251F880098E828F83745B
:105033002A1262E60250C774F412095374FE120F67
:105043003B1250ED125333EC852182852283125398
:1050530082E0F50B7015AA21AB227953121599EE54
:105063002413FAE43FFB794A12159912426D120E8A
:1050730041124DEA120E73124A62A90B1229AF9024
:105083001D92E0A2E150031251FF901D92E4F074CF
:10509300020234C374F7120953EAFEEBFF8A82F566
:1050A30083A374EBF0901D92E0A2E150077A00799C
:1050B300EB1229B5EEFAEFFB1229EB8007EEFAEFBC
:1050C300FB122AED7F01020BB874F7120953125039
:1050D300ED901D8FE4F0901D92F07AFF7BFF8E829E
:1050E3008F83A3E0F91229AF80DA1252387A7E7BDC
:1050F3001D122B772274F7120953EAFEEBFF1229D4
:10510300E580BA74F7120953125275A3A3A3E060A2
:10511300047400800274EB1251465003C2E2F0E0C3
:10512300A2E150051252498011A2E0500D8E828FE8
:1051330083742AF0A374EB1262E6EEFAEFFB1229F2
:105143009180818E828F83A3F0901D92E0A2E22250
:1051530074F6120953EAFEEBFF901D92E0D2E1F0E0
:1051630079011216838E828F83A3E07038122A8707
:10517300E9FAEE240DF508E43FF5097808120E4527
:105183007508017509007808120E451251B9120C01
:1051930087EE2402FCE43FFD1234D7120E73E98E2E
:1051A300828F83A3F08E828F83A3E060067A00F957
:1051B3001229B50263DAEE240BF582E43FF583226C
:1051C30074F71209531251E77004A374EBF0901DA6
:1051D30092E0A2E25003C2E2F0E0A2E150031251D6
:1051E300F80250C7EAFEEBFF79011216898E828F0F
:1051F30083E0642022C2E1F01251FF227A008E8202
:105203008F83A3E0F91229B52274F71209531252BE
:10521300388E828F83A3A3A3A3E06004740080026B
:1052230074EB1251465003C2E2F0E0A2E1500312C4
:10523300524902513DEAFEEBFF79011216897A7554
:105243007B1D122B7722C2E112676AE0A2E4E433EA
:10525300FA1252012274F712095312527574EB12A7
:10526300514B5003C2E2F0E0A2E150031251F802A5
:1052730050C7EAFEEBFF79011216898E828F83A352
:105283002274F712095312529A0250C074F712098A
:105293005312529A0250C7EAFEEBFF7A757B1D1236
:1052A3002B77EEFAEFFB122A0F2274F712095374CD
:1052B300EF120F3BEAFEEBFFEA1262287A657B0BE3
:1052C3001218C9E960568521828522837409F07416
:1052D300011211C074EFF012533374021211C0ECB7
:1052E300125382A3A3E0C0E074041211C0D0E012F1
:1052F300536F640870158E828F83A3A312535BE0F0
:10530300C0E074051211C0D0E0800674051211C00C
:10531300E41260C474061211C01253247411023EC5
:1053230072AA82AB83122AB7AA21AB22122CDF22E4
:10533300125340F583125352FCA3E0F922EE1253A9
:1053430048FB8882222402F8E43FF9E8FAE92212B2
:105353004AB78882F583E02212536A2407F582E470
:1053630038F58322901D34124AB7C8221253732290
:10537300125378E022F08E828F83A3A3A3A3221279
:1053830063541253892212538D22E0F8A3E0F5836C
:105393008882A3A322C082C083122AF9024BDCC0F5
:1053A30082C083901DAF744FF0A3741DF0A3746B80
:1053B300F0A3741DF0901EEE74C3F0A37430F0A339
:1053C3007461F0A37430F0901D9B74A9F0A3742949
:1053D300F0901D98E044010246E0C082C083EAFCDD
:1053E300EBFD7902122A5D024BDC74F61209537449
:1053F300FE120F3B901D9412543B60077A947B1D61
:10540300122A75901D9AE4F090121812543B6020F2
:105413008007AA21AB22122A75901D93E0F9121777
:105423006D8B09A90985218285228312409370E23D
:1054330074020263D7901D34126A2AE8492274F772
:10544300120953E9FA7B00901D93E0F912179702B2
:1054530050C774F712095374F0120F3BEAFCEBFDCB
:10546300E9FE8A828B83E0F8741A1255703434F59E
:1054730083E493C0E074011211C0D0E0F0640B70B8
:105483000DE98A828B83A3F0122ADB02556BE0704D
:105493000302556B640C600302555C741A6E700B47
:1054A30074041211C0E4F0A302555B74041211C01A
:1054B30012581FEA2432125D28C0E074031211C08F
:1054C300D0E012675512118574061211C0121191A2
:1054D3008C828D83A3A3A3A3A3A3A3A3A3126A264E
:1054E300740A1211C0E8F0A3E9125575E054106074
:1054F30009852182852283E48013EC2412125D281E
:10550300F8900B81E0C398852182852283F0E0C067
:10551300E0740C1211C0D0E0F0EC2415125D28C029
:10552300E0740D1211C0D0E0F0EC2416125D28C017
:10553300E0740E1211C0D0E0F0EC2417125D28C005
:10554300E0740F1211C0D0E0125575A3E05401604E
:105553000874011211C07411F074021211C0EEF03C
:105563007401120EFD122CDF7410023E7228F582B4
:10557300E422F0EC12557E3DF58322240EF582E4FD
:1055830022C082C083901D9AE06403700479018075
:10559300027900024BDC74F7120953901D9AE01252
:1055A300561474EC28F582741E39F583125AA6C278
:1055B300E7F012561BA3E493FE25E0FCE433FD74ED
:1055C300EC2CF582741E3D125E32EC4D6005EE90BC
:1055D3001D9AF08A828B83E025E0FCE433FDE82CFE
:1055E300F582E93DF583E493FCC4540F25E0F87498
:1055F300A9125570341DF58312543B7005122AC944
:10560300800CEC540F12561B124B34122D590250BE
:10561300C725E0F8E433F92225E0FCE82CF582E421
:1056230039F5832274F212095374FE120F3B890B6E
:105633008A088B091256C61256B7601A1260D1F542
:105643000A7808120E411256D32402125E28120E53
:105653007312565F80031256E5023AC2AA0CEFFB9F
:10566300901D93E0F91217612274F012095374FE2E
:10567300120F3B890B8A0E8B0F1256C6F508125672
:10568300B760271260D1A808EA281243B5850E082F
:10569300850F09F50A7808120E411256D3125E26B9
:1056A300120E7312565F790080051256E5791A744B
:1056B300020234AFFA7B001217558A0C8B0DAF0D23
:1056C300EA4F2274E329F582E43433F583E4932229
:1056D300A80B74041255703434F583E493FC7D00F5
:1056E300EA22852182852283E50BF0791AAA21AB70
:1056F30022122A4522C082C083E9901D930246E00C
:1057030074F612095374FE120F3BEAFEEBFFEA54E0
:105713002070308039A8A8C2AF901D33E014124620
:105723000D8A828B8312580C901D9612581F122AD1
:1057330051852182852283E0641560077A967B1D5B
:10574300122A757A2D7B1D12177FEA4B70C7EF540F
:1057530080700C8016901D96EAF0A3EB12583290DD
:105763001D93E0F912176DEA4B70EAEE5410600BCB
:10577300852182852283742D12583EEEA2E0500BC0
:10578300852182852283742412583EEE5402600BD5
:10579300852182852283742512583EEE5404600BC2
:1057A300852182852283742612583EEE5408600BAD
:1057B300852182852283742812583EEE5440600D61
:1057C30074011211C0125825742C12583EEE5480E5
:1057D300600D74011211C0125825742F12583E9097
:1057E3001D9412543B601BA8A8C2AF901D94124A8B
:1057F30068901D94E4F0A312460DA3EAF0A3E91206
:1058030058327A007B0002543312581022E085216B
:1058130082852283F022A3A3A3A3A3A3EAF0A3EB8D
:10582300F022E412582A22F085218285228322F075
:10583300122A517A967B1D122A7522124359122A73
:105843005122C082C083901D96126494687002EB4B
:10585300697007901D96E4F0A3F0024BDC74F71215
:105863000953EAFEEBFFEA4F700312135FA2AFE4A2
:1058730033F508C2AF8E828F8312543B6028E8242D
:10588300FBFAE934FFFB901D96125E34E86C70025C
:10589300E96D7007901D96E4F0A3F08E828F83E488
:1058A300F0A3F01217F1023CDEC082C083901DBD4D
:1058B30074BDF0A3742AF0A374CFF0A3742AF0A3E9
:1058C30074D5F0A3742AF0A3748BF0A37429F0A306
:1058D30074DBF0A3742AF0A37485F0A37429F0A3F6
:1058E3007491F0A37429F0901DCB740BF0A3742B67
:1058F300F0A374E1F0A3742AF0A374E7F0A3742A6D
:10590300F0A374F3F0A3742AF0A374EDF0A3742A44
:10591300F0901DBCE40246E0C082C083900B6EE0B1
:1059230064FE7003A3E0F470097C657D0B1218CF4D
:10593300801C8A828B83A3A3A3A3A3A3A3A3740220
:10594300F0900B6E126A268A828B83124CBC024B38
:10595300DCC082C083900B78C3E094FEA3E094FF85
:105963004004790380027902024BDCC082C08312B7
:105973005AAF8C828D83125A6468703974026870CE
:105983001C8A828B831259BDE06870298A828B83BB
:10599300A31259BDA3E068701C7901801A740368CF
:1059A3007013EC2405FC50010DEA2405FA50010B99
:1059B3001218D580027900024BDCA3A3A3A3A3E0B2
:1059C300F88C828D83A3A3A3A3A32274F612095395
:1059D3007E00740A1211C0E0125A58FF8A828B8328
:1059E300A3A3A3A3A3A3A3A3E06F706474026F7024
:1059F3004E8A828B83C082C08388828983A3A3A3B8
:105A0300A3A3E0F50888828983A3A3A3A3A3A3E0A8
:105A1300FBAA08D083D082E06A7003A3E06B7030E6
:105A230088828983A3A3A3E0FA88828983A3A3A39B
:105A3300A3E0F9EA6C7002E96D70157E01801174C0
:105A4300036F700CE82405FCE439FD1218D5E9FE58
:105A5300EEF90263DAF8A3E0F98882F583125A6457
:105A630022A3E01313543F540322C082C0838A82CB
:105A73008B83A3A3A3A3A3A3A3A3E06402701690A1
:105A83000B6E125AA6687003A3E069700479018053
:105A93000F7900800BEAFCEBFD7A657B0B1218C9CA
:105AA300024BDC126A2A8A828B83E0228A828B83EE
:105AB300125A64F82274F012095374FC120F3BE972
:105AC300852182852283F074021211C0ECF0A3EDCC
:105AD300F08A0A8B0B75080074021211C0E02408C7
:105AE300125D28C0E074011211C0D0E0125D78A2EB
:105AF300E75008750EFF750FFF800A900B74E0F5F1
:105B03000EA3E0F50F852182852283E0C2E7125DB3
:105B13007D54206007125D4A74088004125D4AE4D4
:105B2300125D7D54046007125D5574808005125D1B
