:020000040000FA
:060000000210990205F157
:03001B000206AD2D
:03002B00020E5C66
:03004300020D2A81
:030053000205267D
:030073000207027F
:100083000205850100F0FF0700080000FFFF0000E4
:100093000504000000030001FF1E102700000020DC
:1000A300FD000206FFFF1E7D190000000000000096
:1000B30000000000000000E80300000000E8030067
:1000C3000000000F0000000F0000000104010C00FD
:1000D30002028084019A8401040000C21800000017
:1000E300E8030000FFFF131988130000E803000072
:1000F30064006400B801A0BB0D00A0BB0D000202A8
:1001030002070401071E02051E020A0A010108086C
:100113000103B80B02803E0102FEFFE8030A05005B
:1001230001FFFF020A011401E002000000050301C0
:10013300010F030003000300030003000300030097
:100143000300030005000A00140028004F009E006E
:100153000000572B000000002B2A00000000FF00C6
:100163000000FF001210E560461210A9603DE96827
:100173007008F618F618F618F622748067F712015D
:100183009B090909748067F7221210A9601D1210D8
:10019300E57005191919801A120FBD701F120FA9E6
:1001A300C37003E667331919194007181818220892
:1001B300080874FFF618F618F618F622120FA9604D
:1001C30017121146702192F012115870195017200E
:1001D300F014080808090909E7F61819E7F61819C9
:1001E300E7F61819E7F62212115860E6E869701F5E
:1001F3000808E62480F608E436F618547FB47F0C2A
:10020300E654806007F6E418F618F622181822E977
:10021300C6CC08C6CD08C6CE08C6CFC0E0E8C0E04D
:10022300EAC0E0EBC0E009E9F809E7FA09E7FBE611
:10023300F918E6F8C3EC98ED99EE9AEBC2E7F5F0FE
:10024300EFC2E795F0500E600CEBCFFBEACEFAE974
:10025300CDF9E8CCF8EAA2E7D2E7FAEB33FB13F5E2
:10026300F0EEA2E7D2E7FEEF33FFC5F013A2E730CB
:10027300E601B313C5F0C3C0E0C0F07F00C39BFB2E
:10028300605E9418600F401D14601AD0E023F9D00B
:10029300E0F802036D8AF0E9486003D2F0E4AFF0BE
:1002A300FAF9F8803BEB30E40D89F0EA6003D2F011
:1002B300E4AFF0F9CAF8EB30E30D88F0EF6002D257
:1002C300F0AFF0E4CAC9F8EB54076014FBC3EA13B8
:1002D300FAE913F9E813F8EF135002D2E0FFDBED6C
:1002E300D0E0C0E030E739C3E49FFFF5F0EC98FCC1
:1002F30042F0ED99FD42F0EE9AFE42F0D0E0F9D0E3
:10030300E0F8E5F0607AE923F9EE20E742D80280CD
:1003130067C3EF33FFEC33FCED33FDEE33FE80EACE
:10032300EC28FCED39FDEE3AFED0E023F9D0E0F8FD
:100333004002801BC3EE13FEED13FDEC13FCEF1321
:100343005002D2E0FF08B800067F7F74FF802EEFD3
:100353003350178CF020F00260100CBC000C0DBD64
:1003630000080EBE000408E860DFE933E813FFEE7F
:100373002313FE4F4D4C8008E95480FFE4FEFDFC3F
:10038300EE33EF33F47004FCFD7E80D0E0FBD0E06D
:10039300FAD0E0F8D0E0CFC618CEC618CDC618CC38
:1003A300C6F922001210A9604F1210E56012E7543B
:1003B3008066F6120FBD7011121146703B090909D0
:1003C300F4F618F618F618F622120FA97015121182
:1003D3005808080860EAE6447FF618768018E4F6C1
:1003E30018F62212115860161211467012E4F6081C
:1003F300F608F608E65480F609090918181822EADF
:10040300C0E0EBC0E0ECC0E0EDC0E0E687F0A4FBA9
:10041300ACF008E687F0A42CFCE435F0FA1809E602
:1004230087F0A42C4B60027401CA35F0FCE433FB63
:1004330009E687F0D2F7A42CCB35F0FC1908E68740
:10044300F0A42BCC35F0FBE433FD0819E687F0D29A
:10045300E7A42C4ACB35F0CD3400FC09E687F0D273
:10046300E7A42DCC35F0FDE433FA0918E687F0D282
:10047300F7A42CCD35F0CA3400FC08E687F0D2E7A8
:10048300D2F7A42ACC35F07A7E20E70B0ACB33CB04
:10049300CD33CDCC33CC33CB3350147004ED30E0BB
:1004A3000ED2F1E4CD3DCDCC3CCC3B5005DA05C2B8
:1004B300F1EB547FC63308E63392F0FBE73309E7E9
:1004C30033C39A502D2B70190C0D4C4D7015180613
:1004D300E608C333700D20F10AA2F013F6E4188086
:1004E3000B4024E4F630F002768018F618F618F67E
:1004F3008024D33B14501074FFA2F013F6187680B7
:10050300E418F618F6800FA2F013F618E63303F694
:1005130018ECF618EDF6D0E0FDD0E0FCD0E0FBD00F
:10052300E0FA22C0E074F11209B4A2AFE433F50992
:10053300D2AF85A708AFA1EF5508FE74105E600621
:1005430012141975A1EF74085E600812141F75A1C7
:10055300F78024EFA2E092F0E508A2E082F05017C2
:10056300906198E0F8900B46E0C398A2D265D0332F
:100573005002E8F075A1FEE509A2E092AF7F020206
:100583000A13C0E074F21209B4A2AFE433FED2AF8F
:100593009061A4E0F8759B00E591585408600875D4
:1005A30091F712146D8023E59158541060087591EA
:1005B300EF1214738014E591A2E092F0E8A2E082B6
:1005C300F05007E0C2E0F01215BD9061A3E0F8E53A
:1005D300E9585404600E12159375E9FB906193E09A
:1005E300A2E640F2EEA2E092AF7F01020A13C0E05E
:1005F30074F21209B4A2AFE433FED2AF9061A5E066
:10060300F8E5BF585404600675BFFB1215D580D4B6
:10061300C3E498F8E499F91206548026C3E49AFADD
:10062300E49BFBE920E7E9120654E498F8E499F91E
:1006330022C3E498F8E499F9120654E498F8E4998B
:10064300F9C3E49AFAE49BFB22EB20E7CFE920E726
:10065300E0B90010BB0008E88AF084F8AAF022E4AD
:10066300FBC8FA22EB70227B10C833C8C933C933E5
:100673005007C39AC3DBF280069A50012ADBEAC80B
:1006830033F4C8C933F4C9FA2275F008E4C833C88F
:10069300C933C933C99AC99B5004C92AC93BD5F088
:1006A300ECFBC833F4C8E4C9FA22C0E0C0D0E8C008
:1006B300E0E9C0E0C082C083A8F9E8C0E0900AB3D3
:1006C300E0F8743228F582E4340AF583D0E0F09040
:1006D3000AB2E0F8A3E0687006E595900AB5F090D9
:1006E3000AB3E004F0C394804002E4F0A374C6F0BC
:1006F300D083D082D0E0F9D0E0F8D0D0D0E032C0BF
:10070300E0C0D0E8C0E0E9C0E0C082C083900B360F
:10071300E0F8A3E0687008539AF7A374018022C23B
:10072300EA900B36E0F8740128F074B628F582E4F9
:10073300340AF583E0F5F9900B36E0C39480400268
:10074300E4F080AC12079230F0391207D7803412EC
:10075300079220F01430E72B74FFFCFBFA747F80C0
:1007630022E4FCFBFA7480801AB48008BC00F2BB5C
:1007730000EF800F50EBF9E4C39AFAE49BFBE49C8F
:10078300FCE499C6CC18C6CB18C6CA18C6F922E42D
:10079300C9C608CAC608CBC6D3330308CCC633922E
:1007A300F0C3947F402E94184019C9B90704CACBEB
:1007B300CC225025C309CA33CACB33CBCC33CC3379
:1007C300D9F422F4600DC9CCC313CB13CBCA13CA1B
:1007D300D9F6CC22E4FCFBFA2214FCFBFA2208082B
:1007E30008EAC0E0EBC0E086F0E7A4FA180986F057
:1007F300E7A42AFA180986F0E7A42AFA180986F06A
:10080300E7A42AFA1986F0E7A4FBE5F02AFA190807
:1008130086F0E7A42BFBE5F03AFA190886F0E7A483
:100823002BFBE5F03AFA18180986F0E7A4C5F02B7C
:10083300FBE43AFA1908E7C5F0C6A426F6E5F03B4F
:10084300FBE43AFA1886F0E7A4F6E5F00826F6E4A6
:100853003B08F6E43A08F6D0E0FBD0E0FA220808B9
:1008630008E630E711120F59120879080808C64440
:1008730080C618181822181818E9799EC608CAC61F
:1008830008CBC608CCC6C370207996CACBCC7019E6
:10089300798ECBCC70137986CC700EF9802ACA334B
:1008A300CACB33CBCC33CC331930E7F2CCCBCA33FE
:1008B30050147004EA30E00DE4CA3ACACB3BCBCC07
:1008C3003CCC500209C3E913C6CC182313C6CB187A
:1008D300C6CA18C6F922E4CFC0E0E4CEC0E0E4CD36
:1008E300C0E0E4CCC0E075F020E626F608E633F677
:1008F30008E633F608E633F6181818EC33FCED3344
:10090300FDEE33FEEF33FFC3EC9709ED9709EE9746
:1009130009EF97191919400FFFEC97FC09ED97FDA3
:1009230009EE97FE191906D5F0BFECF709EDF709A3
:10093300EEF709EFF7191919D0E0FCD0E0FDD0E08C
:10094300FED0E0FF222521C582C0E0E52234FFC5A9
:1009530083C0E0E521C3958224F810AF0885832284
:100963008582218008858322858221D2AFCEF0A3A0
:10097300E520F0A37808E608F0A3DEFAEFF0A3E59C
:100983008124FAF8E608F0A3E608F0A3E608F0A34A
:100993000808E608F0A3E608F0A315811581D0E066
:1009A300FED0E0F8158115811581E8C0E0EEC0E0C6
:1009B30022C0D02521C582C0E0E52234FFC583C013
:1009C300E0E521C3958224F310AF08858322858255
:1009D300218008858322858221D2AFC8F0A3E9F064
:1009E300A3EAF0A3EBF0A37908E709F0A3D8FAECA4
:1009F300F0A3EDF0A3EEF0A3EFF0A3D0E0F0A3D0CB
:100A0300E0F0A3D0E0F0A3E520F0A3E5F0F0A3220B
:100A1300852283852182E0C0E0A3E0F9A3E0FAA365
:100A2300E0FBA37808E0F608A3DFFAE0FCA3E0FD0F
:100A3300A3E0FEA3E0FFA3E0C0E0A3E0C0E0A3E0E7
:100A4300F5D0A3E0F520A3E0A3F5F010AF0885836C
:100A5300228582218008858322858221D2AFD0829C
:100A6300D083D0E0F8D0E032121131B90003020A8A
:100A7300AAE490050178AF79178002F0A3D8FCD9D6
:100A8300FA7AAF7B1B90008678E279018015E493B4
:100A9300A3AD82AE838A828B83F0A3AA82AB838DBC
:100AA300828E83D8E9D9E77582EB7583E2740412E9
:100AB3000DED7582937583277400120DED75F0109B
:100AC3008E238F248582288583278521828522830F
:100AD300E0CEA3E0CF852882852783EBC9EAC8ED62
:100AE300CBECCAC3E833C8E933C9EA33CAEB33CB27
:100AF300C3EA9EF526EB9FF525B35004AB25AA2642
:100B0300EC33CCED33CDD5F0DAAE23AF2422121083
:100B1300A9601C1210E560171211587007121146D4
:100B23007001D322C0D01211467006D0D0B322C3B5
:100B33002233D0D0501430E0F6C3E7960809E79685
:100B43000809E7960809E796B32220E0D5E6970857
:100B530009E6970809E6970809E697B322D083D0F8
:100B630082ECC0E0EDC0E0E493A3FCE493A3FDEDCD
:100B73004C600D120C38EC24FFFCED34FFFD80EFCC
:100B8300E493A3FCE493A3FDED4C600D120CD5ECB0
:100B930024FFFCED34FFFD80EFD0E0FDD0E0FCE46A
:100BA30093A3C0E0E493C0E022D083D082E9C0E005
:100BB300E493A3C386F0C5F095F0F908E493A38604
:100BC300F0C5F095F0700BE493A3C3994005E904D5
:100BD3008002A3E475F002A42582F582E5F0358353
:100BE300F583D0E0F9E493A3C0E0E493C0E0228569
:100BF3002283852182E0A3FEE0A3F5207808E0A309
:100C0300F608DFFAE0A3FFE0A3C0E0E0A3C0E0E062
:100C1300A3C0E0E0A3C0E0E0A3C0E010AF0885827A
:100C2300218583228008858221858322D2AFD083C8
:100C3300D082020DF3C0E0C3E49396087401939647
:100C430018400FE4936670080874019366187000E7
:100C53007019A3A3C3E49396087401939618A3A3EE
:100C6300400DD0E0D0E0D0E0020B9CA3A3A3A3A34C
:100C7300A3D0E0227404800474028000CCC0E0EDB1
:100C8300C0E0E521C39CCCAD2250011D10AF068C02
:100C9300218D2280068C218D22D2AF120D6FD0E0E0
:100CA300FDD0E0FC2274028000CCC0E0EDC0E0E5A2
:100CB30021C39CCCAD2250011D10AF068C218D2287
:100CC30080068C218D22D2AF120D4DD0E0FDD0E0F5
:100CD300FC22C0E0C0F088F0E49366700808740159
:100CE3009366187000A8F0A3A3700BD0F0D0E0D0E7
:100CF300E0D0E0020B9CA3A3D0F0D0E022D083D0BD
:100D030082CCC0E0E493A36006120D901470FAE461
:100D130093A36006120EEF1470FAD0E0FCE493A3E1
:100D2300C0E0E493C0E022C0E074F21209B4A2AFC1
:100D3300E433FED2AFC2C0E5D1A2E4500312137D67
:100D4300EEA2E092AF7F01020A13CAC0E0E493A3CC
:100D5300C582CCC582C583CDC583F0A3C582CCC56E
:100D630082C583CDC583DAE5D0E0CA22CAC0E0E0FC
:100D7300A3C582CCC582C583CDC583F0A3C582CC70
:100D8300C582C583CDC583DAE6D0E0CA22C0E0E4DC
:100D930093A3D39C5010E493A3C39C400AD0E0D008
:100DA300E0D0E0020D1DA3A3A3D0E022C008C3E05E
:100DB30096F50808A3E096420808A3E096420808BF
:100DC300A3E09645087001D3D008227009080808EB
:100DD300226016181818C6C333C608C633C608C619
:100DE30033C608C633C6D5E0EA22C09FF59FE47335
:100DF300D09F22D083D082C09FE493C0E07401933C
:100E0300C0E0740293F59F227404800A7403800681
:100E1300740280027401C0E0F404120E41D0E012A7
:100E230010F42200C0D0252110AF08F521500C0585
:100E3300228008F52150020522D2AFD0D0222521ED
:100E4300F58210AF08F521400C15228008F52140EA
:100E5300021522D2AF85228322C0E0C0D0E8C0E0D1
:100E6300A8A8D2AFC2C7E8A2E792AFD0E0F8D0D02B
:100E7300D0E032BB0102E722C082C08389828A8329
:100E8300BB0003E08002E493D083D0822260160883
:100E93000808C6C313C618C613C618C613C618C691
:100EA30013C6D5E0EA222521F8E43522F9222521CB
:100EB300FAE43522FB222521FCE43522FD22C3E09E
:100EC300C696F608A3E0C696F608A3E0C696F6080B
:100ED300A3E0C696F622252110AF08F521400C1594
:100EE300228008F52140021522D2AF22C0E0E4930C
:100EF300A36C7009D0E0D0E0D0E0020D1DA3A3D015
:100F0300E022E76670100809E766700A0809E766D9
:100F130070040809E76622C3E09608A3E09608A3D5
:100F2300E09608A3E096A2D265D03322C3E79608E1
:100F330009E7960809E7960809E796A2D265D03330
:100F430022E066701008A3E066700A08A3E06670EA
:100F53000408A3E06622181818E4C396F608E4967A
:100F6300F608E496F608E496F622C3E4939608742A
:100F73000193960874029396087403939622C3E030
:100F830096F008A3E096F008A3E096F008A3E09695
:100F9300F022C3E697F60809E697F60809E697F6FE
:100FA3000809E697F622191919E70947097009E7AD
:100FB30027097005E733F4220922181818E60846B2
:100FC300087009E626087005E633F4220822E026B5
:100FD300F008A3E036F008A3E036F008A3E036F00B
:100FE30022E026F608A3E036F608A3E036F608A3C7
:100FF300E036F622E627F60809E637F60809E6376B
:10100300F60809E637F622700422600D18C6C333CA
:10101300C608C633C6D5E0F41822E657F60809E633
:1010230057F60809E657F60809E657F622E056F0A0
:1010330008A3E056F008A3E056F008A3E056F02218
:10104300E647F60809E647F60809E647F60809E61B
:1010530047F622E056F608A3E056F608A3E056F654
:1010630008A3E056F622C6F4C608C6F4C608C6F4BA
:10107300C608C6F4C622C3E09608A3E09608A3E018
:101083009608A3E09622C3E7960809E7960809E7BE
:10109300960809E7962275D00075813F7521017581
:1010A300220500020A6BE6084608C31346083360AC
:1010B30002E633F422600C08C6C313C618C613C66F
:1010C300D5E0F422E0F608A3E0F608A3E0F608A3CF
:1010D300E0F622E6F008A3E6F008A3E6F008A3E6AC
:1010E300F022E7094709C3134709336002E733F4E2
:1010F30022CAC0E0E6F0A308DAFAD0E0FA22E8F068
:10110300A3E9F0A3EAF0A3EBF022E0FAA3E0FBA348
:10111300E0FCA3E0FD22EAF0A3EBF0A3ECF0A3EDE7
:10112300F022E0F8A3E0F9A3E0FAA3E0FB22E5C78D
:1011330054F84401F5C77901222521F582E43522CB
:10114300F58322E72719471947194722C2AF75D6F6
:101153009F02000022E62618461846184622120D62
:10116300F61AD402120DF663D702120DF6CAD9028B
:10117300120DF676DA02120DF6A6DA02120DF60653
:10118300DB02120DF69ADB02120DF64BDC02120D96
:10119300F69CDC02120DF6E0DC02120DF67ADD029B
:1011A300120DF6EADD02120DF619DE02120DF61F1C
:1011B300DF02120DF649DF02120DF69DDF02120D5A
:1011C300F671E002120DF69FE202120DF64DE302F4
:1011D300120DF6BAE502120DF63FE602120DF642C3
:1011E300E902120DF676EB02120DF6B2EB02120DC6
:1011F300F60BED02120DF61EED02120DF65BED027B
:10120300120DF624EF02120DF6DBF002120DF65763
:10121300F102120DF68AF102120DF6B8F102120D67
:10122300F6F6F102120DF633F402120DF652F40241
:10123300120DF697F402120DF62DF502120DF67942
:10124300F502120DF60DF602120DF6E6F602120D78
:10125300F642F702120DF6A0F702120DF613F8028A
:10126300120DF657F802120DF6AFF802120DF6D171
:10127300F802120DF661F902120DF6F2F902120DDF
:10128300F63EFA02120DF66AFA02120DF6ABFA02F4
:10129300120DF641FC02120DF62DFD02120DF60899
:1012A300FE02120DF629D304120DF65CD304120DBF
:1012B300F67CD304120DF6A3D304120DF6D0D40496
:1012C300120DF6F1D404120DF6B9D504120DF60E73
:1012D300ED04120DF613ED04120DF646ED04120D96
:1012E300F6EFE004120DF6B6E104120DF6C8E104C0
:1012F300120DF698ED04120DF6A9ED04120DF6C3C6
:10130300ED04120DF6FB7F00120DF6EBFF03120D39
:10131300F618EB04120DF628EB04120DF63DEB0460
:10132300120DF686EB04120DF6E2FE02120DF666BE
:10133300FF02120DF6CEFF02120DF636EE04120D69
:10134300F69CCC04120DF6AACC04120DF623CD04A0
:10135300120DF6FCCD04120DF6BFCF04120DF6D21A
:10136300ED04120DF696AE04120DF602AF04120D43
:10137300F6A5AF04120DF61AB104120DF681B104ED
:10138300120DF6CEB104120DF627B204120DF6AB10
:10139300B204120DF6E0B204120DF6FEB204120D01
:1013A300F684B304120DF607B404120DF614B40454
:1013B300120DF6757A00120DF6A17A00120DF60BD6
:1013C3007D00120DF64B7D00120DF6877D00120D88
:1013D300F69B7D00120DF6B47D00120DF6A67E007D
:1013E300120DF6597F00120DF66D7F00120DF6D027
:1013F300E404120DF6F4E404120DF60DE504120DE7
:10140300F64BE504120DF67BE504120DF6A8E50490
:10141300120DF60EE604120DF611E604120DF61B7C
:10142300E604120DF628E604120DF60ADC04120D8A
:10143300F62ADC04120DF669DC04120DF687DC04CF
:10144300120DF6A2DC04120DF608DD04120DF614DB
:10145300DD04120DF671DD04120DF680DD04120DAC
:10146300F6A4DD04120DF665DE04120DF672DE0439
:10147300120DF683DE04120DF6817F00120DF6C9FC
:101483007F00120DF6F57F00120DF675B404120DF0
:10149300F6CFB504120DF6DDB504120DF6F0B50462
:1014A300120DF605B604120DF61AB604120DF62D3A
:1014B300B604120DF6A9B604120DF60EB704120DFA
:1014C300F6A4B704120DF67DB804120DF68DB80418
:1014D300120DF69CB804120DF67FEA04120DF6A362
:1014E300EA04120DF6CBEA04120DF6F3EA04120D28
:1014F300F696FD03120DF6BDFD03120DF6DBFD039B
:10150300120DF64AFE03120DF637D904120DF650EA
:10151300D904120DF65CD904120DF670D904120D1C
:10152300F68ED904120DF698D904120DF6A2D90439
:10153300120DF6B5D904120DF63BDA04120DF6B00E
:10154300DA04120DF6DFDA04120DF62DDB04120DA8
:10155300F67CDB04120DF697DB04120DF6A1DB0417
:10156300120DF6B2DB04120DF6F5DB04120DF6BB19
:10157300EC04120DF6179504120DF6439504120DA3
:10158300F6609504120DF6739504120DF68E95040C
:10159300120DF6E89504120DF6169604120DF626B2
:1015A3009A04120DF6849B04120DF6B69B04120DD9
:1015B300F6199C04120DF6859D04120DF6AD9D04DB
:1015C300120DF6C29D04120DF6D29D04120DF612F1
:1015D3009E04120DF6549E04120DF6649E04120D21
:1015E300F672E704120DF68CE704120DF6B4E70465
:1015F300120DF6CDE704120DF6F1E704120DF60F06
:10160300E804120DF626E804120DF654E804120D50
:10161300F66FE804120DF654ED04120DF613C90427
:10162300120DF623C904120DF628CA04120DF65A38
:10163300CA04120DF68ACA04120DF6ADCA04120DBD
:10164300F6C4CA04120DF6FECA04120DF663CB04E7
:10165300120DF6A5CB04120DF6ECCB04120DF61900
:10166300CC04120DF644CC04120DF6A0FE01120DAB
:10167300F6B2FE01120DF6C6FF01120DF6C9FF0107
:10168300120DF6A2E904120DF6D8E904120DF61AAA
:10169300EA04120DF62AEA04120DF66EEA04120D9C
:1016A300F6A4A704120DF6E7A704120DF64CA8043E
:1016B300120DF66BA804120DF60DA904120DF61601
:1016C300A904120DF667A904120DF690A904120DD0
:1016D300F69DA904120DF60FAA04120DF69DAA0495
:1016E300120DF6E2AA04120DF61BAB04120DF680DE
:1016F300AB04120DF6A9AB04120DF620AC04120DC7
:10170300F66FAC04120DF6ACAC04120DF6E1AC04AA
:10171300120DF6F3AC04120DF605AD04120DF6240A
:10172300AD04120DF62DAD04120DF6E9AD04120D44
:10173300F62CAE04120DF66AAE04120DF604EC0498
:10174300120DF632E604120DF6B1DE04120DF6E7C1
:10175300DE04120DF62FDF04120DF688E004120DDD
:10176300F666DE03120DF68CDF03120DF6C8DF03F7
:10177300120DF686E103120DF6B4E103120DF61E07
:10178300E403120DF65EE403120DF600E603120DF8
:10179300F696E603120DF6F0E603120DF680E70364
:1017A300120DF6C4E703120DF606E803120DF66BED
:1017B300E903120DF6EBEA03120DF62CED03120DFD
:1017C300F65AED03120DF686ED03120DF68FED03B7
:1017D300120DF6ECED03120DF685EE03120DF69CD9
:1017E300F103120DF622F203120DF6E7FF02120DBA
:1017F300F67FC104120DF695C104120DF639C20429
:10180300120DF678C204120DF695C204120DF6C637
:10181300C204120DF613C304120DF647C304120DCE
:10182300F682C304120DF677C504120DF6A2E8047E
:10183300120DF601E904120DF63FE904120DF680CC
:10184300E904120DF699C101120DF6A5C101120D9D
:10185300F607C201120DF611C201120DF6A0C20164
:10186300120DF6DCC201120DF6D5C301120DF632CC
:10187300C401120DF6C0C401120DF611C501120DFB
:10188300F691C501120DF653C701120DF658C901A1
:10189300120DF652CA01120DF684CB01120DF6D6C3
:1018A300CD01120DF619CF01120DF6BECF01120DA7
:1018B300F66CD401120DF662D501120DF6F8D501BE
:1018C300120DF61DD601120DF6BAD601120DF6D77A
:1018D300D601120DF6F7D601120DF665D701120DDA
:1018E300F682D701120DF6B0D701120DF648D901D1
:1018F300120DF669D901120DF60FDA01120DF65722
:10190300DA01120DF6B5DA01120DF658DB01120DEC
:10191300F6BDDB01120DF61CDC01120DF6CEDC0167
:10192300120DF63DDD01120DF678DD01120DF6EC18
:10193300DD01120DF637DF01120DF6C7E001120DBE
:10194300F666E101120DF6A6E301120DF608E401B5
:10195300120DF636E401120DF659E601120DF603E7
:10196300E901120DF616EA01120DF6949E04120D0A
:10197300F69B9F04120DF608A104120DF622A10492
:10198300120DF635A104120DF654A104120DF61D25
:10199300A204120DF682A304120DF640A404120D44
:1019A300F6AAA404120DF675A604120DF684C50456
:1019B300120DF63FC604120DF6A5C604120DF6C6A7
:1019C300C604120DF6A1C704120DF644C903120D85
:1019D300F673C903120DF6EBC903120DF6FACA0327
:1019E300120DF656CB03120DF6C3CC03120DF6DF20
:1019F300CC03120DF631CD03120DF66FCD03120D8C
:101A0300F682CD03120DF6DACD03120DF69CCE034A
:101A1300120DF618CF03120DF64FCF03120DF687F2
:101A2300CF03120DF60FD103120DF6EED103120DF3
:101A3300F63CD303120DF61FD403120DF6ABD403F9
:101A4300120DF6EBD403120DF60AD503120DF6555B
:101A5300D503120DF675D503120DF60ED603120D2E
:101A6300F694D603120DF6EFD603120DF62FD70315
:101A7300120DF6C5D903120DF6DEDA03120DF624A4
:101A8300DB03120DF619DC03120DF641DC03120D14
:101A9300F644DC03120DF64EDC03120DF66ADC038A
:101AA300120DF6E4DC03120DF61DDD03120DF649EB
:101AB300DD03120DF670DD03120DF694DD03120D36
:101AC300F605DE03120DF618DE03120DF647DE03EC
:101AD300120DF68FEB04120DF69BEB04120DF6CFED
:101AE300EB04120DF6F87F00120DF615B303120D79
:101AF300F638B303120DF685B403120DF6CEB40314
:101B0300120DF63AB503120DF698B503120DF69BB6
:101B1300B503120DF6ECB503120DF661B603120D03
:101B2300F6E6B603120DF6E9B603120DF66AB7032D
:101B3300120DF6ABB703120DF697BB03120DF64168
:101B4300BD03120DF691BD03120DF618C103120D5C
:101B5300F64BC203120DF6C5C303120DF662C4039E
:101B6300120DF64DC503120DF6A2C703120DF6377B
:101B7300EE01120DF6E1EE01120DF64CEF01120D1E
:101B8300F667EF01120DF6ECEF01120DF646F001C8
:101B9300120DF68DF001120DF6F4F001120DF6E4BC
:101BA3009004120DF6A2F301120DF62AF401120DA0
:101BB300F633F601120DF6E0F601120DF66ED302BE
:101BC300120DF655F801120DF610FA01120DF6A8D2
:101BD300FB01120DF63BFC01120DF661FD01120D26
:101BE300F6008003120DF6638003120DF6AB80033B
:101BF300120DF6EF8003120DF64A8103120DF6A7BC
:101C03008103120DF6E28103120DF6648203120DB5
:101C1300F661D202120DF63C8403120DF6BC840366
:101C2300120DF6178503120DF6318503120DF652C8
:101C33008503120DF6AC8503120DF6288803120DE9
:101C4300F6478803120DF6378903120DF66A8A03E5
:101C5300120DF6E98A03120DF6258B03120DF69485
:101C63008B03120DF6498C03120DF6218E03120D10
:101C7300F6288F03120DF6A09003120DF696920329
:101C8300120DF60C9503120DF6E69603120DF6A748
:101C93009703120DF61F9803120DF6369803120DD3
:101CA300F62D9903120DF6219A03120DF6909A035D
:101CB300120DF645D604120DF69CD704120DF65BF1
:101CC300D804120DF6C3D804120DF604D004120D75
:101CD300F61FD004120DF663D004120DF689D0045A
:101CE300120DF6B0D004120DF6C8D004120DF66A28
:101CF300D104120DF67FD104120DF6A2D204120DF7
:101D0300F6ABD204120DF6B4D204120DF6BDD20412
:101D1300120DF6C7D204120DF6CDB804120DF6D982
:101D2300BC04120DF6DEBC04120DF6E0BC04120D69
:101D3300F65DE304120DF60AEE04120DF65CEC04F4
:101D4300120DF66CEC04120DF647BD04120DF635B8
:101D5300AC02120DF668AC02120DF6D4AC02120DF1
:101D6300F66FAD02120DF60CAE02120DF651AE0275
:101D7300120DF673AE02120DF68CAE02120DF6B210
:101D8300AE02120DF6D4AE02120DF612AF02120D10
:101D9300F656AF02120DF678AF02120DF6DAAF0265
:101DA300120DF6A1B002120DF658B102120DF6CAC9
:101DB300B102120DF695B202120DF6E8B202120D3F
:101DC300F64EB302120DF688B302120DF6DAB30221
:101DD300120DF648B402120DF6B3B402120DF6B6A4
:101DE300B402120DF637B502120DF6CEB502120D7E
:101DF300F64EB602120DF66DB602120DF6D1B7020B
:101E0300120DF6DEB702120DF6EAB802120DF6F75E
:101E1300B802120DF600B902120DF6D8BA02120D6D
:101E2300F6F2BB02120DF66BBC02120DF6DDBC021C
:101E3300120DF6FFBC02120DF693BD02120DF667EA
:101E4300BF02120DF63EC302120DF652C302120D6B
:101E5300F662C302120DF66CC302120DF675C302CD
:101E6300120DF67EC302120DF688C302120DF6B5EB
:101E7300C302120DF6DEC302120DF6E9C302120D00
:101E8300F60DC402120DF631C402120DF69BC40204
:101E9300120DF6E1C402120DF6FEC402120DF67B1A
:101EA300C502120DF6B2C502120DF6F1C502120DEE
:101EB300F63EC602120DF6C4C602120DF692C80211
:101EC300120DF615C902120DF6F9C902120DF660CC
:101ED300CC02120DF6B9CC02120DF603CD02120D8F
:101EE300F65ECE02120DF693CE02120DF6E5CE0289
:101EF300120DF69ACF02120DF649D002120DF68694
:101F0300D002120DF61BD102120DF687D102120D6B
:101F1300F6B82D00120DF6EA2D00120DF6182E005C
:101F2300120DF6EE2F00120DF6CE3000120DF6262E
:101F33003100120DF6613200120DF6AD3200120DB2
:101F4300F6D63500120DF6C93800120DF6193A000F
:101F5300120DF6AF3A00120DF6BB3A00120DF6ED74
:101F63003A00120DF6703C00120DF6213E00120DE0
:101F7300F6B53E00120DF6F83E00120DF6763F0060
:101F8300120DF6933F00120DF6C33F00120DF6F843
:101F93003F00120DF6C84000120DF6714100120DFC
:101FA300F6F74300120DF6174500120DF602460030
:101FB300120DF6844600120DF6B84A00120DF6F51E
:101FC3004A00120DF64D4B00120DF6804B00120D18
:101FD300F6EA4B00120DF6204C00120DF6AB4C0046
:101FE300120DF6034D00120DF6DA4D00120DF693A5
:101FF3004E00120DF62E4F00120DF6365200120D42
:10200300F6525300120DF6F55600120DF6E957007D
:10201300120DF6EC5700120DF61B5800120DF621A7
:102023005A00120DF6FA5A00120DF63D5B00120D1E
:10203300F6935C00120DF6D25C00120DF65B5D00A8
:10204300120DF68F5D00120DF6545E00120DF66C44
:102053006000120DF6DD6000120DF61D6100120D19
:10206300F6AB6100120DF6CD6200120DF68F630020
:10207300120DF6966500120DF6AE6500120DF6C24E
:102083006500120DF6FA6500120DF6286600120DB2
:10209300F6A76700120DF6CC6800120DF629690049
:1020A300120DF6DB6900120DF6026A00120DF6C975
:1020B3006A00120DF6616B00120DF6876D00120DAA
:1020C300F6BC6D00120DF61F6E00120DF64E6F007A
:1020D300120DF6F66F00120DF6277000120DF63F83
:1020E3007000120DF6CE7000120DF6827300120D01
:1020F300F65A7500120DF6767500120DF6927500FC
:10210300120DF6607600120DF6537A00120DF6A248
:102113008401120DF6D48401120DF6C38801120D49
:10212300F60F8901120DF6558901120DF6F7890193
:10213300120DF6538A01120DF6988A01120DF6DF7D
:102143008B01120DF6F38C01120DF6E29001120DC4
:10215300F6669101120DF6739201120DF6CF9201FC
:10216300120DF6BF9401120DF6349501120DF63ED1
:102173009501120DF64B9501120DF6769501120D90
:10218300F65D9601120DF6079701120DF68597017C
:10219300120DF6A59701120DF6CE9701120DF6F06A
:1021A3009701120DF6509A01120DF6169B01120DAE
:1021B300F65B9B01120DF6D89B01120DF6899C016B
:1021C300120DF6BB9C01120DF6019D01120DF63D99
:1021D3009D01120DF68D9D01120DF6E19D01120D6B
:1021E300F6379E01120DF6839E01120DF6F09E0145
:1021F300120DF66B9F01120DF636A101120DF63684
:10220300A201120DF65BA301120DF69AA601120D9F
:10221300F6ADA901120DF66AAA01120DF6AEAA01D6
:10222300120DF65EAC01120DF672AC01120DF67CC6
:10223300AC01120DF686AC01120DF692AC01120D33
:10224300F6AEAC01120DF659AD01120DF698AD01C3
:10225300120DF6A2AD01120DF6ACAD01120DF61C76
:10226300AE01120DF667AE01120DF67CAF01120D31
:10227300F6D8AF01120DF659B001120DF618B101DF
:10228300120DF621B201120DF655B301120DF643EC
:10229300B401120DF65BB401120DF6B6B401120DC2
:1022A300F6D4B401120DF61CB501120DF643B501B7
:1022B300120DF6DEB501120DF6A4B601120DF636B7
:1022C300B701120DF6B0B701120DF6CAB801120D1F
:1022D300F677B901120DF69FBA01120DF6EFBA01A6
:1022E300120DF653BB01120DF6B5BB01120DF6E349
:1022F300BB01120DF607BC01120DF63CBC01120D19
:10230300F66DBC01120DF6A0BC01120DF6C0BC01A6
:10231300120DF628BD01120DF61CBE01120DF67743
:10232300BE01120DF6A0BE01120DF628BF01120D5B
:10233300F6ABBF01120DF6D6BF01120DF6BBC001FD
:10234300120DF681F203120DF6B9F203120DF6DA4D
:10235300F203120DF61CF303120DF67EF303120DB6
:10236300F688F303120DF698F303120DF6D3F30375
:10237300120DF6B3F703120DF6A0F903120DF6864C
:10238300FB03120DF61DFC03120DF6BFFC03120D29
:10239300F6248102120DF6A28102120DF6FE8102CD
:1023A300120DF6498202120DF6648202120DF68FA7
:1023B3008202120DF6AC8202120DF6B88202120DE1
:1023C300F64F8402120DF6688402120DF6ED8402B4
:1023D300120DF6008502120DF61F8502120DF6C3CB
:1023E3008502120DF6448702120DF6F78802120DCC
:1023F300F68D8902120DF6908902120DF6008A02FB
:10240300120DF61E8A02120DF6B58A02120DF6FDA2
:102413008A02120DF6008B02120DF6C68B02120D04
:10242300F6338C02120DF6598C02120DF6E48C026F
:10243300120DF6028D02120DF6488D02120DF6FCF6
:102443008D02120DF6468E02120DF6758E02120DD6
:10245300F6D28E02120DF6078F02120DF6338F029B
:10246300120DF6418F02120DF68E8F02120DF6FE3B
:102473008F02120DF6479002120DF6939002120D81
:10248300F6BF9002120DF6CA9002120DF6E8900202
:10249300120DF6D39102120DF6DD9102120DF6180C
:1024A3009202120DF6289202120DF6319202120DCB
:1024B300F6859202120DF6999202120DF6C8930256
:1024C300120DF6DD9302120DF66B9402120DF6B0A7
:1024D3009402120DF63C9502120DF6479502120D69
:1024E300F6899602120DF6A49602120DF6F09602E4
:1024F300120DF65F9702120DF6989702120DF6B2BF
:102503009702120DF6F49702120DF6C49A02120DF9
:10251300F6719B02120DF6DE9B02120DF61E9E0251
:10252300120DF6369E02120DF6399E02120DF64575
:102533009E02120DF6599E02120DF6619E02120DB5
:10254300F6949E02120DF6969F02120DF61DA0023E
:10255300120DF68DA002120DF60FA102120DF6D088
:10256300A102120DF6EFA102120DF690A202120DB6
:10257300F6EDA202120DF6F0A202120DF664A3020A
:10258300120DF6B3A402120DF6B9A502120DF6440C
:10259300A602120DF65FA702120DF627A802120D6E
:1025A300F658A802120DF67BA802120DF684A802B3
:1025B300120DF6B3A802120DF643A902120DF6F995
:1025C300A902120DF66EAA02120DF615AB02120D38
:1025D300F68AAB02120DF6C1AB02120DF6FFAB0287
:1025E300120DF6DCD202120DF6419004120DF641E3
:1025F3008F04120DF65A8E04120DF64A8C04120D36
:10260300F6588B04120DF6F68A04120DF601B30385
:10261300120DF6F7B203120DF68CB203120DF6C0CB
:10262300B003120DF67EB003120DF684F701120DFE
:10263300F696D202120DF682AF03120DF656AF03D1
:10264300120DF62ED202120DF619D202120DF60D4C
:10265300AF03120DF64EAE03120DF63AAB03120D95
:10266300F6FBA803120DF6C8A803120DF66FA80314
:10267300120DF602A803120DF6C1A703120DF6FA06
:10268300A603120DF694A603120DF633A603120D3C
:10269300F6D3A503120DF6AAA403120DF63EA40366
:1026A300120DF696A303120DF691A303120DF685F0
:1026B300A303120DF6B89F03120DF6929F03120D9A
:1026C300F6EED102120DF6D19404120DF69D940488
:1026D300120DF6469404120DF6B49204120DF6068A
:1026E3009204120DF6699104120DF6309F03120D38
:1026F300F6D19E03120DF6929E03120DF65F91041E
:10270300120DF67F9E03120DF6749E03120DF6430F
:102713009E03120DF6309C03120DF6BE8203120DBA
:10272300F6A39B03120DF6F89004120DF65F9B03BC
:10273300120DF6339B03120DF6868A04120DF65919
:102743008A04120DF6268A04120DF6FE8904120D70
:10275300F69F8904120DF67F8904120DF64A890447
:10276300120DF6F68504120DF6DE8304120DF6C87B
:102773008104120DF6488104120DF6F48004120D43
:10278300F6008004120DF6A88004120DF673F20110
:1027930000000080FB000022E4738F000100511C45
:1027A300870001004F1C35000400181C250002009F
:1027B3001C1C260002001E1C27000200201C2800EF
:1027C30001002A1C290001002B1C840004009F190E
:1027D30086000100BD1B2A0001002C1C2B000100F8
:1027E3002D1C2C000100311C2D000800AB192E00FC
:1027F3000100321C2F000100331C30000100341C87
:1028030031000100351C32000100B319330001000F
:10281300B41934000100361C36000100B519380024
:102823000100371C39000100301C830002004D1CDD
:1028330063000100C119640001002E1C6500010042
:102843002F1C6D000100C21971000800A319660056
:1028530001004C1C430001003D1C440002003E1CCF
:1028630045000100401C46000200411C47000800CF
:10287300B91948000100431C4B000100441C04002B
:102883000100501CA1000100541C37000100531C1F
:1028930088000100521C3C000100B6193D000100F4
:1028A300381C49000200451C67000100C3194D0094
:1028B3000200471C4E000100491C4F0002004A1C45
:1028C3003E0001003C1C51000100B71952000100F9
:1028D3003A1C530001003B1C54000100B8190000CE
:1028E3000000000000013636010100010201000171
:1028F300030100010401060605020000070100347C
:102903000801000F090401010D0100FF0E0800007A
:1029130017020000190100FF1A0100011B0100FE4C
:102923001C0100081D0200001F010001200100011D
:10293300210200002301000F2402000026010001F0
:1029430027010008280200FF2A0100072B0102408B
:102953002C0100002D0100012E0100012F0100FFB9
:1029630030010B1D310800003A0100083B01000F44
:102973003C0100013D0100FF3E0400004204000051
:10298300460400004A0400004E0400005204000004
:10299300560400005A040000000000002001A08437
:1029A300000001002001A1840000020020019C849A
:1029B3000000030020019D84000004004201CE8337
:1029C3000000050042014383000006004201A78383
:1029D3000000070030019E840000004042010E8485
:1029E3000000FDFF210198842A040000390588189E
:1029F3002A04C800390590182A04C90039058C181F
:102A03002A0401022123EF1B2A0421022123E31BB1
:102A13002A0422022123E51B2A0420021023E71B98
:102A23002A0425021023E81B010371030103010398
:102A33000103010301032203020301031003000343
:102A43000003000300030003000300034203000329
:102A530024030603000300030403120325032303D3
:102A630025032303040304030003000300034403B7
:102A730000030003230300036503210035038103DF
:102A830000030503000300030003000325032303DE
:102A9300030271023001600211027002010202029C
:102AA30002028002100261023A00410063027302D3
:102AB30072026202430200021302380000020002A3
:102AC30004021202000200020002000204020402D5
:102AD300370037003C0244020002390000020002C2
:102AE30065020002350281020002050282028302AE
:102AF3000002010171010101010111010101310113
:102B0300010101018001100161013B001400630117
:102B130073017201620143010001130106013D01CA
:102B2300350004011201000100010001000104014C
:102B33000401330133013C01440132013600000139
:102B430000016501000135008101000105018201D9
:102B53008301000103007100300160001100700067
:102B630031022003500480001000610000001400B3
:102B7300630073007200620043000000130006004C
:102B8300000000000400120000000000000000002C
:102B930004000400370037003C024400000000003A
:102BA3000000000065000000350081000000050002
:102BB30000008300000036000100060000000F0043
:102BC30000000000000000000000000003FFFF0001
:102BD300000403FFFF0000FFFF0FF4010005C4041E
:102BE3000320000100000B000000000000000003B0
:102BF300010F0000000000000000000000000000C2
:102C030000000000000000000000000000000000C1
:102C130000000000291953192F1963183519591980
:102C2300351965193B196318351959194119631871
:102C330000000000471963180000000000000000B6
:102C43004D196318000000000000000000000000A0
:102C53000000000000000000000000000000000071
:102C63000000000000000000000000000000000061
:102C73000000991B0100991B02000F1B0280091B16
:102C83000300151B04001B1B0480211B0500271BCD
:102C93000600331B3100451B33004B1B3400511B13
:102CA300FFFF0000030003000400080010001F00E2
:102CB3003E007B00F600EC01D703AF075D0FB91EA2
:102CC300713D000007ECFDFDFDECDCDCCCBCACACE5
:102CD3009C9C8C7C7C6C6C5C5C5C4C4C3C3C2C2CE1
:102CE3001C1C03EAF5E5D5D5C5B5A5959585857570
:102CF30075656555554545353525251515050A87EA
:102D030021025121055D210757210C39210D452150
:102D1300FF000000160F00000B150B020002220F2C
:102D23003300000E0F5A6967426565416C6C696137
:102D33006E63653039D0D1D2D3D4D5D6D7D8D9DACA
:102D4300DBDCDDDEDF303016181920231A1C1E30C1
:102D530000034D4C4651181A250502000119161897
:102D6300161618230300303017181921301B1D1FA6
:102D730030003C40423A3F3F392F47300C0E020BA4
:102D8300040B0A0708000F020402010101010902F2
:102D9300E803000000BE040A01000E000300E8037C
:102DA300FF040912031004030A0C041E0828020C72
:102DB3000508151E04C082C0831212099019EC7411
:102DC30029F0A3741FF09019EE742FF0A3741FF071
:102DD3009019F07435F0A3741FF09019F2743BF05E
:102DE300A3741FF0025AF374F71209489019E0E430
:102DF300F0E99019DFF07CB97D197AE17B1912189B
:102E03003F901C43E09019E9F09019EA74A3F0A3F2
:102E13007419023D8074F0120948EAFEEBFF5480F6
:102E23007003022F899019DF123E157003022F825F
:102E3300EA241B125680707CEA241F125680641306
:102E43007002A3E0706E8A828B83122FD79019FAD7
:102E5300124C12750A00750B00800D123C56126C51
:102E6300F212175BAA0EAB0FEA4B60488A828B8380
:102E7300E0650C7004A3E0650D702C8A828B83A33C
:102E8300A3A3A3E0F50EA3E0F50FE50A450B8A82A1
:102E93008B83A3A3A3A360C3123F58850A82850B28
:102EA30083A3A3A3A380B78A0A8B0B8A828B831283
:102EB3004C0E80B4E508242A125680FCE50824024F
:102EC300F8E43509F9E8FAE9FB9019FA1230BEA3E0
:102ED300A3E06402703C8A828B83124C12800B88BD
:102EE300828983A3A3A3A3123F58E849601F888262
:102EF3008983E06A7003A3E06B70E488828983A30B
:102F0300A3E06C70DA901C491259B0806BECF91293
:102F13001F65850882850983E06401704FE50824F5
:102F230018122FC0120E1712629A120C77E508249A
:102F330012122FC0120E17E508123E09120E13E5E6
:102F430008240B12629E120C7BE5082417123DA67F
:102F5300E5082402FCE43509FDE5082419FAE43503
:102F630009FB12276F740A120E26800CE0640270AC
:102F730007AA08AB09122043AA08AB091216C5EE2B
:102F8300FAEF6480802DEA5402600C901C5C74019B
:102F9300F0EA6402FA8023EA5408601A121F5FEA17
:102FA3004B700B9019FC1261757A08122FCDEE64E9
:102FB30008FAEFFB80047A007B00026924F582E4BF
:102FC3003509F583E0F50A780A22FB9019DFE0F969
:102FD30012181522A3A3E0F50CA3E0F50D227B0044
:102FE3009019DFE0F912180974042274F4120948E5
:102FF3008A088B098A828B83A3A3A3124A0A123DF0
:10300300B138F583E02409FA1268BC70030230B1C9
:103013008A828B837402124A7F8508828509831210
:1030230030BEE8F0A3E91265368A828B83A3A3A39B
:10303300A3A3A3A3A3F0E5082403F8E435091230FE
:10304300B3123DB13AF583E08E828B83A3A3A3A38E
:10305300F0EE2409FAE43FFB8E828F83A3A3125C74
:1030630062F5838882E0A2E58E828F83A3A3A3A364
:10307300A3500474018001E4F0E5082403F5828978
:1030830083124C12EA1251933BF583126883120E9A
:103093000F123DB03B125D548E828F83A3A3127A2D
:1030A30032120E26EEFAEFFB9019DF126909801631
:1030B300F98882F583E0FAA3E0CA22124DAFA3A3F5
:1030C300227402120E267F04020BF274F2120948D4
:1030D3008A088B09ECFAEDFB740E12113CE0FC122A
:1030E300123F8A0C8B0DAE0CAF0DEA4F6030AC086B
:1030F300AD0912122DE96026AC08AD09EEFAEFFB1B
:10310300121233E970148E828F83123F45FAEFFB5C
:10311300121227AA08AB091212577900800279B458
:10312300024CFE74F012094874F6120ED9EAFEEB53
:10313300FF8C088D09750FB3852182852283E4F006
:10314300750E008002050E902DB7E493F8E50EC3CB
:1031530098400302324DAA0E7B0012127B8A0A8B1F
:103163000BEA4B60E08A828B83A3A312325428F0CC
:10317300F8C3EE98EF940050CC7C157D007900AA3B
:1031830008AB091216AD850A82850B83A3A3A3A3FB
:10319300126D2FE0F8EEC3982925E0F8E433F9E542
:1031A3000A28F582E50B39F583A3A3A3A3A3A312EE
:1031B3003DBBA31257D78A0C8B0DAC0CAD0DAA08DF
:1031C300AB0912183F850A82850B83A3E064017063
:1031D3000A12629A7401123DCD80447401120EB931
:1031E300850A82850B83124C10121263E9603D74C9
:1031F3000912113CE0C0E012629AD0E0F0740912A7
:10320300113CE0640370137401120EB9E508240B3A
:10321300FAE43509FB12183F8012740112113C12B3
:103223003F58E5081257BD3509126CF0850A8285AF
:103233000B831262A6123DCDA3A3E0C0E0E50824F0
:103243001412629ED0E0F0750F00A90F740A026990
:1032530021A3A3A3E0F8852182852283E02274F7CA
:10326300120948E9FE8A828B83A3A3A3A3A3A3E045
:10327300540860338A828B83A3A3A3A3A3A3E0543C
:103283000260218A828B83A3A3A3A3A3A3A3A3A3E3
:10329300E06406600F74E96E600A74CD6E600574B5
:1032A300F06E7003121F470245FD74F01209487453
:1032B300EF120ED9740F12113C12605974081211D7
:1032C3003CE9F0ECFEEDFF740512113C1243C5120C
:1032D30045E9A3E0F912124B740612113C1260592E
:1032E300740612113C1252247003023568123DF524
:1032F300E0FA740612113CE0F9121E871235C8F881
:10330300A3E0F9E8497003023568EE2403F50AE403
:103313003FF50BEE2406F508E43FF5097C0085082C
:1033230082F583124C12850A82850B83E0F912120F
:1033330051740312113C126059850A82850B83E094
:10334300C0E08521828522831235C1D0E012533932
:10335300F9852182852283123C5D124E8B123257EE
:10336300FAA3E0CA2407F582E43AF583E8F0A3E47C
:103373001260642406F582E438F583E4126CFC12CF
:1033830049FE120E0FEE123DB13F125D547403124B
:10339300113C124A0A2409127A2C120E267429129D
:1033A300113C126D291230B812534C3A126CF0745E
:1033B3002B12113CE0C0E08521828522831251EB60
:1033C300D0E0F0740212113CE4F0742512113C7841
:1033D300081210C70234BF740312113C125D1C881B
:1033E30082F5831235B0A3A3A31257E2FB1212692D
:1033F300850E82850F83A3EAF0A3EBF07403121109
:103403003C1235C1A31235B01259F1A2E6500F8513
:103413000E82850F83A3A3A3A3A3E0D2E1F07405D7
:1034230012113CE0706B850E82850F83A3123F5807
:10343300901A3AE0687003A3E0697055850E82859F
:103443000F83A3A3A3123D90750C00780C120E17E3
:103453007808120E0B742912113CE0F50C780C124B
:103463000E17742712113C120C7B901A47120C7B17
:103473007900741912113C124BE212208B740A1258
:103483000E26850E82850F83A3A3A3A3A3E0440581
:10349300F0740212113CE004FC8E828F83124C0CF8
:1034A3008E828F83A3A3A3E0F91212517403121126
:1034B3003C126059740212113CE004F074031211BF
:1034C3003C1252246067740212113CE0FA74061233
:1034D300113C123F58C3EA98E499505174021211F7
:1034E3003C12389A852182852283E028F8A3E039AB
:1034F300F9E8240FF50EE439F50F850E82F583E420
:10350300F0740312113C1235BB640160030233DA19
:10351300740512113C740112690FF0740312113C0B
:10352300125AE31238BDE8F0A3E90233FE85218283
:10353300852283124C12121E8D85218285228312CD
:103543000C7B742612113CE0FD742512113CE0FC47
:10355300740A12113CE0F9EEFAEFFB121F417402F8
:10356300120E2680438E828F83A3A3A3E0C0E07450
:103573000C12113CD0E0F0126778E0C0E0740D1239
:10358300113CD0E0F0740612113C125224700974FD
:103593000E12113C74B98007740E12113C7410F0B2
:1035A3007409120EB11220857411026921E0850E8F
:1035B30082850F83A3A3A322E0125311E022E0121A
:1035C3005311A3A322852182852283EAF0A3EB1260
:1035D300522D2274F012094874E1120ED9740412A8
:1035E300113CE9F0740312113CECF0740212113C2B
:1035F300EDF08A0E8B0F742F12113C122FD9AA0CE7
:10360300FB121E7B740112113CE9F0AA0CAB0D12E4
:103613001E81740112113CE07003023895852182EA
:10362300852283E480158E828F83A3A3A3A3A3E0C3
:10363300D2E3F0852182852283E004126867F8854E
:103643002182852283E0C398400302388C740112DF
:10365300113CE0700302388C852182852283123865
:103663009AE50C28F8E50D39F9E8240FFEE439FF53
:103673008E82F583A3A3A3A3A3E0A2E040B57508BC
:1036830000750A08750B00740212113CE0600375A3
:1036930008207C087D0079007405120EB11216AD66
:1036A3008E828F83E0603E901A8AE06401701AE58F
:1036B30008D2E3F508750B101238AA12113CE8F092
:1036C300A3E91256D574FF807643080C750A0C8E55
:1036D300828F83A31238B5126CF2740512113C74F5
:1036E300FFF0A3805A740412113CE06009E508D28C
:1036F300E6F508750A0A8E828F83A3E064FE7003E1
:10370300A3E0F47030741212113C74041262C4F812
:10371300741D12113CE8124A7F7412120EB1121D6D
:10372300A97D007C007900741512113CAA82AB8339
:10373300121B81800B1238AA12113CE8F0A3E9F0A6
:10374300740712113CE508F0123DECC0E074091255
:10375300113CD0E0F0740A12113C7401F0740512AC
:103763000EB1122049741112113CE0600302386A51
:10377300740D12113C1253348E828F83A3A3A3A31F
:10378300F0740D12113C124A4DE50AF0A3E50BF05B
:10379300740312113CE0C0E01249DED0E01259F18B
:1037A3006011901A8AE0C0E0740D12113C124A288D
:1037B300D0E0F0740D12113C123F58850C82850D38
:1037C30083A3A3A3A3A31238A3241C126053126DD3
:1037D3000C1238A51259A339126797C0E01249C5D4
:1037E300D0E012685CC0E0740D12113C12450BD09E
:1037F300E012655DC0E0740D12113C124501D0E08A
:10380300F0740D12113C1238B51238A3242A126039
:1038130053850E82850F83A3A3A3A3A3A3A3A3E02E
:1038230012604C123DDBC0E01244EDD0E0F0740DA9
:1038330012113C124C12850E82850F83126872247A
:1038430028F582E43B126CF0123DE4126883120EF9
:103853000F125D4DEA125FE53B127A30120E2674A9
:1038630005120EB112204F8E828F83A3A3A3A3A3AD
:10387300E0D2E0F0741112113CE0600302362974C7
:103883000112113CE0140236357900AA0CAB0D127B
:103893001F4D741F026921E075F007A4F8A9F022F7
:1038A300A3A3124C16E8228E828F83A3123F5C746B
:1038B3000522E01238BDA3A3A322F8A3E0F9850EE5
:1038C30082850F83A32274F012094874E8120ED97B
:1038D300E9852182852283F08A0E8B0F8A828B836E
:1038E300A3A3A3A3A3A3A3A3E0F9121EA58A088BF2
:1038F30009EA4B70030239A6E50E1251A7123E04E2
:10390300123D9B852182852283E060030239A97CD5
:1039130004850E82850F83A3A3A3A3A3A3A3A3E07C
:10392300F9121EABEE4F607B8E828F83A3A3A3A3FA
:10393300123F58740712113C12618A123F587409DE
:1039430012113C124AAFC0E0741112113CD0E012C4
:10395300653BA3A3A3A3A3A3A3123F58740F121100
:103963003C126CF2741212113CE4126917C8241F42
:10397300F582E438F583125D18C413135403FC7005
:10398300027C048E828F83E0F97808120E13742070
:1039930059FD744059F97403120EB1121F41740298
:1039A300120E2602691F7C08850E82850F83A3A34E
:1039B300A3A3A3A3A3A3E0F9121EAB8B0BEA4B7043
:1039C30003023927EE4F60DB852182852283E0F5F0
:1039D3000C780C120E17850882850983A3A3A3A371
:1039E300A3A3A3E0F50C780C120E178A828B83A392
:1039F300A3A3E0FB8A82850B8312754F8A82850B12
:103A030083E0FA8E828F83A3A3E0F91227757402F1
:103A1300120E2602392B74F712094874FA120ED9C2
:103A2300E9FE780179017F00800379000F124D8E42
:103A3300E0FCEFC39C5026EF75F007A4FC85F0086B
:103A4300AD08EA2CFCEB3DFD12437DE0A2E050DA29
:103A5300540C60D6E0A2E250D3780080CF8A828BE8
:103A630083A3A3A3A3A3A3E0703DE9A2E04005744D
:103A7300016E70338A828B83A3A3A3A3A3A37401D0
:103A8300123D6DE0C0E0740312113CD0E01243DC40
:103A9300E0C0E0740412113CD0E0F0740512113C54
:103AA300E8125CB712208574060245FAC082C0830F
:103AB3007901121F4D025AF374F4120948EA4B902C
:103AC3001C5C6019E4F08A088B09F50AF50B780889
:103AD300120E0B7A02122FE1120E26800A7401F0E5
:103AE3007A027B00122FCE0230C974F01209487497
:103AF300F3120ED9740312113CE4F0A3F09019FAF7
:103B0300123D9B740112113CE4F0A3124A8404F0A9
:103B1300901A34E0A2E35003023BE0123D617409C2
:103B230012113C121101740912113C78081210C7CA
:103B33009019FC7808120EC1740512113C78081212
:103B430010D6123C64740512113C78081210795097
:103B5300077A017B00023C51740512113C780C1268
:103B630010C7901C48E0F509780C79081208D9A809
:103B73000CA90D901C49E0C398E4995003E080011F
:103B8300E8852182852283F0740912113C7808129A
:103B930010C7C008C009C00AC00B740512113C78D5
:103BA3000C1210C7123C64780C79081208D9E4F59A
:103BB3000AF50BD00FD00ED00DD00C780C7908126B
:103BC3000F959019FC780C1210D68011123C5612E6
:103BD3006CF2EEFAEFFB12175BAE08AF09EE4F6023
:103BE300658E828F83123254C398502DEE2403F8CE
:103BF300E43FF9E0FA88828983E0C39AF060237492
:103C03000312113C1240BE740112113CEEF0A3EFFB
:103C13001261A5FEA3E0FF80C48E828F83A3A3A3BA
:103C2300E4F08E828F831279E9740112113C1252EF
:103C3300248E828F83A3A3A3A3609112617E1211AA
:103C43003C123C5D8089740312113C124C12740DBA
:103C5300026921123F5C9019FA22125D43A3A3A3C8
:103C630022901C471279F1E4F50AF50B2274F01245
:103C730009488A088B09890A780079009019FA1291
:103C83003D9BFBEE4B601E088E828F83A3A3A3A3F1
:103C9300124BDC601008E87001098E828F83123D9D
:103CA30097EA4F70E3901C4A124C12C3E89AE99BBF
:103CB3004003023D547A06123D57A80CA90DEA4968
:103CC3007003023D548A828B83E508F0A3E5091251
:103CD3003D76E50AF0901C49124D96123D6DA3E422
:103CE300F0A3F09019FA124BDC600D8E828F83A340
:103CF300A3A3A3126CF280179019FA126CF2901A14
:103D030034E0A2E34009123D619019FC12110190C5
:103D13001A34E0A2E3503A7A087B009019DFE0F905
:103D230012181BEA4B4C4D7028901C47E0F508A372
:103D3300E085080CF50DE4F50EF50F780C120E0B6B
:103D43007A087B009019DFE0F912180F7404120E41
:103D5300260269247B001217558A0C8B0D22121838
:103D630027EAF8EBF9ECFAEDFB22123D7122123D42
:103D730076A322F08A828B83A3A322E508F002456F
:103D8300FDF08E828F83A3A3A3A3A3A32212568E37
:103D9300A3A3F022A3A3A3A3E0FEA3E0FF227F0536
:103DA300020BF2F582E43509F583E0F922EA123DCC
:103DB300B5222410F582E422123DC3A3A3A3A322B8
:103DC300123F6085088285098322123DD122F08546
:103DD3000A82850B83A3A322E50E2411123E01E080
:103DE30022E50E240E123E0122E50E2410123E019E
:103DF300E022123DF922EE123DB53FF58322F58212
:103E0300E4350FF58322240FF50AE43509F50B7821
:103E13000A22E0F91216D78A088B09EA4B2274F2B8
:103E2300120948890B8A088B098A828B83124C12E8
:103E3300121F71EA4B600479B8806A121F7DE9F89A
:103E4300902DA8E493F9E8C399400479B280567A97
:103E530015123D57AE0CAF0DEA4F70047910804533
:103E63008A828B83E4F0A3123D76E50BF0750A009A
:103E73007808120E0F7C127D00EA240312682E12BA
:103E83000E26901A001252247008901A00800C1209
:103E93003F5888828983123EAB70F4EEF0A3EFF0B3
:103EA300121F8F7900024CFE124C16EA4B8882894E
:103EB3008322C082C083901A0080048C828D831277
:103EC3007550EC4D60288C828D83A3A3E069600557
:103ED30074FF6970E68C828D83A3A3A3E06A7003E9
:103EE300A3E06B70D6EC2403FAE43DFB80047A0074
:103EF3007B00025AF374F7120948E9FD74FE6D70F2
:103F0300047C0180027C00901A0080096D70027CA1
:103F13000188828983125224601F88828983A3A324
:103F2300A3E06A7003A3E06B70E7ECA2E0888289E8
:103F330083A3A3E050D6F9800279FE0245FDEEF992
:103F4300800CA3A31279F1EE227402120E267F02D3
:103F5300020BF2F583123F5C22123F6022E0F8A3CA
:103F6300E0F922123F608E828F8322120E267F0396
:103F7300020BF2C082C0837900901A00800109E02D
:103F8300FAA3E08A82F583E582458370F1025AF34E
:103F930074F6120948E4F508F5097808120E13902F
:103FA3002DA8E49375F013A4A9F01240B3126D5039
:103FB300120E26E9FE74096E7003121F89023F4137
:103FC30074F612094874FE120ED985218285228364
:103FD300E4F0A3F0A821A922880889097808120E21
:103FE300137508027509007808120E131269C112BD
:103FF3000E26023F4C74F512094874EB120ED98554
:104003002182852283E4F0A3F0901A0080748E82CB
:104013008F83A3A3E0C0E0740212113CD0E01256D8
:10402300D5A982AA8389088A09750A007808120E1D
:104033000F7C127D00740612113C126D15120E26B0
:104043007402120EA9880889097808120E137508DC
:10405300137509007808120E13740412113C1251DF
:10406300C775F013A4F8AAF075F013E91240AF1264
:1040730069C9120E268521828522831240BE8E8253
:104083008F83123D9BEE4F7085A821A92288088952
:10409300097808120E137508027509007808120EC4
:1040A300131269C1120E267415023F6EA42AF9E891
:1040B3002402FCE439FD7A427B0022E02401F0A3D0
:1040C300E03400F02274F412094874EB120ED97E26
:1040D300007F00A821A922880889097808120E13F5
:1040E3007508028E097808120E137C007D007A424F
:1040F300126D5C120E26E9706C8E088056740212E3
:104103000EA9880A890B780A120E13750A13750B08
:1041130000780A120E13E50875F013A4F8AAF075D7
:10412300F013E5091240AF126D5E120E26E9701B03
:10413300740312113CAA82AB83740212113CE0F99E
:10414300121F6BE970050EEE70010F0508E508708C
:10415300020509852182852283123F58C3E5089809
:10416300E509994098EEFAEFFB74150230C674F630
:104173001209488C828D83A3A31243CAF0EA125F0B
:10418300EB3BF583E0C0E0124387D0E0F0EA241D67
:10419300F582E43B123F5612436B1243C5F0A3F082
:1041A300EA241FF582E43BF583123D9BEC12435E48
:1041B3003DF583EEF0A3EFF01243643BF583124326
:1041C30095A3A3A3A3A3A3EEF0A3EF125C46FE8CD7
:1041D300828D831243D474035EFEC39403400302AF
:1041E3004351EE600874026E60030242768C828D46
:1041F30083E0540CFE740C6E70030242B5E0A2E43B
:10420300400D88828983E08C828D83A31243EA74F4
:10421300086E60030242B51243757401F08A828B03
:1042230083A3A3A3A3A312569B70148C828D83E054
:10423300440C1243DCA3A3124395EEF0A3EFF08CDE
:10424300828D83E0A2E4402B88821243A31243B8F9
:10425300500109F5821243A3A3A3A3A3A3A3F0A32D
:10426300EF1243E48C828D83A3A3A3F0E82403F825
:1042730050010988828983E0C0E0EC2411F582E4CF
:104283003DF583D0E01243D48C828D83E0A2E750C6
:104293007588828983E0FE8C828D831243EA74FCE5
:1042A3005E700C8C828D83A3E054036403701E0242
:1042B3004351124375E4F0740C6E6003024220888C
:1042C300821243A91243B85001090242428C828DE3
:1042D30083A3E05403603288828983E0C0E0EC1258
:1042E300438F3DF583D0E01243EB8C828D83E05402
:1042F300036402701488828983E0C0E012437DD096
:10430300E01243EB8003A3E4F0EC1251933D126CF3
:10431300F0EC2410FEE43DFFEA241DF582E43BF5B6
:1043230083E0F5088E828F83E0C3982508F508F0B3
:10433300EA2417F8E43BF98882F583E0C39508C0C3
:10434300E012436BD0E0125C46C39508500A124357
:104353006BE4F0124387E4F0023F512415F582E445
:1043630022EA240DF582E422EC240DF582E43DF5E6
:104373008322EC12534C3DF58322EC2414F582E4A2
:104383003DF58322EC123DB53DF583222413F582DE
:10439300E422E0FEA3E0FF8C828D83A3A3A3A322E8
:1043A3001243A9A3A3228983E0F508A3E0FFE5084C
:1043B3008C828D8322A3A3A3A3F0A3EFF0E82402AE
:1043C300F8221243CAA322E4F08C828D83A3A3A311
:1043D300221243F2A882A98322123D71A3A3A3A3AD
:1043E300221243F2A3E022A31243F208A98322126A
:1043F3005C4FA32274F412094874F3120ED98A0A8B
:104403008B0BECFEEDFF8C82F583E0540CF508E09A
:10441300A2E75006E508D2E7F508E508D2E1F5087A
:1044230012569B7006E508D2E4F508E0A2E55006B3
:10443300E508D2E5F5087C087D007900AA21AB22C6
:104443001216AD740212113CE508126CF6C0E0744A
:104453000312113CD0E0124A84E50AF0A3E50BF005
:10446300740512113C12656212113CE070777408F6
:1044730012113C124A0A125C383812657DC0E0748E
:104483000812113C12450BD0E012655DC0E07408C0
:1044930012113C124501D0E0F0740812113C124491
:1044A300F7E0124A32124AB312604CEE241112564C
:1044B30067C0E01244EDD0E0F0EE2414125667C05A
:1044C300E0740812113C124A0A2435F582E438F5E7
:1044D30083D0E0124A57C0E0740812113C124A0E0E
:1044E300D0E01262B6740D0230C6E82432F582E4DD
:1044F30039F58322123F66A3A3A3A3A3A322124ADF
:104503001E12675C38F58322124A1E2426F582E4C4
:1045130038F5832274F71209487E008A828B83A3BD
:10452300A3A3A3A3A3A3A3A3E0640460030245D9A5
:10453300125344E060030245D91251A63B125222A2
:1045430070030245D988828983E0540360030245DE
:10455300D9E812534C39F583E0FA8C828D83A3A3F7
:10456300E0FBA3E0CB2411F582E43BF583E06A7022
:104573006588828983A3A3A3A3A3A3A3A3A31245AB
:10458300DDE06A7003A3E06B704C88828983A3A388
:104593001245E9E0FFA3E0CF24061256676A7003D1
:1045A300A3E06B703188828983A3A3E0F88C828DAA
:1045B30083A3A3E0F9A3E0F5838982A3A3E0686062
:1045C300138C828D83A3A3A3E0F5838982E0540C2B
:1045D300640470027E01EEF980201245E122124C40
:1045E3001A8C828D8322A3A31245E1A3A322740C08
:1045F30012113CE0F9740D120E267F01020BF274C6
:10460300F612094874FC120ED9EAFEEBFFECFAED40
:10461300FB8C82F583A3E0540360169019F61252C3
:104623002460597900EEFCEFFD125E4312279B8054
:104633004B852182852283EEF0A3EFF074021211E1
:104643003C124A79AC21AD227AA77B1F1221CF8A73
:10465300088B09A808A909EA4960218A828B83A3E8
:10466300A3A3A3A3A3A3A3A37406F07A0088828BB6
:1046730083124A0A12600CE0F912212D7404023FDE
:104683004E74F212094874F3120ED9EAFEEBFF8A54
:1046930082F583A3A3A3A3A3A3A3A3A3A3E0F50AE0
:1046A300901C5CE0700579BA0249C275080175096E
:1046B30000750C00750D007C087D007900AA21AB04
:1046C300221216AD740512113C7401124A8C540463
:1046D3006012740212113CE0D2E6124A8C54087044
:1046E30003750803E05410600674404508F508E0BC
:1046F30054086022740212113CE044C0124A8C54E4
:1047030020600A740312113CE0D2E08008740312A3
:10471300113CE0D2E1F0EE24151256671249F27013
:1047230003740169700674084508F5088E828F8347
:10473300A3A3A3A3A3A3A3A3E070161222298521F5
:1047430082852283126059740212113CE0D2E28006
:1047530030640F7010740212113C124A94740445B1
:1047630008F508807F8E828F83A3A3A3A3A3A3A3AB
:10477300A3E064028E828F83700A126D29E8F0A38E
:10478300E9F08060A3A3A3A3A3A3A3A3E06403709E
:104793000DAC21AD22EEFAEFFB121FDD80468E82B7
:1047A3008F83A3A3A3A3A3A3A3A3E0640170359062
:1047B3001A8AE06010740212113C124A94750910AF
:1047C300750AFF8018740212113CE0440C124A84EB
:1047D30074FDF0A374FFF074044508F5088E828F0E
:1047E30083122FD9EE2415125667A2E0503F7402AC
:1047F30012113CE0540C701B8E828F83124C1212E8
:104803001C4DE9700579BB0249C2740212113CE0E8
:10481300D2E5F0EE2415125667A2E050107402128E
:10482300113CE0540C64047004E0D2E5F0EE241172
:10483300125667C0E0740412113CD0E01265641292
:10484300113CE060030249BB740812113C124A4D4B
:10485300E508F0A3E509F01249E8E0C0E01249DEFB
:10486300D0E0F01249CFE0C0E0740812113C124AC4
:104873000A12438F38F583D0E0124AB364017011F2
:10488300901A8AE0C0E0740812113C124A28D0E062
:10489300F0740812113C124A481249D9FAE8241C50
:1048A300F582E439F583EA124A7FEE2415FAE43FF0
:1048B300FB8A82F583127550E81259A339F58312E6
:1048C3004A79EE241C125667C0E01249C5D0E012A3
:1048D3005AE91249F27003740169701374081211D2
:1048E3003C125334FAEE241D125667F9121EB18E90
:1048F300828F83A3A3A3A3A3A3A3A3A3E0C0E07472
:104903000812113C12450BD0E0F0740812113C124E
:104913004501E50AF0740812113C1251C72428F529
:1049230082E439F583E50CF0A3E50D124A5F124AE0
:10493300321256E012604CEE1249D9C0E0E824333B
:10494300F582E439F583D0E0F0EE241B125667C0FC
:10495300E0740812113C124A0ED0E0F0EE241A1251
:104963005667C0E0740812113C124A0A2432F582D9
:10497300E438F583D0E0124A571249FE120E0F12A3
:104983006762127550740B12113C124A0A242F12DB
:104993007A2C120E26EE241512566754406012909C
:1049A3001A16125224600AAA21AB22125E4312275E
:1049B3009BAA21AB2212204F740C12113CE0F90286
:1049C3004CF9E82420F582E439F58322EE2419F525
:1049D30082E43FF58322126771E022E82412F58214
:1049E300E439F58322EE2418F582E43FF58322545B
:1049F30080F8A3E05401F974806822F508A3E0F578
:104A030009750A00780822124A1E22124A1E24340B
:104A1300F582E438F58322A3A3A3A3124A2222E05A
:104A2300F8A3E0C822124A1E12435E38F58322FA25
:104A3300A3E0FBE8242AF582E439F583EAF0A3EB4B
:104A430022A3A3A3A3123F5CEE221251CB1251ABBC
:104A530039F58322F0EE24131256E822F0EE240DEA
:104A63001256E822E0FC8A828B83E02CFCA3E0341C
:104A730000FD8A828B83ECF0A3EDF022F0A3E4F037
:104A830022F085218285228322F0EE24151256E836
:104A930022E0D2E3F0124A9C228E828F83123F607F
:104AA300852182852283E8F0A3E9F022E8F0A3E9D7
:104AB30012619FE02274F71209488A828B83A3E074
:104AC300640170047E6380027E648A828B83E0606B
:104AD300087905124AEC24F3FE901A32E06007F9D4
:104AE300124AEC24F2FE0245D91220F7E9F8EEC38C
:104AF300982274F612094874FE120ED98521828514
:104B03002283126059E9FEECFAEDFB9005C21252C2
:104B1300246032A821A922880889097808120E1373
:104B23007D01740E12113CE0FCEEF99005C2126097
:104B33002D12279B7402120E26EA4B600479008023
:104B43000679B2800279B6023F4C74F7120948E93C
:104B5300FE9019EC125224601F740912113CE0F507
:104B6300087808120E17EEF99019EC12602D12272F
:104B73009B7401120E26800279B60245FD74F7126A
:104B830009488908ECFEEDFF79B5E508245E60204D
:104B930014600624F86034803D9005C4124BDC6039
:104BA30035126D6D12279B8E828F8312605980247C
:104BB3009019EE127550EC4D601CEEFCEFFD901950
:104BC300EE12602D12279BE9F9800B9019EA124B24
:104BD300E212183F79000245FD124C16EA4B2212ED
:104BE3007554EEFAEFFB2274F7120948E9FE79B522
:104BF30074AB6E700B9019EA124C1212183F7900C5
:104C03000245FD8E828F83A3A3A3A3A3A3A3A31211
:104C13004C1622124C1A22E0FAA3E0FB2274F11282
:104C23000948EAFEEBFF8C0A8D0B750801901A3ACE
:104C3300E06E7003A3E06F700C124CEDAA0AAB0B8D
:104C430012183F805E12222FEE6A7002EF6B70091A
:104C5300AA0AAB0B122235804AAC0AAD0BEEFAEF6F
:104C6300FB121D85E9F508901C4FE070361226A94A
:104C7300E97030E508702C901A0AE06E7003A3E027
:104C83006F7020EE4F601C750C02750D1A750E00C7
:104C9300780C120E0F7C087D00AA0AAB0B126D195B
:104CA300120E26A90802764C74F2120948EAFEEBAA
:104CB300FF8C088D09750A01124CEDEEFAEFFB1219
:104CC3001839E964017011901A3A123F5885088225
:104CD300850983126CF2800EAC08AD09EEFAEFFB86
:104CE300121D8BE9F50AA90A80111222238A0C8B63
:104CF3000DAC0CAD0D22740D120E267F06020BF2C5
:104D030074F6120948EAFEEBFF7A0D7B0012175581
:104D1300EA4B6062EE24241269F6F0EE2425126950
:104D2300F6A3124DBB1269FCA3A312678F124D9613
:104D3300F0EE124D7C124DABE8F0A3E9124DD21206
:104D43004DA3126CF2EE124D85126852A3A3A3A3D6
:104D5300F0EE2433125667C0E0124D8ED0E0126598
:104D630081124DA3A3A3A3E8F0A3E9124DCAC0E0A7
:104D7300125344D0E0F0023F51242AF582E43FF578
:104D83008322242EF582E43FF58322EA1257BD3BAA
:104D9300F58322124D9A22E08A828B83A3A3A32256
:104DA3001268B1A3A3A3A322124DAF22123F608ABC
:104DB300828B83A3A3A3A322F0124DC022EE242649
:104DC300F582E43FF58322F0EE24321256E822F016
:104DD300EE242C1256E82274F412094874FE120EC3
:104DE300D9ECFEEDFFEC241612566764057010EC47
:104DF3002406FCE43FFD121FD7E97003024E86AC84
:104E030021AD22126AAB121C5385218285228312A3
:104E13005224606B8E828F83E064017058E875F0D2
:104E230009A4F8AAF075F009E9A42AF9746328F82B
:104E3300740739F9E8FAE9FB8882F58378081210D8
:104E4300C7EE124F281210794027852182852283CD
:104E5300124A48125675124E8B78081210C7908466
:104E6300287808120FE48A828B8378081210D68080
:104E73000A79A28010EE240F126CEC790080067977
:104E8300A1800279C80230C4124AA9EE12677D22BA
:104E930074F21209488A0C8B0DECFEEDFFEC1256EE
:104EA30075E4F0A3F090842078081210C7EC124F39
:104EB30028120F446067EC240E12566E703478B3D8
:104EC300901A31E07028901A63E064017020EC249A
:104ED30011125667F91220DF8B09A909EE1251A7A7
:104EE3003F126057EA4960047800800278A188087D
:104EF300802EE060046402700A121FE9E9F508706D
:104F030007801DE064037010EEFCEFFDAA0CAB0DEF
:104F1300121C77E9F50880087508A180037508A3BA
:104F2300A908024CFE12677D78082274F012094822
:104F330074F5120ED9EAFEEBFFEA240AFCE43F8C77
:104F430082F5831279ED1251B17403120EB98A827C
:104F53008B83125E4DE970030250177401120EB970
:104F63007403120EB1121C53740112113C12522419
:104F73007003025017E875F009A4F8AAF075F00958
:104F8300E9A42AF9745F28FC740739FDE508240EA7
:104F930012629EE4F00412113C123F58E5081251CC
:104FA300A73509126CF08C828D83121125E5082434
:104FB3001212629E12110190842878081210C78C75
:104FC300828D837808120FD18C828D83780C121016
:104FD300C790849078081210C7780C79081208D902
:104FE300E5084509450A450B702A740112113C1264
:104FF30051C775F009A4F8AAF075F009E9A42AF9D4
:10500300746728F582740739F5837401F07A007B9D
:10501300081251D48E828F83A3A3A3A3A3A3A3A314
:10502300A3A3E02406FCA3E03400FD8E828F831249
:105033005E4D12656F603EEE240A125199124A4D7D
:105043007468124A7FE812519339F5837402F09021
:105053001A1C1211258C828D83126046125C383C17
:10506300F58312110190842878081210C7901A1C36
:105073007808120FD112520F705D9019EA1251BFC6
:10508300A3A3A3A3A3A3A3A3A3A3125C6E12183980
:10509300E97010125C2C9019EA125C3E70051265DF
:1050A3006F60348E828F83A3A3A3A3A3A3A3A3A31D
:1050B300A31251BF124C12121C7DE960118E828F14
:1050C30083A3A3A3A3A3A31251FBE4F0A3F08E82B3
:1050D3008F831251E1E4F012520F600302518E8E5E
:1050E300828F83A3A3A3A3A3A31279E9901A31E028
:1050F3006003025183901A63E064016003025183E9
:10510300750A3A750B00780A120E137402120EA96F
:10511300880A890B780A120E13126FE8120E26E919
:10512300705BE508240E12629E7401125229C0E0DE
:10513300E508241112629ED0E0F0E508240F126204
:105143009E743A124A7F901A18121125E508241208
:1051530012629E12110190842878081210C7901AC7
:10516300187808120FD190842878081210C7901A63
:10517300187808120F4470081251D080031251B1ED
:1051830012520F7006125B2F74A1F0740B02692187
:10519300240EF582E422F8E43FF9E8FCE9FD888275
:1051A300F58322EA1251AB22240FF582E422E508AB
:1051B3001251AB3509F583E4F0A3F0221275548E36
:1051C300828F83221251CB22123F60E8227A007B26
:1051D300029018C2E0F9121701228A828B83A3A3DB
:1051E300A3A3A3A3A3A3A3A31251EF22124A22248E
:1051F3000EF582E438F58322A3A3A3A3125203225C
:10520300124A22240FF582E438F583228E828F839B
:10521300A3A3A3A3A3A3124A1A240FF582E438F588
:10522300831251CB492212522D22F08521828522ED
:1052330083E02274F6120948EAFEEBFF7A237B002F
:10524300121755EE240AF508E43FF5098508821282
:1052530060577C237D0079001216AD85088285098D
:105263008312522470030252F7EEFAEFFB121FF57A
:1052730012520F60748E828F8312532A64018E82BE
:105283008F83A3A3A3A3A3A37007125320740E8039
:1052930021125224701012656F700B8E828F83A3BC
:1052A300A3E0A2E05007125316740D8005125316A3
:1052B30074051265815403640170071252FE74056C
:1052C300800B901A32E0C0E01252FED0E012533944
:1052D300F5838882125694850882850983124A0AC7
:1052E300125FEB38F583E9800E8508828509831206
:1052F30060D08003126013F0023F518E828F83A32C
:10530300A3A3A3A3A3A3A3A3A312531022E01260F6
:1053130032A3228E828F83A3A3A3A3A3A3124A1A29
:10532300125FF138F58322A3A3A3A3A3A3A3A3A38B
:10533300A31251EFE02212533D22126AC0F8A3E0F8
:1053430022EA12534C3BF58322240CF582E42274A7
:10535300F112094874E4120ED98A0C8B0D8C088D56
:10536300097A237B001217558A0A8B0BAE0AAF0BFF
:10537300EA4F700302564F125FF7E50824151256E1
:1053830080687003A3E0698E828F83700474028047
:10539300027401F0E508240DF8E43509F98882F573
:1053A30083E0FAC3E49AFA95E0FB12567C2AFAA347
:1053B300E03BFB8E828F83A3A3A3A3125C558E8253
:1053C3008F83A3A3F0EE2420F582E43FF583E4F07A
:1053D300EE2421F582E43FF583E4F0EEFAEFFB12CD
:1053E30020A985088285098312569B70098E828FB6
:1053F30083A374058006901A32125689F0EE24179F
:10540300F50AE43FF50B8E828F83125694E9850AE1
:1054130082850B83F0EE2416F8E43FF9E508240EA9
:10542300FAE43509FB88828983124A67E508241068
:10543300FAE43509FB850A82850B83E0FC888289BF
:1054430083E0F88A828B83E0C398C39CF81256D515
:10545300F0EEFCEFFDAA0CAB0D121FEFE9F50B8E7E
:10546300828F83E064027006125C2C125659E50B9E
:105473006003025646750C00750D00901C4FE064E6
:10548300016005E06402703F12566B6008EE242150
:1054930012566E70328E828F83A3A3A312601912E9
:1054A30056A1EE24161256671256CAFAE439FB12B5
:1054B3003D59EA4B601112687B120E0F1256AFAAC8
:1054C3000C126D19120E26EEFAEFFB1220B5E9F558
:1054D3000B901C4FE064016008E064026003025615
:1054E30039E97003025639E50C450D70030256463F
:1054F3008003850E0B12566B600BEE242112566E41
:10550300600302563F850B0E850C08850D09750A4D
:10551300007808120E0F1256AF8E828F83A3A3A3B7
:10552300A3127A32120E26EE2420125667600D1251
:1055330056747468124A7FEE24208015EE242112DB
:10554300566760151256747403F0A37401F0EE24C9
:1055530021F582E43FF583E4F0EEFAEFFB1220B588
:10556300E9F50B70907C137D0079007409120EB17C
:105573001216AD741A12113C74011256E06468706D
:1055830002A3E0704F8E828F831251FBE0640560AB
:10559300030254F57C0879FF8E828F83A3A3A3A310
:1055A300E0242A125C71121737E970030254F57C68
:1055B300087D0079FF7401120EB11216AD74011249
:1055C3000EB97A007B0079AB121FD1741912113C0A
:1055D30074FC8015125674E064037004A3E0640144
:1055E3007008741912113C74FFF0E4F508F509789A
:1055F30008120E137402120EB9741312113CAA820C
:10560300AB83126156120E26852182852283E060C8
:105613002B7409120EA9880889097808120E1375CC
:1056230008137509007808120E137C007D001269B7
:10563300C9120E268006E50C450D6007AA0CAB0DBA
:1056430012175BEEFAEFFB12175B8003750B10A9C1
:105653000B741C027649EE2406FAE43FFB12183F52
:1056630022EE240C1256E822EE24201256E864019E
:1056730022EE1251AB3FF58322E508240EF582E4B6
:105683003509F583E02212568EA322E08E828F83A2
:1056930022A3E0F91220F722E054036401221256F8
:1056A300A522E0FAE82AF8E43400F9228E828F83F7
:1056B300A3A3A312601D1256A5EE24161256E812D8
:1056C30056CAFCE439FD22FAE82AF8E439F9E82459
:1056D30004221256D922126590A3A3A322F01256D4
:1056E300E522EE240FF582E43FF583E022790102FF
:1056F3000DF374F4120948EAFEEBFF8A82F583A3E3
:10570300A3A3A3A3A3A3A3124A0A2424F582E438E0
:10571300F58312569B702E8A828B8312532A70252F
:105723001257C3E06405701D1257C3A3E0F8740158
:1057330068600574066870071251DD7402800512F3
:1057430051DD7403F0EA240A1260C412602DE4F000
:10575300EA2408F8E43F1230B32431F582E43AF541
:1057630083E0C0E0126D64A3A3D0E01257E2CA2421
:105773002EF582E43AF583E0C0E0126D64A3A3A39F
:10578300D0E0125D08C81257BD38123F56126D643F
:105793001257D78A0A8B0BAC0AAD0B850882850991
:1057A30083125C6E12183F850882850983124C129E
:1057B3001220B51260BFF00230C9240BF582E42237
:1057C3008A828B83A3A3A3A3A3A3A3A3126556F5E2
:1057D30083888222A3A3A3A3124AA91222232212FB
:1057E3005C4AFAA3E0220256F0C082C083901A0CEE
:1057F30074FBF0A3741FF0901A0E7407F0A37420C7
:10580300F0901A10740DF0A37420F0901A12740122
:10581300F0A37420F0025AF374F4120948EA24083E
:10582300FEE43BFF8E82F5831251C7126003E0F55D
:105833000874035508F509125C69F8A3E08882F53A
:1058430083E508F0A3A882A983E5096009740265CA
:10585300096003025908740C5508FC600A74086C4B
:10586300600574046C7026740265097006E508A26D
:10587300E4401A8A828B83A3A3A3A3A3A3A3A312A3
:105883005A0E12675C3D1259A9A308A983740C6CC4
:10589300701C125A0A24281259F62428F582E43D72
:1058A300F583A312638AF0E82402F8500109740215
:1058B30065097006E508A2E4404B125A0A242A122D
:1058C30059F6242AF582E43DF583A31259B8125AF6
:1058D3001412638A125A14A31259B0E82404F8501C
:1058E3000109EC600F74086C600A740C6C60057439
:1058F300046C701112603A2426F582E43C1259A913
:10590300A3A882A9838A828B83A3A3A3A3A3A3A30C
:10591300A31259D854037014E508A2E1400E126093
:105923003A1259A33CF583E0548060081259BE1221
:1059330059AB80199019E0E0C0E01259BED0E012D3
:1059430059EB888289831259EB04125C4FA3A88216
:10595300A983E508A2E750458E828F831259D88820
:105963008289831259F11259DD5403603012603A6F
:105973002434F582E43C126388F0E508A2E1501D6B
:105983008A828B83A3A3A3A3A3A3A3A31230B824C4
:1059930035F582E43A126388A3F0E824030230C9A0
:1059A300241EF582E422F5831259B8F0221259B865
:1059B300A3A3A3F022E088828983228A828B83A314
:1059C300A3A3A3A3A3A3A3E0FCA3E0CC2432F58267
:1059D300E43CF58322E01259DD22FCA3E0CC24252C
:1059E300F582E43CF583E022F09019E0E0221265B1
:1059F3008CE022F582E43DF5831259B8125A032252
:105A0300126590125A0E228E828F83E0FDA3E0CDA1
:105A130022A3125A03242CF582E43DF58322C0828B
:105A2300C0838A828B83125AE3FC74035CF98A82F3
:105A33008B83A3A37401F0E9600574026970617438
:105A43000C5CF8600A740868600574046870137469
:105A530002697005ECA2E440098A828B83A3A374D4
:105A630002F0740C68700A8A828B83A3A3E0240279
:105A7300F07402697005ECA2E440258A828B83A34B
:105A8300A3E02404F0E8600F740868600A740C68EB
:105A9300600574046870098A828B83A3A3E004F011
:105AA300ECA2E7502A8A828B83A3A3E004125AE96B
:105AB3001235C2E0540360178A828B83A3A3E004E8
:105AC300F0ECA2E150098A828B83A3A3E004F08A5D
:105AD300828B83A3A3E004F0801685218285228331
:105AE300125310A3E022F08A828B83E022120E2647
:105AF300D083D082020DF3C082C0838A828B83A3BA
:105B0300A3A3A3A3A3A3A3A3A312522460098A82DA
:105B13008B83A3A3125B1C80D7A3A3A3A3A3A3A3D9
:105B2300A3125B2822124C1A12175B22125B332238
