:020000040000FA
:060000000212980207DD68
:03001B000207FFDA
:03002B0002104878
:03004300020F1693
:030053000207128F
:030073000208542C
:100083000207710100F0FF0700080000FFFF0000F6
:100093000704000000030001FF32102700000020C6
:1000A300FD000206FFFF1E821B000000000000008F
:1000B30000000000000000E80300000000E8030067
:1000C3000000000F0000000F0000000104010C00FD
:1000D3000202C78401E984010400000C1A00000035
:1000E300E8030000FFFF631A0188130000E8030020
:1000F3000064006400B801A0BB0D00A0BB0D0002AA
:10010300020207040101071E02051E020A0A010179
:10011300010809080103B80B02803E0102FEFFE853
:10012300030A050001FFFF010A011401E0020000B8
:100133000001050301010F10030003000300030086
:100143000300030003000300030005000A0014007A
:1001530028004F009E000000842F00000000582E4E
:1001630000000000FF000000FF001212E4604612CE
:1001730012A8603DE9687008F618F618F618F6221A
:10018300748067F71201A1090909748067F72212C5
:1001930012A8601D1212E47005191919801A1211A0
:1001A30081701F121195C37003E667331919194043
:1001B300071818182208080874FFF618F618F61816
:1001C300F6221211956017121345702192F0121343
:1001D300577019501720F014080808090909E7F6A1
:1001E3001819E7F61819E7F61819E7F62212135744
:1001F30060E6E869701F0808E62480F608E436F62E
:1002030018547FB47F0CE654806007F6E418F618A0
:10021300F622181822E9C6CC08C6CD08C6CE08C6F1
:10022300CFC0E0E8C0E0EAC0E0EBC0E009E9F809CC
:10023300E7FA09E7FBE6F918E6F8C3EC98ED99EE5F
:100243009AEBC2E7F5F0EFC2E795F0500E600CEBC6
:10025300CFFBEACEFAE9CDF9E8CCF8EAA2E7D2E798
:10026300FAEB33FB13F5F0EEA2E7D2E7FEEF33FF31
:10027300C5F013A2E730E601B313C5F0C3C0E0C075
:10028300F07F00C39BFB605E9418600F401D1460F9
:100293001AD0E023F9D0E0F80203738AF0E948604A
:1002A30003D2F0E4AFF0FAF9F8803BEB30E40D89C8
:1002B300F0EA6003D2F0E4AFF0F9CAF8EB30E30DF3
:1002C30088F0EF6002D2F0AFF0E4CAC9F8EB54074C
:1002D3006014FBC3EA13FAE913F9E813F8EF1350B8
:1002E30002D2E0FFDBEDD0E0C0E030E739C3E49FAA
:1002F300FFF5F0EC98FC42F0ED99FD42F0EE9AFE2A
:1003030042F0D0E0F9D0E0F8E5F0607AE923F9EEC5
:1003130020E742D8028067C3EF33FFEC33FCED33B1
:10032300FDEE33FE80EAEC28FCED39FDEE3AFED01B
:10033300E023F9D0E0F84002801BC3EE13FEED1377
:10034300FDEC13FCEF135002D2E0FF08B800067F68
:100353007F74FF802EEF3350178CF020F002601073
:100363000CBC000C0DBD00080EBE000408E860DFE5
:10037300E933E813FFEE2313FE4F4D4C8008E95495
:1003830080FFE4FEFDFCEE33EF33F47004FCFD7EEE
:1003930080D0E0FBD0E0FAD0E0F8D0E0CFC618CEB2
:1003A300C618CDC618CCC6F9221212A870041818A4
:1003B30018221212E4700D74FFF61819F61819F6C4
:1003C3001819F622E7548066F6121357700F1213AA
:1003D3004570F014F608F608F608F680D1121345B6
:1003E300700CF608F608768008E6447F80EC12115C
:1003F30098700C12118460BFE65480F6E480BB123F
:100403001184700519191980A5E869700C763F18D5
:10041300768018F618F6E8F922E6CDC0E018ECC0AD
:10042300E0E633CD33CDD313F6E719FCE7191933DF
:10043300CC33C3947F400ECD9D502408E65480F600
:10044300E418F6800FF4043D14501408E6447FF6D4
:10045300187680E418F618F6D0E0FCD0E0FD22CC44
:10046300D313CCFD18E4C6CBC0E018E4C6CAC0E081
:100473000808ED08C633E613F618E433C675F0032F
:10048300C3CA97CA09CB97CB199C40047D08802E19
:10049300BD000302055516B6FF050606081618C368
:1004A300CA33CACB33CB33CA27CA09CB37CB193CA0
:1004B300C37D08803E187D0820E75CC633C6CA3377
:1004C300CACB33CB33DDF1D5F0EB30E77BCA97CA28
:1004D30009CB974ACB199C406F4B7025E620E0214E
:1004E3008066187D08C3CA97CA09CB97CB199CD3DA
:1004F300C633C6CA33CACB33CB3350C9DDE7D5F0D5
:10050300E1D3E4C636C608C636C608C636C608C62C
:1005130036C61818188031C3CA97CA09CB97CB19A6
:100523009CB34097C633C6CA33CACB33CB33DD340F
:10053300D5F02EC6A2E0C640C8CA27CA09CB3719D0
:100543004A70BECB3CB480B90808E63308E6336092
:100553001F181818D0E0FAD0E0FBD0E0FCD0E0FD83
:1005630022187D08CA27CA09CB37CB193CD3808010
:1005730013F618E4B67F11F618B6FF0EF618C60484
:1005830070D20808768080CAF618F618F680C5007F
:100593001212A8604F1212E46012E7548066F6123A
:1005A30011817011121345703B090909F4F618F60D
:1005B30018F618F622121195701512135708080829
:1005C30060EAE6447FF618768018E4F618F62212FD
:1005D300135760161213457012E4F608F608F6086E
:1005E300E65480F609090918181822EAC0E0EBC09E
:1005F300E0ECC0E0EDC0E0E687F0A4FBACF008E679
:1006030087F0A42CFCE435F0FA1809E687F0A42C53
:100613004B60027401CA35F0FCE433FB09E687F052
:10062300D2F7A42CCB35F0FC1908E687F0A42BCC29
:1006330035F0FBE433FD0819E687F0D2E7A42C4A32
:10064300CB35F0CD3400FC09E687F0D2E7A42DCCFE
:1006530035F0FDE433FA0918E687F0D2F7A42CCD80
:1006630035F0CA3400FC08E687F0D2E7D2F7A42AB3
:10067300CC35F07A7E20E70B0ACB33CBCD33CDCC10
:1006830033CC33CB3350147004ED30E00ED2F1E4AD
:10069300CD3DCDCC3CCC3B5005DA05C2F1EB547FCC
:1006A300C63308E63392F0FBE73309E733C39A50C6
:1006B3002D2B70190C0D4C4D70151806E608C3331D
:1006C300700D20F10AA2F013F6E418800B4024E425
:1006D300F630F002768018F618F618F68024D33B2D
:1006E30014501074FFA2F013F6187680E418F6186D
:1006F300F6800FA2F013F618E63303F618ECF6189B
:10070300EDF6D0E0FDD0E0FCD0E0FBD0E0FA22C073
:10071300E074F1120BA0A2AFE433F509D2AF85A7C1
:1007230008AFA1EF5508FE74105E60061216067539
:10073300A1EF74085E600812160C75A1F78024EF10
:10074300A2E092F0E508A2E082F05017906198E0F1
:10075300F8900B46E0C398A2D265D0335002E8F07C
:1007630075A1FEE509A2E092AF7F02020BFFC0E094
:1007730074F2120BA0A2AFE433FED2AF9061A4E0F7
:10078300F8759B00E59158540860087591F71216A7
:100793005A8023E59158541060087591EF12166042
:1007A3008014E591A2E092F0E8A2E082F05007E025
:1007B300C2E0F01217AA9061A3E0F8E5E9585404E7
:1007C300600E12178075E9FB906193E0A2E640F298
:1007D300EEA2E092AF7F01020BFFC0E074F2120BB6
:1007E300A0A2AFE433FED2AF9061A5E0F8E5BF5815
:1007F3005404600675BFFB1217C280D4C0E0C0D09A
:10080300E8C0E0E9C0E0C082C083A8F9E8C0E09096
:100813000AB3E0F8743228F582E4340AF583D0E0B1
:10082300F0900AB2E0F8A3E0687006E595900AB587
:10083300F0900AB3E004F0C394804002E4F0A374A0
:10084300C6F0D083D082D0E0F9D0E0F8D0D0D0E0A9
:1008530032C0E0C0D0E8C0E0E9C0E0C082C083900D
:100863000B36E0F8A3E0687008539AF7A37401808D
:1008730022C2EA900B36E0F8740128F074B628F52A
:1008830082E4340AF583E0F5F9900B36E0C39480F3
:100893004002E4F080AC1208E430F03912092980F8
:1008A300341208E420F01430E72B74FFFCFBFA74D5
:1008B3007F8022E4FCFBFA7480801AB48008BC00B9
:1008C300F2BB00EF800F50EBF9E4C39AFAE49BFB11
:1008D300E49CFCE499C6CC18C6CB18C6CA18C6F962
:1008E30022E4C9C608CAC608CBC6D3330308CCC69C
:1008F3003392F0C3947F402E94184019C9B907046A
:10090300CACBCC225025C309CA33CACB33CBCC3391
:10091300CC33D9F422F4600DC9CCC313CB13CBCAA7
:1009230013CAD9F6CC22E4FCFBFA2214FCFBFA220C
:10093300C3E498F8E499F91209748026C3E49AFA97
:10094300E49BFBE920E7E9120974E498F8E499F9D8
:1009530022C3E498F8E499F9120974E498F8E49945
:10096300F9C3E49AFAE49BFB22EB20E7CFE920E703
:10097300E0B90010BB0008E88AF084F8AAF022E48A
:10098300FBC8FA22EB70227B10C833C8C933C933C2
:100993005007C39AC3DBF280069A50012ADBEAC8E8
:1009A30033F4C8C933F4C9FA2275F008E4C833C86C
:1009B300C933C933C99AC99B5004C92AC93BD5F065
:1009C300ECFBC833F4C8E4C9FA22080808EAC0E01B
:1009D300EBC0E086F0E7A4FA180986F0E7A42AFA48
:1009E300180986F0E7A42AFA180986F0E7A42AFA78
:1009F3001986F0E7A4FBE5F02AFA190886F0E7A4C4
:100A03002BFBE5F03AFA190886F0E7A42BFBE5F097
:100A13003AFA18180986F0E7A4C5F02BFBE43AFA72
:100A23001908E7C5F0C6A426F6E5F03BFBE43AFA5D
:100A33001886F0E7A4F6E5F00826F6E43B08F6E4AA
:100A43003A08F6D0E0FBD0E0FA22080808E630E7DF
:100A530011121145120A65080808C64480C6181801
:100A63001822181818E9799EC608CAC608CBC60802
:100A7300CCC6C370207996CACBCC7019798ECBCCF7
:100A830070137986CC700EF9802ACA33CACB33CB64
:100A9300CC33CC331930E7F2CCCBCA3350147004C7
:100AA300EA30E00DE4CA3ACACB3BCBCC3CCC500293
:100AB30009C3E913C6CC182313C6CB18C6CA18C674
:100AC300F922E4CFC0E0E4CEC0E0E4CDC0E0E4CC62
:100AD300C0E075F020E626F608E633F608E633F6BE
:100AE30008E633F6181818EC33FCED33FDEE33FE4D
:100AF300EF33FFC3EC9709ED9709EE9709EF9719C9
:100B03001919400FFFEC97FC09ED97FD09EE97FECD
:100B1300191906D5F0BFECF709EDF709EEF709EF60
:100B2300F7191919D0E0FCD0E0FDD0E0FED0E0FFCA
:100B3300222521C582C0E0E52234FFC583C0E0E55C
:100B430021C3958224F810AF0885832285822180F2
:100B530008858322858221D2AFCEF0A3E520F0A3BE
:100B63007808E608F0A3DEFAEFF0A3E58124FAF8AB
:100B7300E608F0A3E608F0A3E608F0A30808E608F1
:100B8300F0A3E608F0A315811581D0E0FED0E0F8CC
:100B9300158115811581E8C0E0EEC0E022C0D025A3
:100BA30021C582C0E0E52234FFC583C0E0E521C34F
:100BB300958224F310AF08858322858221800885DE
:100BC3008322858221D2AFC8F0A3E9F0A3EAF0A380
:100BD300EBF0A37908E709F0A3D8FAECF0A3EDF062
:100BE300A3EEF0A3EFF0A3D0E0F0A3D0E0F0A3D006
:100BF300E0F0A3E520F0A3E5F0F0A32285228385AE
:100C03002182E0C0E0A3E0F9A3E0FAA3E0FBA3782C
:100C130008E0F608A3DFFAE0FCA3E0FDA3E0FEA3EF
:100C2300E0FFA3E0C0E0A3E0C0E0A3E0F5D0A3E0D1
:100C3300F520A3E0A3F5F010AF0885832285822178
:100C43008008858322858221D2AFD082D083D0E0F1
:100C5300F8D0E032121330B90003020C96E4900589
:100C630001784E79198002F0A3D8FCD9FA7A4E7B29
:100C73001D90008678E879018015E493A3AD82AED8
:100C8300838A828B83F0A3AA82AB838D828E83D8DF
:100C9300E9D9E775824075839E7405120FD9758271
:100CA300C075832B7400120FD975F0108E238F2417
:100CB300858228858327852182852283E0CEA3E050
:100CC300CF852882852783EBC9EAC8EDCBECCAC35D
:100CD300E833C8E933C9EA33CAEB33CBC3EA9EF539
:100CE30026EB9FF525B35004AB25AA26EC33CCEDB8
:100CF30033CDD5F0DAAE23AF24221212A8601C1232
:100D030012E4601712135770071213457001D322B0
:100D1300C0D01213457006D0D0B322C32233D0D033
:100D2300501430E0F6C3E7960809E7960809E796FA
:100D33000809E796B32220E0D5E6970809E6970865
:100D430009E6970809E697B322D083D082ECC0E086
:100D5300EDC0E0E493A3FCE493A3FDED4C600D121E
:100D63000E24EC24FFFCED34FFFD80EFE493A3FCA1
:100D7300E493A3FDED4C600D120EC1EC24FFFCEDDA
:100D830034FFFD80EFD0E0FDD0E0FCE493A3C0E0AE
:100D9300E493C0E022D083D082E9C0E0E493A3C30C
:100DA30086F0C5F095F0F908E493A386F0C5F095B5
:100DB300F0700BE493A3C3994005E9048002A3E414
:100DC30075F002A42582F582E5F03583F583D0E042
:100DD300F9E493A3C0E0E493C0E022852283852154
:100DE30082E0A3FEE0A3F5207808E0A3F608DFFA8B
:100DF300E0A3FFE0A3C0E0E0A3C0E0E0A3C0E0E025
:100E0300A3C0E0E0A3C0E010AF0885822185832260
:100E13008008858221858322D2AFD083D082020FBE
:100E2300DFC0E0C3E49396087401939618400FE47F
:100E33009366700808740193661870007019A3A371
:100E4300C3E49396087401939618A3A3400DD0E0CE
:100E5300D0E0D0E0020D88A3A3A3A3A3A3D0E022F4
:100E63007404800474028000CCC0E0EDC0E0E5218E
:100E7300C39CCCAD2250011D10AF068C218D228066
:100E8300068C218D22D2AF120F5BD0E0FDD0E0FCA7
:100E93002274028000CCC0E0EDC0E0E521C39CCC0D
:100EA300AD2250011D10AF068C218D2280068C21AE
:100EB3008D22D2AF120F39D0E0FDD0E0FC22C0E08A
:100EC300C0F088F0E49366700808740193661870A4
:100ED30000A8F0A3A3700BD0F0D0E0D0E0D0E002E4
:100EE3000D88A3A3D0F0D0E022D083D082CCC0E081
:100EF300E493A36006120F9B1470FAE493A36006B5
:100F03001210DB1470FAD0E0FCE493A3C0E0E49386
:100F1300C0E022C0E074F2120BA0A2AFE433FED211
:100F2300AFC2C0E5D1A2E4500312156AEEA2E0926B
:100F3300AF7F01020BFFCAC0E0E493A3C582CCC517
:100F430082C583CDC583F0A3C582CCC582C583CDBD
:100F5300C583DAE5D0E0CA22CAC0E0E0A3C582CCEB
:100F6300C582C583CDC583F0A3C582CCC582C583A5
:100F7300CDC583DAE6D0E0CA2270090808082260EA
:100F830016181818C6C333C608C633C608C633C6F0
:100F930008C633C6D5E0EA22C0E0E493A3D39C504D
:100FA30010E493A3C39C400AD0E0D0E0D0E0020F4A
:100FB30009A3A3A3D0E022C008C3E096F50808A3C1
:100FC300E096420808A3E096420808A3E096450885
:100FD3007001D3D00822C09FF59FE473D09F22D025
:100FE30083D082C09FE493C0E0740193C0E0740295
:100FF30093F59F2200C0D0252110AF08F521500C96
:1010030005228008F52150020522D2AFD0D02274E8
:1010130004800A74038006740280027401C0E0F441
:101023000412102DD0E01212F3222521F58210AF05
:1010330008F521400C15228008F52140021522D223
:10104300AF85228322C0E0C0D0E8C0E0A8A8D2AF19
:10105300C2C7E8A2E792AFD0E0F8D0D0D0E032BB6D
:101063000102E722C082C08389828A83BB0003E036
:101073008002E493D083D082226016080808C6C396
:1010830013C618C613C618C613C618C613C6D5E0AA
:10109300EA22C3E0C696F608A3E0C696F608A3E0E4
:1010A300C696F608A3E0C696F6222521F8E4352273
:1010B300F9222521FAE43522FB222521FCE43522FD
:1010C300FD22252110AF08F521400C15228008F5DB
:1010D3002140021522D2AF22C0E0E493A36C700931
:1010E300D0E0D0E0D0E0020F09A3A3D0E022E7666E
:1010F30070100809E766700A0809E76670040809B2
:10110300E76622E066701008A3E066700A08A3E0B1
:1011130066700408A3E06622C3E7960809E7960809
:1011230009E7960809E796A2D265D03322C3E09671
:1011330008A3E09608A3E09608A3E096A2D265D0A0
:101143003322181818E4C396F608E496F608E496D2
:10115300F608E496F622C3E096F008A3E096F008BA
:10116300A3E096F008A3E096F022C3E697F60809F9
:10117300E697F60809E697F60809E697F62218189F
:1011830018E60846087009E626087005E633F422D7
:101193000822191919E70947097009E72709700592
:1011A300E733F4220922C3E4939608740193960863
:1011B30074029396087403939622E627F60809E6C9
:1011C30037F60809E637F60809E637F622700422EF
:1011D300600D18C6C333C608C633C6D5E0F418225B
:1011E300E657F60809E657F60809E657F60809E64A
:1011F30057F622E026F608A3E036F608A3E036F613
:1012030008A3E036F622E026F008A3E036F008A3B0
:10121300E036F008A3E036F022E056F608A3E056E5
:10122300F608A3E056F608A3E056F622E493F60880
:10123300740193F608740293F608740393F622E696
:1012430047F60809E647F60809E647F60809E647B8
:10125300F622E056F008A3E056F008A3E056F008A3
:10126300A3E056F022C6F4C608C6F4C608C6F4C600
:1012730008C6F4C622C3E09608A3E09608A3E09646
:1012830008A3E09622C3E7960809E7960809E796BC
:101293000809E7962275D00075813F7521017522F3
:1012A3000500020C57E6084608C3134608336002DC
:1012B300E633F422600C08C6C313C618C613C6D59A
:1012C300E0F422E0F608A3E0F608A3E0F608A3E0C2
:1012D300F622E6F008A3E6F008A3E6F008A3E6F09A
:1012E30022E7094709C3134709336002E733F422AE
:1012F300CAC0E0E6F0A308DAFAD0E0FA22E8F0A3E5
:10130300E9F0A3EAF0A3EBF022E0FAA3E0FBA3E009
:10131300FCA3E0FD22EAF0A3EBF0A3ECF0A3EDF0D5
:1013230022E0F8A3E0F9A3E0FAA3E0FB22E5C75427
:10133300F84401F5C77901222521F582E43522F528
:101343008322E72719471947194722C2AF75D69F4A
:1013530002000022E62618461846184622120FE21B
:1013630087B303120FE2B7B303120FE217B40312EA
:101373000FE2ABB403120FE25CB503120FE2ADB59B
:1013830003120FE2F1B503120FE28BB603120FE261
:10139300FBB603120FE22AB703120FE230B80312AF
:1013A3000FE25AB803120FE2AEB803120FE282B98A
:1013B30003120FE2B0BB03120FE25EBC03120FE293
:1013C300CBBE03120FE250BF03120FE253C203124C
:1013D3000FE287C403120FE2C3C403120FE21CC659
:1013E30003120FE22FC603120FE26CC603120FE2C1
:1013F30035C803120FE230A704120FE2ACA70412A0
:101403000FE2DFA704120FE20DA804120FE24BA8AC
:1014130004120FE288AA04120FE2A7AA04120FE231
:10142300ECAA04120FE282AB04120FE2CEAB041259
:101433000FE262AC04120FE23BAD04120FE297AD70
:1014430004120FE2F5AD04120FE268AE04120FE2CC
:10145300ACAE04120FE204AF04120FE226AF041283
:101463000FE2B6AF04120FE247B004120FE293B0DB
:1014730004120FE2BFB004120FE200B104120FE234
:1014830096B204120FE282B304120FE25DB40412A7
:101493000FE2359105120FE2689105120FE2889170
:1014A30005120FE2AF9105120FE2DC9205120FE273
:1014B300FD9205120FE2A89305120FE25FA9051230
:1014C3000FE264A905120FE297A905120FE2F3FDDB
:1014D30003120FE2BAFE03120FE2CCFE03120FE275
:1014E3002FAA05120FE240AA05120FE25AAA05120B
:1014F3000FE2FC7F00120FE2D67F00120FE2C0A7BB
:1015030005120FE2D0A705120FE2E5A705120FE2BD
:101513002EA805120FE2D17E00120FE2557F0012B2
:101523000FE2BD7F00120FE2EB7F00120FE2828A0F
:1015330005120FE2908A05120FE2098B05120FE2E2
:10154300E28B05120FE2A58D05120FE269AA0512BF
:101553000FE272E804120FE2DEE804120FE281E9FF
:1015630004120FE2F6EA04120FE25DEB04120FE23B
:10157300AAEB04120FE203EC04120FE287EC04124D
:101583000FE2BCEC04120FE2DAEC04120FE260ED9E
:1015930004120FE2E3ED04120FE2F0ED04120FE286
:1015A300E7FA01120FE213FB01120FE27DFD0112B4
:1015B3000FE2BDFD01120FE2F9FD01120FE20DFE74
:1015C30001120FE226FE01120FE218FF01120FE2D1
:1015D300CBFF01120FE2DFFF01120FE289A1051217
:1015E3000FE2ADA105120FE2C6A105120FE204A29C
:1015F30005120FE234A205120FE261A205120FE2F7
:10160300C7A205120FE2CAA205120FE2D4A2051265
:101613000FE2E1A205120FE2079705120FE22797E7
:1016230005120FE2669705120FE2849705120FE287
:101633009F9705120FE2059805120FE21198051204
:101643000FE26E9805120FE27D9805120FE2A19842
:1016530005120FE2629905120FE26F9905120FE26C
:10166300809905120FE249A705120FE291A705120F
:101673000FE2BDA705120FE209F304120FE263F4B0
:1016830004120FE271F404120FE284F404120FE265
:1016930099F404120FE2AEF404120FE2C1F404123F
:1016A3000FE23DF504120FE2A2F504120FE238F641
:1016B30004120FE211F704120FE221F704120FE2F2
:1016C30030F704120FE238FF02120FE25CFF02123E
:1016D3000FE284FF02120FE2ACFF02120FE2AE9997
:1016E30005120FE2D59905120FE2F39905120FE2E5
:1016F300629A05120FE2349405120FE24D9405121B
:101703000FE2599405120FE26D9405120FE28B94C8
:1017130005120FE2959405120FE29F9405120FE252
:10172300B29405120FE2389505120FE2AD9505123A
:101733000FE2DC9505120FE22A9605120FE2799665
:1017430005120FE2949605120FE29E9605120FE220
:10175300AF9605120FE2F29605120FE20CA90512DD
:101763000FE2F5DE04120FE221DF04120FE23EDF87
:1017730004120FE251DF04120FE26CDF04120FE2D6
:10178300C6DF04120FE2F4DF04120FE204E40412D2
:101793000FE262E504120FE294E504120FE2F7E5AB
:1017A30004120FE263E704120FE28BE704120FE265
:1017B300A0E704120FE2B0E704120FE2F0E704120D
:1017C3000FE232E804120FE242E804120FE22BA404
:1017D30005120FE245A405120FE26DA405120FE2F4
:1017E30086A405120FE2AAA405120FE2C8A40512EB
:1017F3000FE2DFA405120FE20DA505120FE228A5E3
:1018030005120FE2EBA905120FE28F8305120FE217
:101813009F8305120FE2A48405120FE2D6840512FA
:101823000FE2068505120FE2298505120FE24085B6
:1018330005120FE27A8505120FE2DF8505120FE22A
:10184300218605120FE2688605120FE295860512BE
:101853000FE2C08605120FE225A005120FE245A094
:1018630005120FE259A105120FE25CA105120FE266
:101873005BA605120FE291A605120FE2A9A60512B7
:101883000FE2EBA605120FE2FBA605120FE23FA73C
:1018930005120FE2DF7700120FE2227800120FE247
:1018A300877800120FE2A67800120FE2487900123F
:1018B3000FE2517900120FE2A27900120FE2CB7905
:1018C30000120FE2D87900120FE24A7A00120FE2F7
:1018D300D87A00120FE21D7B00120FE2567B001232
:1018E3000FE2BB7B00120FE2E47B00120FE25B7C92
:1018F30000120FE2AA7C00120FE2E77C00120FE253
:101903001C7D00120FE22E7D00120FE2407D0012BB
:101913000FE25F7D00120FE2687D00120FE2247E6A
:1019230000120FE2677E00120FE2A57E00120FE2A3
:101933009EFF04120FE2EBA205120FE2039C0512B5
:101943000FE2389C05120FE2809C05120FE2D99D2D
:1019530005120FE2008004120FE2268104120FE247
:10196300628104120FE2208304120FE24E830412F9
:101973000FE2B88504120FE2F88504120FE29A878A
:1019830004120FE2308804120FE28A8804120FE275
:101993001A8904120FE25E8904120FE2A08904126D
:1019A3000FE2058B04120FE2858C04120FE2C68E40
:1019B30004120FE2F48E04120FE2208F04120FE2DE
:1019C300298F04120FE2868F04120FE21F90041274
:1019D3000FE2369304120FE2BC9304120FE237A80E
:1019E30005120FE24DA805120FE257A805120FE2E8
:1019F30099FB04120FE2AFFB04120FE253FC041233
:101A03000FE292FC04120FE2AFFC04120FE2E0FCBF
:101A130004120FE22DFD04120FE261FD04120FE226
:101A23009CFD04120FE291FF04120FE25BA5051265
:101A33000FE2BAA505120FE2F8A505120FE239A6C7
:101A430005120FE2A1BA02120FE2ADBA02120FE2BF
:101A53000FBB02120FE219BB02120FE2A8BB021264
:101A63000FE2E4BB02120FE2DBBC02120FE238BD4D
:101A730002120FE2C6BD02120FE217BE02120FE2FC
:101A830097BE02120FE259C002120FE25EC20212A7
:101A93000FE258C302120FE28AC402120FE2DCC63D
:101AA30002120FE21FC802120FE2C4C802120FE2B1
:101AB30077CD02120FE26DCE02120FE203CF0212B4
:101AC3000FE228CF02120FE2C5CF02120FE2E2CFDC
:101AD30002120FE202D002120FE270D002120FE2E2
:101AE3008DD002120FE2BBD002120FE253D20212C8
:101AF3000FE274D202120FE21AD302120FE262D380
:101B030002120FE2C0D302120FE263D402120FE2F9
:101B1300C8D402120FE227D502120FE2DDD502125A
:101B23000FE24CD602120FE287D602120FE2FBD667
:101B330002120FE25CD802120FE2F3D802120FE294
:101B430092D902120FE2EEDB02120FE250DC021214
:101B53000FE2DDDD02120FE20BDE02120FE22EE0D6
:101B630002120FE2D8E202120FE2EBE302120FE2DB
:101B73004AD504120FE263D604120FE2EBD7041224
:101B83000FE205D804120FE218D804120FE237D877
:101B930004120FE200D904120FE265DA04120FE215
:101BA30091DB04120FE2FBDB04120FE2C6DD041229
:101BB3000FE2008005120FE2BB8005120FE22181C4
:101BC30005120FE2428105120FE21D8205120FE298
:101BD300B8E503120FE2E7E503120FE26BE6031227
:101BE3000FE2CEE703120FE2B8E803120FE274EA42
:101BF30003120FE299EA03120FE2EBEA03120FE278
:101C03007DEB03120FE2C9EB03120FE2DCEB0312CD
:101C13000FE239EC03120FE206ED03120FE278ED47
:101C230003120FE2AFED03120FE2F8ED03120FE21E
:101C3300A0EF03120FE27FF003120FE2CDF10312C4
:101C43000FE2B0F203120FE23CF303120FE275F35B
:101C530003120FE294F303120FE2DFF303120FE216
:101C6300FFF303120FE2BCF403120FE2DFF50312DA
:101C73000FE23AF603120FE27AF603120FE215F9B6
:101C830003120FE290F903120FE2C8F903120FE2F5
:101C930052FA03120FE239FB03120FE23CFB031269
:101CA3000FE23FFB03120FE249FB03120FE265FB56
:101CB30003120FE2D7FB03120FE210FC03120FE231
:101CC3003CFC03120FE263FC03120FE287FC0312D6
:101CD3000FE2C2FC03120FE235FD03120FE272FDA5
:101CE30003120FE2A1FD03120FE2C0FD03120FE284
:101CF300A5A905120FE2BDA905120FE2F3FF011218
:101D03000FE2ECC903120FE20FCA03120FE26DCB0D
:101D130003120FE2B6CB03120FE222CC03120FE23F
:101D230080CC03120FE283CC03120FE2D4CC031254
:101D33000FE249CD03120FE2D9CD03120FE2DCCD3E
:101D430003120FE25DCE03120FE29ECE03120FE2E7
:101D5300C3D203120FE26DD403120FE2C1D40312F4
:101D63000FE250D803120FE288D903120FE25CDAB4
:101D730003120FE2EDDA03120FE2A6DC03120FE205
:101D830089DE03120FE238DF03120FE2D5DF0312FD
:101D93000FE2C0E003120FE228E303120FE282E432
:101DA30003120FE2F0E403120FE21B9404120FE29A
:101DB300C59404120FE2309504120FE24B950412FE
:101DC3000FE2CC9504120FE2269604120FE26D96F1
:101DD30004120FE2CC9604120FE2DE9704120FE214
:101DE300079B04120FE2379C04120FE2BF9C0412FC
:101DF3000FE2C89E04120FE27A9F04120FE214A0AE
:101E030004120FE2E5A004120FE2A0A204120FE2F3
:101E13003EA404120FE2CBA404120FE2F1A50412B4
:101E23000FE289D801120FE2ECD801120FE234D984
:101E330001120FE278D901120FE2D3D901120FE296
:101E430030DA01120FE26BDA01120FE2EDDA01125E
:101E53000FE247DB01120FE2C5DC01120FE23DDDA9
:101E630001120FE25ADE01120FE282DE01120FE2CB
:101E7300D5DF01120FE2E6DF01120FE2FEDF0112EE
:101E83000FE207E101120FE2E4E101120FE2E1E2E6
:101E930001120FE205E301120FE21CE301120FE24C
:101EA3003DE301120FE25FE301120FE2B7D1041227
:101EB3000FE256E401120FE2B0E401120FE247E72A
:101EC30001120FE2A0E701120FE2BFE701120FE2D6
:101ED300DBB203120FE2E5E801120FE218EA011286
:101EE3000FE297EA01120FE2D3EA01120FE242EB8B
:101EF30001120FE2F7EB01120FE2CFED01120FE235
:101F0300DCEE01120FE254F001120FE24AF2011269
:101F13000FE2C0F401120FE29AF601120FE25BF72F
:101F230001120FE2D3F701120FE27FAC03120FE2AB
:101F3300E1F801120FE2D5F901120FE244FA01129E
:101F43000FE2EA8D05120FE29A8F05120FE2599004
:101F530005120FE2C19005120FE2188705120FE276
:101F6300368705120FE27A8705120FE2A087051262
:101F73000FE2C78705120FE2DF8705120FE28188A0
:101F830005120FE2C38805120FE2D88805120FE28B
:101F9300FB8905120FE2048A05120FE20D8A05126E
:101FA3000FE2168A05120FE2208A05120FE20FEEE6
:101FB30004120FE24DF204120FE25BF204120FE27D
:101FC30060F204120FE2B29E05120FE2D1FF021279
:101FD3000FE2ADA805120FE2BDA805120FE261F7EB
:101FE30004120FE2008003120FE2338003120FE2A8
:101FF3009F8003120FE23A8103120FE2D78103128B
:102003000FE21C8203120FE23E8203120FE2578299
:1020130003120FE27D8203120FE29F8203120FE28B
:10202300DD8203120FE2218303120FE243830312C3
:102033000FE2A58303120FE26C8403120FE22385E0
:1020430003120FE2958503120FE2608603120FE27B
:10205300AA8603120FE2FD8603120FE263870312BF
:102063000FE29D8703120FE2EF8703120FE2478807
:1020730003120FE27B8803120FE28A8803120FE236
:10208300958803120FE2458903120FE2AE8903120A
:102093000FE25B8A03120FE29F8A03120FE2AC8BFB
:1020A30003120FE2338C03120FE2C18C03120FE20F
:1020B300C48C03120FE2458D03120FE2DC8D031271
:1020C3000FE25C8E03120FE27B8E03120FE2D78FB7
:1020D30003120FE2F08F03120FE2559003120FE287
:1020E300619103120FE26E9103120FE277910312D3
:1020F3000FE24F9303120FE2699403120FE27994F4
:1021030003120FE2F29403120FE2649503120FE23B
:10211300869503120FE2239603120FE2F797031239
:102123000FE2CE9B03120FE2E29B03120FE2F59B39
:1021330003120FE2FF9B03120FE2089C03120FE24C
:10214300119C03120FE21B9C03120FE2489C031223
:102153000FE26D9C03120FE2BB9C03120FE2C69CBD
:1021630003120FE2EA9C03120FE20E9D03120FE229
:10217300789D03120FE2BE9D03120FE2DB9D031253
:102183000FE2589E03120FE28F9E03120FE2CE9EC0
:1021930003120FE21B9F03120FE2A19F03120FE230
:1021A3006FA103120FE2F2A103120FE2D6A20312F0
:1021B3000FE2E0A203120FE253A503120FE2ACA554
:1021C30003120FE2F6A503120FE251A703120FE267
:1021D30086A703120FE2DAA703120FE292A80312F3
:1021E3000FE241A903120FE27EA903120FE213AA21
:1021F30003120FE298AA03120FE2F18401120FE215
:10220300238501120FE2518501120FE22787011284
:102213000FE2078801120FE25F8801120FE29A8929
:1022230001120FE2E68901120FE20F8D01120FE294
:10223300029001120FE2529101120FE2E891011292
:102243000FE2F49101120FE2269201120FE2A99319
:1022530001120FE25E9501120FE2F29501120FE2F5
:10226300359601120FE2B79601120FE2D4960112CE
:102273000FE2049701120FE2399701120FE2099856
:1022830001120FE2B29801120FE2389B01120FE222
:10229300589C01120FE2439D01120FE2C59D0112EA
:1022A3000FE2FEA101120FE23BA201120FE293A281
:1022B30001120FE2C6A201120FE230A301120FE2D4
:1022C30066A301120FE2F1A301120FE249A4011266
:1022D3000FE220A501120FE2D9A501120FE274A6A5
:1022E30001120FE27CA901120FE298AA01120FE278
:1022F3003BAE01120FE22FAF01120FE232AF011218
:102303000FE261AF01120FE267B101120FE240B2B7
:1023130001120FE275B201120FE26FB301120FE265
:10232300C5B401120FE2EAB401120FE229B501129A
:102333000FE2A4B501120FE29DB601120FE262B7DC
:1023430001120FE27AB901120FE2EBB901120FE2A7
:102353002BBA01120FE28CBA01120FE238BE01123E
:102363000FE227BF01120FE212C001120FE28AC06F
:1023730001120FE24CC101120FE25DC301120FE221
:1023830075C301120FE289C301120FE2C1C3011227
:102393000FE2EFC301120FE26EC501120FE28AC60C
:1023A30001120FE2DCC601120FE23DC701120FE278
:1023B300EFC701120FE216C801120FE2DDC80112C6
:1023C3000FE275C901120FE29BCB01120FE2D0CBD2
:1023D30001120FE233CC01120FE262CD01120FE2C0
:1023E3000ACE01120FE23BCE01120FE253CE0112CD
:1023F3000FE2E2CE01120FE296D101120FE26ED389
:1024030001120FE28AD301120FE2A6D301120FE2E7
:1024130074D401120FE267D801120FE2A83200123E
:102423000FE2DA3200120FE2CB3600120FE2173757
:1024330000120FE25D3700120FE2FF3700120FE2C6
:102443005B3800120FE2A03800120FE2E7390012E6
:102453000FE2FB3A00120FE2EA3E00120FE26E3F78
:1024630000120FE27B4000120FE2D74000120FE28E
:10247300C74200120FE22A4400120FE29F440012E7
:102483000FE2A94400120FE2B64400120FE2E14446
:1024930000120FE2C84500120FE2724600120FE26B
:1024A300F04600120FE20E4700120FE22747001218
:1024B3000FE2504700120FE2724700120FE2D249B7
:1024C30000120FE2984A00120FE2DD4A00120FE2F7
:1024D3005A4B00120FE20B4C00120FE23D4C00125C
:1024E3000FE2834C00120FE2BF4C00120FE20F4DBC
:1024F30000120FE2144D00120FE2684D00120FE2BA
:10250300BE4D00120FE20A4E00120FE2774E001288
:102513000FE2F24E00120FE2BD5000120FE2BF5164
:1025230000120FE2E45200120FE2235600120FE2F0
:10253300365900120FE2F35900120FE2375A001214
:102543000FE2E75B00120FE2FB5B00120FE2055C98
:1025530000120FE20F5C00120FE21B5C00120FE28D
:10256300375C00120FE2E25C00120FE2215D001201
:102573000FE22B5D00120FE2355D00120FE2A55D45
:1025830000120FE2F05D00120FE2055F00120FE28E
:102593004A5F00120FE2576000120FE2D760001289
:1025A3000FE2966100120FE29F6200120FE2D36303
:1025B30000120FE2C16400120FE2D96400120FE2AD
:1025C300346500120FE23E6500120FE24965001206
:1025D3000FE2676500120FE2AF6500120FE20966B2
:1025E30000120FE2306600120FE2CB6600120FE218
:1025F300916700120FE2236800120FE29D68001238
:102603000FE2EA6900120FE2666A00120FE27A6BC8
:1026130000120FE2CA6B00120FE22E6C00120FE2DF
:10262300906C00120FE2BE6C00120FE2E26C00121B
:102633000FE2176D00120FE2486D00120FE27B6D7F
:1026430000120FE29B6D00120FE2036E00120FE205
:10265300F76E00120FE2526F00120FE27B6F00124F
:102663000FE2037000120FE2717000120FE27F702D
:1026730000120FE2A37000120FE2007100120FE2CA
:10268300247100120FE2277100120FE2527100123F
:102693000FE2957100120FE2F87100120FE21A7443
:1026A30000120FE2447400120FE23C7500120FE2B5
:1026B300557600120FE2017700120FE237B50412CC
:1026C3000FE26FB504120FE290B504120FE2D2B518
:1026D30004120FE234B604120FE23EB604120FE204
:1026E3004EB604120FE289B604120FE269BA04125D
:1026F3000FE256BC04120FE23CBE04120FE2D3BE3B
:1027030004120FE275BF04120FE2968002120FE269
:10271300418102120FE2EF8102120FE2F5820212EF
:102723000FE2158302120FE23E8402120FE2F985D3
:1027330002120FE26C8602120FE2108702120FE2FE
:102743001C8802120FE2878802120FE2C38802126A
:102753000FE2068902120FE2418902120FE2838916
:1027630002120FE2188A02120FE2948A02120FE297
:102773005E8B02120FE23B8C02120FE2D38C021229
:102783000FE2ED8C02120FE21D8D02120FE24E8D4D
:1027930002120FE2148E02120FE2248E02120FE2D3
:1027A300738E02120FE27C8E02120FE2FA8E021275
:1027B3000FE2568F02120FE2A18F02120FE2BC8FBB
:1027C30002120FE2E78F02120FE2049002120FE2ED
:1027D300109002120FE2A79102120FE2C0910212AF
:1027E3000FE2459202120FE2589202120FE2779221
:1027F30002120FE21B9302120FE29C9402120FE2E9
:102803004F9602120FE2E59602120FE2E8960212C9
:102813000FE2589702120FE2769702120FE20D9819
:1028230002120FE2559802120FE2589802120FE2B9
:102833001E9902120FE28B9902120FE2B199021252
:102843000FE23C9A02120FE25A9A02120FE2A09A86
:1028530002120FE2549B02120FE29E9B02120FE23E
:10286300CD9B02120FE22A9C02120FE25F9C02121E
:102873000FE28B9C02120FE2999C02120FE2E69C7C
:1028830002120FE2569D02120FE29F9D02120FE207
:10289300EB9D02120FE2179E02120FE2229E02121A
:1028A3000FE2409E02120FE22B9F02120FE2359FAE
:1028B30002120FE2709F02120FE2809F02120FE2D8
:1028C300899F02120FE2DD9F02120FE2F19F0212B3
:1028D3000FE220A102120FE235A102120FE2C3A1FF
:1028E30002120FE208A202120FE294A202120FE2F6
:1028F3009FA202120FE2E1A302120FE2FCA3021253
:102903000FE248A402120FE2B7A402120FE2F0A4EE
:1029130002120FE20AA502120FE26AA502120FE2E7
:1029230009A602120FE254A602120FE224A9021210
:102933000FE2D6A902120FE243AA02120FE283ACFE
:1029430002120FE29BAC02120FE29EAC02120FE2E4
:10295300AAAC02120FE2BEAC02120FE2C6AC021224
:102963000FE2F9AC02120FE2FCAD02120FE289AEE4
:1029730002120FE2F9AE02120FE27BAF02120FE274
:102983003CB002120FE25BB002120FE2FCB0021283
:102993000FE259B102120FE25CB102120FE2D0B1A1
:1029A30002120FE21FB302120FE225B402120FE26A
:1029B300B0B402120FE2CBB502120FE293B60212C9
:1029C3000FE2C4B602120FE2E7B602120FE2F0B64C
:1029D30002120FE21FB702120FE2AFB702120FE2A9
:1029E30065B802120FE2DAB802120FE281B90212DD
:1029F3000FE2F6B902120FE22DBA02120FE26BBA1E
:102A030002120FE274B003120FE2ADD104120FE20F
:102A130046D104120FE22BD104120FE288D0041224
:102A23000FE288CF04120FE2A6CE04120FE296CC77
:102A330004120FE2A4CB04120FE242CB04120FE202
:102A43001DFF02120FE213FF02120FE2AFE80112A1
:102A53000FE22BAD03120FE2A8FE02120FE2DCFC21
:102A630002120FE2EDAB03120FE2A7AB03120FE268
:102A73009AFC02120FE2A6FB02120FE27AFB021289
:102A83000FE231FB02120FE272FA02120FE24AF76F
:102A930002120FE2EEF402120FE2BEF402120FE290
:102AA3006EF402120FE208F402120FE2C7F30212ED
:102AB3000FE2F9F202120FE293F202120FE232F284
:102AC30002120FE2D2F102120FE270F002120FE2D1
:102AD30004F002120FE258EF02120FE253EF021258
:102AE3000FE23CEF02120FE272AB03120FE207EFA9
:102AF30002120FE23FAB03120FE22AAB03120FE203
:102B0300FFAA03120FE204D504120FE2D0D4041279
:102B13000FE279D404120FE299EB02120FE296EB63
:102B230002120FE254EB02120FE202D304120FE27D
:102B330041EB02120FE236EB02120FE205EB021237
:102B43000FE2FDE802120FE2EAF701120FE270E86A
:102B530002120FE254D204120FE22CE802120FE227
:102B630000E802120FE2D2CA04120FE2A5CA04124D
:102B73000FE272CA04120FE24ACA04120FE2EBC94F
:102B830004120FE2CBC904120FE296C904120FE23A
:102B930042C604120FE22AC404120FE214C2041242
:102BA3000FE294C104120FE240C104120FE24CC0C1
:102BB30004120FE2F4C004120FE27EE301000000EE
:102BC30080FB000022E4738F000100F41D870001E5
:102BD30000F21D35000400B81D25000200BC1D26AF
:102BE300000200BE1D27000200C01D28000100CA0C
:102BF3001D29000100CB1D84000400F01A8600018A
:102C0300005C1D2A000100CC1D2B000100CD1D2CF2
:102C1300000100D21D2D000800FC1A2E000100D374
:102C23001D2F000100D41D30000100D51D3100010E
:102C330000D61D32000100041B33000100051B34C4
:102C4300000100D71D36000100061B38000100D823
:102C53001D39000100D11D83000200F01D63000136
:102C630000111B64000100CE1D65000100CF1D6D26
:102C7300000100121B71000800F41A66000100EF46
:102C83001D43000100E01D44000200E11D45000159
:102C930000E31D46000200E41D47000800091B482D
:102CA300000100E61D4B000100E71D04000100F3D5
:102CB3001DA1000100F71D37000100F61D8800016A
:102CC30000F51D3C000100071B3D000100D91D4913
:102CD300000200E81D67000100131B4D000200EA1B
:102CE3001D4E000100EC1D4F000200ED1D3E0001D2
:102CF30000DF1D51000100DB1D52000100DC1D53EC
:102D0300000100DE1D54000100081B00000000004C
:102D13000000013636010100010201000103010038
:102D23000104010606050200000701003408010042
:102D33000F090401010D0100FF0E08000017020036
:102D430000190100FF1A0100011B0100FE1C010014
:102D5300081D0200001F01000120010001210200E3
:102D6300002301000F2402000026010001270100B7
:102D730008280200FF2A0100072B0102402C010052
:102D8300002D0100012E0100012F0100FF30010B76
:102D93001D310800003A0100083B01000F3C01000F
:102DA300013D0100FF3E0400004204000046040010
:102DB300004A0400004E04000052040000560400C0
:102DC300005A040000000000002001EF840000010D
:102DD300002001F084000002002001EB84000003C6
:102DE300002001EC840000040042010F8400000570
:102DF30000420184830000060042010284000007B0
:102E0300003001ED8400000040420102840000FD17
:102E1300FF2101E7842A0400003905D2192A04C8D6
:102E2300003905D6192A04C9003905DA192A04011B
:102E33000221238E1D2A0421022123821D2A04221A
:102E4300022123841D2A0420021023861D2A04251F
:102E5300021023871D010371030103010301030111
:102E63000301032203020301031003000300030011
:102E730003000300030003000342030003240306CB
:102E83000300030003040312032503230325032381
:102E930003040304030003000300034403000300CB
:102EA30003230300036503210035038103000305A6
:102EB300030003000300030003250323030302713C
:102EC300023001600211027002010202020202805A
:102ED30002100261023A004100630273027202624D
:102EE300024302000213023800000200020402122D
:102EF300020002000200020002040204023700374B
:102F0300003C024402000239000002000265020094
:102F130002350281020002050282028302000201DD
:102F230001710101010101110101013101010101DE
:102F3300018001100161013B001400630173017200
:102F430001620143010001130106013D0135000443
:102F53000112010001000100010001040104013319
:102F63000133013C014401320136000001000165D7
:102F73000100013500810100010501820183010087
:102F83000103007100300160001100700031022064
:102F930003500480001000610000001400630073FC
:102FA30000720062004300000013000600000000EE
:102FB30000040012000000000000000000040004F0
:102FC30000370037003C024400000000000000000E
:102FD300006500000035008100000005000000834B
:102FE300000000030471040204600411047004026D
:102FF30004020401040204100461040004140463C1
:1030030004730472046204430400041304060400FA
:103013000400040404120400040004000400045126
:1030230004640000040004000444040004000400D9
:1030330004000465040004350481046400050400ED
:10304300048304000436000100060000000F0000A2
:10305300000000000000000000000003FFFF00006C
:103063000403FFFF0000FFFF0FF4010005C4040386
:1030730020000100000B000000000000000003011D
:103083000F0000000000000000000000000000002E
:10309300000000000000000000000000000000002D
:1030A300000000281B581B2E1B621A341B5E1B34A6
:1030B3001B6A1B3A1B621A341B5E1B401B621A00FD
:1030C300000000461B621A000000004C1B621A52EB
:1030D3001B621A0000000000000000000000000056
:1030E30000000000000000000000000000000000DD
:1030F30000000000000000000000000000000013BA
:1031030000741D1F007A1D1F80801D0000DA1D0141
:1031130000DA1D0200261D0280201D03002C1D0461
:1031230000321D0480381D05003E1D06004A1D3176
:10313300005C1D3300621D3400681D36006E1DFFE8
:10314300FF00000A00000002000000040000000865
:10315300000000100000002000000040000000807C
:103163000000000001000000020000000400000055
:1031730008000000100000002000000040000003D1
:103183000003000400080010001F003E007B00F64F
:1031930000EC01D703AF075D0FB91E713D000007B7
:1031A300ECFDFDFDECDCDCCCBCACAC9C9C8C7C7CF9
:1031B3006C6C5C5C5C4C4C3C3C2C2C1C1C03EAF59E
:1031C300E5D5D5C5B5A595958585757565655555BC
:1031D3004545353525251515050A9A24025E24052E
:1031E3006A240764240C46240D5224FF00000016B1
:1031F3000F00000B150B020002220F3300000E0F0D
:10320300D0D1D2D3D4D5D6D7D8D9DADBDCDDDEDF43
:103213005A6967426565416C6C69616E63653039F3
:10322300000000000000000000000000000000009B
:1032330000034D4C4651181A250502003C40423A02
:103243003F3F392F4730000119161816161823036C
:1032530000303017181921301B1D1F300C0E020BC4
:10326300040B0A0708000F303016181920231A1C04
:103273001E3002040201010101090200BE040AE832
:10328300030000000000000E0001000300E8030437
:1032930009031203FF100A0C10080428041E020C71
:1032A3000508151E0574F7120B34E9901BE7F0901F
:1032B3001B9CE4F0121858901BFFE4F0A3F0901B42
:1032C300E8F0A3F012260E12185E901B22E4F0A37E
:1032D300F0121F90024D8F74F0120B3474D312103E
:1032E300C512695154806066901BE7E0F91218CA51
:1032F3008A088B09AF09EA4F604C7C0080010CEC13
:1033030075F003A4F8A9F074DC28F582743139F55B
:1033130083E493F46029E493F88A828B83E06870F2
:10332300DDEC75F003A4F874DD28F582743139F50A
:1033330083E493C0E0740193F583D082122BC8AA6F
:1033430008EFFB1218B81270EC64800236A98521CD
:1033530082852283A3E05420601F12250C8A088BE8
:1033630009AF09EA4F600A122452AA08EFFB1218A8
:10337300B81270EC64200236A9852182852283E08D
:10338300A2E05042901BA1E0640F702E900E221217
:10339300711A900E22C3E094E9A3E09403400A7AE1
:1033A300007B80901A0C124E717900122428E96078
:1033B30009901DB812130C122440852182852283A3
:1033C300E0640102368E542070030236937A207B28
:1033D30000901BE7E0F9121A1AEA4B4C4D701A9051
:1033E3001BFB121324E8494A4B700E75080175093B
:1033F30000750A00750B00806D750C00750D007566
:103403000E00750F00121A268A088B098C0A8D0B81
:10341300901BFB121324E8494A4B6031901BFB7845
:1034230008120FBA400E750CFF750DFF750EFF7570
:103433000F7F801985080C85090D8C0E8D0F901B4D
:10344300FB780C1210957401780C12107C850C0813
:10345300850D09850E0A850F0BE5084509450A45C3
:103463000B70030235ED7C0079047A007B00122493
:10347300DC8A0C8B0DAE0CAF0D02353174021213C6
:103483003B74FFF0740312133B74FFF074041213C4
:103493003B74FF124EE412680B74071210BD126ADC
:1034A30047E96401706A1236B54480F8A3E0F97401
:1034B3002812133BE8F0A3E9126D43E0C0E0742A3D
:1034C30012133BD0E0124ED1540860167428121325
:1034D3003BA3E044011236C4C0E0742C12133BD06A
:1034E300E0F01269956011E8240B123EAAF87416F5
:1034F30012133BE8F0A3E4F09084B7120E63740652
:103503001210BD740B1210B512211C7404120FF7A4
:103513008E828F83A3A3A3A3A3A3A3A3A37406123F
:1035230036C4F91224BE740512133B126B00EE4F1E
:1035330070030235ED7C007904EEFAEFFB1224DC14
:10354300740512133BEAF0A3EB124BF6E0F50CA360
:10355300E0F50DE4F50EF50F7808790C12128840AA
:1035630023EE2404F8E43FF985080C85090D8882CD
:10357300F583C3E0950CF0A3E0950D127525E8499A
:1035830070A4800C8E828F83A3A3A3A3E4F0A3F083
:103593008E828F83A3A3A3A3A3A3A3A3A3A3E06464
:1035A300018E828F83A3A3A3A3A3A37020E054045B
:1035B300600302347F8E828F83A3A3A3A3A3A3A359
:1035C300A3A37406F07AB71237EA023529A3A3A39B
:1035D300A3E0600302347F8E828F83A3A3A3A3A3FC
:1035E300A3A3A3A37401F00235291224AC7C0079B0
:1035F300017A007B001224DCEA4B6003124E6A7CE2
:103603000079047A007B001224DCEA4B70138044B7
:103613008A828B83A3A3A3A3126B18EE98EF99401E
:103623000B8A828B83A3A3A3A3126B007C00790470
:103633001224DC8B0BA90BEA4970D5C3E5089EE580
:10364300099F500DC3EE9508FEEF9509FFEE4F70ED
:103653000D124E6A901BFB1236BDA3F08024EE2E92
:10366300FEEF338E08F509E4F50AF50B780812101E
:10367300127A20123893120FF7121A26901BFB129C
:103683001318852182852283E06420FAA3E0801643
:10369300A3E054046013126179122B1E79011240C6
:1036A300711270EC6404FB80047A007B00742D02B9
:1036B3006971EE12697FE022F0A3E4F0A3F0A3F0B6
:1036C30022124ED6A3A3E022C082C08374EA121052
:1036D300C57C167D007900AA21AB221218A07408BC
:1036E30012133B7402F0901B901263B512370B74E4
:1036F3000912133B1263CD741312133BE412604D92
:10370300121F8474160251A0E8F0A3E9F0901B9AEB
:10371300126AE82274F7120B3474DA1210C5EAFE47
:10372300EBFFEA4F602DAC21AD2212252A7406125D
:10373300133BE0601E741712133BE0FD7401121378
:103743003BE0FCEEFAEFFB79001223FEE96004791B
:10375300A4800279007426024D8C74F7120B34EAAC
:10376300FEEBFF8A82F583A3A3A3A3A3A3E05440A4
:1037730060178A828B831269311250AF60067AFF19
:103783007BFF801512692D8003901B9012680B74C8
:10379300FE6A700374FF6B604112692D1269571240
:1037A30025D2E98E828F83600B1264AB1273F5E42A
:1037B300F0A380031273E4F07C2E7D248E828F832A
:1037C300124720E9F5087015EE4F60097901EEFA0A
:1037D300EFFB1224B8A908024D8F7508CDAA081271
:1037E30037EAE960E380EE8E828F831264AF240CA4
:1037F300F582E438F583E0F912243A2274F6120BC9
:1038030034E9FEEAFF7A0F7B001218B2EA4B601A22
:103813008A828B83740CF0EEA3A3F0EF8A828B83EE
:10382300124B451260AB7900802BEEF91224E28B28
:1038330009A909EA49601C8A828B83A3A3A3A3A3D2
:10384300A3A3A3A37406124B4EE0F91221CAEEF907
:103853001224BE7910025DA074F4120B348A088B13
:10386300098C0A8D0B901BA1E0640F701EEA4B4C70
:103873004D6018901B9CE064086005E06404700BC5
:103883007808121012123891120FF7023AF67A01E1
:103893007B00901BE7E0F9121A0874042274F412F7
:1038A3000B3474FC1210C5EAFEEBFF8A82F583A386
:1038B300A3E0F91224E28A088B09EA4B7003023968
:1038C300D98E828F83A3A882A983E0C0E0EA126025
:1038D300A1D0E01249B464F160288E828F83A3E003
:1038E30064CD601E8E828F83A3E0641A60148E827F
:1038F3008F83A3E064E9600A8E828F83A3E064E18F
:10390300703379001224B8E9602BE5082404F50A22
:10391300E43509F50B850882850983A3A3A3A3A333
:10392300A3124A8A12499212186A850A82850B8366
:1039330012695780708E828F83A3E0C0E0740212F5
:10394300133BD0E01251B01252D31242C0C0E07404
:103953000312133BD0E0F0E508126DEE123F69E06D
:10396300AA21AB22700512211680031225AE740220
:1039730012133BE064E9702D8508828509831240A8
:10398300CF750A01780A12101E750AE9780A121017
:103993001E12496612428DFCA3E0FD8A828B8312BC
:1039A30042B7120FF7850882850983A3A3A3A3A3B4
:1039B300A3A3A3A3E064027012850882850983A3ED
:1039C300A3A3A3A3A3A3A3A37406F08E828F83A3AD
:1039D300A3E0F91224BE1224AC901DBE123EDB7488
:1039E30004023AF374F4120B34EAFEEBFF75080099
:1039F3008A82F583A3A3A3A3A3E060387508081202
:103A030067FE79FF12225AEA4B601075082C8E82EA
:103A13008F83A3A3A3A3A3E0D2E0F08E828F83A31B
:103A2300A3A3A3A3E0540364016003023AE243089F
:103A330011023AE2EA24181255996036EA241A125E
:103A430055996003F47013126AC87003A3E06960A8
:103A530003023AE2750822023AE2EA241B123AE62A
:103A6300241A125599FAEE2419125599F91221B80C
:103A7300806D8A828B83A3A3A3A3A3A3A3A3A3126F
:103A83003EC670037508018E828F83126ACC700361
:103A9300A3E0697006E508D2E1F508E50860158E34
:103AA300828F83A3A3E07006E508D2E58004E508CE
:103AB300D2E6F5081250A264017006E508D2E0F5DB
:103AC300088E828F83A3A3E06015EE241D1258B8DD
:103AD300F91225B4E964016006E508C2E0F508A916
:103AE300088010F582E43FF583127641EA227409D7
:103AF300120FF77F04020DDE74F0120B3474D71229
:103B030010C5EAFEEBFF8A82F583A3A3A3A3E060BB
:103B13000E901DBC12699C6006901DBC123EDB74A6
:103B2300031210BD8E828F83A3A3A312627812683F
:103B33000912252AE97003023C8C780174051213DB
:103B43003BE0C3940240027800740712133BE0C3C6
:103B5300940240027800740C12133BE064F8700383
:103B6300A3E0F47003023C8C740C12133BE064F981
:103B73007003A3E0F47003023C8C740C12133BE05B
:103B830064FA7003A3E0F47003023C8C740C121308
:103B93003BE064FB7003A3E0F47003023C8C740607
:103BA30012133BE0F9901B8AE0696003023C8CE846
:103BB300A2E04003023C8C742712133BE060030233
:103BC3003C8CEE2413126ADE742212133B126282BF
:103BD300241C126ADE741012133B1263CD74091293
:103BE300133BE0601D741A12133BE0FD74041213BF
:103BF3003BE0FC8E828F8312680979011223FEE970
:103C0300703B74031210B512244CE9F50C740912BD
:103C1300133BE0702C901B84E060267422596422CD
:103C2300601F74425964427014742012133B123E95
:103C3300C0600E742012133B123EB960047ACF8029
:103C43004AE9A2E6504D742012133B1258BE24FDDC
:103C5300600F14600C24FD600824FD600424FE70D2
:103C630028742012133B123EB2700E742012133BC1
:103C7300125EE4A3E0640D601A74031210B51225FA
:103C8300F0E96401700D023EA27AD37B00121CFCA2
:103C9300023EA2EE242DF582E43FF5831240C67066
:103CA30003A3E069701D750800780812101E7808D8
:103CB30012101EEE242F125599F9123ECC1242B760
:103CC300120FF7740912133BE07003023D6A123EB0
:103CD300CC12680B12263E8A0E8B0FEA4B7003023E
:103CE3003DFB740412133BE0F88E828F83A3A3E0A1
:103CF30028F8A3E03400F9E8240D123EAAF88A82DA
:103D03008B83A3A3A3E068600EE88A828B83A3A3BB
:103D1300A3124B3E1236BE7904E912133B1255B877
:103D2300A3E02AF8A3E034008882F583A3AA82AB38
:103D3300831218A68A088B098C0A8D0B850E82853F
:103D43000F83A3A3A3A37808120FBA4003023EA2D2
:103D530090848778081211F6850E82850F83A3A3BA
:103D6300127647A31252DC901B9CE064046008E0C7
:103D730064096003023EA2E50CA2E54003023E355E
:103D8300EE242F1255A1F0EE2430125599C0E074A1
:103D93000112133BD0E0F0EE2431125599C0E074C8
:103DA3000212133BD0E0F0741412133BE064017071
:103DB30026740E12133B12498D2413125599687001
:103DC30003A3E0697011740C12133B123EC6700713
:103DD300741412133BE4F0EE2425F582E43FF583DB
:103DE300120E6374041210BD74071210B512211C55
:103DF3007404120FF7023EA2901BE1E0640160031A
:103E0300023D6A742012133B123EC07009E50CA2F6
:103E1300E65003023D6A741012133BE0F47003A3EF
:103E2300E0F4607BEEFCEFFD74031210B51224582E
:103E3300806DA2E65069742012133B1264BB7016A6
:103E4300741A12133BE06402705574031210B579AF
:103E5300001225A88049742012133B123EB9701436
:103E6300741A12133BE06404703574031210B51214
:103E7300259C802B742012133B123EB2700C7900E8
:103E830074031210B51225FC8015742012133B1213
:103E93005EE4E0640C700874031210B51226027419
:103EA30029026971E82406F582E439F583E02212D8
:103EB3006937E0640322126937E06407221258C2AB
:103EC3006406221250B3640222EE242BF582E43FEF
:103ED30012763FEE12508822E0F508A3E0AA08FB11
:103EE300E4FCFD1224402274F4120B34EAFEEBFFCF
:103EF3008C088D09901B04E0600F126AC87003A33D
:103F0300E06970051221A0805379001267FE122127
:103F1300D68A828B83E5824583602CA3A3A3A3A3C4
:103F2300A3E054186021E508241C123F66120E67B3
:103F3300123F62120E67EE241812429E125B7F122A
:103F43006A3E120FF7801579008E828F83A3A3A395
:103F53001264A1125B7F12680B1221A6023AF6E5E6
:103F6300082413F582E43509F5832274F7120B3420
:103F730074F71210C5EAFEEBFF901B9CE06403602C
:103F83000DE064016008E06409600302406C8A820A
:103F93008B83A3E0600302403A7C007D007A027BBE
:103FA30000121864126B4B8A82126AE2901B8D1204
:103FB30063CD7953121F6C901B9CE06409600990D8
:103FC3001B9A12680B12263885218285228374017D
:103FD300125EFC901B9C7404F074011210B5794AB4
:103FE300121F6674011210BD7A927B1B121A3E9047
:103FF3001A0FE0640B70057406F080057900124017
:1040030071901B8D1264A77A037B00121864901BB6
:10401300901264A77A047B00121864901B87E0A2B5
:10402300E35004D2F08002C2F0125EE9901DB81290
:10403300130C122440802FFC7D007A037B1012188E
:1040430064901A0FE0640B7003740AF0901DDBE4B4
:10405300F0FA7B40125CD98E828F83A3E0F9124081
:1040630071901B9CE4F01224887409024D8C901B00
:104073009A12680F12212E22C082C083901B221233
:10408300699C7017901B9CE024FB600514600780FB
:104093000A901B29801F901B2B801AE84960071286
:1040A3003EA76401700C8A828B83A3E0F91221225C
:1040B300800E901C1612699C6006125EE5122BC8D6
:1040C300025A30126AE8901B9AE06822126AE8E802
:1040D300FAE9FB2274F5120B3474D81210C58A085E
:1040E3008B098A828B83A3A3A3A3A3A3A3A3E0C364
:1040F300940F50030242888A828B83A3A3A3126B7B
:104103000074151210BD8A828B83A3A3A3A3A3A358
:10411300A3A312428DFAA3E0FB1224947415121385
:104123003BE0702E850882850983A3A3A3A3A3A3E1
:10413300A3A3E0C3940B401A8E828F83A3A3A3A3EC
:10414300A3A3A3A3E064027009EE240B125599F410
:104153006003024288741712133BE0600764026035
:1041630003024288901B9CE06402601CE0640660CA
:1041730017901B2212699C7003024288123EA764A7
:104183000160030242888025901B2212699C701DE6
:10419300750800780812101E780812101EEE2410FD
:1041A30012429E8E828F831242B7120FF78E828F36
:1041B3008312751D1249BD126AE4740212133B1275
:1041C30062821236B6C0E0740412133BD0E012428E
:1041D300C0F508A3E0F509740F78081212B7740547
:1041E30012133BE508F0741912133BE0C0E07406A8
:1041F30012133BD0E0F0741B12133BE0C0E07407D2
:1042030012133BD0E0F0741612133BE0C0E07409C4
:1042130012133BD0E0F0741712133BE0C0E07408B4
:1042230012133BD0E0F0EE2410125599C0E0740A4B
:1042330012133BD0E0F0741A12133BE0C0E0740B8E
:1042430012133BD0E0F0742712133BE0C0E0740C70
:1042530012133BD0E0F0741C12133BA982AA83898A
:10426300088A09750A0078081210167C087D007404
:104273001012133BAA82AB83125590120FF7AA2197
:10428300AB221221287428024EEAE0F98A828B833A
:10429300A3A3A3A3A3A3A3A3A3E022F582E43FF5CF
:1042A30083E0F98E828F83A3A3A3A3A3A3A3A3A3D2
:1042B3001276412212680F122560740222F0EE1268
:1042C3005B84E022C082C08374C91210C5901B9C1A
:1042D300E06408601F9032A5E493901B7EF0903257
:1042E300A5E493901B7CF0901BA574011236BBA32D
:1042F300041236BB7C237D00790074141210B512AE
:1043030018A0901BADE07009741E12133B7401805A
:1043130006741E12133BE41251B0740FF0901E0189
:1043230012604D7946121F6C740112133BE4F09036
:104333001DCCE0C0E0740212133BD0E0F0901B8A66
:10434300E0C0E0740312133BD0E0F0740412133B9B
:10435300E4F0740512133BE4F0740712133BE4F02A
:10436300901BADE0C3940F500CE0C0E07406121331
:104373003BD0E08007740612133B740FF07CAE7DD4
:104383001B740812133BAA82AB83121A3E7C037D73
:104393000079FF741012133BAA82AB831218A0900A
:1043A3001BE6E0C0E0741312133BD0E0126090747C
:1043B300011210B5126022122590901BA1E0C0E0FB
:1043C300741C12133BD0E0F0901BA2E0C0E0741DFC
:1043D30012133BD0E0F0901B8FE0C0E0741A12136D
:1043E3003BD0E012370F741812133B1263CD7420C5
:1043F30012133BE4F0901BA4E0C0E0741F12133BC4
:10440300D0E0F0743412133BE4F0742912133BE44C
:10441300F07A8D7B1B7953125ED774141210B51288
:104423001F7E74370251A074F2120B3474F8121009
:10443300C58A0A8B0B8C0C8D0D8908908432AC21B4
:10444300AD227408120F5BC200AC0AAD0BAA21ABFC
:104453002212678C7002D200901BE88013AC0AAD65
:104463000BEE240BFAE43FFB12678C701B1250799E
:10447300124D07601EA20040E48E828F83E0650C1C
:104483007004A3E0650D70E58E828F83A3A3E065BE
:104493000870DAEEFAEFFB74080249CAC082C083DF
:1044A300901BE8025A2DC082C083901BE8E4F0A35E
:1044B30002470574F7120B34901BE81270F2800F59
:1044C300EA2414F582E4126AFD12194EEEFAEFFBA8
:1044D300EA4B70EC901BE8E4F0A3F0024D8F74F20A
:1044E300120B348A0C8B0DEDFF890B8A828B83E0D0
:1044F3008C828D83F0A3A882A9838A828B83124541
:10450300AA124B38E0C454F0FA88828983E04AF057
:10451300EC2402F8E43FF9850C828B83A3A31245B4
:10452300AA1245BDE0333354FC1245B1E0333333B3
:1045330054F81245B1A3E0A2E0E4331313FA8882DE
:104543008983E04AF0EC2403FE50010FE50C2407B5
:10455300F508E4350DF509750A0078081210167C84
:10456300087D00EEFAEF12558F120FF7EE2408FEC6
:1045730050010FE50C240FF508E4350DF509780813
:104583001210167C037D00EEFAEF12558F120FF70F
:10459300E50BC3940F400DE50C2412F582E4350DB1
:1045A300125B93F00249CDA3E08882898322FA88C3
:1045B300828983E04A1245BDA322F0850C828B8356
:1045C300A3A3A3A32274F2120B34EBFF8C0C8D0D67
:1045D3008A82F583E08C828D83127410A3A882A94A
:1045E30083E01259D81249B3C41259D2F0EA1275B2
:1045F3000F1259DF1249B1A2E2E4338C828D831288
:1046030049B0131313541F1259D8A31249B0A2E788
:10461300E4338C828D83A3A3A3A3A3A3F0EA24038F
:10462300FE50010FF5088F09750A0078081210165D
:104633007C087D00E50C240712558B120FF7EE243E
:1046430008FE50010FF5088F0978081210167C0335
:104653007D00E50C240F12558B120FF78E828F838A
:10466300A3A3A3E0C0E0127626D0E0F00249CD7404
:10467300F6120B34EAFEEBFF8A82F583A3858208E8
:10468300858309E0F9122146850882850983E06460
:10469300EB601E8E828F83A3E064E160148E828FB1
:1046A30083A3E064F1600A8E828F83A3E0641A70AF
:1046B300078E828F83A3E4F0901DB812130C12248B
:1046C30040750801780812101E8E828F83A3E0F5CF
:1046D30008780812101E7900901B9A1264A7901B89
:1046E300901242B7120FF71224AC025DA0C082C031
:1046F30083E9901BFA7003E4800274018004EAF0FA
:10470300A3EBF0025A30E0F9025A30C082C0837C36
:104713002E7D248A828B83124720025A3012680F1F
:10472300121F8A2274F6120B34901BFAE0701B7C62
:104733000079017A007B001224DCEA4B600C8A8248
:104743008B8312699C6003122434025DA0C082C073
:1047530083124BE7401079FF1224D6E9F89032A276
:10476300E493C3985004790180027900025A3074AB
:10477300F2120B348A0A8B0B8909C2008A828B835B
:10478300A3A3A3A3A3A3A3A3E0F91224E28A0C8BFC
:104793000DAE0CAF0D750801EA4F60030248538557
:1047A3000A82850B831264A1850A82850B83A3A3E6
:1047B300A3A3A3A3A31249921224CA8A0C8B0DAEFE
:1047C3000CAF0DEA4F700302495F8A828B83A3A368
:1047D300A3A3E4F0A3F0E50A240CFAE4350BFB8A67
:1047E30082F583E0C0E0124966D0E0F0E50A240DCB
:1047F300124986240D1263C71225DE1250911269E5
:1048030057E50A241112498624111263C7E50A24C5
:1048130013126B0FC0E0125083D0E0F0D200EE24ED
:1048230006F8E43FF91249791249B45404600302CB
:1048330048C5901DCAE0F50A750B007407780A1283
:1048430011D08E828F83A3A3A3A3A3A3124970F0D5
:104853008E828F83A3A3A3A3A3A3E0F50AA3E0F50A
:104863000B7407780A1212B7E50A5407FCE50960CE
:10487300618E828F83A3A3A3A3A3A3A3A3A3740281
:10488300124EE4124C7C600B901B88125619A3A3A2
:104893001263CDEC7003024936EE2406F8E43FF9C7
:1048A300E8FAE9124979F0EC24FFF50AE434FFF55C
:1048B3000B7407780A1211D08A828983124970F027
:1048C30080718E828F83A3A3A3A3A3A3E04480025A
:1048D3004852EC700575080080598E828F83A3A31C
:1048E300A3A3A3A3E05420600C1218ACEA547F796D
:1048F30000245F80198E828F83A3A3A3A3A3A3E0C5
:104903005410601A1218ACEA540F7900240A5001AB
:10491300098E828F83A3A3A3A3F0A3E9800D8E82C4
:104923008F83A3A3A3A37401F0A3E41249BD74046A
:10493300124BFDA20050288E828F83A3A3A3A31240
:104943006815F9EEFAEFFB1224D0E96012126995AB
:10495300600312499FEEFAEFFB12194E750800A986
:10496300088067EE240CF582E43FF58322E0450AD4
:10497300F0A3E0450B228882F583E0547FF0A3E0A7
:1049830054FC22F582E4350BF583126AE8EE22A388
:10499300E0F9850A82850B8312680F221249A61259
:1049A3004E0122EE240FF582E43FF58322A3A3A355
:1049B300A31249B822126B31E0221249C122124ECE
:1049C300DAA3A3A3227403120FF77F06020DDE748A
:1049D300F4120B3474F71210C57E001224E2EA4B72
:1049E3007003024A858A828B83A3A3A3A3A3A3A3F1
:1049F300A3A3E064066003024A858A828B83A3A390
:104A0300A3A3A3A3A3E0FF8A828B831273D4E0C082
:104A1300E0740812133BD0E0124DB21263BA126372
:104A2300CD1224FAEF540860578521828522831220
:104A330064A77A007B001224C4EA4B7043127631D8
:104A43007C007D007A007B0080228E828F83125847
:104A5300BEF47003A3E0F46027901B9A124A8A12F3
:104A63004D94601C7C007D00EEFAEFFB1224C48A97
:104A73000A8B0BAE0AAF0BEE4F70CF7900121FA259
:104A83007E01EEF9023AF1124A8E22E0FCA3E0FD28
:104A93008E828F8322C082C0838A828B83E5824584
:104AA300837009901BFF80068A828B83A3A3124C19
:104AB300B060208A828B83A3A3A3A3A3A3A3E05400
:104AC3000860E5EC4D6010124CB67003A3E06D7006
:104AD300D780047A007B00025A3074F2120B348AB6
:104AE300088B09890AECFEEDFF7A147B0012194842
:104AF300EA4B60378A828B83A3A3A3A3A3A3A3A3B5
:104B0300A3E4124B4EE50A124D9EEEF0A3EF124BB7
:104B13003E124DB9124B458A828B83127649124B52
:104B230031126892A3124B38F0A3F00249CDEA2464
:104B33000FF582E422127414A3A322124DA4E4F00D
:104B4300A322A3F01273CD12689222124B522212A7
:104B53004DA8A3A3A3A32274F5120B34EAFEEBFF23
:104B6300890A8C088D09EA4F60757401697012799E
:104B7300011224D6E9F89032A4E493C39850158027
:104B83000A7404697009124BE75009791180527451
:104B93000269704B8E828F83A3A3A3A3A3A3A3A3B2
:104BA300A3E50A124BF61252D31269C0A3E4F0A391
:104BB300F0901BFF12699C60188003126AE48882DC
:104BC3008983A3A3124CB088828983A3A370EC804A
:104BD30003901BFFEEF0A3EF124BFD7900800279E7
:104BE300C1024EED79041224D6E9F89032A3E4937E
:104BF300C398221269C4A3A3A322F07A207B009056
:104C03001BE7E0F91218F422C082C083E9F87900A7
:104C1300901BFF801D8A828B83A3A3A3A3A3A3A3BB
:104C2300A3A3E068600574FF687001098A828B831F
:104C3300A3A3124CB070DE025A3074F7120B34EA9D
:104C43004B7005901BFF80068A828B83A3A3124CB3
:104C5300B0601F8A828B83A3A3A3A3A3A3A3A3A34D
:104C6300E06970E4EC600F8A828B83124C7C70D80D
:104C730080047A007B00024D8F1273EDE05404220E
:104C8300C082C083901BFF80068A828B83A3A312FA
:104C93004CB060128A828B83A3A3A3A3A3A3A3A371
:104CA300E06970E580047A007B00025A3012680FD5
:104CB300EA4B228A828B831258C26C2274F2120B43
:104CC300348A0A8B0B8C0C8D0D750800750900EA6C
:104CD3004B602A901BFF80068E828F83A3A3124D05
:104CE30007601AAC0CAD0DEEFAEFFB850A82850B5B
:104CF30083122BC8E9640170DF8E088F09AA08AB01
:104D0300090249CDE0FEA3E0FFEE4F227900020F36
:104D1300DF74F7120B34901BFF126AE47C007D00F2
:104D2300800DE8FCE9FD88828983A3A3126AE4E885
:104D3300496030EA687002EB6970E7901BFF126804
:104D43000BE86A7002E96B88828983A3A370081257
:104D53006AE4901BFF8009126AE48C828D83A3A30B
:104D63001263CD802774F7120B34EAFEEBFFEA4F90
:104D730060151224F4124DED126995600312499FD8
:104D8300EEFAEFFB12194E8003120FF77F01020DAB
:104D9300DE12680F121F96E9641A22124DA4A3A310
:104DA30022124DA822F08A828B83A3A3A3A32212EB
:104DB30074141258C222124B52A32274F6120B34EB
:104DC300901BFF126B008014126B1D124DED1249E4
:104DD3009FEEFAEFFB12194EAE08AF09EE4F70E8E3
:104DE300901BFFE4F0A3F0025DA08E828F83127309
:104DF300B7F583124E018E828F83124E0122E0FAA1
:104E0300A3E0FB12194E22C082C083EAFCEBFDEA49
:104E13004D6017EA24FBF582EB34FF12699A7007A1
:104E2300124E5FE0F460071218B87905802B901BCF
:104E3300E7E0C0E0124E5FD0E0F0903299E493F9DE
:104E43007A017B1C1218EEE96401700B7A007B2057
:104E5300124E6E790080027904025A30EA24FFF57B
:104E630082EB34FFF583227A207B00901BE7E0F985
:104E73001218F42274F4120B34A2AFE433F508C20F
:104E8300AF901C01124D076038EE24FBF582EF341E
:104E9300FF12699A7A007B20901BE76005124E711E
:104EA3008005E0F91218FAE4F50AF50B780A1210F6
:104EB3001AEEFCEFFD7A017B1C1218E87402120F44
:104EC300F7E508A2E092AFEEFAEFFB023AF6124ED4
:104ED300D6E022124EDA22124EE4A3A3A3A3A3A385
:104EE30022F08E828F8322120FF77F03020DDE746E
:104EF300F2120B3474FA1210C5EAFEEBFF7508FECA
:104F03007509FF1224B2E960057911025074125534
:104F130096603C901DE7E0C43354E0F8E03333542B
:104F2300FC48C0E0EE12609B3FF583D0E0126B4576
:104F3300FAA3E0FB79FF12225AEA4B60127508FFCD
:104F4300EE240F1255994404F0125596D2E0F08ED8
:104F5300828F831250AD6006EE2412126B5DEE2435
:104F630013125599700D9032A6E493C0E01250834A
:104F7300D0E0F08E828F83E0A2E7500454038019BF
:104F8300EE24141255997012901B79E0C0E0125070
:104F930079D0E0F0901B79E004F0EE2411125599DA
:104FA30064017016901DCEE0600D901B84E0700AC2
:104FB3008E828F83E07003126B5A8E828F83E0643C
:104FC300017013EE240B1258B864027009EE240F1B
:104FD3001255994440F0AC21AD22EEFAEFFB1225B5
:104FE300248A0A8B0B74FE6508700374FFF4700344
:104FF300126B1DEA4B60768E828F83E0C0E07401F2
:1050030012133BD0E0F0740412133BEEF0A3EFF065
:10501300EE241E126ADE740212133B1263CD740176
:105023001210AD880C890D780C12101AEE24201280
:10503300509612101E125091120E67EE240E12504B
:105043009612101E901B8D120E67740812133BE00C
:10505300F9AC08AD0912251E7408120FF7E9FE74A6
:10506300106E700BAA0AAB0B12194E80027E10EE63
:10507300F974060249CAEE2414F582E43FF583224B
:10508300EE125088222413F582E43FF58322EE12B8
:1050930049A722F582E43FF583E0F50C780C228ED4
:1050A300828F83A3A3A3A3A3A3A3A3A31250B32277
:1050B300E0FAA3E0FB1225D2E922C082C08374D7B1
:1050C3001210C590820674031210BD7426120F5B72
:1050D3008A828B83A3A3A3A3126AE4740E12133BE5
:1050E3001269A2126AE4740C12133B1251B8240D14
:1050F3001251A6C0E0741A12133BD0E0F012689864
:10510300126AE2742012133B1251B824151251A6ED
:10511300C0E0740812133BD0E0F0EA241CF582E4EB
:105123003B126AE2741212133B1251B8241112514A
:10513300A6C0E0740912133BD0E0F0EA2412125126
:10514300A6C0E0740712133BD0E0F0EA241EF582F8
:10515300E43B126AE2742412133B1251B824201266
:1051630051A6C0E0742612133BD0E01251B074FF75
:10517300F0740112133B74FFF0740212133B74FFBB
:10518300F09084B7120E6374041210BD74071210EA
:10519300B512211C7404120FF779007429120FF74A
:1051A300025A30F582E43BF583E0227402F0852154
:1051B3008285228322E8F0A3E9F0EA2274F4120B39
:1051C3003474EC1210C58A0A8B0B8C088D09E9FF25
:1051D3007E107A217B00121948852182852283EA79
:1051E300F0A3EB1269ACE84970030252CC7C217D39
:1051F300007900852182852283E0FA1218A0901B92
:105203009A12680B8521828522831264AB2409F5E7
:1052130082E438F583126957742012133B126AE44F
:10522300741112133BE812592712695E38F583741F
:105233000212592A1273DB74021259141252D31236
:10524300592A1273A0EFF0742212133B1258D5F9A6
:10525300A3E0C9126DEE39F583E81255EAA3E0C95C
:10526300241FF582E4391252DA742312133B1268B5
:105273000B740612133B126957740812133BE8F0C0
:10528300742612133B126931C082C083740C12134B
:105293003BAC82AD83D083D0827405120F5B74253F
:1052A30012133BE0C0E0741312133BD0E0F079001B
:1052B300AA21AB221224B8E9640170047E0080099C
:1052C3008521828522831249A2EEF97414023AF3EE
:1052D300E508F0A3E50922F583E50AF0A3E50BF061
:1052E3002274F0120B3474FF1210C5EAFEEBFF8C2C
:1052F300088D098A82F583A37408F0EA24161255EF
:105303009960088A828B83A37410F0EA24171255DC
:105313009960098A828B83A3E02408F0EA125597E7
:1053230060088A828B83A3E004F08A828B83A3A321
:10533300A3A3A3A3E060198A828B83A3A3A3A3A33C
:10534300A3A3E0C3332402F88A828B83A3E028F06B
:10535300EA24111255A16004740E8001E4F0901D3B
:10536300DFE0640170168A828B83E06401600D9034
:105373001DDBE0600712558174018004125581E43E
:105383001255EA8A828B83A3E0F8EA1236B62829FB
:105393008C828D83F0EA24111255996005125BC249
:1053A30029F0850882850983E0C394754009750C4B
:1053B30000750D00025578E0FA7B001219488A0C3B
:1053C3008B0DEA4B70030255788E828F83E0FA903F
:1053D3001B8A1255E3740278081211D0EA4508FAC1
:1053E300AB09EE24121255DD740678081211D0A809
:1053F30008EA48FCEBFD12559660047801800278B8
:1054030000EE2416FAE43FFBE4C8F9ED49FDEE246F
:1054130011125599F5088809740978081211D0ED0D
:105423004509FD8A828B831255E3740B78081211A8
:10543300D0ED4509FDEE24171255DD740C780812E2
:1054430011D0ED4509FD8E828F83A3A3A3A3A3A34C
:105453001255E3740A78081211D0ED4509FDEE24C4
:10546300231255DD740D78081211D0ED4509F9ECBE
:10547300850C82850D83F0E9A3F0EE24021255C05A
:105483001255FFF0EE24041255C0A3A31255FFA337
:10549300A3F0EE24131255D0F0EE24141255D0A32A
:1054A300F0750B088A828B83E060151269B8126469
:1054B300A7E50C2408FAE4350DFB121A3E750B1010
:1054C300EE2417125599601912652A1264A7A80BC6
:1054D300E50C28FAE4350DFB121A3E7408250BF58A
:1054E3000B8E828F83A3A3A3A3A3A3E0604EEE241A
:1054F30007F50EE43FF50F850E82F583E0C0E01259
:1055030055AFD0E01255EFE0C0E0081255B1D0E03E
:105513001255EFA3126988121016850E82850F8328
:10552300E0125889A80BE50C2812558B120FF7854A
:105533000E82850F83E0C333250BF50B125596605E
:1055430008C0E01255AFD0E0F0125B7F12698812F9
:1055530010161236B5FC7D00740312133B1255B8B6
:10556300E0F8E50C28F8E4350DF9E82AFAE43912F5
:10557300558F120FF7AA0CAB0D7401026971EA245F
:1055830023F582E43FF58322FAE4350DFB121894E8
:10559300740322EE2415F582E43FF583E022F582BD
:1055A300E43FF583E085218285228322A80BE50C65
:1055B3002812589C22E0FA8E828F83A322F8E43FBC
:1055C300F98882F583E0850C82850D8322F582E4D8
:1055D3003FF583125609A3A3A322F582E43FF58383
:1055E300E0F50875090022127402F922F0050B8E0A
:1055F300828F83A3A3A3A3A3A3A3A322A3A3126B17
:1056030031A312560922E0850C82850D83A3A3A33F
:10561300227403023AF3126AE88E828F83A3A322D1
:1056230074F0120B3474FD1210C512695174021216
:10563300133BE9F08C0C8D0D750B017C267D0079F5
:1056430000AA0CAB0D1218A0740212133BE0C39412
:105653000850030258121255C8F0AC0CAD0D852149
:10566300828522831258BEFA852182852283125EA7
:10567300E4125BBBE96003750B00852182852283FD
:105683001269311258DFE0F9EA850C82850D83A394
:10569300A3A3A3A3A3A3A3A3F0A3E9125914A3A3AE
:1056A3001258DFA3A3E0F9E50C1269B1EA125927F6
:1056B300126497C0E0E50C241112762AD0E0125947
:1056C3002A2407F582E438F583E0C0E0127626D079
:1056D300E0126944740812590BA3E0602685218205
:1056E300852283E02408F8A3E03400F9E50C2413B1
:1056F300F582E4350D1263CB850C82850D83A3E01F
:105703002408F0850C82850D83A3A3A3A3A3A3A3DD
:10571300A3E0602A850C82850D83A385820E858391
:105723000F1258CCF8A3E03400F9E50C12609B3556
:105733000D1263CB850E82850F83E02408F0125887
:1057430090E4F01258A4E4F0A3126944A3A3A3A322
:10575300E060111258F0850C82850D83A3A3A3A3E7
:10576300A312591CE50C1258B1E070030257FE1244
:1057730058F0FA125890EA12591CF88521828522B2
:1057830083E028FBA3E034008B82F583E0F8E50C8B
:10579300241A12762AE812591CE8C39AE50C5056CB
:1057A3001258ACF890329AE493C39850047E0C805C
:1057B30006E50C1258ACFE850C82850D831258CB7E
:1057C300F508A3E03400F509750A007808121016ED
:1057D300EE1258897AAC7B10125590120FF71258BB
:1057E300A474ACF0A37410F0EEC333F8850E828575
:1057F3000F83E02880041258B1E4F0850C82850DF4
:1058030083A3E0F8850C82850D83E0C39850047967
:105813000080701258CBFAA3E03400FBE50C126B46
:105823005412762D126957850C82850D83E0C39837
:10583300C0E0E50C241712762AD0E012590BE06081
:1058430040E50C2417FEE4350DFF8E82F583E0243A
:10585300F2F0E50C241DF8E4350DF98882F583E0B8
:10586300240EFAA3E03400FB8882898312695790DF
:105873001B85E0F9122404E9F88E828F83E0C39834
:10588300F0A90B02696F25E0FCE433FD22E50C125D
:10589300589622241912589C22F582E4350DF5837B
:1058A30022E50C241B12589C22125896E0221269FE
:1058B3003E12589F22F582E43FF5831258C222120A
:1058C3006AEDF5838882E022A31258D0221258D5BC
:1058D3002822E0F8852182852283E022A3A3E0FA2F
:1058E300852182852283126937A3A3A322850C8293
:1058F300850D83A385820E85830F1258D0FAA3E00A
:1059030034008A82F583E022126948A3A3A3A3A3E8
:105913002212592FF583888222F0850E82850F8308
:10592300E004F022F0A3E912592FC822127406F8FA
:10593300A3E02274F4120B348A088B09EA1259DFAC
:10594300A3A3F0EA1313543F1259D2A3F0EAC413EA
:10595300131259DF1259E97409780A1212B712594E
:10596300C9A3A3A3A3A3A3F0EB1259CB1259E874C1
:105973000A780A1212B7E50A5401C0E0EC12693E34
:105983003DF583D0E01259ED740B780A1212B71269
:1059930059C91259E6740C780A1212B71259C9A3DD
:1059A3001259E6740D780A1212B7E50A5401C0E0E1
:1059B300EC2424F582E43DF583D0E0F0740E7808FE
:1059C3001212B7023AE2E50A54018C828D83221245
:1059D30059D8A3A322540F8C828D832254038C8223
:1059E3008D8322A3A3A3A3A3A3A3F08A0A8B0B22D1
:1059F300C082C08379008A828B83A3A3A3A3A3A3BA
:105A0300E0901B84600EE0701F8A828B83A3A3E067
:105A130070168012E060111267FE901B8DE06A70B1
:105A230003A3E06B60027901800312680BD083D07B
:105A330082020FDF74F2120B348A0A8B0B890CEC8F
:105A4300FEEDFF8A828B83E0FA125BBB850A8285B7
:105A53000B83A3A3125BAFE0F9EA8E828F83A3A328
:105A6300A3A3A3A3A3A3A3125BD4125BAFA3A3E03B
:105A7300F9125B7FEA125BD4A3A3E0C0E0EE24112A
:105A8300F582E43FF583D0E0125BDBA3A3A3E0C080
:105A9300E0EE2412F582E43FF583D0E01269C0748E
:105AA30008124BF6A3A3A3E06017E50A2408F8E461
:105AB300350BF9125083E8F0A3E91269C0E024081A
:105AC300F08E828F83A3A3A3A3A3A3A3A3E0601851
:105AD3008E828F83A3125B9EEE24151263C7850803
:105AE30082850983E02408F08E828F83A3A3A3A376
:105AF300A3E060248E828F83A3858208858309E0D7
:105B0300F8E50A28F582E4350B125B93A3A3F0852D
:105B13000882850983E004F0EEFAEFFB122536E9EB
:105B2300F50D70498E828F83A3A3A3A3A3A3125B56
