:020000040000FA
:0600000002129C0207DF62
:03001B00020801D7
:03002B0002104C74
:03004300020F1A8F
:030053000207148D
:030073000208562A
:100083000207730100F0FF0700080000FFFF0000F4
:100093000704000000030001FF32102700000020C6
:1000A300FD000206FFFF1E921B000000000000007F
:1000B30000000000000000E80300000000E8030067
:1000C3000000000F0000000F0000000104010C00FD
:1000D3000202D38401FD8401040000C01A00000061
:1000E300E8030000FFFF1D1B0188130000E8030065
:1000F3000064006400B801A0BB0D00A0BB0D0002AA
:10010300020207040101071E02051E020A0A010179
:10011300010809080103B80B02803E0102FEFFE853
:10012300030A050001FFFF010A011401E0020000B8
:100133000001050301010F10FEFF0300030003008C
:1001430003000300030003000300030005000A008B
:10015300140028004F009E00000028320000000019
:100163009A3000000000FF000000FF001212E86058
:10017300461212AC603DE9687008F618F618F618D6
:10018300F622748067F71201A3090909748067F7DF
:10019300221212AC601D1212E87005191919801A87
:1001A300121185701F121199C37003E66733191971
:1001B3001940071818182208080874FFF618F618CB
:1001C300F618F6221211996017121349702192F052
:1001D30012135B7019501720F01408080809090955
:1001E300E7F61819E7F61819E7F61819E7F62212D1
:1001F300135B60E6E869701F0808E62480F608E4EC
:1002030036F618547FB47F0CE654806007F6E41882
:10021300F618F622181822E9C6CC08C6CD08C6CEB1
:1002230008C6CFC0E0E8C0E0EAC0E0EBC0E009E9FF
:10023300F809E7FA09E7FBE6F918E6F8C3EC98EDE5
:1002430099EE9AEBC2E7F5F0EFC2E795F0500E6036
:100253000CEBCFFBEACEFAE9CDF9E8CCF8EAA2E75A
:10026300D2E7FAEB33FB13F5F0EEA2E7D2E7FEEFAA
:1002730033FFC5F013A2E730E601B313C5F0C3C0E3
:10028300E0C0F07F00C39BFB605E9418600F401DCD
:1002930014601AD0E023F9D0E0F80203758AF0E97C
:1002A300486003D2F0E4AFF0FAF9F8803BEB30E4B6
:1002B3000D89F0EA6003D2F0E4AFF0F9CAF8EB304D
:1002C300E30D88F0EF6002D2F0AFF0E4CAC9F8EBB7
:1002D30054076014FBC3EA13FAE913F9E813F8EFC0
:1002E300135002D2E0FFDBEDD0E0C0E030E739C3CA
:1002F300E49FFFF5F0EC98FC42F0ED99FD42F0EE3F
:100303009AFE42F0D0E0F9D0E0F8E5F0607AE92314
:10031300F9EE20E742D8028067C3EF33FFEC33FCEA
:10032300ED33FDEE33FE80EAEC28FCED39FDEE3AC9
:10033300FED0E023F9D0E0F84002801BC3EE13FEA9
:10034300ED13FDEC13FCEF135002D2E0FF08B800ED
:10035300067F7F74FF802EEF3350178CF020F0025E
:1003630060100CBC000C0DBD00080EBE000408E8B4
:1003730060DFE933E813FFEE2313FE4F4D4C800893
:10038300E95480FFE4FEFDFCEE33EF33F47004FC2C
:10039300FD7E80D0E0FBD0E0FAD0E0F8D0E0CFC61D
:1003A30018CEC618CDC618CCC6F9221212AC7004EA
:1003B300181818221212E8700D74FFF61819F6189F
:1003C30019F61819F622E7548066F612135B700FBC
:1003D30012134970F014F608F608F608F680D112E5
:1003E3001349700CF608F608768008E6447F80EC23
:1003F30012119C700C12118860BFE65480F6E480E1
:10040300BB121188700519191980A5E869700C765B
:100413003F18768018F618F6E8F922E6CDC0E01802
:10042300ECC0E0E633CD33CDD313F6E719FCE7197F
:100433001933CC33C3947F400ECD9D502408E6542A
:1004430080F6E418F6800FF4043D14501408E644D3
:100453007FF6187680E418F618F6D0E0FCD0E0FDBD
:1004630022CCD313CCFD18E4C6CBC0E018E4C6CA33
:10047300C0E00808ED08C633E613F618E433C67582
:10048300F003C3CA97CA09CB97CB199C40047D08D4
:10049300802EBD000302055716B6FF050606081693
:1004A30018C3CA33CACB33CB33CA27CA09CB37CB1A
:1004B300193CC37D08803E187D0820E75CC633C61F
:1004C300CA33CACB33CB33DDF1D5F0EB30E77BCA8C
:1004D30097CA09CB974ACB199C406F4B7025E620EE
:1004E300E0218066187D08C3CA97CA09CB97CB1948
:1004F3009CD3C633C6CA33CACB33CB3350C9DDE72B
:10050300D5F0E1D3E4C636C608C636C608C636C635
:1005130008C636C61818188031C3CA97CA09CB97BC
:10052300CB199CB34097C633C6CA33CACB33CB333C
:10053300DD34D5F02EC6A2E0C640C8CA27CA09CB0F
:1005430037194A70BECB3CB480B90808E63308E6D5
:1005530033601F181818D0E0FAD0E0FBD0E0FCD0CD
:10056300E0FD22187D08CA27CA09CB37CB193CD333
:10057300808013F618E4B67F11F618B6FF0EF6184E
:10058300C60470D20808768080CAF618F618F6807A
:10059300C5001212AC604F1212E86012E754806675
:1005A300F61211857011121349703B090909F4F60B
:1005B30018F618F618F622121199701512135B0823
:1005C300080860EAE6447FF618768018E4F618F621
:1005D3002212135B60161213497012E4F608F60830
:1005E300F608E65480F609090918181822EAC0E04B
:1005F300EBC0E0ECC0E0EDC0E0E687F0A4FBACF0BC
:1006030008E687F0A42CFCE435F0FA1809E687F035
:10061300A42C4B60027401CA35F0FCE433FB09E6F9
:1006230087F0D2F7A42CCB35F0FC1908E687F0A4A9
:100633002BCC35F0FBE433FD0819E687F0D2E7A4B1
:100643002C4ACB35F0CD3400FC09E687F0D2E7A481
:100653002DCC35F0FDE433FA0918E687F0D2F7A480
:100663002CCD35F0CA3400FC08E687F0D2E7D2F788
:10067300A42ACC35F07A7E20E70B0ACB33CBCD33DB
:10068300CDCC33CC33CB3350147004ED30E00ED2E9
:10069300F1E4CD3DCDCC3CCC3B5005DA05C2F1EBCA
:1006A300547FC63308E63392F0FBE73309E733C3DD
:1006B3009A502D2B70190C0D4C4D70151806E60829
:1006C300C333700D20F10AA2F013F6E418800B4037
:1006D30024E4F630F002768018F618F618F6802433
:1006E300D33B14501074FFA2F013F6187680E4186D
:1006F300F618F6800FA2F013F618E63303F618EC9B
:10070300F618EDF6D0E0FDD0E0FCD0E0FBD0E0FA47
:1007130022C0E074F1120BA2A2AFE433F509D2AF09
:1007230085A708AFA1EF5508FE74105E6006121688
:100733000A75A1EF74085E600812161075A1F780A0
:1007430024EFA2E092F0E508A2E082F05017906156
:1007530098E0F8900B46E0C398A2D265D0335002DC
:10076300E8F075A1FEE509A2E092AF7F02020C0159
:10077300C0E074F2120BA2A2AFE433FED2AF9061D9
:10078300A4E0F8759B00E59158540860087591F74B
:1007930012165E8023E59158541060087591EF128C
:1007A30016648014E591A2E092F0E8A2E082F05092
:1007B30007E0C2E0F01217BA9061A3E0F8E5E95848
:1007C3005404600E12179075E9FB906193E0A2E662
:1007D30040F2EEA2E092AF7F01020C01C0E074F29E
:1007E300120BA2A2AFE433FED2AF9061A5E0F8E50D
:1007F300BF585404600675BFFB1217D280D4C0E003
:10080300C0D0E8C0E0E9C0E0C082C083A8F9E8C076
:10081300E0900AB3E0F8743228F582E4340AF583F1
:10082300D0E0F0900AB2E0F8A3E0687006E5959096
:100833000AB5F0900AB3E004F0C394804002E4F0F8
:10084300A374C6F0D083D082D0E0F9D0E0F8D0D042
:10085300D0E032C0E0C0D0E8C0E0E9C0E0C082C070
:1008630083900B36E0F8A3E0687008539AF7A374FB
:10087300018022C2EA900B36E0F8740128F074B6C6
:1008830028F582E4340AF583E0F5F9900B36E0C3EA
:1008930094804002E4F080AC1208E630F03912098B
:1008A3002B80341208E620F01430E72B74FFFCFB96
:1008B300FA747F8022E4FCFBFA7480801AB4800807
:1008C300BC00F2BB00EF800F50EBF9E4C39AFAE4EB
:1008D3009BFBE49CFCE499C6CC18C6CB18C6CA188B
:1008E300C6F922E4C9C608CAC608CBC6D33303086F
:1008F300CCC63392F0C3947F402E94184019C9B9E3
:100903000704CACBCC225025C309CA33CACB33CB85
:10091300CC33CC33D9F422F4600DC9CCC313CB133D
:10092300CBCA13CAD9F6CC22E4FCFBFA2214FCFB93
:10093300FA22C3E498F8E499F91209768026C3E40D
:100943009AFAE49BFBE920E7E9120976E498F8E4D4
:1009530099F922C3E498F8E499F9120976E498F82E
:10096300E499F9C3E49AFAE49BFB22EB20E7CFE98D
:1009730020E7E0B90010BB0008E88AF084F8AAF089
:1009830022E4FBC8FA22EB70227B10C833C8C933B8
:10099300C9335007C39AC3DBF280069A50012ADB9E
:1009A300EAC833F4C8C933F4C9FA2275F008E4C8B5
:1009B30033C8C933C933C99AC99B5004C92AC93B2F
:1009C300D5F0ECFBC833F4C8E4C9FA22080808EAF6
:1009D300C0E0EBC0E086F0E7A4FA180986F0E7A4CC
:1009E3002AFA180986F0E7A42AFA180986F0E7A478
:1009F3002AFA1986F0E7A4FBE5F02AFA190886F02B
:100A0300E7A42BFBE5F03AFA190886F0E7A42BFBE1
:100A1300E5F03AFA18180986F0E7A4C5F02BFBE4D1
:100A23003AFA1908E7C5F0C6A426F6E5F03BFBE45D
:100A33003AFA1886F0E7A4F6E5F00826F6E43B0850
:100A4300F6E43A08F6D0E0FBD0E0FA22080808E61C
:100A530030E711121149120A67080808C64480C614
:100A630018181822181818E9799EC608CAC608CBA0
:100A7300C608CCC6C370207996CACBCC7019798EC0
:100A8300CBCC70137986CC700EF9802ACA33CACBCB
:100A930033CBCC33CC331930E7F2CCCBCA3350143D
:100AA3007004EA30E00DE4CA3ACACB3BCBCC3CCC71
:100AB300500209C3E913C6CC182313C6CB18C6CA00
:100AC30018C6F922E4CFC0E0E4CEC0E0E4CDC0E034
:100AD300E4CCC0E075F020E626F608E633F608E637
:100AE30033F608E633F6181818EC33FCED33FDEE55
:100AF30033FEEF33FFC3EC9709ED9709EE9709EF48
:100B030097191919400FFFEC97FC09ED97FD09EEB2
:100B130097FE191906D5F0BFECF709EDF709EEF7C3
:100B230009EFF7191919D0E0FCD0E0FDD0E0FED0B1
:100B3300E0FF222521C582C0E0E52234FFC583C042
:100B4300E0E521C3958224F810AF088583228582CE
:100B5300218008858322858221D2AFCEF0A3E520B0
:100B6300F0A37808E608F0A3DEFAEFF0A3E581240A
:100B7300FAF8E608F0A3E608F0A3E608F0A30808ED
:100B8300E608F0A3E608F0A315811581D0E0FED0B6
:100B9300E0F8158115811581E8C0E0EEC0E022C0C0
:100BA300D02521C582C0E0E52234FFC583C0E0E53E
:100BB30021C3958224F310AF088583228582218087
:100BC30008858322858221D2AFC8F0A3E9F0A3EA86
:100BD300F0A3EBF0A37908E709F0A3D8FAECF0A3AC
:100BE300EDF0A3EEF0A3EFF0A3D0E0F0A3D0E0F09C
:100BF300A3D0E0F0A3E520F0A3E5F0F0A322852243
:100C030083852182E0C0E0A3E0F9A3E0FAA3E0FB3F
:100C1300A37808E0F608A3DFFAE0FCA3E0FDA3E075
:100C2300FEA3E0FFA3E0C0E0A3E0C0E0A3E0F5D0B3
:100C3300A3E0F520A3E0A3F5F010AF088583228598
:100C430082218008858322858221D2AFD082D083FE
:100C5300D0E0F8D0E032121334B90003020C98E468
:100C63009005017816791A8002F0A3D8FCD9FA7A94
:100C7300167B1E90008678EA79018015E493A3AD74
:100C830082AE838A828B83F0A3AA82AB838D828E0A
:100C930083D8E9D9E775820E7583FE7405120FDDDB
:100CA30075820475832E7400120FDDE47375F010E2
:100CB3008E238F248582288583278521828522831D
:100CC300E0CEA3E0CF852882852783EBC9EAC8ED70
:100CD300CBECCAC3E833C8E933C9EA33CAEB33CB35
:100CE300C3EA9EF526EB9FF525B35004AB25AA2650
:100CF300EC33CCED33CDD5F0DAAE23AF2422121290
:100D0300AC601C1212E8601712135B7007121349D0
:100D13007001D322C0D01213497006D0D0B322C3BE
:100D23002233D0D0501430E0F6C3E7960809E79693
:100D33000809E7960809E796B32220E0D5E6970865
:100D430009E6970809E6970809E697B322D083D006
:100D530082ECC0E0EDC0E0E493A3FCE493A3FDEDDB
:100D63004C600D120E28EC24FFFCED34FFFD80EFE8
:100D7300E493A3FCE493A3FDED4C600D120EC5ECCC
:100D830024FFFCED34FFFD80EFD0E0FDD0E0FCE478
:100D930093A3C0E0E493C0E022D083D082E9C0E013
:100DA300E493A3C386F0C5F095F0F908E493A38612
:100DB300F0C5F095F0700BE493A3C3994005E904E3
:100DC3008002A3E475F002A42582F582E5F0358361
:100DD300F583D0E0F9E493A3C0E0E493C0E0228577
:100DE3002283852182E0A3FEE0A3F5207808E0A317
:100DF300F608DFFAE0A3FFE0A3C0E0E0A3C0E0E071
:100E0300A3C0E0E0A3C0E0E0A3C0E010AF08858288
:100E1300218583228008858221858322D2AFD083D6
:100E2300D082020FE3C0E0C3E49396087401939663
:100E330018400FE4936670080874019366187000F5
:100E43007019A3A3C3E49396087401939618A3A3FC
:100E5300400DD0E0D0E0D0E0020D8CA3A3A3A3A368
:100E6300A3D0E0227404800474028000CCC0E0EDBF
:100E7300C0E0E521C39CCCAD2250011D10AF068C10
:100E8300218D2280068C218D22D2AF120F5FD0E0FC
:100E9300FDD0E0FC2274028000CCC0E0EDC0E0E5B0
:100EA30021C39CCCAD2250011D10AF068C218D2295
:100EB30080068C218D22D2AF120F3DD0E0FDD0E011
:100EC300FC22C0E0C0F088F0E49366700808740167
:100ED3009366187000A8F0A3A3700BD0F0D0E0D0F5
:100EE300E0D0E0020D8CA3A3D0F0D0E022D083D0D9
:100EF30082CCC0E0E493A36006120F9F1470FAE45F
:100F030093A360061210DF1470FAD0E0FCE493A3FD
:100F1300C0E0E493C0E022C0E074F2120BA2A2AFDF
:100F2300E433FED2AFC2C0E5D1A2E4500312156E82
:100F3300EEA2E092AF7F01020C01CAC0E0E493A3EA
:100F4300C582CCC582C583CDC583F0A3C582CCC57C
:100F530082C583CDC583DAE5D0E0CA22CAC0E0E00A
:100F6300A3C582CCC582C583CDC583F0A3C582CC7E
:100F7300C582C583CDC583DAE6D0E0CA22700908ED
:100F83000808226016181818C6C333C608C633C625
:100F930008C633C608C633C6D5E0EA22C0E0E493E8
:100FA300A3D39C5010E493A3C39C400AD0E0D0E0A9
:100FB300D0E0020F0DA3A3A3D0E022C008C3E096A4
:100FC300F50808A3E096420808A3E096420808A3A0
:100FD300E09645087001D3D00822C09FF59FE473C3
:100FE300D09F22D083D082C09FE493C0E07401934A
:100FF300C0E0740293F59F2200C0D0252110AF08F2
:10100300F521500C05228008F52150020522D2AFAC
:10101300D0D0227404800A740380067402800274A0
:1010230001C0E0F404121031D0E01212F72225219E
:10103300F58210AF08F521400C15228008F52140F8
:10104300021522D2AF85228322C0E0C0D0E8C0E0DF
:10105300A8A8D2AFC2C7E8A2E792AFD0E0F8D0D039
:10106300D0E032BB0102E722C082C08389828A8337
:10107300BB0003E08002E493D083D0822260160891
:101083000808C6C313C618C613C618C613C618C69F
:1010930013C6D5E0EA22C3E0C696F608A3E0C696D7
:1010A300F608A3E0C696F608A3E0C696F622252125
:1010B300F8E43522F9222521FAE43522FB22252101
:1010C300FCE43522FD22252110AF08F521400C1543
:1010D300228008F52140021522D2AF22C0E0E4931A
:1010E300A36C7009D0E0D0E0D0E0020F0DA3A3D031
:1010F300E022E76670100809E766700A0809E766E8
:1011030070040809E76622E066701008A3E06670C1
:101113000A08A3E066700408A3E06622C3E7960802
:1011230009E7960809E7960809E796A2D265D0333E
:1011330022C3E09608A3E09608A3E09608A3E096EE
:10114300A2D265D03322181818E4C396F608E496A1
:10115300F608E496F608E496F622C3E096F008A3B0
:10116300E096F008A3E096F008A3E096F022C3E629
:1011730097F60809E697F60809E697F60809E69749
:10118300F622181818E60846087009E626087005BE
:10119300E633F4220822191919E70947097009E708
:1011A30027097005E733F4220922C3E493960874F0
:1011B3000193960874029396087403939622E62784
:1011C300F60809E637F60809E637F60809E637F6BA
:1011D30022700422600D18C6C333C608C633C6D5B1
:1011E300E0F41822E657F60809E657F60809E65729
:1011F300F60809E657F622E026F608A3E036F608D5
:10120300A3E036F608A3E036F622E026F008A3E0D2
:1012130036F008A3E036F008A3E036F022E056F6F5
:1012230008A3E056F608A3E056F608A3E056F62214
:10123300E493F608740193F608740293F6087403B2
:1012430093F622E647F60809E647F60809E647F665
:101253000809E647F622E056F008A3E056F008A393
:10126300E056F008A3E056F022C6F4C608C6F4C65A
:1012730008C6F4C608C6F4C622C3E09608A3E096DF
:1012830008A3E09608A3E09622C3E7960809E79629
:101293000809E7960809E7962275D00075813F751E
:1012A300210175220500020C59E6084608C31346BE
:1012B30008336002E633F422600C08C6C313C61871
:1012C300C613C6D5E0F422E0F608A3E0F608A3E0CF
:1012D300F608A3E0F622E6F008A3E6F008A3E6F09A
:1012E30008A3E6F022E7094709C31347093360025D
:1012F300E733F422CAC0E0E6F0A308DAFAD0E0FA52
:1013030022E8F0A3E9F0A3EAF0A3EBF022E0FAA3CA
:10131300E0FBA3E0FCA3E0FD22EAF0A3EBF0A3ECE7
:10132300F0A3EDF022E0F8A3E0F9A3E0FAA3E0FBD9
:1013330022E5C754F84401F5C77901222521F58236
:10134300E43522F58322E72719471947194722C2B3
:10135300AF75D69F02000022E626184618461846A7
:1013630022120FE6E7DD03120FE617DE03120FE684
:1013730077DE03120FE60BDF03120FE6BCDF031267
:101383000FE60DE003120FE651E003120FE6EBE068
:1013930003120FE65BE103120FE68AE103120FE685
:1013A30090E203120FE6BAE203120FE60EE3031212
:1013B3000FE6E2E303120FE610E603120FE6BEE6C2
:1013C30003120FE62BE903120FE6B0E903120FE64F
:1013D300B3EC03120FE6E7EE03120FE623EF03125B
:1013E3000FE67CF003120FE68FF003120FE6CCF04A
:1013F30003120FE695F203120FE6A16F00120FE638
:101403001D7000120FE6507000120FE67E7000127E
:101413000FE6BC7000120FE6F97200120FE61873A4
:1014230000120FE65D7300120FE6F37300120FE66E
:101433003F7400120FE6D37400120FE6AC7500126E
:101443000FE6087600120FE6667600120FE6D976ED
:1014530000120FE61D7700120FE6757700120FE6F4
:10146300977700120FE6277800120FE6B87800127C
:101473000FE6047900120FE6307900120FE6717956
:1014830000120FE6077B00120FE6F37B00120FE654
:10149300CE7C00120FE625F405120FE658F4051270
:1014A3000FE678F405120FE69FF405120FE6CCF56C
:1014B30005120FE6EDF505120FE698F605120FE695
:1014C300158A06120FE61A8A06120FE64D8A0612CD
:1014D3000FE612FC05120FE6D9FC05120FE6EBFC32
:1014E30005120FE6E58A06120FE6F68A06120FE6E4
:1014F300108B06120FE6FD7F00120FE6E8FF0312C2
:101503000FE681FF01120FE691FF01120FE6A6FF1E
:1015130001120FE6EFFF01120FE6368506120FE602
:10152300BA8506120FE6228606120FE6718B0612A3
:101533000FE66BEA05120FE679EA05120FE6F2EA07
:1015430005120FE6CBEB05120FE68EED05120FE643
:101553001F8B06120FE679CB05120FE6E5CB0512BA
:101563000FE688CC05120FE6FDCD05120FE664CE1B
:1015730005120FE6B1CE05120FE60ACF05120FE6EC
:101583008ECF05120FE6C3CF05120FE6E1CF05128A
:101593000FE667D005120FE6EAD005120FE6F7D083
:1015A30005120FE616D105120FE642D105120FE61A
:1015B300ACD305120FE6ECD305120FE628D40512BF
:1015C3000FE63CD405120FE655D405120FE647D5B6
:1015D30005120FE6FAD505120FE60ED605120FE631
:1015E300648106120FE6888106120FE6A1810612B6
:1015F3000FE6DF8106120FE60F8206120FE63C822A
:1016030006120FE6A28206120FE6A58206120FE665
:10161300AF8206120FE6BC8206120FE62EF7051202
:101623000FE64EF705120FE68DF705120FE6ABF73F
:1016330005120FE6C6F705120FE62CF805120FE6A2
:1016430038F805120FE695F805120FE6A4F805120F
:101653000FE6C8F805120FE689F905120FE696F9A9
:1016630005120FE6A7F905120FE6C98806120FE661
:10167300118906120FE63D8906120FE61CDB0512DF
:101683000FE670DC05120FE67EDC05120FE691DC37
:1016930005120FE6A6DC05120FE6BBDC05120FE60A
:1016A300CEDC05120FE64ADD05120FE6AFDD0512AB
:1016B3000FE645DE05120FE61EDF05120FE62EDFED
:1016C30005120FE63DDF05120FE6308806120FE61E
:1016D300548806120FE67C8806120FE6A4880612C9
:1016E3000FE6A87D00120FE6CF7D00120FE6ED7D19
:1016F30000120FE65C7E00120FE61EF105120FE6E4
:1017030037F105120FE643F105120FE657F1051203
:101713000FE675F105120FE67FF105120FE689F169
:1017230005120FE69CF105120FE626F205120FE6ED
:101733009BF205120FE6CFF205120FE61DF3051219
:101743000FE66AF305120FE685F305120FE68FF332
:1017530005120FE6B5F305120FE61AF405120FE6AC
:1017630038FF03120FE65AFF03120FE6578B0612D8
:101773000FE6EDBA05120FE619BB05120FE636BBED
:1017830005120FE649BB05120FE664BB05120FE60F
:10179300BEBB05120FE6ECBB05120FE600C0051237
:1017A3000FE65EC105120FE690C105120FE6F3C105
:1017B30005120FE678C305120FE6A0C305120FE664
:1017C300B5C305120FE6C5C305120FE605C405121E
:1017D3000FE647C405120FE657C405120FE6068449
:1017E30006120FE6208406120FE6488406120FE65F
:1017F300618406120FE6858406120FE6A38406129F
:101803000FE6BA8406120FE6E88406120FE6038594
:1018130006120FE6A18A06120FE6E2E605120FE6AC
:10182300F2E605120FE6F7E705120FE629E80512BF
:101833000FE659E805120FE67CE805120FE693E878
:1018430005120FE6CDE805120FE632E905120FE6A1
:1018530074E905120FE6BBE905120FE6E8E9051284
:101863000FE613EA05120FE6008006120FE620804A
:1018730006120FE6348106120FE6378106120FE6D1
:101883003B8706120FE6718706120FE68987061259
:101893000FE6CB8706120FE6DB8706120FE61F88DB
:1018A30006120FE687C405120FE6CAC405120FE637
:1018B3002FC505120FE64EC505120FE6F0C505123A
:1018C3000FE6F9C505120FE64AC605120FE673C601
:1018D30005120FE680C605120FE6F2C605120FE6E3
:1018E30080C705120FE6C5C705120FE6FEC705122E
:1018F3000FE663C805120FE68CC805120FE603C98D
:1019030005120FE652C905120FE68FC905120FE63D
:10191300C4C905120FE6D6C905120FE6E8C90512B8
:101923000FE607CA05120FE610CA05120FE6CCCA66
:1019330005120FE60FCB05120FE64DCB05120FE68E
:101943009AFF04120FE6C68206120FE6D5F90512B6
:101953000FE60AFA05120FE652FA05120FE6ABFB81
:1019630005120FE6008005120FE6268105120FE629
:10197300628105120FE6208305120FE64E830512DE
:101983000FE6B88505120FE6F88505120FE69A876C
:1019930005120FE6308805120FE68A8805120FE656
:1019A3001A8905120FE65E8905120FE6A089051252
:1019B3000FE6058B05120FE6858C05120FE6C68E22
:1019C30005120FE6F48E05120FE6208F05120FE6BF
:1019D300298F05120FE6868F05120FE61F90051259
:1019E3000FE6369305120FE6BC9305120FE6408906
:1019F30006120FE6568906120FE6608906120FE6F5
:101A030095FB04120FE6ABFB04120FE64FFC041226
:101A13000FE68EFC04120FE6ABFC04120FE6DCFCAF
:101A230004120FE629FD04120FE65DFD04120FE612
:101A330098FD04120FE68DFF04120FE63B86061293
:101A43000FE69A8606120FE6D88606120FE6198766
:101A530006120FE6008004120FE60C8004120FE654
:101A63006E8004120FE6788004120FE607810412D9
:101A73000FE6438104120FE63A8204120FE69782BF
:101A830004120FE6258304120FE6768304120FE691
:101A9300F68304120FE6B88504120FE6BD8704121D
:101AA3000FE6B78804120FE6E98904120FE63B8CB0
:101AB30004120FE67E8D04120FE6238E04120FE646
:101AC300D69204120FE6CC9304120FE6629404122A
:101AD3000FE6879404120FE6249504120FE641954E
:101AE30004120FE6619504120FE6CF9504120FE678
:101AF300EC9504120FE61A9604120FE6B29704123D
:101B03000FE6D39704120FE6799804120FE6C198F3
:101B130004120FE61F9904120FE6C29904120FE68E
:101B2300279A04120FE6869A04120FE63C9B0412CE
:101B33000FE6AB9B04120FE6E69B04120FE65A9CDA
:101B430004120FE6BB9D04120FE6529E04120FE629
:101B5300F19E04120FE64DA104120FE6AFA1041289
:101B63000FE63CA304120FE66AA304120FE68DA549
:101B730004120FE637A804120FE64AA904120FE66F
:101B830042B105120FE65BB205120FE6E3B305128D
:101B93000FE6FDB305120FE610B405120FE62FB4DE
:101BA30005120FE6F8B405120FE65DB605120FE64F
:101BB30089B705120FE6F3B705120FE6BEB9051292
:101BC3000FE653E305120FE60EE405120FE674E485
:101BD30005120FE695E405120FE670E505120FE610
:101BE3002EC904120FE65DC904120FE6E1C90412FF
:101BF3000FE644CB04120FE62ECC04120FE6EACD17
:101C030004120FE60FCE04120FE661CE04120FE6A4
:101C1300F3CE04120FE63FCF04120FE652CF0412A5
:101C23000FE6AFCF04120FE67CD004120FE6EED01E
:101C330004120FE625D104120FE66ED104120FE64B
:101C430016D304120FE6F5D304120FE643D504129C
:101C53000FE626D604120FE6B2D604120FE6EBD631
:101C630004120FE60AD704120FE655D704120FE643
:101C730075D704120FE632D804120FE655D90412B1
:101C83000FE6B0D904120FE6F6D904120FE6FEDA16
:101C930004120FE699DD04120FE6BFDD04120FE60E
:101CA3003ADE04120FE65FDE04120FE6D3DE0412FF
:101CB3000FE6B1DF04120FE6EFDF04120FE679E05F
:101CC30004120FE660E104120FE663E104120FE66B
:101CD3006DE104120FE677E104120FE693E10412BB
:101CE3000FE605E204120FE63EE204120FE66AE293
:101CF30004120FE691E204120FE6B5E204120FE6B6
:101D0300F0E204120FE663E304120FE697E3041212
:101D13000FE6A1E304120FE6DDE304120FE612E47B
:101D230004120FE631E404120FE65B8A06120FE693
:101D3300738A06120FE6F8FF01120FE65FAD041275
:101D43000FE682AD04120FE6E0AE04120FE629AFF0
:101D530004120FE695AF04120FE6F3AF04120FE679
:101D6300F6AF04120FE647B004120FE6BCB004123C
:101D73000FE64CB104120FE64FB104120FE6D0B1D7
:101D830004120FE611B204120FE636B604120FE680
:101D9300E0B704120FE634B804120FE6C3BB041213
:101DA3000FE6FBBC04120FE6CFBD04120FE639BEEB
:101DB30004120FE663BE04120FE61CC004120FE602
:101DC300FFC104120FE6AEC204120FE64BC30412A6
:101DD3000FE636C404120FE69EC604120FE6F8C7D8
:101DE30004120FE666C804120FE61B9405120FE6F1
:101DF300C59405120FE6309505120FE64B950512B3
:101E03000FE6CC9505120FE6269605120FE66D96A2
:101E130005120FE6CC9605120FE6DE9705120FE6C4
:101E2300079B05120FE6379C05120FE6BF9C0512B0
:101E33000FE6C89E05120FE67A9F05120FE614A05F
:101E430005120FE6E5A005120FE6A0A205120FE6A4
:101E53003EA405120FE6CBA405120FE6F1A5051269
:101E63000FE604D902120FE667D902120FE6AFD9C3
:101E730002120FE6F3D902120FE64EDA02120FE650
:101E8300ABDA02120FE6E6DA02120FE668DB0212A1
:101E93000FE6C2DB02120FE640DD02120FE6B8DDE9
:101EA30002120FE6D5DE02120FE6FDDE02120FE686
:101EB30050E002120FE661E002120FE679E002122F
:101EC3000FE682E102120FE65FE202120FE65CE325
:101ED30002120FE680E302120FE697E302120FE607
:101EE300B8E302120FE6DAE302120FE6F9E3021295
:101EF3000FE6D1E402120FE62BE502120FE6C2E76A
:101F030002120FE61BE802120FE63AE802120FE68E
:101F13002AE902120FE660E902120FE693EA0212BF
:101F23000FE612EB02120FE64EEB02120FE688EBFE
:101F330002120FE6F7EB02120FE6ACEC02120FE609
:101F430084EE02120FE691EF02120FE609F102127C
:101F53000FE6FFF202120FE675F502120FE64FF7D6
:101F630002120FE610F802120FE688F802120FE6CB
:101F73009FF802120FE696F902120FE68AFA02128E
:101F83000FE6F9FA02120FE6D3ED05120FE683EF1F
:101F930005120FE642F005120FE6AAF005120FE64E
:101FA3006EDF05120FE68CDF05120FE6D0DF051298
:101FB3000FE6F6DF05120FE61DE005120FE635E02A
:101FC30005120FE64DE005120FE6EFE005120FE6EE
:101FD300AFAD05120FE654E205120FE65DE20512FE
:101FE3000FE666E205120FE66FE205120FE679E2ED
:101FF30005120FE63BDD03120FE622D605120FE6AC
:1020030060DA05120FE66EDA05120FE673DA0512CF
:102013000FE689FE05120FE6D4FF02120FE6B6891A
:1020230006120FE6C68906120FE69CFB02120FE6A4
:10203300008002120FE6328002120FE69E80021227
:102043000FE6398102120FE6D88102120FE6DFD6BE
:1020530003120FE63F8202120FE6588202120FE6C6
:102063007E8202120FE6A08202120FE6DE820212C5
:102073000FE6228302120FE6448302120FE6A683C1
:1020830002120FE66D8402120FE6248502120FE698
:10209300968502120FE6688602120FE6B2860212D6
:1020A3000FE6058702120FE66B8702120FE6A5877C
:1020B30002120FE6F78702120FE6138802120FE6E9
:1020C3003E8802120FE6458A02120FE6998B02122E
:1020D3000FE6BB8B02120FE6EF8B02120FE6108C9A
:1020E30002120FE61F8C02120FE62A8C02120FE671
:1020F300DA8C02120FE6438D02120FE6F08D021204
:102103000FE6288E02120FE6EE8E02120FE6FB8F09
:1021130002120FE6459002120FE6D49002120FE668
:10212300389102120FE6739102120FE6DF93021247
:102133000FE6339502120FE66C9802120FE63999F7
:1021430002120FE6C79902120FE6F09902120FE688
:10215300629A02120FE6F69A02120FE6549B0212DB
:102163000FE6469C02120FE6689C02120FE6C49D1E
:1021730002120FE6DD9D02120FE6F09D02120FE63A
:102183005F9E02120FE66B9F02120FE6789F021208
:102193000FE6819F02120FE659A102120FE67FA2FA
:1021A30002120FE68FA202120FE691A302120FE6AC
:1021B30008A402120FE637A402120FE64CA502127E
:1021C3000FE618A702120FE6F0AA02120FE6FAAA08
:1021D30002120FE60EAB02120FE618AB02120FE665
:1021E30022AB02120FE62CAB02120FE645AB021232
:1021F3000FE64FAB02120FE6C3AB02120FE6CEABF4
:1022030002120FE6F3AB02120FE6FEAB02120FE669
:102213004CAC02120FE656AC02120FE661AC02128E
:102223000FE685AC02120FE6A9AC02120FE605AD6C
:1022330002120FE64BAD02120FE668AD02120FE673
:10224300E5AD02120FE61CAE02120FE65BAE021200
:102253000FE6A8AE02120FE62AAF02120FE6C3AFD3
:1022630002120FE693B102120FE6F1B102120FE66A
:102273000DB302120FE633B302120FE672B4021269
:102283000FE698B702120FE6D9B902120FE6B5BBF3
:1022930002120FE64BBC02120FE672BE02120FE6E9
:1022A3001EBF02120FE653BF02120FE6B8BF02129F
:1022B3000FE6C2BF02120FE6ECC102120FE613C310
:1022C30002120FE653C302120FE6F9C302120FE61E
:1022D3008AC502120FE613C702120FE633C70212B2
:1022E3000FE68CC702120FE68EC802120FE6D8C89B
:1022F30002120FE628C902120FE612CA02120FE6F3
:1023030087CA02120FE6A1CB02120FE61CCC0212FF
:102313000FE621CD02120FE6CCCF02120FE6EBCF70
:1023230002120FE64CD102120FE60ED302120FE691
:1023330062D302120FE61AD402120FE6C9D40212B4
:102343000FE61FD502120FE6D5D502120FE66AD6A5
:1023530002120FE6D6D602120FE610D702120FE6CC
:1023630041D702120FE69DD802120FE60080031236
:102373000FE6328003120FE6698003120FE65282E2
:1023830003120FE6358303120FE68D8303120FE664
:10239300C88403120FE6148503120FE63C88031268
:1023A3000FE69E8B03120FE6EB8C03120FE6818D73
:1023B30003120FE68D8D03120FE6BF8D03120FE696
:1023C300418F03120FE6DC9003120FE68491031290
:1023D3000FE6C79103120FE62D9203120FE64A92FE
:1023E30003120FE67A9203120FE6AF9203120FE67F
:1023F3007F9303120FE6289403120FE6AC960312A1
:102403000FE6CC9703120FE6B59803120FE6379940
:1024130003120FE6569D03120FE6939D03120FE678
:10242300EB9D03120FE61E9E03120FE69F9E0312FF
:102433000FE6EC9E03120FE6779F03120FE6C99F88
:1024430003120FE6A0A003120FE659A103120FE631
:10245300F4A103120FE60DA503120FE62DA6031236
:102463000FE6DAA903120FE6F8AA03120FE6FBAA96
:1024730003120FE62AAB03120FE630AD03120FE689
:1024830009AE03120FE63EAE03120FE646AF031288
:102493000FE6FCAF03120FE69DB103120FE6C2B1C4
:1024A30003120FE601B203120FE673B203120FE633
:1024B30057B303120FE624B403120FE65AB60312FE
:1024C3000FE6CBB603120FE60BB703120FE66CB79A
:1024D30003120FE62FBB03120FE61EBC03120FE617
:1024E30005BD03120FE67DBD03120FE63FBE0312C7
:1024F3000FE63DC003120FE655C003120FE669C095
:1025030003120FE6A1C003120FE6CFC003120FE6BA
:1025130056C203120FE661C303120FE6B3C30312DD
:102523000FE614C403120FE6C6C403120FE6EDC48C
:1025330003120FE6D1C503120FE682C603120FE69C
:1025430071C803120FE6A6C803120FE60EC90312E1
:102553000FE63DCA03120FE6EFCA03120FE620CBC4
:1025630003120FE638CB03120FE6C7CB03120FE6B5
:102573007BCE03120FE653D003120FE66FD0031284
:102583000FE68BD003120FE659D103120FE63DD5A8
:1025930003120FE6058501120FE63D8501120FE6D2
:1025A3001B8A01120FE6618A01120FE6AE8B01123C
:1025B3000FE6198C01120FE6A28D01120FE6B290FD
:1025C30001120FE6CD9101120FE6DF9B01120FE618
:1025D300729C01120FE6C49F01120FE6C0A0011204
:1025E3000FE61BA101120FE665A201120FE653A32A
:1025F30001120FE6EFA501120FE663A701120FE622
:10260300E6A701120FE6E9A701120FE65EA8011281
:102613000FE668A801120FE675A801120FE6A0A83D
:1026230001120FE650A901120FE649AA01120FE6A3
:10263300F4AA01120FE612AB01120FE62BAB011243
:102643000FE654AB01120FE676AB01120FE6CBADEA
:1026530001120FE690AE01120FE6D5AE01120FE69E
:1026630054AF01120FE600B001120FE632B00112AF
:102673000FE686B001120FE6C1B001120FE608B1F2
:1026830001120FE658B101120FE65DB101120FE618
:10269300B1B101120FE6DDB101120FE6C6B20112AC
:1026A3000FE617B301120FE677B301120FE6D1B3AA
:1026B30001120FE66CB401120FE6ABB701120FE67D
:1026C300BDB801120FE637BA01120FE647BD01127A
:1026D3000FE6E5BD01120FE6DBC001120FE69AC15A
:1026E30001120FE6DEC101120FE689C301120FE6E4
:1026F3009DC301120FE6A7C301120FE6B1C3011276
:102703000FE6BDC301120FE6E2C301120FE6BBC51C
:1027130001120FE610C601120FE61AC601120FE6E8
:1027230024C601120FE699C601120FE6E8C601128C
:102733000FE6F9C701120FE646C801120FE653C9A7
:1027430001120FE697C901120FE63DCA01120FE607
:1027530030CB01120FE6F6CB01120FE619CD0112B1
:102763000FE637CE01120FE61FCF01120FE637CF68
:1027730001120FE68ECF01120FE698CF01120FE67A
:10278300A3CF01120FE6C1CF01120FE609D0011248
:102793000FE66BD001120FE692D001120FE6A4D020
:1027A30001120FE63FD101120FE674D101120FE6B9
:1027B3005BD201120FE6A0D201120FE686D30112FB
:1027C3000FE6ADD301120FE630D401120FE6A1D408
:1027D30001120FE62AD601120FE656D701120FE6B1
:1027E30019D801120FE6E1D801120FE66BD90112D5
:1027F3000FE693DA01120FE635DB01120FE6B0DBC9
:1028030001120FE66CDC01120FE6B6DC01120FE6D3
:1028130010DD01120FE6E8DD01120FE60BDE0112F7
:102823000FE6BEDE01120FE6E0DE01120FE649DF1E
:1028330001120FE65FE101120FE657E201120FE604
:102843001BE301120FE64DE501120FE697E50112B6
:102853000FE6E7E501120FE64BE601120FE6ADE6E0
:1028630001120FE6DBE601120FE6FFE601120FE6A7
:1028730034E701120FE665E701120FE698E701124C
:102883000FE6E8E701120FE63BE801120FE660E905
:1028930001120FE600EB01120FE65BEB01120FE6EC
:1028A30084EB01120FE611EC01120FE67FEC01122B
:1028B3000FE68DEC01120FE6B1EC01120FE606ED07
:1028C30001120FE621ED01120FE6D3ED01120FE61F
:1028D3000BEE01120FE64EEE01120FE6B1EE0112FE
:1028E3000FE6B3F001120FE6DDF001120FE6D4F1AB
:1028F30001120FE6DEF201120FE68EF301120FE66C
:102903006CF401120FE6A4F401120FE6C5F40112F0
:102913000FE607F501120FE669F501120FE673F5ED
:1029230001120FE683F501120FE6BEF501120FE661
:102933009EF901120FE68BFB01120FE671FD0112E6
:102943000FE608FE01120FE6AAFE01120FE692350A
:1029530000120FE63D3600120FE6EB3600120FE6CB
:10296300F13700120FE6113800120FE63A39001260
:102973000FE6F53A00120FE6683B00120FE60C3C37
:1029830000120FE6183D00120FE6833D00120FE61A
:10299300BF3D00120FE6023E00120FE63D3E00125D
:1029A3000FE67F3E00120FE6143F00120FE6903F42
:1029B30000120FE65A4000120FE6374100120FE6ED
:1029C300CF4100120FE6E94100120FE6194200124F
:1029D3000FE64A4200120FE6104300120FE62043AF
:1029E30000120FE66F4300120FE67C4300120FE65E
:1029F300854300120FE6034400120FE65F44001202
:102A03000FE6AA4400120FE6C54400120FE6F04495
:102A130000120FE60D4500120FE6194500120FE6EE
:102A2300B04600120FE6C94600120FE64E470012E9
:102A33000FE6614700120FE6804700120FE62448B5
:102A430000120FE6A54900120FE6584B00120FE6DD
:102A5300EE4B00120FE6F14B00120FE6614C001231
:102A63000FE67F4C00120FE6164D00120FE65E4D87
:102A730000120FE6614D00120FE6274E00120FE61B
:102A8300944E00120FE6BA4E00120FE6454F0012A5
:102A93000FE6634F00120FE6A94F00120FE65D50D9
:102AA30000120FE6A75000120FE6D65000120FE6F1
:102AB300335100120FE6685100120FE694510012D1
:102AC3000FE6A25100120FE6EF5100120FE65F521C
:102AD30000120FE6A85200120FE6F45200120FE69E
:102AE300205300120FE62B5300120FE64953001236
:102AF3000FE6345400120FE63E5400120FE67954E9
:102B030000120FE6895400120FE6DD5400120FE69F
:102B1300F15400120FE6205600120FE6355600124C
:102B23000FE6C35600120FE6085700120FE694573C
:102B330000120FE69F5700120FE6E15800120FE64E
:102B4300FC5800120FE6485900120FE6B75900125D
:102B53000FE6F05900120FE60A5A00120FE66A5AFE
:102B630000120FE6095B00120FE6545B00120FE63A
:102B7300245E00120FE6D65E00120FE6435F0012DA
:102B83000FE6836100120FE69B6100120FE69E6160
:102B930000120FE6AA6100120FE6BE6100120FE6F3
:102BA300C66100120FE6F96100120FE6FC62001223
:102BB3000FE6896300120FE6F96300120FE67B64E8
:102BC30000120FE63C6500120FE65B6500120FE68C
:102BD300FC6500120FE6596600120FE65C660012F0
:102BE3000FE6D06600120FE61F6800120FE6256994
:102BF30000120FE6B06900120FE6CB6A00120FE66F
:102C0300936B00120FE6C46B00120FE6E76B001222
:102C13000FE6F06B00120FE61F6C00120FE6AF6CAD
:102C230000120FE6656D00120FE6DA6D00120FE673
:102C3300816E00120FE6F66E00120FE62D6F001282
:102C43000FE66B6F00120FE6D4DA03120FE6A5ADA1
:102C530005120FE63EAD05120FE623AD05120FE692
:102C630080AC05120FE680AB05120FE69EAA051293
:102C73000FE68EA805120FE69CA705120FE63AA7EA
:102C830005120FE681FB04120FE677FB04120FE631
:102C93009AE205120FE68BD703120FE60CFB041220
:102CA3000FE640F904120FE64DD603120FE607D6DE
:102CB30003120FE6FEF804120FE60AF804120FE6F9
:102CC300DEF704120FE695F704120FE6D6F60412A8
:102CD3000FE6AEF304120FE652F104120FE622F1EF
:102CE30004120FE6D2F004120FE66CF004120FE6A2
:102CF3002BF004120FE65DEF04120FE6F7EE041259
:102D03000FE696EE04120FE636EE04120FE6D4EC4D
:102D130004120FE668EC04120FE6BCEB04120FE694
:102D2300B7EB04120FE6A0EB04120FE6D2D50312A1
:102D33000FE66BEB04120FE69FD503120FE68AD55D
:102D430003120FE65FD503120FE6FCB005120FE680
:102D5300C8B005120FE671B005120FE6FDE70412C5
:102D63000FE6FAE704120FE6B8E704120FE6FAAE2D
:102D730005120FE6A5E704120FE69AE704120FE621
:102D830069E704120FE661E504120FE61D820212E1
:102D93000FE6D4E404120FE64CAE05120FE690E4FE
:102DA30004120FE664E404120FE6D2FE03120FE6E8
:102DB300A5FE03120FE672FE03120FE64AFE03128C
:102DC3000FE6EBFD03120FE6CBFD03120FE696FDB4
:102DD30003120FE642FA03120FE62AF803120FE674
:102DE30014F603120FE694F503120FE640F50312EF
:102DF3000FE64CF403120FE6F4F403120FE631E18D
:102E03000500000080FB0000228F000100BC1E872C
:102E1300000100BA1E35000400801E250002008454
:102E23001E26000200861E27000200881E280001BD
:102E330000921E29000100931E84000400AA1B8631
:102E4300000100241E2A000100941E2B000100959E
:102E53001E2C0001009A1E2D000800B81B2E000135
:102E6300009B1E2F0001009C1E300001009D1E319F
:102E73000001009E1E32000100C01B33000100C18F
:102E83001B340001009F1E36000100C21B380001E5
:102E930000A01E39000100991E83000200B81E63C2
:102EA300000100CD1B64000100961E650001009720
:102EB3001E6D000100CE1B71000800B01B660001EF
:102EC30000B71E43000100A81E44000200A91E45CE
:102ED300000100AB1E46000200AC1E47000800C5FF
:102EE3001B48000100AE1E4B000100AF1E04000191
:102EF30000BB1EA1000100BF1E37000100BE1E88DB
:102F0300000100BD1E3C000100C31B3D000100A1E8
:102F13001E49000200B01E67000100CF1B4D0002D6
:102F230000B21E4E000100B41E4F000200B51E3E4B
:102F3300000100A71E51000100A31E52000100A4BE
:102F43001E53000100A61E54000100C41B00000014
:102F530000000000013636010100010201000103F7
:102F63000100010401060605020000070100340800
:102F730001000F090401010D0100FF0E08000017F5
:102F8300020000190100FF1A0100011B0100FE1CD1
:102F93000100081D0200001F0100012001000121A2
:102FA3000200002301000F24020000260100012774
:102FB300010008280200FF2A0100072B0102402C10
:102FC3000100002D0100012E0100012F0100FF303F
:102FD300010B1D310800003A0100083B01000F3CC2
:102FE3000100013D0100FF3E0400004204000046D1
:102FF3000400004A0400004E04000052040000567E
:103003000400005A040000000000002001038500B2
:1030130000010020010485000002002001FF84005C
:10302300000300200100850000040042011F84000A
:10303300000500420184830000060042011284005F
:1030430000070030010185000000404201128400A6
:1030530000FDFF2101FB842A0400003905861A2A9A
:1030630004C80039058A1A2A04C90039058E1A2AA8
:103073000401022123561E2A04210221234A1E2A67
:1030830004220221234C1E2A04200210234E1E2A4E
:1030930004250210234F1E010371030103010301E1
:1030A30003010301032203020301031003000300CE
:1030B300030003000300030003000342030003248F
:1030C300030603000300030403120325032303255C
:1030D3000323030403040300030003000344030066
:1030E3000300032303000365032100350381030069
:1030F3000305030003000300030003250323030365
:103103000271023001600211027002010202020226
:10311300028002100261023A0041006302730272EC
:10312300026202430200021302380000020002049A
:10313300021202000200020002000204020402372B
:103143000037003C0244020002390000020002651D
:10315300020002350281020002050282028302009C
:10316300020101710101010101110101013101019B
:103173000101018001100161013B0014006301732F
:10318300017201620143010001130106013D013592
:103193000004011201000100010001000104010407
:1031A30001330133013C01440132013600000100C7
:1031B30001650100013500810100010501820183E0
:1031C3000100010304710402046004110470040289
:1031D30004020401040204100461040004140463DF
:1031E3000473047204620443040004130406040019
:1031F3000400040404120400040004000400045145
:1032030004640000040004000444040004000400F7
:10321300040004650400043504810464000504000B
:103223000483040004030071003001600011007086
:1032330000310220035004800010006100000014DC
:103243000063007300720062004300000013000675
:103253000000000000040012000000000000000055
:103263000004000400370037003C02440000000063
:10327300000000000065000000350081000000052B
:103283000000008300000036000100060000000F6C
:103293000000000000000000000000000003FFFF2A
:1032A30000000403FFFF0000FFFF0FF4010005C44B
:1032B300040320000100000B0000000000000000D8
:1032C30003010F00000000000000000000000000E8
:1032D30000000000000000000000000000000000EB
:1032E3000000000000381B681B3E1B721A441B6E53
:1032F3001B441B7A1B4A1B721A441B6E1B501B7206
:103303001A00000000561B721A000000005C1B72BA
:103313001A621B721A000000000000000000000087
:10332300000000000000000000000000000000009A
:10333300000000000000000000000000000000008A
:10334300001300B41D1F00BA1D1F80C01D00001A0A
:103353001E01001A1E0200601D02805A1D03006632
:103363001D04006C1D0480721D0500781D06008479
:103373001D3100961D33009C1D3400A21D3600A88C
:103383001DFFFF00000A000000020000000400000F
:1033930000080000001000000020000000400000B2
:1033A3000080000000000100000002000000040093
:1033B3000000080000001000000020000000400092
:1033C3000001D02506002608FA250B1E26101E2311
:1033D30002D62505EE2507DC250CB8250DC425648A
:1033E3001421FF0000030003000400080010001F65
:1033F300003E007B00F600EC01D703AF075D0FB979
:103403001E713D000007ECFDFDFDECDCDCCCBCAC2B
:10341300AC9C9C8C7C7C6C6C5C5C5C4C4C3C3C2C19
:103423002C1C1C00160F00000B150B020002220FB0
:103433003300000E0F000000000000000000000039
:1034430000000000005A6967426565416C6C696160
:103453006E63653039D0D1D2D3D4D5D6D7D8D9DAA3
:10346300DBDCDDDEDF150AF4D4C0A595827263616F
:1034730055504900034D4C4651181A25050230306A
:1034830016181920231A1C1E30003C40423A3F3FB5
:10349300392F473000011916181616182303003068
:1034A3003017181921301B1D1F300C0E020B040B93
:1034B3000A0708000F02040201010101090200BE0C
:1034C300040AE8030000F6FB01000300000000000B
:1034D300E80308340E0068347F0005101E04041E40
:1034E30010080C2800041202000909033C0C08050B
:1034F30008150300FF030C0AFFE4F0A3F0A3F0A3F5
:10350300221234FCF022901D16124B081229BA2203
:1035130012351722E0F508E4F509F50AF50B22E860
:1035230024FBF582E934FFF58322E82411F582E4D4
:1035330039F583E022F58312353E22E0F508A3E056
:10354300F50922122C367404120FFB7F08020DE2D8
:103553007401F0900B5EE0640F227409120FFB7F7D
:1035630004020DE2EA2413FAE43FFB122B64E9227E
:103573007905122B70740622A3A3E024F5C39413D8
:1035830022122C42900B7E126AC67A147B0022C050
:1035930082C083901CF574AEF0A37429F0A374C0A9
:1035A300F0A37429F0901CF97496F0A37429F0A386
:1035B3007490F0A37429F0A374CCF0A37429F0A33E
:1035C30074D2F0A37429F0A374C6F0A37429F0A3F2
:1035D300747EF0A37429F0901D0574A2F0A37429DE
:1035E300F0A374A8F0A37429F0A3749CF0A3742926
:1035F300F0A374D8F0A37429F0901D161254D76069
:1036030009901D16124B0412195E901D13124E1EC3
:103613007408126173A3F0901DBFF0901D18F07C25
:103623000BFDF97A197B1D1218B07C0B7D00790014
:103633007A247B1D1218B0024C7874F7120B36747F
:10364300F71210C9EAFEEBFF1236D07405124F3C95
:103653007403F01237E7124F1E2430FCE43FFD8C55
:10366300821236C81236DC6008123EF574FFF0A3EE
:10367300F0EE242EE43F1C1CFD8C82F583A3E0C0F6
:10368300E08A828B83124BD0D0E01236DC888289A9
:103693008312540B2403F0EE123EFF12133F740304
:1036A300F0900B73120E6B74021210C1123AC9120E
:1036B3000FFBE9F5087007EEFAEFFB122A4AA90897
:1036C3007409023F0EF583E08882898322EA123669
:1036D300D52212561A3FF583221263F3124F2AE8BA
:1036E300F0A3E91266CAE02274F0120B36EAFEEB8D
:1036F300FF8C0C8D0D890B1237E7F583124F327453
:103703001012133FE0F508A31236CAF0E824FFF5C0
:1037130082E9123ADBE508F0E824FEF582E9123A81
:10372300DBE50BF0900B78E0C0E0E824FDF582E9DF
:10373300123ADBD0E0F0900B77E0C0E0E824FCF530
:1037430082E9123ADBD0E0F0741212133F12353AD9
:10375300123522E509F0E824FAF8E934FFF9888202
:10376300F583E508F0EE2404FCE43FFD88088A8233
:103773008B83E0F50E8C828D83E0250EC3950812B2
:1037830063F3124D58850C82850D83A3A3A3A3A3D2
:10379300A3A3A3E064037009EE124F0CF0A3E4802B
:1037A30003123AE0123AE87409F075081975091D15
:1037B300750A00780812101A125EBD120FFB750805
:1037C300FF7509FF780812101EAC0CAD0D123AC933
:1037D300120FFBE9F5087007EEFAEFFB122A4AA96C
:1037E3000802354EEA2402FAE43FFB8A8222C082B1
:1037F300C083901D35E0C39408400474078001E042
:103803008A828B83F033333354F8F9024C7874F0A3
:10381300120B368A088B09890A8C0E8D0F750C00E2
:10382300A2AFE433F50BC2AF901D2F8045123913BD
:10383300503D12392D64037036E50824F9F508E587
:103843000934FFF5098E828F83A3A3E02405FCA32B
:10385300E03400FDAA08AB09121A4EE50824FFF56F
:1038630008E50934FFF5097410250CF50C150A1247
:103873003D02126E7BE50A6004EE4F70B0E50BA2C9
:10388300E092AFA2AFE433F50BC2AF901D2F803EA1
:103893001253E48882F5831246588508828509838A
:1038A300F08A828983123924A3A3E0C0E0E50824C7
:1038B300FFF582E509123ADBD0E0F0E50824FEF5D6
:1038C30008E50934FFF509050C150A123D02123B00
:1038D30056602112392D640270F1123913EE40B093
:1038E300125053A2E550E4850E82850F837401F0D4
:1038F300E50A70D7E50BA2E092AF850882850983BC
:10390300E50CF0E50824FFFAE50934FFFB02354E28
:10391300123919A2E622EE2411F582E43FF583E081
:103923002212392822125429A3228E828F83A3A321
:10393300124BD4125B002274F0120B3674F3121084
:10394300C9740312133FE9F0740212133FEAF08BB8
:103953000B852182852283E4F0041210B9122960B9
:10396300E9F8900B5DE0292437F508FA7B0012187B
:10397300C28A0C8B0DAE0CAF0DEA4F7003023AC036
:10398300EA2402F50EE43FF50FA808EA28F8E43B21
:10399300F9850E82850F83124454900B5DE0F9FA8A
:1039A300C3E49AFA95E0FB850E82850F83E02AF53E
:1039B3000CA3E03BF50D900B5B12353A750A0078CA
:1039C3000812101AE9FC7D00AA0CAB0D124E8E12E0
:1039D3000FFBAC21AD22740112133FE0F9E50C2477
:1039E300FFFAE50D34FFFB1229668A828B83E4F02C
:1039F300E50BC454F0F9901DC0E0C4333354C0F850
:103A0300900B57E0A2E0E43313134849440FC0E09E
:103A1300EA24FFF582EB123ADBD0E0F0EA24FEF56C
:103A23000CEB34FFF50D740312133FE0F87402122C
:103A3300133FE0C454F048850C82850D83F0A80C35
:103A4300850E82850F831261402AC3988E828F83ED
:103A5300A3A3A3A3F0850E82850F83E8F0A3E50D4E
:103A6300F0123AE0123AE8E4F0740C12133FE4F077
:103A730075082475091D780812101A125EBD120FFD
:103A8300FB852182852283E06009EE240E125055C6
:103A93004408F0122B52E9F9E4F508F50978081205
:103AA300101E74061210C1123ACB120FFBE97006F6
:103AB300EEFAEFFB800BEEFAEFFB1218C87A007BED
:103AC30000740D02354B7903EEFAEFFB122B6A7487
:103AD3000222EE24FFF582EF34FFF58322EE123645
:103AE300D5E4F0A322F0123AED22EE125DE03FF5A9
:103AF300832274F2120B368A0C8B0DA2AFE433F5DA
:103B03000AC2AF750800750900901D2F802C123D65
:103B1300125024850C82850D83A3A3125ED08E825E
:103B23008F83A3A3124B04122B58E9600A123D0D95
:103B3300C2E6F08E088F09123D02123B5670CFE5A4
:103B43000845096006123BEFD2E6F0E50AA2E092CF
:103B5300AF800DE0FEA3E0FFEE4F227402120FFBD5
:103B63007F06020DE274F0120B368A0E8B0F8C0C5B
:103B73008D0D750A00A2AFE433F50BC2AF7E007F53
:103B830000901D2F8010AE08AF09123BE71250536F
:103B9300D2E7F0124AE2124AF66034123BEFA2E790
:103BA30050F1850882850983A3A3120E6BAC0CAD7B
:103BB3000DAA0EAB0F122B5E7402120FFBE960D33A
:103BC300EE4F60C2123F897006123C01D2E4F0E569
:103BD3000BA2E092AFEE4F6006122A44750A01A9C8
:103BE3000A02354E123919D2E4F0EE22E508125DCD
:103BF300FA3509F583E022AA82AB83121A4E8E822C
:103C03008F83A3A3124BD4E02274F2120B3674FEFB
:103C13001210C9750C00750D00852182852283E47D
:103C2300F0A3F0A2AF33F50AC2AF901D2F126E7B43
:103C3300802BEE24FBF582EF34FF123538780C121B
:103C4300101E123CF0120FFBEEFCEFFDAA21AB227B
:103C53001218E6AE08AF09901D35E014F0EE4F6080
:103C63002B123D12501DEE240BF8E43FF98882F528
:103C730083E024FFF0A3E034FFF0888289831254A9
:103C8300D760AF8E0C8F0D123D0280A1E50AA2E032
:103C930092AF901D35E0602C900B5EE0640F6006E0
:103CA300901DBFE0701E7A0D7B1D122C429084F78D
:103CB300120E677A0D7B1D124D00120FFB800574E7
:103CC300F0124BE1AA21AB221218EC8A088B09AE41
:103CD30008AF09EA4F6013122972123D0DA2E28E5A
:103CE300828F83A350D974E980D7023B5EEEFCEF49
:103CF300FD7A2F7B1D1218F87402228E0A8F0BEEA9
:103D030024FBF582EF34FFF58322EE12391A2212D7
:103D13003919A2E72274F7120B36EAFEEBFF1229D8
:103D230072124BCD120CAEE96401900B7A700AE06B
:103D33002401F8A3E034008003124B53F9125255C7
:103D4300124D58901D35E0701F900B5EE0640F70AC
:103D5300177A0D7B1D122C429084F7120E677A0D91
:103D63007B1D124D00120FFBA8A8C2AF901D35E0BA
:103D730004F0E8A2E78004E508A2E092AF025163F1
:103D830074F7120B36EAFEEBFFEA123DB9F0122983
:103D930072EEFCEFFD7A2F7B1D1218F2A8A8C2AFBA
:103DA300901D351246A7900B5EE0640F70057908ED
:103DB300122B0A02516312391AC2E42274F7120B4E
:103DC3003674EA1210C9EAFEEBFF900B57E0602A43
:103DD3008521828522837401F012133FE4123E741D
:103DE30012133F123BFAC0E0740A12133FD0E012E1
:103DF3006160740B12133F1253C07416023F0E74AA
:103E0300F7120B36EAFEEBFF122954E9F974DC6969
:103E1300601E74DD69601974E469601474F3696089
:103E23000F74DE69600A74DF69600574DB6970070B
:103E3300EEFAEFFB122B1002516374F7120B367478
:103E4300EB1210C9EAFEEBFF8521828522837406FB
:103E5300123E7412133FAA82AB83121A4EEE240849
:103E6300FCE43FFD740A12133F1253C07415023F62
:103E73000EF0EA2413FCE43FFD74022274F7120BE4
:103E83003674F71210C9EAFEEBFFEA2430125055DC
:103E9300605DEA123EFF12133F7403F0900B73123E
:103EA3000E6B123EF5120E6B900B86E0F974041242
:103EB30010C1EEFAEFFB12295A7404120FFBE9F951
:103EC30074DC69602374DD69601E74E469601974CD
:103ED300F369601474DE69600F74DF69600A74E863
:103EE30069600574DB697007EEFAEFFB122B1002B1
:103EF30036C3EE242EF582E43FF583221262D1AA63
:103F030021AB22121A4E7408227403120FFB0251C2
:103F13006374F2120B368A0C8B0D750A00750B0055
:103F23007508E7A2AFE433F509C2AF901D2F8003F4
:103F3300123CFE123B566025123D1250F3123F898C
:103F430070EEEE2432124120E06870E4780A121019
:103F53001E123CF0120FFB901D35E014F0E509A290
:103F6300E092AFEE4F6013EEFAEFFB12297279F095
:103F7300EEFAEFFB122B10750800A908AA0CAB0D83
:103F8300122B10023B63123AEDE064012274F41227
:103F93000B3674F71210C9EAFEEBFF8A82F583A38E
:103FA300E064F3700302402E8A828B83A3E064DF14
:103FB30060798A828B83A3E064E8606F8A828B8353
:103FC300A3E064DB60651229B4E9F5087055EE24BB
:103FD3000E125055604D1240386048740812133F5A
:103FE300124047120E6B7508FF7509FF780812100F
:103FF3001E8E828F83A3A3A3A3A3A3A3A3E0F97419
:10400300041210C112295A7404120FFBE9F5087443
:10401300F369600F74DF69600A74E869600574DB33
:1040230069700F8E828F83A3E508F0EEFAEFFB121F
:1040330029C002355DEE240FFAE43FFB790912290A
:10404300F6EA4B2274021258C674FFF0A3124054CE
:1040530022125414A3A32274F1120B36EAFEEBFFCF
:104063007508008A82F583A3A3A3A3A3A312357BB8
:1040730040037508E88A828B83A3A3A3A3A3A3A306
:10408300A3A3A3E0C3941040057508E880138A82B4
:104093008B83A3A3A3A3A3A3A3A3A3A3E0640F60FE
:1040A3000B901D9CE0540870037508E8EA240B127A
:1040B3004120A3A3A3A3A3A3A3A3E0C398500DEA02
:1040C300240B125055640F60037508E8900B77E0DA
:1040D300F47003A3E0F470037508EC7A237B0012F9
:1040E30019588B0BA90B901D1612412F60278E8236
:1040F3008F83A3A3A982AA83890C8A0D750E0078E6
:104103000C12101A7C237D00901D16E0FA124E8EBD
:10411300120FFB800375081AA908025EB8F582E442
:104123003FF583E0F88A828B83A3A322EAF0A3EB13
:10413300F0EA492274F5120B36EAFEEBFF8A82F5A8
:1041430083A3A3A3A3A3A3A3A3E0900B5E1241C7DE
:10415300E0900B79F0EA240B125055900B59124161
:10416300C7A3E0901DC0F0F912170C901DC0E060CA
:104173000BEE240412504724061241BD901DBF12BA
:1041830035536004740180027400901D1812680B8B
:1041930012101A7C0B7D007A197B1D124E8E120FA2
:1041A300FBEE2418F508E43FF509780812101A7C91
:1041B3000B7D007A247B1D024E7BFAE43FFB79E101
:1041C3001216F4221267F5A3A3A3A32274F7120B0A
:1041D30036EAFEEBFF8A82F583A3E070031235090A
:1041E30012637C02516374F7120B36EAFEEBFF9005
:1041F3001D161254D76010901D16124B04901D16F5
:10420300E4F0A3F012195E8E828F837408124BE8D8
:10421300121FFA02516374F6120B36901DBFE06051
:1042230010901D18E0700A124237EA4B6003122AFD
:104233004A026476900B59E0FB900B79E0FA900BFD
:104243005EE0F912296C2274F4120B3674E7121033
:10425300C9EAFEEBFF750B018A82F583A3A3A3A32F
:10426300A3A3A3E0A2E25069EA242BF582E43F1260
:104273005ECEEA2413FAE43FFB122978E9705290E8
:104283008457E064017005750B00804512430912E1
:10429300101A7C0B7D0074111210B9124E8E120F7E
:1042A300FB122B52E9FA740E1210B18808890978AF
:1042B3000812101E750830750900780812101EEEDA
:1042C300126129120E6B1262C37901123575120F36
:1042D300FB8521828522837410F01262C37402125B
:1042E300133FAA82AB83121A42EE242B126ABC74C8
:1042F3000B12133F124D58740D12133FE50B126549
:1043030035741902355FEE240812681322C082C087
:1043130083901DC0E06003122BC4024C78C082C09E
:1043230083901DB774F5F0A3741CF0A374F9F0A384
:10433300741CF0A37405F0A3741DF0901EF574C6ED
:10434300F0A37431F0901DA1744EF0A37429F09082
:104353001D3A7484F0A37429F0901D3C748AF0A371
:104363007429F0901D9CE0440202477CC082C08304
:10437300EAFCEBFD7903025483C082C0837908020F
:1043830065F6C082C08374FE1210C9901D42743258
:10439300F0A3742AF0901D44742CF0A3742AF080C7
:1043A300077A2F7B1D1243E1901D2F1254D770F112
:1043B300901D311254D760097A317B1D1243E1807D
:1043C300EF901D2FE4F0A3F0901D35F0A3F0A3F0C0
:1043D300901D50746EF0A3742AF07402801C12189E
:1043E300EC852182852283EAF0A3EB1243F5122B9D
:1043F3004022F0AA21AB22227411120FFB024C7847
:1044030074F6120B36E9FF748C29F582E43434F523
:1044130083E493FEFA7B001218C2EA4B6007EA2E8C
:1044230012445180267A027B001218C2EA4B6017AD
:1044330074A22FF582E43434F583E4938A828B8368
:10444300F0A3741A12481A7A007B00026476124DA4
:1044530047E81263F0A3A3A3A3E4F022E9FC7406E4
:1044630029F8EAA2E0501EE875F00A84E5F0F96045
:1044730014740A28C399F8E9C394054004740A28FC
:10448300F8740B28F8ECC394134004791480027970
:1044930006E82979002409F85001097A0A7B0012F9
:1044A300096EE8F9020FE3C082C083901D9CE054BB
:1044B30002600A122000E960047901800279000297
:1044C3004C78C082C083901D9CE054026014901D00
:1044D30035E0700A1254D460091244EA5004790199
:1044E30080027900024C7812352DA2E722C082C0E7
:1044F30083908454E0F8901D37E0C3985005121858
:10450300C280047A007B00024C78C082C083122BE5
:10451300407900024C78C082C08374FE1210C985B2
:104523002182852283EAF0A3EB124683A3A3A3A3EC
:10453300A3E0600A14605724FE605A0245F3900B0F
:104543005EE0640F6012122B16E9700C124AFE90A3
:104553001D3E124BD0120CAE900B86E0C0E08521BD
:10456300828522831253F7D0E01246837414125EBD
:1045730014FCA3E0FD7A317B1D1218E6A8A8C2AF94
:10458300901D371246A77920122B0A0243DD1249E8
:1045930051741580D9124951A3A3A3A3E06051120A
:1045A3004951123C05C0E0852182852283E024061F
:1045B300F582E43BF583D0E0125E142402F8A3E015
:1045C3003400F98882F583E02401FAA3E03400FB88
:1045D30088828983EAF0A3EB125E14124991852144
:1045E300828522836013124658600512466A40484A
:1045F300AA21AB22122B40809212465860F2124637
:104603006A5021124677FA852182852283A3E0C866
:10461300240612494DF874B712560C3434F583E46A
:10462300936A601485218285228312465864087038
:10463300BF124677640870B81246771412468B246B
:104643000AC0E0852182852283124BD0D0E0124636
:104653008B0402457112465C22124B53C82406F5A3
:1046630082E438F583E02285218285228312465C29
:10467300C3940A22852182852283123928A3E0224A
:10468300124695F583888222124695C8240612495C
:104693007B22F0852182852283124B5322A8A8C254
:1046A300AF901D36E004F0E8A2E792AF22C082C0CB
:1046B30083901D461254D76008124958120CAE80DD
:1046C300027900024C7874F7120B36EAFEEBFFEA2C
:1046D300123AEE7401124D06F8A3E0F91236D01225
:1046E3004D58EA2435125055C0E0EA2413F582E40C
:1046F3003FF583D0E0F0EA2436125055C0E0EA24B7
:1047030014F582E43FF583D0E0F0EA2438125055E3
:10471300C0E0EA2418F582E43FF583D0E0F0EA2410
:104723002FF582E43FF583120E6B1262D0EA243137
:10473300125055F9123ACF120FFBE9F5087007EE44
:10474300FAEFFB122A4AA908025163C082C08312FE
:104753002B16E96004792080027901024C78C0822B
:10476300C083EA2411124772D2E0800DEA240DF5CA
:1047730082E43BF583E022F0A3F0024C78C082C0D0
:104783008312476F64017011124814400C8A828BA4
:1047930083A3E0F9122B108066124805A2E650129B
:1047A3008A828B83A3E0F9901D40124BD0120CAE8A
:1047B300804D12476F6401700D12481450088A82AD
:1047C3008B83743080368A828B83A3E0641B8A8256
:1047D3008B83700474228024A3E0700D12476FF85A
:1047E300748112560C3434800B12476FF874A21282
:1047F300560C3434F583E4938A828B8312481A026D
:104803004C7812480922EA2410F582E43BF583E050
:1048130022124809A2E322F0901D97E0F91218CE64
:104823002274F7120B36E9FE1254D4700302494A7C
:10483300EE6014741B6E701AE8125DE039F583E0C4
:1048430064057003024922901D39124958A3E402FA
:10485300492974E96E7068E82412F582E439F58316
:10486300E0700B122006E9600512499B606179EE46
:10487300121676901D38124972901D38603A12490B
:104883009E901D38700B12497214F01218380249A9
:104893004A124990C2E7124B39240D12494D640361
:1048A300700912496B124AEFD2E2F079ED121676D3
:1048B300124983120CAE807812495E74E9806774E2
:1048C300E16E703E122006E9605512499B705090CC
:1048D3000B80E0C0E012496B2412F582E438F583C3
:1048E300D0E0F0900B6FE0C0E0901D3812496712E2
:1048F3004967D0E0F0900B6FE004F07901121820C3
:104903008045741C6E7018901D38124B04901D481E
:10491300124BD0120CAE901D38E4F0A3F080289017
:104923001D3812495EEEF0901D38124B04122A38DE
:10493300124B1AE0548060031265E5901D38E4F0D1
:10494300A3F07910122B0A02516312497B228521AD
:1049530082852283A3E0F583888222124962221290
:104963004BD8A32212542522901D3812540622122A
:104973005406241212497B22F582E438F583E0229F
:10498300901D38124B08901D3C124BD422E0F8A323
:10499300E0C8241012497B22901D38124B21E054A9
:1049A300042274F4120B36750A00750B00A2AFE4EF
:1049B30033FEC2AF1254D46003024A98124BCD1295
:1049C3000CAEE94410F8901D2F800985080A85096B
:1049D3000B124AE2124AF67003024A98123BEF584E
:1049E3006870E8780A12101EAC08AD09123CF41284
:1049F3000FFB901D38E508F0A3E509124B39124A65
:104A0300EFA2E75003024A9F901D36E014F0EEA296
:104A1300E092AF901D38E0240EF8A3E03400F9E8EB
:104A2300FEE9FF8882F583124B04901D3812467D00
:104A3300F91229FCE9901D331261738E828F83E092
:104A43005480601812496B241312494DF912173020
:104A530012496B241412494DF9121724124B1AA34D
:104A6300E05401605F901D331254D76045124B3000
:104A73006040124B30F87900901D33124B04120939
:104A830076E8C0E0124B0ED0E0124B3EC3941340C5
:104A9300117402800FEEA2E092AF8037901D3502B1
:104AA3004A0E7400C0E0901D39E0C8124AD9D0E024
:104AB300800D124B0E7401124B39124AD97401F056
:104AC3007903800C901D38124990A2E1B3E433F9C5
:104AD300121820023562241AF582E438F58322E5A0
:104AE3000824FBF582E50934FFF58322125DFA12EF
:104AF300497E2212353EE508450922852182852219
:104B030083124B0822E0FAA3E0FB22125403241978
:104B1300F582E438F58322901D38124B2122124B83
:104B230053C8124B292212561A38F5832212540302
:104B3300241812497B22124B4BC822124B4BF5838C
:104B43008882A3A3A3A3E022F0901D38124B532223
:104B5300E0F8A3E02274F7120B36EAFEEBFF122B08
:104B63003A125052A2E3400A123F897005908452D0
:104B73008003908453E0F9EEFCEFFD7A2F7B1D1246
:104B830018FEE96038EEFAEFFB901D42124BD0128B
:104B93000CAEEE240E125055540470121246A0EEC1
:104BA3001236D1A3E05401701E122A448019EEFA82
:104BB300EFFB901D3A124BD0120CAE800A8E828FFF
:104BC30083A374F1124BE1025163901D44124BD441
:104BD30022124BD822E0F8A3E0F583888222124BFD
:104BE300E8122A3822F0EEFAEFFB22024C7174F736
:104BF300120B36EAFEEBFF7900901D9CE054027025
:104C03000CEA24331250555404600279E8901D9C39
:104C1300E05460700CEA2433125055540260027958
:104C2300E88A828B83A3A3A3A3E0F8908458E0C30C
:104C330098500279E8EA2431125055700CEA242E78
:104C4300125055700479F5800BE97005122A26E994
:104C5300F9E96007EEFAEFFB122B10025163C082F1
:104C6300C0838A828B83740DF0121FFA8007C0827F
:104C7300C083122A44D083D082020FE374F4120B50
:104C830036EAFEEBFF8A82F583E4F0A3124D065465
:104C9300049084527012E0F8901D36E0C3984012DD
:104CA30079F1122B10023562E0F8901D35E0C398BC
:104CB30050EE124D0CA3E054016037EA2437125032
:104CC30055C394054033EA243312505554057029D3
:104CD3007A4A7B1D122C42EE2437F582E43FF5839A
:104CE30012351378081210167A4A7B1D124D0012E2
:104CF3000FFBEEFA1256FD80AC79E880A5122C3634
:104D0300740422F0124D0CE022EA2433F582E43FCE
:104D1300F5832274F6120B36E9FE2451FAE43400CB
:104D2300FB1218C2EA4B6015EE8A828B83A3A3A3FE
:104D3300A3F0EA2451124D47124D5880047A007BA8
:104D430000026476F8E43BF98A828B83A3A32212E0
:104D53006AC6901E14E8F0A3E9F022024C71C082E7
:104D6300C083901D537498F0A3742AF0A374C8F001
:104D7300A3742AF0A3749EF0A3742AF0A374A4F07E
:104D8300A3742AF0A374C2F0A3742AF0A374B6F038
:104D9300A3742AF0A374B0F0A3742AF0A374CEF022
:104DA300A3742AF0A374D4F0A3742AF0A374DAF0E2
:104DB300A3742AF0A374E6F0A3742AF0A374AAF0F0
:104DC300A3742AF0A37492F0A3742AF0A3748CF052
:104DD300A3742AF0901D6F74BCF0A3742AF0A3741B
:104DE300E0F0A3742AF0A374FAF0A3742BF0A37475
:104DF300ECF0A3742AF0A374F2F0A3742AF0901DCC
:104E030093E4F0901D96F0901D7F124E1E7402F0F5
:104E1300901D88124E1E740102477C740AF0A3741D
:104E23002BF0A32274F5120B3674F11210C98521ED
:104E3300828522837402F0740112133FE9F0600447
:104E43007AFF7BFF740212133F1258BB75088B75F0
:104E5300091D750A00780812101A7C0B7D0074076F
:104E630012133FAA82AB83124E8E120FFBAA21AB01
:104E730022121FFA740F8003124E8E120FFB7F0350
:104E8300020DE27C0B7D007A8B7B1D1218A4740348
:104E93002274F7120B3674FD1210C9852182852204
:104EA30083740AF0740112133FE9F0740212133F82
:104EB300EA126535023F0C74F6120B3674F71210C2
:104EC300C9EAFEEBFFEA124F0C124F3C7402F0EA00
:104ED3002428FCE43FFDAA21AB22121A42EE24311E
:104EE300124F122433125F3412101E74021210C1B7
:104EF30079831A1A123ACD120FFBE9F5087007EEFF
:104F0300FAEFFB122A4A02646F1236D5740122F5B6
:104F130082E43FF58312353E1253DCF583124F2AA8
:104F2300E8F0A3E9F0EE22124F328A828B8322E06B
:104F330024FFF8A3E034FFF922F0A3E4F0EA123AE5
:104F4300EE2274F0120B361269A41212CA78087991
:104F53000C1209CF78081210167A827B1D0235468F
:104F630074F4120B3674C61210C9900B5EE0640F12
:104F7300600D852182852283742E1258DA80227A6D
:104F8300797B1D12358412097688088909E4F50AAC
:104F9300F50B78081210167A797B1D124D00120F4B
:104FA300FB743A02355F74F5120B36EAFEEBFF8AA7
:104FB30082F583A3E0F87078EA2430125055640236
:104FC3006007E06403600278E8EA2426F582E43FA0
:104FD300F58312357D400478E88058E87052EA245E
:104FE300261241BDEE24311250472430125055642D
:104FF30002700EEE2428126ABC900B6D124D58807D
:1050030017900B6D74FEF0A304F0EE2428FCE43F2C
:10501300FD7A647B0B121A4EEE241B12430C121002
:105023001A124E86120FFBEEFAEFFB122A86E9F8EC
:10503300E8600EE88E828F83A31262D8741712631E
:1050430082024E81FAE43FFB79501216F4EE22EE0F
:105053002410F582E43FF583E02274F6120B3674D4
:10506300F71210C9901D96E070377401F0F912170A
:10507300EAAA21AB22122B4C75088B75091D7808FF
:1050830012101E750801750900780812101E900B86
:1050930073120E6B74061210C17A03123573120F5A
:1050A300FB02647174F7120B361252837004A374FB
:1050B300EBF0901D96E0A2E25003C2E2F0E0A2E121
:1050C300500512529480098E828F83742A12638250
:1050D30002516374F4120B3674FE1210C912518913
:1050E3001253CFEC85218285228312541EE0F50BE7
:1050F3007015AA21AB2279531216F4EE2413FAE4A5
:105103003FFB794A1216F412430912101A124E8603
:10511300120FFB124AFEA90B122A7A901D96E0A2E7
:10512300E1500312529B901D96E4F0740202355F26
:1051330074F7120B36EAFEEBFF8A82F583A374EB56
:10514300F0901D96E0A2E150077A0079EB122A80D5
:10515300EEFAEFFB122AB68007EEFAEFFB122BB83A
:105163007F01020DE274F7120B36125189901D93E1
:10517300E4F0901D96F07AFF7BFF8E828F83A3E08D
:10518300F9122A7A80DA1252D47A827B1D122C42C7
:105193002274F7120B36EAFEEBFF122AB080BA74C0
:1051A300F7120B36125311A3A3A3E060047400801B
:1051B3000274EB1251E25003C2E2F0E0A2E15005A7
:1051C3001252E58011A2E0500D8E828F83742AF073
:1051D300A374EB126382EEFAEFFB122A5C80818EDA
:1051E300828F83A3F0901D96E0A2E22274F6120B45
:1051F30036EAFEEBFF901D96E0D2E1F0790112173B
:10520300EA8E828F83A3E07038122B52E9FAEE24E0
:105213000DF508E43FF509780812101E75080175AD
:105223000900780812101E125255120E6BEE24025A
:10523300FCE43FFD123573120FFBE98E828F83A3CB
:10524300F08E828F83A3E060067A00F9122A80022F
:105253006476EE240BF582E43FF5832274F7120B98
:10526300361252837004A374EBF0901D96E0A2E211
:105273005003C2E2F0E0A2E15003125294025163E0
:10528300EAFEEBFF79011217F08E828F83E0642030
:1052930022C2E1F012529B227A008E828F83A3E016
:1052A300F9122A802274F7120B361252D48E828F8F
:1052B30083A3A3A3A3E060047400800274EB1251E0
:1052C300E25003C2E2F0E0A2E150031252E50251C0
:1052D300D9EAFEEBFF79011217F07A797B1D122CC4
:1052E3004222C2E1126806E0A2E4E433FA12529DBC
:1052F3002274F7120B3612531174EB1251E7500359
:10530300C2E2F0E0A2E15003125294025163EAFEBA
:10531300EBFF79011217F08E828F83A32274F712A9
:105323000B3612533602515C74F7120B3612533696
:10533300025163EAFEEBFF7A797B1D122C42EEFAEF
:10534300EFFB122ADA2274F7120B3674EF1210C92C
:10535300EAFEEBFFEA1262C47A647B0B121A3CE9A1
:1053630060568521828522837409F0740112133FEC
:1053730074EFF01253CF740212133FEC12541EA3B6
:10538300A3E0C0E0740412133FD0E012540B64088E
:1053930070158E828F83A3A31253F7E0C0E07405C8
:1053A30012133FD0E08006740512133FE4126160CC
:1053B300740612133F1253C07411023F0EAA82AB3C
:1053C30083122B82AA21AB22121FFA221253DCF57D
:1053D300831253EEFCA3E0F922EE1253E4FB88821E
:1053E300222402F8E43FF9E8FAE922124B538882B7
:1053F300F583E0221254062407F582E438F583226C
:10540300901D38124B53C82212540F22125414E029
:1054130022F08E828F83A3A3A3A3221263F01254DC
:10542300252212542922E0F8A3E0F5838882A3A35E
:1054330022C082C083122BC4024C78C082C08390E6
:105443001DB37453F0A3741DF0A3746FF0A3741D04
:10545300F0901EEF7464F0A37431F0A37402F0A310
:105463007431F0901D9F7474F0A3742AF0901D9C06
:10547300E0440102477CC082C083EAFCEBFD790271
:10548300122B28024C7874F6120B3674FE1210C9D4
:10549300901D981254D760077A987B1D122B409069
:1054A3001D9EE4F09012191254D760208007AA21A0
:1054B300AB22122B40901D97E0F91218DA8B09A941
:1054C3000985218285228312412F70E274020264CE
:1054D30073901D38126AC6E8492274F7120B36E935
:1054E300FA7B00901D97E0F912190402516374F7D7
:1054F300120B3674F01210C9EAFCEBFDE9FE8A8246
:105503008B83E0F874AD12560C3434F583E493C006
:10551300E0740112133FD0E0F0640B700DE98A824E
:105523008B83A3F0122BA6025607E07003025607E3
:10553300640C60030255F8741A6E700B7404121332
:105543003FE4F0A30255F7740412133F1258BBEA69
:105553002432125DC4C0E0740312133FD0E012671B
:10556300F1121328740612133F1213048C828D83D5
:10557300A3A3A3A3A3A3A3A3A3126AC2740A12138C
:105583003FE8F0A3E9125611E05410600985218227
:10559300852283E48013EC2412125DC4F8900B80FF
:1055A300E0C398852182852283F0E0C0E0740C1269
:1055B300133FD0E0F0EC2415125DC4C0E0740D126B
:1055C300133FD0E0F0EC2416125DC4C0E0740E1259
:1055D300133FD0E0F0EC2417125DC4C0E0740F1247
:1055E300133FD0E0125611A3E05401600874011276
:1055F300133F7411F0740212133FEEF07401121092
:10560300B9121FFA7410023F0E28F582E422F0EC5F
:1056130012561A3DF58322240EF582E422C082C07D
:1056230083901D9EE0640370047901800279000277
:105633004C7874F7120B36901D9EE01256B074ED41
:1056430028F582741E39F583125B42C2E7F01256C5
:10565300B7A3E493FE25E0FCE433FD74ED2CF5825F
:10566300741E3D125ECEEC4D6005EE901D9EF08AD9
:10567300828B83E025E0FCE433FDE82CF582E93DF1
:10568300F583E493FCC4540F25E0F874AD12560C73
:10569300341DF5831254D77005122B94800CEC54EF
:1056A3000F1256B7124BD0120CAE02516325E0F81D
:1056B300E433F92225E0FCE82CF582E439F5832272
:1056C30074F2120B3674FE1210C9890B8A088B0907
:1056D300125762125753601A12616DF50A78081255
:1056E300101A12576F2402125EC4120FFB1256FBDC
:1056F3008003125781023B5EAA0CEFFB901D97E0DB
:10570300F91218CE2274F0120B3674FE1210C989E6
:105713000B8A0E8B0F125762F5081257536027122C
:10572300616DA808EA28124451850E08850F09F512
:105733000A780812101A12576F125EC2120FFB1268
:1057430056FB79008005125781791A740202354B92
:10575300FA7B001218C28A0C8B0DAF0DEA4F22742C
:105763007629F582E43434F583E49322A80B749705
:1057730012560C3434F583E493FC7D00EA22852130
:1057830082852283E50BF0791AAA21AB22122B1012
:1057930022C082C083E9901D9702477C74F6120BE6
:1057A3003674FE1210C9EAFEEBFFEA542070308013
:1057B30039A8A8C2AF901D37E0141246A98A828B7C
:1057C300831258A8901D9A1258BB122B1C85218254
:1057D300852283E0641560077A9A7B1D122B407A39
:1057E300317B1D1218ECEA4B70C7EF5480700C80AC
:1057F30016901D9AEAF0A3EB1258CE901D97E0F98C
:105803001218DAEA4B70EAEE5410600B8521828598
:105813002283742D1258DAEEA2E0500B8521828583
:10582300228374241258DAEE5402600B8521828598
:10583300228374251258DAEE5404600B8521828585
:10584300228374261258DAEE5408600B8521828570
:10585300228374281258DAEE5440600D7401121337
:105863003F1258C1742C1258DAEE5480600D740143
:1058730012133F1258C1742F1258DA901D98125404
:10588300D7601BA8A8C2AF901D98124B04901D9817
:10589300E4F0A31246A9A3EAF0A3E91258CE7A00D2
:1058A3007B000254CF1258AC22E0852182852283EB
:1058B300F022A3A3A3A3A3A3EAF0A3EBF022E41291
:1058C30058C622F085218285228322F0122B1C7A6E
:1058D3009A7B1D122B40221243F5122B1C22C082ED
:1058E300C083901D9A126530687002EB697007904F
:1058F3001D9AE4F0A3F0024C7874F7120B36EAFE1B
:10590300EBFFEA4F70031214F6A2AFE433F508C2BB
:10591300AF8E828F831254D76028E824FBFAE934D0
:10592300FFFB901D9A125ED0E86C7002E96D700760
:10593300901D9AE4F0A3F08E828F83E4F0A3F0121B
:10594300195E023D7AC082C083901DC17488F0A3A2
:10595300742BF0A3749AF0A3742BF0A374A0F0A398
:10596300742BF0A37456F0A3742AF0A374A6F0A3C7
:10597300742BF0A37450F0A3742AF0A3745CF0A307
:10598300742AF0901DCF74D6F0A3742BF0A374ACDB
:10599300F0A3742BF0A374B2F0A3742BF0A374BE22
:1059A300F0A3742BF0A374B8F0A3742BF0901DC074
:1059B300E402477CC082C083900B6DE064FE7003F9
:1059C300A3E0F470097C647D0B121A42801C8A8266
:1059D3008B83A3A3A3A3A3A3A3A37402F0900B6D30
:1059E300126AC28A828B83124D58024C78C082C0DD
:1059F30083900B77C3E094FEA3E094FF4004790304
:105A030080027902024C78C082C083125B4B8C8285
:105A13008D83125B00687039740268701C8A828BF4
:105A230083125A59E06870298A828B83A3125A59C8
:105A3300A3E068701C7901801A7403687013EC2466
:105A430005FC50010DEA2405FA50010B121A488097
:105A5300027900024C78A3A3A3A3A3E0F88C828D60
:105A630083A3A3A3A3A32274F6120B367E00740AA6
:105A730012133FE0125AF4FF8A828B83A3A3A3A3DA
:105A8300A3A3A3A3E06F706474026F704E8A828B2A
:105A930083C082C08388828983A3A3A3A3A3E0F5E1
:105AA3000888828983A3A3A3A3A3A3E0FBAA08D0A6
:105AB30083D082E06A7003A3E06B703088828983AD
:105AC300A3A3A3E0FA88828983A3A3A3A3E0F9EAAB
:105AD3006C7002E96D70157E01801174036F700C98
:105AE300E82405FCE439FD121A48E9FEEEF90264E4
:105AF30076F8A3E0F98882F583125B0022A3E01312
:105B030013543F540322C082C0838A828B83A3A38E
:105B1300A3A3A3A3A3A3E064027016900B6D125B6F
:105B230042687003A3E06970047901800F790080F3
