:020000040000FA
:0600000002135202080188
:03001B0002095780
:03002B0002111EA1
:03004300020FB8F1
:030053000207366B
:030073000209ACD3
:100083000207950100F0FF0700080000FFFF0000D2
:100093000504000000030001FF1E102700000020DC
:1000A300FD000206FFFF1E008000806666B6408DDD
:1000B3001D00000000000000000000000000000020
:1000C30000000000000100010001E803000000003F
:1000D3000000000000000100010001E8030000002F
:1000E300000F0000000F0000000104010C000204D7
:1000F300168401B5850204010C0002029D850000EF
:100103000001040000BD18000000E8030000FFFF29
:100113000E1988130000E803000064006400B801AE
:10012300A0BB0D00A0BB0D00020202070401071EC5
:1001330002051E020A0A010108080103B80B028026
:100143003E0102FEFFE8030A050001FFFF020A0168
:100153001401E002000000050301010F0300030086
:100163000300030003000300030003000300050072
:100173000A00140028004F009E000000DB2F00003F
:100183000000AF2E00000000FF000000FF0012136C
:1001930080604612139E603DE9687008F618F618F1
:1001A300F618F622748067F71201C50909097480ED
:1001B30067F72212139E601D121380700519191917
:1001C300801A121265701F121251C37003E667334F
:1001D30019191940071818182208080874FFF61887
:1001E300F618F618F62212125160171214367021FF
:1001F30092F01214247019501720F01408080809FB
:100203000909E7F61819E7F61819E7F61819E7F6D2
:100213002212142460E6E869701F0808E62480F6B9
:1002230008E436F618547FB47F0CE654806007F672
:10023300E418F618F622181822E9C6CC08C6CD0829
:10024300C6CE08C6CFC0E0E8C0E0EAC0E0EBC0E03D
:1002530009E9F809E7FA09E7FBE6F918E6F8C3EC58
:1002630098ED99EE9AEBC2E7F5F0EFC2E795F050FF
:100273000E600CEBCFFBEACEFAE9CDF9E8CCF8EA55
:10028300A2E7D2E7FAEB33FB13F5F0EEA2E7D2E7EE
:10029300FEEF33FFC5F013A2E730E601B313C5F059
:1002A300C3C0E0C0F07F00C39BFB605E9418600F87
:1002B300401D14601AD0E023F9D0E0F80203978AB6
:1002C300F0E9486003D2F0E4AFF0FAF9F8803BEBD1
:1002D30030E40D89F0EA6003D2F0E4AFF0F9CAF834
:1002E300EB30E30D88F0EF6002D2F0AFF0E4CAC95F
:1002F300F8EB54076014FBC3EA13FAE913F9E813A4
:10030300F8EF135002D2E0FFDBEDD0E0C0E030E7BE
:1003130039C3E49FFFF5F0EC98FC42F0ED99FD4200
:10032300F0EE9AFE42F0D0E0F9D0E0F8E5F0607A22
:10033300E923F9EE20E742D8028067C3EF33FFECED
:1003430033FCED33FDEE33FE80EAEC28FCED39FDA2
:10035300EE3AFED0E023F9D0E0F84002801BC3EE72
:1003630013FEED13FDEC13FCEF135002D2E0FF0874
:10037300B800067F7F74FF802EEF3350178CF02078
:10038300F00260100CBC000C0DBD00080EBE000492
:1003930008E860DFE933E813FFEE2313FE4F4D4C0B
:1003A3008008E95480FFE4FEFDFCEE33EF33F47084
:1003B30004FCFD7E80D0E0FBD0E0FAD0E0F8D0E092
:1003C300CFC618CEC618CDC618CCC6F92212139EB6
:1003D300700418181822121380700D74FFF6181980
:1003E300F61819F61819F622E7548066F612142443
:1003F300700F12143670F014F608F608F608F6803B
:10040300D1121436700CF608F608768008E6447F9D
:1004130080EC121254700C12126860BFE65480F61E
:10042300E480BB121268700519191980A5E8697078
:100433000C763F18768018F618F6E8F922E6CDC058
:10044300E018ECC0E0E633CD33CDD313F6E719FC67
:10045300E7191933CC33C3947F400ECD9D50240844
:10046300E65480F6E418F6800FF4043D14501408A3
:10047300E6447FF6187680E418F618F6D0E0FCD050
:10048300E0FD22CCD313CCFD18E4C6CBC0E018E4C6
:10049300C6CAC0E00808ED08C633E613F618E4330D
:1004A300C675F003C3CA97CA09CB97CB199C4004FE
:1004B3007D08802EBD000302057916B6FF050606EA
:1004C300081618C3CA33CACB33CB33CA27CA09CBDE
:1004D30037CB193CC37D08803E187D0820E75CC6F6
:1004E30033C6CA33CACB33CB33DDF1D5F0EB30E7B8
:1004F3007BCA97CA09CB974ACB199C406F4B70258F
:10050300E620E0218066187D08C3CA97CA09CB9705
:10051300CB199CD3C633C6CA33CACB33CB3350C9EA
:10052300DDE7D5F0E1D3E4C636C608C636C608C64D
:1005330036C608C636C61818188031C3CA97CA0902
:10054300CB97CB199CB34097C633C6CA33CACB33B8
:10055300CB33DD34D5F02EC6A2E0C640C8CA27CAC5
:1005630009CB37194A70BECB3CB480B90808E633CF
:1005730008E633601F181818D0E0FAD0E0FBD0E08B
:10058300FCD0E0FD22187D08CA27CA09CB37CB1956
:100593003CD3808013F618E4B67F11F618B6FF0E2D
:1005A300F618C60470D20808768080CAF618F618C2
:1005B300F680C50012139E604F1213806012E75439
:1005C3008066F61212657011121436703B09090920
:1005D300F4F618F618F618F62212125170151214C2
:1005E3002408080860EAE6447FF618768018E4F6E3
:1005F30018F62212142460161214367012E4F60848
:10060300F608F608E65480F609090918181822EACC
:10061300C0E0EBC0E0ECC0E0EDC0E0E687F0A4FB97
:10062300ACF008E687F0A42CFCE435F0FA1809E6F0
:1006330087F0A42C4B60027401CA35F0FCE433FB51
:1006430009E687F0D2F7A42CCB35F0FC1908E6872E
:10065300F0A42BCC35F0FBE433FD0819E687F0D288
:10066300E7A42C4ACB35F0CD3400FC09E687F0D261
:10067300E7A42DCC35F0FDE433FA0918E687F0D270
:10068300F7A42CCD35F0CA3400FC08E687F0D2E796
:10069300D2F7A42ACC35F07A7E20E70B0ACB33CBF2
:1006A300CD33CDCC33CC33CB3350147004ED30E0A9
:1006B3000ED2F1E4CD3DCDCC3CCC3B5005DA05C2A6
:1006C300F1EB547FC63308E63392F0FBE73309E7D7
:1006D30033C39A502D2B70190C0D4C4D7015180601
:1006E300E608C333700D20F10AA2F013F6E4188074
:1006F3000B4024E4F630F002768018F618F618F66C
:100703008024D33B14501074FFA2F013F6187680A4
:10071300E418F618F6800FA2F013F618E63303F682
:1007230018ECF618EDF6D0E0FDD0E0FCD0E0FBD0FD
:10073300E0FA22C0E074F1120BC4A2AFE433F5096E
:10074300D2AF85A708AFA1EF5508FE74105E60060F
:1007530012171575A1EF74085E600812171B75A1B7
:10076300F78024EFA2E092F0E508A2E082F05017B0
:10077300906198E0F8900B47E0C398A2D265D0331C
:100783005002E8F075A1FEE509A2E092AF7F0202F4
:100793000C23C0E074F2120BC4A2AFE433FED2AF59
:1007A3009061A4E0F8759B00E591585408600875C2
:1007B30091F71217698023E59158541060087591D9
:1007C300EF12176F8014E591A2E092F0E8A2E082A5
:1007D300F05007E0C2E0F01218C59061A3E0F8E51D
:1007E300E9585404600E12189B75E9FB906193E07D
:1007F300A2E640F2EEA2E092AF7F01020C23C0E03A
:1008030074F2120BC4A2AFE433FED2AF9061A5E041
:10081300F8E5BF585404600675BFFB1218DD80D499
:1008230012086E30F0391208B3803412086E20F0CB
:100833001430E72B74FFFCFBFA747F8022E4FCFB8B
:10084300FA7480801AB48008BC00F2BB00EF800FFA
:1008530050EBF9E4C39AFAE49BFBE49CFCE499C6ED
:10086300CC18C6CB18C6CA18C6F922E4C9C608CA2A
:10087300C608CBC6D3330308CCC63392F0C3947FE8
:10088300402E94184019C9B90704CACBCC2250256D
:10089300C309CA33CACB33CBCC33CC33D9F422F418
:1008A300600DC9CCC313CB13CBCA13CAD9F6CC2260
:1008B300E4FCFBFA2214FCFBFA22C3E498F8E49963
:1008C300F91208FE8026C3E49AFAE49BFBE920E7C9
:1008D300E91208FEE498F8E499F922C3E498F8E4ED
:1008E30099F91208FEE498F8E499F9C3E49AFAE452
:1008F3009BFB22EB20E7CFE920E7E0B90010BB0028
:1009030008E88AF084F8AAF022E4FBC8FA22EB7024
:10091300227B10C833C8C933C9335007C39AC3DB1A
:10092300F280069A50012ADBEAC833F4C8C933F4CB
:10093300C9FA2275F008E4C833C8C933C933C99A60
:10094300C99B5004C92AC93BD5F0ECFBC833F4C892
:10095300E4C9FA22C0E0C0D0E8C0E0E9C0E0C08248
:10096300C083A8F9E8C0E0900AB4E0F8743328F52E
:1009730082E4340AF583D0E0F0900AB3E0F8A3E010
:10098300687006E595900AB6F0900AB4E004F0C3E7
:1009930094804002E4F0A374C6F0D083D082D0E008
:1009A300F9D0E0F8D0D0D0E032C0E0C0D0E8C0E069
:1009B300E9C0E0C082C083900B37E0F8A3E0687021
:1009C30008539AF7A374018022C2EA900B37E0F828
:1009D300740128F074B728F582E4340AF583E0F54E
:1009E300F9900B37E0C394804002E4F080AC080830
:1009F30008EAC0E0EBC0E086F0E7A4FA180986F045
:100A0300E7A42AFA180986F0E7A42AFA180986F057
:100A1300E7A42AFA1986F0E7A4FBE5F02AFA1908F5
:100A230086F0E7A42BFBE5F03AFA190886F0E7A471
:100A33002BFBE5F03AFA18180986F0E7A4C5F02B6A
:100A4300FBE43AFA1908E7C5F0C6A426F6E5F03B3D
:100A5300FBE43AFA1886F0E7A4F6E5F00826F6E494
:100A63003B08F6E43A08F6D0E0FBD0E0FA220808A7
:100A730008E630E711121215120A89080808C6445D
:100A830080C618181822181818E9799EC608CAC60D
:100A930008CBC608CCC6C370207996CACBCC7019D4
:100AA300798ECBCC70137986CC700EF9802ACA3339
:100AB300CACB33CBCC33CC331930E7F2CCCBCA33EC
:100AC30050147004EA30E00DE4CA3ACACB3BCBCCF5
:100AD3003CCC500209C3E913C6CC182313C6CB1868
:100AE300C6CA18C6F922E4CFC0E0E4CEC0E0E4CD24
:100AF300C0E0E4CCC0E075F020E626F608E633F665
:100B030008E633F608E633F6181818EC33FCED3331
:100B1300FDEE33FEEF33FFC3EC9709ED9709EE9734
:100B230009EF97191919400FFFEC97FC09ED97FD91
:100B330009EE97FE191906D5F0BFECF709EDF70991
:100B4300EEF709EFF7191919D0E0FCD0E0FDD0E07A
:100B5300FED0E0FF222521C582C0E0E52234FFC597
:100B630083C0E0E521C3958224F810AF0885832272
:100B73008582218008858322858221D2AFCEF0A38E
:100B8300E520F0A37808E608F0A3DEFAEFF0A3E58A
:100B93008124FAF8E608F0A3E608F0A3E608F0A338
:100BA3000808E608F0A3E608F0A315811581D0E054
:100BB300FED0E0F8158115811581E8C0E0EEC0E0B4
:100BC30022C0D02521C582C0E0E52234FFC583C001
:100BD300E0E521C3958224F310AF08858322858243
:100BE300218008858322858221D2AFC8F0A3E9F052
:100BF300A3EAF0A3EBF0A37908E709F0A3D8FAEC92
:100C0300F0A3EDF0A3EEF0A3EFF0A3D0E0F0A3D0B8
:100C1300E0F0A3D0E0F0A3E520F0A3E5F0F0A322F9
:100C2300852283852182E0C0E0A3E0F9A3E0FAA353
:100C3300E0FBA37808E0F608A3DFFAE0FCA3E0FDFD
:100C4300A3E0FEA3E0FFA3E0C0E0A3E0C0E0A3E0D5
:100C5300F5D0A3E0F520A3E0A3F5F010AF0885835A
:100C6300228582218008858322858221D2AFD0828A
:100C7300D083D0E0F8D0E032121218181818120AF4
:100C8300E912131119191922121311191919080844
:100C930008E618181820E7E0120AE91212181818C3
:100CA3001822090909E719191920E7DC080808E6D9
:100CB30018181820E703020AE91212181818181254
:100CC3000AE91212181818181213111919192212F5
:100CD300140FB90003020D11E490050178AA7917E6
:100CE3008002F0A3D8FCD9FA7AAA7B1B90008678FD
:100CF3000C79028015E493A3AD82AE838A828B8341
:100D0300F0A3AA82AB838D828E83D8E9D9E775825B
:100D130035758394740512107B7582DF75832B748C
:100D23000012107B0375F0108E238F248582288593
:100D33008327852182852283E0CEA3E0CF85288285
:100D4300852783EBC9EAC8EDCBECCAC3E833C8E90E
:100D530033C9EA33CAEB33CBC3EA9EF526EB9FF5DF
:100D630025B35004AB25AA26EC33CCED33CDD5F017
:100D7300DAAE23AF242212139E601C121380601775
:100D830012142470071214367001D322C0D0121427
:100D9300367006D0D0B322C32233D0D0501430E003
:100DA300F6C3E7960809E7960809E7960809E79660
:100DB300B32220E0D5E6970809E6970809E69708E5
:100DC30009E697B322D083D082ECC0E0EDC0E0E423
:100DD30093A3FCE493A3FDED4C600D120EA0EC2451
:100DE300FFFCED34FFFD80EFE493A3FCE493A3FD4C
:100DF300ED4C600D120F3DEC24FFFCED34FFFD8044
:100E0300EFD0E0FDD0E0FCE493A3C0E0E493C0E0C6
:100E130022852283852182E0A3FEE0A3F5207808C2
:100E2300E0A3F608DFFAE0A3FFE0A3C0E0E0A3C07D
:100E3300E0E0A3C0E0E0A3C0E0E0A3C0E010AF089F
:100E43008582218583228008858221858322D2AFF2
:100E5300D083D082021081D083D082E9C0E0E493B2
:100E6300A3C386F0C5F095F0F908E493A386F0C513
:100E7300F095F0700BE493A3C3994005E904800255
:100E8300A3E475F002A42582F582E5F03583F583AA
:100E9300D0E0F9E493A3C0E0E493C0E022C0E0C350
:100EA300E49396087401939618400FE493667008D0
:100EB30008740193661870007019A3A3C3E4939692
:100EC300087401939618A3A3400DD0E0D0E0D0E0BE
:100ED300020E04A3A3A3A3A3A3D0E022740480045B
:100EE30074028000CCC0E0EDC0E0E521C39CCCAD32
:100EF3002250011D10AF068C218D2280068C218D7E
:100F030022D2AF120FFDD0E0FDD0E0FC22740280AC
:100F130000CCC0E0EDC0E0E521C39CCCAD22500184
:100F23001D10AF068C218D2280068C218D22D2AF1D
:100F3300120FDBD0E0FDD0E0FC22C0E0C0F088F06F
:100F4300E4936670080874019366187000A8F0A310
:100F5300A3700BD0F0D0E0D0E0D0E0020E04A3A346
:100F6300D0F0D0E022D083D082CCC0E0E493A36061
:100F73000612101E1470FAE493A36006121197145C
:100F830070FAD0E0FCE493A3C0E0E493C0E022C095
:100F930008C3E096F50808A3E096420808A3E09684
:100FA300420808A3E0964208A2D265D033E5087050
:100FB30001D3D00822C0E074F2120BC4A2AFE43311
:100FC300FED2AFC2C0E5D1A2E45003121679EEA25D
:100FD300E092AF7F01020C23CAC0E0E493A3C58271
:100FE300CCC582C583CDC583F0A3C582CCC582C5DC
:100FF30083CDC583DAE5D0E0CA22CAC0E0E0A3C549
:1010030082CCC582C583CDC583F0A3C582CCC582FE
:10101300C583CDC583DAE6D0E0CA22C0E0E493A35A
:10102300D39C5010E493A3C39C400AD0E0D0E0D0FB
:10103300E0020F85A3A3A3D0E022700908080822C9
:101043006016181818C6C333C608C633C608C63395
:10105300C608C633C6D5E0EA22C008C3E096F50841
:1010630008A3E096420808A3E096420808A3E09686
:1010730045087001D3D00822C09FF59FE473D09F29
:1010830022D083D082C09FE493C0E0740193C0E078
:10109300740293F59F222521F58210AF08F52140B4
:1010A3000C15228008F52140021522D2AF85228338
:1010B300227404800A74038006740280027401C0DF
:1010C300E0F404121099D0E01213AD2200C0D02531
:1010D3002110AF08F521500C05228008F52150029C
:1010E3000522D2AFD0D022BB0102E722C082C08347
:1010F30089828A83BB0003E08002E493D083D08299
:10110300226017080808C6A2E713C618C613C61834
:10111300C613C618C613C6D5E0E922C0E0C0D0E89E
:10112300C0E0A8A8D2AFC2C7E8A2E792AFD0E0F868
:10113300D0D0D0E0326016080808C6C313C618C65C
:1011430013C618C613C618C613C6D5E0EA2225214E
:10115300F8E43522F9222521FAE43522FB22252160
:10116300FCE43522FD22C3E0C696F608A3E0C6964A
:10117300F608A3E0C696F608A3E0C696F622252154
:1011830010AF08F521400C15228008F52140021507
:1011930022D2AF22C0E0E493A36C7009D0E0D0E088
:1011A300D0E0020F85A3A3D0E022C3E7960809E7A6
:1011B300960809E7960809E796A2D265D03322E795
:1011C3006670100809E766700A0809E76670040884
:1011D30009E76622C3E09608A3E09608A3E0960811
:1011E300A3E096A2D265D03322E066701008A3E094
:1011F30066700A08A3E066700408A3E06622C3E4ED
:101203009396087401939608740293960874039353
:101213009622181818E4C396F608E496F608E4969E
:10122300F608E496F622C3E096F008A3E096F008E9
:10123300A3E096F008A3E096F022C3E697F6080928
:10124300E697F60809E697F60809E697F6221919CC
:1012530019E70947097009E727097005E733F422FD
:101263000922181818E60846087009E626087005CA
:10127300E633F4220822E026F608A3E036F608A3B4
:10128300E036F608A3E036F622E026F008A3E036BF
:10129300F008A3E036F008A3E036F022E627F608CC
:1012A30009E637F60809E637F60809E637F6227045
:1012B3000422600D18C6C333C608C633C6D5E0F48E
:1012C3001822E657F60809E657F60809E657F6081E
:1012D30009E657F622E647F60809E647F60809E65F
:1012E30047F60809E647F622E056F608A3E056F665
:1012F30008A3E056F608A3E056F622E056F008A34A
:10130300E056F008A3E056F008A3E056F022E4C349
:1013130097F709E497F709E497F709E497F722C6E3
:10132300F4C608C6F4C608C6F4C608C6F4C622C383
:10133300E7960809E7960809E7960809E79622C39E
:10134300E09608A3E09608A3E09608A3E09622752A
:10135300D00075813F75210175220500020CD26012
:101363000C08C6C313C618C613C6D5E0F422E6F0AC
:1013730008A3E6F008A3E6F008A3E6F022E709478E
:1013830009C3134709336002E733F422E0F608A3E5
:10139300E0F608A3E0F608A3E0F622E6084608C351
:1013A300134608336002E633F422CAC0E0E6F0A332
:1013B30008DAFAD0E0FA22800100E9F874FF28F98C
:1013C3000470F622E0FAA3E0FBA3E0FCA3E0FD2215
:1013D300ECF0A3EDF0A3EEF0A3EFF022E0F8A3E02E
:1013E300F9A3E0FAA3E0FB22E8F0A3E9F0A3EAF013
:1013F300A3EBF022E0FCA3E0FDA3E0FEA3E0FF22C9
:10140300EAF0A3EBF0A3ECF0A3EDF022E5C754F868
:101413004401F5C77901222521F582E43522F583BC
:1014230022E62618461846184622C2AF75D69F02F2
:10143300000022E727194719471947221210849CF5
:10144300DC02121084E0DC021210847ADD02121036
:1014530084EADD0212108419DE021210841FDF02F7
:1014630012108449DF021210849DDF02121084716E
:10147300E0021210849FE2021210844DE302121064
:1014830084BAE5021210843FE60212108442E90294
:1014930012108476EB02121084B2EB021210840B4A
:1014A300ED021210841EED021210845BED02121085
:1014B30084F7EE02121084ABF00212108436A604F5
:1014C300121084B2A604121084E5A6041210841329
:1014D300A70412108451A7041210848EA9041210B9
:1014E30084ADA904121084F2A90412108488AA04FA
:1014F300121084D4AA0412108468AB04121084411D
:10150300AC041210849DAC04121084FBAC041210C2
:10151300846EAD04121084B2AD041210840AAE04BA
:101523001210842CAE04121084BCAE041210844D2D
:10153300AF0412108499AF04121084C5AF041210C3
:101543008406B0041210849CB10412108488B2047F
:1015530012108463B30412108400800512108433C4
:1015630080051210845380051210847A80051210AE
:1015730084A78105121084C8810512108490820506
:1015830012108443A00512108448A0051210847B16
:10159300A00512108489A005121084A4A0051210BE
:1015A3008439920512108400930512108412930556
:1015B300121084CBA005121084DCA005121084F64F
:1015C300A005121084F8FF0212108455A105121011
:1015D30084A09E05121084B09E05121084C59E053A
:1015E3001210840E9F051210844B9B05121084CF9A
:1015F3009B05121084379C05121084048E0512106B
:1016030084188E051210848E8E05121084DD8E05CB
:10161300121084128F05121084358F05121084580E
:101623008F05121084918F05121084C28F0512103A
:1016330084099005121084EEFF0412108491F804BB
:101643001210849FF80412108418F904121084F104
:10165300F904121084B4FB0412108405A1051210BE
:101663008485D504121084F1D50412108494D60411
:1016730012108409D80412108470D804121084BD87
:10168300D80412108416D9041210849AD9041210A3
:1016930084CFD904121084EDD90412108473DA04B0
:1016A300121084F6DA0412108403DB04121084226D
:1016B300DB041210844EDB04121084B8DD04121014
:1016C30084F8DD0412108434DE0412108448DE042E
:1016D30012108461DE0412108453DF041210840696
:1016E300E0041210841AE0041210842396051210E9
:1016F300844796051210846096051210849E960501
:10170300121084CE9605121084FB96051210846184
:1017130097051210846497051210846E97051210B2
:10172300847B97051210841F89051210843F890555
:101733001210847E89051210849C8905121084B7C7
:1017430089051210841D8A05121084298A05121036
:1017530084868A05121084958A05121084B98A0535
:101763001210847A8B05121084878B0512108498CB
:101773008B0512108481FF03121084C9FF0312101A
:1017830084F5FF0312108470E004121084C4E10492
:10179300121084D2E104121084E5E104121084FAD9
:1017A300E1041210840FE20412108422E2041210E6
:1017B300849EE20412108403E30412108499E30468
:1017C30012108472E40412108482E40412108491CF
:1017D300E404121084079E051210842B9E05121038
:1017E30084539E051210847B9E0512108477FD029C
:1017F3001210849EFD02121084BCFD021210842B71
:10180300FE021210841C8305121084358305121006
:101813008441830512108455830512108473830554
:101823001210847D83051210848783051210849A15
:1018330083051210842484051210849984051210E0
:1018430084CD84051210841B8505121084688505D8
:101853001210848385051210848D8505121084B3BC
:101863008505121084188605121084509D051210E8
:1018730084729D05121084D4FF0412108429BF04BE
:1018830012108455BF0412108472BF041210848591
:10189300BF04121084A0BF04121084FABF041210F4
:1018A3008428C0041210843CC4041210849AC50412
:1018B300121084CCC5041210842FC604121084B4F1
:1018C300C704121084DCC704121084F1C704121079
:1018D3008401C80412108441C80412108483C8040C
:1018E30012108493C8041210841B9A0512108435B5
:1018F3009A051210845D9A05121084769A051210C7
:10190300849A9A05121084B89A05121084CF9A0506
:10191300121084FD9A05121084189B05121084BBC3
:10192300FF0112108408F50412108418F504121034
:10193300841DF6041210844FF6041210847FF604FB
:10194300121084A2F604121084B9F604121084F360
:10195300F60412108458F7041210849AF704121034
:1019630084E1F7041210840EF80412108439F80489
:10197300121084859705121084979705121084AB73
:101983009805121084AE9805121084137F0012106C
:1019930084497F001210848B7F001210849B7F0088
:1019A300121084DF7F00121084C3C804121084064F
:1019B300C9041210846BC9041210848AC90412105A
:1019C300842CCA0412108435CA0412108486CA04F3
:1019D300121084AFCA04121084BCCA041210842EDD
:1019E300CB04121084BCCB0412108401CC0412105B
:1019F300843ACC041210849FCC04121084C8CC0403
:101A03001210843FCD041210848ECD04121084CBA7
:101A1300CD0412108400CE0412108412CE041210CE
:101A23008424CE0412108443CE041210844CCE04BA
:101A330012108408CF041210844BCF04121084892F
:101A4300CF041210848C9F05121084DB98051210AA
:101A530084C68B05121084FC8B05121084448C05FC
:101A63001210849D8D0512108400800412108426A8
:101A730081041210846281041210842083041210E2
:101A8300844E8304121084B88504121084F88504EC
:101A93001210849A87041210843088041210848AE6
:101AA30088041210841A89041210845E89041210A7
:101AB30084A08904121084058B04121084858C047D
:101AC300121084C68E04121084F48E041210842023
:101AD3008F04121084298F04121084868F0412102D
:101AE300841F9004121084369304121084BC930450
:101AF300121084E97F0012108474ED041210848A9A
:101B0300ED041210842EEE041210846DEE041210F4
:101B1300848AEE04121084BBEE0412108408EF04CE
:101B23001210843CEF0412108477EF041210846CBB
:101B3300F104121084509C05121084AF9C051210FE
:101B430084ED9C051210842E9D05121084B5CF04DC
:101B5300121084C7CF04121084B2D004121084CAA6
:101B6300D004121084E2D0041210844FD104121056
:101B7300847FD204121084FBD204121084C8D304CD
:101B8300121084FFD30412108427D404121084CEBD
:101B9300D40412108418D50412108430D504121002
:101BA3008465D50412108423900512108461900576
:101BB3001210848A9005121084C590051210842691
:101BC30091051210843891051210840492051210A5
:101BD300843DA10512108415B30312108449B30385
:101BE30012108420B503121084BFB603121084FEB2
:101BF300B703121084D3B80312108417BA03121058
:101C0300844DBA0312108409BB031210848CBD03E4
:101C1300121084B0BE03121084D3BE031210846664
:101C2300C203121084DDC40312108409C503121009
:101C33008495C503121084BCC503121084F7C50331
:101C4300121084D2C7031210841EFF04121084B42E
:101C5300C201121084C0C20112108422C3011210E7
:101C6300842CC301121084BBC301121084F7C30177
:101C7300121084F0C4011210844DC501121084DBCC
:101C8300C5011210842CC601121084ACC6011210B7
:101C9300846EC80112108473CA011210846DCB01C3
:101CA3001210849FCC01121084F1CE0112108434DF
:101CB300D001121084D9D00112108487D5011210DB
:101CC300847DD60112108413D70112108438D701F2
:101CD300121084D5D701121084F2D7011210841286
:101CE300D80112108480D8011210849DD8011210DB
:101CF30084CBD80112108463DA0112108484DA01D0
:101D03001210842ADB0112108472DB01121084D0BA
:101D1300DB0112108473DC01121084D8DC01121071
:101D23008437DD01121084E9DD0112108458DE01CD
:101D330012108493DE0112108407DF011210845203
:101D4300E001121084E2E10112108481E201121019
:101D530084C1E40112108423E50112108451E501CA
:101D630012108474E7011210841EEA0112108431E8
:101D7300EB011210841B94041210840897041210B0
:101D830084CE9804121084809C041210849A9C04BC
:101D9300121084AD9C04121084CC9C0412108497FE
:101DA3009D04121084499F04121084FB9F04121097
:101DB3008465A004121084F7A10412108426A304DE
:101DC3001210845FA40412108479F1041210843475
:101DD300F2041210849AF204121084BBF20412105B
:101DE3008496F30412108434E00312108463E00336
:101DF300121084DBE003121084EAE103121084461C
:101E0300E203121084B3E303121084CFE30312102E
:101E13008421E4031210845FE40312108472E40348
:101E2300121084CAE4031210848CE5031210840890
:101E3300E6031210843FE60312108477E6031210C0
:101E430084FFE703121084DEE8031210842CEA03F4
:101E53001210840FEB031210849BEB03121084DB2C
:101E6300EB03121084FAEB0312108445EC031210F7
:101E73008465EC03121084FEEC0312108484ED03DA
:101E8300121084DFED031210841FEE03121084B5C9
:101E9300F003121084CEF10312108414F203121013
:101EA3008409F30312108431F30312108434F3030F
:101EB3001210843EF3031210845AF303121084D4D5
:101EC300F3031210840DF40312108439F403121077
:101ED3008460F40312108484F403121084F5F40371
:101EE30012108408F50312108437F50312108417B7
:101EF3009F05121084239F05121084579F0512100B
:101F030084FBFF0212108405CA0312108428CA033B
:101F130012108475CB031210841EFD031210842A41
:101F2300CC0312108488CC031210848BCC031210C0
:101F330084DCCC0312108451CD031210844BDC02D9
:101F4300121084D9CD031210845ACE031210849B2D
:101F5300CE0312108487D20312108431D4031210DB
:101F63008481D40312108408D8031210843BD9034C
:101F7300121084B5DA0312108452DB031210843D6D
:101F8300DC0312108492DE0312108452EF0112104C
:101F930084FCEF0112108467F00112108482F001B7
:101FA30012108476DA0212108461F101121084A8EF
:101FB300F1011210840FF2011210848EF30112103A
:101FC30084BDF40112108445F5011210844EF7010B
:101FD300121084FBF7011210849FF8011210847011
:101FE300F9011210842BFB01121084C3FC0112109F
:101FF3008456FD011210847CFE01121084008003BC
:10200300121084638003121084AB8003121084EFD8
:1020130080031210844A8103121084A781031210D3
:1020230084E28103121084648203121084BE82034B
:102033001210843C8403121084BC8403121084178E
:102043008503121084318503121084528503121004
:1020530084AC8503121084288803121084478803F4
:102063001210843789031210846A8A03121084E9D8
:102073008A03121084258B03121084948B0312108D
:1020830084498C03121084218E03121084288F0339
:10209300121084A090031210849692031210840CE1
:1020A3009503121084E69603121084A79703121067
:1020B300841F98031210843698031210842D9903F9
:1020C300121084219A03121084909A03121084230D
:1020D30086051210847A8705121084398805121038
:1020E30084A18805121084F9FB0412108414FC04E3
:1020F30012108458FC041210847EFC04121084A570
:10210300FC04121084BDFC041210845FFD04121041
:102113008474FD0412108497FE04121084A0FE043C
:10212300121084A9FE04121084B2FE04121084BC9F
:10213300FE04121084C2E404121084CEE8041210C8
:1021430084D3E804121084D5E804121084B09405F3
:10215300121084CCFF02121084E49F05121084F441
:102163009F051210843CE90412108435AC0212104E
:102173008468AC02121084D4AC021210846FAD02D6
:102183001210840CAE0212108451AE02121084732A
:10219300AE021210848CAE02121084B2AE02121080
:1021A30084D4AE0212108412AF0212108456AF020E
:1021B30012108478AF02121084DAAF02121084A1D5
:1021C300B00212108458B102121084CAB102121064
:1021D3008495B202121084E8B2021210844EB30244
:1021E30012108488B302121084DAB30212108448E6
:1021F300B402121084B3B402121084B6B4021210E3
:102203008437B502121084CEB5021210844EB60282
:102213001210846DB602121084D1B702121084DE3C
:10222300B702121084EAB802121084F7B80212102F
:102233008400B902121084D8BA02121084F2BB02CD
:102243001210846BBC02121084DDBC02121084FFD6
:10225300BC0212108493BD0212108467BF021210D5
:10226300843EC30212108452C30212108462C3025A
:102273001210846CC30212108475C3021210847E80
:10228300C30212108488C302121084B5C302121051
:1022930084DEC302121084E9C3021210840DC40247
:1022A30012108431C4021210849BC402121084E100
:1022B300C402121084FEC4021210847BC5021210E1
:1022C30084B2C502121084F1C5021210843EC60204
:1022D300121084C4C60212108492C802121084150C
:1022E300C902121084F9C90212108460CC021210C0
:1022F30084B9CC0212108403CD021210845ECE0284
:1023030012108493CE02121084E5CE021210849A26
:10231300CF0212108449D00212108486D002121008
:10232300841BD10212108487D1021210845632000A
:10233300121084883200121084B632001210848C7A
:1023430034001210846C3500121084C4350012104E
:1023530084FF36001210844B3700121084743A0045
:10236300121084673D00121084B73E001210844D92
:102373003F00121084593F001210848B3F0012104B
:10238300840E4100121084BF420012108453430094
:1023930012108496430012108414440012108431E6
:1023A30044001210846144001210849644001210F9
:1023B300846645001210840F46001210849548006D
:1023C300121084B54900121084A04A00121084220E
:1023D3004B00121084564F00121084934F001210BA
:1023E30084EB4F001210841E50001210848850009A
:1023F300121084BE5000121084495100121084A19F
:1024030051001210847852001210843153001210BC
:1024130084CC5300121084D45600121084F0570059
:10242300121084935B00121084875C001210848A5C
:102433005C00121084B95C00121084BF5E0012109D
:1024430084985F00121084DB5F00121084316100F6
:10245300121084706100121084F961001210842D2F
:102463006200121084F262001210840A65001210D6
:10247300847B6500121084BB6500121084496600DA
:102483001210846B67001210842D680012108434BC
:102493006A001210844C6A00121084606A001210E1
:1024A30084986A00121084C66A00121084456C0076
:1024B3001210846A6D00121084C76D0012108479A3
:1024C3006E00121084A06E00121084676F00121049
:1024D30084FF6F001210842572001210845A720058
:1024E300121084BD7200121084EC730012108494D5
:1024F3007400121084C57400121084DD740012106D
:10250300846C7500121084207800121084F879000E
:10251300121084147A00121084307A00121084FE90
:102523007A00121084F17E00121084BD850112100E
:1025330084EF8501121084DE89011210842A8A0136
:10254300121084708A01121084128B011210846E8F
:102553008B01121084B38B01121084FA8C011210B8
:10256300840E8E01121084FD910112108481920158
:102573001210848E9301121084EA9301121084DAEC
:1025830095011210844F960112108459960112106E
:102593008466960112108491960112108478970133
:1025A300121084229801121084A09801121084C082
:1025B3009801121084E998011210840B99011210EA
:1025C300846B9B01121084319C01121084769C0150
:1025D300121084F39C01121084A49D01121084D65E
:1025E3009D011210841C9E01121084589E0112102A
:1025F30084A89E01121084FC9E01121084529F0134
:102603001210849E9F011210840BA0011210848665
:10261300A00112108451A20112108451A3011210BF
:102623008476A401121084B5A701121084C8AA01EC
:1026330012108485AB01121084C9AB011210847986
:10264300AD011210848DAD0112108497AD011210EB
:1026530084A1AD01121084ADAD01121084C9AD0186
:1026630012108474AE01121084B3AE01121084BD33
:10267300AE01121084C7AE0112108437AF011210DD
:102683008482AF0112108497B001121084F3B00159
:1026930012108474B10112108433B2011210843CFD
:1026A300B30112108470B4011210845EB5011210CC
:1026B3008476B501121084D1B501121084EFB501EF
:1026C30012108437B6011210845EB601121084F919
:1026D300B601121084BFB70112108451B801121051
:1026E30084CBB801121084E5B90112108492BA01A7
:1026F300121084BABB011210840ABC011210846E3A
:10270300BC01121084D0BC01121084FEBC01121053
:102713008422BD0112108457BD0112108488BD01AB
:10272300121084BBBD01121084DBBD01121084435F
:10273300BE0112108437BF0112108492BF01121020
:1027430084BBBF0112108443C001121084C6C001B0
:10275300121084F1C001121084D6C10112108462D8
:10276300F2021210849AF202121084BBF2021210C7
:1027730084FDF2021210845FF30212108469F302E3
:1027830012108479F302121084B4F30212108494A9
:10279300F70212108481F90212108467FB021210EF
:1027A30084FEFB02121084A0FC0212108424810216
:1027B300121084A28102121084FE81021210844935
:1027C30082021210846482021210848F8202121019
:1027D30084AC8202121084B882021210844F8402E5
:1027E300121084688402121084ED84021210840093
:1027F30085021210841F8502121084C385021210F1
:1028030084448702121084F788021210848D89028F
:10281300121084908902121084008A021210841EFE
:102823008A02121084B58A02121084FD8A021210E1
:1028330084008B02121084C68B02121084338C0224
:10284300121084598C02121084E48C021210840238
:102853008D02121084488D02121084FC8D02121016
:1028630084468E02121084758E02121084D28E0258
:10287300121084078F02121084338F0212108441C6
:102883008F021210848E8F02121084FE8F02121098
:1028930084479002121084939002121084BF900216
:1028A300121084CA9002121084E89002121084D38A
:1028B3009102121084DD91021210841892021210F8
:1028C300842892021210843192021210848592029B
:1028D300121084999202121084C89302121084DD9C
:1028E30093021210846B9402121084B0940212109B
:1028F300843C950212108447950212108489960233
:10290300121084A49602121084F096021210845FAF
:102913009702121084989702121084B29702121031
:1029230084F49702121084C49A02121084719B02D9
:10293300121084DE9B021210841E9E021210843633
:102943009E02121084399E02121084459E021210B8
:1029530084599E02121084619E02121084949E0276
:10296300121084969F021210841DA0021210848DEF
:10297300A0021210840FA102121084D0A10212101F
:1029830084EFA10212108490A202121084EDA2021D
:10299300121084F0A20212108464A302121084B3F2
:1029A300A402121084B9A50212108444A6021210C4
:1029B300845FA70212108427A80212108458A80269
:1029C3001210847BA80212108484A802121084B30C
:1029D300A80212108443A902121084F9A90212104A
:1029E300846EAA0212108415AB021210848AAB0201
:1029F300121084C1AB02121084FFAB021210849A2E
:102A0300DB0212108470FC03121084D3FB03121038
:102A130084C9FB0312108462FB031210844EFB0370
:102A2300121084ABFA03121084ABF903121084C49E
:102A3300F803121084B4F603121084C2F5031210C3
:102A43008460F50312108401B30312108406DB02C1
:102A5300121084D6CD03121084F7B2031210848CA3
:102A6300B203121084CAD90212108463D70212105F
:102A730084C0B0031210847EB00312108482AF03AB
:102A830012108456AF031210840DAF031210844E3C
:102A9300AE031210843AAB03121084FBA803121086
:102AA30084C8A8031210846FA80312108402A80319
:102AB300121084C1A703121084FAA603121084947F
:102AC300A60312108433A603121084D3A503121095
:102AD30084AAA4031210843EA40312108496A303B1
:102AE30012108491A30312108485A303121084B8D7
:102AF3009F03121084929F031210841AD40212109F
:102B0300846ED302121084DCD20212108496D20295
:102B130012108461D2021210842ED2021210841970
:102B2300D202121084EED1021210843BFF03121062
:102B330084309F03121084D19E03121084929E034B
:102B430012108407FF031210847F9E0312108474F3
:102B53009E03121084439E03121084309C031210B0
:102B630084A6DA02121084A39B0312108407F101D6
:102B73001210845F9B03121084339B03121084C3CF
:102B8300BE0412108496BE0412108463BE04121095
:102B9300843BBE04121084DCBD04121084BCBD044B
:102BA30012108487BD0412108433BA041210841BDC
:102BB300B80412108405B60412108485B5041210EB
:102BC3008431B5041210843DB404121084E5B404B6
:102BD300121084B0FE03121084BECB0300000080E9
:102BE300FB000022E4738F000100761C87000100C4
:102BF300741C350004003D1C25000200411C260006
:102C03000200431C27000200451C280001004F1C42
:102C130029000100501C840004009A198600010059
:102C2300B81B2A000100511C2B000100521C2C0070
:102C33000100561C2D000800A6192E000100571C88
:102C43002F000100581C30000100591C3100010005
:102C53005A1C32000100AE1933000100AF193400D1
:102C630001005B1C36000100B019380001005C1C38
:102C730039000100551C83000200721C630001002F
:102C8300BC1964000100531C65000100541C6D0055
:102C93000100BD19710008009E1966000100711C36
:102CA30043000100621C44000200631C4500010054
:102CB300651C46000200661C47000800B419480062
:102CC3000100681C4B000100691C04000100751C15
:102CD300A1000100791C37000100781C8800010065
:102CE300771C3C000100B1193D0001005D1C490047
:102CF30002006A1C67000100BE194D0002006C1C33
:102D03004E0001006E1C4F0002006F1C3E000100CC
:102D1300611C51000100B219520001005F1C5300F5
:102D23000100601C54000100B31900000000000002
:102D3300000000002001BC85000001002001B785D0
:102D4300000002002001B885000003002001BB85BC
:102D53000000040042019D83000005004201EF8250
:102D6300000006004201EA83000007003001B98534
:102D73000000004042014B840000FDFF2101B385A8
:102D83002A040000390573182A04C80039057B1882
:102D93002A04C900390577182A0401022123081CD3
:102DA3002A0421022123F11B2A0422022123F31BDB
:102DB3002A0420021023F51B2A0425021023F61BE4
:102DC3000C005500390581180C006500390585187C
:102DD3000D040000390589180D0402021023E81BB5
:102DE3000D0406021023EA1B0D0405022123E61B32
:102DF3000D0402041023F01B00013636010100010B
:102E0300020100010301000104010606050200009E
:102E1300070100340801000F090401010D0100FF3F
:102E23000E08000017020000190100FF1A0100013B
:102E33001B0100FE1C0100081D0200001F01000110
:102E430020010001210200002301000F24020000E1
:102E53002601000127010008280200FF2A010007BC
:102E63002B0102402C0100002D0100012E01000165
:102E73002F0100FF30010B1D310800003A0100084B
:102E83003B01000F3C0100013D0100FF3E04000037
:102E930042040000460400004A0400004E040000FF
:102EA30052040000560400005A0400000103710399
:102EB30001030103010301030103220302030103CD
:102EC30010030003000300030003000300030003D7
:102ED3004203000324030603000300030403120355
:102EE300250323032503230304030403000300032F
:102EF30000034403000300032303000365032100CD
:102F030035038103000305030003000300030003EB
:102F130025032303030271023001600211027002D0
:102F23000102020202028002100261023A00410021
:102F33006302730272026202430200021302380048
:102F43000002000204021202000200020002000258
:102F530004020402370037003C0244020002390035
:102F6300000200026502000235028102000205022E
:102F730082028302000201017101010101011101B9
:102F830001013101010101018001100161013B00D7
:102F93001400630173017201620143010001130113
:102FA30006013D0135000401120100010001000189
:102FB300000104010401330133013C0144013201E6
:102FC30036000001000165010001350081010001A7
:102FD30005018201830100010300710030016000DB
:102FE30011007000310220035004800010006100C2
:102FF30000001400630073007200620043000000CD
:10300300130006000000000004001200000000008E
:103013000000000004000400370037003C024400B5
:103023000000000000000000650000003500810082
:1030330000000500000083000000360001000600C8
:1030430000000F000000000000000000000000006E
:1030530003FFFF00000403FFFF0000FFFF0FF40165
:103063000005C4040320000100000B000000000061
:1030730000000003010F000000000000000000003A
:10308300000000000000000000000000000000003D
:103093000000000000000000331D5D1D391D6D1C84
:1030A3003F1D631D3F1D6F1D451D6D1C3F1D631D92
:1030B3004B1D6D1C00000000511D6D1C0000000025
:1030C30000000000571D6D1C000000000000000000
:1030D30000000000000000000000000000000000ED
:1030E30000000000000000000000000000000000DD
:1030F300000000000000B51F0100B51F02002B1FD8
:103103000280251F0300311F0400371F0480532A48
:103113000500431F06004F1F3100611F3300671F67
:1031230034006D1FFFFF00000204000029058D1805
:10313300020410022923EC1B0504000021058F184B
:10314300050410022923EE1B0300030004000800FA
:1031530010001F003E007B00F600EC01D703AF0711
:103163005D0FB91E713D000007ECFDFDFDECDCDCDD
:10317300CCBCACAC9C9C8C7C7C6C6C5C5C5C4C4C2C
:103183003C3C2C2C1C1C0AA325026D250579250724
:1031930073250C55250D6125FF000000160F000057
:1031A3000B150B020002220F3300000E0F5A696742
:1031B300426565416C6C69616E63653039D0D1D20B
:1031C300D3D4D5D6D7D8D9DADBDCDDDEDF150AF4E4
:1031D300D4C0A5958272636155504900034D4C4696
:1031E30051181A250502000119161816161823037B
:1031F30000303016181920231A1C1E3030301718CF
:103203001921301B1D1F30003C40423A3F3F392FEC
:1032130047300C0E020B040B0A0708000F020402CE
:1032230001010101090200BE040AE8030000F6FBE4
:103233006B31E803010003000E00D031030A0C04D4
:10324300191008040428020C050908151E00FF1EA6
:10325300FF0404C082C0831214BD9019E77445F0C3
:10326300A37423F09019E9744BF0A37423F090191D
:10327300EB7451F0A37423F09019ED7457F0A37419
:1032830023F0025F9174F7120B589019DBE4F0E915
:103293009019DAF07CB47D197ADC7B19121B479004
:1032A3001C68E09019E4F09019E5749EF0A374197A
:1032B30002421E74F0120B58EAFEEBFF54807003B7
:1032C3000234279019DA1242B37003023420EA243D
:1032D3001B125B1E707CEA241F125B1E64137002B8
:1032E300A3E0706E8A828B831234759019F51250A5
:1032F300B0750A00750B00800D1240F41271901224
:103303001A63AA0EAB0FEA4B60488A828B83E0658F
:103313000C7004A3E0650D702C8A828B83A3A3A396
:10332300A3E0F50EA3E0F50FE50A450B8A828B8334
:10333300A3A3A3A360C31243F6850A82850B83A3C9
:10334300A3A3A380B78A0A8B0B8A828B831250AC08
:1033530080B4E508242A125B1EFCE5082402F8E485
:103363003509F9E8FAE9FB9019F512355CA3A3E0F6
:103373006402703C8A828B831250B0800B888289EE
:1033830083A3A3A3A31243F6E849601F888289831A
:10339300E06A7003A3E06B70E488828983A3A3E0EF
:1033A3006C70DA901C6E125E4E806BECF912238106
:1033B300850882850983E06401704FE508241812AB
:1033C300345E1210C0126738120EDFE508241212A1
:1033D300345E1210C0E5081242A71210BCE508249F
:1033E3000B12673C120EE3E5082417124244E5086A
:1033F3002402FCE43509FDE5082419FAE43509FB48
:10340300122BB5740A1210CF800CE064027007AA65
:1034130008AB0912245FAA08AB091219CDEEFAEF23
:103423006480802DEA5402600C901C817401F0EAE0
:103433006402FA8023EA5408601A12237BEA4B7071
:103443000B9019F71266137A0812346BEE6408FABC
:10345300EFFB80047A007B00026DC2F582E435093C
:10346300F583E0F50A780A22FB9019DAE0F9121BDA
:103473001D22A3A3E0F50CA3E0F50D227B00901918
:10348300DAE0F9121B1174042274F4120B588A083F
:103493008B098A828B83A3A3A3124EA812424F38AF
:1034A300F583E02409FA126D5A700302354F8A82BC
:1034B3008B837402124F1D85088285098312355C44
:1034C300E8F0A3E91269D48A828B83A3A3A3A3A3FD
:1034D300A3A3A3F0E5082403F8E435091235511238
:1034E300424F3AF583E08E828B83A3A3A3A3F0EE2E
:1034F3002409FAE43FFB8E828F83A3A3126100F5B4
:10350300838882E0A2E58E828F83A3A3A3A3A35023
:103513000474018001E4F0E5082403F58289831231
:1035230050B0EA1256313BF583126D211210B812D6
:10353300424E3B1261F28E828F83A3A3127ED0127E
:1035430010CFEEFAEFFB9019DA126DA78016F98807
:1035530082F583E0FAA3E0CA2212524DA3A3227498
:10356300021210CF7F04020E1474F2120B588A0851
:103573008B09ECFAEDFB740E12141AE0FC1214F32F
:103583008A0C8B0DAE0CAF0DEA4F6030AC08AD0961
:103593001214E1E96026AC08AD09EEFAEFFB121450
:1035A300E7E970148E828F831243E3FAEFFB121460
:1035B300DBAA08AB0912150B7900800279B402511A
:1035C3009C74F0120B5874F6121181EAFEEBFF8C17
:1035D300088D09750FB3852182852283E4F0750E6A
:1035E300008002050E903247E493F8E50EC398403D
:1035F300030236EBAA0E7B0012152F8A0A8B0BEA05
:103603004B60E08A828B83A3A31236F228F0F8C3BF
:10361300EE98EF940050CC7C157D007900AA08AB9E
:10362300091219B5850A82850B83A3A3A3A312717B
:10363300CDE0F8EEC3982925E0F8E433F9E50A284C
:10364300F582E50B39F583A3A3A3A3A3A3124259E0
:10365300A3125C758A0C8B0DAC0CAD0DAA08AB09DB
:10366300121B47850A82850B83A3E06401700A124B
:103673006738740112426B80447401121161850A28
:1036830082850B831250AE121517E9603D7409123F
:10369300141AE0C0E0126738D0E0F0740912141A6B
:1036A300E0640370137401121161E508240BFAE45A
:1036B3003509FB121B478012740112141A1243F6C8
:1036C300E508125C5B350912718E850A82850B83CE
:1036D30012674412426BA3A3E0C0E0E5082414126E
:1036E300673CD0E0F0750F00A90F740A026DBFA309
:1036F300A3A3E0F8852182852283E02274F7120BCD
:1037030058E9FE8A828B83A3A3A3A3A3A3E054084F
:1037130060338A828B83A3A3A3A3A3A3E054026091
:10372300218A828B83A3A3A3A3A3A3A3A3A3E0645C
:1037330006600F74E96E600A74CD6E600574F06EF6
:103743007003122363024A9B74F0120B5874EF1236
:103753001181740F12141A1264F7740812141AE9FF
:10376300F0ECFEEDFF740512141A124863124A8737
:10377300A3E0F91214FF740612141A1264F7740604
:1037830012141A1256C27003023A06124293E0FA56
:10379300740612141AE0F91222A3123A66F8A3E08F
:1037A300F9E8497003023A06EE2403F50AE43FF50B
:1037B3000BEE2406F508E43FF5097C00850882F545
:1037C300831250B0850A82850B83E0F912150574C4
:1037D3000312141A1264F7850A82850B83E0C0E092
:1037E300852182852283123A5FD0E01257D7F9856B
:1037F30021828522831240FB1253291236F5FAA344
:10380300E0CA2407F582E43AF583E8F0A3E41265FD
:10381300022406F582E438F583E412719A124E9C71
:103823001210B8EE12424F3F1261F2740312141ACF
:10383300124EA82409127ECA1210CF742912141A28
:103843001271C71235561257EA3A12718E742B123F
:10385300141AE0C0E0852182852283125689D0E0C4
:10386300F0740212141AE4F0742512141A78081270
:10387300138F02395D740312141A1261BA8882F528
:1038830083123A4EA3A3A3125C80FB12151D850E6F
:1038930082850F83A3EAF0A3EBF0740312141A12C8
:1038A3003A5FA3123A4E125E8FA2E6500F850E8244
:1038B300850F83A3A3A3A3A3E0D2E1F0740512149D
:1038C3001AE0706B850E82850F83A31243F6901A5C
:1038D30035E0687003A3E0697055850E82850F8318
:1038E300A3A3A312422E750C00780C1210C0780803
:1038F3001210B4742912141AE0F50C780C1210C0CB
:10390300742712141A120EE3901A42120EE379006E
:10391300741912141A1250801224A7740A1210CFA9
:10392300850E82850F83A3A3A3A3A3E04405F074AC
:103933000212141AE004FC8E828F831250AA8E8224
:103943008F83A3A3A3E0F9121505740312141A12AB
:1039530064F7740212141AE004F0740312141A12B6
:1039630056C26067740212141AE0FA740612141A2B
:103973001243F6C3EA98E4995051740212141A12CE
:103983003D38852182852283E028F8A3E039F9E8D0
:10399300240FF50EE439F50F850E82F583E4F074F8
:1039A3000312141A123A5964016003023878740539
:1039B30012141A7401126DADF0740312141A125F0B
:1039C30081123D5BE8F0A3E902389C8521828522C0
:1039D300831250B01222A9852182852283120EE31D
:1039E300742612141AE0FD742512141AE0FC740AEA
:1039F30012141AE0F9EEFAEFFB12235D74021210AF
:103A0300CF80438E828F83A3A3A3E0C0E0740C1204
:103A1300141AD0E0F0126C16E0C0E0740D12141A00
:103A2300D0E0F0740612141A1256C27009740E1202
:103A3300141A74B98007740E12141A7410F07409EE
:103A43001211591224A17411026DBFE0850E8285F3
:103A53000F83A3A3A322E01257AFE022E01257AFD4
:103A6300A3A322852182852283EAF0A3EB1256CBFE
:103A73002274F0120B5874E1121181740412141A97
:103A8300E9F0740312141AECF0740212141AEDF034
:103A93008A0E8B0F742F12141A123477AA0CFB128E
:103AA3002297740112141AE9F0AA0CAB0D12229D8D
:103AB300740112141AE07003023D338521828522BA
:103AC30083E480158E828F83A3A3A3A3A3E0D2E311
:103AD300F0852182852283E004126D05F885218219
:103AE300852283E0C3984003023D2A740112141A0D
:103AF300E07003023D2A852182852283123D38E549
:103B03000C28F8E50D39F9E8240FFEE439FF8E821D
:103B1300F583A3A3A3A3A3E0A2E040B575080075B2
:103B23000A08750B00740212141AE060037508206A
:103B33007C087D00790074051211591219B58E8223
:103B43008F83E0603E901A85E06401701AE508D225
:103B5300E3F508750B10123D4812141AE8F0A3E9B7
:103B6300125B7374FF807643080C750A0C8E828F88
:103B730083A3123D53127190740512141A74FFF04B
:103B8300A3805A740412141AE06009E508D2E6F51A
:103B930008750A0A8E828F83A3E064FE7003A3E094
:103BA300F47030741212141A7404126762F8741DDC
:103BB30012141AE8124F1D74121211591221C57DE5
:103BC300007C007900741512141AAA82AB83121FA9
:103BD3009D800B123D4812141AE8F0A3E9F0740714
:103BE30012141AE508F012428AC0E0740912141A7A
:103BF300D0E0F0740A12141A7401F074051211590A
:103C0300122465741112141AE06003023D08740D46
:103C130012141A1257D28E828F83A3A3A3A3F07414
:103C23000D12141A124EEBE50AF0A3E50BF0740320
:103C330012141AE0C0E0124E7CD0E0125E8F6011C5
:103C4300901A85E0C0E0740D12141A124EC6D0E02B
:103C5300F0740D12141A1243F6850C82850D83A39A
:103C6300A3A3A3A3123D41241C1264F11271AA124F
:103C73003D43125E4139126C35C0E0124E63D0E011
:103C8300126CFAC0E0740D12141A1249A9D0E01292
:103C930069FBC0E0740D12141A12499FD0E0F0744E
:103CA3000D12141A123D53123D41242A1264F18558
:103CB3000E82850F83A3A3A3A3A3A3A3A3E01264EC
:103CC300EA124279C0E012498BD0E0F0740D12146D
:103CD3001A1250B0850E82850F83126D102428F5B9
:103CE30082E43B12718E124282126D211210B812BD
:103CF30061EBEA1264833B127ECE1210CF7405127D
:103D0300115912246B8E828F83A3A3A3A3A3E0D2A2
:103D1300E0F0741112141AE06003023AC77401123E
:103D2300141AE014023AD37900AA0CAB0D122369DA
:103D3300741F026DBFE075F007A4F8A9F022A3A3D6
:103D43001250B4E8228E828F83A31243FA740522A1
:103D5300E0123D5BA3A3A322F8A3E0F9850E8285BD
:103D63000F83A32274F0120B5874E8121181E985B2
:103D73002182852283F08A0E8B0F8A828B83A3A3F1
:103D8300A3A3A3A3A3A3E0F91222C18A088B09EA80
:103D93004B7003023E44E50E1256451242A21242F4
:103DA30039852182852283E06003023E477C0485B6
:103DB3000E82850F83A3A3A3A3A3A3A3A3E0F91256
:103DC30022C7EE4F607B8E828F83A3A3A3A31243EC
:103DD300F6740712141A1266281243F674091214A1
:103DE3001A124F4DC0E0741112141AD0E01269D99F
:103DF300A3A3A3A3A3A3A31243F6740F12141A122B
:103E03007190741212141AE4126DB5C8241FF5824E
:103E1300E438F5831261B6C413135403FC70027CB7
:103E2300048E828F83E0F978081210BC742059FD48
:103E3300744059F9740312115912235D740212105C
:103E4300CF026DBD7C08850E82850F83A3A3A3A338
:103E5300A3A3A3A3E0F91222C78B0BEA4B700302BF
:103E63003DC5EE4F60DB852182852283E0F50C782A
:103E73000C1210C0850882850983A3A3A3A3A3A35F
:103E8300A3E0F50C780C1210C08A828B83A3A3A342
:103E9300E0FB8A82850B831279ED8A82850B83E0AE
:103EA300FA8E828F83A3A3E0F9122BBB7402121044
:103EB300CF023DC974F7120B5874FA121181E9FE4F
:103EC300780179017F00800379000F12522CE0FC06
:103ED300EFC39C5026EF75F007A4FC85F008AD08EE
:103EE300EA2CFCEB3DFD12481BE0A2E050DA540C37
:103EF30060D6E0A2E250D3780080CF8A828B83A37E
:103F0300A3A3A3A3A3E0703DE9A2E0400574016E5F
:103F130070338A828B83A3A3A3A3A3A37401124246
:103F23000BE0C0E0740312141AD0E012487AE0C028
:103F3300E0740412141AD0E0F0740512141AE81293
:103F430061551224A17406024A98C082C083790184
:103F5300122369025F9174F4120B58EA4B901C818F
:103F63006019E4F08A088B09F50AF50B780812103A
:103F7300B47A0212347F1210CF800A7401F07A02ED
:103F83007B0012346C02356774F0120B5874F31211
:103F93001181740312141AE4F0A3F09019F512427C
:103FA30039740112141AE4F0A3124F2204F0901A88
:103FB3002FE0A2E3500302407E1241FF7409121462
:103FC3001A1213EB740912141A780812138F90192A
:103FD300F77808121169740512141A78081213710C
:103FE300124102740512141A780812134250077A08
:103FF300017B000240EF740512141A780C12138F20
:10400300901C6DE0F509780C7908120AE9A80CA94F
:104013000D901C6EE0C398E4995003E08001E8859D
:104023002182852283F0740912141A780812138FDF
:10403300C008C009C00AC00B740512141A780C1208
:10404300138F124102780C7908120AE9E4F50AF594
:104053000BD00FD00ED00DD00C780C790812123D76
:104063009019F7780C12137180111240F4127190A9
:10407300EEFAEFFB121A63AE08AF09EE4F60658EDE
:10408300828F831236F2C398502DEE2403F8E43F57
:10409300F9E0FA88828983E0C39AF06023740312FB
:1040A300141A12455C740112141AEEF0A3EF12668F
:1040B30043FEA3E0FF80C48E828F83A3A3A3E4F017
:1040C3008E828F83127E87740112141A1256C28E47
:1040D300828F83A3A3A3A3609112661C12141A12E6
:1040E30040FB8089740312141A1250B0740D026DD0
:1040F300BF1243FA9019F5221261E1A3A3A3229000
:104103001C6C127E8FE4F50AF50B2274F0120B5827
:104113008A088B09890A780079009019F5124239C7
:10412300FBEE4B601E088E828F83A3A3A3A31250C2
:104133007A601008E87001098E828F83124235EA93
:104143004F70E3901C6F1250B0C3E89AE99B400391
:104153000241F27A061241F5A80CA90DEA4970034F
:104163000241F28A828B83E508F0A3E50912421427
:10417300E50AF0901C6E12523412420BA3E4F0A332
:10418300F09019F512507A600D8E828F83A3A3A34A
:10419300A312719080179019F5127190901A2FE065
:1041A300A2E340091241FF9019F71213EB901A2F63
:1041B300E0A2E3503A7A087B009019DAE0F9121B87
:1041C30023EA4B4C4D7028901C6CE0F508A3E08566
:1041D300080CF50DE4F50EF50F780C1210B47A08FF
:1041E3007B009019DAE0F9121B1774041210CF0246
:1041F3006DC27B00121A5D8A0C8B0D22121B2FEAF3
:10420300F8EBF9ECFAEDFB2212420F22124214A34F
:1042130022F08A828B83A3A322E508F0024A9BF053
:104223008E828F83A3A3A3A3A3A322125B2CA3A396
:10423300F022A3A3A3A3E0FEA3E0FF227F05020EC7
:1042430014F582E43509F583E0F922EA1242532298
:104253002410F582E422124261A3A3A3A3221243F2
:10426300FE8508828509832212426F22F0850A8225
:10427300850B83A3A322E50E241112429FE022E5BE
:104283000E240E12429F22E50E241012429FE022BA
:1042930012429722EE1242533FF58322F582E43510
:1042A3000FF58322240FF50AE43509F50B780A226A
:1042B300E0F91219DF8A088B09EA4B2274F2120B18
:1042C30058890B8A088B098A828B831250B0122378
:1042D3008DEA4B600479B8806A122399E9F8903229
:1042E30044E493F9E8C399400479B280567A1512ED
:1042F30041F5AE0CAF0DEA4F7004791080458A8208
:104303008B83E4F0A3124214E50BF0750A007808DE
:104313001210B87C127D00EA2403126CCC1210CF69
:104323009019FB1256C270089019FB800C1243F6C9
:104333008882898312434970F4EEF0A3EFF01223CD
:10434300AB790002519C1250B4EA4B8882898322D4
:10435300C082C0839019FB80048C828D831279EE16
:10436300EC4D60288C828D83A3A3E069600574FF04
:104373006970E68C828D83A3A3A3E06A7003A3E034
:104383006B70D6EC2403FAE43DFB80047A007B00D7
:10439300025F9174F7120B58E9FD74FE6D70047C93
:1043A3000180027C009019FB80096D70027C0188FA
:1043B3008289831256C2601F88828983A3A3A3E0E4
:1043C3006A7003A3E06B70E7ECA2E088828983A3A1
:1043D300A3E050D6F9800279FE024A9BEEF9800CE5
:1043E300A3A3127E8FEE2274021210CF7F02020E5D
:1043F30014F5831243FA221243FE22E0F8A3E0F9F4
:10440300221243FE8E828F83221210CF7F03020E6D
:1044130014C082C08379009019FB800109E0FAA3DC
:10442300E08A82F583E582458370F1025F9174F639
:10443300120B58E4F508F50978081210BC903244C1
:10444300E49375F013A4A9F01245511271EE121002
:10445300CFE9FE74096E70031223A50243DF74F6DD
:10446300120B5874FE121181852182852283E4F098
:10447300A3F0A821A9228808890978081210BC751D
:10448300080275090078081210BC126E5F1210CF73
:104493000243EA74F5120B5874EB121181852182E1
:1044A300852283E4F0A3F09019FB80748E828F83BE
:1044B300A3A3E0C0E0740212141AD0E0125B73A944
:1044C30082AA8389088A09750A0078081210B87CC1
:1044D300127D00740612141A1271B31210CF7402F3
:1044E3001211518808890978081210BC75081375D0
:1044F300090078081210BC740412141A1256657558
:10450300F013A4F8AAF075F013E912454D126E6783
:104513001210CF85218285228312455C8E828F8380
:10452300124239EE4F7085A821A92288088909789B
:10453300081210BC75080275090078081210BC1225
:104543006E5F1210CF741502440CA42AF9E82402FA
:10455300FCE439FD7A427B0022E02401F0A3E0343D
:1045630000F02274F4120B5874EB1211817E007F59
:1045730000A821A9228808890978081210BC7508A7
:10458300028E0978081210BC7C007D007A421271F9
:10459300FA1210CFE9706C8E088056740212115112
:1045A300880A890B780A1210BC750A13750B0078F8
:1045B3000A1210BCE50875F013A4F8AAF075F013FD
:1045C300E50912454D1271FC1210CFE9701B7403FB
:1045D30012141AAA82AB83740212141AE0F912237A
:1045E30087E970050EEE70010F0508E508700205F6
:1045F300098521828522831243F6C3E50898E509DC
:10460300994098EEFAEFFB741502356474F6120BB9
:10461300588C828D83A3A3124868F0EA1264893B05
:10462300F583E0C0E0124825D0E0F0EA241DF582CE
:10463300E43B1243F4124809124863F0A3F0EA245E
:104643001FF582E43BF583124239EC1247FC3DF53A
:1046530083EEF0A3EFF01248023BF583124833A335
:10466300A3A3A3A3A3EEF0A3EF1260E4FE8C828DB9
:104673008312487274035EFEC3940340030247EF40
:10468300EE600874026E60030247148C828D83E02F
:10469300540CFE740C6E7003024753E0A2E4400D09
:1046A30088828983E08C828D83A312488874086E84
:1046B30060030247531248137401F08A828B83A369
:1046C300A3A3A3A3125B3970148C828D83E0440CE3
:1046D30012487AA3A3124833EEF0A3EFF08C828D35
:1046E30083E0A2E4402B88821248411248565001CD
:1046F30009F582124841A3A3A3A3A3A3F0A3EF1236
:1047030048828C828D83A3A3A3F0E82403F850018D
:104713000988828983E0C0E0EC2411F582E43DF549
:1047230083D0E01248728C828D83E0A2E7507588B3
:10473300828983E0FE8C828D8312488874FC5E70CC
:104743000C8C828D83A3E054036403701E0247EF35
:10475300124813E4F0740C6E60030246BE888212A2
:1047630048471248565001090246E08C828D83A3C4
:10477300E05403603288828983E0C0E0EC12482D64
:104783003DF583D0E01248898C828D83E054036425
:1047930002701488828983E0C0E012481BD0E012C3
:1047A30048898003A3E4F0EC1256313D12718EEC7C
:1047B3002410FEE43DFFEA241DF582E43BF583E08B
:1047C300F5088E828F83E0C3982508F508F0EA2464
:1047D30017F8E43BF98882F583E0C39508C0E0123B
:1047E3004809D0E01260E4C39508500A124809E46E
:1047F300F0124825E4F00243EF2415F582E422EA9F
:10480300240DF582E422EC240DF582E43DF58322A8
:10481300EC1257EA3DF58322EC2414F582E43DF5CE
:104823008322EC1242533DF583222413F582E422C2
:10483300E0FEA3E0FF8C828D83A3A3A3A3221248EF
:1048430047A3A3228983E0F508A3E0FFE5088C8250
:104853008D8322A3A3A3A3F0A3EFF0E82402F822FD
:10486300124868A322E4F08C828D83A3A3A32212AF
:104873004890A882A9832212420FA3A3A3A32212C2
:104883004890A3E022A312489008A983221260ED66
:10489300A32274F4120B5874F31211818A0A8B0B3E
:1048A300ECFEEDFF8C82F583E0540CF508E0A2E703
:1048B3005006E508D2E7F508E508D2E1F508125BF2
:1048C300397006E508D2E4F508E0A2E55006E508EC
:1048D300D2E5F5087C087D007900AA21AB221219E4
:1048E300B5740212141AE508127194C0E07403122D
:1048F300141AD0E0124F22E50AF0A3E50BF0740579
:1049030012141A126A0012141AE07077740812143F
:104913001A124EA81260D638126A1BC0E07408122D
:10492300141A1249A9D0E01269FBC0E074081214EA
:104933001A12499FD0E0F0740812141A124995E034
:10494300124ED0124F511264EAEE2411125B05C0CD
:10495300E012498BD0E0F0EE2414125B05C0E07442
:104963000812141A124EA82435F582E438F583D0C0
:10497300E0124EF5C0E0740812141A124EACD0E0E7
:10498300126754740D023564E82432F582E439F574
:104993008322124404A3A3A3A3A3A322124EBC12F3
:1049A3006BFA38F58322124EBC2426F582E438F5DF
:1049B300832274F7120B587E008A828B83A3A3A3EE
:1049C300A3A3A3A3A3A3E064046003024A7712573B
:1049D300E2E06003024A771256443B1256C070036A
:1049E300024A7788828983E054036003024A77E8A6
:1049F3001257EA39F583E0FA8C828D83A3A3E0FB97
:104A0300A3E0CB2411F582E43BF583E06A7065886B
:104A1300828983A3A3A3A3A3A3A3A3A3124A7BE093
:104A23006A7003A3E06B704C88828983A3A3124A44
:104A330087E0FFA3E0CF2406125B056A7003A3E0BF
:104A43006B703188828983A3A3E0F88C828D83A362
:104A5300A3E0F9A3E0F5838982A3A3E06860138C44
:104A6300828D83A3A3A3E0F5838982E0540C6404BD
:104A730070027E01EEF98020124A7F221250B88C18
:104A8300828D8322A3A3124A7FA3A322740C121440
:104A93001AE0F9740D1210CF7F01020E1474F6128E
:104AA3000B5874FC121181EAFEEBFFECFAEDFB8C60
:104AB30082F583A3E0540360169019F11256C26085
:104AC300597900EEFCEFFD1262E1122BE7804B8572
:104AD3002182852283EEF0A3EFF0740212141A12DE
:104AE3004F17AC21AD227AC37B231225EB8A088BA7
:104AF30009A808A909EA4960218A828B83A3A3A391
:104B0300A3A3A3A3A3A37406F07A0088828B8312C2
:104B13004EA81264AAE0F912254974040243EC7406
:104B2300F2120B5874F3121181EAFEEBFF8A82F53D
:104B330083A3A3A3A3A3A3A3A3A3A3E0F50A901C06
:104B430081E0700579BA024E607508017509007538
:104B53000C00750D007C087D007900AA21AB2212A0
:104B630019B5740512141A7401124F2A54046012F1
:104B7300740212141AE0D2E6124F2A540870037515
:104B83000803E05410600674404508F508E0540833
:104B93006022740212141AE044C0124F2A54206097
:104BA3000A740312141AE0D2E08008740312141A70
:104BB300E0D2E1F0EE2415125B05124E90700374FF
:104BC3000169700674084508F5088E828F83A3A3D4
:104BD300A3A3A3A3A3A3E070161226458521828570
:104BE30022831264F7740212141AE0D2E280306452
:104BF3000F7010740212141A124F3274044508F520
:104C030008807F8E828F83A3A3A3A3A3A3A3A3E080
:104C130064028E828F83700A1271C7E8F0A3E9F0F1
:104C23008060A3A3A3A3A3A3A3A3E06403700DAC19
:104C330021AD22EEFAEFFB1223F980468E828F8399
:104C4300A3A3A3A3A3A3A3A3E064017035901A8530
:104C5300E06010740212141A124F32750910750AAB
:104C6300FF8018740212141AE0440C124F2274FDD0
:104C7300F0A374FFF074044508F5088E828F831245
:104C83003477EE2415125B05A2E0503F7402121430
:104C93001AE0540C701B8E828F831250B01220695D
:104CA300E9700579BB024E60740212141AE0D2E572
:104CB300F0EE2415125B05A2E05010740212141AD0
:104CC300E0540C64047004E0D2E5F0EE2411125BAE
:104CD30005C0E0740412141AD0E0126A0212141A06
:104CE300E06003024E59740812141A124EEBE508E1
:104CF300F0A3E509F0124E86E0C0E0124E7CD0E04E
:104D0300F0124E6DE0C0E0740812141A124EA8128D
:104D1300482D38F583D0E0124F5164017011901A79
:104D230085E0C0E0740812141A124EC6D0E0F07485
:104D33000812141A124EE6124E77FAE8241CF58272
:104D4300E439F583EA124F1DEE2415FAE43FFB8A9A
:104D530082F5831279EEE8125E4139F583124F171B
:104D6300EE241C125B05C0E0124E63D0E0125F8795
:104D7300124E9070037401697013740812141A129E
:104D830057D2FAEE241D125B05F91222CD8E828FC3
:104D930083A3A3A3A3A3A3A3A3A3E0C0E0740812C4
:104DA300141A1249A9D0E0F0740812141A12499F78
:104DB300E50AF0740812141A1256652428F582E4E1
:104DC30039F583E50CF0A3E50D124EFD124ED0121A
:104DD3005B7E1264EAEE124E77C0E0E82433F5827C
:104DE300E439F583D0E0F0EE241B125B05C0E074D8
:104DF3000812141A124EACD0E0F0EE241A125B051E
:104E0300C0E0740812141A124EA82432F582E43852
:104E1300F583D0E0124EF5124E9C1210B8126C00BE
:104E23001279EE740B12141A124EA8242F127ECA92
:104E33001210CFEE2415125B0554406012901A1124
:104E43001256C2600AAA21AB221262E1122BE7AA10
:104E530021AB2212246B740C12141AE0F90251973D
:104E6300E82420F582E439F58322EE2419F582E45F
:104E73003FF58322126C0FE022E82412F582E43915
:104E8300F58322EE2418F582E43FF583225480F85B
:104E9300A3E05401F974806822F508A3E0F50975CD
:104EA3000A00780822124EBC22124EBC2434F5822A
:104EB300E438F58322A3A3A3A3124EC022E0F8A3F0
:104EC300E0C822124EBC1247FC38F58322FAA3E055
:104ED300FBE8242AF582E439F583EAF0A3EB22A365
:104EE300A3A3A31243FAEE2212566912564939F5C7
:104EF3008322F0EE2413125B8622F0EE240D125B64
:104F03008622E0FC8A828B83E02CFCA3E03400FD44
:104F13008A828B83ECF0A3EDF022F0A3E4F022F07D
:104F230085218285228322F0EE2415125B8622E0FE
:104F3300D2E3F0124F3A228E828F831243FE8521F1
:104F430082852283E8F0A3E9F022E8F0A3E9126660
:104F53003DE02274F7120B588A828B83A3E064012D
:104F630070047E6380027E648A828B83E0600879AA
:104F730005124F8A24F3FE901A2DE06007F9124FB1
:104F83008A24F2FE024A77122513E9F8EEC3982227
:104F930074F6120B5874FE121181852182852283C7
:104FA3001264F7E9FEECFAEDFB9005C21256C260FB
:104FB30032A821A9228808890978081210BC7D012A
:104FC300740E12141AE0FCEEF99005C21264CB12AF
:104FD3002BE774021210CFEA4B6004790080067944
:104FE300B2800279B60243EA74F7120B58E9FE90D5
:104FF30019E71256C2601F740912141AE0F50878F3
:10500300081210C0EEF99019E71264CB122BE77463
:10501300011210CF800279B6024A9B74F7120B5823
:105023008908ECFEEDFF79B5E508245E6020146085
:105033000624F86034803D9005C412507A6035121E
:10504300720B122BE78E828F831264F780249019E0
:10505300E91279EEEC4D601CEEFCEFFD9019E912BC
:1050630064CB122BE7E9F9800B9019E512508012FB
:105073001B477900024A9B1250B4EA4B221279F281
:10508300EEFAEFFB2274F7120B58E9FE79B574AB15
:105093006E700B9019E51250B0121B477900024A4B
:1050A3009B8E828F83A3A3A3A3A3A3A3A31250B412
:1050B300221250B822E0FAA3E0FB2274F1120B583B
:1050C300EAFEEBFF8C0A8D0B750801901A35E06E32
:1050D3007003A3E06F700C12518BAA0AAB0B121B67
:1050E30047805E12264BEE6A7002EF6B7009AA0AC4
:1050F300AB0B122651804AAC0AAD0BEEFAEFFB1252
:1051030021A1E9F508901C74E07036122AE3E970D6
:1051130030E508702C901A05E06E7003A3E06F7001
:1051230020EE4F601C750CFD750D19750E00780C83
:105133001210B87C087D00AA0AAB0B1271B71210CB
:10514300CFA908027AEA74F2120B58EAFEEBFF8C3D
:10515300088D09750A0112518BEEFAEFFB121B4100
:10516300E964017011901A351243F68508828509A6
:1051730083127190800EAC08AD09EEFAEFFB122199
:10518300A7E9F50AA90A801112263F8A0C8B0DACF8
:105193000CAD0D22740D1210CF7F06020E1474F69F
:1051A300120B58EAFEEBFF7A0D7B00121A5DEA4BF5
:1051B3006062EE2424126E94F0EE2425126E94A302
:1051C300125259126E9AA3A3126C2D125234F0EE9E
:1051D30012521A125249E8F0A3E9125270125241C4
:1051E300127190EE125223126CF0A3A3A3A3F0EE5C
:1051F3002433125B05C0E012522CD0E0126A1F1256
:105203005241A3A3A3E8F0A3E9125268C0E01257E6
:10521300E2D0E0F00243EF242AF582E43FF5832253
:10522300242EF582E43FF58322EA125C5B3BF5838F
:105233002212523822E08A828B83A3A3A322126D07
:105243004FA3A3A3A32212524D221243FE8A828BA1
:1052530083A3A3A3A322F012525E22EE2426F58297
:10526300E43FF58322F0EE2432125B8622F0EE2433
:105273002C125B862274F4120B5874FE121181EC0B
:10528300FEEDFFEC2416125B0564057010EC24069A
:10529300FCE43FFD1223F3E97003025324AC21AD78
:1052A30022126F4912206F8521828522831256C2F2
:1052B300606B8E828F83E064017058E875F009A4F7
:1052C300F8AAF075F009E9A42AF9745E28F87407BE
:1052D30039F9E8FAE9FB8882F583780812138FEE2F
:1052E3001253C61213424027852182852283124E10
:1052F300E6125B13125329780812138F90847D787A
:10530300081212798A828B837808121371800A79C2
:10531300A28010EE240F12718A7900800679A18091
:105323000279C8023562124F47EE126C1B2274F2E7
:10533300120B588A0C8B0DECFEEDFFEC125B13E4A1
:10534300F0A3F0908455780812138FEC1253C61211
:1053530011EC6067EC240E125B0C703478B3901A76
:105363002CE07028901A5EE064017020EC24111286
:105373005B05F91224FB8B09A909EE1256453F126E
:1053830064F5EA4960047800800278A18808802ED9
:10539300E060046402700A122405E9F508700780CE
:1053A3001DE064037010EEFCEFFDAA0CAB0D1220A0
:1053B30093E9F50880087508A180037508A3A90877
:1053C30002519C126C1B78082274F0120B5874F56E
:1053D300121181EAFEEBFFEA240AFCE43F8C82F51A
:1053E30083127E8B12564F74031211618A828B8350
:1053F3001262EBE970030254B57401121161740374
:1054030012115912206F740112141A1256C270032A
:105413000254B5E875F009A4F8AAF075F009E9A4F7
:105423002AF9745A28FC740739FDE508240E12671B
:105433003CE4F00412141A1243F6E50812564535FB
:105443000912718E8C828D831213DFE508241212E8
:10545300673C1213EB90847D780812138F8C828D36
:1054630083780812128C8C828D83780C12138F90A0
:1054730085A1780812138F780C7908120AE9E508D8
:105483004509450A450B702A740112141A12566510
:1054930075F009A4F8AAF075F009E9A42AF9746271
:1054A30028F582740739F5837401F07A007B0812BA
:1054B30056728E828F83A3A3A3A3A3A3A3A3A3A3A1
:1054C300E02406FCA3E03400FD8E828F831262EB9E
:1054D300126A0D603EEE240A125637124EEB7468C0
:1054E300124F1DE812563139F5837402F0901A17E2
:1054F3001213DF8C828D831264E41260D63CF58331
:105503001213EB90847D780812138F901A17780882
:1055130012128C1256AD705D9019E512565DA3A35D
:10552300A3A3A3A3A3A3A3A312610C121B41E9701A
:10553300101260CA9019E51260DC7005126A0D60E2
:10554300348E828F83A3A3A3A3A3A3A3A3A3A31292
:10555300565D1250B0122099E960118E828F83A399
:10556300A3A3A3A3A3125699E4F0A3F08E828F837F
:1055730012567FE4F01256AD600302562C8E828FD2
:1055830083A3A3A3A3A3A3127E87901A2CE0600393
:10559300025621901A5EE064016003025621750AE7
:1055A3003A750B00780A1210BC7402121151880A62
:1055B300890B780A1210BC1274861210CFE9705B43
:1055C300E508240E12673C74011256C7C0E0E508D3
:1055D300241112673CD0E0F0E508240F12673C74F5
:1055E3003A124F1D901A131213DFE50824121267A3
:1055F3003C1213EB90847D780812138F901A137862
:105603000812128C90847D780812138F901A1378E5
:10561300081211EC700812566E800312564F125680
:10562300AD7006125FCD74A1F0740B026DBF240E32
:10563300F582E422F8E43FF9E8FCE9FD8882F5838A
:1056430022EA12564922240FF582E422E508125673
:10565300493509F583E4F0A3F0221279F28E828FA3
:105663008322125669221243FEE8227A007B0290BB
:1056730018BDE0F9121A09228A828B83A3A3A3A37C
:10568300A3A3A3A3A3A312568D22124EC0240EF5E7
:1056930082E438F58322A3A3A3A31256A122124EB8
:1056A300C0240FF582E438F583228E828F83A3A36F
:1056B300A3A3A3A3124EB8240FF582E438F58312F3
:1056C300566949221256CB22F0852182852283E036
:1056D3002274F6120B58EAFEEBFF7A237B00121AB0
:1056E3005DEE240AF508E43FF5098508821264F5A6
:1056F3007C237D0079001219B58508828509831200
:1057030056C27003025795EEFAEFFB12241112569C
:10571300AD60748E828F831257C864018E828F832B
:10572300A3A3A3A3A3A370071257BE740E802112D1
:1057330056C27010126A0D700B8E828F83A3A3E082
:10574300A2E050071257B4740D80051257B47405C4
:10575300126A1F54036401700712579C7405800B6F
:10576300901A2DE0C0E012579CD0E01257D7F58372
:105773008882125B32850882850983124EA81264DF
:105783008938F583E9800E85088285098312656E61
:1057930080031264B1F00243EF8E828F83A3A3A32D
:1057A300A3A3A3A3A3A3A31257AE22E01264D0A37F
:1057B300228E828F83A3A3A3A3A3A3124EB8126442
:1057C3008F38F58322A3A3A3A3A3A3A3A3A3A31205
:1057D300568DE0221257DB22126F5EF8A3E022EA15
:1057E3001257EA3BF58322240CF582E42274F1126A
:1057F3000B5874E41211818A0C8B0D8C088D097A75
:10580300237B00121A5D8A0A8B0BAE0AAF0BEA4F99
:105813007003025AED126495E5082415125B1E68A5
:105823007003A3E0698E828F837004740280027414
:1058330001F0E508240DF8E43509F98882F583E0E1
:10584300FAC3E49AFA95E0FB125B1A2AFAA3E03B47
:10585300FB8E828F83A3A3A3A31260F38E828F8315
:10586300A3A3F0EE2420F582E43FF583E4F0EE24D5
:1058730021F582E43FF583E4F0EEFAEFFB1224C551
:10588300850882850983125B3970098E828F83A311
:1058930074058006901A2D125B27F0EE2417F50A83
:1058A300E43FF50B8E828F83125B32E9850A828592
:1058B3000B83F0EE2416F8E43FF9E508240EFAE42E
:1058C3003509FB88828983124F05E5082410FAE421
:1058D3003509FB850A82850B83E0FC88828983E096
:1058E300F88A828B83E0C398C39CF8125B73F0EE53
:1058F300FCEFFDAA0CAB0D12240BE9F50B8E828F86
:1059030083E0640270061260CA125AF7E50B600363
:10591300025AE4750C00750D00901C74E06401607C
:1059230005E06402703F125B096008EE2421125BFC
:105933000C70328E828F83A3A3A31264B7125B3FD2
:10594300EE2416125B05125B68FAE439FB1241F789
:10595300EA4B6011126D191210B8125B4DAA0C12AA
:1059630071B71210CFEEFAEFFB1224D1E9F50B90C9
:105973001C74E064016008E064026003025AD7E922
:105983007003025AD7E50C450D7003025AE48003F5
:10599300850E0B125B09600BEE2421125B0C600376
:1059A300025ADD850B0E850C08850D09750A0078F2
:1059B300081210B8125B4D8E828F83A3A3A3A31288
:1059C3007ED01210CFEE2420125B05600D125B1205
:1059D3007468124F1DEE24208015EE2421125B05FE
:1059E3006015125B127403F0A37401F0EE2421F529
:1059F30082E43FF583E4F0EEFAEFFB1224D1E9F5FC
:105A03000B70907C137D00790074091211591219DF
:105A1300B5741A12141A7401125B7E64687002A3BF
:105A2300E0704F8E828F83125699E0640560030203
:105A330059937C0879FF8E828F83A3A3A3A3E024C9
:105A43002A12610F121A3FE970030259937C087DF1
:105A53000079FF74011211591219B5740112116101
:105A63007A007B0079AB1223ED741912141A74FCBB
:105A73008015125B12E064037004A3E064017008F4
:105A8300741912141A74FFF0E4F508F50978081272
:105A930010BC7402121161741312141AAA82AB831C
:105AA3001265F41210CF852182852283E0602B7466
:105AB300091211518808890978081210BC75081356
:105AC30075090078081210BC7C007D00126E671205
:105AD30010CF8006E50C450D6007AA0CAB0D121A1A
:105AE30063EEFAEFFB121A638003750B10A90B74B4
:105AF3001C027AE7EE2406FAE43FFB121B4722EE70
:105B0300240C125B8622EE2420125B86640122EEB3
:105B13001256493FF58322E508240EF582E4350940
:105B2300F583E022125B2CA322E08E828F8322A3D3
