:020000040000FA
:060000000210990205F157
:03001B000206AD2D
:03002B00020E5C66
:03004300020D2A81
:030053000205267D
:030073000207027F
:100083000205850100F0FF0700080000FFFF0000E4
:100093000504000000030001FF1E102700000020DC
:1000A300FD000206FFFF1E8919000000000000008A
:1000B30000000000000000E80300000000E8030067
:1000C3000000000F0000000F0000000104010C00FD
:1000D30002028084019A8401040000C41800000015
:1000E300E8030000FFFF151988130000E803000070
:1000F30064006400B801A0BB0D00A0BB0D000202A8
:1001030002070401071E02051E020A0A010108086C
:100113000103B80B02803E0102FEFFE8030A05005B
:1001230001FFFF020A011401E002000000050301C0
:10013300010F030003000300030003000300030097
:100143000300030005000A00140028004F009E006E
:1001530000009F2A00000000372A00000000FF0073
:100163000000FF001210E560461210A9603DE96827
:100173007008F618F618F618F622748067F712015D
:100183009B090909748067F7221210A9601D1210D8
:10019300E57005191919801A120FBD701F120FA9E6
:1001A300C37003E667331919194007181818220892
:1001B300080874FFF618F618F618F622120FA9604D
:1001C30017121146702192F012115870195017200E
:1001D300F014080808090909E7F61819E7F61819C9
:1001E300E7F61819E7F62212115860E6E869701F5E
:1001F3000808E62480F608E436F618547FB47F0C2A
:10020300E654806007F6E418F618F622181822E977
:10021300C6CC08C6CD08C6CE08C6CFC0E0E8C0E04D
:10022300EAC0E0EBC0E009E9F809E7FA09E7FBE611
:10023300F918E6F8C3EC98ED99EE9AEBC2E7F5F0FE
:10024300EFC2E795F0500E600CEBCFFBEACEFAE974
:10025300CDF9E8CCF8EAA2E7D2E7FAEB33FB13F5E2
:10026300F0EEA2E7D2E7FEEF33FFC5F013A2E730CB
:10027300E601B313C5F0C3C0E0C0F07F00C39BFB2E
:10028300605E9418600F401D14601AD0E023F9D00B
:10029300E0F802036D8AF0E9486003D2F0E4AFF0BE
:1002A300FAF9F8803BEB30E40D89F0EA6003D2F011
:1002B300E4AFF0F9CAF8EB30E30D88F0EF6002D257
:1002C300F0AFF0E4CAC9F8EB54076014FBC3EA13B8
:1002D300FAE913F9E813F8EF135002D2E0FFDBED6C
:1002E300D0E0C0E030E739C3E49FFFF5F0EC98FCC1
:1002F30042F0ED99FD42F0EE9AFE42F0D0E0F9D0E3
:10030300E0F8E5F0607AE923F9EE20E742D80280CD
:1003130067C3EF33FFEC33FCED33FDEE33FE80EACE
:10032300EC28FCED39FDEE3AFED0E023F9D0E0F8FD
:100333004002801BC3EE13FEED13FDEC13FCEF1321
:100343005002D2E0FF08B800067F7F74FF802EEFD3
:100353003350178CF020F00260100CBC000C0DBD64
:1003630000080EBE000408E860DFE933E813FFEE7F
:100373002313FE4F4D4C8008E95480FFE4FEFDFC3F
:10038300EE33EF33F47004FCFD7E80D0E0FBD0E06D
:10039300FAD0E0F8D0E0CFC618CEC618CDC618CC38
:1003A300C6F922001210A9604F1210E56012E7543B
:1003B3008066F6120FBD7011121146703B090909D0
:1003C300F4F618F618F618F622120FA97015121182
:1003D3005808080860EAE6447FF618768018E4F6C1
:1003E30018F62212115860161211467012E4F6081C
:1003F300F608F608E65480F609090918181822EADF
:10040300C0E0EBC0E0ECC0E0EDC0E0E687F0A4FBA9
:10041300ACF008E687F0A42CFCE435F0FA1809E602
:1004230087F0A42C4B60027401CA35F0FCE433FB63
:1004330009E687F0D2F7A42CCB35F0FC1908E68740
:10044300F0A42BCC35F0FBE433FD0819E687F0D29A
:10045300E7A42C4ACB35F0CD3400FC09E687F0D273
:10046300E7A42DCC35F0FDE433FA0918E687F0D282
:10047300F7A42CCD35F0CA3400FC08E687F0D2E7A8
:10048300D2F7A42ACC35F07A7E20E70B0ACB33CB04
:10049300CD33CDCC33CC33CB3350147004ED30E0BB
:1004A3000ED2F1E4CD3DCDCC3CCC3B5005DA05C2B8
:1004B300F1EB547FC63308E63392F0FBE73309E7E9
:1004C30033C39A502D2B70190C0D4C4D7015180613
:1004D300E608C333700D20F10AA2F013F6E4188086
:1004E3000B4024E4F630F002768018F618F618F67E
:1004F3008024D33B14501074FFA2F013F6187680B7
:10050300E418F618F6800FA2F013F618E63303F694
:1005130018ECF618EDF6D0E0FDD0E0FCD0E0FBD00F
:10052300E0FA22C0E074F11209B4A2AFE433F50992
:10053300D2AF85A708AFA1EF5508FE74105E600621
:1005430012141975A1EF74085E600812141F75A1C7
:10055300F78024EFA2E092F0E508A2E082F05017C2
:10056300906198E0F8900B46E0C398A2D265D0332F
:100573005002E8F075A1FEE509A2E092AF7F020206
:100583000A13C0E074F21209B4A2AFE433FED2AF8F
:100593009061A4E0F8759B00E591585408600875D4
:1005A30091F712146D8023E59158541060087591EA
:1005B300EF1214738014E591A2E092F0E8A2E082B6
:1005C300F05007E0C2E0F01215C99061A3E0F8E52E
:1005D300E9585404600E12159F75E9FB906193E08E
:1005E300A2E640F2EEA2E092AF7F01020A13C0E05E
:1005F30074F21209B4A2AFE433FED2AF9061A5E066
:10060300F8E5BF585404600675BFFB1215E180D4AA
:10061300C3E498F8E499F91206548026C3E49AFADD
:10062300E49BFBE920E7E9120654E498F8E499F91E
:1006330022C3E498F8E499F9120654E498F8E4998B
:10064300F9C3E49AFAE49BFB22EB20E7CFE920E726
:10065300E0B90010BB0008E88AF084F8AAF022E4AD
:10066300FBC8FA22EB70227B10C833C8C933C933E5
:100673005007C39AC3DBF280069A50012ADBEAC80B
:1006830033F4C8C933F4C9FA2275F008E4C833C88F
:10069300C933C933C99AC99B5004C92AC93BD5F088
:1006A300ECFBC833F4C8E4C9FA22C0E0C0D0E8C008
:1006B300E0E9C0E0C082C083A8F9E8C0E0900AB3D3
:1006C300E0F8743228F582E4340AF583D0E0F09040
:1006D3000AB2E0F8A3E0687006E595900AB5F090D9
:1006E3000AB3E004F0C394804002E4F0A374C6F0BC
:1006F300D083D082D0E0F9D0E0F8D0D0D0E032C0BF
:10070300E0C0D0E8C0E0E9C0E0C082C083900B360F
:10071300E0F8A3E0687008539AF7A374018022C23B
:10072300EA900B36E0F8740128F074B628F582E4F9
:10073300340AF583E0F5F9900B36E0C39480400268
:10074300E4F080AC12079230F0391207D7803412EC
:10075300079220F01430E72B74FFFCFBFA747F80C0
:1007630022E4FCFBFA7480801AB48008BC00F2BB5C
:1007730000EF800F50EBF9E4C39AFAE49BFBE49C8F
:10078300FCE499C6CC18C6CB18C6CA18C6F922E42D
:10079300C9C608CAC608CBC6D3330308CCC633922E
:1007A300F0C3947F402E94184019C9B90704CACBEB
:1007B300CC225025C309CA33CACB33CBCC33CC3379
:1007C300D9F422F4600DC9CCC313CB13CBCA13CA1B
:1007D300D9F6CC22E4FCFBFA2214FCFBFA2208082B
:1007E30008EAC0E0EBC0E086F0E7A4FA180986F057
:1007F300E7A42AFA180986F0E7A42AFA180986F06A
:10080300E7A42AFA1986F0E7A4FBE5F02AFA190807
:1008130086F0E7A42BFBE5F03AFA190886F0E7A483
:100823002BFBE5F03AFA18180986F0E7A4C5F02B7C
:10083300FBE43AFA1908E7C5F0C6A426F6E5F03B4F
:10084300FBE43AFA1886F0E7A4F6E5F00826F6E4A6
:100853003B08F6E43A08F6D0E0FBD0E0FA220808B9
:1008630008E630E711120F59120879080808C64440
:1008730080C618181822181818E9799EC608CAC61F
:1008830008CBC608CCC6C370207996CACBCC7019E6
:10089300798ECBCC70137986CC700EF9802ACA334B
:1008A300CACB33CBCC33CC331930E7F2CCCBCA33FE
:1008B30050147004EA30E00DE4CA3ACACB3BCBCC07
:1008C3003CCC500209C3E913C6CC182313C6CB187A
:1008D300C6CA18C6F922E4CFC0E0E4CEC0E0E4CD36
:1008E300C0E0E4CCC0E075F020E626F608E633F677
:1008F30008E633F608E633F6181818EC33FCED3344
:10090300FDEE33FEEF33FFC3EC9709ED9709EE9746
:1009130009EF97191919400FFFEC97FC09ED97FDA3
:1009230009EE97FE191906D5F0BFECF709EDF709A3
:10093300EEF709EFF7191919D0E0FCD0E0FDD0E08C
:10094300FED0E0FF222521C582C0E0E52234FFC5A9
:1009530083C0E0E521C3958224F810AF0885832284
:100963008582218008858322858221D2AFCEF0A3A0
:10097300E520F0A37808E608F0A3DEFAEFF0A3E59C
:100983008124FAF8E608F0A3E608F0A3E608F0A34A
:100993000808E608F0A3E608F0A315811581D0E066
:1009A300FED0E0F8158115811581E8C0E0EEC0E0C6
:1009B30022C0D02521C582C0E0E52234FFC583C013
:1009C300E0E521C3958224F310AF08858322858255
:1009D300218008858322858221D2AFC8F0A3E9F064
:1009E300A3EAF0A3EBF0A37908E709F0A3D8FAECA4
:1009F300F0A3EDF0A3EEF0A3EFF0A3D0E0F0A3D0CB
:100A0300E0F0A3D0E0F0A3E520F0A3E5F0F0A3220B
:100A1300852283852182E0C0E0A3E0F9A3E0FAA365
:100A2300E0FBA37808E0F608A3DFFAE0FCA3E0FD0F
:100A3300A3E0FEA3E0FFA3E0C0E0A3E0C0E0A3E0E7
:100A4300F5D0A3E0F520A3E0A3F5F010AF0885836C
:100A5300228582218008858322858221D2AFD0829C
:100A6300D083D0E0F8D0E032121131B90003020A8A
:100A7300AAE490050178B179178002F0A3D8FCD9D4
:100A8300FA7AB17B1B90008678E279018015E493B2
:100A9300A3AD82AE838A828B83F0A3AA82AB838DBC
:100AA300828E83D8E9D9E77582407583E374041293
:100AB3000DED75829F7583277400120DED75F0108F
:100AC3008E238F248582288583278521828522830F
:100AD300E0CEA3E0CF852882852783EBC9EAC8ED62
:100AE300CBECCAC3E833C8E933C9EA33CAEB33CB27
:100AF300C3EA9EF526EB9FF525B35004AB25AA2642
:100B0300EC33CCED33CDD5F0DAAE23AF2422121083
:100B1300A9601C1210E560171211587007121146D4
:100B23007001D322C0D01211467006D0D0B322C3B5
:100B33002233D0D0501430E0F6C3E7960809E79685
:100B43000809E7960809E796B32220E0D5E6970857
:100B530009E6970809E6970809E697B322D083D0F8
:100B630082ECC0E0EDC0E0E493A3FCE493A3FDEDCD
:100B73004C600D120C38EC24FFFCED34FFFD80EFCC
:100B8300E493A3FCE493A3FDED4C600D120CD5ECB0
:100B930024FFFCED34FFFD80EFD0E0FDD0E0FCE46A
:100BA30093A3C0E0E493C0E022D083D082E9C0E005
:100BB300E493A3C386F0C5F095F0F908E493A38604
:100BC300F0C5F095F0700BE493A3C3994005E904D5
:100BD3008002A3E475F002A42582F582E5F0358353
:100BE300F583D0E0F9E493A3C0E0E493C0E0228569
:100BF3002283852182E0A3FEE0A3F5207808E0A309
:100C0300F608DFFAE0A3FFE0A3C0E0E0A3C0E0E062
:100C1300A3C0E0E0A3C0E0E0A3C0E010AF0885827A
:100C2300218583228008858221858322D2AFD083C8
:100C3300D082020DF3C0E0C3E49396087401939647
:100C430018400FE4936670080874019366187000E7
:100C53007019A3A3C3E49396087401939618A3A3EE
:100C6300400DD0E0D0E0D0E0020B9CA3A3A3A3A34C
:100C7300A3D0E0227404800474028000CCC0E0EDB1
:100C8300C0E0E521C39CCCAD2250011D10AF068C02
:100C9300218D2280068C218D22D2AF120D6FD0E0E0
:100CA300FDD0E0FC2274028000CCC0E0EDC0E0E5A2
:100CB30021C39CCCAD2250011D10AF068C218D2287
:100CC30080068C218D22D2AF120D4DD0E0FDD0E0F5
:100CD300FC22C0E0C0F088F0E49366700808740159
:100CE3009366187000A8F0A3A3700BD0F0D0E0D0E7
:100CF300E0D0E0020B9CA3A3D0F0D0E022D083D0BD
:100D030082CCC0E0E493A36006120D901470FAE461
:100D130093A36006120EEF1470FAD0E0FCE493A3E1
:100D2300C0E0E493C0E022C0E074F21209B4A2AFC1
:100D3300E433FED2AFC2C0E5D1A2E4500312137D67
:100D4300EEA2E092AF7F01020A13CAC0E0E493A3CC
:100D5300C582CCC582C583CDC583F0A3C582CCC56E
:100D630082C583CDC583DAE5D0E0CA22CAC0E0E0FC
:100D7300A3C582CCC582C583CDC583F0A3C582CC70
:100D8300C582C583CDC583DAE6D0E0CA22C0E0E4DC
:100D930093A3D39C5010E493A3C39C400AD0E0D008
:100DA300E0D0E0020D1DA3A3A3D0E022C008C3E05E
:100DB30096F50808A3E096420808A3E096420808BF
:100DC300A3E09645087001D3D008227009080808EB
:100DD300226016181818C6C333C608C633C608C619
:100DE30033C608C633C6D5E0EA22C09FF59FE47335
:100DF300D09F22D083D082C09FE493C0E07401933C
:100E0300C0E0740293F59F227404800A7403800681
:100E1300740280027401C0E0F404120E41D0E012A7
:100E230010F42200C0D0252110AF08F521500C0585
:100E3300228008F52150020522D2AFD0D0222521ED
:100E4300F58210AF08F521400C15228008F52140EA
:100E5300021522D2AF85228322C0E0C0D0E8C0E0D1
:100E6300A8A8D2AFC2C7E8A2E792AFD0E0F8D0D02B
:100E7300D0E032BB0102E722C082C08389828A8329
:100E8300BB0003E08002E493D083D0822260160883
:100E93000808C6C313C618C613C618C613C618C691
:100EA30013C6D5E0EA222521F8E43522F9222521CB
:100EB300FAE43522FB222521FCE43522FD22C3E09E
:100EC300C696F608A3E0C696F608A3E0C696F6080B
:100ED300A3E0C696F622252110AF08F521400C1594
:100EE300228008F52140021522D2AF22C0E0E4930C
:100EF300A36C7009D0E0D0E0D0E0020D1DA3A3D015
:100F0300E022E76670100809E766700A0809E766D9
:100F130070040809E76622C3E09608A3E09608A3D5
:100F2300E09608A3E096A2D265D03322C3E79608E1
:100F330009E7960809E7960809E796A2D265D03330
:100F430022E066701008A3E066700A08A3E06670EA
:100F53000408A3E06622181818E4C396F608E4967A
:100F6300F608E496F608E496F622C3E4939608742A
:100F73000193960874029396087403939622C3E030
:100F830096F008A3E096F008A3E096F008A3E09695
:100F9300F022C3E697F60809E697F60809E697F6FE
:100FA3000809E697F622191919E70947097009E7AD
:100FB30027097005E733F4220922181818E60846B2
:100FC300087009E626087005E633F4220822E026B5
:100FD300F008A3E036F008A3E036F008A3E036F00B
:100FE30022E026F608A3E036F608A3E036F608A3C7
:100FF300E036F622E627F60809E637F60809E6376B
:10100300F60809E637F622700422600D18C6C333CA
:10101300C608C633C6D5E0F41822E657F60809E633
:1010230057F60809E657F60809E657F622E056F0A0
:1010330008A3E056F008A3E056F008A3E056F02218
:10104300E647F60809E647F60809E647F60809E61B
:1010530047F622E056F608A3E056F608A3E056F654
:1010630008A3E056F622C6F4C608C6F4C608C6F4BA
:10107300C608C6F4C622C3E09608A3E09608A3E018
:101083009608A3E09622C3E7960809E7960809E7BE
:10109300960809E7962275D00075813F7521017581
:1010A300220500020A6BE6084608C31346083360AC
:1010B30002E633F422600C08C6C313C618C613C66F
:1010C300D5E0F422E0F608A3E0F608A3E0F608A3CF
:1010D300E0F622E6F008A3E6F008A3E6F008A3E6AC
:1010E300F022E7094709C3134709336002E733F4E2
:1010F30022CAC0E0E6F0A308DAFAD0E0FA22E8F068
:10110300A3E9F0A3EAF0A3EBF022E0FAA3E0FBA348
:10111300E0FCA3E0FD22EAF0A3EBF0A3ECF0A3EDE7
:10112300F022E0F8A3E0F9A3E0FAA3E0FB22E5C78D
:1011330054F84401F5C77901222521F582E43522CB
:10114300F58322E72719471947194722C2AF75D6F6
:101153009F02000022E62618461846184622120D62
:10116300F61AD402120DF663D702120DF6CAD9028B
:10117300120DF676DA02120DF6A6DA02120DF60653
:10118300DB02120DF69ADB02120DF64BDC02120D96
:10119300F69CDC02120DF6E0DC02120DF67ADD029B
:1011A300120DF6EADD02120DF619DE02120DF61F1C
:1011B300DF02120DF649DF02120DF69DDF02120D5A
:1011C300F671E002120DF69FE202120DF64DE302F4
:1011D300120DF6BAE502120DF63FE602120DF642C3
:1011E300E902120DF676EB02120DF6B2EB02120DC6
:1011F300F60BED02120DF61EED02120DF65BED027B
:10120300120DF624EF02120DF6DBF002120DF65763
:10121300F102120DF68AF102120DF6B8F102120D67
:10122300F6F6F102120DF633F402120DF652F40241
:10123300120DF697F402120DF62DF502120DF67942
:10124300F502120DF60DF602120DF6E6F602120D78
:10125300F642F702120DF6A0F702120DF613F8028A
:10126300120DF657F802120DF6AFF802120DF6D171
:10127300F802120DF661F902120DF6F2F902120DDF
:10128300F63EFA02120DF66AFA02120DF6ABFA02F4
:10129300120DF641FC02120DF62DFD02120DF60899
:1012A300FE02120DF640D304120DF673D304120D91
:1012B300F693D304120DF6BAD304120DF6E7D40451
:1012C300120DF608D504120DF6D0D504120DF6C989
:1012D300ED04120DF6CEED04120DF601EE04120D1F
:1012E300F644E104120DF60BE204120DF61DE204BE
:1012F300120DF653EE04120DF664EE04120DF67E93
:10130300EE04120DF6F9FF01120DF6EBFF03120DB9
:10131300F626EC04120DF636EC04120DF64BEC0433
:10132300120DF694EC04120DF6E2FE02120DF666AF
:10133300FF02120DF6CEFF02120DF60BEF04120D93
:10134300F6B3CC04120DF6C1CC04120DF63ACD045B
:10135300120DF613CE04120DF6D6CF04120DF68D30
:10136300EE04120DF6B3AE04120DF61FAF04120D08
:10137300F6C2AF04120DF637B104120DF69EB10496
:10138300120DF6EBB104120DF644B204120DF6C8B9
:10139300B204120DF6FDB204120DF61BB304120DC6
:1013A300F6A1B304120DF624B404120DF631B404FD
:1013B300120DF67B7A00120DF6A77A00120DF611C4
:1013C3007D00120DF6517D00120DF68D7D00120D7C
:1013D300F6A17D00120DF6BA7D00120DF6AC7E006B
:1013E300120DF65F7F00120DF6737F00120DF62EBD
:1013F300E504120DF652E504120DF66BE504120D29
:10140300F6A9E504120DF6D9E504120DF606E60475
:10141300120DF66CE604120DF66FE604120DF67962
:10142300E604120DF686E604120DF65FDC04120DD7
:10143300F67FDC04120DF6BEDC04120DF6DCDC04D0
:10144300120DF6F7DC04120DF65DDD04120DF669DC
:10145300DD04120DF6C6DD04120DF6D5DD04120D02
:10146300F6F9DD04120DF6BADE04120DF6C7DE043A
:10147300120DF6D8DE04120DF6877F00120DF6CF9B
:101483007F00120DF6FB7F00120DF692B404120DCD
:10149300F6E6B504120DF6F4B504120DF607B6041C
:1014A300120DF61CB604120DF631B604120DF644F5
:1014B300B604120DF6C0B604120DF625B704120DCC
:1014C300F6BBB704120DF694B804120DF6A4B804D3
:1014D300120DF6B3B804120DF68DEB04120DF6B12E
:1014E300EB04120DF6D9EB04120DF601EC04120D08
:1014F300F696FD03120DF6BDFD03120DF6DBFD039B
:10150300120DF64AFE03120DF65CD604120DF675A3
:10151300D604120DF681D604120DF695D604120DDB
:10152300F6B3D604120DF6BDD604120DF6C7D604D3
:10153300120DF6DAD604120DF664D704120DF6D99D
:10154300D704120DF60DD804120DF65BD804120D54
:10155300F6A8D804120DF6C3D804120DF6CDD8049C
:10156300120DF6F3D804120DF658D904120DF6D65F
:10157300EA04120DF6F8EA04120DF6F1EE04120D68
:10158300F6179504120DF6439504120DF6609504B3
:10159300120DF6739504120DF68E9504120DF6E8EE
:1015A3009504120DF6169604120DF62A9A04120DDE
:1015B300F6889B04120DF6BA9B04120DF61D9C04CB
:1015C300120DF6A29D04120DF6CA9D04120DF6DF4C
:1015D3009D04120DF6EF9D04120DF62F9E04120DBD
:1015E300F6719E04120DF6819E04120DF6D0E704E7
:1015F300120DF6EAE704120DF612E804120DF62BAB
:10160300E804120DF64FE804120DF66DE804120D0E
:10161300F684E804120DF6B2E804120DF6CDE804E0
:10162300120DF60FEE04120DF62AC904120DF63A46
:10163300C904120DF63FCA04120DF671CA04120D45
:10164300F6A1CA04120DF6C4CA04120DF6DBCA04CD
:10165300120DF615CB04120DF67ACB04120DF6BC5F
:10166300CB04120DF603CC04120DF630CC04120D8C
:10167300F65BCC04120DF6A0FE01120DF6B2FE01CC
:10168300120DF6C6FF01120DF6C9FF01120DF60089
:10169300EA04120DF636EA04120DF678EA04120D86
:1016A300F688EA04120DF6CCEA04120DF6C1A7047B
:1016B300120DF604A804120DF669A804120DF6889B
:1016C300A804120DF62AA904120DF633A904120D6B
:1016D300F684A904120DF6ADA904120DF6BAA904F5
:1016E300120DF62CAA04120DF6BAAA04120DF6FF77
:1016F300AA04120DF638AB04120DF69DAB04120DBD
:10170300F6C6AB04120DF63DAC04120DF68CAC0418
:10171300120DF6C9AC04120DF6FEAC04120DF61050
:10172300AD04120DF622AD04120DF641AD04120DF7
:10173300F64AAD04120DF606AE04120DF649AE04D8
:10174300120DF687AE04120DF612ED04120DF6908B
:10175300E604120DF606DF04120DF63CDF04120D4B
:10176300F684DF04120DF6DDE004120DF666DE03E7
:10177300120DF68CDF03120DF6C8DF03120DF68689
:10178300E103120DF6B4E103120DF61EE403120D8C
:10179300F65EE403120DF600E603120DF696E60379
:1017A300120DF6F0E603120DF680E703120DF6C4F0
:1017B300E703120DF606E803120DF66BE903120DAB
:1017C300F6EBEA03120DF62CED03120DF65AED03B8
:1017D300120DF686ED03120DF68FED03120DF6ECE6
:1017E300ED03120DF685EE03120DF69CF103120DB7
:1017F300F622F203120DF6E7FF02120DF696C1046C
:10180300120DF6ACC104120DF650C204120DF68F80
:10181300C204120DF6ACC204120DF6DDC204120DA1
:10182300F62AC304120DF65EC304120DF699C3041F
:10183300120DF68EC504120DF600E904120DF65FC3
:10184300E904120DF69DE904120DF6DEE904120D0A
:10185300F699C101120DF6A5C101120DF607C201D9
:10186300120DF611C201120DF6A0C201120DF6DC23
:10187300C201120DF6D5C301120DF632C401120DC9
:10188300F6C0C401120DF611C501120DF691C50182
:10189300120DF653C701120DF658C901120DF65277
:1018A300CA01120DF684CB01120DF6D6CD01120D2D
:1018B300F619CF01120DF6BECF01120DF66CD4014D
:1018C300120DF662D501120DF6F8D501120DF61DB3
:1018D300D601120DF6BAD601120DF6D7D601120DA6
:1018E300F6F7D601120DF665D701120DF682D70170
:1018F300120DF6B0D701120DF648D901120DF66993
:10190300D901120DF60FDA01120DF657DA01120D95
:10191300F6B5DA01120DF658DB01120DF6BDDB0147
:10192300120DF61CDC01120DF6CEDC01120DF63D94
:10193300DD01120DF678DD01120DF6ECDD01120D5D
:10194300F637DF01120DF6C7E001120DF666E1016D
:10195300120DF6A6E301120DF608E401120DF63698
:10196300E401120DF659E601120DF603E901120D19
:10197300F616EA01120DF6B19E04120DF6B89F0495
:10198300120DF625A104120DF63FA104120DF65215
:10199300A104120DF671A104120DF63AA204120D60
:1019A300F69FA304120DF65DA404120DF6C7A4045A
:1019B300120DF692A604120DF69BC504120DF656EF
:1019C300C604120DF6BCC604120DF6DDC604120DD4
:1019D300F6B8C704120DF644C903120DF673C90312
:1019E300120DF6EBC903120DF6FACA03120DF656E1
:1019F300CB03120DF6C3CC03120DF6DFCC03120D8D
:101A0300F631CD03120DF66FCD03120DF682CD0321
:101A1300120DF6DACD03120DF69CCE03120DF61855
:101A2300CF03120DF64FCF03120DF687CF03120D1E
:101A3300F60FD103120DF6EED103120DF63CD303CC
:101A4300120DF61FD403120DF6ABD403120DF6EBF1
:101A5300D403120DF60AD503120DF655D503120D54
:101A6300F675D503120DF60ED603120DF694D603B2
:101A7300120DF6EFD603120DF62FD703120DF6C58E
:101A8300D903120DF6DEDA03120DF624DB03120D71
:101A9300F619DC03120DF641DC03120DF644DC03E8
:101AA300120DF64EDC03120DF66ADC03120DF6E49A
:101AB300DC03120DF61DDD03120DF649DD03120DD5
:101AC300F670DD03120DF694DD03120DF605DE0349
:101AD300120DF618DE03120DF647DE03120DF69D06
:101AE300EC04120DF6A9EC04120DF6DDEC04120D54
:101AF300F6F6FF01120DF615B303120DF638B30314
:101B0300120DF685B403120DF6CEB403120DF63A98
:101B1300B503120DF698B503120DF69BB503120D1E
:101B2300F6ECB503120DF661B603120DF6E6B60335
:101B3300120DF6E9B603120DF66AB703120DF6ABF2
:101B4300B703120DF697BB03120DF641BD03120D39
:101B5300F691BD03120DF618C103120DF64BC20325
:101B6300120DF6C5C303120DF662C403120DF64D32
:101B7300C503120DF6A2C703120DF637EE01120DBF
:101B8300F6E1EE01120DF64CEF01120DF667EF01CF
:101B9300120DF6ECEF01120DF646F001120DF68D63
:101BA300F001120DF6E49004120DF673F201120D1A
:101BB300F6A2F301120DF62AF401120DF633F60123
:101BC300120DF66ED302120DF684F701120DF655BF
:101BD300F801120DF610FA01120DF6A8FB01120D11
:101BE300F63BFC01120DF661FD01120DF6008003B8
:101BF300120DF6638003120DF6AB8003120DF6EFA0
:101C03008003120DF64A8103120DF6A78103120D0C
:101C1300F6E28103120DF661D202120DF6BE8203C3
:101C2300120DF63C8403120DF6BC8403120DF61755
:101C33008503120DF6318503120DF6528503120D3D
:101C4300F6AC8503120DF6288803120DF6478803B8
:101C5300120DF6378903120DF66A8A03120DF6E99F
:101C63008A03120DF6258B03120DF6948B03120DC6
:101C7300F6498C03120DF6218E03120DF6288F03FD
:101C8300120DF6A09003120DF6969203120DF60CA8
:101C93009503120DF6E69603120DF6A79703120DA0
:101CA300F61F9803120DF6369803120DF62D9903BD
:101CB300120DF6219A03120DF6909A03120DF66394
:101CC300D904120DF6BADA04120DF679DB04120DFB
:101CD300F6E1DB04120DF61BD004120DF636D00428
:101CE300120DF67AD004120DF6A0D004120DF6C729
:101CF300D004120DF6DFD004120DF681D104120DBB
:101D0300F696D104120DF6B9D204120DF6C2D2041E
:101D1300120DF6CBD204120DF6D4D204120DF6DE58
:101D2300D204120DF6E4B804120DF6F0BC04120D41
:101D3300F6F5BC04120DF6F7BC04120DF6BBE30472
:101D4300120DF6C5EE04120DF66AED04120DF67AC5
:101D5300ED04120DF65EBD04120DF635AC02120D44
:101D6300F668AC02120DF6D4AC02120DF66FAD029A
:101D7300120DF60CAE02120DF651AE02120DF673F1
:101D8300AE02120DF68CAE02120DF6B2AE02120DB9
:101D9300F6D4AE02120DF612AF02120DF656AF02D2
:101DA300120DF678AF02120DF6DAAF02120DF6A19C
:101DB300B002120DF658B102120DF6CAB102120D9D
:101DC300F695B202120DF6E8B202120DF64EB30208
:101DD300120DF688B302120DF6DAB302120DF648AD
:101DE300B402120DF6B3B402120DF6B6B402120D1C
:101DF300F637B502120DF6CEB502120DF64EB60247
:101E0300120DF66DB602120DF6D1B702120DF6DE03
:101E1300B702120DF6EAB802120DF6F7B802120D68
:101E2300F600B902120DF6D8BA02120DF6F2BB0291
:101E3300120DF66BBC02120DF6DDBC02120DF6FF9D
:101E4300BC02120DF693BD02120DF667BF02120D0E
:101E5300F63EC302120DF652C302120DF662C3021E
:101E6300120DF66CC302120DF675C302120DF67E47
:101E7300C302120DF688C302120DF6B5C302120D8A
:101E8300F6DEC302120DF6E9C302120DF60DC4020B
:101E9300120DF631C402120DF69BC402120DF6E1C7
:101EA300C402120DF6FEC402120DF67BC502120D1A
:101EB300F6B2C502120DF6F1C502120DF63EC602C8
:101EC300120DF6C4C602120DF692C802120DF615D3
:101ED300C902120DF6F9C902120DF660CC02120DF9
:101EE300F6B9CC02120DF603CD02120DF65ECE0248
:101EF300120DF693CE02120DF6E5CE02120DF69AEE
:101F0300CF02120DF649D002120DF686D002120D41
:101F1300F61BD102120DF687D102120DF6BE2D006B
:101F2300120DF6F02D00120DF61E2E00120DF6F412
:101F33002F00120DF6D43000120DF62C3100120DC5
:101F4300F6673200120DF6B33200120DF6DC3500DF
:101F5300120DF6CF3800120DF61F3A00120DF6B52A
:101F63003A00120DF6C13A00120DF6F33A00120DC3
:101F7300F6763C00120DF6273E00120DF6BB3E002E
:101F8300120DF6FE3E00120DF67C3F00120DF6997F
:101F93003F00120DF6C93F00120DF6FE3F00120D71
:101FA300F6CE4000120DF6774100120DF6FD430008
:101FB300120DF61D4500120DF6084600120DF68AA5
:101FC3004600120DF6BE4A00120DF6FB4A00120D32
:101FD300F6534B00120DF6864B00120DF6F04B0034
:101FE300120DF6264C00120DF6B14C00120DF60937
:101FF3004D00120DF6E04D00120DF6994E00120D34
:10200300F6344F00120DF63C5200120DF6585300F1
:10201300120DF6FB5600120DF6EF5700120DF6F2F5
:102023005700120DF6215800120DF6275A00120D13
:10203300F6005B00120DF6435B00120DF6995C008F
:10204300120DF6D85C00120DF6615D00120DF695C7
:102053005D00120DF65A5E00120DF6726000120D4D
:10206300F6E36000120DF6236100120DF6B1610074
:10207300120DF6D36200120DF6956300120DF69C55
:102083006500120DF6B46500120DF6C86500120D59
:10209300F6006600120DF62E6600120DF6AD67000F
:1020A300120DF6D26800120DF62F6900120DF6E13B
:1020B3006900120DF6086A00120DF6CF6A00120DC0
:1020C300F6676B00120DF68D6D00120DF6C26D00F2
:1020D300120DF6256E00120DF6546F00120DF6FC6C
:1020E3006F00120DF62D7000120DF6457000120DE3
:1020F300F6D47000120DF6887300120DF6607500A9
:10210300120DF67C7500120DF6987500120DF66629
:102113007600120DF6597A00120DF6A28401120D03
:10212300F6D48401120DF6C38801120DF60F89014E
:10213300120DF6558901120DF6F78901120DF653AA
:102143008A01120DF6988A01120DF6DF8B01120D2A
:10215300F6F38C01120DF6E29001120DF666910171
:10216300120DF6739201120DF6CF9201120DF6BF06
:102173009401120DF6349501120DF63E9501120DE0
:10218300F64B9501120DF6769501120DF65D96014B
:10219300120DF6079701120DF6859701120DF6A59C
:1021A3009701120DF6CE9701120DF6F09701120D5D
:1021B300F6509A01120DF6169B01120DF65B9B0168
:1021C300120DF6D89B01120DF6899C01120DF6BB78
:1021D3009C01120DF6019D01120DF63D9D01120D9C
:1021E300F68D9D01120DF6E19D01120DF6379E014C
:1021F300120DF6839E01120DF6F09E01120DF66B81
:102203009F01120DF636A101120DF636A201120D31
:10221300F65BA301120DF69AA601120DF6ADA90104
:10222300120DF66AAA01120DF6AEAA01120DF65EA0
:10223300AC01120DF672AC01120DF67CAC01120D5D
:10224300F686AC01120DF692AC01120DF6AEAC019E
:10225300120DF659AD01120DF698AD01120DF6A24D
:10226300AD01120DF6ACAD01120DF61CAE01120D4F
:10227300F667AE01120DF67CAF01120DF6D8AF0171
:10228300120DF659B001120DF618B101120DF62117
:10229300B201120DF655B301120DF643B401120D3E
:1022A300F65BB401120DF6B6B401120DF6D4B40107
:1022B300120DF61CB501120DF643B501120DF6DE33
:1022C300B501120DF6A4B601120DF636B701120DC3
:1022D300F6B0B701120DF6CAB801120DF677B901BF
:1022E300120DF69FBA01120DF6EFBA01120DF65355
:1022F300BB01120DF6B5BB01120DF6E3BB01120DC6
:10230300F607BC01120DF63CBC01120DF66DBC01C3
:10231300120DF6A0BC01120DF6C0BC01120DF62879
:10232300BD01120DF61CBE01120DF677BE01120D92
:10233300F6A0BE01120DF628BF01120DF6ABBF01C8
:10234300120DF6D6BF01120DF6BBC001120DF681B8
:10235300F203120DF6B9F203120DF6DAF203120DBF
:10236300F61CF303120DF67EF303120DF688F30346
:10237300120DF698F303120DF6D3F303120DF6B311
:10238300F703120DF6A0F903120DF686FB03120DE7
:10239300F61DFC03120DF6BFFC03120DF624810299
:1023A300120DF6A28102120DF6FE8102120DF649FC
:1023B3008202120DF6648202120DF68F8202120D52
:1023C300F6AC8202120DF6B88202120DF64F8402A9
:1023D300120DF6688402120DF6ED8402120DF6005A
:1023E3008502120DF61F8502120DF6C38502120D2A
:1023F300F6448702120DF6F78802120DF68D890254
:10240300120DF6908902120DF6008A02120DF61EC5
:102413008A02120DF6B58A02120DF6FD8A02120D1A
:10242300F6008B02120DF6C68B02120DF6338C02E8
:10243300120DF6598C02120DF6E48C02120DF602FF
:102443008D02120DF6488D02120DF6FC8D02120D4F
:10245300F6468E02120DF6758E02120DF6D28E021C
:10246300120DF6078F02120DF6338F02120DF6418D
:102473008F02120DF68E8F02120DF6FE8F02120DD1
:10248300F6479002120DF6939002120DF6BF9002DA
:10249300120DF6CA9002120DF6E89002120DF6D351
:1024A3009102120DF6DD9102120DF6189202120D31
:1024B300F6289202120DF6319202120DF68592025F
:1024C300120DF6999202120DF6C89302120DF6DD63
:1024D3009302120DF66B9402120DF6B09402120DD4
:1024E300F63C9502120DF6479502120DF6899602F7
:1024F300120DF6A49602120DF6F09602120DF65F77
:102503009702120DF6989702120DF6B29702120D6A
:10251300F6F49702120DF6C49A02120DF6719B029D
:10252300120DF6DE9B02120DF61E9E02120DF636FA
:102533009E02120DF6399E02120DF6459E02120DF1
:10254300F6599E02120DF6619E02120DF6949E023A
:10255300120DF6969F02120DF61DA002120DF68DB6
:10256300A002120DF60FA102120DF6D0A102120D58
:10257300F6EFA102120DF690A202120DF6EDA202E1
:10258300120DF6F0A202120DF664A302120DF6B3B9
:10259300A402120DF6B9A502120DF644A602120DFD
:1025A300F65FA702120DF627A802120DF658A8022D
:1025B300120DF67BA802120DF684A802120DF6B3D3
:1025C300A802120DF643A902120DF6F9A902120D83
:1025D300F66EAA02120DF615AB02120DF68AAB02C5
:1025E300120DF6C1AB02120DF6FFAB02120DF6DCB3
:1025F300D202120DF6419004120DF6418F04120D12
:10260300F65A8E04120DF64A8C04120DF6588B04FA
:10261300120DF6F68A04120DF601B303120DF6F746
:10262300B203120DF68CB203120DF6C0B003120DF5
:10263300F67EB003120DF6E0F601120DF696D20205
:10264300120DF682AF03120DF656AF03120DF62EDE
:10265300D202120DF619D202120DF60DAF03120DAE
:10266300F64EAE03120DF63AAB03120DF6FBA803BA
:10267300120DF6C8A803120DF66FA803120DF60289
:10268300A803120DF6C1A703120DF6FAA603120D45
:10269300F694A603120DF633A603120DF6D3A50383
:1026A300120DF6AAA403120DF63EA403120DF6961C
:1026B300A303120DF691A303120DF685A303120DC6
:1026C300F6B89F03120DF6929F03120DF6EED10298
:1026D300120DF6D19404120DF69D9404120DF646D4
:1026E3009404120DF6B49204120DF6069204120D20
:1026F300F6699104120DF6309F03120DF6D19E0375
:10270300120DF6929E03120DF65F9104120DF67FE1
:102713009E03120DF6749E03120DF6439E03120DD3
:10272300F6309C03120DF6648203120DF6A39B038D
:10273300120DF6F89004120DF65F9B03120DF6339B
:102743009B03120DF6868A04120DF6598A04120DA4
:10275300F6268A04120DF6FE8904120DF69F8904EB
:10276300120DF67F8904120DF64A8904120DF6F64E
:102773008504120DF6DE8304120DF6C88104120DD2
:10278300F6488104120DF6F48004120DF60080045D
:10279300120DF6A88004120DF6F4F001000000807B
:1027A300FB000022E4738F000100531C870001002B
:1027B300511C350004001A1C250002001E1C2600B3
:1027C3000200201C27000200221C280001002C1CF0
:1027D300290001002D1C84000400A11986000100BA
:1027E300BF1B2A0001002E1C2B0001002F1C2C00F4
:1027F3000100331C2D000800AD192E000100341C0C
:102803002F000100351C30000100361C310001008F
:10281300371C32000100B51933000100B61934002A
:102823000100381C36000100B71938000100391CBB
:1028330039000100321C830002004F1C63000100B9
:10284300C31964000100301C65000100311C6D00D8
:102853000100C41971000800A519660001004E1C8F
:10286300430001003F1C44000200401C45000100DE
:10287300421C46000200431C47000800BB194800E5
:102883000100451C4B000100461C04000100521CC2
:10289300A1000100561C37000100551C88000100EF
:1028A300541C3C000100B8193D0001003A1C4900CA
:1028B3000200471C67000100C5194D000200491CB6
:1028C3004E0001004B1C4F0002004C1C3E00010057
:1028D3003E1C51000100B919520001003C1C530079
:1028E30001003D1C54000100BA1900000000000063
:1028F300000136360101000102010001030100015C
:102903000401060605020000070100340801000F58
:10291300090401010D0100FF0E0800001702000069
:10292300190100FF1A0100011B0100FE1C01000830
:102933001D0200001F01000120010001210200000F
:102943002301000F240200002601000127010008D3
:10295300280200FF2A0100072B0102402C0100007E
:102963002D0100012E0100012F0100FF30010B1D7D
:10297300310800003A0100083B01000F3C0100014F
:102983003D0100FF3E040000420400004604000035
:102993004A0400004E0400005204000056040000E4
:1029A3005A040000000000002001A0840000010080
:1029B3002001A1840000020020019C840000030088
:1029C30020019D84000004004201CE830000050025
:1029D30042014383000006004201A7830000070071
:1029E30030019E840000004042010E840000FDFF80
:1029F300210198842A04000039058A182A04C80092
:102A0300390592182A04C90039058E182A040102CF
:102A13002123F11B2A0421022123E51B2A0422027C
:102A23002123E71B2A0420021023E91B2A04250281
:102A33001023EA1B010371030103010301030103D3
:102A43000103220302030103100300030003000335
:102A530000030003000300034203000324030603EF
:102A630000030003040312032503230325032303A5
:102A730004030403000300030003440300030003EF
:102A830023030003650321003503810300030503CA
:102A93000003000300030003250323030300710065
:102AA30030016000110070003102200350048000E7
:102AB30010006100000014006300730072006200E4
:102AC3004300000013000600000000000400120091
:102AD300000000000000000004000400370037007D
:102AE3003C024400000000000000000065000000FC
:102AF3003500810000000500000083000000010193
:102B03007101010101011101010131010101010102
:102B13008001100161013B00140063017301720124
:102B2300620143010001130106013D013500040167
:102B3300120100010001000100010401040133013D
:102B430033013C01440132013600000100016501FB
:102B530000013500810100010501820183010001AB
:102B630003027102300160021102700201020202CB
:102B730002028002100261023A0041006302730202
:102B830072026202430200021302380000020002D2
:102B93000402120200020002000200020402040204
:102BA300370037003C0244020002390000020002F1
:102BB30065020002350281020002050282028302DD
:102BC300000236000100060000000F0000000000B4
:102BD300000000000000000003FFFF00000403FFEB
:102BE300FF0000FFFF0FF4010005C40403200001F0
:102BF30000000B000000000000000003010F0000B4
:102C030000000000000000000000000000000000C1
:102C130000000000000000000000000000000000B1
:102C230035195F193B196F18411965194119711944
:102C330047196F18411965194D196F1800000000E5
:102C430053196F18000000000000000059196F1895
:102C53000000000000000000000000000000000071
:102C63000000000000000000000000000000000061
:102C73000000000000000000000000000000992791
:102C83000100992702001B1B0280151B0300211B57
:102C93000400271B04802D1B0500331B06003F1B6C
:102CA3003100511B3300571B34005D1BFFFF000035
:102CB300030003000400080010001F003E007B0017
:102CC300F600EC01D703AF075D0FB91E713D00009D
:102CD30007ECFDFDFDECDCDCCCBCACAC9C9C8C7C43
:102CE3007C6C6C5C5C5C4C4C3C3C2C2C1C1C0A933C
:102CF30021025D210569210763210C45210D512125
:102D0300FF000000160F00000B150B020002220F3C
:102D13003300000E0F5A6967426565416C6C696147
:102D23006E63653039D0D1D2D3D4D5D6D7D8D9DADA
:102D3300DBDCDDDEDF150AF4D4C0A59582726361A6
:102D430055504900034D4C4651181A250502000100
:102D530019161816161823030030301618192023D5
:102D63001A1C1E30303017181921301B1D1F30005C
:102D73003C40423A3F3F392F47300C0E020B040BC5
:102D83000A0708000F02040201010101090200BE43
:102D9300040AE8030000E8030100F6FB382D0300F2
:102DA300D32C0E0010030A0C040408040328020C9D
:102DB300051E0815FF00FF0412091EC082C08312FE
:102DC30012099019EE7435F0A3741FF09019F07482
:102DD3003BF0A3741FF09019F27441F0A3741FF039
:102DE3009019F47447F0A3741FF0025AF974F712A0
:102DF30009489019E2E4F0E99019E1F07CBB7D19F0
:102E03007AE37B1912184B901C45E09019EBF09074
:102E130019EC74A5F0A37419023D8674F0120948E5
:102E2300EAFEEBFF54807003022F8F9019E1123EEC
:102E33001B7003022F88EA241B125686707CEA2437
:102E43001F12568664137002A3E0706E8A828B830E
:102E5300122FDD9019FC124C18750A00750B0080B7
:102E63000D123C5C126CF8121767AA0EAB0FEA4BFB
:102E730060488A828B83E0650C7004A3E0650D7063
:102E83002C8A828B83A3A3A3A3E0F50EA3E0F50F03
:102E9300E50A450B8A828B83A3A3A3A360C3123FD6
:102EA3005E850A82850B83A3A3A3A380B78A0A8BBB
:102EB3000B8A828B83124C1480B4E508242A1256A1
:102EC30086FCE5082402F8E43509F9E8FAE9FB9001
:102ED30019FC1230C4A3A3E06402703C8A828B8382
:102EE300124C18800B88828983A3A3A3A3123F5E8D
:102EF300E849601F88828983E06A7003A3E06B70EE
:102F0300E488828983A3A3E06C70DA901C4B125986
:102F1300B6806BECF9121F71850882850983E06422
:102F230001704FE5082418122FC6120E171262A063
:102F3300120C77E5082412122FC6120E17E5081299
:102F43003E0F120E13E508240B1262A4120C7BE54C
:102F5300082417123DACE5082402FCE43509FDE51D
:102F6300082419FAE43509FB12277B740A120E268A
:102F7300800CE064027007AA08AB0912204FAA086C
:102F8300AB091216D1EEFAEF6480802DEA54026089
:102F93000C901C5E7401F0EA6402FA8023EA540880
:102FA300601A121F6BEA4B700B9019FE12617B7A49
:102FB30008122FD3EE6408FAEFFB80047A007B003B
:102FC30002692AF582E43509F583E0F50A780A22D5
:102FD300FB9019E1E0F912182122A3A3E0F50CA359
:102FE300E0F50D227B009019E1E0F9121815740445
:102FF3002274F41209488A088B098A828B83A3A35B
:10300300A3124A10123DB738F583E02409FA126877
:10301300C270030230B78A828B837402124A858599
:1030230008828509831230C4E8F0A3E912653C8A5B
:10303300828B83A3A3A3A3A3A3A3A3F0E5082403E1
:10304300F8E435091230B9123DB73AF583E08E82C0
:103053008B83A3A3A3A3F0EE2409FAE43FFB8E82A0
:103063008F83A3A3125C68F5838882E0A2E58E8236
:103073008F83A3A3A3A3A3500474018001E4F0E509
:10308300082403F5828983124C18EA1251993BF5FF
:1030930083126889120E0F123DB63B125D5A8E825F
:1030A3008F83A3A3127A38120E26EEFAEFFB901940
:1030B300E112690F8016F98882F583E0FAA3E0CA6A
:1030C30022124DB5A3A3227402120E267F04020B13
:1030D300F274F21209488A088B09ECFAEDFB740EBC
:1030E30012113CE0FC12123F8A0C8B0DAE0CAF0D9B
:1030F300EA4F6030AC08AD0912122DE96026AC0826
:10310300AD09EEFAEFFB121233E970148E828F834E
:10311300123F4BFAEFFB121227AA08AB0912125700
:103123007900800279B4024D0474F012094874F6F0
:10313300120ED9EAFEEBFF8C088D09750FB38521BA
:1031430082852283E4F0750E008002050E902DAE79
:10315300E493F8E50EC3984003023253AA0E7B00B2
:1031630012127B8A0A8B0BEA4B60E08A828B83A361
:10317300A312325A28F0F8C3EE98EF940050CC7C97
:10318300157D007900AA08AB091216B9850A828554
:103193000B83A3A3A3A3126D35E0F8EEC3982925EF
:1031A300E0F8E433F9E50A28F582E50B39F583A362
:1031B300A3A3A3A3A3123DC1A31257DD8A0C8B0DB6
:1031C300AC0CAD0DAA08AB0912184B850A82850B0E
:1031D30083A3E06401700A1262A07401123DD380DC
:1031E300447401120EB9850A82850B83124C1612A0
:1031F3001263E9603D740912113CE0C0E01262A061
:10320300D0E0F0740912113CE064037013740112EE
:103213000EB9E508240BFAE43509FB12184B8012AA
:10322300740112113C123F5EE5081257C3350912AF
:103233006CF6850A82850B831262AC123DD3A3A37D
:10324300E0C0E0E50824141262A4D0E0F0750F009A
:10325300A90F740A026927A3A3A3E0F88521828535
:103263002283E02274F7120948E9FE8A828B83A342
:10327300A3A3A3A3A3E0540860338A828B83A3A3ED
:10328300A3A3A3A3E0540260218A828B83A3A3A3F5
:10329300A3A3A3A3A3A3E06406600F74E96E600A6B
:1032A30074CD6E600574F06E7003121F53024603F3
:1032B30074F012094874EF120ED9740F12113C12F4
:1032C300605F740812113CE9F0ECFEEDFF74051227
:1032D300113C1243CB1245EFA3E0F912124B7406D3
:1032E30012113C12605F740612113C12522A7003D1
:1032F30002356E123DFBE0FA740612113CE0F9123E
:103303001E931235CEF8A3E0F9E849700302356E37
:10331300EE2403F50AE43FF50BEE2406F508E43F3B
:10332300F5097C00850882F583124C18850A82858D
:103333000B83E0F9121251740312113C12605F8582
:103343000A82850B83E0C0E08521828522831235C2
:10335300C7D0E012533FF9852182852283123C6353
:10336300124E9112325DFAA3E0CA2407F582E43AC1
:10337300F583E8F0A3E412606A2406F582E438F5E5
:1033830083E4126D02124A04120E0FEE123DB73F90
:10339300125D5A740312113C124A102409127A3234
:1033A300120E26742912113C126D2F1230BE1253C5
:1033B300523A126CF6742B12113CE0C0E085218264
:1033C3008522831251F1D0E0F0740212113CE4F033
:1033D300742512113C78081210C70234C574031205
:1033E300113C125D228882F5831235B6A3A3A31282
:1033F30057E8FB121269850E82850F83A3EAF0A3B7
:10340300EBF0740312113C1235C7A31235B61259EF
:10341300F7A2E6500F850E82850F83A3A3A3A3A370
:10342300E0D2E1F0740512113CE0706B850E8285E9
:103433000F83A3123F5E901A3CE0687003A3E06918
:103443007055850E82850F83A3A3A3123D96750C39
:1034530000780C120E177808120E0B742912113C07
:10346300E0F50C780C120E17742712113C120C7B2A
:10347300901A49120C7B7900741912113C124BE813
:10348300122097740A120E26850E82850F83A3A33A
:10349300A3A3A3E04405F0740212113CE004FC8EE4
:1034A300828F83124C128E828F83A3A3A3E0F9121F
:1034B3001251740312113C12605F740212113CE04A
:1034C30004F0740312113C12522A60677402121141
:1034D3003CE0FA740612113C123F5EC3EA98E49989
:1034E3005051740212113C1238A085218285228327
:1034F300E028F8A3E039F9E8240FF50EE439F50FD5
:10350300850E82F583E4F0740312113C1235C16415
:103513000160030233E0740512113C740112691552
:10352300F0740312113C125AE91238C3E8F0A3E90C
:10353300023404852182852283124C18121E998538
:103543002182852283120C7B742612113CE0FD74C8
:103553002512113CE0FC740A12113CE0F9EEFAEF7B
:10356300FB121F4D7402120E2680438E828F83A39B
:10357300A3A3E0C0E0740C12113CD0E0F012677E0C
:10358300E0C0E0740D12113CD0E0F0740612113C5F
:1035930012522A7009740E12113C74B98007740E0A
:1035A30012113C7410F07409120EB11220917411AF
:1035B300026927E0850E82850F83A3A3A322E0126D
:1035C3005317E022E0125317A3A3228521828522F9
:1035D30083EAF0A3EB1252332274F012094874E128
:1035E300120ED9740412113CE9F0740312113CEC6D
:1035F300F0740212113CEDF08A0E8B0F742F12112E
:103603003C122FDFAA0CFB121E87740112113CE936
:10361300F0AA0CAB0D121E8D740112113CE0700365
:1036230002389B852182852283E480158E828F83D5
:10363300A3A3A3A3A3E0D2E3F0852182852283E0A1
:103643000412686DF8852182852283E0C3984003C4
:10365300023892740112113CE07003023892852102
:10366300828522831238A0E50C28F8E50D39F9E8A4
:10367300240FFEE439FF8E82F583A3A3A3A3A3E063
:10368300A2E040B5750800750A08750B00740212B4
:10369300113CE060037508207C087D007900740507
:1036A300120EB11216B98E828F83E0603E901A8C8F
:1036B300E06401701AE508D2E3F508750B101238BF
:1036C300B012113CE8F0A3E91256DB74FF80764395
:1036D300080C750A0C8E828F83A31238BB126CF808
:1036E300740512113C74FFF0A3805A740412113C48
:1036F300E06009E508D2E6F508750A0A8E828F8331
:10370300A3E064FE7003A3E0F47030741212113C62
:1037130074041262CAF8741D12113CE8124A8574CB
:1037230012120EB1121DB57D007C007900741512C2
:10373300113CAA82AB83121B8D800B1238B012117D
:103743003CE8F0A3E9F0740712113CE508F0123DE0
:10375300F2C0E0740912113CD0E0F0740A12113C7B
:103763007401F07405120EB1122055741112113C3C
:10377300E06003023870740D12113C12533A8E82CA
:103783008F83A3A3A3A3F0740D12113C124A53E534
:103793000AF0A3E50BF0740312113CE0C0E01249F8
:1037A300E4D0E01259F76011901A8CE0C0E0740D78
:1037B30012113C124A2ED0E0F0740D12113C123F4C
:1037C3005E850C82850D83A3A3A3A3A31238A9242A
:1037D3001C126059126D121238AB1259A9391267B3
:1037E3009DC0E01249CBD0E0126862C0E0740D12B4
:1037F300113C124511D0E0126563C0E0740D121143
:103803003C124507D0E0F0740D12113C1238BB1284
:1038130038A9242A126059850E82850F83A3A3A396
:10382300A3A3A3A3A3E0126052123DE1C0E012449C
:10383300F3D0E0F0740D12113C124C18850E828502
:103843000F831268782428F582E43B126CF6123D4C
:10385300EA126889120E0F125D53EA125FEB3B12F4
:103863007A36120E267405120EB112205B8E828FE9
:1038730083A3A3A3A3A3E0D2E0F0741112113CE04D
:10388300600302362F740112113CE01402363B79B7
:1038930000AA0CAB0D121F59741F026927E075F0C3
:1038A30007A4F8A9F022A3A3124C1CE8228E828F4E
:1038B30083A3123F62740522E01238C3A3A3A32299
:1038C300F8A3E0F9850E82850F83A32274F0120911
:1038D3004874E8120ED9E9852182852283F08A0E85
:1038E3008B0F8A828B83A3A3A3A3A3A3A3A3E0F930
:1038F300121EB18A088B09EA4B70030239ACE50E3C
:103903001251AD123E0A123DA1852182852283E028
:1039130060030239AF7C04850E82850F83A3A3A3C2
:10392300A3A3A3A3A3E0F9121EB7EE4F607B8E827D
:103933008F83A3A3A3A3123F5E740712113C1261EA
:1039430090123F5E740912113C124AB5C0E0741123
:1039530012113CD0E0126541A3A3A3A3A3A3A31216
:103963003F5E740F12113C126CF8741212113CE496
:1039730012691DC8241FF582E438F583125D1EC445
:1039830013135403FC70027C048E828F83E0F97856
:1039930008120E13742059FD744059F97403120E62
:1039A300B1121F4D7402120E260269257C08850E82
:1039B30082850F83A3A3A3A3A3A3A3A3E0F9121E4A
:1039C300B78B0BEA4B700302392DEE4F60DB852179
:1039D30082852283E0F50C780C120E178508828508
:1039E3000983A3A3A3A3A3A3A3E0F50C780C120E4E
:1039F300178A828B83A3A3A3E0FB8A82850B83129E
:103A030075558A82850B83E0FA8E828F83A3A3E0A8
:103A1300F91227817402120E2602393174F7120942
:103A23004874FA120ED9E9FE780179017F00800308
:103A330079000F124D94E0FCEFC39C5026EF75F014
:103A430007A4FC85F008AD08EA2CFCEB3DFD12430E
:103A530083E0A2E050DA540C60D6E0A2E250D378BF
:103A63000080CF8A828B83A3A3A3A3A3A3E0703D8B
:103A7300E9A2E0400574016E70338A828B83A3A3AD
:103A8300A3A3A3A37401123D73E0C0E07403121156
:103A93003CD0E01243E2E0C0E0740412113CD0E0F9
:103AA300F0740512113CE8125CBD122091740602F9
:103AB3004600C082C0837901121F59025AF974F477
:103AC300120948EA4B901C5E6019E4F08A088B09DE
:103AD300F50AF50B7808120E0B7A02122FE7120E75
:103AE30026800A7401F07A027B00122FD40230CFB1
:103AF30074F012094874F3120ED9740312113CE4E2
:103B0300F0A3F09019FC123DA1740112113CE4F0F2
:103B1300A3124A8A04F0901A36E0A2E35003023B50
:103B2300E6123D67740912113C1211017409121156
:103B33003C78081210C79019FE7808120EC174055C
:103B430012113C78081210D6123C6A740512113C0B
:103B5300780812107950077A017B00023C577405EC
:103B630012113C780C1210C7901C4AE0F509780C2E
:103B730079081208D9A80CA90D901C4BE0C398E44E
:103B8300995003E08001E8852182852283F074093E
:103B930012113C78081210C7C008C009C00AC00B34
:103BA300740512113C780C1210C7123C6A780C7918
:103BB300081208D9E4F50AF50BD00FD00ED00DD0BA
:103BC3000C780C7908120F959019FE780C1210D608
:103BD3008011123C5C126CF8EEFAEFFB121767AE21
:103BE30008AF09EE4F60658E828F8312325AC398F5
:103BF300502DEE2403F8E43FF9E0FA88828983E04C
:103C0300C39AF06023740312113C1240C47401126E
:103C1300113CEEF0A3EF1261ABFEA3E0FF80C48E74
:103C2300828F83A3A3A3E4F08E828F831279EF7430
:103C33000112113C12522A8E828F83A3A3A3A36085
:103C43009112618412113C123C6380897403121136
:103C53003C124C18740D026927123F629019FC2222
:103C6300125D49A3A3A322901C491279F7E4F50A34
:103C7300F50B2274F01209488A088B09890A780027
:103C830079009019FC123DA1FBEE4B601E088E8259
:103C93008F83A3A3A3A3124BE2601008E87001096A
:103CA3008E828F83123D9DEA4F70E3901C4C124C21
:103CB30018C3E89AE99B4003023D5A7A06123D5D18
:103CC300A80CA90DEA497003023D5A8A828B83E549
:103CD30008F0A3E509123D7CE50AF0901C4B124D58
:103CE3009C123D73A3E4F0A3F09019FC124BE26025
:103CF3000D8E828F83A3A3A3A3126CF88017901950
:103D0300FC126CF8901A36E0A2E34009123D67906A
:103D130019FE121101901A36E0A2E3503A7A087B99
:103D2300009019E1E0F9121827EA4B4C4D702890E6
:103D33001C49E0F508A3E085080CF50DE4F50EF544
:103D43000F780C120E0B7A087B009019E1E0F91240
:103D5300181B7404120E2602692A7B001217618A4B
:103D63000C8B0D22121833EAF8EBF9ECFAEDFB2277
:103D7300123D7722123D7CA322F08A828B83A3A378
:103D830022E508F0024603F08E828F83A3A3A3A348
:103D9300A3A322125694A3A3F022A3A3A3A3E0FEFA
:103DA300A3E0FF227F05020BF2F582E43509F583D8
:103DB300E0F922EA123DBB222410F582E422123DEF
:103DC300C9A3A3A3A322123F668508828509832280
:103DD300123DD722F0850A82850B83A3A322E50E29
:103DE3002411123E07E022E50E240E123E0722E5BF
:103DF3000E2410123E07E022123DFF22EE123DBBBD
:103E03003FF58322F582E4350FF58322240FF50A6B
:103E1300E43509F50B780A22E0F91216E38A088BD8
:103E230009EA4B2274F2120948890B8A088B098A22
:103E3300828B83124C18121F7DEA4B600479B88081
:103E43006A121F89E9F8902DA7E493F9E8C3994012
:103E53000479B280567A15123D5DAE0CAF0DEA4F70
:103E63007004791080458A828B83E4F0A3123D7C31
:103E7300E50BF0750A007808120E0F7C127D00EA3C
:103E83002403126834120E26901A0212522A700862
:103E9300901A02800C123F5E88828983123EB170B1
:103EA300F4EEF0A3EFF0121F9B7900024D04124CC5
:103EB3001CEA4B8882898322C082C083901A0280C5
:103EC300048C828D83127556EC4D60288C828D8311
:103ED300A3A3E069600574FF6970E68C828D83A3F8
:103EE300A3A3E06A7003A3E06B70D6EC2403FAE4A7
:103EF3003DFB80047A007B00025AF974F7120948EB
:103F0300E9FD74FE6D70047C0180027C00901A024E
:103F130080096D70027C018882898312522A601F96
:103F230088828983A3A3A3E06A7003A3E06B70E78D
:103F3300ECA2E088828983A3A3E050D6F9800279BA
:103F4300FE024603EEF9800CA3A31279F7EE227466
:103F530002120E267F02020BF2F583123F62221237
:103F63003F6622E0F8A3E0F922123F668E828F8338
:103F730022120E267F03020BF2C082C083790090C7
:103F83001A02800109E0FAA3E08A82F583E58245FB
:103F93008370F1025AF974F6120948E4F508F50939
:103FA3007808120E13902DA7E49375F013A4A9F0CB
:103FB3001240B9126D56120E26E9FE74096E700393
:103FC300121F95023F4774F612094874FE120ED968
:103FD300852182852283E4F0A3F0A821A922880801
:103FE30089097808120E13750802750900780812FA
:103FF3000E131269C7120E26023F5274F5120948B6
:1040030074EB120ED9852182852283E4F0A3F0900C
:104013001A0280748E828F83A3A3E0C0E07402121D
:10402300113CD0E01256DBA982AA8389088A09755C
:104033000A007808120E0F7C127D00740612113CE0
:10404300126D1B120E267402120EA98808890978B4
:1040530008120E137508137509007808120E1374ED
:104063000412113C1251CD75F013A4F8AAF075F0A7
:1040730013E91240B51269CF120E268521828522DB
:10408300831240C48E828F83123DA1EE4F7085A8A8
:1040930021A922880889097808120E137508027568
:1040A30009007808120E131269C7120E267415023E
:1040B3003F74A42AF9E82402FCE439FD7A427B0028
:1040C30022E02401F0A3E03400F02274F412094842
:1040D30074EB120ED97E007F00A821A922880889DB
:1040E300097808120E137508028E097808120E1348
:1040F3007C007D007A42126D62120E26E9706C8E8E
:104103000880567402120EA9880A890B780A120EC7
:1041130013750A13750B00780A120E13E50875F070
:1041230013A4F8AAF075F013E5091240B5126D64F3
:10413300120E26E9701B740312113CAA82AB83741E
:104143000212113CE0F9121F77E970050EEE7001BF
:104153000F0508E50870020509852182852283126F
:104163003F5EC3E50898E509994098EEFAEFFB74C2
:10417300150230CC74F61209488C828D83A3A312E6
:1041830043D0F0EA125FF13BF583E0C0E012438DC8
:10419300D0E0F0EA241DF582E43B123F5C12437148
:1041A3001243CBF0A3F0EA241FF582E43BF583121C
:1041B3003DA1EC1243643DF583EEF0A3EFF012430F
:1041C3006A3BF58312439BA3A3A3A3A3A3EEF0A38C
:1041D300EF125C4CFE8C828D831243DA74035EFE15
:1041E300C394034003024357EE600874026E6003F6
:1041F30002427C8C828D83E0540CFE740C6E70033F
:104203000242BBE0A2E4400D88828983E08C828D68
:1042130083A31243F074086E60030242BB12437B14
:104223007401F08A828B83A3A3A3A3A31256A17064
:10423300148C828D83E0440C1243E2A3A312439BAC
:10424300EEF0A3EFF08C828D83E0A2E4402B888212
:104253001243A91243BE500109F5821243A9A3A335
:10426300A3A3A3A3F0A3EF1243EA8C828D83A3A39A
:10427300A3F0E82403F850010988828983E0C0E0B1
:10428300EC2411F582E43DF583D0E01243DA8C820D
:104293008D83E0A2E7507588828983E0FE8C828D4E
:1042A300831243F074FC5E700C8C828D83A3E05404
:1042B300036403701E02435712437BE4F0740C6ED5
:1042C300600302422688821243AF1243BE500109A3
:1042D3000242488C828D83A3E05403603288828932
:1042E30083E0C0E0EC1243953DF583D0E01243F147
:1042F3008C828D83E054036402701488828983E086
:10430300C0E0124383D0E01243F18003A3E4F0EC56
:104313001251993D126CF6EC2410FEE43DFFEA24A1
:104323001DF582E43BF583E0F5088E828F83E0C3BD
:10433300982508F508F0EA2417F8E43BF98882F594
:1043430083E0C39508C0E0124371D0E0125C4CC314
:104353009508500A124371E4F012438DE4F0023FD2
:10436300572415F582E422EA240DF582E422EC2495
:104373000DF582E43DF58322EC1253523DF5832281
:10438300EC2414F582E43DF58322EC123DBB3DF5AC
:1043930083222413F582E422E0FEA3E0FF8C828DC6
:1043A30083A3A3A3A3221243AFA3A3228983E0F58C
:1043B30008A3E0FFE5088C828D8322A3A3A3A3F0C7
:1043C300A3EFF0E82402F8221243D0A322E4F08CF6
:1043D300828D83A3A3A3221243F8A882A983221266
:1043E3003D77A3A3A3A3221243F8A3E022A312437E
:1043F300F808A98322125C55A32274F412094874A5
:10440300F3120ED98A0A8B0BECFEEDFF8C82F58337
:10441300E0540CF508E0A2E75006E508D2E7F508FA
:10442300E508D2E1F5081256A17006E508D2E4F5D5
:1044330008E0A2E55006E508D2E5F5087C087D0012
:104443007900AA21AB221216B9740212113CE508B5
:10445300126CFCC0E0740312113CD0E0124A8AE5EE
:104463000AF0A3E50BF0740512113C1265681211F2
:104473003CE07077740812113C124A10125C3E380B
:10448300126583C0E0740812113C124511D0E0128A
:104493006563C0E0740812113C124507D0E0F07464
:1044A3000812113C1244FDE0124A38124AB9126054
:1044B30052EE241112566DC0E01244F3D0E0F0EE38
:1044C300241412566DC0E0740812113C124A1024D1
:1044D30035F582E438F583D0E0124A5DC0E0740814
:1044E30012113C124A14D0E01262BC740D0230CC9B
:1044F300E82432F582E439F58322123F6CA3A3A3A7
:10450300A3A3A322124A2412676238F58322124A14
:10451300242426F582E438F5832274F71209487EB1
:10452300008A828B83A3A3A3A3A3A3A3A3A3E0646F
:104533000460030245DF12534AE060030245DF12C1
:1045430051AC3B12522870030245DF88828983E015
:10455300540360030245DFE812535239F583E0FA4E
:104563008C828D83A3A3E0FBA3E0CB2411F582E42B
:104573003BF583E06A706588828983A3A3A3A3A321
:10458300A3A3A3A31245E3E06A7003A3E06B704CFB
:1045930088828983A3A31245EFE0FFA3E0CF24061B
:1045A30012566D6A7003A3E06B703188828983A30E
:1045B300A3E0F88C828D83A3A3E0F9A3E0F58389BC
:1045C30082A3A3E06860138C828D83A3A3A3E0F589
:1045D300838982E0540C640470027E01EEF980202A
:1045E3001245E722124C208C828D8322A3A312450D
:1045F300E7A3A322740C12113CE0F9740D120E26EA
:104603007F01020BF274F612094874FC120ED9EA08
:10461300FEEBFFECFAEDFB8C82F583A3E054036021
:10462300169019F812522A60597900EEFCEFFD1228
:104633005E491227A7804B852182852283EEF0A352
:10464300EFF0740212113C124A7FAC21AD227AB30F
:104653007B1F1221DB8A088B09A808A909EA496094
:10466300218A828B83A3A3A3A3A3A3A3A3A37406D7
:10467300F07A0088828B83124A10126012E0F912DA
:1046830021397404023F5474F212094874F3120E70
:10469300D9EAFEEBFF8A82F583A3A3A3A3A3A3A373
:1046A300A3A3A3E0F50A901C5EE0700579BA024962
:1046B300C8750801750900750C00750D007C087D2F
:1046C300007900AA21AB221216B9740512113C74A9
:1046D30001124A9254046012740212113CE0D2E6B1
:1046E300124A9254087003750803E054106006746C
:1046F300404508F508E054086022740212113CE0BA
:1047030044C0124A925420600A740312113CE0D24E
:10471300E08008740312113CE0D2E1F0EE2415129C
:10472300566D1249F87003740169700674084508E0
:10473300F5088E828F83A3A3A3A3A3A3A3A3E070EF
:104743001612223585218285228312605F7402123C
:10475300113CE0D2E28030640F7010740212113CFD
:10476300124A9A74044508F508807F8E828F83A3CA
:10477300A3A3A3A3A3A3A3E064028E828F83700ADF
:10478300126D2FE8F0A3E9F08060A3A3A3A3A3A372
:10479300A3A3E06403700DAC21AD22EEFAEFFB128C
:1047A3001FE980468E828F83A3A3A3A3A3A3A3A3FE
:1047B300E064017035901A8CE06010740212113CB1
:1047C300124A9A750910750AFF8018740212113C77
:1047D300E0440C124A8A74FDF0A374FFF07404459C
:1047E30008F5088E828F83122FDFEE241512566D83
:1047F300A2E0503F740212113CE0540C701B8E82F5
:104803008F83124C18121C59E9700579BB0249C8F1
:10481300740212113CE0D2E5F0EE241512566DA29B
:10482300E05010740212113CE0540C64047004E074
:10483300D2E5F0EE241112566DC0E0740412113C5F
:10484300D0E012656A12113CE060030249C17408AA
:1048530012113C124A53E508F0A3E509F01249EEA0
:10486300E0C0E01249E4D0E0F01249D5E0C0E074C2
:104873000812113C124A1012439538F583D0E01206
:104883004AB964017011901A8CE0C0E074081211E7
:104893003C124A2ED0E0F0740812113C124A4E1218
:1048A30049DFFAE8241CF582E439F583EA124A85E4
:1048B300EE2415FAE43FFB8A82F583127556E8125B
:1048C30059A939F583124A7FEE241C12566DC0E0B4
:1048D3001249CBD0E0125AEF1249F8700374016900
:1048E3007013740812113C12533AFAEE241D125637
:1048F3006DF9121EBD8E828F83A3A3A3A3A3A3A3CB
:10490300A3A3E0C0E0740812113C124511D0E0F0FB
:10491300740812113C124507E50AF0740812113CA1
:104923001251CD2428F582E439F583E50CF0A3E593
:104933000D124A65124A381256E6126052EE1249B7
:10494300DFC0E0E82433F582E439F583D0E0F0EE0C
:10495300241B12566DC0E0740812113C124A14D085
:10496300E0F0EE241A12566DC0E0740812113C12E6
:104973004A102432F582E438F583D0E0124A5D12FE
:104983004A04120E0F126768127556740B12113C0B
:10499300124A10242F127A32120E26EE24151256C2
:1049A3006D54406012901A1812522A600AAA21AB61
:1049B30022125E491227A7AA21AB2212205B740C94
:1049C30012113CE0F9024CFFE82420F582E439F5AA
:1049D3008322EE2419F582E43FF58322126777E000
:1049E30022E82412F582E439F58322EE2418F582B5
:1049F300E43FF583225480F8A3E05401F9748068FE
:104A030022F508A3E0F509750A00780822124A2462
:104A130022124A242434F582E438F58322A3A3A383
:104A2300A3124A2822E0F8A3E0C822124A24124320
:104A33006438F58322FAA3E0FBE8242AF582E439FB
:104A4300F583EAF0A3EB22A3A3A3A3123F62EE2212
:104A53001251D11251B139F58322F0EE24131256BB
:104A6300EE22F0EE240D1256EE22E0FC8A828B83B6
:104A7300E02CFCA3E03400FD8A828B83ECF0A3EDF1
:104A8300F022F0A3E4F022F085218285228322F034
:104A9300EE24151256EE22E0D2E3F0124AA2228E41
:104AA300828F83123F66852182852283E8F0A3E902
:104AB300F022E8F0A3E91261A5E02274F712094895
:104AC3008A828B83A3E0640170047E6380027E6428
:104AD3008A828B83E060087905124AF224F3FE9000
:104AE3001A34E06007F9124AF224F2FE0245DF129B
:104AF3002103E9F8EEC3982274F612094874FE12F2
:104B03000ED985218285228312605FE9FEECFAEDDE
:104B1300FB9005C212522A6032A821A92288088973
:104B2300097808120E137D01740E12113CE0FCEE9D
:104B3300F99005C21260331227A77402120E26EAF7
:104B43004B60047900800679B2800279B6023F5245
:104B530074F7120948E9FE9019EE12522A601F7485
:104B63000912113CE0F5087808120E17EEF99019B6
:104B7300EE1260331227A77401120E26800279B653
:104B830002460374F71209488908ECFEEDFF79B574
:104B9300E508245E602014600624F86034803D90AC
:104BA30005C4124BE26035126D731227A78E828FF4
:104BB3008312605F80249019F0127556EC4D601CCF
:104BC300EEFCEFFD9019F01260331227A7E9F9808C
:104BD3000B9019EC124BE812184B790002460312A2
:104BE3004C1CEA4B2212755AEEFAEFFB2274F712B1
:104BF3000948E9FE79B574AB6E700B9019EC124C51
:104C03001812184B79000246038E828F83A3A3A345
:104C1300A3A3A3A3A3124C1C22124C2022E0FAA3A9
:104C2300E0FB2274F1120948EAFEEBFF8C0A8D0BBC
:104C3300750801901A3CE06E7003A3E06F700C12CC
:104C43004CF3AA0AAB0B12184B805E12223BEE6A9E
:104C53007002EF6B7009AA0AAB0B122241804AACB7
:104C63000AAD0BEEFAEFFB121D91E9F508901C510A
:104C7300E070361226B5E97030E508702C901A0CF6
:104C8300E06E7003A3E06F7020EE4F601C750C04A0
:104C9300750D1A750E00780C120E0F7C087D00AA94
:104CA3000AAB0B126D1F120E26A90802765274F27C
:104CB300120948EAFEEBFF8C088D09750A01124CB4
:104CC300F3EEFAEFFB121845E964017011901A3CF8
:104CD300123F5E850882850983126CF8800EAC084A
:104CE300AD09EEFAEFFB121D97E9F50AA90A801147
:104CF30012222F8A0C8B0DAC0CAD0D22740D120EEB
:104D0300267F06020BF274F6120948EAFEEBFF7ADD
:104D13000D7B00121761EA4B6062EE24241269FCDA
:104D2300F0EE24251269FCA3124DC1126A02A3A35B
:104D3300126795124D9CF0EE124D82124DB1E8F0C0
:104D4300A3E9124DD8124DA9126CF8EE124D8B1235
:104D53006858A3A3A3A3F0EE243312566DC0E01248
:104D63004D94D0E0126587124DA9A3A3A3E8F0A345
:104D7300E9124DD0C0E012534AD0E0F0023F57246D
:104D83002AF582E43FF58322242EF582E43FF5835E
:104D930022EA1257C33BF58322124DA022E08A82F6
:104DA3008B83A3A3A3221268B7A3A3A3A322124DA9
:104DB300B522123F668A828B83A3A3A3A322F01298
:104DC3004DC622EE2426F582E43FF58322F0EE243D
:104DD300321256EE22F0EE242C1256EE2274F41206
:104DE300094874FE120ED9ECFEEDFFEC24161256A0
:104DF3006D64057010EC2406FCE43FFD121FE3E92B
:104E03007003024E8CAC21AD22126AB1121C5F8575
:104E1300218285228312522A606B8E828F83E06403
:104E2300017058E875F009A4F8AAF075F009E9A42F
:104E33002AF9746528F8740739F9E8FAE9FB8882D6
:104E4300F58378081210C7EE124F2E1210794027FF
:104E5300852182852283124A4E12567B124E917807
:104E6300081210C79084287808120FE48A828B8373
:104E730078081210D6800A79A28010EE240F126CE3
:104E8300F27900800679A1800279C80230CA124AF9
:104E9300AFEE1267832274F21209488A0C8B0DEC71
:104EA300FEEDFFEC12567BE4F0A3F090842078082B
:104EB3001210C7EC124F2E120F446067EC240E122F
:104EC3005674703478B3901A33E07028901A65E002
:104ED30064017020EC241112566DF91220EB8B093A
:104EE300A909EE1251AD3F12605DEA4960047800F2
:104EF300800278A18808802EE060046402700A12A0
:104F03001FF5E9F5087007801DE064037010EEFCDF
:104F1300EFFDAA0CAB0D121C83E9F5088008750898
:104F2300A180037508A3A908024D041267837808BA
:104F33002274F012094874F5120ED9EAFEEBFFEA67
:104F4300240AFCE43F8C82F5831279F31251B7747F
:104F530003120EB98A828B83125E53E970030250E7
:104F63001D7401120EB97403120EB1121C5F740189
:104F730012113C12522A700302501DE875F009A465
:104F8300F8AAF075F009E9A42AF9746128FC7407FA
:104F930039FDE508240E1262A4E4F00412113C1258
:104FA3003F5EE5081251AD3509126CF68C828D8394
:104FB300121125E50824121262A41211019084280B
:104FC30078081210C78C828D837808120FD18C82D7
:104FD3008D83780C1210C790849078081210C778CC
:104FE3000C79081208D9E5084509450A450B702ACA
:104FF300740112113C1251CD75F009A4F8AAF07591
:10500300F009E9A42AF9746928F582740739F5834C
:105013007401F07A007B081251DA8E828F83A3A386
:10502300A3A3A3A3A3A3A3A3E02406FCA3E03400A8
:10503300FD8E828F83125E53126575603EEE240AE5
:1050430012519F124A537468124A85E812519939D2
:10505300F5837402F0901A1E1211258C828D83122F
:10506300604C125C3E3CF583121101908428780851
:105073001210C7901A1E7808120FD1125215705DC4
:105083009019EC1251C5A3A3A3A3A3A3A3A3A3A302
:10509300125C74121845E97010125C329019EC120C
:1050A3005C44700512657560348E828F83A3A3A35D
:1050B300A3A3A3A3A3A3A31251C5124C18121C8923
:1050C300E960118E828F83A3A3A3A3A3A31252012A
:1050D300E4F0A3F08E828F831251E7E4F0125215AD
:1050E30060030251948E828F83A3A3A3A3A3A3126D
:1050F30079EF901A33E06003025189901A65E064F6
:10510300016003025189750A3A750B00780A120E81
:10511300137402120EA9880A890B780A120E13124D
:105123006FEE120E26E9705BE508240E1262A4747A
:105133000112522FC0E0E50824111262A4D0E0F05E
:10514300E508240F1262A4743A124A85901A1A12BF
:105153001125E50824121262A41211019084287803
:10516300081210C7901A1A7808120FD19084287861
:10517300081210C7901A1A7808120F4470081251B7
:10518300D680031251B71252157006125B3574A103
:10519300F0740B026927240EF582E422F8E43FF948
:1051A300E8FCE9FD8882F58322EA1251B122240F3B
:1051B300F582E422E5081251B13509F583E4F0A341
:1051C300F02212755A8E828F83221251D122123FFE
:1051D30066E8227A007B029018C4E0F912170D22C8
:1051E3008A828B83A3A3A3A3A3A3A3A3A3A31251E1
:1051F300F522124A28240EF582E438F58322A3A36C
:10520300A3A312520922124A28240FF582E438F587
:1052130083228E828F83A3A3A3A3A3A3124A202452
:105223000FF582E438F5831251D149221252332209
:10523300F0852182852283E02274F6120948EAFE72
:10524300EBFF7A237B00121761EE240AF508E43F93
:10525300F50985088212605D7C237D0079001216B2
:10526300B985088285098312522A70030252FDEE22
:10527300FAEFFB12200112521560748E828F831293
:10528300533064018E828F83A3A3A3A3A3A37007C8
:10529300125326740E802112522A701012657570F3
:1052A3000B8E828F83A3A3E0A2E0500712531C74DA
:1052B3000D800512531C7405126587540364017035
:1052C300071253047405800B901A34E0C0E01253A4
:1052D30004D0E012533FF583888212569A850882E0
:1052E300850983124A10125FF138F583E9800E8530
:1052F30008828509831260D68003126019F0023F89
:10530300578E828F83A3A3A3A3A3A3A3A3A3A312B1
:10531300531622E0126038A3228E828F83A3A3A3A5
:10532300A3A3A3124A20125FF738F58322A3A3A3F2
:10533300A3A3A3A3A3A3A31251F5E02212534322D1
:10534300126AC6F8A3E022EA1253523BF5832224E1
:105353000CF582E42274F112094874E4120ED98A1E
:105363000C8B0D8C088D097A237B001217618A0A36
:105373008B0BAE0AAF0BEA4F7003025655125FFD5B
:10538300E5082415125686687003A3E0698E828FA0
:10539300837004740280027401F0E508240DF8E4BC
:1053A3003509F98882F583E0FAC3E49AFA95E0FBBC
:1053B3001256822AFAA3E03BFB8E828F83A3A3A318
:1053C300A3125C5B8E828F83A3A3F0EE2420F5826D
:1053D300E43FF583E4F0EE2421F582E43FF583E432
:1053E300F0EEFAEFFB1220B5850882850983125689
:1053F300A170098E828F83A374058006901A3412DC
:10540300568FF0EE2417F50AE43FF50B8E828F8357
:1054130012569AE9850A82850B83F0EE2416F8E486
:105423003FF9E508240EFAE43509FB8882898312E3
:105433004A6DE5082410FAE43509FB850A82850BD9
:1054430083E0FC88828983E0F88A828B83E0C398B7
:10545300C39CF81256DBF0EEFCEFFDAA0CAB0D1269
:105463001FFBE9F50B8E828F83E064027006125CEA
:105473003212565FE50B600302564C750C00750D36
:1054830000901C51E064016005E06402703F125615
:10549300716008EE242112567470328E828F83A3BA
:1054A300A3A312601F1256A7EE241612566D1256AE
:1054B300D0FAE439FB123D5FEA4B601112688112A6
:1054C3000E0F1256B5AA0C126D1F120E26EEFAEF2E
:1054D300FB1220C1E9F50B901C51E064016008E068
:1054E3006402600302563FE9700302563FE50C4530
:1054F3000D700302564C8003850E0B125671600B20
:10550300EE24211256746003025645850B0E850C5A
:1055130008850D09750A007808120E0F1256B58E0C
:10552300828F83A3A3A3A3127A38120E26EE24201C
:1055330012566D600D12567A7468124A85EE242055
:105543008015EE242112566D601512567A7403F0FD
:10555300A37401F0EE2421F582E43FF583E4F0EE39
:10556300FAEFFB1220C1E9F50B70907C137D0079F3
:10557300007409120EB11216B9741A12113C740197
:105583001256E664687002A3E0704F8E828F831216
:105593005201E0640560030254FB7C0879FF8E82AC
:1055A3008F83A3A3A3A3E0242A125C77121743E9F2
:1055B30070030254FB7C087D0079FF7401120EB165
:1055C3001216B97401120EB97A007B0079AB121F5F
:1055D300DD741912113C74FC801512567AE06403D1
:1055E3007004A3E064017008741912113C74FFF095
:1055F300E4F508F5097808120E137402120EB97453
:105603001312113CAA82AB8312615C120E26852110
:1056130082852283E0602B7409120EA98808890908
:105623007808120E137508137509007808120E1303
:105633007C007D001269CF120E268006E50C450D15
:105643006007AA0CAB0D121767EEFAEFFB12176790
:105653008003750B10A90B741C02764FEE2406FA17
:10566300E43FFB12184B22EE240C1256EE22EE24DA
:10567300201256EE640122EE1251B13FF58322E56A
:1056830008240EF582E43509F583E022125694A32B
:1056930022E08E828F8322A3E0F912210322E054B9
:1056A300036401221256AB22E0FAE82AF8E434003C
:1056B300F9228E828F83A3A3A31260231256ABEE2B
:1056C30024161256EE1256D0FCE439FD22FAE82ACB
:1056D300F8E439F9E82404221256DF22126596A36E
:1056E300A3A322F01256EB22EE240FF582E43FF53A
:1056F30083E0227901020DF374F4120948EAFEEB08
:10570300FF8A82F583A3A3A3A3A3A3A3A3124A108F
:105713002424F582E438F5831256A1702E8A828BF5
:105723008312533070251257C9E06405701D125758
:10573300C9A3E0F874016860057406687007125124
:10574300E3740280051251E37403F0EA240A126041
:10575300CA126033E4F0EA2408F8E43F1230B924B3
:1057630031F582E43AF583E0C0E0126D6AA3A3D079
:10577300E01257E8CA242EF582E43AF583E0C0E04C
:10578300126D6AA3A3A3D0E0125D0EC81257C338EB
:10579300123F5C126D6A1257DD8A0A8B0BAC0AAD9D
:1057A3000B850882850983125C7412184B85088265
:1057B300850983124C181220C11260C5F00230CF44
:1057C300240BF582E4228A828B83A3A3A3A3A3A33E
:1057D300A3A312655CF583888222A3A3A3A3124A21
:1057E300AF12222F22125C50FAA3E0220256F6C017
:1057F30082C083901A0E7407F0A37420F0901A10DD
:105803007413F0A37420F0901A127419F0A3742087
:10581300F0901A14740DF0A37420F0025AF974F482
:10582300120948EA2408FEE43BFF8E82F5831251F5
:10583300CD126009E0F50874035508F509125C6F91
:10584300F8A3E08882F583E508F0A3A882A983E59D
:1058530009600974026509600302590E740C550846
:10586300FC600A74086C600574046C70267402652D
:10587300097006E508A2E4401A8A828B83A3A3A3D6
:10588300A3A3A3A3A3125A141267623D1259AFA391
:1058930008A983740C6C701C125A1024281259FC2A
:1058A3002428F582E43DF583A3126390F0E82402F3
:1058B300F8500109740265097006E508A2E4404B3B
:1058C300125A10242A1259FC242AF582E43DF58346
:1058D300A31259BE125A1A126390125A1AA31259DA
:1058E300B6E82404F8500109EC600F74086C600AF0
:1058F300740C6C600574046C70111260402426F5FE
:1059030082E43C1259AFA3A882A9838A828B83A322
:10591300A3A3A3A3A3A3A31259DE54037014E508FE
:10592300A2E1400E1260401259A93CF583E0548075
:1059330060081259C41259B180199019E2E0C0E00D
:105943001259C4D0E01259F1888289831259F104A3
:10595300125C55A3A882A983E508A2E750458E826D
:105963008F831259DE888289831259F71259E354BF
:105973000360301260402434F582E43C12638EF0FD
:10598300E508A2E1501D8A828B83A3A3A3A3A3A34B
:10599300A3A31230BE2435F582E43A12638EA3F03A
:1059A300E824030230CF241EF582E422F583125942
:1059B300BEF0221259BEA3A3A3F022E088828983FA
:1059C300228A828B83A3A3A3A3A3A3A3A3E0FCA301
:1059D300E0CC2432F582E43CF58322E01259E32241
:1059E300FCA3E0CC2425F582E43CF583E022F0908F
:1059F30019E2E022126592E022F582E43DF583127A
:105A030059BE125A0922126596125A14228E828F97
:105A130083E0FDA3E0CD22A3125A09242CF582E4EE
:105A23003DF58322C082C0838A828B83125AE9FCAC
:105A330074035CF98A828B83A3A37401F0E9600584
:105A43007402697061740C5CF8600A74086860051C
:105A530074046870137402697005ECA2E440098A47
:105A6300828B83A3A37402F0740C68700A8A828BFE
:105A730083A3A3E02402F07402697005ECA2E4405E
:105A8300258A828B83A3A3E02404F0E8600F7408C3
:105A930068600A740C68600574046870098A828BF4
:105AA30083A3A3E004F0ECA2E7502A8A828B83A3AA
:105AB300A3E004125AEF1235C8E0540360178A8238
:105AC3008B83A3A3E004F0ECA2E150098A828B83C9
:105AD300A3A3E004F08A828B83A3A3E004F08016DF
:105AE300852182852283125316A3E022F08A828BBA
:105AF30083E022120E26D083D082020DF3C082C02F
:105B0300838A828B83A3A3A3A3A3A3A3A3A3A31285
:105B1300522A60098A828B83A3A3125B2280D7A3B4
:105B2300A3A3A3A3A3A3A3125B2E22124C20121799
