:020000040000FA
:060000000212980207DD68
:03001B000207FFDA
:03002B0002104878
:03004300020F1693
:030053000207128F
:030073000208542C
:100083000207710100F0FF0700080000FFFF0000F6
:100093000704000000030001FF32102700000020C6
:1000A300FD000206FFFF1E8E1B0000000000000083
:1000B30000000000000000E80300000000E8030067
:1000C3000000000F0000000F0000000104010C00FD
:1000D3000202C78401E984010400000E1A00000033
:1000E300E8030000FFFF651A0188130000E803001E
:1000F3000064006400B801A0BB0D00A0BB0D0002AA
:10010300020207040101071E02051E020A0A010179
:10011300010809080103B80B02803E0102FEFFE853
:10012300030A050001FFFF010A011401E0020000B8
:100133000001050301010F10030003000300030086
:100143000300030003000300030005000A0014007A
:1001530028004F009E000000902F00000000642E36
:1001630000000000FF000000FF001212E4604612CE
:1001730012A8603DE9687008F618F618F618F6221A
:10018300748067F71201A1090909748067F72212C5
:1001930012A8601D1212E47005191919801A1211A0
:1001A30081701F121195C37003E667331919194043
:1001B300071818182208080874FFF618F618F61816
:1001C300F6221211956017121345702192F0121343
:1001D300577019501720F014080808090909E7F6A1
:1001E3001819E7F61819E7F61819E7F62212135744
:1001F30060E6E869701F0808E62480F608E436F62E
:1002030018547FB47F0CE654806007F6E418F618A0
:10021300F622181822E9C6CC08C6CD08C6CE08C6F1
:10022300CFC0E0E8C0E0EAC0E0EBC0E009E9F809CC
:10023300E7FA09E7FBE6F918E6F8C3EC98ED99EE5F
:100243009AEBC2E7F5F0EFC2E795F0500E600CEBC6
:10025300CFFBEACEFAE9CDF9E8CCF8EAA2E7D2E798
:10026300FAEB33FB13F5F0EEA2E7D2E7FEEF33FF31
:10027300C5F013A2E730E601B313C5F0C3C0E0C075
:10028300F07F00C39BFB605E9418600F401D1460F9
:100293001AD0E023F9D0E0F80203738AF0E948604A
:1002A30003D2F0E4AFF0FAF9F8803BEB30E40D89C8
:1002B300F0EA6003D2F0E4AFF0F9CAF8EB30E30DF3
:1002C30088F0EF6002D2F0AFF0E4CAC9F8EB54074C
:1002D3006014FBC3EA13FAE913F9E813F8EF1350B8
:1002E30002D2E0FFDBEDD0E0C0E030E739C3E49FAA
:1002F300FFF5F0EC98FC42F0ED99FD42F0EE9AFE2A
:1003030042F0D0E0F9D0E0F8E5F0607AE923F9EEC5
:1003130020E742D8028067C3EF33FFEC33FCED33B1
:10032300FDEE33FE80EAEC28FCED39FDEE3AFED01B
:10033300E023F9D0E0F84002801BC3EE13FEED1377
:10034300FDEC13FCEF135002D2E0FF08B800067F68
:100353007F74FF802EEF3350178CF020F002601073
:100363000CBC000C0DBD00080EBE000408E860DFE5
:10037300E933E813FFEE2313FE4F4D4C8008E95495
:1003830080FFE4FEFDFCEE33EF33F47004FCFD7EEE
:1003930080D0E0FBD0E0FAD0E0F8D0E0CFC618CEB2
:1003A300C618CDC618CCC6F9221212A870041818A4
:1003B30018221212E4700D74FFF61819F61819F6C4
:1003C3001819F622E7548066F6121357700F1213AA
:1003D3004570F014F608F608F608F680D1121345B6
:1003E300700CF608F608768008E6447F80EC12115C
:1003F30098700C12118460BFE65480F6E480BB123F
:100403001184700519191980A5E869700C763F18D5
:10041300768018F618F6E8F922E6CDC0E018ECC0AD
:10042300E0E633CD33CDD313F6E719FCE7191933DF
:10043300CC33C3947F400ECD9D502408E65480F600
:10044300E418F6800FF4043D14501408E6447FF6D4
:10045300187680E418F618F6D0E0FCD0E0FD22CC44
:10046300D313CCFD18E4C6CBC0E018E4C6CAC0E081
:100473000808ED08C633E613F618E433C675F0032F
:10048300C3CA97CA09CB97CB199C40047D08802E19
:10049300BD000302055516B6FF050606081618C368
:1004A300CA33CACB33CB33CA27CA09CB37CB193CA0
:1004B300C37D08803E187D0820E75CC633C6CA3377
:1004C300CACB33CB33DDF1D5F0EB30E77BCA97CA28
:1004D30009CB974ACB199C406F4B7025E620E0214E
:1004E3008066187D08C3CA97CA09CB97CB199CD3DA
:1004F300C633C6CA33CACB33CB3350C9DDE7D5F0D5
:10050300E1D3E4C636C608C636C608C636C608C62C
:1005130036C61818188031C3CA97CA09CB97CB19A6
:100523009CB34097C633C6CA33CACB33CB33DD340F
:10053300D5F02EC6A2E0C640C8CA27CA09CB3719D0
:100543004A70BECB3CB480B90808E63308E6336092
:100553001F181818D0E0FAD0E0FBD0E0FCD0E0FD83
:1005630022187D08CA27CA09CB37CB193CD3808010
:1005730013F618E4B67F11F618B6FF0EF618C60484
:1005830070D20808768080CAF618F618F680C5007F
:100593001212A8604F1212E46012E7548066F6123A
:1005A30011817011121345703B090909F4F618F60D
:1005B30018F618F622121195701512135708080829
:1005C30060EAE6447FF618768018E4F618F62212FD
:1005D300135760161213457012E4F608F608F6086E
:1005E300E65480F609090918181822EAC0E0EBC09E
:1005F300E0ECC0E0EDC0E0E687F0A4FBACF008E679
:1006030087F0A42CFCE435F0FA1809E687F0A42C53
:100613004B60027401CA35F0FCE433FB09E687F052
:10062300D2F7A42CCB35F0FC1908E687F0A42BCC29
:1006330035F0FBE433FD0819E687F0D2E7A42C4A32
:10064300CB35F0CD3400FC09E687F0D2E7A42DCCFE
:1006530035F0FDE433FA0918E687F0D2F7A42CCD80
:1006630035F0CA3400FC08E687F0D2E7D2F7A42AB3
:10067300CC35F07A7E20E70B0ACB33CBCD33CDCC10
:1006830033CC33CB3350147004ED30E00ED2F1E4AD
:10069300CD3DCDCC3CCC3B5005DA05C2F1EB547FCC
:1006A300C63308E63392F0FBE73309E733C39A50C6
:1006B3002D2B70190C0D4C4D70151806E608C3331D
:1006C300700D20F10AA2F013F6E418800B4024E425
:1006D300F630F002768018F618F618F68024D33B2D
:1006E30014501074FFA2F013F6187680E418F6186D
:1006F300F6800FA2F013F618E63303F618ECF6189B
:10070300EDF6D0E0FDD0E0FCD0E0FBD0E0FA22C073
:10071300E074F1120BA0A2AFE433F509D2AF85A7C1
:1007230008AFA1EF5508FE74105E60061216067539
:10073300A1EF74085E600812160C75A1F78024EF10
:10074300A2E092F0E508A2E082F05017906198E0F1
:10075300F8900B46E0C398A2D265D0335002E8F07C
:1007630075A1FEE509A2E092AF7F02020BFFC0E094
:1007730074F2120BA0A2AFE433FED2AF9061A4E0F7
:10078300F8759B00E59158540860087591F71216A7
:100793005A8023E59158541060087591EF12166042
:1007A3008014E591A2E092F0E8A2E082F05007E025
:1007B300C2E0F01217B69061A3E0F8E5E9585404DB
:1007C300600E12178C75E9FB906193E0A2E640F28C
:1007D300EEA2E092AF7F01020BFFC0E074F2120BB6
:1007E300A0A2AFE433FED2AF9061A5E0F8E5BF5815
:1007F3005404600675BFFB1217CE80D4C0E0C0D08E
:10080300E8C0E0E9C0E0C082C083A8F9E8C0E09096
:100813000AB3E0F8743228F582E4340AF583D0E0B1
:10082300F0900AB2E0F8A3E0687006E595900AB587
:10083300F0900AB3E004F0C394804002E4F0A374A0
:10084300C6F0D083D082D0E0F9D0E0F8D0D0D0E0A9
:1008530032C0E0C0D0E8C0E0E9C0E0C082C083900D
:100863000B36E0F8A3E0687008539AF7A37401808D
:1008730022C2EA900B36E0F8740128F074B628F52A
:1008830082E4340AF583E0F5F9900B36E0C39480F3
:100893004002E4F080AC1208E430F03912092980F8
:1008A300341208E420F01430E72B74FFFCFBFA74D5
:1008B3007F8022E4FCFBFA7480801AB48008BC00B9
:1008C300F2BB00EF800F50EBF9E4C39AFAE49BFB11
:1008D300E49CFCE499C6CC18C6CB18C6CA18C6F962
:1008E30022E4C9C608CAC608CBC6D3330308CCC69C
:1008F3003392F0C3947F402E94184019C9B907046A
:10090300CACBCC225025C309CA33CACB33CBCC3391
:10091300CC33D9F422F4600DC9CCC313CB13CBCAA7
:1009230013CAD9F6CC22E4FCFBFA2214FCFBFA220C
:10093300C3E498F8E499F91209748026C3E49AFA97
:10094300E49BFBE920E7E9120974E498F8E499F9D8
:1009530022C3E498F8E499F9120974E498F8E49945
:10096300F9C3E49AFAE49BFB22EB20E7CFE920E703
:10097300E0B90010BB0008E88AF084F8AAF022E48A
:10098300FBC8FA22EB70227B10C833C8C933C933C2
:100993005007C39AC3DBF280069A50012ADBEAC8E8
:1009A30033F4C8C933F4C9FA2275F008E4C833C86C
:1009B300C933C933C99AC99B5004C92AC93BD5F065
:1009C300ECFBC833F4C8E4C9FA22080808EAC0E01B
:1009D300EBC0E086F0E7A4FA180986F0E7A42AFA48
:1009E300180986F0E7A42AFA180986F0E7A42AFA78
:1009F3001986F0E7A4FBE5F02AFA190886F0E7A4C4
:100A03002BFBE5F03AFA190886F0E7A42BFBE5F097
:100A13003AFA18180986F0E7A4C5F02BFBE43AFA72
:100A23001908E7C5F0C6A426F6E5F03BFBE43AFA5D
:100A33001886F0E7A4F6E5F00826F6E43B08F6E4AA
:100A43003A08F6D0E0FBD0E0FA22080808E630E7DF
:100A530011121145120A65080808C64480C6181801
:100A63001822181818E9799EC608CAC608CBC60802
:100A7300CCC6C370207996CACBCC7019798ECBCCF7
:100A830070137986CC700EF9802ACA33CACB33CB64
:100A9300CC33CC331930E7F2CCCBCA3350147004C7
:100AA300EA30E00DE4CA3ACACB3BCBCC3CCC500293
:100AB30009C3E913C6CC182313C6CB18C6CA18C674
:100AC300F922E4CFC0E0E4CEC0E0E4CDC0E0E4CC62
:100AD300C0E075F020E626F608E633F608E633F6BE
:100AE30008E633F6181818EC33FCED33FDEE33FE4D
:100AF300EF33FFC3EC9709ED9709EE9709EF9719C9
:100B03001919400FFFEC97FC09ED97FD09EE97FECD
:100B1300191906D5F0BFECF709EDF709EEF709EF60
:100B2300F7191919D0E0FCD0E0FDD0E0FED0E0FFCA
:100B3300222521C582C0E0E52234FFC583C0E0E55C
:100B430021C3958224F810AF0885832285822180F2
:100B530008858322858221D2AFCEF0A3E520F0A3BE
:100B63007808E608F0A3DEFAEFF0A3E58124FAF8AB
:100B7300E608F0A3E608F0A3E608F0A30808E608F1
:100B8300F0A3E608F0A315811581D0E0FED0E0F8CC
:100B9300158115811581E8C0E0EEC0E022C0D025A3
:100BA30021C582C0E0E52234FFC583C0E0E521C34F
:100BB300958224F310AF08858322858221800885DE
:100BC3008322858221D2AFC8F0A3E9F0A3EAF0A380
:100BD300EBF0A37908E709F0A3D8FAECF0A3EDF062
:100BE300A3EEF0A3EFF0A3D0E0F0A3D0E0F0A3D006
:100BF300E0F0A3E520F0A3E5F0F0A32285228385AE
:100C03002182E0C0E0A3E0F9A3E0FAA3E0FBA3782C
:100C130008E0F608A3DFFAE0FCA3E0FDA3E0FEA3EF
:100C2300E0FFA3E0C0E0A3E0C0E0A3E0F5D0A3E0D1
:100C3300F520A3E0A3F5F010AF0885832285822178
:100C43008008858322858221D2AFD082D083D0E0F1
:100C5300F8D0E032121330B90003020C96E4900589
:100C630001785079198002F0A3D8FCD9FA7A507B25
:100C73001D90008678E879018015E493A3AD82AED8
:100C8300838A828B83F0A3AA82AB838D828E83D8DF
:100C9300E9D9E775827E75839E7405120FD9758233
:100CA300CC75832B7400120FD975F0108E238F240B
:100CB300858228858327852182852283E0CEA3E050
:100CC300CF852882852783EBC9EAC8EDCBECCAC35D
:100CD300E833C8E933C9EA33CAEB33CBC3EA9EF539
:100CE30026EB9FF525B35004AB25AA26EC33CCEDB8
:100CF30033CDD5F0DAAE23AF24221212A8601C1232
:100D030012E4601712135770071213457001D322B0
:100D1300C0D01213457006D0D0B322C32233D0D033
:100D2300501430E0F6C3E7960809E7960809E796FA
:100D33000809E796B32220E0D5E6970809E6970865
:100D430009E6970809E697B322D083D082ECC0E086
:100D5300EDC0E0E493A3FCE493A3FDED4C600D121E
:100D63000E24EC24FFFCED34FFFD80EFE493A3FCA1
:100D7300E493A3FDED4C600D120EC1EC24FFFCEDDA
:100D830034FFFD80EFD0E0FDD0E0FCE493A3C0E0AE
:100D9300E493C0E022D083D082E9C0E0E493A3C30C
:100DA30086F0C5F095F0F908E493A386F0C5F095B5
:100DB300F0700BE493A3C3994005E9048002A3E414
:100DC30075F002A42582F582E5F03583F583D0E042
:100DD300F9E493A3C0E0E493C0E022852283852154
:100DE30082E0A3FEE0A3F5207808E0A3F608DFFA8B
:100DF300E0A3FFE0A3C0E0E0A3C0E0E0A3C0E0E025
:100E0300A3C0E0E0A3C0E010AF0885822185832260
:100E13008008858221858322D2AFD083D082020FBE
:100E2300DFC0E0C3E49396087401939618400FE47F
:100E33009366700808740193661870007019A3A371
:100E4300C3E49396087401939618A3A3400DD0E0CE
:100E5300D0E0D0E0020D88A3A3A3A3A3A3D0E022F4
:100E63007404800474028000CCC0E0EDC0E0E5218E
:100E7300C39CCCAD2250011D10AF068C218D228066
:100E8300068C218D22D2AF120F5BD0E0FDD0E0FCA7
:100E93002274028000CCC0E0EDC0E0E521C39CCC0D
:100EA300AD2250011D10AF068C218D2280068C21AE
:100EB3008D22D2AF120F39D0E0FDD0E0FC22C0E08A
:100EC300C0F088F0E49366700808740193661870A4
:100ED30000A8F0A3A3700BD0F0D0E0D0E0D0E002E4
:100EE3000D88A3A3D0F0D0E022D083D082CCC0E081
:100EF300E493A36006120F9B1470FAE493A36006B5
:100F03001210DB1470FAD0E0FCE493A3C0E0E49386
:100F1300C0E022C0E074F2120BA0A2AFE433FED211
:100F2300AFC2C0E5D1A2E4500312156AEEA2E0926B
:100F3300AF7F01020BFFCAC0E0E493A3C582CCC517
:100F430082C583CDC583F0A3C582CCC582C583CDBD
:100F5300C583DAE5D0E0CA22CAC0E0E0A3C582CCEB
:100F6300C582C583CDC583F0A3C582CCC582C583A5
:100F7300CDC583DAE6D0E0CA2270090808082260EA
:100F830016181818C6C333C608C633C608C633C6F0
:100F930008C633C6D5E0EA22C0E0E493A3D39C504D
:100FA30010E493A3C39C400AD0E0D0E0D0E0020F4A
:100FB30009A3A3A3D0E022C008C3E096F50808A3C1
:100FC300E096420808A3E096420808A3E096450885
:100FD3007001D3D00822C09FF59FE473D09F22D025
:100FE30083D082C09FE493C0E0740193C0E0740295
:100FF30093F59F2200C0D0252110AF08F521500C96
:1010030005228008F52150020522D2AFD0D02274E8
:1010130004800A74038006740280027401C0E0F441
:101023000412102DD0E01212F3222521F58210AF05
:1010330008F521400C15228008F52140021522D223
:10104300AF85228322C0E0C0D0E8C0E0A8A8D2AF19
:10105300C2C7E8A2E792AFD0E0F8D0D0D0E032BB6D
:101063000102E722C082C08389828A83BB0003E036
:101073008002E493D083D082226016080808C6C396
:1010830013C618C613C618C613C618C613C6D5E0AA
:10109300EA22C3E0C696F608A3E0C696F608A3E0E4
:1010A300C696F608A3E0C696F6222521F8E4352273
:1010B300F9222521FAE43522FB222521FCE43522FD
:1010C300FD22252110AF08F521400C15228008F5DB
:1010D3002140021522D2AF22C0E0E493A36C700931
:1010E300D0E0D0E0D0E0020F09A3A3D0E022E7666E
:1010F30070100809E766700A0809E76670040809B2
:10110300E76622E066701008A3E066700A08A3E0B1
:1011130066700408A3E06622C3E7960809E7960809
:1011230009E7960809E796A2D265D03322C3E09671
:1011330008A3E09608A3E09608A3E096A2D265D0A0
:101143003322181818E4C396F608E496F608E496D2
:10115300F608E496F622C3E096F008A3E096F008BA
:10116300A3E096F008A3E096F022C3E697F60809F9
:10117300E697F60809E697F60809E697F62218189F
:1011830018E60846087009E626087005E633F422D7
:101193000822191919E70947097009E72709700592
:1011A300E733F4220922C3E4939608740193960863
:1011B30074029396087403939622E627F60809E6C9
:1011C30037F60809E637F60809E637F622700422EF
:1011D300600D18C6C333C608C633C6D5E0F418225B
:1011E300E657F60809E657F60809E657F60809E64A
:1011F30057F622E026F608A3E036F608A3E036F613
:1012030008A3E036F622E026F008A3E036F008A3B0
:10121300E036F008A3E036F022E056F608A3E056E5
:10122300F608A3E056F608A3E056F622E493F60880
:10123300740193F608740293F608740393F622E696
:1012430047F60809E647F60809E647F60809E647B8
:10125300F622E056F008A3E056F008A3E056F008A3
:10126300A3E056F022C6F4C608C6F4C608C6F4C600
:1012730008C6F4C622C3E09608A3E09608A3E09646
:1012830008A3E09622C3E7960809E7960809E796BC
:101293000809E7962275D00075813F7521017522F3
:1012A3000500020C57E6084608C3134608336002DC
:1012B300E633F422600C08C6C313C618C613C6D59A
:1012C300E0F422E0F608A3E0F608A3E0F608A3E0C2
:1012D300F622E6F008A3E6F008A3E6F008A3E6F09A
:1012E30022E7094709C3134709336002E733F422AE
:1012F300CAC0E0E6F0A308DAFAD0E0FA22E8F0A3E5
:10130300E9F0A3EAF0A3EBF022E0FAA3E0FBA3E009
:10131300FCA3E0FD22EAF0A3EBF0A3ECF0A3EDF0D5
:1013230022E0F8A3E0F9A3E0FAA3E0FB22E5C75427
:10133300F84401F5C77901222521F582E43522F528
:101343008322E72719471947194722C2AF75D69F4A
:1013530002000022E62618461846184622120FE21B
:1013630087B303120FE2B7B303120FE217B40312EA
:101373000FE2ABB403120FE25CB503120FE2ADB59B
:1013830003120FE2F1B503120FE28BB603120FE261
:10139300FBB603120FE22AB703120FE230B80312AF
:1013A3000FE25AB803120FE2AEB803120FE282B98A
:1013B30003120FE2B0BB03120FE25EBC03120FE293
:1013C300CBBE03120FE250BF03120FE253C203124C
:1013D3000FE287C403120FE2C3C403120FE21CC659
:1013E30003120FE22FC603120FE26CC603120FE2C1
:1013F30035C803120FE230A704120FE2ACA70412A0
:101403000FE2DFA704120FE20DA804120FE24BA8AC
:1014130004120FE288AA04120FE2A7AA04120FE231
:10142300ECAA04120FE282AB04120FE2CEAB041259
:101433000FE262AC04120FE23BAD04120FE297AD70
:1014430004120FE2F5AD04120FE268AE04120FE2CC
:10145300ACAE04120FE204AF04120FE226AF041283
:101463000FE2B6AF04120FE247B004120FE293B0DB
:1014730004120FE2BFB004120FE200B104120FE234
:1014830096B204120FE282B304120FE25DB40412A7
:101493000FE23C9405120FE26F9405120FE28F9452
:1014A30005120FE2B69405120FE2E39505120FE25F
:1014B300049605120FE2AF9605120FE24BAA05122E
:1014C3000FE250AA05120FE283AA05120FE2F3FD01
:1014D30003120FE2BAFE03120FE2CCFE03120FE275
:1014E300D5AA05120FE2E6AA05120FE200AB051218
:1014F3000FE2F67F00120FE2E1FF02120FE230A8C3
:1015030005120FE240A805120FE255A805120FE2DB
:101513009EA805120FE2D77E00120FE25B7F001236
:101523000FE2C37F00120FE2EFFF03120FE2828A82
:1015330005120FE2908A05120FE2098B05120FE2E2
:10154300E28B05120FE2A58D05120FE20FAB051218
:101553000FE28FE804120FE2FBE804120FE29EE9A8
:1015630004120FE213EB04120FE27AEB04120FE200
:10157300C7EB04120FE220EC04120FE2A4EC0412F6
:101583000FE2D9EC04120FE2F7EC04120FE27DED47
:1015930004120FE200EE04120FE20DEE04120FE24A
:1015A300E7FA01120FE213FB01120FE27DFD0112B4
:1015B3000FE2BDFD01120FE2F9FD01120FE20DFE74
:1015C30001120FE226FE01120FE218FF01120FE2D1
:1015D300CBFF01120FE2DFFF01120FE2D0A10512D0
:1015E3000FE2F4A105120FE20DA205120FE24BA2C6
:1015F30005120FE27BA205120FE2A8A205120FE269
:101603000EA305120FE211A305120FE21BA305128D
:101613000FE228A305120FE2459705120FE2659723
:1016230005120FE2A49705120FE2C29705120FE20B
:10163300DD9705120FE2439805120FE24F9805124A
:101643000FE2AC9805120FE2BB9805120FE2DF9888
:1016530005120FE2A09905120FE2AD9905120FE2F0
:10166300BE9905120FE2A7A805120FE2EFA8051213
:101673000FE21BA905120FE226F304120FE27AF41C
:1016830004120FE288F404120FE29BF404120FE237
:10169300B0F404120FE2C5F404120FE2D8F40412FA
:1016A3000FE254F504120FE2B9F504120FE24FF6FC
:1016B30004120FE228F704120FE238F704120FE2C4
:1016C30047F704120FE297A705120FE2BBA7051213
:1016D3000FE2E3A705120FE20BA805120FE2EC9944
:1016E30005120FE2139A05120FE2319A05120FE267
:1016F300A09A05120FE2359105120FE24E910512E1
:101703000FE25A9105120FE26E9105120FE28C91CE
:1017130005120FE2969105120FE2A09105120FE256
:10172300B39105120FE23D9205120FE2B292051238
:101733000FE2E69205120FE2349305120FE2819352
:1017430005120FE29C9305120FE2A69305120FE216
:10175300CC9305120FE2319405120FE231FF02120E
:101763000FE253FF02120FE2DC7F00120FE2F5DEFD
:1017730004120FE221DF04120FE23EDF04120FE234
:1017830051DF04120FE26CDF04120FE2C6DF041212
:101793000FE2F4DF04120FE208E404120FE266E53D
:1017A30004120FE298E504120FE2FBE504120FE2C4
:1017B30080E704120FE2A8E704120FE2BDE7041268
:1017C3000FE2CDE704120FE20DE804120FE24FE837
:1017D30004120FE25FE804120FE272A405120FE293
:1017E3008CA405120FE2B4A405120FE2CDA40512D6
:1017F3000FE2F1A405120FE20FA505120FE226A5D1
:1018030005120FE254A505120FE26FA505120FE2B0
:1018130091AA05120FE28F8305120FE29F8305122F
:101823000FE2A48405120FE2D68405120FE20685A7
:1018330005120FE2298505120FE2408505120FE21A
:101843007A8505120FE2DF8505120FE22186051264
:101853000FE2688605120FE2958605120FE2C08635
:1018630005120FE26CA005120FE28CA005120FE225
:10187300A0A105120FE2A3A105120FE2A2A6051271
:101883000FE2D8A605120FE2F0A605120FE232A767
:1018930005120FE242A705120FE286A705120FE217
:1018A300E57700120FE2287800120FE28D7800121C
:1018B3000FE2AC7800120FE24E7900120FE2577973
:1018C30000120FE2A87900120FE2D17900120FE2A1
:1018D300DE7900120FE2507A00120FE2DE7A001274
:1018E3000FE2237B00120FE25C7B00120FE2C17B4D
:1018F30000120FE2EA7B00120FE2617C00120FE29A
:10190300B07C00120FE2ED7C00120FE2227D001288
:101913000FE2347D00120FE2467D00120FE2657D77
:1019230000120FE26E7D00120FE22A7E00120FE218
:101933006D7E00120FE2AB7E00120FE294A9051236
:101943000FE232A305120FE2419C05120FE2769CCF
:1019530005120FE2BE9C05120FE2179E05120FE25D
:10196300008004120FE2268104120FE26281041246
:101973000FE2208304120FE24E8304120FE2B885B4
:1019830004120FE2F88504120FE29A8704120FE2A1
:10199300308804120FE28A8804120FE21A890412B3
:1019A3000FE25E8904120FE2A08904120FE2058B95
:1019B30004120FE2858C04120FE2C68E04120FE2AA
:1019C300F48E04120FE2208F04120FE2298F041207
:1019D3000FE2868F04120FE21F9004120FE2369378
:1019E30004120FE2BC9304120FE21EA905120FE2C8
:1019F30034A905120FE23EA905120FE2B0FB04124F
:101A03000FE2C6FB04120FE26AFC04120FE2A9FC08
:101A130004120FE2C6FC04120FE2F7FC04120FE2F9
:101A230044FD04120FE278FD04120FE2B3FD041229
:101A33000FE2A8FF04120FE2A2A505120FE201A60E
:101A430005120FE23FA605120FE280A605120FE270
:101A5300A1BA02120FE2ADBA02120FE20FBB0212D9
:101A63000FE219BB02120FE2A8BB02120FE2E4BBA2
:101A730002120FE2DBBC02120FE238BD02120FE2C8
:101A8300C6BD02120FE217BE02120FE297BE021288
:101A93000FE259C002120FE25EC202120FE258C3F4
:101AA30002120FE28AC402120FE2DCC602120FE234
:101AB3001FC802120FE2C4C802120FE277CD02124E
:101AC3000FE26DCE02120FE203CF02120FE228CF14
:101AD30002120FE2C5CF02120FE2E2CF02120FE2AF
:101AE30002D002120FE270D002120FE28DD0021266
:101AF3000FE2BBD002120FE253D202120FE274D2F2
:101B030002120FE21AD302120FE262D302120FE2A1
:101B1300C0D302120FE263D402120FE2C8D402123E
:101B23000FE227D502120FE2DDD502120FE24CD6E7
:101B330002120FE287D602120FE2FBD602120FE265
:101B43005CD802120FE2F3D802120FE292D902120A
:101B53000FE2EEDB02120FE250DC02120FE2DDDDD8
:101B630002120FE20BDE02120FE22EE002120FE26C
:101B7300D8E202120FE2EBE302120FE24AD504129B
:101B83000FE263D604120FE2EBD704120FE205D87B
:101B930004120FE218D804120FE237D804120FE22E
:101BA30000D904120FE265DA04120FE291DB04128A
:101BB3000FE2FBDB04120FE2C6DD04120FE200802A
:101BC30005120FE2BB8005120FE2218105120FE21D
:101BD300428105120FE21D8205120FE2B8E50312DE
:101BE3000FE2E7E503120FE26BE603120FE2CEE723
:101BF30003120FE2B8E803120FE274EA03120FE2D2
:101C030099EA03120FE2EBEA03120FE27DEB0312F0
:101C13000FE2C9EB03120FE2DCEB03120FE239EC24
:101C230003120FE206ED03120FE278ED03120FE247
:101C3300AFED03120FE2F8ED03120FE2A0EF031270
:101C43000FE27FF003120FE2CDF103120FE2B0F2C5
:101C530003120FE23CF303120FE275F303120FE2D8
:101C630094F303120FE2DFF303120FE2FFF3031205
:101C73000FE2BCF403120FE2DFF503120FE23AF6B0
:101C830003120FE27AF603120FE215F903120FE2C1
:101C930090F903120FE2C8F903120FE252FA03128A
:101CA3000FE239FB03120FE23CFB03120FE23FFB8F
:101CB30003120FE249FB03120FE265FB03120FE26B
:101CC300D7FB03120FE210FC03120FE23CFC0312DA
:101CD3000FE263FC03120FE287FC03120FE2C2FC64
:101CE30003120FE235FD03120FE272FD03120FE23E
:101CF300A1FD03120FE2C0FD03120FE2B5FF0412B0
:101D03000FE2CDFF04120FE2F97F00120FE2ECC9DC
:101D130003120FE20FCA03120FE26DCB03120FE29D
:101D2300B6CB03120FE222CC03120FE280CC0312D4
:101D33000FE283CC03120FE2D4CC03120FE249CD9E
:101D430003120FE2D9CD03120FE2DCCD03120FE22F
:101D53005DCE03120FE29ECE03120FE2C3D2031233
:101D63000FE26DD403120FE2C1D403120FE250D875
:101D730003120FE288D903120FE25CDA03120FE2B7
:101D8300EDDA03120FE2A6DC03120FE289DE03127F
:101D93000FE238DF03120FE2D5DF03120FE2C0E0D8
:101DA30003120FE228E303120FE282E403120FE2AD
:101DB300F0E403120FE21B9404120FE2C594041221
:101DC3000FE2309504120FE24B9504120FE2CC950B
:101DD30004120FE2269604120FE26D9604120FE22C
:101DE300CC9604120FE2DE9704120FE2079B041253
:101DF3000FE2379C04120FE2BF9C04120FE2C89E4D
:101E030004120FE27A9F04120FE214A004120FE2ED
:101E1300E5A004120FE2A0A204120FE23EA40412F2
:101E23000FE2CBA404120FE2F1A504120FE289D84A
:101E330001120FE2ECD801120FE234D901120FE2C2
:101E430078D901120FE2D3D901120FE230DA01126D
:101E53000FE26BDA01120FE2EDDA01120FE247DB58
:101E630001120FE2C5DC01120FE23DDD01120FE2A8
:101E73005ADE01120FE282DE01120FE2D5DF0112F8
:101E83000FE2E6DF01120FE2FEDF01120FE207E1CC
:101E930001120FE2E4E101120FE2E1E201120FE2AB
:101EA30005E301120FE21CE301120FE23DE301120D
:101EB3000FE2B7D104120FE27EE301120FE256E400
:101EC30001120FE2B0E401120FE247E701120FE241
:101ED300A0E701120FE2DBB203120FE2AFE8011237
:101EE3000FE2E5E801120FE218EA01120FE297EAA6
:101EF30001120FE2D3EA01120FE242EB01120FE2E9
:101F0300F7EB01120FE2CFED01120FE2DCEE01124B
:101F13000FE254F001120FE24AF201120FE2C0F491
:101F230001120FE29AF601120FE25BF701120FE2C0
:101F33007FAC03120FE2EAF701120FE2E1F801129C
:101F43000FE2D5F901120FE244FA01120FE2EA8D12
:101F530005120FE29A8F05120FE2599005120FE254
:101F6300C19005120FE2188705120FE2368705129A
:101F73000FE27A8705120FE2A08705120FE2C787E7
:101F830005120FE2DF8705120FE2818805120FE2C7
:101F9300C38805120FE2D88805120FE2FB890512E8
:101FA3000FE2048A05120FE20D8A05120FE2168A68
:101FB30005120FE2208A05120FE22CEE04120FE243
:101FC3006AF204120FE278F204120FE27DF20412B5
:101FD3000FE2F99E05120FE247AB05120FE2ECA9DF
:101FE30005120FE2FCA905120FE278F704120FE2C3
:101FF300008003120FE2338003120FE29F8003126B
:102003000FE23A8103120FE2D78103120FE21C821F
:1020130003120FE23E8203120FE2578203120FE212
:102023007D8203120FE29F8203120FE2DD8203120D
:102033000FE2218303120FE2438303120FE2A5830E
:1020430003120FE26C8403120FE2238503120FE2E3
:10205300958503120FE2608603120FE2AA8603122C
:102063000FE2FD8603120FE2638703120FE29D87DF
:1020730003120FE2EF8703120FE2478803120FE206
:102083007B8803120FE28A8803120FE295880312FA
:102093000FE2458903120FE2AE8903120FE25B8A56
:1020A30003120FE29F8A03120FE2AC8B03120FE2BB
:1020B300338C03120FE2C18C03120FE2C48C0312A0
:1020C3000FE2458D03120FE2DC8D03120FE25C8EEB
:1020D30003120FE27B8E03120FE2D78F03120FE27C
:1020E300F08F03120FE2559003120FE26191031276
:1020F3000FE26E9103120FE2779103120FE24F93F7
:1021030003120FE2699403120FE2799403120FE2B0
:10211300F29403120FE2649503120FE28695031201
:102123000FE2239603120FE2F79703120FE2CE9BFF
:1021330003120FE2E29B03120FE2F59B03120FE27D
:10214300FF9B03120FE2089C03120FE2119C031280
:102153000FE21B9C03120FE2489C03120FE26D9CDB
:1021630003120FE2BB9C03120FE2C69C03120FE2A1
:10217300EA9C03120FE20E9D03120FE2789D0312F5
:102183000FE2BE9D03120FE2DB9D03120FE2589E86
:1021930003120FE28F9E03120FE2CE9E03120FE291
:1021A3001B9F03120FE2A19F03120FE26FA1031201
:1021B3000FE2F2A103120FE2D6A203120FE2E0A292
:1021C30003120FE253A503120FE2ACA503120FE2B1
:1021D300F6A503120FE251A703120FE286A703121B
:1021E3000FE2DAA703120FE292A803120FE241A94A
:1021F30003120FE27EA903120FE213AA03120FE2E6
:1022030098AA03120FE2F18401120FE2238501124F
:102213000FE2518501120FE2278701120FE20788AF
:1022230001120FE25F8801120FE29A8901120FE295
:10223300E68901120FE20F8D01120FE202900112E3
:102243000FE2529101120FE2E89101120FE2F491B1
:1022530001120FE2269201120FE2A99301120FE27B
:102263005E9501120FE2F29501120FE2359601120B
:102273000FE2B79601120FE2D49601120FE2049710
:1022830001120FE2399701120FE2099801120FE2CE
:10229300B29801120FE2389B01120FE2589C01120F
:1022A3000FE2439D01120FE2C59D01120FE2FEA151
:1022B30001120FE23BA201120FE293A201120FE2FD
:1022C300C6A201120FE230A301120FE266A30112AC
:1022D3000FE2F1A301120FE249A401120FE220A5BC
:1022E30001120FE2D9A501120FE274A601120FE247
:1022F3007CA901120FE298AA01120FE23BAE011270
:102303000FE22FAF01120FE232AF01120FE261AF02
:1023130001120FE267B101120FE240B201120FE2A4
:1023230075B201120FE26FB301120FE2C5B40112CD
:102333000FE2EAB401120FE229B501120FE2A4B5CC
:1023430001120FE29DB601120FE262B701120FE212
:102353007AB901120FE2EBB901120FE22BBA0112A3
:102363000FE28CBA01120FE238BE01120FE227BF4F
:1023730001120FE212C001120FE28AC001120FE232
:102383004CC101120FE25DC301120FE275C30112CA
:102393000FE289C301120FE2C1C301120FE2EFC3BF
:1023A30001120FE26EC501120FE28AC601120FE29B
:1023B300DCC601120FE23DC701120FE2EFC70112A3
:1023C3000FE216C801120FE2DDC801120FE275C950
:1023D30001120FE29BCB01120FE2D0CB01120FE2ED
:1023E30033CC01120FE262CD01120FE20ACE0112C9
:1023F3000FE23BCE01120FE253CE01120FE2E2CE07
:1024030001120FE296D101120FE26ED301120FE215
:102413008AD301120FE2A6D301120FE274D4011280
:102423000FE267D801120FE2AE3200120FE2E03280
:1024330000120FE2D13600120FE21D3700120FE235
:10244300633700120FE2053800120FE26138001201
:102453000FE2A63800120FE2ED3900120FE2013B42
:1024630000120FE2F03E00120FE2743F00120FE27F
:10247300814000120FE2DD4000120FE2CD42001254
:102483000FE2304400120FE2A54400120FE2AF4402
:1024930000120FE2BC4400120FE2E74400120FE205
:1024A300CE4500120FE2784600120FE2F646001204
:1024B3000FE2144700120FE22D4700120FE25647B6
:1024C30000120FE2784700120FE2D84900120FE220
:1024D3009E4A00120FE2E34A00120FE2604B001221
:1024E3000FE2114C00120FE2434C00120FE2894C31
:1024F30000120FE2C54C00120FE2154D00120FE25D
:102503001A4D00120FE26E4D00120FE2C44D00127D
:102513000FE2104E00120FE27D4E00120FE2F84E52
:1025230000120FE2C35000120FE2C55100120FE276
:10253300EA5200120FE2295600120FE23C59001230
:102543000FE2F95900120FE23D5A00120FE2ED5B60
:1025530000120FE2015C00120FE20B5C00120FE2AB
:10256300155C00120FE2215C00120FE23D5C0012C9
:102573000FE2E85C00120FE2275D00120FE2315D0B
:1025830000120FE23B5D00120FE2AB5D00120FE29F
:10259300F65D00120FE20B5F00120FE2505F0012B4
:1025A3000FE25D6000120FE2DD6000120FE29C613A
:1025B30000120FE2A56200120FE2D96300120FE2CC
:1025C300C76400120FE2DF6400120FE23A650012E3
:1025D3000FE2446500120FE24F6500120FE26D65D2
:1025E30000120FE2B56500120FE20F6600120FE250
:1025F300366600120FE2D16600120FE297670012EF
:102603000FE2296800120FE2A36800120FE2F069DB
:1026130000120FE26C6A00120FE2806B00120FE2ED
:10262300D06B00120FE2346C00120FE2966C0012B2
:102633000FE2C46C00120FE2E86C00120FE21D6D92
:1026430000120FE24E6D00120FE2816D00120FE2D5
:10265300A16D00120FE2096E00120FE2FD6E00126F
:102663000FE2586F00120FE2816F00120FE2097040
:1026730000120FE2777000120FE2857000120FE272
:10268300A97000120FE2067100120FE22A71001204
:102693000FE22D7100120FE2587100120FE29B71CD
:1026A30000120FE2FE7100120FE2207400120FE21B
:1026B3004A7400120FE2427500120FE25B760012B9
:1026C3000FE2077700120FE237B504120FE26FB57E
:1026D30004120FE290B504120FE2D2B504120FE216
:1026E30034B604120FE23EB604120FE24EB60412E1
:1026F3000FE289B604120FE269BA04120FE256BC64
:1027030004120FE23CBE04120FE2D3BE04120FE226
:1027130075BF04120FE2968002120FE2418102128A
:102723000FE2EF8102120FE2F58202120FE215832C
:1027330002120FE23E8402120FE2F98502120FE247
:102743006C8602120FE2108702120FE21C8802123B
:102753000FE2878802120FE2C38802120FE2068992
:1027630002120FE2418902120FE2838902120FE281
:10277300188A02120FE2948A02120FE25E8B02128F
:102783000FE23B8C02120FE2D38C02120FE2ED8CAC
:1027930002120FE21D8D02120FE24E8D02120FE2A2
:1027A300148E02120FE2248E02120FE2738E0212B3
:1027B3000FE27C8E02120FE2FA8E02120FE2568FA4
:1027C30002120FE2A18F02120FE2BC8F02120FE27C
:1027D300E78F02120FE2049002120FE2109002122E
:1027E3000FE2A79102120FE2C09102120FE245928B
:1027F30002120FE2589202120FE2779202120FE2D4
:102803001B9302120FE29C9402120FE24F960212E4
:102813000FE2E59602120FE2E89602120FE25897D2
:1028230002120FE2769702120FE20D9802120FE2E4
:10283300559802120FE2589802120FE21E990212E3
:102843000FE28B9902120FE2B19902120FE23C9A46
:1028530002120FE25A9A02120FE2A09A02120FE238
:10286300549B02120FE29E9B02120FE2CD9B0212B7
:102873000FE22A9C02120FE25F9C02120FE28B9C72
:1028830002120FE2999C02120FE2E69C02120FE27F
:10289300569D02120FE29F9D02120FE2EB9D021260
:1028A3000FE2179E02120FE2229E02120FE2409ED7
:1028B30002120FE22B9F02120FE2359F02120FE268
:1028C300709F02120FE2809F02120FE2899F021291
:1028D3000FE2DD9F02120FE2F19F02120FE220A12D
:1028E30002120FE235A102120FE2C3A102120FE29C
:1028F30008A202120FE294A202120FE29FA2021296
:102903000FE2E1A302120FE2FCA302120FE248A4BA
:1029130002120FE2B7A402120FE2F0A402120FE2B6
:102923000AA502120FE26AA502120FE209A6021219
:102933000FE254A602120FE224A902120FE2D6A953
:1029430002120FE243AA02120FE283AC02120FE259
:102953009BAC02120FE29EAC02120FE2AAAC02126F
:102963000FE2BEAC02120FE2C6AC02120FE2F9ACE8
:1029730002120FE2FCAD02120FE289AE02120FE265
:10298300F9AE02120FE27BAF02120FE23CB0021269
:102993000FE25BB002120FE2FCB002120FE259B178
:1029A30002120FE25CB102120FE2D0B102120FE287
:1029B3001FB302120FE225B402120FE2B0B40212E7
:1029C3000FE2CBB502120FE293B602120FE2C4B6C6
:1029D30002120FE2E7B602120FE2F0B602120FE2A2
:1029E3001FB702120FE2AFB702120FE265B802126D
:1029F3000FE2DAB802120FE281B902120FE2F6B95E
:102A030002120FE22DBA02120FE26BBA02120FE2A8
:102A130074B003120FE2ADD104120FE246D10412D7
:102A23000FE22BD104120FE288D004120FE288CFF9
:102A330004120FE2A6CE04120FE296CC04120FE2A8
:102A4300A4CB04120FE242CB04120FE21DFF0212C9
:102A53000FE213FF02120FE2BFE701120FE22BADE9
:102A630003120FE2A8FE02120FE2DCFC02120FE2D5
:102A7300EDAB03120FE2A7AB03120FE29AFC0212B3
:102A83000FE2A6FB02120FE27AFB02120FE231FB06
:102A930002120FE272FA02120FE24AF702120FE277
:102AA300EEF402120FE2BEF402120FE26EF402120F
:102AB3000FE208F402120FE2C7F302120FE2F9F277
:102AC30002120FE293F202120FE232F202120FE24B
:102AD300D2F102120FE270F002120FE204F00212BE
:102AE3000FE258EF02120FE253EF02120FE23CEF34
:102AF30002120FE272AB03120FE207EF02120FE2B0
:102B03003FAB03120FE22AAB03120FE2FFAA031239
:102B13000FE204D504120FE2D0D404120FE279D4E9
:102B230004120FE299EB02120FE296EB02120FE28C
:102B330054EB02120FE202D304120FE241EB021232
:102B43000FE236EB02120FE205EB02120FE2FDE891
:102B530002120FE2D3F701120FE270E802120FE242
:102B630054D204120FE22CE802120FE200E8021220
:102B73000FE2D2CA04120FE2A5CA04120FE272CA0C
:102B830004120FE24ACA04120FE2EBC904120FE265
:102B9300CBC904120FE296C904120FE242C6041213
:102BA3000FE22AC404120FE214C204120FE294C10A
:102BB30004120FE240C104120FE24CC004120FE2F0
:102BC300F4C004120FE25FE30100000080FB000089
:102BD30022E4738F000100F61D87000100F41D3508
:102BE300000400BA1D25000200BE1D26000200C01D
:102BF3001D27000200C21D28000100CC1D29000171
:102C030000CD1D84000400F21A860001005E1D2A17
:102C1300000100CE1D2B000100CF1D2C000100D4AC
:102C23001D2D000800FE1A2E000100D51D2F0001E6
:102C330000D61D30000100D71D31000100D81D3220
:102C4300000100061B33000100071B34000100D9FB
:102C53001D36000100081B38000100DA1D39000190
:102C630000D31D83000200F21D63000100131B64E7
:102C7300000100D01D65000100D11D6D000100148D
:102C83001B71000800F61A66000100F11D430001E4
:102C930000E21D44000200E31D45000100E51D465E
:102CA300000200E61D470008000B1B48000100E876
:102CB3001D4B000100E91D04000100F51DA10001E9
:102CC30000F91D37000100F81D88000100F71D3CC5
:102CD300000100091B3D000100DB1D49000200EA61
:102CE3001D67000100151B4D000200EC1D4E000185
:102CF30000EE1D4F000200EF1D3E000100E11D51DB
:102D0300000100DD1D52000100DE1D53000100E043
:102D13001D540001000A1B000000000000000136E2
:102D23003601010001020100010301000104010653
:102D33000605020000070100340801000F09040121
:102D4300010D0100FF0E0800001702000019010029
:102D5300FF1A0100011B0100FE1C0100081D0200F7
:102D6300001F0100012001000121020000230100D6
:102D73000F24020000260100012701000828020099
:102D8300FF2A0100072B0102402C0100002D010046
:102D9300012E0100012F0100FF30010B1D3108003E
:102DA300003A0100083B01000F3C0100013D010016
:102DB300FF3E04000042040000460400004A0400F1
:102DC300004E04000052040000560400005A0400A0
:102DD30000000000002001EF84000001002001F04A
:102DE30084000002002001EB84000003002001ECBA
:102DF300840000040042010F8400000500420184A6
:102E0300830000060042010284000007003001ED48
:102E13008400000040420102840000FDFF2101E71D
:102E2300842A0400003905D4192A04C8003905D8B6
:102E3300192A04C9003905DC192A04010221239047
:102E43001D2A0421022123841D2A04220221238610
:102E53001D2A0420021023881D2A04250210238919
:102E63001D01037103010301030103010301032294
:102E73000302030103100300030003000300030024
:102E830003000300034203000324030603000300BB
:102E93000304031203250323032503230304030469
:102EA30003000300030003440300030003230300A0
:102EB30003650321003503810300030503000300B9
:102EC300030003000325032303030271023001609F
:102ED3000211027002010202020202800210026168
:102EE300023A00410063027302720262024302006B
:102EF3000213023800000200020402120200020060
:102F0300020002000204020402370037003C0244BC
:102F1300020002390000020002650200023502814C
:102F23000200020502820283020002010171010113
:102F330001010111010101310101010101800110B0
:102F43000161013B001400630173017201620143DB
:102F5300010001130106013D0135000401120100C6
:102F63000100010001000104010401330133013CAC
:102F73000144013201360000010001650100013501
:102F83000081010001050182018301000103007139
:102F930000300160001100700031022003500480F2
:102FA30000100061000000140063007300720062EF
:102FB300004300000013000600000000000400129C
:102FC3000000000000000000000400040037003788
:102FD300003C024400000000000000000065000007
:102FE300003500810000000500000083000000039D
:102FF3000471040204600411047004020402040155
:1030030004020410046104000414046304730472CE
:1030130004620443040004130406040004000404CB
:1030230004120400040004000400045104640000BA
:1030330004000400044404000400040004000465C4
:1030430004000435048104640005040004830400BF
:103053000436000100060000000F0000000000001D
:103063000000000000000003FFFF00000403FFFF57
:103073000000FFFF0FF4010005C40403200001005A
:10308300000B000000000000000003010F0000001F
:10309300000000000000000000000000000000002D
:1030A30000000000000000000000000000000034E9
:1030B3001B641B3A1B6E1A401B6A1B401B761B4684
:1030C3001B6E1A401B6A1B4C1B6E1A000000005239
:1030D3001B6E1A00000000581B6E1A5E1B6E1A004E
:1030E30000000000000000000000000000000000DD
:1030F30000000000000000000000000000000000CD
:1031030000000000000000000000001300801D1FED
:1031130000861D1F808C1D0000E61D0100E61D02B8
:1031230000321D02802C1D0300381D04003E1D04C7
:1031330080441D05004A1D0600561D3100681D33DD
:10314300006E1D3400741D36007A1DFFFF00000A57
:10315300000000020000000400000008000000104E
:10316300000000200000004000000080000000007C
:10317300010000000200000004000000080000003D
:1031830010000000200000004000000300030004C2
:1031930000080010001F003E007B00F600EC01D782
:1031A30003AF075D0FB91E713D000007ECFDFDFD88
:1031B300ECDCDCCCBCACAC9C9C8C7C7C6C6C5C5C3C
:1031C3005C4C4C3C3C2C2C1C1C0AA624026A240597
:1031D30076240770240C52240D5E24FF0000001691
:1031E3000F00000B150B020002220F3300000E0F1D
:1031F30000000000000000000000000000000000CC
:103203005A6967426565416C6C69616E6365303903
:10321300D0D1D2D3D4D5D6D7D8D9DADBDCDDDEDF33
:10322300150AF4D4C0A59582726361555049000311
:103233004D4C4651181A250502003C40423A3F3F87
:10324300392F4730000119161816161823030030BA
:103253003016181920231A1C1E3030301718192164
:10326300301B1D1F300C0E020B040B0A0708000F46
:1032730002040201010101090200BE040AE803007D
:1032830000F6FB00000000E8032332010003000EF8
:1032930000AE31030A0C1008102804040309020CC1
:1032A3001E0508151E00FFFF12040574F7120B34E8
:1032B300E9901BE9F0901B9EE4F0121864901C0146
:1032C300E4F0A3F0901BEAF0A3F012261A12186A96
:1032D300901B24E4F0A3F0121F9C024D9574F0128E
:1032E3000B3474D31210C512695754806066901B57
:1032F300E9E0F91218D68A088B09AF09EA4F604C46
:103303007C0080010CEC75F003A4F8A9F074CC28C0
:10331300F582743139F583E493F46029E493F88AF0
:10332300828B83E06870DDEC75F003A4F874CD281C
:10333300F582743139F583E493C0E0740193F58326
:10334300D082122BD4AA08EFFB1218C41270F264B5
:10335300800236AF852182852283A3E05420601F3B
:103363001225188A088B09AF09EA4F600A12245EF6
:10337300AA08EFFB1218C41270F264200236AF855C
:103383002182852283E0A2E05042901BA3E0640FD8
:10339300702E900E24127120900E24C3E094E9A3A2
:1033A300E09403400A7A007B80901A0E124E7779DC
:1033B30000122434E96009901DBA12130C12244C34
:1033C300852182852283E0640102369454207003B0
:1033D3000236997A207B00901BE9E0F9121A26EA5B
:1033E3004B4C4D701A901BFD121324E8494A4B7045
:1033F3000E750801750900750A00750B00806D755F
:103403000C00750D00750E00750F00121A328A0834
:103413008B098C0A8D0B901BFD121324E8494A4B30
:103423006031901BFD7808120FBA400E750CFF75C2
:103433000DFF750EFF750F7F801985080C85090D2B
:103443008C0E8D0F901BFD780C1210957401780C67
:1034530012107C850C08850D09850E0A850F0BE576
:10346300084509450A450B70030235F37C007904CE
:103473007A007B001224E88A0C8B0DAE0CAF0D0290
:103483003537740212133B74FFF0740312133B7449
:10349300FFF0740412133B74FF124EEA12681174A6
:1034A300071210BD126A4DE96401706A1236BB44FB
:1034B30080F8A3E0F9742812133BE8F0A3E9126D36
:1034C30049E0C0E0742A12133BD0E0124ED75408EF
:1034D3006016742812133BA3E044011236CAC0E0FD
:1034E300742C12133BD0E0F012699B6011E8240B9B
:1034F300123EB0F8741612133BE8F0A3E4F0908484
:10350300B7120E6374061210BD740B1210B512219C
:10351300287404120FF78E828F83A3A3A3A3A3A3FC
:10352300A3A3A374061236CAF91224CA740512138C
:103533003B126B06EE4F70030235F37C007904EE09
:10354300FAEFFB1224E8740512133BEAF0A3EB1223
:103553004BFCE0F50CA3E0F50DE4F50EF50F780850
:10356300790C1212884023EE2404F8E43FF985080D
:103573000C85090D8882F583C3E0950CF0A3E095D3
:103583000D12752BE84970A4800C8E828F83A3A340
:10359300A3A3E4F0A3F08E828F83A3A3A3A3A3A387
:1035A300A3A3A3A3E064018E828F83A3A3A3A3A3F6
:1035B300A37020E0540460030234858E828F83A3BA
:1035C300A3A3A3A3A3A3A3A37406F07AB71237F00C
:1035D30002352FA3A3A3A3E060030234858E828F59
:1035E30083A3A3A3A3A3A3A3A3A37401F002352FCF
:1035F3001224B87C0079017A007B001224E8EA4B9C
:103603006003124E707C0079047A007B001224E878
:10361300EA4B701380448A828B83A3A3A3A3126B08
:103623001EEE98EF99400B8A828B83A3A3A3A31268
:103633006B067C0079041224E88B0BA90BEA497012
:10364300D5C3E5089EE5099F500DC3EE9508FEEF2F
:103653009509FFEE4F700D124E70901BFD1236C38D
:10366300A3F08024EE2EFEEF338E08F509E4F50A6D
:10367300F50B78081210127A20123899120FF712EC
:103683001A32901BFD121318852182852283E06470
:1036930020FAA3E08016A3E05404601312617F12A2
:1036A3002B2A79011240771270F26404FB80047AAA
:1036B300007B00742D026977EE126985E022F0A386
:1036C300E4F0A3F0A3F022124EDCA3A3E022C08215
:1036D300C08374EA1210C57C167D007900AA21AB61
:1036E300221218AC740812133B7402F0901B92124E
:1036F30063BB123711740912133B1263D374131291
:10370300133BE4126053121F9074160251A6E8F0A3
:10371300A3E9F0901B9C126AEE2274F7120B347427
:10372300DA1210C5EAFEEBFFEA4F602DAC21AD22A1
:10373300122536740612133BE0601E741712133BF6
:10374300E0FD740112133BE0FCEEFAEFFB7900128B
:10375300240AE9600479A4800279007426024D9258
:1037630074F7120B34EAFEEBFF8A82F583A3A3A35B
:10377300A3A3A3E0544060178A828B831269371294
:1037830050B560067AFF7BFF801512693380039082
:103793001B9212681174FE6A700374FF6B6041120E
:1037A300693312695D1225DEE98E828F83600B1205
:1037B30064B11273FBE4F0A380031273EAF07C3A62
:1037C3007D248E828F83124726E9F5087015EE4F0C
:1037D30060097901EEFAEFFB1224C4A908024D95A2
:1037E3007508CDAA081237F0E960E380EE8E828F68
:1037F300831264B5240CF582E438F583E0F91224CE
:10380300462274F6120B34E9FEEAFF7A0F7B0012AC
:1038130018BEEA4B601A8A828B83740CF0EEA3A362
:10382300F0EF8A828B83124B4B1260B17900802BAD
:10383300EEF91224EE8B09A909EA49601C8A828BEE
:1038430083A3A3A3A3A3A3A3A3A37406124B54E02C
:10385300F91221D6EEF91224CA7910025DA674F486
:10386300120B348A088B098C0A8D0B901BA3E0641E
:103873000F701EEA4B4C4D6018901B9EE06408606D
:1038830005E06404700B7808121012123897120FB7
:10389300F7023AFC7A017B00901BE9E0F9121A1453
:1038A30074042274F4120B3474FC1210C5EAFEEB98
:1038B300FF8A82F583A3A3E0F91224EE8A088B0919
:1038C300EA4B70030239DF8E828F83A3A882A98318
:1038D300E0C0E0EA1260A7D0E01249BA64F16028C0
:1038E3008E828F83A3E064CD601E8E828F83A3E0DC
:1038F300641A60148E828F83A3E064E9600A8E8267
:103903008F83A3E064E1703379001224C4E9602B50
:10391300E5082404F50AE43509F50B8508828509D1
:1039230083A3A3A3A3A3A3124A90124998121876C0
:10393300850A82850B8312695D80708E828F83A3D3
:10394300E0C0E0740212133BD0E01251B61252D918
:103953001242C6C0E0740312133BD0E0F0E5081234
:103963006DF4123F6FE0AA21AB2270051221228071
:10397300031225BA740212133BE064E9702D850823
:10398300828509831240D5750A01780A12101E75C3
:103993000AE9780A12101E12496C124293FCA3E042
:1039A300FD8A828B831242BD120FF7850882850937
:1039B30083A3A3A3A3A3A3A3A3A3E0640270128579
:1039C3000882850983A3A3A3A3A3A3A3A3A3740624
:1039D300F08E828F83A3A3E0F91224CA1224B89035
:1039E3001DC0123EE17404023AF974F4120B34EA76
:1039F300FEEBFF7508008A82F583A3A3A3A3A3E0CC
:103A0300603875080812680479FF122266EA4B6071
:103A13001075082C8E828F83A3A3A3A3A3E0D2E007
:103A2300F08E828F83A3A3A3A3A3E0540364016056
:103A330003023AE8430811023AE8EA241812559FB0
:103A43006036EA241A12559F6003F47013126ACE8B
:103A53007003A3E0696003023AE8750822023AE8BA
:103A6300EA241B123AEC241A12559FFAEE24191277
:103A7300559FF91221C4806D8A828B83A3A3A3A3CC
:103A8300A3A3A3A3A3123ECC70037508018E828F58
:103A930083126AD27003A3E0697006E508D2E1F5E8
:103AA30008E50860158E828F83A3A3E07006E508FE
:103AB300D2E58004E508D2E6F5081250A864017047
:103AC30006E508D2E0F5088E828F83A3A3E0601594
:103AD300EE241D1258BEF91225C0E964016006E503
:103AE30008C2E0F508A9088010F582E43FF58312C7
:103AF3007647EA227409120FF77F04020DDE74F091
:103B0300120B3474D71210C5EAFEEBFF8A82F583D9
:103B1300A3A3A3A3E0600E901DBE1269A26006904A
:103B23001DBE123EE174031210BD8E828F83A3A3C8
:103B3300A312627E12680F122536E97003023C92CB
:103B43007801740512133BE0C394024002780074B9
:103B53000712133BE0C3940240027800740C121363
:103B63003BE064F87003A3E0F47003023C92740C2E
:103B730012133BE064F97003A3E0F47003023C9278
:103B8300740C12133BE064FA7003A3E0F4700302B5
:103B93003C92740C12133BE064FB7003A3E0F470DB
:103BA30003023C92740612133BE0F9901B8CE0690C
:103BB3006003023C92E8A2E04003023C92742712A5
:103BC300133BE06003023C92EE2413126AE4742276
:103BD30012133B126288241C126AE4741012133B02
:103BE3001263D3740912133BE0601D741A12133B62
:103BF300E0FD740412133BE0FC8E828F8312680F86
:103C0300790112240AE9703B74031210B512245887
:103C1300E9F50C740912133BE0702C901B86E060ED
:103C2300267422596422601F7442596442701474CA
:103C33002012133B123EC6600E742012133B123E39
:103C4300BF60047ACF804AE9A2E6504D7420121374
:103C53003B1258C424FD600F14600C24FD6008243B
:103C6300FD600424FE7028742012133B123EB870CA
:103C73000E742012133B125EEAA3E0640D601A7403
:103C8300031210B51225FCE96401700D023EA87AF7
:103C9300D37B00121D08023EA8EE242DF582E43FDB
:103CA300F5831240CC7003A3E069701D750800789A
:103CB3000812101E780812101EEE242F12559FF9B9
:103CC300123ED21242BD120FF7740912133BE07079
:103CD30003023D70123ED212681112264A8A0E8BDD
:103CE3000FEA4B7003023E01740412133BE0F88E9B
:103CF300828F83A3A3E028F8A3E03400F9E8240D1E
:103D0300123EB0F88A828B83A3A3A3E068600EE817
:103D13008A828B83A3A3A3124B441236C47904E98A
:103D230012133B1255BEA3E02AF8A3E034008882A5
:103D3300F583A3AA82AB831218B28A088B098C0A73
:103D43008D0B850E82850F83A3A3A3A37808120F7F
:103D5300BA4003023EA890848778081211F6850EB4
:103D630082850F83A3A312764DA31252E2901B9E6A
:103D7300E064046008E064096003023EA8E50CA265
:103D8300E54003023E3BEE242F1255A7F0EE24300C
:103D930012559FC0E0740112133BD0E0F0EE2431C2
:103DA30012559FC0E0740212133BD0E0F07414125A
:103DB300133BE064017026740E12133B12499324E3
:103DC3001312559F687003A3E0697011740C1213EA
:103DD3003B123ECC7007741412133BE4F0EE24251F
:103DE300F582E43FF583120E6374041210BD740769
:103DF3001210B51221287404120FF7023EA8901B6B
:103E0300E3E064016003023D70742012133B123E31
:103E1300C67009E50CA2E65003023D70741012133C
:103E23003BE0F47003A3E0F4607BEEFCEFFD74036E
:103E33001210B5122464806DA2E650697420121327
:103E43003B1264C17016741A12133BE0640270557E
:103E530074031210B579001225B48049742012132B
:103E63003B123EBF7014741A12133BE064047035A6
:103E730074031210B51225A8802B742012133B1261
:103E83003EB8700C790074031210B5122608801521
:103E9300742012133B125EEAE0640C700874031280
:103EA30010B512260E7429026977E82406F582E418
:103EB30039F583E02212693DE064032212693DE093
:103EC3006407221258C86406221250B9640222EE13
:103ED300242BF582E43F127645EE12508E22E0F554
:103EE30008A3E0AA08FBE4FCFD12244C2274F4129C
:103EF3000B34EAFEEBFF8C088D09901B06E0600F84
:103F0300126ACE7003A3E06970051221AC80537965
:103F1300001268041221E28A828B83E58245836062
:103F23002CA3A3A3A3A3A3E054186021E508241C96
:103F3300123F6C120E67123F68120E67EE241812BE
:103F430042A4125B85126A44120FF7801579008E22
:103F5300828F83A3A3A31264A7125B851268111235
:103F630021B2023AFCE5082413F582E43509F5830E
:103F73002274F7120B3474F71210C5EAFEEBFF90AC
:103F83001B9EE06403600DE064016008E064096067
:103F9300030240728A828B83A3E060030240407C69
:103FA300007D007A027B00121870126B518A821214
:103FB3006AE8901B8F1263D37953121F78901B9E6C
:103FC300E064096009901B9C126811122644852144
:103FD300828522837401125F02901B9E7404F07425
:103FE300011210B5794A121F7274011210BD7A942E
:103FF3007B1B121A4A901A11E0640B70057406F0C9
:1040030080057900124077901B8F1264AD7A037B91
:1040130000121870901B921264AD7A047B00121880
:1040230070901B89E0A2E35004D2F08002C2F01228
:104033005EEF901DBA12130C12244C802FFC7D00EE
:104043007A037B10121870901A11E0640B700374DA
:104053000AF0901DDDE4F0FA7B40125CDF8E828F64
:1040630083A3E0F9124077901B9EE4F0122494742A
:1040730009024D92901B9C12681512213A22C082AC
:10408300C083901B241269A27017901B9EE024FB2F
:104093006005146007800A901B2B801F901B2D80E6
:1040A3001AE8496007123EAD6401700C8A828B8363
:1040B300A3E0F912212E800E901C181269A260064B
:1040C300125EEB122BD4025A36126AEE901B9CE05E
:1040D3006822126AEEE8FAE9FB2274F5120B3474D3
:1040E300D81210C58A088B098A828B83A3A3A3A342
:1040F300A3A3A3A3E0C3940F500302428E8A828B2F
:1041030083A3A3A3126B0674151210BD8A828B833B
:10411300A3A3A3A3A3A3A3A3124293FAA3E0FB1213
:1041230024A0741512133BE0702E85088285098341
:10413300A3A3A3A3A3A3A3A3E0C3940B401A8E82B8
:104143008F83A3A3A3A3A3A3A3A3E064027009EE95
:10415300240B12559FF4600302428E741712133B13
:10416300E060076402600302428E901B9EE06402DB
:10417300601CE064066017901B241269A27003029E
:10418300428E123EAD6401600302428E8025901B75
:10419300241269A2701D750800780812101E780891
:1041A30012101EEE24101242A48E828F831242BD7F
:1041B300120FF78E828F831275231249C3126AEA94
:1041C300740212133B1262881236BCC0E0740412EC
:1041D300133BD0E01242C6F508A3E0F509740F784B
:1041E300081212B7740512133BE508F07419121381
:1041F3003BE0C0E0740612133BD0E0F0741B1213D3
:104203003BE0C0E0740712133BD0E0F074161213C6
:104213003BE0C0E0740912133BD0E0F074171213B3
:104223003BE0C0E0740812133BD0E0F0EE24101220
:10423300559FC0E0740A12133BD0E0F0741A1213B6
:104243003BE0C0E0740B12133BD0E0F07427121371
:104253003BE0C0E0740C12133BD0E0F0741C12136B
:104263003BA982AA8389088A09750A007808121073
:10427300167C087D00741012133BAA82AB8312557F
:1042830096120FF7AA21AB221221347428024EF0A2
:10429300E0F98A828B83A3A3A3A3A3A3A3A3A3E08D
:1042A30022F582E43FF583E0F98E828F83A3A3A3F3
:1042B300A3A3A3A3A3A31276472212681512256C06
:1042C300740222F0EE125B8AE022C082C08374C9BA
:1042D3001210C5901B9EE06408601F9032A6E49301
:1042E300901B80F09032A6E493901B7EF0901BA766
:1042F30074011236C1A3041236C17C237D007900F8
:1043030074141210B51218AC901BAFE07009741E30
:1043130012133B74018006741E12133BE41251B650
:10432300740FF0901E031260537946121F787401C4
:1043330012133BE4F0901DCEE0C0E0740212133B75
:10434300D0E0F0901B8CE0C0E0740312133BD0E08C
:10435300F0740412133BE4F0740512133BE4F0749D
:104363000712133BE4F0901BAFE0C3940F500CE033
:10437300C0E0740612133BD0E08007740612133BAF
:10438300740FF07CB07D1B740812133BAA82AB83BD
:10439300121A4A7C037D0079FF741012133BAA8220
:1043A300AB831218AC901BE8E0C0E0741312133B0C
:1043B300D0E012609674011210B512602812259C89
:1043C300901BA3E0C0E0741C12133BD0E0F0901BE1
:1043D300A4E0C0E0741D12133BD0E0F0901B91E009
:1043E300C0E0741A12133BD0E0123715741812137D
:1043F3003B1263D3742012133BE4F0901BA6E0C07E
:10440300E0741F12133BD0E0F0743412133BE4F05A
:10441300742912133BE4F07A8F7B1B7953125EDD10
:1044230074141210B5121F8A74370251A674F21253
:104433000B3474F81210C58A0A8B0B8C0C8D0D8902
:1044430008908432AC21AD227408120F5BC200AC19
:104453000AAD0BAA21AB221267927002D200901B05
:10446300EA8013AC0AAD0BEE240BFAE43FFB1267B0
:1044730092701B12507F124D0D601EA20040E48EFD
:10448300828F83E0650C7004A3E0650D70E58E8276
:104493008F83A3A3E0650870DAEEFAEFFB740802DA
:1044A30049D0C082C083901BEA025A33C082C083C2
:1044B300901BEAE4F0A302470B74F7120B34901B32
:1044C300EA1270F8800FEA2414F582E4126B0312E7
:1044D300195AEEFAEFFBEA4B70EC901BEAE4F0A3F7
:1044E300F0024D9574F2120B348A0C8B0DEDFF899B
:1044F3000B8A828B83E08C828D83F0A3A882A983AD
:104503008A828B831245B0124B3EE0C454F0FA8882
:10451300828983E04AF0EC2402F8E43FF9850C82B7
:104523008B83A3A31245B01245C3E0333354FC126B
:1045330045B7E033333354F81245B7A3E0A2E0E4C0
:10454300331313FA88828983E04AF0EC2403FE5084
:10455300010FE50C2407F508E4350DF509750A008C
:1045630078081210167C087D00EEFAEF12559512AA
:104573000FF7EE2408FE50010FE50C240FF508E4B5
:10458300350DF50978081210167C037D00EEFAEF5D
:10459300125595120FF7E50BC3940F400DE50C244C
:1045A30012F582E4350D125B99F00249D3A3E0883A
:1045B30082898322FA88828983E04A1245C3A3222F
:1045C300F0850C828B83A3A3A3A32274F2120B3472
:1045D300EBFF8C0C8D0D8A82F583E08C828D831228
:1045E3007416A3A882A983E01259DE1249B9C41232
:1045F30059D8F0EA1275151259E51249B7A2E2E447
:10460300338C828D831249B6131313541F1259DE50
:10461300A31249B6A2E7E4338C828D83A3A3A3A399
:10462300A3A3F0EA2403FE50010FF5088F09750ACE
:104633000078081210167C087D00E50C240712553B
:1046430091120FF7EE2408FE50010FF5088F097839
:10465300081210167C037D00E50C240F12559112ED
:104663000FF78E828F83A3A3A3E0C0E012762CD032
:10467300E0F00249D374F6120B34EAFEEBFF8A82B0
:10468300F583A3858208858309E0F9122152850801
:1046930082850983E064EB601E8E828F83A3E064CE
:1046A300E160148E828F83A3E064F1600A8E828FAF
:1046B30083A3E0641A70078E828F83A3E4F0901DB6
:1046C300BA12130C12244C750801780812101E8EAE
:1046D300828F83A3E0F508780812101E7900901BDF
:1046E3009C1264AD901B921242BD120FF71224B8B4
:1046F300025DA6C082C083E9901BFC7003E48002C4
:1047030074018004EAF0A3EBF0025A36E0F9025A8E
:1047130036C082C0837C3A7D248A828B83124726EB
:10472300025A36126815121F962274F6120B349031
:104733001BFCE0701B7C0079017A007B001224E8EB
:10474300EA4B600C8A828B831269A26003122440B5
:10475300025DA6C082C083124BED401079FF122484
:10476300E2E9F89032A2E493C398500479018002FD
:104773007900025A3674F2120B348A0A8B0B8909B8
:10478300C2008A828B83A3A3A3A3A3A3A3A3E0F959
:104793001224EE8A0C8B0DAE0CAF0D750801EA4F97
:1047A3006003024859850A82850B831264A7850A30
:1047B30082850B83A3A3A3A3A3A3A31249981224C3
:1047C300D68A0C8B0DAE0CAF0DEA4F700302496510
:1047D3008A828B83A3A3A3A3E4F0A3F0E50A240CAA
:1047E300FAE4350BFB8A82F583E0C0E012496CD012
:1047F300E0F0E50A240D12498C240D1263CD122535
:10480300EA12509712695DE50A241112498C2411AA
:104813001263CDE50A2413126B15C0E0125089D040
:10482300E0F0D200EE2406F8E43FF912497F124982
:10483300BA540460030248CB901DCCE0F50A750B13
:10484300007407780A1211D08E828F83A3A3A3A3C7
:10485300A3A3124976F08E828F83A3A3A3A3A3A35A
:10486300E0F50AA3E0F50B7407780A1212B7E50A1C
:104873005407FCE50960618E828F83A3A3A3A3A3DE
:10488300A3A3A3A37402124EEA124C82600B901BE3
:104893008A12561FA3A31263D3EC700302493CEEA2
:1048A3002406F8E43FF9E8FAE912497FF0EC24FF23
:1048B300F50AE434FFF50B7407780A1211D08A82E3
:1048C3008983124976F080718E828F83A3A3A3A379
:1048D300A3A3E04480024858EC7005750800805992
:1048E3008E828F83A3A3A3A3A3A3E05420600C12FF
:1048F30018B8EA547F7900245F80198E828F83A3CE
:10490300A3A3A3A3A3E05410601A1218B8EA540F88
:104913007900240A5001098E828F83A3A3A3A3F0F5
:10492300A3E9800D8E828F83A3A3A3A37401F0A3B5
:10493300E41249C37404124C03A20050288E828FE0
:1049430083A3A3A3A312681BF9EEFAEFFB1224DCE3
:10495300E9601212699B60031249A5EEFAEFFB129C
:10496300195A750800A9088067EE240CF582E43F04
:10497300F58322E0450AF0A3E0450B228882F58304
:10498300E0547FF0A3E054FC22F582E4350BF58379
:10499300126AEEEE22A3E0F9850A82850B83126880
:1049A30015221249AC124E0722EE240FF582E43F82
:1049B300F58322A3A3A3A31249BE22126B37E022DD
:1049C3001249C722124EE0A3A3A3227403120FF7C6
:1049D3007F06020DDE74F4120B3474F71210C57ED9
:1049E300001224EEEA4B7003024A8B8A828B83A364
:1049F300A3A3A3A3A3A3A3A3E064066003024A8B18
:104A03008A828B83A3A3A3A3A3A3A3E0FF8A828B9E
:104A1300831273DAE0C0E0740812133BD0E0124D46
:104A2300B81263C01263D3122506EF54086057858A
:104A330021828522831264AD7A007B001224D0EA9E
:104A43004B70431276377C007D007A007B00802216
:104A53008E828F831258C4F47003A3E0F46027900E
:104A63001B9C124A90124D9A601C7C007D00EEFA4A
:104A7300EFFB1224D08A0A8B0BAE0AAF0BEE4F70FA
:104A8300CF7900121FAE7E01EEF9023AF7124A9473
:104A930022E0FCA3E0FD8E828F8322C082C0838A42
:104AA300828B83E58245837009901C0180068A828C
:104AB3008B83A3A3124CB660208A828B83A3A3A308
:104AC300A3A3A3A3E0540860E5EC4D6010124CBC13
:104AD3007003A3E06D70D780047A007B00025A361E
:104AE30074F2120B348A088B09890AECFEEDFF7A03
:104AF300147B00121954EA4B60378A828B83A3A379
:104B0300A3A3A3A3A3A3A3E4124B54E50A124DA4A6
:104B1300EEF0A3EF124B44124DBF124B4B8A828B24
:104B23008312764F124B37126898A3124B3EF0A3B1
:104B3300F00249D3EA240FF582E42212741AA3A3E4
:104B430022124DAAE4F0A322A3F01273D3126898A1
:104B530022124B5822124DAEA3A3A3A32274F51223
:104B63000B34EAFEEBFF890A8C088D09EA4F607566
:104B7300740169701279011224E2E9F89032A5E414
:104B830093C3985015800A7404697009124BED5051
:104B93000979118052740269704B8E828F83A3A3AB
:104BA300A3A3A3A3A3A3A3E50A124BFC1252D912F6
:104BB30069C6A3E4F0A3F0901C011269A2601880F7
:104BC30003126AEA88828983A3A3124CB688828976
:104BD30083A3A370EC8003901C01EEF0A3EF124CAF
:104BE300037900800279C1024EF379041224E2E9C9
:104BF300F89032A4E493C398221269CAA3A3A32210
:104C0300F07A207B00901BE9E0F912190022C082A0
:104C1300C083E9F87900901C01801D8A828B83A3ED
:104C2300A3A3A3A3A3A3A3A3E068600574FF687071
:104C330001098A828B83A3A3124CB670DE025A3613
:104C430074F7120B34EA4B7005901C0180068A82BC
:104C53008B83A3A3124CB6601F8A828B83A3A3A367
:104C6300A3A3A3A3A3A3E06970E4EC600F8A828BE0
:104C730083124C8270D880047A007B00024D951217
:104C830073F3E0540422C082C083901C0180068A1F
:104C9300828B83A3A3124CB660128A828B83A3A355
:104CA300A3A3A3A3A3A3E06970E580047A007B0018
:104CB300025A36126815EA4B228A828B831258C82D
:104CC3006C2274F2120B348A0A8B0B8C0C8D0D75CB
:104CD3000800750900EA4B602A901C0180068E8249
:104CE3008F83A3A3124D0D601AAC0CAD0DEEFAEF3A
:104CF300FB850A82850B83122BD4E9640170DF8E56
:104D0300088F09AA08AB090249D3E0FEA3E0FFEE2E
:104D13004F227900020FDF74F7120B34901C01123B
:104D23006AEA7C007D00800DE8FCE9FD88828983C6
:104D3300A3A3126AEAE8496030EA687002EB69707B
:104D4300E7901C01126811E86A7002E96B88828996
:104D530083A3A37008126AEA901C018009126AEA0D
:104D63008C828D83A3A31263D3802774F7120B3431
:104D7300EAFEEBFFEA4F6015122500124DF31269AC
:104D83009B60031249A5EEFAEFFB12195A80031236
:104D93000FF77F01020DDE126815121FA2E9641AD4
:104DA30022124DAAA3A322124DAE22F08A828B8334
:104DB300A3A3A3A32212741A1258C822124B58A3F6
:104DC3002274F6120B34901C01126B068014126BC2
:104DD30023124DF31249A5EEFAEFFB12195AAE084E
:104DE300AF09EE4F70E8901C01E4F0A3F0025DA65A
:104DF3008E828F831273BDF583124E078E828F834B
:104E0300124E0722E0FAA3E0FB12195A22C082C015
:104E130083EAFCEBFDEA4D6017EA24FBF582EB34F1
:104E2300FF1269A07007124E65E0F460071218C400
:104E33007905802B901BE9E0C0E0124E65D0E0F0CD
:104E4300903297E493F97A037B1C1218FAE9640110
:104E5300700B7A007B20124E747900800279040271
:104E63005A36EA24FFF582EB34FFF583227A207B5E
:104E730000901BE9E0F91219002274F4120B34A21A
:104E8300AFE433F508C2AF901C03124D0D6038EE4A
:104E930024FBF582EF34FF1269A07A007B20901B7C
:104EA300E96005124E778005E0F9121906E4F50A68
:104EB300F50B780A12101AEEFCEFFD7A037B1C1235
:104EC30018F47402120FF7E508A2E092AFEEFAEFBE
:104ED300FB023AFC124EDCE022124EE022124EEAB2
:104EE300A3A3A3A3A3A322F08E828F8322120FF77F
:104EF3007F03020DDE74F2120B3474FA1210C5EA4A
:104F0300FEEBFF7508FE7509FF1224BEE960057903
:104F13001102507A12559C603C901DE9E0C4335451
:104F2300E0F8E0333354FC48C0E0EE1260A13FF5F3
:104F330083D0E0126B4BFAA3E0FB79FF122266EAFF
:104F43004B60127508FFEE240F12559F4404F012B4
:104F5300559CD2E0F08E828F831250B36006EE240C
:104F630012126B63EE241312559F700D9032A3E45B
:104F730093C0E0125089D0E0F08E828F83E0A2E7E5
:104F8300500454038019EE241412559F7012901B81
:104F93007BE0C0E012507FD0E0F0901B7BE004F098
:104FA300EE241112559F64017016901DD0E0600D20
:104FB300901B86E0700A8E828F83E07003126B6011
:104FC3008E828F83E064017013EE240B1258BE644B
:104FD300027009EE240F12559F4440F0AC21AD221C
:104FE300EEFAEFFB1225308A0A8B0B74FE6508700C
:104FF3000374FFF47003126B23EA4B60768E828F87
:1050030083E0C0E0740112133BD0E0F07404121388
:105013003BEEF0A3EFF0EE241E126AE474021213C7
:105023003B1263D374011210AD880C890D780C12F6
:10503300101AEE242012509C12101E125097120EBA
:1050430067EE240E12509C12101E901B8F120E67D7
:10505300740812133BE0F9AC08AD0912252A740851
:10506300120FF7E9FE74106E700BAA0AAB0B12193C
:105073005A80027E10EEF974060249D0EE2414F52C
:1050830082E43FF58322EE12508E222413F582E44C
:105093003FF58322EE1249AD22F582E43FF583E02A
:1050A300F50C780C228E828F83A3A3A3A3A3A3A3BF
:1050B300A3A31250B922E0FAA3E0FB1225DEE922F2
:1050C300C082C08374D71210C59082067403121075
:1050D300BD7426120F5B8A828B83A3A3A3A3126AD8
:1050E300EA740E12133B1269A8126AEA740C1213C3
:1050F3003B1251BE240D1251ACC0E0741A12133B83
:10510300D0E0F012689E126AE8742012133B125129
:10511300BE24151251ACC0E0740812133BD0E0F06A
:10512300EA241CF582E43B126AE8741212133B1260
:1051330051BE24111251ACC0E0740912133BD0E0EC
:10514300F0EA24121251ACC0E0740712133BD0E012
:10515300F0EA241EF582E43B126AE8742412133B3E
:105163001251BE24201251ACC0E0742612133BD05E
:10517300E01251B674FFF0740112133B74FFF07424
:105183000212133B74FFF09084B7120E637404127F
:1051930010BD74071210B51221287404120FF77989
:1051A300007429120FF7025A36F582E43BF583E0C7
:1051B300227402F085218285228322E8F0A3E9F09C
:1051C300EA2274F4120B3474EC1210C58A0A8B0BA6
:1051D3008C088D09E9FF7E107A217B001219548512
:1051E3002182852283EAF0A3EB1269B2E8497003B6
:1051F3000252D27C217D007900852182852283E0C1
:10520300FA1218AC901B9C126811852182852283A7
:105213001264B12409F582E438F58312695D7420C0
:1052230012133B126AEA741112133BE812592D123E
:10523300696438F58374021259301273E1740212EF
:10524300591A1252D91259301273A6EFF07422125E
:10525300133B1258DBF9A3E0C9126DF439F583E867
:105263001255F0A3E0C9241FF582E4391252E07409
:105273002312133B126811740612133B12695D74F7
:105283000812133BE8F0742612133B126937C082ED
:10529300C083740C12133BAC82AD83D083D0827471
:1052A30005120F5B742512133BE0C0E07413121355
:1052B3003BD0E0F07900AA21AB221224C4E96401B7
:1052C30070047E0080098521828522831249A8EE1D
:1052D300F97414023AF9E508F0A3E50922F583E528
:1052E3000AF0A3E50BF02274F0120B3474FF1210D2
:1052F300C5EAFEEBFF8C088D098A82F583A3740847
:10530300F0EA241612559F60088A828B83A37410D7
:10531300F0EA241712559F60098A828B83A3E02445
:1053230008F0EA12559D60088A828B83A3E004F09B
:105333008A828B83A3A3A3A3A3A3E060198A828B8E
:1053430083A3A3A3A3A3A3A3E0C3332402F88A8262
:105353008B83A3E028F0EA24111255A76004740E8E
:105363008001E4F0901DE1E0640170168A828B8372
:10537300E06401600D901DDDE06007125587740144
:105383008004125587E41255F08A828B83A3E0F8D8
:10539300EA1236BC28298C828D83F0EA2411125537
:1053A3009F6005125BC829F0850882850983E0C3E5
:1053B30094754009750C00750D0002557EE0FA7B6B
:1053C300001219548A0C8B0DEA4B700302557E8E22
:1053D300828F83E0FA901B8C1255E97402780812CD
:1053E30011D0EA4508FAAB09EE24121255E374060C
:1053F30078081211D0A808EA48FCEBFD12559C600E
:1054030004780180027800EE2416FAE43FFBE4C836
:10541300F9ED49FDEE241112559FF5088809740929
:1054230078081211D0ED4509FD8A828B831255E964
:10543300740B78081211D0ED4509FDEE24171255AF
:10544300E3740C78081211D0ED4509FD8E828F8329
:10545300A3A3A3A3A3A31255E9740A78081211D036
:10546300ED4509FDEE24231255E3740D780812115E
:10547300D0ED4509F9EC850C82850D83F0E9A3F0A5
:10548300EE24021255C6125605F0EE24041255C638
:10549300A3A3125605A3A3F0EE24131255D6F0EEE0
:1054A30024141255D6A3F0750B088A828B83E0600F
:1054B300151269BE1264ADE50C2408FAE4350DFB40
:1054C300121A4A750B10EE241712559F60191265B4
:1054D300301264ADA80BE50C28FAE4350DFB121A63
:1054E3004A7408250BF50B8E828F83A3A3A3A3A372
:1054F300A3E0604EEE2407F50EE43FF50F850E8220
:10550300F583E0C0E01255B5D0E01255F5E0C0E0F8
:10551300081255B7D0E01255F5A312698E12101672
:10552300850E82850F83E012588FA80BE50C281295
:105533005591120FF7850E82850F83E0C333250B38
:10554300F50B12559C6008C0E01255B5D0E0F0127F
:105553005B8512698E1210161236BBFC7D00740334
:1055630012133B1255BEE0F8E50C28F8E4350DF9AB
:10557300E82AFAE439125595120FF7AA0CAB0D7409
:1055830001026977EA2423F582E43FF58322FAE4F2
:10559300350DFB1218A0740322EE2415F582E43FA7
:1055A300F583E022F582E43FF583E08521828522BD
:1055B3008322A80BE50C281258A222E0FA8E828FD0
:1055C30083A322F8E43FF98882F583E0850C828582
:1055D3000D8322F582E43FF58312560FA3A3A32282
:1055E300F582E43FF583E0F508750900221274089B
:1055F300F922F0050B8E828F83A3A3A3A3A3A3A3F6
:10560300A322A3A3126B37A312560F22E0850C82A9
:10561300850D83A3A3A3227403023AF9126AEE8EC3
:10562300828F83A3A32274F0120B3474FD1210C56E
:10563300126957740212133BE9F08C0C8D0D750B34
:10564300017C267D007900AA0CAB0D1218AC740204
:1056530012133BE0C3940850030258181255CEF0BE
:10566300AC0CAD0D8521828522831258C4FA8521A5
:1056730082852283125EEA125BC1E96003750B0027
:105683008521828522831269371258E5E0F9EA857C
:105693000C82850D83A3A3A3A3A3A3A3A3A3F0A316
:1056A300E912591AA3A31258E5A3A3E0F9E50C12D2
:1056B30069B7EA12592D12649DC0E0E50C2411125A
:1056C3007630D0E01259302407F582E438F583E0D0
:1056D300C0E012762CD0E012694A7408125911A363
:1056E300E06026852182852283E02408F8A3E03444
:1056F30000F9E50C2413F582E4350D1263D1850C12
:1057030082850D83A3E02408F0850C82850D83A395
:10571300A3A3A3A3A3A3A3E0602A850C82850D837F
:10572300A385820E85830F1258D2F8A3E03400F9C3
:10573300E50C1260A1350D1263D1850E82850F83AE
:10574300E02408F0125896E4F01258AAE4F0A312E9
:10575300694AA3A3A3A3E060111258F6850C8285BE
:105763000D83A3A3A3A3A3125922E50C1258B7E0F8
:1057730070030258041258F6FA125896EA12592284
:10578300F8852182852283E028FBA3E034008B8205
:10579300F583E0F8E50C241A127630E8125922E872
:1057A300C39AE50C50561258B2F8903298E493C35A
:1057B3009850047E0C8006E50C1258B2FE850C82CC
:1057C300850D831258D1F508A3E03400F509750A55
:1057D300007808121016EE12588F7AAE7B1012550D
:1057E30096120FF71258AA74AEF0A37410F0EEC31A
:1057F30033F8850E82850F83E02880041258B7E4BE
:10580300F0850C82850D83A3E0F8850C82850D83DA
:10581300E0C3985004790080701258D1FAA3E034A1
:1058230000FBE50C126B5A12763312695D850C820C
:10583300850D83E0C398C0E0E50C2417127630D0C1
:10584300E0125911E06040E50C2417FEE4350DFF2A
:105853008E82F583E024F2F0E50C241DF8E4350D87
:10586300F98882F583E0240EFAA3E03400FB8882F2
:10587300898312695D901B87E0F9122410E9F88E81
:10588300828F83E0C398F0A90B02697525E0FCE4DD
:1058930033FD22E50C12589C2224191258A222F53A
:1058A30082E4350DF58322E50C241B1258A2221243
:1058B300589CE0221269441258A522F582E43FF570
:1058C300831258C822126AF3F5838882E022A31256
:1058D30058D6221258DB2822E0F8852182852283BC
:1058E300E022A3A3E0FA85218285228312693DA3E6
:1058F300A3A322850C82850D83A385820E85830F46
:105903001258D6FAA3E034008A82F583E0221269A2
:105913004EA3A3A3A3A322125935F583888222F0B1
:10592300850E82850F83E004F022F0A3E912593536
:10593300C82212740CF8A3E02274F4120B348A0800
:105943008B09EA1259E5A3A3F0EA1313543F125942
:10595300D8A3F0EAC413131259E51259EF74097866
:105963000A1212B71259CFA3A3A3A3A3A3F0EB1256
:1059730059D11259EE740A780A1212B7E50A540182
:10598300C0E0EC1269443DF583D0E01259F3740B87
:10599300780A1212B71259CF1259EC740C780A1202
:1059A30012B71259CFA31259EC740D780A1212B719
:1059B300E50A5401C0E0EC2424F582E43DF583D0EC
:1059C300E0F0740E78081212B7023AE8E50A5401BF
:1059D3008C828D83221259DEA3A322540F8C828DD5
:1059E300832254038C828D8322A3A3A3A3A3A3A303
:1059F300F08A0A8B0B22C082C08379008A828B8350
:105A0300A3A3A3A3A3A3E0901B86600EE0701F8A49
:105A1300828B83A3A3E070168012E06011126804E6
:105A2300901B8FE06A7003A3E06B6002790180032F
:105A3300126811D083D082020FDF74F2120B348A02
:105A43000A8B0B890CECFEEDFF8A828B83E0FA1242
:105A53005BC1850A82850B83A3A3125BB5E0F9EAD8
:105A63008E828F83A3A3A3A3A3A3A3A3A3125BDA0F
:105A7300125BB5A3A3E0F9125B85EA125BDAA3A379
:105A8300E0C0E0EE2411F582E43FF583D0E0125B41
:105A9300E1A3A3A3E0C0E0EE2412F582E43FF58383
:105AA300D0E01269C67408124BFCA3A3A3E06017ED
:105AB300E50A2408F8E4350BF9125089E8F0A3E964
:105AC3001269C6E02408F08E828F83A3A3A3A3A345
:105AD300A3A3A3E060188E828F83A3125BA4EE249A
:105AE300151263CD850882850983E02408F08E8230
:105AF3008F83A3A3A3A3A3E060248E828F83A385B4
:105B03008208858309E0F8E50A28F582E4350B125B
:105B13005B99A3A3F0850882850983E004F0EEFA7C
:105B2300EFFB122542E9F50D70498E828F83A3A303
