:020000040000FA
:060000000210B40205F835
:03001B000206B426
:03002B00020E645E
:03004300020D3279
:0300530002052D76
:0300730002070978
:1000830002058C0100F0FF0700080000FFFF0000DD
:100093000704000000030001FF1E102700000020DA
:1000A300FD000206FFFF1E92190000000000000081
:1000B30000000000000000E80300000000E8030067
:1000C3000000000F0000000F0000000104010C00FD
:1000D3000202D18401FB84010400009C1A00000089
:1000E300E8030000FFFFF91A88130000E80300008B
:1000F30064006400B801A0BB0D00A0BB0D000202A8
:100103000207040101071E02051E020A0A0101017A
:100113000809080103B80B02803E0102FEFFE80351
:100123000A050001FFFF010A011401E002000000BB
:1001330001050301010F10FEFF0300030003000389
:10014300000300030003000300030005000A00147A
:100153000028004F009E000000243000000000969D
:100163002E00000000FF000000FF00121100604697
:100173001210C4603DE9687008F618F618F618F610
:1001830022748067F71201A2090909748067F722B4
:100193001210C4601D1211007005191919801A126A
:1001A3000F9D701F120FB1C37003E667331919193E
:1001B30040071818182208080874FFF618F618F6EE
:1001C30018F622120FB16017121161702192F0120A
:1001D30011737019501720F014080808090909E76A
:1001E300F61819E7F61819E7F61819E7F6221211A7
:1001F3007360E6E869701F0808E62480F608E436B1
:10020300F618547FB47F0CE654806007F6E418F6C2
:1002130018F622181822E9C6CC08C6CD08C6CE089F
:10022300C6CFC0E0E8C0E0EAC0E0EBC0E009E9F80F
:1002330009E7FA09E7FBE6F918E6F8C3EC98ED9944
:10024300EE9AEBC2E7F5F0EFC2E795F0500E600CC3
:10025300EBCFFBEACEFAE9CDF9E8CCF8EAA2E7D294
:10026300E7FAEB33FB13F5F0EEA2E7D2E7FEEF3349
:10027300FFC5F013A2E730E601B313C5F0C3C0E036
:10028300C0F07F00C39BFB605E9418600F401D1499
:10029300601AD0E023F9D0E0F80203748AF0E94849
:1002A3006003D2F0E4AFF0FAF9F8803BEB30E40DF1
:1002B30089F0EA6003D2F0E4AFF0F9CAF8EB30E377
:1002C3000D88F0EF6002D2F0AFF0E4CAC9F8EB5446
:1002D300076014FBC3EA13FAE913F9E813F8EF1301
:1002E3005002D2E0FFDBEDD0E0C0E030E739C3E4F9
:1002F3009FFFF5F0EC98FC42F0ED99FD42F0EE9A89
:10030300FE42F0D0E0F9D0E0F8E5F0607AE923F9B5
:10031300EE20E742D8028067C3EF33FFEC33FCEDF6
:1003230033FDEE33FE80EAEC28FCED39FDEE3AFEB8
:10033300D0E023F9D0E0F84002801BC3EE13FEEDBA
:1003430013FDEC13FCEF135002D2E0FF08B80006D4
:100353007F7F74FF802EEF3350178CF020F0026004
:10036300100CBC000C0DBD00080EBE000408E860B4
:10037300DFE933E813FFEE2313FE4F4D4C8008E90A
:100383005480FFE4FEFDFCEE33EF33F47004FCFD18
:100393007E80D0E0FBD0E0FAD0E0F8D0E0CFC61802
:1003A300CEC618CDC618CCC6F922001210C4604FB1
:1003B3001211006012E7548066F6120F9D7011123D
:1003C3001161703B090909F4F618F618F618F622BC
:1003D300120FB1701512117308080860EAE6447F22
:1003E300F618768018E4F618F622121173601612C6
:1003F30011617012E4F608F608F608E65480F6096F
:10040300090918181822EAC0E0EBC0E0ECC0E0EDDF
:10041300C0E0E687F0A4FBACF008E687F0A42CFC70
:10042300E435F0FA1809E687F0A42C4B6002740156
:10043300CA35F0FCE433FB09E687F0D2F7A42CCBF2
:1004430035F0FC1908E687F0A42BCC35F0FBE43338
:10045300FD0819E687F0D2E7A42C4ACB35F0CD345A
:1004630000FC09E687F0D2E7A42DCC35F0FDE43398
:10047300FA0918E687F0D2F7A42CCD35F0CA340078
:10048300FC08E687F0D2E7D2F7A42ACC35F07A7ECF
:1004930020E70B0ACB33CBCD33CDCC33CC33CB33AB
:1004A30050147004ED30E00ED2F1E4CD3DCDCC3CE0
:1004B300CC3B5005DA05C2F1EB547FC63308E63373
:1004C30092F0FBE73309E733C39A502D2B70190CD5
:1004D3000D4C4D70151806E608C333700D20F10A54
:1004E300A2F013F6E418800B4024E4F630F0027611
:1004F3008018F618F618F68024D33B14501074FFB6
:10050300A2F013F6187680E418F618F6800FA2F01E
:1005130013F618E63303F618ECF618EDF6D0E0FD03
:10052300D0E0FCD0E0FBD0E0FA22C0E074F1120985
:10053300BBA2AFE433F509D2AF85A708AFA1EF554E
:1005430008FE74105E600612142875A1EF74085E2D
:10055300600812142E75A1F78024EFA2E092F0E553
:1005630008A2E082F05017906198E0F8900B46E003
:10057300C398A2D265D0335002E8F075A1FEE50915
:10058300A2E092AF7F02020A1AC0E074F21209BB22
:10059300A2AFE433FED2AF9061A4E0F8759B00E50F
:1005A3009158540860087591F712147C8023E591E3
:1005B30058541060087591EF1214828014E591A2CB
:1005C300E092F0E8A2E082F05007E0C2E0F01215FA
:1005D300CC9061A3E0F8E5E9585404600E1215A22B
:1005E30075E9FB906193E0A2E640F2EEA2E092AFE0
:1005F3007F01020A1AC0E074F21209BBA2AFE4330E
:10060300FED2AF9061A5E0F8E5BF585404600675CB
:10061300BFFB1215E480D4C3E498F8E499F91206F9
:100623005B8026C3E49AFAE49BFBE920E7E9120620
:100633005BE498F8E499F922C3E498F8E499F91291
:10064300065BE498F8E499F9C3E49AFAE49BFB2285
:10065300EB20E7CFE920E7E0B90010BB0008E88A08
:10066300F084F8AAF022E4FBC8FA22EB70227B1094
:10067300C833C8C933C9335007C39AC3DBF28006F2
:100683009A50012ADBEAC833F4C8C933F4C9FA2201
:1006930075F008E4C833C8C933C933C99AC99B5034
:1006A30004C92AC93BD5F0ECFBC833F4C8E4C9FA42
:1006B30022C0E0C0D0E8C0E0E9C0E0C082C083A8A7
:1006C300F9E8C0E0900AB3E0F8743228F582E43424
:1006D3000AF583D0E0F0900AB2E0F8A3E068700670
:1006E300E595900AB5F0900AB3E004F0C394804016
:1006F30002E4F0A374C6F0D083D082D0E0F9D0E056
:10070300F8D0D0D0E032C0E0C0D0E8C0E0E9C0E02B
:10071300C082C083900B36E0F8A3E0687008539A58
:10072300F7A374018022C2EA900B36E0F874012823
:10073300F074B628F582E4340AF583E0F5F9900BFA
:1007430036E0C394804002E4F080AC12079930F0A5
:10075300391207DE803412079920F01430E72B7426
:10076300FFFCFBFA747F8022E4FCFBFA7480801A9E
:10077300B48008BC00F2BB00EF800F50EBF9E4C378
:100783009AFAE49BFBE49CFCE499C6CC18C6CB180C
:10079300C6CA18C6F922E4C9C608CAC608CBC6D356
:1007A300330308CCC63392F0C3947F402E94184091
:1007B30019C9B90704CACBCC225025C309CA33CA05
:1007C300CB33CBCC33CC33D9F422F4600DC9CCC3B7
:1007D30013CB13CBCA13CAD9F6CC22E4FCFBFA22FF
:1007E30014FCFBFA22080808EAC0E0EBC0E086F03C
:1007F300E7A4FA180986F0E7A42AFA180986F0E7AD
:10080300A42AFA180986F0E7A42AFA1986F0E7A4BD
:10081300FBE5F02AFA190886F0E7A42BFBE5F03A8A
:10082300FA190886F0E7A42BFBE5F03AFA18180941
:1008330086F0E7A4C5F02BFBE43AFA1908E7C5F004
:10084300C6A426F6E5F03BFBE43AFA1886F0E7A4E3
:10085300F6E5F00826F6E43B08F6E43A08F6D0E0BD
:10086300FBD0E0FA22080808E630E711120F611204
:100873000880080808C64480C618181822181818D3
:10088300E9799EC608CAC608CBC608CCC6C3702081
:100893007996CACBCC7019798ECBCC70137986CC70
:1008A300700EF9802ACA33CACB33CBCC33CC33197D
:1008B30030E7F2CCCBCA3350147004EA30E00DE4D5
:1008C300CA3ACACB3BCBCC3CCC500209C3E913C6D2
:1008D300CC182313C6CB18C6CA18C6F922E4CFC056
:1008E300E0E4CEC0E0E4CDC0E0E4CCC0E075F020AD
:1008F300E626F608E633F608E633F608E633F61896
:100903001818EC33FCED33FDEE33FEEF33FFC3EC8D
:100913009709ED9709EE9709EF97191919400FFFFA
:10092300EC97FC09ED97FD09EE97FE191906D5F032
:10093300BFECF709EDF709EEF709EFF7191919D02D
:10094300E0FCD0E0FDD0E0FED0E0FF222521C5820F
:10095300C0E0E52234FFC583C0E0E521C3958224CE
:10096300F810AF088583228582218008858322853C
:100973008221D2AFCEF0A3E520F0A37808E608F0F9
:10098300A3DEFAEFF0A3E58124FAF8E608F0A3E684
:1009930008F0A3E608F0A30808E608F0A3E608F0C9
:1009A300A315811581D0E0FED0E0F81581158115DE
:1009B30081E8C0E0EEC0E022C0D02521C582C0E0BE
:1009C300E52234FFC583C0E0E521C3958224F310FB
:1009D300AF08858322858221800885832285822131
:1009E300D2AFC8F0A3E9F0A3EAF0A3EBF0A3790830
:1009F300E709F0A3D8FAECF0A3EDF0A3EEF0A3EF30
:100A0300F0A3D0E0F0A3D0E0F0A3D0E0F0A3E52082
:100A1300F0A3E5F0F0A322852283852182E0C0E0E4
:100A2300A3E0F9A3E0FAA3E0FBA37808E0F608A3A8
:100A3300DFFAE0FCA3E0FDA3E0FEA3E0FFA3E0C038
:100A4300E0A3E0C0E0A3E0F5D0A3E0F520A3E0A39A
:100A5300F5F010AF088583228582218008858322E3
:100A6300858221D2AFD082D083D0E0F8D0E0321299
:100A7300114CB90003020AB1E490050178F3791926
:100A83008002F0A3D8FCD9FA7AF37B1D9000867814
:100A9300E979018015E493A3AD82AE838A828B83C7
:100AA300F0A3AA82AB838D828E83D8E9D9E77582BE
:100AB300687583FA7405120DF57582FE75832B74C0
:100AC30000120DF50075F0108E238F248582288582
:100AD3008327852182852283E0CEA3E0CF852882E8
:100AE300852783EBC9EAC8EDCBECCAC3E833C8E971
:100AF30033C9EA33CAEB33CBC3EA9EF526EB9FF542
:100B030025B35004AB25AA26EC33CCED33CDD5F079
:100B1300DAAE23AF24221210C4601C121100601736
:100B230012117370071211617001D322C0D0121118
:100B3300617006D0D0B322C32233D0D0501430E03A
:100B4300F6C3E7960809E7960809E7960809E796C2
:100B5300B32220E0D5E6970809E6970809E6970847
:100B630009E697B322D083D082ECC0E0EDC0E0E485
:100B730093A3FCE493A3FDED4C600D120C40EC2415
:100B8300FFFCED34FFFD80EFE493A3FCE493A3FDAE
:100B9300ED4C600D120CDDEC24FFFCED34FFFD8009
:100BA300EFD0E0FDD0E0FCE493A3C0E0E493C0E029
:100BB30022D083D082E9C0E0E493A3C386F0C5F0DA
:100BC30095F0F908E493A386F0C5F095F0700BE473
:100BD30093A3C3994005E9048002A3E475F002A43A
:100BE3002582F582E5F03583F583D0E0F9E493A31C
:100BF300C0E0E493C0E022852283852182E0A3FE46
:100C0300E0A3F5207808E0A3F608DFFAE0A3FFE00D
:100C1300A3C0E0E0A3C0E0E0A3C0E0E0A3C0E0E045
:100C2300A3C0E010AF0885822185832280088582D6
:100C330021858322D2AFD083D082020DFBC0E0C3D3
:100C4300E49396087401939618400FE49366700832
:100C530008740193661870007019A3A3C3E49396F4
:100C6300087401939618A3A3400DD0E0D0E0D0E020
:100C7300020BA4A3A3A3A3A3A3D0E0227404800420
:100C830074028000CCC0E0EDC0E0E521C39CCCAD94
:100C93002250011D10AF068C218D2280068C218DE0
:100CA30022D2AF120D77D0E0FDD0E0FC2274028097
:100CB30000CCC0E0EDC0E0E521C39CCCAD225001E7
:100CC3001D10AF068C218D2280068C218D22D2AF80
:100CD300120D55D0E0FDD0E0FC22C0E0C0F088F05A
:100CE300E4936670080874019366187000A8F0A373
:100CF300A3700BD0F0D0E0D0E0D0E0020BA4A3A30C
:100D0300D0F0D0E022D083D082CCC0E0E493A360C3
:100D130006120D981470FAE493A36006120EF714EA
:100D230070FAD0E0FCE493A3C0E0E493C0E022C0F7
:100D3300E074F21209BBA2AFE433FED2AFC2C0E546
:100D4300D1A2E4500312138CEEA2E092AF7F010212
:100D53000A1ACAC0E0E493A3C582CCC582C583CD79
:100D6300C583F0A3C582CCC582C583CDC583DAE52F
:100D7300D0E0CA22CAC0E0E0A3C582CCC582C58345
:100D8300CDC583F0A3C582CCC582C583CDC583DA27
:100D9300E6D0E0CA22C0E0E493A3D39C5010E493CE
:100DA300A3C39C400AD0E0D0E0D0E0020D25A3A36A
:100DB300A3D0E022C008C3E096F50808A3E096425A
:100DC3000808A3E096420808A3E09645087001D3FB
:100DD300D008227009080808226016181818C6C31C
:100DE30033C608C633C608C633C608C633C6D5E0FD
:100DF300EA22C09FF59FE473D09F22D083D082C0A4
:100E03009FE493C0E0740193C0E0740293F59F22C2
:100E13007404800A74038006740280027401C0E0C3
:100E2300F404120E49D0E012110F2200C0D0252184
:100E330010AF08F521500C05228008F5215002055A
:100E430022D2AFD0D0222521F58210AF08F5214060
:100E53000C15228008F52140021522D2AF8522838A
:100E630022C0E0C0D0E8C0E0A8A8D2AFC2C7E8A2C1
:100E7300E792AFD0E0F8D0D0D0E032BB0102E72256
:100E8300C082C08389828A83BB0003E08002E4932B
:100E9300D083D082226016080808C6C313C618C6BA
:100EA30013C618C613C618C613C6D5E0EA22C3E094
:100EB300C696F608A3E0C696F608A3E0C696F6081B
:100EC300A3E0C696F6222521F8E43522F92225214E
:100ED300FAE43522FB222521FCE43522FD222521DB
:100EE30010AF08F521400C15228008F521400215AA
:100EF30022D2AF22C0E0E493A36C7009D0E0D0E02B
:100F0300D0E0020D25A3A3D0E022C3E09608A3E01E
:100F13009608A3E09608A3E096A2D265D03322E711
:100F23006670100809E766700A0809E76670040826
:100F330009E76622C3E7960809E7960809E79608D2
:100F430009E796A2D265D03322E066701008A3E0C9
:100F530066700A08A3E066700408A3E06622181806
:100F630018E4C396F608E496F608E496F608E496C1
:100F7300F622C3E096F008A3E096F008A3E096F00B
:100F830008A3E096F022C3E697F60809E697F60869
:100F930009E697F60809E697F622181818E60846B0
:100FA300087009E626087005E633F42208221919A9
:100FB30019E70947097009E727097005E733F422A0
:100FC3000922C3E4939608740193960874029396D6
:100FD300087403939622E627F60809E637F608090C
:100FE300E637F60809E637F622700422600D18C6C4
:100FF300C333C608C633C6D5E0F41822E657F6084D
:1010030009E657F60809E657F60809E657F622E017
:1010130026F608A3E036F608A3E036F608A3E03682
:10102300F622E026F008A3E036F008A3E036F00845
:10103300A3E036F022E056F608A3E056F608A3E054
:1010430056F608A3E056F622E493F608740193F6E5
:1010530008740293F608740393F622E647F6080928
:10106300E647F60809E647F60809E647F622E0569A
:10107300F008A3E056F008A3E056F008A3E056F00A
:1010830022C6F4C608C6F4C608C6F4C608C6F4C623
:1010930022C3E09608A3E09608A3E09608A3E0968F
:1010A30022C3E7960809E7960809E7960809E79631
:1010B3002275D00075813F75210175220500020A52
:1010C30072E6084608C3134608336002E633F42287
:1010D300600C08C6C313C618C613C6D5E0F422E0D5
:1010E300F608A3E0F608A3E0F608A3E0F622E6F08C
:1010F30008A3E6F008A3E6F008A3E6F022E7094711
:1011030009C3134709336002E733F422CAC0E0E698
:10111300F0A308DAFAD0E0FA22E8F0A3E9F0A3EAB0
:10112300F0A3EBF022E0FAA3E0FBA3E0FCA3E0FDD5
:1011330022EAF0A3EBF0A3ECF0A3EDF022E0F8A396
:10114300E0F9A3E0FAA3E0FB22E5C754F84401F574
:10115300C77901222521F582E43522F58322E72789
:1011630019471947194722C2AF75D69F02000022BB
:10117300E62618461846184622120DFE3BDD0312DA
:101183000DFEE7DD03120DFE17DE03120DFE77DE03
:1011930003120DFE0BDF03120DFEBCDF03120DFE67
:1011A3000DE003120DFE51E003120DFEEBE00312FE
:1011B3000DFE5BE103120DFE8AE103120DFE90E2C8
:1011C30003120DFEBAE203120DFE0EE303120DFE2F
:1011D300E2E303120DFE10E603120DFEBEE6031258
:1011E3000DFE2BE903120DFEB0E903120DFEB3EC65
:1011F30003120DFEE7EE03120DFE23EF03120DFEA5
:101203007CF003120DFE8FF003120DFECCF00312DF
:101213000DFE95F203120DFEA26D00120DFE1E6E61
:1012230000120DFE516E00120DFE7F6E00120DFEB8
:10123300BD6E00120DFEFA7000120DFE1971001240
:101243000DFE5E7100120DFEF47100120DFE407270
:1012530000120DFED47200120DFEAD7300120DFECE
:10126300097400120DFE677400120DFEDA74001289
:101273000DFE1E7500120DFE767500120DFE98759B
:1012830000120DFE287600120DFEB97600120DFE37
:10129300057700120DFE317700120DFE72770012F2
:1012A3000DFE087900120DFEF47900120DFECF7ABF
:1012B30000120DFE60EB05120DFE93EB05120DFE01
:1012C300B3EB05120DFEDAEB05120DFE07ED051269
:1012D3000DFE28ED05120DFED3ED05120DFE9E85C4
:1012E30006120DFEA38506120DFED68506120DFE0F
:1012F3006CF805120DFE33F905120DFE45F90512C2
:101303000DFE6E8606120DFE7F8606120DFE998671
:1013130006120DFEF97F00120DFEE17F00120DFE95
:10132300758406120DFE858406120DFE9A8406123C
:101333000DFEE38406120DFE708206120DFEF4828A
:1013430006120DFE5C8306120DFEE0FF04120DFE75
:10135300ADE405120DFEBBE405120DFE34E50512E6
:101363000DFE0DE605120DFED0E705120DFEA88653
:1013730006120DFEC1CA05120DFE2DCB05120DFE80
:10138300D0CB05120DFE45CD05120DFEACCD0512D9
:101393000DFEF9CD05120DFE52CE05120DFED6CE71
:1013A30005120DFE0BCF05120DFE29CF05120DFE02
:1013B300AFCF05120DFE32D005120DFE3FD0051240
:1013C3000DFED4FA04120DFE00FB04120DFE6AFD9D
:1013D30004120DFEAAFD04120DFEE6FD04120DFE1D
:1013E300FAFD04120DFE13FE04120DFE05FF041296
:1013F3000DFEB8FF04120DFECCFF04120DFEB1FD6D
:1014030005120DFED5FD05120DFEEEFD05120DFEB6
:101413002CFE05120DFE5CFE05120DFE89FE051263
:101423000DFEEFFE05120DFEF2FE05120DFEFCFE93
:1014330005120DFE09FF05120DFE32F105120DFE18
:1014430052F105120DFE91F105120DFEAFF10512D9
:101453000DFECAF105120DFE30F205120DFE3CF22F
:1014630005120DFE99F205120DFEA8F205120DFEEE
:10147300CCF205120DFE8DF305120DFE9AF3051243
:101483000DFEABF305120DFE7FFF01120DFEC7FF2C
:1014930001120DFEF3FF01120DFE58D505120DFECC
:1014A300B2D605120DFEC0D605120DFED3D6051217
:1014B3000DFEE8D605120DFEFDD605120DFE10D762
:1014C30005120DFE8CD705120DFEF1D705120DFE88
:1014D30087D805120DFE60D905120DFE70D90512CD
:1014E3000DFE7FD905120DFE3FFF03120DFE63FFB4
:1014F30003120DFE8BFF03120DFEB3FF03120DFE4D
:10150300D9F305120DFE00F405120DFE1EF40512AB
:101513000DFE8DF405120DFE5FEE05120DFE78EE45
:1015230005120DFE84EE05120DFE98EE05120DFE5A
:10153300B6EE05120DFEC0EE05120DFECAEE051243
:101543000DFEDDEE05120DFE63EF05120DFED8EF65
:1015530005120DFE07F005120DFE55F005120DFEE6
:10156300A4F005120DFEBFF005120DFEC9F0051221
:101573000DFEDAF005120DFE1DF105120DFE4B8571
:1015830006120DFE42B105120DFE6EB105120DFEDF
:101593008BB105120DFE9EB105120DFEB9B10512F8
:1015A3000DFE13B205120DFE41B205120DFE51B62A
:1015B30005120DFEAFB705120DFEE1B705120DFEC4
:1015C30044B805120DFEB0B905120DFED8B90512C7
:1015D3000DFEEDB905120DFEFDB905120DFE3DBA66
:1015E30005120DFE7FBA05120DFE8FBA05120DFE10
:1015F300408106120DFE5A8106120DFE82810612EB
:101603000DFE9B8106120DFEBF8106120DFEDD81CC
:1016130006120DFEF48106120DFE228206120DFE45
:101623003D8206120DFE2A8606120DFE24E10512E6
:101633000DFE34E105120DFE39E205120DFE6BE2DB
:1016430005120DFE9BE205120DFEBEE205120DFE14
:10165300D5E205120DFE0FE305120DFE74E305122C
:101663000DFEB6E305120DFEFDE305120DFE2AE4A1
:1016730005120DFE55E405120DFE4DFC05120DFE7F
:101683006DFC05120DFE81FD05120DFE84FD051294
:101693000DFE13FF05120DFE49FF05120DFE8BFF14
:1016A30005120DFE9BFF05120DFEDFFF05120DFE59
:1016B300CFC305120DFE12C405120DFE77C4051229
:1016C3000DFE96C405120DFE38C505120DFE41C56B
:1016D30005120DFE92C505120DFEBBC505120DFECA
:1016E300C8C505120DFE3AC605120DFEC8C6051281
:1016F3000DFE0DC705120DFE46C705120DFEABC745
:1017030005120DFED4C705120DFE4BC805120DFEC2
:101713009AC805120DFED7C805120DFE0CC9051295
:101723000DFE1EC905120DFE30C905120DFE4FC96F
:1017330005120DFE58C905120DFE14CA05120DFE41
:1017430057CA05120DFE95CA05120DFEA1FF02121E
:101753000DFE008006120DFE2EF605120DFE64F638
:1017630005120DFEACF605120DFE05F805120DFE71
:10177300008005120DFE268105120DFE6281051201
:101783000DFE208305120DFE4E8305120DFEB88556
:1017930005120DFEF88505120DFE9A8705120DFE42
:1017A300308805120DFE8A8805120DFE1A8905126E
:1017B3000DFE5E8905120DFEA08905120DFE058B37
:1017C30005120DFE858C05120DFEC68E05120DFE4B
:1017D300F48E05120DFE208F05120DFE298F0512C2
:1017E3000DFE868F05120DFE1F9005120DFE36931A
:1017F30005120DFEBC9305120DFED8FF03120DFE5C
:10180300EEFF03120DFE9CFB02120DFEB2FB021251
:101813000DFE56FC02120DFE95FC02120DFEB2FCEB
:1018230002120DFEE3FC02120DFE30FD02120DFE4C
:1018330064FD02120DFE9FFD02120DFE94FF0212C3
:101843000DFE758306120DFED48306120DFE12845F
:1018530006120DFE538406120DFE008004120DFEC7
:101863000C8004120DFE6E8004120DFE78800412AB
:101873000DFE078104120DFE438104120DFE3C820E
:1018830004120DFE998204120DFE278304120DFE2D
:10189300788304120DFEF88304120DFEBA85041238
:1018A3000DFEBF8704120DFEB98804120DFEEB89ED
:1018B30004120DFE3D8C04120DFE808D04120DFEEC
:1018C300258E04120DFED39204120DFEC993041249
:1018D3000DFE5F9404120DFE849404120DFE2195F7
:1018E30004120DFE3E9504120DFE5E9504120DFECC
:1018F300CC9504120DFEE99504120DFE1796041201
:101903000DFEAF9704120DFED09704120DFE7698CC
:1019130004120DFEBE9804120DFE1C9904120DFE56
:10192300BF9904120DFE249A04120DFE839A041229
:101933000DFE359B04120DFEA49B04120DFEDF9BCE
:1019430004120DFE539C04120DFE9E9D04120DFE07
:101953002E9F04120DFECD9F04120DFE0DA2041244
:101963000DFE6FA204120DFE9DA204120DFEC0A473
:1019730004120DFE6AA704120DFE7DA804120DFECB
:10198300BFBA05120DFEC6BB05120DFE33BD05120F
:101993000DFE4DBD05120DFE60BD05120DFE7FBD92
:1019A30005120DFE48BE05120DFEADBF05120DFE5C
:1019B3006BC005120DFED5C005120DFEA0C20512A7
:1019C3000DFE95DD05120DFE50DE05120DFEB6DE91
:1019D30005120DFED7DE05120DFEB2DF05120DFE58
:1019E3006DC804120DFE9CC804120DFE20C904121A
:1019F3000DFE83CA04120DFE6DCB04120DFE29CD1C
:101A030004120DFE4ECD04120DFEA0CD04120DFEE8
:101A130032CE04120DFE7ECE04120DFE91CE0412C0
:101A23000DFEEECE04120DFEBBCF04120DFE2DD023
:101A330004120DFE64D004120DFEADD004120DFE8F
:101A430055D204120DFE34D304120DFE82D40412B7
:101A53000DFE65D504120DFEF1D504120DFE2AD636
:101A630004120DFE49D604120DFE94D604120DFE87
:101A7300B4D604120DFE71D704120DFE94D80412CD
:101A83000DFEEFD804120DFE35D904120DFE3DDA1A
:101A930004120DFED8DC04120DFEFEDC04120DFE52
:101AA30079DD04120DFE9EDD04120DFE12DE04121A
:101AB3000DFEF0DE04120DFE2EDF04120DFEB8DF64
:101AC30004120DFE9FE004120DFEA2E004120DFEAF
:101AD300ACE004120DFEB6E004120DFED2E00412D7
:101AE3000DFE44E104120DFE7DE104120DFEA9E199
:101AF30004120DFED0E104120DFEF4E104120DFEFA
:101B03002FE204120DFEA2E204120DFED6E204122D
:101B13000DFEE0E204120DFE1CE304120DFE51E380
:101B230004120DFE70E304120DFEE48506120DFE91
:101B3300FC8506120DFEF67F00120DFE9EAC04120C
:101B43000DFEC1AC04120DFE1FAE04120DFE68AEF5
:101B530004120DFED4AE04120DFE32AF04120DFEBC
:101B630035AF04120DFE86AF04120DFEFBAF041257
:101B73000DFE8BB004120DFE8EB004120DFE0FB1DC
:101B830004120DFE50B104120DFE75B504120DFEC4
:101B93001FB704120DFE73B704120DFE02BB04122D
:101BA3000DFE3ABC04120DFE0EBD04120DFE78BDEF
:101BB30004120DFEA2BD04120DFE5BBF04120DFE46
:101BC3003EC104120DFEEDC104120DFE8AC20412C1
:101BD3000DFE75C304120DFEDDC504120DFE37C7DD
:101BE30004120DFEA5C704120DFE1B9405120DFE73
:101BF300C59405120DFE309505120DFE4B95051289
:101C03000DFECC9505120DFE269605120DFE6D9662
:101C130005120DFECC9605120DFEDE9705120DFE84
:101C2300079B05120DFE379C05120DFEBF9C051286
:101C33000DFEC89E05120DFE7A9F05120DFE14A01F
:101C430005120DFEE5A005120DFEA0A205120DFE64
:101C53003EA405120DFECBA405120DFEF1A505123F
:101C63000DFE04D902120DFE67D902120DFEAFD983
:101C730002120DFEF3D902120DFE4EDA02120DFE10
:101C8300ABDA02120DFEE6DA02120DFE68DB021277
:101C93000DFEC2DB02120DFE40DD02120DFEB8DDA9
:101CA30002120DFED5DE02120DFEFDDE02120DFE46
:101CB30050E002120DFE61E002120DFE79E0021205
:101CC3000DFE82E102120DFE5FE202120DFE5CE3E5
:101CD30002120DFE80E302120DFE97E302120DFEC7
:101CE300B8E302120DFEDAE302120DFEF9E302126B
:101CF3000DFED1E402120DFE2BE502120DFEC2E72A
:101D030002120DFE1BE802120DFE3AE802120DFE4E
:101D13002AE902120DFE60E902120DFE93EA021295
:101D23000DFE12EB02120DFE4EEB02120DFE88EBBE
:101D330002120DFEF7EB02120DFEACEC02120DFEC9
:101D430084EE02120DFE91EF02120DFE09F1021252
:101D53000DFEFFF202120DFE75F502120DFE4FF796
:101D630002120DFE10F802120DFE88F802120DFE8B
:101D73009FF802120DFE96F902120DFE8AFA021264
:101D83000DFEF9FA02120DFE15E805120DFEC5E966
:101D930005120DFE84EA05120DFEECEA05120DFE96
:101DA300B0D905120DFECED905120DFE12DA0512B9
:101DB3000DFE38DA05120DFE5FDA05120DFE77DA35
:101DC30005120DFE8FDA05120DFE31DB05120DFE35
:101DD30073DB05120DFE96DC05120DFEA5AD051293
:101DE3000DFEA8DC05120DFEB1DC05120DFEBBDCF9
:101DF30005120DFEDCDC05120DFE5ED005120DFE94
:101E0300D4DA03120DFEAAD405120DFEAFD40512C7
:101E13000DFEDAFA05120DFEE08606120DFEEC84C5
:101E230006120DFEFC8406120DFEA97B00120DFEA8
:101E3300008002120DFE328002120DFE9E800212FD
:101E43000DFE398102120DFED88102120DFE1D8294
:101E530002120DFE4DD603120DFE588202120DFE24
:101E63007E8202120DFEA08202120DFEDE8202129B
:101E73000DFE228302120DFE448302120DFEA68381
:101E830002120DFE6D8402120DFE248502120DFE58
:101E9300968502120DFE688602120DFEB2860212AC
:101EA3000DFE058702120DFE6B8702120DFEA5873C
:101EB30002120DFEF78702120DFE138802120DFEA9
:101EC3003E8802120DFE458A02120DFE998B021204
:101ED3000DFEBB8B02120DFEEF8B02120DFE108C5A
:101EE30002120DFE1F8C02120DFE2A8C02120DFE31
:101EF300DA8C02120DFE438D02120DFEF08D0212DA
:101F03000DFE288E02120DFEEE8E02120DFEFB8FC9
:101F130002120DFE459002120DFED49002120DFE28
:101F2300389102120DFE739102120DFEDF9302121D
:101F33000DFE339502120DFE6C9802120DFE3999B7
:101F430002120DFEC79902120DFEF09902120DFE48
:101F5300629A02120DFEF69A02120DFE549B0212B1
:101F63000DFE469C02120DFE689C02120DFEC49DDE
:101F730002120DFEDD9D02120DFEF09D02120DFEFA
:101F83005F9E02120DFE6B9F02120DFE789F0212DE
:101F93000DFE819F02120DFE59A102120DFE7FA2BA
:101FA30002120DFE8FA202120DFE91A302120DFE6C
:101FB30008A402120DFE37A402120DFE4CA5021254
:101FC3000DFE18A702120DFEF0AA02120DFEFAAAC8
:101FD30002120DFE0EAB02120DFE18AB02120DFE25
:101FE30022AB02120DFE2CAB02120DFE45AB021208
:101FF3000DFE4FAB02120DFEC3AB02120DFECEABB4
:1020030002120DFEF3AB02120DFEFEAB02120DFE29
:102013004CAC02120DFE56AC02120DFE61AC021264
:102023000DFE85AC02120DFEA9AC02120DFE05AD2C
:1020330002120DFE4BAD02120DFE68AD02120DFE33
:10204300E5AD02120DFE1CAE02120DFE5BAE0212D6
:102053000DFEA8AE02120DFE2AAF02120DFEC3AF93
:1020630002120DFE93B102120DFEF1B102120DFE2A
:102073000DB302120DFE33B302120DFE72B402123F
:102083000DFE98B702120DFED9B902120DFEB5BBB3
:1020930002120DFE4BBC02120DFE72BE02120DFEA9
:1020A3001EBF02120DFE53BF02120DFEB8BF021275
:1020B3000DFEC2BF02120DFEECC102120DFE13C3D0
:1020C30002120DFE53C302120DFEF9C302120DFEDE
:1020D3008AC502120DFE13C702120DFE33C7021288
:1020E3000DFE8CC702120DFE8EC802120DFED8C85B
:1020F30002120DFE28C902120DFE12CA02120DFEB3
:1021030087CA02120DFEA1CB02120DFE1CCC0212D5
:102113000DFE21CD02120DFECCCF02120DFEEBCF30
:1021230002120DFE4CD102120DFE0ED302120DFE51
:1021330062D302120DFE1AD402120DFEC9D402128A
:102143000DFE1FD502120DFED5D502120DFE6AD665
:1021530002120DFED6D602120DFE10D702120DFE8C
:1021630041D702120DFE9DD802120DFE008003120C
:102173000DFE328003120DFE698003120DFE5282A2
:1021830003120DFE358303120DFE8D8303120DFE24
:10219300C88403120DFE148503120DFE3C8803123E
:1021A3000DFE9E8B03120DFEEB8C03120DFE818D33
:1021B30003120DFE8D8D03120DFEBF8D03120DFE56
:1021C300418F03120DFEDC9003120DFE8491031266
:1021D3000DFEC79103120DFE2D9203120DFE4A92BE
:1021E30003120DFE7A9203120DFEAF9203120DFE3F
:1021F3007F9303120DFE289403120DFEAC96031277
:102203000DFECC9703120DFEB59803120DFE379900
:1022130003120DFE569D03120DFE939D03120DFE38
:10222300EB9D03120DFE1E9E03120DFE9F9E0312D5
:102233000DFEEC9E03120DFE779F03120DFEC99F48
:1022430003120DFEA0A003120DFE59A103120DFEF1
:10225300F4A103120DFE0DA503120DFE2DA603120C
:102263000DFEDAA903120DFEF8AA03120DFEFBAA56
:1022730003120DFE2AAB03120DFE30AD03120DFE49
:1022830009AE03120DFE3EAE03120DFE46AF03125E
:102293000DFEFCAF03120DFE9DB103120DFEC2B184
:1022A30003120DFE01B203120DFE73B203120DFEF3
:1022B30057B303120DFE24B403120DFE5AB60312D4
:1022C3000DFECBB603120DFE0BB703120DFE6CB75A
:1022D30003120DFE2FBB03120DFE1EBC03120DFED7
:1022E30005BD03120DFE7DBD03120DFE3FBE03129D
:1022F3000DFE3DC003120DFE55C003120DFE69C055
:1023030003120DFEA1C003120DFECFC003120DFE7A
:1023130056C203120DFE61C303120DFEB3C30312B3
:102323000DFE14C403120DFEC6C403120DFEEDC44C
:1023330003120DFED1C503120DFE82C603120DFE5C
:1023430071C803120DFEA6C803120DFE0EC90312B7
:102353000DFE3DCA03120DFEEFCA03120DFE20CB84
:1023630003120DFE38CB03120DFEC7CB03120DFE75
:102373007BCE03120DFE53D003120DFE6FD003125A
:102383000DFE8BD003120DFE59D103120DFE3DD568
:1023930003120DFE038501120DFE3B8501120DFE96
:1023A300198A01120DFE5F8A01120DFEAC8B011218
:1023B3000DFE178C01120DFEA08D01120DFEB090C3
:1023C30001120DFECB9101120DFEDD9B01120DFEDC
:1023D300709C01120DFEC29F01120DFEBEA00112E0
:1023E3000DFE19A101120DFE63A201120DFE51A3F0
:1023F30001120DFEEDA501120DFE61A701120DFEE6
:10240300E4A701120DFEE7A701120DFE5CA801125D
:102413000DFE66A801120DFE73A801120DFE9EA803
:1024230001120DFE4EA901120DFE47AA01120DFE67
:10243300F2AA01120DFE10AB01120DFE29AB01121F
:102443000DFE52AB01120DFE74AB01120DFEC9ADB0
:1024530001120DFE8EAE01120DFED3AE01120DFE62
:1024630052AF01120DFEFEAF01120DFE30B001128C
:102473000DFE84B001120DFEBFB001120DFE06B1B8
:1024830001120DFE56B101120DFE5BB101120DFEDC
:10249300AFB101120DFEDBB101120DFEC4B2011288
:1024A3000DFE15B301120DFE75B301120DFECFB370
:1024B30001120DFE6AB401120DFEA9B701120DFE41
:1024C300BBB801120DFE35BA01120DFE45BD011256
:1024D3000DFEE3BD01120DFED9C001120DFE98C120
:1024E30001120DFEDCC101120DFE87C301120DFEA8
:1024F3009BC301120DFEA5C301120DFEAFC3011252
:102503000DFEBBC301120DFEE0C301120DFEB9C5E2
:1025130001120DFE0EC601120DFE18C601120DFEAC
:1025230022C601120DFE97C601120DFEE6C6011268
:102533000DFEF7C701120DFE44C801120DFE51C96D
:1025430001120DFE95C901120DFE3BCA01120DFECB
:102553002ECB01120DFEF4CB01120DFE17CD01128D
:102563000DFE35CE01120DFE1DCF01120DFE35CF2E
:1025730001120DFE8CCF01120DFE96CF01120DFE3E
:10258300A1CF01120DFEBFCF01120DFE07D0011224
:102593000DFE69D001120DFE90D001120DFEA2D0E6
:1025A30001120DFE3DD101120DFE72D101120DFE7D
:1025B30059D201120DFE9ED201120DFE84D30112D7
:1025C3000DFEABD301120DFE2ED401120DFE9FD4CE
:1025D30001120DFE28D601120DFE54D701120DFE75
:1025E30017D801120DFEDFD801120DFE69D90112B1
:1025F3000DFE91DA01120DFE33DB01120DFEAEDB8F
:1026030001120DFE6ADC01120DFEB4DC01120DFE97
:102613000EDD01120DFEE6DD01120DFE09DE0112D3
:102623000DFEBCDE01120DFEDEDE01120DFE47DFE4
:1026330001120DFE5DE101120DFE55E201120DFEC8
:1026430019E301120DFE4BE501120DFE95E5011292
:102653000DFEE5E501120DFE49E601120DFEABE6A6
:1026630001120DFED9E601120DFEFDE601120DFE6B
:1026730032E701120DFE63E701120DFE96E7011228
:102683000DFEE6E701120DFE39E801120DFE5EE9CB
:1026930001120DFEFEEA01120DFE59EB01120DFEB1
:1026A30082EB01120DFE0FEC01120DFE7DEC011207
:1026B3000DFE8BEC01120DFEAFEC01120DFE04EDCD
:1026C30001120DFE1FED01120DFED1ED01120DFEE3
:1026D30009EE01120DFE4CEE01120DFEAFEE0112DA
:1026E3000DFEB1F001120DFEDBF001120DFED2F171
:1026F30001120DFEDCF201120DFE8CF301120DFE30
:102703006AF401120DFEA2F401120DFEC3F40112CC
:102713000DFE05F501120DFE67F501120DFE71F5B3
:1027230001120DFE81F501120DFEBCF501120DFE25
:102733009CF901120DFE89FB01120DFE6FFD0112C2
:102743000DFE06FE01120DFEA8FE01120DFE9333CF
:1027530000120DFE3E3400120DFEEC3400120DFE8D
:10276300F23500120DFE123600120DFE3B37001239
:102773000DFEF63800120DFE693900120DFE0D3AFA
:1027830000120DFE193B00120DFE843B00120DFEDC
:10279300C03B00120DFE033C00120DFE3E3C001236
:1027A3000DFE803C00120DFE153D00120DFE913D05
:1027B30000120DFE5B3E00120DFE383F00120DFEAF
:1027C300D03F00120DFEEA3F00120DFE1A40001228
:1027D3000DFE4B4000120DFE114100120DFE214172
:1027E30000120DFE704100120DFE7D4100120DFE20
:1027F300864100120DFE044200120DFE60420012DB
:102803000DFEAB4200120DFEC64200120DFEF14258
:1028130000120DFE0E4300120DFE1A4300120DFEB0
:10282300B14400120DFECA4400120DFE4F450012C2
:102833000DFE624500120DFE814500120DFE254678
:1028430000120DFEA64700120DFE594900120DFE9F
:10285300EF4900120DFEF24900120DFE624A00120A
:102863000DFE804A00120DFE174B00120DFE5F4B4A
:1028730000120DFE624B00120DFE284C00120DFEDD
:10288300954C00120DFEBB4C00120DFE464D00127E
:102893000DFE644D00120DFEAA4D00120DFE5E4E9C
:1028A30000120DFEA84E00120DFED74E00120DFEB3
:1028B300344F00120DFE694F00120DFE954F0012AA
:1028C3000DFEA34F00120DFEF04F00120DFE6050DF
:1028D30000120DFEA95000120DFEF55000120DFE60
:1028E300215100120DFE2C5100120DFE4A5100120F
:1028F3000DFE355200120DFE3F5200120DFE7A52AC
:1029030000120DFE8A5200120DFEDE5200120DFE61
:10291300F25200120DFE215400120DFE3654001225
:102923000DFEC45400120DFE095500120DFE9555FF
:1029330000120DFEA05500120DFEE25600120DFE10
:10294300FD5600120DFE495700120DFEB857001236
:102953000DFEF15700120DFE0B5800120DFE6B58C1
:1029630000120DFE0A5900120DFE555900120DFEFC
:10297300255C00120DFED75C00120DFE445D0012B3
:102983000DFE845F00120DFE9C5F00120DFE9F5F23
:1029930000120DFEAB5F00120DFEBF5F00120DFEB5
:1029A300C75F00120DFEFA5F00120DFEFD600012FC
:1029B3000DFE8A6100120DFEFA6100120DFE7C62AB
:1029C30000120DFE3D6300120DFE5C6300120DFE4E
:1029D300FD6300120DFE5A6400120DFE5D640012C9
:1029E3000DFED16400120DFE206600120DFE266757
:1029F30000120DFEB16700120DFECC6800120DFE31
:102A0300946900120DFEC56900120DFEE8690012FB
:102A13000DFEF16900120DFE206A00120DFEB06A70
:102A230000120DFE666B00120DFEDB6B00120DFE35
:102A3300826C00120DFEF76C00120DFE2E6D00125B
:102A43000DFE6C6D00120DFE8BD703120DFE3EAD15
:102A530005120DFE23AD05120DFE80AC05120DFE11
:102A630080AB05120DFE9EAA05120DFE8EA805125F
:102A73000DFE9CA705120DFE3AA705120DFEC0FA26
:102A830004120DFEB6FA04120DFE4BFA04120DFEEB
:102A93009CD405120DFEDFD603120DFE7FF804123F
:102AA3000DFE3DF804120DFE07D603120DFED2D51E
:102AB30003120DFE49F704120DFE1DF704120DFE5D
:102AC300D4F604120DFE15F604120DFEEDF20412F7
:102AD3000DFE91F004120DFE61F004120DFE11F0D3
:102AE30004120DFEABEF04120DFE6AEF04120DFE8D
:102AF3009CEE04120DFE36EE04120DFED5ED04120B
:102B03000DFE75ED04120DFE13EC04120DFEA7EB82
:102B130004120DFEFBEA04120DFEF6EA04120DFE8A
:102B2300DFEA04120DFE9FD503120DFEAAEA04127A
:102B33000DFE8AD503120DFE5FD503120DFEFCB008
:102B430005120DFEC8B005120DFE71B005120DFE83
:102B5300FAAE05120DFE3CE704120DFE39E704122E
:102B63000DFEF7E604120DFE4CAE05120DFEE4E673
:102B730004120DFED9E604120DFEA8E604120DFEA2
:102B8300A0E404120DFE3F8202120DFE13E40412B0
:102B93000DFEAFAD05120DFECFE304120DFEA3E350
:102BA30004120DFED2FE03120DFEA5FE03120DFE4E
:102BB30072FE03120DFE4AFE03120DFEEBFD03121D
:102BC3000DFECBFD03120DFE96FD03120DFE42FA20
:102BD30003120DFE2AF803120DFE14F603120DFE66
:102BE30094F503120DFE40F503120DFE4CF403128F
:102BF3000DFEF4F403120DFE9FDC0500000080FBC4
:102C0300000022E4738F000100981E8700010096E4
:102C13001E350004005C1E25000200601E26000213
:102C230000621E27000200641E280001006E1E2998
:102C33000001006F1E84000400871B860001000151
:102C43001E2A000100701E2B000100711E2C0001C2
:102C530000761E2D000800951B2E000100771E2F05
:102C6300000100781E30000100791E310001007A56
:102C73001E320001009D1B330001009E1B34000126
:102C8300007B1E360001009F1B380001007C1E39AB
:102C9300000100751E83000200941E63000100AA58
:102CA3001B64000100721E65000100731E6D0001AC
:102CB30000AB1B710008008D1B66000100931E43CF
:102CC300000100841E44000200851E4500010087A8
:102CD3001E46000200881E47000800A21B48000190
:102CE300008A1E4B0001008B1E04000100971EA1E9
:102CF3000001009B1E370001009A1E880001009905
:102D03001E3C000100A01B3D0001007D1E49000286
:102D1300008C1E67000100AC1B4D0002008E1E4E8E
:102D2300000100901E4F000200911E3E000100832F
:102D33001E510001007F1E52000100801E5300013E
:102D430000821E54000100A11B00000000000000CF
:102D530001363601010001020100010301000104F3
:102D630001060605020000070100340801000F09EF
:102D73000401010D0100FF0E0800001702000019F5
:102D83000100FF1A0100011B0100FE1C0100081DC8
:102D93000200001F010001200100012102000023A5
:102DA30001000F240200002601000127010008286A
:102DB3000200FF2A0100072B0102402C0100002D15
:102DC3000100012E0100012F0100FF30010B1D3115
:102DD3000800003A0100083B01000F3C0100013DDF
:102DE3000100FF3E04000042040000460400004AC4
:102DF3000400004E04000052040000560400005A70
:102E030004000000000000200101850000010020F3
:102E1300010285000002002001FD84000003002060
:102E230001FE840000040042011F840000050042EB
:102E33000184830000060042011284000007003071
:102E430001FF840000004042015F840000FDFF2178
:102E530001F9842A0400003905621A2A04C80039DA
:102E6300056A1A2A04C9003905661A2A04010221CF
:102E730023331E2A0421022123271E2A042202218E
:102E830023291E2A04200210232B1E2A04250210A4
:102E9300232C1E0103710301030103010301030139
:102EA30003220302030103100300030003000300D2
:102EB300030003000300034203000324030603008B
:102EC300030003040312032503230325032303043D
:102ED300030403000300030003440300030003236C
:102EE3000300036503210035038103000305030089
:102EF30003000300030003250323030302710230CD
:102F03000160021102700201020202020280021039
:102F13000261023A004100630273027202620243D9
:102F2300020002130238000002000204021202002F
:102F33000200020002000204020402370037003CD0
:102F43000244020002390000020002650200023559
:102F53000281020002050282028302000201017162
:102F6300010101010111010101310101010101808F
:102F730001100161013B00140063017301720162DE
:102F83000143010001130106013D01350004011253
:102F930001000100010001000104010401330133B8
:102FA300013C0144013201360000010001650100CA
:102FB3000135008101000105018201830100010344
:102FC3000471040204600411047004020402040185
:102FD30004020410046104000414046304730472FF
:102FE30004620443040004130406040004000404FC
:102FF30004120400040004000400045104640000EB
:1030030004000400044404000400040004000465F4
:1030130004000435048104640005040004830400EF
:1030230004030071003001600011007000310220C0
:10303300035004800010006100000014006300735B
:10304300007200620043000000130006000000004D
:10305300000400120000000000000000000400044F
:1030630000370037003C024400000000000000006D
:1030730000650000003500810000000500000083AA
:1030830000000036000100060000000F00000000F1
:1030930000000000000000000003FFFF0000040325
:1030A300FFFF0000FFFF0FF4010005C4040320002D
:1030B3000100000B000000000000000003010F00EE
:1030C30000000000000000000000000000000000FD
:1030D30000000000000000000000000000000000ED
:1030E300003E196819441978184A196E194A197A51
:1030F30019501978184A196E1956197818000000D2
:10310300005C1978180000000000000000621978C4
:103113001800000000000000000000000000000094
:10312300000000000000000000000000000000009C
:10313300000000000000000000000000001300B4C5
:103143001B1F00BA1B1F80C01B00001A1C01001AA2
:103153001C0200601B02805A1B0300661B04006CE8
:103163001B0480721B0500781B0600841B3100962C
:103173001B33009C1B3400A21B3600A81BFFFF005F
:10318300000A000000020000000400000008000024
:10319300001000000020000000400000008000003C
:1031A300000001000000020000000400000008000D
:1031B3000000100000002000000040000001D023A8
:1031C30006002408FA230B1E24101E2102D6230511
:1031D300EE2307DC230CB8230DC42364141FFF0064
:1031E30000030003000400080010001F003E007BE2
:1031F30000F600EC01D703AF075D0FB91E713D0068
:103203000007ECFDFDFDECDCDCCCBCACAC9C9C8C89
:103213007C7C6C6C5C5C5C4C4C3C3C2C2C1C1C0324
:10322300EAF5E5D5D5C5B5A5959585857575656526
:10323300555545453535252515150500160F00004F
:103243000B150B020002220F3300000E0F5A6967A1
:10325300426565416C6C69616E63653039000000DD
:1032630000000000000000000000000000D0D1D2E8
:10327300D3D4D5D6D7D8D9DADBDCDDDEDF00034DF6
:103283004C4651181A250502303016181920231AF6
:103293001C1E30003C40423A3F3F392F473000016B
:1032A3001916181616182303003030171819213071
:1032B3001B1D1F300C0E020B040B0A0708000F0224
:1032C300040201010101090200BE040AE80300002F
:1032D300E8030000010003007F0000000E00040467
:1032E300080405030A0C101208091E0C28FF03101A
:1032F3000209033C0C050815001EE4F0A3F0A3F03B
:10330300A3221232FDF022901CF31249091227BAAC
:103313002212331822E0F508E4F509F50AF50B2229
:10332300E824FBF582E934FFF58322E82411F582D2
:10333300E439F583E022F58312333F22E0F508A355
:10334300E0F50922122A367404120E2E7F08020BAE
:10335300FA7401F0900B5EE0640F227409120E2ED2
:103363007F04020BFAEA2413FAE43FFB122964E90F
:10337300227905122970740622A3A3E024F5C394CD
:103383001322122A42900B7E1268C77A147B002202
:10339300C082C083901CD274AEF0A37427F0A374D0
:1033A300C0F0A37427F0901CD67496F0A37427F092
:1033B300A37490F0A37427F0A374CCF0A37427F044
:1033C300A374D2F0A37427F0A374C6F0A37427F0F8
:1033D300A3747EF0A37427F0901CE274A2F0A3748C
:1033E30027F0A374A8F0A37427F0A3749CF0A3742C
:1033F30027F0A374D8F0A37427F0901CF31252D8CB
:103403006009901CF312490512176A901CF0124CC4
:103413001F7408125F74A3F0901D9CF0901CF5F0CC
:103423007C0BFDF97AF67B1C1216BC7C0B7D0079B4
:10343300007A017B1D1216BC024A7974F712094FF8
:1034430074F7120EE1EAFEEBFF1234D17405124D4C
:103453003D7403F01235E8124D1F2430FCE43FFDA8
:103463008C821234C91234DD6008123CF674FFF00A
:10347300A3F0EE242EE43F1C1CFD8C82F583A3E015
:10348300C0E08A828B831249D1D0E01234DD888276
:10349300898312520C2403F0EE123D00121157746B
:1034A30003F0900B73120C837402120ED91238CAF4
:1034B300120E2EE9F5087007EEFAEFFB12284AA95F
:1034C300087409023D0FF583E08882898322EA129A
:1034D30034D62212541B3FF583221261F4124D2B72
:1034E300E8F0A3E91264CBE02274F012094FEAFE7C
:1034F300EBFF8C0C8D0D890B1235E8F583124D33E0
:103503007410121157E0F508A31234CBF0E824FF2E
:10351300F582E91238DCE508F0E824FEF582E912C9
:1035230038DCE50BF0900B78E0C0E0E824FDF58291
:10353300E91238DCD0E0F0900B77E0C0E0E824FC3F
:10354300F582E91238DCD0E0F0741212115712330D
:103553003B123323E509F0E824FAF8E934FFF9884C
:1035630082F583E508F0EE2404FCE43FFD88088A35
:10357300828B83E0F50E8C828D83E0250EC3950844
:103583001261F4124B59850C82850D83A3A3A3A367
:10359300A3A3A3A3E064037009EE124D0DF0A3E40B
:1035A30080031238E11238E97409F07508F67509D9
:1035B3001C750A007808120E17125CBE120E2E75C7
:1035C30008FF7509FF7808120E1BAC0CAD0D1238FD
:1035D300CA120E2EE9F5087007EEFAEFFB12284A1D
:1035E300A90802334FEA2402FAE43FFB8A8222C08D
:1035F30082C083901D12E0C39408400474078001C5
:10360300E08A828B83F033333354F8F9024A7974B6
:10361300F012094F8A088B09890A8C0E8D0F750CDD
:1036230000A2AFE433F50BC2AF901D0C80451237F7
:1036330014503D12372E64037036E50824F9F5085B
:10364300E50934FFF5098E828F83A3A3E02405FCEB
:10365300A3E03400FDAA08AB09121854E50824FFBF
:10366300F508E50934FFF5097410250CF50C150A66
:10367300123B03126C7CE50A6004EE4F70B0E50B5D
:10368300A2E092AFA2AFE433F50BC2AF901D0C8062
:103693003E1251E58882F5831244598508828509D3
:1036A30083F08A828983123725A3A3E0C0E0E5086B
:1036B30024FFF582E5091238DCD0E0F0E50824FEAA
:1036C300F508E50934FFF509050C150A123B031249
:1036D3003957602112372E640270F1123714EE400D
:1036E300B0124E54A2E550E4850E82850F83740117
:1036F300F0E50A70D7E50BA2E092AF850882850951
:1037030083E50CF0E50824FFFAE50934FFFB0233F7
:103713004F12371AA2E622EE2411F582E43FF58315
:10372300E0221237292212522AA3228E828F83A3E8
:10373300A31249D51259012274F012094F74F312DE
:103743000EE17403121157E9F07402121157EAF0F3
:103753008B0B852182852283E4F004120ED112277C
:1037630060E9F8900B5DE0292437F508FA7B001235
:1037730016CE8A0C8B0DAE0CAF0DEA4F70030238D8
:10378300C1EA2402F50EE43FF50FA808EA28F8E49D
:103793003BF9850E82850F83124255900B5DE0F94C
:1037A300FAC3E49AFA95E0FB850E82850F83E02A3B
:1037B300F50CA3E03BF50D900B5B12333B750A0050
:1037C3007808120E17E9FC7D00AA0CAB0D124C8F82
:1037D300120E2EAC21AD227401121157E0F9E50C43
:1037E30024FFFAE50D34FFFB1227668A828B83E4FC
:1037F300F0E50BC454F0F9901D9DE0C4333354C07D
:10380300F8900B57E0A2E0E43313134849440FC088
:10381300E0EA24FFF582EB1238DCD0E0F0EA24FE84
:10382300F50CEB34FFF50D7403121157E0F8740235
:10383300121157E0C454F048850C82850D83F0A81B
:103843000C850E82850F83125F412AC3988E828F67
:1038530083A3A3A3A3F0850E82850F83E8F0A3E5DA
:103863000DF01238E11238E9E4F0740C121157E448
:10387300F075080175091D7808120E17125CBE1247
:103883000E2E852182852283E06009EE240E124EDE
:10389300564408F0122952E9F9E4F508F5097808C5
:1038A300120E1B7406120ED91238CC120E2EE970AA
:1038B30006EEFAEFFB800BEEFAEFFB1216D47A005A
:1038C3007B00740D02334C7903EEFAEFFB12296A85
:1038D300740222EE24FFF582EF34FFF58322EE1209
:1038E30034D6E4F0A322F01238EE22EE125BE13F6D
:1038F300F5832274F212094F8A0C8B0DA2AFE433C5
:10390300F50AC2AF750800750900901D0C802C12D2
:103913003B135024850C82850D83A3A3125CD18EA7
:10392300828F83A3A3124905122958E9600A123B27
:103933000EC2E6F08E088F09123B0312395770CF7F
:10394300E508450960061239F0D2E6F0E50AA2E07F
:1039530092AF800DE0FEA3E0FFEE4F227402120E41
:103963002E7F06020BFA74F012094F8A0E8B0F8C0E
:103973000C8D0D750A00A2AFE433F50BC2AF7E00C8
:103983007F00901D0C8010AE08AF091239E8124E6B
:1039930054D2E7F01248E31248F760341239F0A228
:1039A300E750F1850882850983A3A3120C83AC0C2D
:1039B300AD0DAA0EAB0F12295E7402120E2EE96032
:1039C300D3EE4F60C2123D8A7006123A02D2E4F07F
:1039D300E50BA2E092AFEE4F6006122844750A0190
:1039E300A90A02334F12371AD2E4F0EE22E5081285
:1039F3005BFB3509F583E022AA82AB831218548E50
:103A0300828F83A3A31249D5E02274F212094F7463
:103A1300FE120EE1750C00750D008521828522834F
:103A2300E4F0A3F0A2AF33F50AC2AF901D0C126C01
:103A33007C802BEE24FBF582EF34FF123339780CB4
:103A4300120E1B123AF1120E2EEEFCEFFDAA21AB61
:103A5300221216F2AE08AF09901D12E014F0EE4FD9
:103A6300602B123B13501DEE240BF8E43FF98882C0
:103A7300F583E024FFF0A3E034FFF088828983120A
:103A830052D860AF8E0C8F0D123B0380A1E50AA2C2
:103A9300E092AF901D12E0602C900B5EE0640F602B
:103AA30006901D9CE0701E7AEA7B1C122A429084C9
:103AB300F5120C7F7AEA7B1C124B01120E2E800545
:103AC30074F01249E2AA21AB221216F88A088B0974
:103AD300AE08AF09EA4F6013122772123B0EA2E23F
:103AE3008E828F83A350D974E980D702395FEEFCAD
:103AF300EFFD7A0C7B1D1217047402228E0A8F0BC2
:103B0300EE24FBF582EF34FFF58322EE12371B22FE
:103B130012371AA2E72274F712094FEAFEEBFF12DB
:103B230027721249CE122C06E96401900B7A700AAF
:103B3300E02401F8A3E034008003124954F9125041
:103B430056124B59901D12E0701F900B5EE0640FEC
:103B530070177AEA7B1C122A429084F5120C7F7A42
:103B6300EA7B1C124B01120E2EA8A8C2AF901D12A5
:103B7300E004F0E8A2E78004E508A2E092AF024F78
:103B83006474F712094FEAFEEBFFEA123BBAF01234
:103B93002772EEFCEFFD7A0C7B1D1216FEA8A8C25D
:103BA300AF901D121244A8900B5EE0640F7005796C
:103BB3000812290A024F6412371BC2E42274F71257
:103BC300094F74EA120EE1EAFEEBFF900B57E06037
:103BD3002A8521828522837401F0121157E4123C55
:103BE300751211571239FBC0E0740A121157D0E055
:103BF300125F61740B1211571251C17416023D0FFB
:103C030074F712094FEAFEEBFF122754E9F974DC4B
:103C130069601E74DD69601974E469601474F36982
:103C2300600F74DE69600A74DF69600574DB6970B4
:103C330007EEFAEFFB122910024F6474F712094FD3
:103C430074EB120EE1EAFEEBFF8521828522837479
:103C530006123C75121157AA82AB83121854EE2434
:103C630008FCE43FFD740A1211571251C174150286
:103C73003D0FF0EA2413FCE43FFD74022274F712B3
:103C8300094F74F7120EE1EAFEEBFFEA2430124EFD
:103C930056605DEA123D001211577403F0900B73E6
:103CA300120C83123CF6120C83900B86E0F9740419
:103CB300120ED9EEFAEFFB12275A7404120E2EE9F4
:103CC300F974DC69602374DD69601E74E46960194A
:103CD30074F369601474DE69600F74DF69600A74D9
:103CE300E869600574DB697007EEFAEFFB122910CF
:103CF3000234C4EE242EF582E43FF583221260D20F
:103D0300AA21AB221218547408227403120E2E0235
:103D13004F6474F212094F8A0C8B0D750A00750BF0
:103D2300007508E7A2AFE433F509C2AF901D0C801C
:103D330003123AFF1239576025123B1350F3123D19
:103D43008A70EEEE2432123F21E06870E4780A12A2
:103D53000E1B123AF1120E2E901D12E014F0E5091B
:103D6300A2E092AFEE4F6013EEFAEFFB12277279E7
:103D7300F0EEFAEFFB122910750800A908AA0CABA4
:103D83000D1229100239641238EEE064012274F432
:103D930012094F74F7120EE1EAFEEBFF8A82F583F4
:103DA300A3E064F37003023E2F8A828B83A3E06453
:103DB300DF60798A828B83A3E064E8606F8A828BF9
:103DC30083A3E064DB60651227B4E9F5087055EE60
:103DD300240E124E56604D123E396048740812117B
:103DE30057123E48120C837508FF7509FF780812B5
:103DF3000E1B8E828F83A3A3A3A3A3A3A3A3E0F984
:103E03007404120ED912275A7404120E2EE9F508FF
:103E130074F369600F74DF69600A74E8696005749C
:103E2300DB69700F8E828F83A3E508F0EEFAEFFB58
:103E33001227C002335EEE240FFAE43FFB79091226
:103E430027F6EA4B2274021256C774FFF0A3123E00
:103E53005522125215A3A32274F112094FEAFEEB65
:103E6300FF7508008A82F583A3A3A3A3A3A3123338
:103E73007C40037508E88A828B83A3A3A3A3A3A32F
:103E8300A3A3A3A3E0C3941040057508E880138A95
:103E9300828B83A3A3A3A3A3A3A3A3A3A3E0640FDE
:103EA300600B901D79E0540870037508E8EA240B51
:103EB300123F21A3A3A3A3A3A3A3A3E0C398500DDD
:103EC300EA240B124E56640F60037508E8900B77D3
:103ED300E0F47003A3E0F470037508EC7A237B002D
:103EE3001217648B0BA90B901CF3123F3060278EC3
:103EF300828F83A3A3A982AA83890C8A0D750E00DE
:103F0300780C120E177C237D00901CF3E0FA124C00
:103F13008F120E2E800375081AA908025CB9F58268
:103F2300E43FF583E0F88A828B83A3A322EAF0A31C
:103F3300EBF0EA492274F512094FEAFEEBFF8A829D
:103F4300F583A3A3A3A3A3A3A3A3E0900B5E123FB4
:103F5300C8E0900B79F0EA240B124E56900B5912DD
:103F63003FC8A3E0901D9DF0F912152A901D9DE016
:103F7300600BEE2404124E482406123FBE901D9C93
:103F83001233546004740180027400901CF51266AD
:103F93000C120E177C0B7D007AF67B1C124C8F12D1
:103FA3000E2EEE2418F508E43FF5097808120E17D3
:103FB3007C0B7D007A017B1D024C7CFAE43FFB798C
:103FC300E1121512221265F6A3A3A3A32274F7121A
:103FD300094FEAFEEBFF8A82F583A3E070031233F5
:103FE3000A12617D024F6474F712094FEAFEEBFF78
:103FF300901CF31252D86010901CF3124905901CC8
:10400300F3E4F0A3F012176A8E828F8374081249C7
:10401300E9121DFA024F6474F612094F901D9CE0D9
:104023006010901CF5E0700A124038EA4B600312EE
:10403300284A026277900B59E0FB900B79E0FA90E3
:104043000B5EE0F912276C2274F412094F74E71225
:104053000EE1EAFEEBFF750B018A82F583A3A3A3AE
:10406300A3A3A3A3E0A2E25069EA242BF582E43FD1
:10407300125CCFEA2413FAE43FFB122778E970526B
:10408300908457E064017005750B00804512410A66
:10409300120E177C0B7D007411120ED1124C8F126D
:1040A3000E2E122952E9FA740E120EC988088909D4
:1040B3007808120E1B7508307509007808120E1B5C
:1040C300EE125F2A120C831260C479011233761246
:1040D3000E2E8521828522837410F01260C474022F
:1040E300121157AA82AB83121848EE242B1268BD13
:1040F300740B121157124B59740D121157E50B1211
:1041030063367419023360EE240812661422C082E7
:10411300C083901D9DE060031229C4024A79C082C6
:10412300C083901D9474D2F0A3741CF0A374D6F0D2
:10413300A3741CF0A374E2F0A3741CF0901ED1745A
:10414300C2F0A3742FF0901D7E744EF0A37427F079
:10415300901D177484F0A37427F0901D19748AF0CE
:10416300A37427F0901D79E0440202457DC082C00C
:1041730083EAFCEBFD7903025284C082C083790891
:104183000263F7C082C08374FE120EE1901D1F7498
:1041930032F0A37428F0901D21742CF0A37428F03E
:1041A30080077A0C7B1D1241E2901D0C1252D870CD
:1041B300F1901D0E1252D860097A0E7B1D1241E256
:1041C30080EF901D0CE4F0A3F0901D12F0A3F0A378
:1041D300F0901D2D746EF0A37428F07402801C12ED
:1041E30016F8852182852283EAF0A3EB1241F612A9
:1041F300294022F0AA21AB22227411120E2E024A68
:104203007974F612094FE9FF749629F582E4343282
:10421300F583E493FEFA7B001216CEEA4B6007EABD
:104223002E12425280267A027B001216CEEA4B608F
:104233001774AC2FF582E43432F583E4938A828BCE
:1042430083F0A3741A12461B7A007B000262771272
:104253004B48E81261F1A3A3A3A3E4F022E9FC74A1
:104263000629F8EAA2E0501EE875F00A84E5F0F9A1
:104273006014740A28C399F8E9C394054004740AC6
:1042830028F8740B28F8ECC39413400479148002C3
:104293007906E82979002409F85001097A0A7B0094
:1042A300120653E8F9020DFBC082C083901D79E02A
:1042B3005402600A122A90E96004790180027900AD
:1042C300024A79C082C083901D79E0540260149041
:1042D3001D12E0700A1252D560091242EB500479A4
:1042E3000180027900024A7912332EA2E722C082AA
:1042F300C083908454E0F8901D14E0C398500512D5
:1043030016CE80047A007B00024A79C082C08312F1
:1043130029407900024A79C082C08374FE120EE1FB
:10432300852182852283EAF0A3EB124484A3A3A30D
:10433300A3A3E0600A14605724FE605A0243F4907A
:104343000B5EE0640F6012122916E9700C1248FF2D
:10435300901D1B1249D1122C06900B86E0C0E085FC
:1043630021828522831251F8D0E0124484741412FE
:104373005C15FCA3E0FD7A0E7B1D1216F2A8A8C201
:10438300AF901D141244A8792012290A0241DE12AB
:104393004752741580D9124752A3A3A3A3E06051D7
:1043A300124752123A06C0E0852182852283E02417
:1043B30006F582E43BF583D0E0125C152402F8A3F2
:1043C300E03400F98882F583E02401FAA3E03400A5
:1043D300FB88828983EAF0A3EB125C15124792856E
:1043E30021828522836013124459600512446B4075
:1043F30048AA21AB22122940809212445960F2123A
:10440300446B5021124478FA852182852283A3E0EC
:10441300C8240612474EF874C112540D3432F58382
:10442300E4936A60148521828522831244596408C7
:1044330070BF124478640870B81244781412448C24
:10444300240AC0E08521828522831249D1D0E0125B
:10445300448C0402437212445D22124954C8240658
:10446300F582E438F583E022852182852283124494
:104473005DC3940A22852182852283123729A3E012
:1044830022124496F583888222124496C824061287
:10449300477C22F085218285228312495422A8A8D1
:1044A300C2AF901D13E004F0E8A2E792AF22C082EE
:1044B300C083901D231252D86008124759122C064C
:1044C30080027900024A7974F712094FEAFEEBFF82
:1044D300EA1238EF7401124B07F8A3E0F91234D152
:1044E300124B59EA2435124E56C0E0EA2413F582E2
:1044F300E43FF583D0E0F0EA2436124E56C0E0EAFA
:104503002414F582E43FF583D0E0F0EA2438124E18
:1045130056C0E0EA2418F582E43FF583D0E0F0EAE0
:10452300242FF582E43FF583120C831260D1EA2431
:1045330031124E56F91238D0120E2EE9F5087007D3
:10454300EEFAEFFB12284AA908024F64C082C08327
:10455300122916E96004792080027901024A79C0A0
:1045630082C083EA2411124573D2E0800DEA240D40
:10457300F582E43BF583E022F0A3F0024A79C0829E
:10458300C08312457064017011124615400C8A8273
:104593008B83A3E0F91229108066124606A2E65027
:1045A300128A828B83A3E0F9901D1D1249D1122C2C
:1045B30006804D1245706401700D12461550088A2D
:1045C300828B83743080368A828B83A3E0641B8A58
:1045D300828B83700474228024A3E0700D124570D3
:1045E300F8748B12540D3432800B124570F874AC8E
:1045F30012540D3432F583E4938A828B8312461B63
:10460300024A7912460A22EA2410F582E43BF58332
:10461300E02212460AA2E322F0901D74E0F912167A
:10462300DA2274F712094FE9FE1252D570030247DA
:104633004BEE6014741B6E701AE8125BE139F5835C
:10464300E064057003024723901D16124759A3E443
:1046530002472A74E96E7068E82412F582E439F59A
:1046630083E0700B121E06E9600512479C606179B6
:10467300EE121494901D15124773901D15603A1293
:10468300479F901D15700B12477314F012164A02C0
:10469300474B124791C2E712493A240D12474E6421
:1046A30003700912476C1248F0D2E2F079ED12144C
:1046B30094124784122C06807812475F74E980674E
:1046C30074E16E703E121E06E9605512479C7050ED
:1046D300900B80E0C0E012476C2412F582E438F5B9
:1046E30083D0E0F0900B6FE0C0E0901D1512476897
:1046F300124768D0E0F0900B6FE004F079011216D6
:10470300328045741C6E7018901D15124905901D5A
:10471300251249D1122C06901D15E4F0A3F0802830
:10472300901D1512475FEEF0901D151249051228D2
:104733003812491BE0548060031263E6901D15E4B0
:10474300F0A3F0791012290A024F6412477C2285E4
:104753002182852283A3E0F5838882221247632284
:104763001249D9A32212522622901D151252072252
:10477300125207241212477C22F582E438F583E0B3
:1047830022901D15124909901D191249D522E0F8EE
:10479300A3E0C8241012477C22901D15124922E081
:1047A30054042274F412094F750A00750B00A2AF6A
:1047B300E433FEC2AF1252D560030248991249CEC8
:1047C300122C06E94410F8901D0C800985080A850F
:1047D300090B1248E31248F770030248991239F0A3
:1047E300586870E8780A120E1BAC08AD09123AF546
:1047F300120E2E901D15E508F0A3E50912493A1291
:1048030048F0A2E750030248A0901D13E014F0EE15
:10481300A2E092AF901D15E0240EF8A3E03400F956
:10482300E8FEE9FF8882F583124905901D151244BD
:104833007EF91227FCE9901D10125F748E828F831C
:10484300E05480601812476C241312474EF9121576
:104853004E12476C241412474EF912154212491B8B
:10486300A3E05401605F901D101252D860451249B5
:10487300316040124931F87900901D101249051238
:10488300065BE8C0E012490FD0E012493FC394131E
:1048930040117402800FEEA2E092AF8037901D1298
:1048A30002480F7400C0E0901D16E0C81248DAD029
:1048B300E0800D12490F740112493A1248DA74016B
:1048C300F07903800C901D15124791A2E1B3E433F4
:1048D300F9121632023363241AF582E438F583227F
:1048E300E50824FBF582E50934FFF58322125BFB1F
:1048F30012477F2212333FE508450922852182852D
:10490300228312490922E0FAA3E0FB221252042473
:1049130019F582E438F58322901D151249222212DB
:104923004954C812492A2212541B38F583221252C1
:1049330004241812477C2212494CC82212494CF510
:10494300838882A3A3A3A3E022F0901D15124954E8
:1049530022E0F8A3E02274F712094FEAFEEBFF12FC
:10496300293A124E53A2E3400A123D8A70059084FD
:10497300528003908453E0F9EEFCEFFD7A0C7B1D2B
:1049830012170AE96038EEFAEFFB901D1F1249D1A6
:10499300122C06EE240E124E56540470121244A129
:1049A300EE1234D2A3E05401701E1228448019EE93
:1049B300FAEFFB901D171249D1122C06800A8E8242
:1049C3008F83A374F11249E2024F64901D211249AF
:1049D300D5221249D922E0F8A3E0F5838882221276
:1049E30049E912283822F0EEFAEFFB22024A7274E8
:1049F300F712094FEAFEEBFF7900901D79E05402AC
:104A0300700CEA2433124E565404600279E8901D68
:104A130079E05460700CEA2433124E56540260025B
:104A230079E88A828B83A3A3A3A3E0F8908458E058
:104A3300C398500279E8EA2431124E56700CEA24E6
:104A43002E124E56700479F5800BE9700512282654
:104A5300E9F9E96007EEFAEFFB122910024F64C08F
:104A630082C0838A828B83740DF0121DFA8007C083
:104A730082C083122844D083D082020DFB74F412C7
:104A8300094FEAFEEBFF8A82F583E4F0A3124B079A
:104A930054049084527012E0F8901D13E0C39840C0
:104AA3001279F1122910023363E0F8901D12E0C36A
:104AB3009850EE124B0DA3E054016037EA243712ED
:104AC3004E56C394054033EA2433124E56540570B0
:104AD300297A277B1D122A42EE2437F582E43FF51B
:104AE300831233147808120E137A277B1D124B019D
:104AF300120E2EEEFA1254FE80AC79E880A5122A2B
:104B030036740422F0124B0DE022EA2433F582E4DA
:104B13003FF5832274F612094FE9FE2451FAE43477
:104B230000FB1216CEEA4B6015EE8A828B83A3A399
:104B3300A3A3F0EA2451124B48124B5980047A0084
:104B43007B00026277F8E43BF98A828B83A3A3227A
:104B53001268C7901DF1E8F0A3E9F022024A72C07F
:104B630082C083901D307498F0A37428F0A374C896
:104B7300F0A37428F0A3749EF0A37428F0A374A484
:104B8300F0A37428F0A374C2F0A37428F0A374B63E
:104B9300F0A37428F0A374B0F0A37428F0A374CE28
:104BA300F0A37428F0A374D4F0A37428F0A374DAE8
:104BB300F0A37428F0A374E6F0A37428F0A374AAF6
:104BC300F0A37428F0A37492F0A37428F0A3748C58
:104BD300F0A37428F0901D4C74BCF0A37428F0A3C8
:104BE30074E0F0A37428F0A374FAF0A37429F0A37B
:104BF30074ECF0A37428F0A374F2F0A37428F0907B
:104C03001D70E4F0901D73F0901D5C124C1F740234
:104C1300F0901D65124C1F740102457D740AF0A3C8
:104C23007429F0A32274F512094F74F1120EE18571
:104C330021828522837402F07401121157E9F06016
:104C4300047AFF7BFF74021211571256BC75086871
:104C530075091D750A007808120E177C0B7D007408
:104C630007121157AA82AB83124C8F120E2EAA2160
:104C7300AB22121DFA740F8003124C8F120E2E7F7B
:104C830003020BFA7C0B7D007A687B1D1216B0744D
:104C9300032274F712094F74FD120EE185218285F8
:104CA3002283740AF07401121157E9F0740212118D
:104CB30057EA126336023D0D74F612094F74F71268
:104CC3000EE1EAFEEBFFEA124D0D124D3D7402F0C8
:104CD300EA2428FCE43FFDAA21AB22121848EE2463
:104CE30031124D132433125D35120E1B7402120E52
:104CF300D979831A1A1238CE120E2EE9F5087007E5
:104D0300EEFAEFFB12284A0262701234D6740122C3
:104D1300F582E43FF58312333F1251DDF583124DE3
:104D23002BE8F0A3E9F0EE22124D338A828B832223
:104D3300E024FFF8A3E034FFF922F0A3E4F0EA1241
:104D430038EF2274F012094F1267A51210E27808A7
:104D5300790C1207E87808120E137A5F7B1D023371
:104D63004774F412094F74C6120EE1900B5EE064AF
:104D73000F600D852182852283742E1256DB8022DB
:104D83007A567B1D12338512065B88088909E4F580
:104D93000AF50B7808120E137A567B1D124B01127B
:104DA3000E2E743A02336074F512094FEAFEEBFFDC
:104DB3008A82F583A3E0F87078EA2430124E5664B1
:104DC300026007E06403600278E8EA2426F582E4DF
:104DD3003FF58312337E400478E88058E87052EA46
:104DE3002426123FBEEE2431124E482430124E5672
:104DF3006402700EEE24281268BD900B6D124B599D
:104E03008017900B6D74FEF0A304F0EE2428FCE4ED
:104E13003FFD7A647B0B121854EE241B12410D12D2
:104E23000E17124C87120E2EEEFAEFFB122886E9AC
:104E3300F8E8600EE88E828F83A31260D97417128C
:104E43006183024C82FAE43FFB7950121512EE2281
:104E5300EE2410F582E43FF583E02274F612094F45
:104E630074F7120EE1901D73E070377401F0F912BC
:104E730015FCAA21AB2212294C75086875091D7807
:104E830008120E1B7508017509007808120E1B9095
:104E93000B73120C837406120ED97A031233741235
:104EA3000E2E02627274F712094F1250847004A31B
:104EB30074EBF0901D73E0A2E25003C2E2F0E0A2B3
:104EC300E1500512509580098E828F83742A1261F6
:104ED30083024F6474F412094F74FE120EE1124FF1
:104EE3008A1251D0EC85218285228312521FE0F56C
:104EF3000B7015AA21AB227953121512EE2413FA63
:104F0300E43FFB794A12151212410A120E17124C92
:104F130087120E2E1248FFA90B12287A901D73E0F8
:104F2300A2E1500312509C901D73E4F0740202330B
:104F33006074F712094FEAFEEBFF8A82F583A374CC
:104F4300EBF0901D73E0A2E150077A0079EB122891
:104F530080EEFAEFFB1228B68007EEFAEFFB122978
:104F6300B87F01020BFA74F712094F124F8A901D92
:104F730070E4F0901D73F07AFF7BFF8E828F83A322
:104F8300E0F912287A80DA1250D57A5F7B1D122A53
:104F9300422274F712094FEAFEEBFF1228B080BADF
:104FA30074F712094F125112A3A3A3E06004740013
:104FB300800274EB124FE35003C2E2F0E0A2E1502F
:104FC300051250E68011A2E0500D8E828F83742A61
:104FD300F0A374EB126183EEFAEFFB12285C80817D
:104FE3008E828F83A3F0901D73E0A2E22274F612E7
:104FF300094FEAFEEBFF901D73E0D2E1F079011255
:1050030015FC8E828F83A3E07038122952E9FAEEE1
:10501300240DF508E43FF5097808120E1B75080105
:105023007509007808120E1B125056120C83EE24D9
:1050330002FCE43FFD123374120E2EE98E828F833D
:10504300A3F08E828F83A3E060067A00F912288092
:10505300026277EE240BF582E43FF5832274F712A4
:10506300094F1250847004A374EBF0901D73E0A2F7
:10507300E25003C2E2F0E0A2E15003125095024F66
:1050830064EAFEEBFF79011216028E828F83E064DD
:105093002022C2E1F012509C227A008E828F83A3D9
:1050A300E0F91228802274F712094F1250D58E822C
:1050B3008F83A3A3A3A3E060047400800274EB12A4
:1050C3004FE35003C2E2F0E0A2E150031250E602C4
:1050D3004FDAEAFEEBFF79011216027A567B1D12B4
:1050E3002A4222C2E1126607E0A2E4E433FA125034
:1050F3009E2274F712094F12511274EB124FE850AB
:1051030003C2E2F0E0A2E15003125095024F64EAB9
:10511300FEEBFF79011216028E828F83A32274F7AE
:1051230012094F125137024F5D74F712094F125192
:1051330037024F64EAFEEBFF7A567B1D122A42EEDA
:10514300FAEFFB1228DA2274F712094F74EF120EEA
:10515300E1EAFEEBFFEA1260C57A647B0B121842A8
:10516300E960568521828522837409F07401121146
:105173005774EFF01251D07402121157EC12521FF0
:10518300A3A3E0C0E07404121157D0E012520C64E0
:105193000870158E828F83A3A31251F8E0C0E074C8
:1051A30005121157D0E080067405121157E4125FFF
:1051B3006174061211571251C17411023D0FAA8274
:1051C300AB83122982AA21AB22121DFA221251DDCE
:1051D300F5831251EFFCA3E0F922EE1251E5FB88AF
:1051E30082222402F8E43FF9E8FAE92212495488BA
:1051F30082F583E0221252072407F582E438F5830F
:1052030022901D15124954C822125210221252150F
:10521300E022F08E828F83A3A3A3A3221261F11253
:1052230052262212522A22E0F8A3E0F5838882A3B1
:10523300A322C082C0831229C4024A79C082C083D8
:10524300901D907430F0A3741DF0A3744CF0A374FC
:105253001DF0901ECB7460F0A3742FF0A374FEF0C6
:10526300A3742EF0901D7C7474F0A37428F0901D29
:1052730079E0440102457DC082C083EAFCEBFD79FD
:1052830002122928024A7974F612094F74FE120E8B
:10529300E1901D751252D860077A757B1D12294063
:1052A300901D7BE4F09012171252D860208007AA59
:1052B30021AB22122940901D74E0F91216E68B09E6
:1052C300A909852182852283123F3070E27402028C
:1052D3006274901D151268C7E8492274F712094FCA
:1052E300E9FA7B00901D74E0F9121710024F647401
:1052F300F712094F74F0120EE1EAFCEBFDE9FE8AA6
:10530300828B83E0F874B712540D3432F583E4933F
:10531300C0E07401121157D0E0F0640B700DE98AFC
:10532300828B83A3F01229A6025408E0700302546F
:1053330008640C60030253F9741A6E700B74041240
:105343001157E4F0A30253F874041211571256BC18
:10535300EA2432125BC5C0E07403121157D0E01285
:1053630065F2121140740612115712111C8C828DB2
:1053730083A3A3A3A3A3A3A3A3A31268C3740A121F
:105383001157E8F0A3E9125412E054106009852183
:1053930082852283E48013EC2412125BC5F8900B00
:1053A30080E0C398852182852283F0E0C0E0740CFD
:1053B300121157D0E0F0EC2415125BC5C0E0740D58
:1053C300121157D0E0F0EC2416125BC5C0E0740E46
:1053D300121157D0E0F0EC2417125BC5C0E0740F34
:1053E300121157D0E0125412A3E054016008740163
:1053F3001211577411F07402121157EEF074011266
:105403000ED1121DFA7410023D0F28F582E422F02A
:10541300EC12541B3DF58322240EF582E422C08254
:10542300C083901D7BE064037004790180027900DE
:10543300024A7974F712094F901D7BE01254B1743C
:10544300C928F582741E39F583125943C2E7F01255
:1054530054B8A3E493FE25E0FCE433FD74C92CF5B2
:1054630082741E3D125CCFEC4D6005EE901D7BF007
:105473008A828B83E025E0FCE433FDE82CF582E9A6
:105483003DF583E493FCC4540F25E0F8748A125469
:105493000D341DF5831252D87005122994800CEC3B
:1054A300540F1254B81249D1122C06024F6425E04E
:1054B300F8E433F92225E0FCE82CF582E439F5839E
:1054C3002274F212094F74FE120EE1890B8A088BC3
:1054D30009125563125554601A125F6EF50A780863
:1054E300120E171255702402125CC5120E2E12549E
:1054F300FC800312558202395FAA0CEFFB901D74E6
:10550300E0F91216DA2274F012094F74FE120EE15A
:10551300890B8A0E8B0F125563F5081255546027B9
:10552300125F6EA808EA28124252850E08850F09F9
:10553300F50A7808120E17125570125CC3120E2E5C
:105543001254FC79008005125582791A74020233D1
:105553004CFA7B001216CE8A0C8B0DAF0DEA4F224C
:10556300748029F582E43432F583E49322A80B7422
:10557300A112540D3432F583E493FC7D00EA2285B5
:105583002182852283E50BF0791AAA21AB22122905
:105593001022C082C083E9901D7402457D74F61207
:1055A300094F74FE120EE1EAFEEBFFEA542070305D
:1055B3008039A8A8C2AF901D14E0141244AA8A82AD
:1055C3008B831256A9901D771256BC12291C852174
:1055D30082852283E0641560077A777B1D12294058
:1055E3007A0E7B1D1216F8EA4B70C7EF5480700CCD
:1055F3008016901D77EAF0A3EB1256CF901D74E04E
:10560300F91216E6EA4B70EAEE5410600B8521821C
:10561300852283742D1256DBEEA2E0500B85218286
:1056230085228374241256DBEE5402600B8521829B
:1056330085228374251256DBEE5404600B85218288
:1056430085228374261256DBEE5408600B85218273
:1056530085228374281256DBEE5440600D740112C8
:1056630011571256C2742C1256DBEE5480600D741F
:10567300011211571256C2742F1256DB901D751268
:1056830052D8601BA8A8C2AF901D75124905901D82
:1056930075E4F0A31244AAA3EAF0A3E91256CF7A61
:1056A300007B000252D01256AD22E0852182852272
:1056B30083F022A3A3A3A3A3A3EAF0A3EBF022E422
:1056C3001256C722F085218285228322F012291CDB
:1056D3007A777B1D122940221241F612291C22C01F
:1056E30082C083901D77126331687002EB69700783
:1056F300901D77E4F0A3F0024A7974F712094FEA98
:10570300FEEBFFEA4F7003121314A2AFE433F50864
:10571300C2AF8E828F831252D86028E824FBFAE945
:1057230034FFFB901D77125CD1E86C7002E96D7059
:1057330007901D77E4F0A3F08E828F83E4F0A3F04B
:1057430012176A023B7BC082C083901D9E7488F04F
:10575300A37429F0A3749AF0A37429F0A374A0F09E
:10576300A37429F0A37456F0A37428F0A374A6F0CD
:10577300A37429F0A37450F0A37428F0A3745CF00D
:10578300A37428F0901DAC74D6F0A37429F0A3740D
:10579300ACF0A37429F0A374B2F0A37429F0A3743A
:1057A300BEF0A37429F0A374B8F0A37429F0901D7C
:1057B3009DE402457DC082C083900B6DE064FE7062
:1057C30003A3E0F470097C647D0B121848801C8AE3
:1057D300828B83A3A3A3A3A3A3A3A37402F0900B1D
:1057E3006D1268C38A828B83124B59024A79C08235
:1057F300C083900B77C3E094FEA3E094FF40047949
:105803000380027902024A79C082C08312594C8C08
:10581300828D83125901687039740268701C8A8200
:105823008B8312585AE06870298A828B83A312589B
:105833005AA3E068701C7901801A7403687013EC32
:105843002405FC50010DEA2405FA50010B12184EF1
:1058530080027900024A79A3A3A3A3A3E0F88C8270
:105863008D83A3A3A3A3A32274F612094F7E00740E
:105873000A121157E01258F5FF8A828B83A3A3A360
:10588300A3A3A3A3A3E06F706474026F704E8A8214
:105893008B83C082C08388828983A3A3A3A3A3E04D
:1058A300F50888828983A3A3A3A3A3A3E0FBAA0883
:1058B300D083D082E06A7003A3E06B703088828962
:1058C30083A3A3A3E0FA88828983A3A3A3A3E0F914
:1058D300EA6C7002E96D70157E01801174036F70BC
:1058E3000CE82405FCE439FD12184EE9FEEEF9023A
:1058F3006277F8A3E0F98882F58312590122A3E0C5
:105903001313543F540322C082C0838A828B83A320
:10591300A3A3A3A3A3A3A3E064027016900B6D1229
:105923005943687003A3E06970047901800F79001B
:10593300800BEAFCEBFD7A647B0B121842024A7976
:105943001268C78A828B83E0228A828B8312590171
:10595300F82274F012094F74FC120EE1E9852182DA
:10596300852283F07402121157ECF0A3EDF08A0A3A
:105973008B0B7508007402121157E02408125BC5E3
:10598300C0E07401121157D0E0125C15A2E7500871
:10599300750EFF750FFF800A900B73E0F50EA3E001
:1059A300F50F852182852283E0C2E7125C1A542019
:1059B3006007125BE774088004125BE7E4125C1A69
:1059C30054046007125BF274808005125BF274105A
:1059D300125C1A54106006125BCDE4800B900B80AE
:1059E300E0C0E0125BCDD0E0125C1AA2E050037578
:1059F30008205408600674104508F5088A828B83D2
:105A0300A3A3E024FFFEA3E034FFFFEA125BD8C3A5
:105A13009402E0400F640B6009E0148E828F8312BE
:105A23005C0B74034508F508750900900B93E0645B
:105A33000170118A828B83A3A3A3A3E0C39467405D
:105A430003750910852182852283E0F50C750D000D
:105A5300740E780C120FECE50D4509F509E06402AC
:105A6300701B900B78E08E828F83F0900B77E0C0F1
:105A7300E01238D6D0E0F0EE24FEFE801CE0640392
:105A8300701DEE24F9FEEF34FFFF7C877D0BEEFAE9
:105A9300EFFB121854EE24FF1EEF34FFFF8003E0E8
:105AA300602F7401121157E060187414121157E03B
:105AB300650E7004A3E0650F700874404508F5088F
:105AC300800F8E828F83E50FF01238D6E50E125CBD
:105AD300017401121157E0F50C750D00740A780C6E
:105AE300120FECE50D4509F509E064027023740219
:105AF30012115712632C8E828F83F0740212115786
:105B0300123A08C0E01238D6D0E0F0EE24FEFE8050
:105B130020E064037021EE24F9FEEF34FFFF7402EA
:105B2300121157125CD1EEFAEFFB121854EE24FF58
