:020000040000FA
:0600000002109D0205F252
:03001B000206AE2C
:03002B00020E6062
:03004300020D2E7D
:030053000205277C
:030073000207037E
:100083000205860100F0FF0700080000FFFF0000E3
:100093000504000000030001FF32102700000020C8
:1000A300FD000206FFFF1E9F190000000000000074
:1000B30000000000000000E80300000000E8030067
:1000C3000000000F0000000F0000000104010C00FD
:1000D30002027A8401948401040000E618000000FF
:1000E300E8030000FFFF37190188130000E803004D
:1000F3000064006400B801A0BB0D00A0BB0D0002AA
:100103000202070401071E02051E020A0A01010872
:10011300080103B80B02803E0102FEFFE8030A0553
:100123000001FFFF020A011401E0020000000503C1
:1001330001010F0300030003000300030003000396
:10014300000300030005000A00140028004F009E6E
:10015300000000B22A000000004A2A00000000FF4D
:10016300000000FF001210E960461210AD603DE987
:10017300687008F618F618F618F622748067F712F6
:10018300019C090909748067F7221210AD601D12E2
:1001930010E97005191919801A120FC1701F120F77
:1001A300ADC37003E66733191919400718181822ED
:1001B30008080874FFF618F618F618F622120FADA1
:1001C300601712114A702192F012115C70195017C6
:1001D30020F014080808090909E7F61819E7F618C2
:1001E30019E7F61819E7F62212115C60E6E8697060
:1001F3001F0808E62480F608E436F618547FB47F17
:100203000CE654806007F6E418F618F62218182254
:10021300E9C6CC08C6CD08C6CE08C6CFC0E0E8C044
:10022300E0EAC0E0EBC0E009E9F809E7FA09E7FB17
:10023300E6F918E6F8C3EC98ED99EE9AEBC2E7F508
:10024300F0EFC2E795F0500E600CEBCFFBEACEFA6D
:10025300E9CDF9E8CCF8EAA2E7D2E7FAEB33FB13EE
:10026300F5F0EEA2E7D2E7FEEF33FFC5F013A2E706
:1002730030E601B313C5F0C3C0E0C0F07F00C39BF9
:10028300FB605E9418600F401D14601AD0E023F9E0
:10029300D0E0F802036E8AF0E9486003D2F0E4AFDD
:1002A300F0FAF9F8803BEB30E40D89F0EA6003D211
:1002B300F0E4AFF0F9CAF8EB30E30D88F0EF600239
:1002C300D2F0AFF0E4CAC9F8EB54076014FBC3EAF9
:1002D30013FAE913F9E813F8EF135002D2E0FFDB46
:1002E300EDD0E0C0E030E739C3E49FFFF5F0EC98D0
:1002F300FC42F0ED99FD42F0EE9AFE42F0D0E0F9B7
:10030300D0E0F8E5F0607AE923F9EE20E742D8027D
:100313008067C3EF33FFEC33FCED33FDEE33FE8038
:10032300EAEC28FCED39FDEE3AFED0E023F9D0E00B
:10033300F84002801BC3EE13FEED13FDEC13FCEF3C
:10034300135002D2E0FF08B800067F7F74FF802EAF
:10035300EF3350178CF020F00260100CBC000C0D32
:10036300BD00080EBE000408E860DFE933E813FFB0
:10037300EE2313FE4F4D4C8008E95480FFE4FEFD4D
:10038300FCEE33EF33F47004FCFD7E80D0E0FBD051
:10039300E0FAD0E0F8D0E0CFC618CEC618CDC61824
:1003A300CCC6F922001210AD604F1210E96012E7BB
:1003B300548066F6120FC1701112114A703B09097D
:1003C30009F4F618F618F618F622120FAD70151286
:1003D300115C08080860EAE6447FF618768018E4A2
:1003E300F618F62212115C601612114A7012E4F626
:1003F30008F608F608E65480F609090918181822C1
:10040300EAC0E0EBC0E0ECC0E0EDC0E0E687F0A4BA
:10041300FBACF008E687F0A42CFCE435F0FA1809ED
:10042300E687F0A42C4B60027401CA35F0FCE43378
:10043300FB09E687F0D2F7A42CCB35F0FC1908E6CC
:1004430087F0A42BCC35F0FBE433FD0819E687F0E5
:10045300D2E7A42C4ACB35F0CD3400FC09E687F073
:10046300D2E7A42DCC35F0FDE433FA0918E687F082
:10047300D2F7A42CCD35F0CA3400FC08E687F0D2BD
:10048300E7D2F7A42ACC35F07A7E20E70B0ACB33E8
:10049300CBCD33CDCC33CC33CB3350147004ED30D0
:1004A300E00ED2F1E4CD3DCDCC3CCC3B5005DA059A
:1004B300C2F1EB547FC63308E63392F0FBE733090E
:1004C300E733C39A502D2B70190C0D4C4D70151832
:1004D30006E608C333700D20F10AA2F013F6E41800
:1004E300800B4024E4F630F002768018F618F618F4
:1004F300F68024D33B14501074FFA2F013F6187641
:1005030080E418F618F6800FA2F013F618E633030A
:10051300F618ECF618EDF6D0E0FDD0E0FCD0E0FBE9
:10052300D0E0FA22C0E074F11209B5A2AFE433F5CA
:1005330009D2AF85A708AFA1EF5508FE74105E601E
:100543000612141D75A1EF74085E6008121423755A
:10055300A1F78024EFA2E092F0E508A2E082F05038
:1005630017906198E0F8900B46E0C398A2D265D04B
:10057300335002E8F075A1FEE509A2E092AF7F02D5
:10058300020A14C0E074F21209B5A2AFE433FED23A
:10059300AF9061A4E0F8759B00E59158540860089A
:1005A3007591F71214718023E59158541060087502
:1005B30091EF1214778014E591A2E092F0E8A2E0A3
:1005C30082F05007E0C2E0F01215CD9061A3E0F88D
:1005D300E5E9585404600E1215A375E9FB90619385
:1005E300E0A2E640F2EEA2E092AF7F01020A14C05D
:1005F300E074F21209B5A2AFE433FED2AF9061A565
:10060300E0F8E5BF585404600675BFFB1215E5809A
:10061300D4C3E498F8E499F91206558026C3E49A02
:10062300FAE49BFBE920E7E9120655E498F8E4991C
:10063300F922C3E498F8E499F9120655E498F8E42A
:1006430099F9C3E49AFAE49BFB22EB20E7CFE92074
:10065300E7E0B90010BB0008E88AF084F8AAF022AA
:10066300E4FBC8FA22EB70227B10C833C8C933C934
:10067300335007C39AC3DBF280069A50012ADBEAA0
:10068300C833F4C8C933F4C9FA2275F008E4C8338F
:10069300C8C933C933C99AC99B5004C92AC93BD5B0
:1006A300F0ECFBC833F4C8E4C9FA22C0E0C0D0E8D8
:1006B300C0E0E9C0E0C082C083A8F9E8C0E0900AC6
:1006C300B3E0F8743228F582E4340AF583D0E0F01D
:1006D300900AB2E0F8A3E0687006E595900AB5F0D9
:1006E300900AB3E004F0C394804002E4F0A374C61C
:1006F300F0D083D082D0E0F9D0E0F8D0D0D0E0328F
:10070300C0E0C0D0E8C0E0E9C0E0C082C083900B85
:1007130036E0F8A3E0687008539AF7A374018022C7
:10072300C2EA900B36E0F8740128F074B628F5821B
:10073300E4340AF583E0F5F9900B36E0C394804086
:1007430002E4F080AC12079330F0391207D88034FA
:1007530012079320F01430E72B74FFFCFBFA747F2D
:100763008022E4FCFBFA7480801AB48008BC00F297
:10077300BB00EF800F50EBF9E4C39AFAE49BFBE470
:100783009CFCE499C6CC18C6CB18C6CA18C6F92275
:10079300E4C9C608CAC608CBC6D3330308CCC633DC
:1007A30092F0C3947F402E94184019C9B90704CA24
:1007B300CBCC225025C309CA33CACB33CBCC33CCE1
:1007C30033D9F422F4600DC9CCC313CB13CBCA13B2
:1007D300CAD9F6CC22E4FCFBFA2214FCFBFA220869
:1007E3000808EAC0E0EBC0E086F0E7A4FA1809863F
:1007F300F0E7A42AFA180986F0E7A42AFA1809866A
:10080300F0E7A42AFA1986F0E7A4FBE5F02AFA191F
:100813000886F0E7A42BFBE5F03AFA190886F0E71F
:10082300A42BFBE5F03AFA18180986F0E7A4C5F003
:100833002BFBE43AFA1908E7C5F0C6A426F6E5F05F
:100843003BFBE43AFA1886F0E7A4F6E5F00826F64F
:10085300E43B08F6E43A08F6D0E0FBD0E0FA2208DD
:100863000808E630E711120F5D12087A080808C677
:100873004480C618181822181818E9799EC608CAA1
:10088300C608CBC608CCC6C370207996CACBCC7039
:1008930019798ECBCC70137986CC700EF9802ACA65
:1008A30033CACB33CBCC33CC331930E7F2CCCBCAFE
:1008B3003350147004EA30E00DE4CA3ACACB3BCBA0
:1008C300CC3CCC500209C3E913C6CC182313C6CBC6
:1008D30018C6CA18C6F922E4CFC0E0E4CEC0E0E4EB
:1008E300CDC0E0E4CCC0E075F020E626F608E633A0
:1008F300F608E633F608E633F6181818EC33FCED81
:1009030033FDEE33FEEF33FFC3EC9709ED9709EEAA
:100913009709EF97191919400FFFEC97FC09ED9709
:10092300FD09EE97FE191906D5F0BFECF709EDF7AF
:1009330009EEF709EFF7191919D0E0FCD0E0FDD063
:10094300E0FED0E0FF222521C582C0E0E52234FF8E
:10095300C583C0E0E521C3958224F810AF088583E1
:10096300228582218008858322858221D2AFCEF021
:10097300A3E520F0A37808E608F0A3DEFAEFF0A3DE
:10098300E58124FAF8E608F0A3E608F0A3E608F008
:10099300A30808E608F0A3E608F0A315811581D0A3
:1009A300E0FED0E0F8158115811581E8C0E0EEC0C6
:1009B300E022C0D02521C582C0E0E52234FFC583F3
:1009C300C0E0E521C3958224F310AF088583228517
:1009D30082218008858322858221D2AFC8F0A3E9D2
:1009E300F0A3EAF0A3EBF0A37908E709F0A3D8FAA0
:1009F300ECF0A3EDF0A3EEF0A3EFF0A3D0E0F0A3AF
:100A0300D0E0F0A3D0E0F0A3E520F0A3E5F0F0A35D
:100A130022852283852182E0C0E0A3E0F9A3E0FAE6
:100A2300A3E0FBA37808E0F608A3DFFAE0FCA3E069
:100A3300FDA3E0FEA3E0FFA3E0C0E0A3E0C0E0A3CA
:100A4300E0F5D0A3E0F520A3E0A3F5F010AF08850F
:100A530083228582218008858322858221D2AFD09B
:100A630082D083D0E0F8D0E032121135B90003020E
:100A73000AABE490050178D279178002F0A3D8FC81
:100A8300D9FA7AD27B1B90008678E379018015E44A
:100A930093A3AD82AE838A828B83F0A3AA82AB83B6
:100AA3008D828E83D8E9D9E77582897583E37404CF
:100AB300120DF17582B57583277400120DF10000D4
:100AC3002275F0108E238F24858228858327852124
:100AD30082852283E0CEA3E0CF852882852783EB1E
:100AE300C9EAC8EDCBECCAC3E833C8E933C9EA3372
:100AF300CAEB33CBC3EA9EF526EB9FF525B350042F
:100B0300AB25AA26EC33CCED33CDD5F0DAAE23AF4B
:100B130024221210AD601C1210E9601712115C70D0
:100B23000712114A7001D322C0D012114A7006D0A5
:100B3300D0B322C32233D0D0501430E0F6C3E796AB
:100B43000809E7960809E7960809E796B32220E023
:100B5300D5E6970809E6970809E6970809E697B3E3
:100B630022D083D082ECC0E0EDC0E0E493A3FCE4A8
:100B730093A3FDED4C600D120C3CEC24FFFCED3413
:100B8300FFFD80EFE493A3FCE493A3FDED4C600D24
:100B9300120CD9EC24FFFCED34FFFD80EFD0E0FD17
:100BA300D0E0FCE493A3C0E0E493C0E022D083D080
:100BB30082E9C0E0E493A3C386F0C5F095F0F90899
:100BC300E493A386F0C5F095F0700BE493A3C39967
:100BD3004005E9048002A3E475F002A42582F582AE
:100BE300E5F03583F583D0E0F9E493A3C0E0E49323
:100BF300C0E022852283852182E0A3FEE0A3F520C5
:100C03007808E0A3F608DFFAE0A3FFE0A3C0E0E082
:100C1300A3C0E0E0A3C0E0E0A3C0E0E0A3C0E01015
:100C2300AF088582218583228008858221858322DE
:100C3300D2AFD083D082020DF7C0E0C3E49396080D
:100C43007401939618400FE4936670080874019337
:100C5300661870007019A3A3C3E4939608740193F4
:100C63009618A3A3400DD0E0D0E0D0E0020BA0A3E0
:100C7300A3A3A3A3A3D0E02274048004740280007E
:100C8300CCC0E0EDC0E0E521C39CCCAD2250011DFA
:100C930010AF068C218D2280068C218D22D2AF12BB
:100CA3000D73D0E0FDD0E0FC2274028000CCC0E0E4
:100CB300EDC0E0E521C39CCCAD2250011D10AF0671
:100CC3008C218D2280068C218D22D2AF120D51D022
:100CD300E0FDD0E0FC22C0E0C0F088F0E493667051
:100CE300080874019366187000A8F0A3A3700BD0D2
:100CF300F0D0E0D0E0D0E0020BA0A3A3D0F0D0E08E
:100D030022D083D082CCC0E0E493A36006120D947A
:100D13001470FAE493A36006120EF31470FAD0E091
:100D2300FCE493A3C0E0E493C0E022C0E074F212B9
:100D330009B5A2AFE433FED2AFC2C0E5D1A2E450FD
:100D430003121381EEA2E092AF7F01020A14CAC01C
:100D5300E0E493A3C582CCC582C583CDC583F0A34C
:100D6300C582CCC582C583CDC583DAE5D0E0CA226E
:100D7300CAC0E0E0A3C582CCC582C583CDC583F0DC
:100D8300A3C582CCC582C583CDC583DAE6D0E0CACC
:100D930022C0E0E493A3D39C5010E493A3C39C40EC
:100DA3000AD0E0D0E0D0E0020D21A3A3A3D0E0223B
:100DB300C008C3E096F50808A3E096420808A3E03C
:100DC30096420808A3E09645087001D3D008227024
:100DD30009080808226016181818C6C333C608C6BF
:100DE30033C608C633C608C633C6D5E0EA22C09F59
:100DF300F59FE473D09F22D083D082C09FE493C039
:100E0300E0740193C0E0740293F59F227404800A96
:100E130074038006740280027401C0E0F404120EAD
:100E230045D0E01210F82200C0D0252110AF08F5FC
:100E330021500C05228008F52150020522D2AFD0A3
:100E4300D0222521F58210AF08F521400C15228010
:100E530008F52140021522D2AF85228322C0E0C0CB
:100E6300D0E8C0E0A8A8D2AFC2C7E8A2E792AFD04B
:100E7300E0F8D0D0D0E032BB0102E722C082C083C9
:100E830089828A83BB0003E08002E493D083D0820B
:100E9300226016080808C6C313C618C613C618C6A8
:100EA30013C618C613C6D5E0EA222521F8E4352275
:100EB300F9222521FAE43522FB222521FCE43522FF
:100EC300FD22C3E0C696F608A3E0C696F608A3E0A3
:100ED300C696F608A3E0C696F622252110AF08F5BC
:100EE30021400C15228008F52140021522D2AF22A1
:100EF300C0E0E493A36C7009D0E0D0E0D0E0020D31
:100F030021A3A3D0E022E76670100809E766700A00
:100F13000809E76670040809E76622C3E09608A398
:100F2300E09608A3E09608A3E096A2D265D0332208
:100F3300C3E7960809E7960809E7960809E796A222
:100F4300D265D03322E066701008A3E066700A0809
:100F5300A3E066700408A3E06622181818E4C39699
:100F6300F608E496F608E496F608E496F622C3E457
:100F730093960874019396087402939608740393E6
:100F83009622C3E096F008A3E096F008A3E096F05B
:100F930008A3E096F022C3E697F60809E697F60859
:100FA30009E697F60809E697F622191919E709479A
:100FB300097009E727097005E733F4220922181895
:100FC30018E60846087009E626087005E633F42299
:100FD3000822E026F008A3E036F008A3E036F00884
:100FE300A3E036F022E026F608A3E036F608A3E0F5
:100FF30036F608A3E036F622E627F60809E637F6C2
:101003000809E637F60809E637F622700422600D70
:1010130018C6C333C608C633C6D5E0F41822E6574C
:10102300F60809E657F60809E657F60809E657F6FB
:1010330022E056F008A3E056F008A3E056F008A318
:10104300E056F022E647F60809E647F60809E647C0
:10105300F60809E647F622E056F608A3E056F60836
:10106300A3E056F608A3E056F622C6F4C608C6F473
:10107300C608C6F4C608C6F4C622C3E09608A3E0B1
:101083009608A3E09608A3E09622C3E7960809E72B
:10109300960809E7960809E7962275D00075813FFF
:1010A30075210175220500020A6CE6084608C31380
:1010B3004608336002E633F422600C08C6C313C645
:1010C30018C613C6D5E0F422E0F608A3E0F608A399
:1010D300E0F608A3E0F622E6F008A3E6F008A3E6AC
:1010E300F008A3E6F022E7094709C3134709336071
:1010F30002E733F422CAC0E0E6F0A308DAFAD0E04C
:10110300FA22E8F0A3E9F0A3EAF0A3EBF022E0FA75
:10111300A3E0FBA3E0FCA3E0FD22EAF0A3EBF0A332
:10112300ECF0A3EDF022E0F8A3E0F9A3E0FAA3E0EA
:10113300FB22E5C754F84401F5C77901222521F5BF
:1011430082E43522F58322E72719471947194722F5
:10115300C2AF75D69F02000022E62618461846182D
:101163004622120DFA1AD402120DFA63D702120D97
:10117300FACAD902120DFA76DA02120DFAA6DA02C7
:10118300120DFA06DB02120DFA9ADB02120DFA4B6C
:10119300DC02120DFA9CDC02120DFAE0DC02120DE5
:1011A300FA7ADD02120DFAEADD02120DFA19DE02F5
:1011B300120DFA1FDF02120DFA49DF02120DFA9D1A
:1011C300DF02120DFA71E002120DFA9FE202120D14
:1011D300FA4DE302120DFABAE502120DFA3FE602E6
:1011E300120DFA42E902120DFA76EB02120DFAB26F
:1011F300EB02120DFA0BED02120DFA1EED02120DA7
:10120300FA5BED02120DFA24EF02120DFADBF00283
:10121300120DFA57F102120DFA8AF102120DFAB801
:10122300F102120DFAF6F102120DFA33F402120D65
:10123300FA52F402120DFA97F402120DFA2DF50286
:10124300120DFA79F502120DFA0DF602120DFAE6F5
:10125300F602120DFA42F702120DFAA0F702120D6E
:10126300FA13F802120DFA57F802120DFAAFF80248
:10127300120DFAD1F802120DFA61F902120DFAF207
:10128300F902120DFA3EFA02120DFA6AFA02120D6F
:10129300FAABFA02120DFA41FC02120DFA2DFD020D
:1012A300120DFA08FE02120DFA8AD304120DFABDCA
:1012B300D304120DFADDD304120DFA04D404120D73
:1012C300FA31D504120DFA52D504120DFA1AD604C6
:1012D300120DFA6BEF04120DFA70EF04120DFAA35C
:1012E300EF04120DFA8DE104120DFA54E204120D0B
:1012F300FA66E204120DFAF5EF04120DFA06F00491
:10130300120DFA20F004120DFAF27F00120DFAE723
:10131300FF02120DFAB4ED04120DFAC4ED04120D1E
:10132300FAD9ED04120DFA22EE04120DFAE2FE02CE
:10133300120DFA66FF02120DFACEFF02120DFAEB3E
:10134300FF03120DFAFDCC04120DFA0BCD04120D9E
:10135300FA84CD04120DFA5DCE04120DFA20D004E6
:10136300120DFA2FF004120DFAFDAE04120DFA69F4
:10137300AF04120DFA0CB004120DFA81B104120D70
:10138300FAE8B104120DFA35B204120DFA8EB20462
:10139300120DFA12B304120DFA47B304120DFA65D3
:1013A300B304120DFAEBB304120DFA6EB404120D6A
:1013B300FA7BB404120DFA8E7A00120DFABA7A008F
:1013C300120DFA247D00120DFA647D00120DFAA0AD
:1013D3007D00120DFAB47D00120DFACD7D00120DC1
:1013E300FABF7E00120DFA727F00120DFA867F009B
:1013F300120DFA77E504120DFA9BE504120DFAB407
:10140300E504120DFAF2E504120DFA22E604120DB8
:10141300FA4FE604120DFAB5E604120DFAB8E60423
:10142300120DFAC2E604120DFACFE604120DFAA960
:10143300DC04120DFAC9DC04120DFA08DD04120DE6
:10144300FA26DD04120DFA41DD04120DFAA7DD04BC
:10145300120DFAB3DD04120DFA10DE04120DFA1F99
:10146300DE04120DFA43DE04120DFA04DF04120D3A
:10147300FA11DF04120DFA22DF04120DFA3DED0416
:10148300120DFA85ED04120DFAB1ED04120DFADC1A
:10149300B404120DFA30B604120DFA3EB604120D5E
:1014A300FA51B604120DFA66B604120DFA7BB604AD
:1014B300120DFA8EB604120DFA0AB704120DFA6F62
:1014C300B704120DFA05B804120DFADEB804120DB2
:1014D300FAEEB804120DFAFDB804120DFA62FF0118
:1014E300120DFA86FF01120DFAAEFF01120DFAD6A4
:1014F300FF01120DFA96FD03120DFABDFD03120D45
:10150300FADBFD03120DFA4AFE03120DFAA6D60406
:10151300120DFABFD604120DFACBD604120DFADF60
:10152300D604120DFAFDD604120DFA07D704120DD4
:10153300FA11D704120DFA24D704120DFAAED70408
:10154300120DFA23D804120DFA57D804120DFAA576
:10155300D804120DFAF2D804120DFA0DD904120DA3
:10156300FA17D904120DFA3DD904120DFAA2D904BF
:10157300120DFA8DEC04120DFAAFEC04120DFA936E
:10158300F004120DFA179504120DFA439504120D87
:10159300FA609504120DFA739504120DFA8E9504F0
:1015A300120DFAE89504120DFA169604120DFA2A92
:1015B3009A04120DFA889B04120DFABA9B04120DB9
:1015C300FA1D9C04120DFAA29D04120DFACA9D0481
:1015D300120DFADF9D04120DFAEF9D04120DFA2F7E
:1015E3009E04120DFA719E04120DFA819E04120DCF
:1015F300FA6FE904120DFA89E904120DFAB1E9044C
:10160300120DFACAE904120DFAEEE904120DFA0CEE
:10161300EA04120DFA23EA04120DFA51EA04120D38
:10162300FA6CEA04120DFAB1EF04120DFA74C9044C
:10163300120DFA84C904120DFA89CA04120DFABBF9
:10164300CA04120DFAEBCA04120DFA0ECB04120DE2
:10165300FA25CB04120DFA5FCB04120DFAC4CB04A6
:10166300120DFA06CC04120DFA4DCC04120DFA7ABF
:10167300CC04120DFAA5CC04120DFAD9E604120D0E
:10168300FAEBE604120DFAFFE704120DFA02E8047E
:10169300120DFA9FEB04120DFAD5EB04120DFAEDBD
:1016A300EB04120DFA2FEC04120DFA3FEC04120DA9
:1016B300FA83EC04120DFA0BA804120DFA4EA804D7
:1016C300120DFAB3A804120DFAD2A804120DFA747B
:1016D300A904120DFA7DA904120DFACEA904120D64
:1016E300FAF7A904120DFA04AA04120DFA76AA0451
:1016F300120DFA04AB04120DFA49AB04120DFA826F
:10170300AB04120DFAE7AB04120DFA10AC04120D80
:10171300FA87AC04120DFAD6AC04120DFA13AD0419
:10172300120DFA48AD04120DFA5AAD04120DFA6CFB
:10173300AD04120DFA8BAD04120DFA94AD04120D23
:10174300FA50AE04120DFA93AE04120DFAD1AE04A0
:10175300120DFA9A7F00120DFA2FE804120DFA50B7
:10176300DF04120DFA85DF04120DFACDDF04120D2A
:10177300FA26E104120DFA66DE03120DFA8CDF037A
:10178300120DFAC8DF03120DFA86E103120DFAB443
:10179300E103120DFA1EE403120DFA5EE403120DC7
:1017A300FA00E603120DFA96E603120DFAF0E603C9
:1017B300120DFA80E703120DFAC4E703120DFA06BD
:1017C300E803120DFA6BE903120DFAEBEA03120DAB
:1017D300FA2CED03120DFA5AED03120DFA86ED03FE
:1017E300120DFA8FED03120DFAECED03120DFA85CB
:1017F300EE03120DFA9CF103120DFA22F203120DFD
:10180300FAA0EE04120DFAB6EE04120DFAE0C104CA
:10181300120DFAF6C104120DFA9AC204120DFAD986
:10182300C204120DFAF6C204120DFA27C304120DF4
:10183300FA74C304120DFAA8C304120DFAE3C30425
:10184300120DFAD8C504120DFA9FEA04120DFAFE1E
:10185300EA04120DFA3CEB04120DFA7DEB04120DAF
:10186300FA93C101120DFA9FC101120DFA01C201CF
:10187300120DFA0BC201120DFA9AC201120DFAD619
:10188300C201120DFACDC301120DFA2AC401120DC1
:10189300FAB8C401120DFA09C501120DFA89C5017E
:1018A300120DFA4BC701120DFA50C901120DFA4A73
:1018B300CA01120DFA7CCB01120DFACECD01120D25
:1018C300FA11CF01120DFAB6CF01120DFA69D40144
:1018D300120DFA5FD501120DFAF5D501120DFA1AA0
:1018E300D601120DFAB7D601120DFAD4D601120D94
:1018F300FAF4D601120DFA62D701120DFA7FD7015D
:10190300120DFAADD701120DFA45D901120DFA667F
:10191300D901120DFA0CDA01120DFA54DA01120D83
:10192300FAB2DA01120DFA55DB01120DFABADB0134
:10193300120DFA19DC01120DFACFDC01120DFA3E79
:10194300DD01120DFA79DD01120DFAEDDD01120D43
:10195300FA4EDF01120DFAE5DF01120DFA84E00100
:10196300120DFAE0E201120DFA42E301120DFACF71
:10197300E401120DFAFDE401120DFA20E701120D44
:10198300FACAE901120DFADDEA01120DFAB19E0459
:10199300120DFACA9F04120DFA4DA104120DFA6733
:1019A300A104120DFA7AA104120DFA99A104120DE1
:1019B300FA62A204120DFAC7A304120DFAA7A40433
:1019C300120DFA11A504120DFADCA604120DFAE5A4
:1019D300C504120DFAA0C604120DFA06C704120DAF
:1019E300FA27C704120DFA02C804120DFA44C903F8
:1019F300120DFA73C903120DFAEBC903120DFAFAA9
:101A0300CA03120DFA56CB03120DFAC3CC03120DFF
:101A1300FADFCC03120DFA31CD03120DFA6FCD03A9
:101A2300120DFA82CD03120DFADACD03120DFA9CD0
:101A3300CE03120DFA18CF03120DFA4FCF03120D76
:101A4300FA87CF03120DFA0FD103120DFAEED10369
:101A5300120DFA3CD303120DFA1FD403120DFAAB85
:101A6300D403120DFAEBD403120DFA0AD503120DA7
:101A7300FA55D503120DFA75D503120DFA0ED603D6
:101A8300120DFA94D603120DFAEFD603120DFA2FA4
:101A9300D703120DFAC5D903120DFADEDA03120DBC
:101AA300FA24DB03120DFA19DC03120DFA41DC03ED
:101AB300120DFA44DC03120DFA4EDC03120DFA6A1E
:101AC300DC03120DFAE4DC03120DFA1DDD03120D23
:101AD300FA49DD03120DFA70DD03120DFA94DD03EA
:101AE300120DFA05DE03120DFA18DE03120DFA4782
:101AF300DE03120DFA2BEE04120DFA37EE04120D6B
:101B0300FA6BEE04120DFAF57F00120DFA15B3030A
:101B1300120DFA38B303120DFA85B403120DFACE7F
:101B2300B403120DFA3AB503120DFA98B503120D68
:101B3300FA9BB503120DFAECB503120DFA61B60365
:101B4300120DFAE6B603120DFAE9B603120DFA6A9C
:101B5300B703120DFAABB703120DFA97BB03120DBD
:101B6300FA41BD03120DFA91BD03120DFA18C10318
:101B7300120DFA4BC203120DFAC5C303120DFA621A
:101B8300C403120DFA4DC503120DFAA2C703120DB9
:101B9300FAF2EE01120DFA9CEF01120DFA07F001B1
:101BA300120DFA22F001120DFAA7F001120DFAE458
:101BB3009004120DFA48F101120DFAAFF101120D62
:101BC300FA2EF301120DFA5DF401120DFAE5F40198
:101BD300120DFA6ED302120DFA9BF701120DFA3FA2
:101BE300F801120DFA10F901120DFACBFA01120DD8
:101BF300FA63FC01120DFAF6FC01120DFA1CFE0148
:101C0300120DFA008003120DFA638003120DFAAB72
:101C13008003120DFAEF8003120DFA4A8103120DAD
:101C2300FAA78103120DFA61D202120DFA6482033C
:101C3300120DFABE8203120DFA3C8403120DFABC94
:101C43008403120DFA178503120DFA318503120D61
:101C5300FA528503120DFAAC8503120DFA28880394
:101C6300120DFA478803120DFA378903120DFA6A27
:101C73008A03120DFAE98A03120DFA258B03120D5A
:101C8300FA948B03120DFA498C03120DFA218E0379
:101C9300120DFA288F03120DFAA09003120DFA9673
:101CA3009203120DFA0C9503120DFAE69603120D28
:101CB300FAA79703120DFA1F9803120DFA36980329
:101CC300120DFA2D9903120DFA219A03120DFA90AF
:101CD3009A03120DFAADD904120DFA04DB04120DA6
:101CE300FAC3DB04120DFA2BDC04120DFA65D004DF
:101CF300120DFA80D004120DFAC4D004120DFAEAC0
:101D0300D004120DFA11D104120DFA29D104120DC7
:101D1300FACBD104120DFAE0D104120DFA03D30465
:101D2300120DFA0CD304120DFA15D304120DFA1E78
:101D3300D304120DFA28D304120DFA2EB904120D8E
:101D4300FA3ABD04120DFA3FBD04120DFA41BD0467
:101D5300120DFA04E404120DFA67F004120DFA0CE2
:101D6300EF04120DFA1CEF04120DFAA8BD04120DB4
:101D7300FA35AC02120DFA68AC02120DFAD4AC02B9
:101D8300120DFA6FAD02120DFA0CAE02120DFA51DA
:101D9300AE02120DFA73AE02120DFA8CAE02120DE0
:101DA300FAB2AE02120DFAD4AE02120DFA12AF025B
:101DB300120DFA56AF02120DFA78AF02120DFADACB
:101DC300AF02120DFAA1B002120DFA58B102120DB0
:101DD300FACAB102120DFA95B202120DFAE8B20272
:101DE300120DFA4EB302120DFA88B302120DFADA8B
:101DF300B302120DFA48B402120DFAB3B402120D73
:101E0300FAB6B402120DFA37B502120DFACEB502C4
:101E1300120DFA4EB602120DFA6DB602120DFAD178
:101E2300B702120DFADEB702120DFAEAB802120D6A
:101E3300FAF7B802120DFA00B902120DFAD8BA0273
:101E4300120DFAF2BB02120DFA6BBC02120DFADD8F
:101E5300BC02120DFAFFBC02120DFA93BD02120D61
:101E6300FA67BF02120DFA3EC302120DFA52C30201
:101E7300120DFA62C302120DFA6CC302120DFA7547
:101E8300C302120DFA7EC302120DFA88C302120DA9
:101E9300FAB5C302120DFADEC302120DFAE9C30248
:101EA300120DFA0DC402120DFA31C402120DFA9B7F
:101EB300C402120DFAE1C402120DFAFEC402120D9D
:101EC300FA7BC502120DFAB2C502120DFAF1C50270
:101ED300120DFA3EC602120DFAC4C602120DFA9290
:101EE300C802120DFA15C902120DFAF9C902120D30
:101EF300FA60CC02120DFAB9CC02120DFA03CD022C
:101F0300120DFA5ECE02120DFA93CE02120DFAE50D
:101F1300CE02120DFA9ACF02120DFA49D002120D17
:101F2300FA86D002120DFA1BD102120DFA87D102E2
:101F3300120DFAD12D00120DFA032E00120DFA31F3
:101F43002E00120DFA073000120DFAE73000120DC1
:101F5300FA3F3100120DFA7A3200120DFAC632003E
:101F6300120DFAEF3500120DFAE23800120DFA32B3
:101F73003A00120DFAC83A00120DFAD43A00120DC3
:101F8300FA063B00120DFA893C00120DFA3A3E00A4
:101F9300120DFACE3E00120DFA113F00120DFA8F08
:101FA3003F00120DFAAC3F00120DFADC3F00120D98
:101FB300FA114000120DFAE14000120DFA8A4100B5
:101FC300120DFA104400120DFA304500120DFA1BDF
:101FD3004600120DFA9D4600120DFAD14A00120D69
:101FE300FA0E4B00120DFA664B00120DFA994B00D4
:101FF300120DFA034C00120DFA394C00120DFAC4FB
:102003004C00120DFA1C4D00120DFAF34D00120D87
:10201300FAAC4E00120DFA474F00120DFA4F520060
:10202300120DFA6B5300120DFA0E5700120DFA023D
:102033005800120DFA055800120DFA345800120D0B
:10204300FA3A5A00120DFA135B00120DFA565B00AE
:10205300120DFAAC5C00120DFAEB5C00120DFA746F
:102063005D00120DFAA85D00120DFA6D5E00120DEF
:10207300FA856000120DFAF66000120DFA3661005F
:10208300120DFAC46100120DFAE66200120DFAA8ED
:102093006300120DFAAF6500120DFAC76500120D49
:1020A300FADB6500120DFA136600120DFA416600A1
:1020B300120DFAC06700120DFAE56800120DFA421C
:1020C3006900120DFAF46900120DFA1B6A00120D71
:1020D300FAE26A00120DFA7A6B00120DFAA06D0093
:1020E300120DFAD56D00120DFA386E00120DFA6753
:1020F3006F00120DFA0F7000120DFA407000120DEE
:10210300FA587000120DFAE77000120DFA9B730073
:10211300120DFA737500120DFA8F7500120DFAABDA
:102123007500120DFA797600120DFA6C7A00120D11
:10213300FA9C8401120DFACE8401120DFABD8801B6
:10214300120DFA098901120DFA4F8901120DFAF1E4
:102153008901120DFA4D8A01120DFA928A01120DAC
:10216300FAD98B01120DFAED8C01120DFADC9001F4
:10217300120DFA609101120DFA6D9201120DFAC956
:102183009201120DFAB99401120DFA2E9501120D56
:10219300FA389501120DFA459501120DFA70950161
:1021A300120DFA579601120DFA019701120DFA7FDB
:1021B3009701120DFA9F9701120DFAC89701120D9C
:1021C300FAEA9701120DFA4A9A01120DFA109B01CD
:1021D300120DFA559B01120DFAD29B01120DFA83CF
:1021E3009C01120DFAB59C01120DFAFB9C01120D14
:1021F300FA379D01120DFA879D01120DFADB9D013D
:10220300120DFA319E01120DFA7D9E01120DFAEAAA
:102213009E01120DFA659F01120DFA30A101120DF4
:10222300FA30A201120DFA55A301120DFA94A60178
:10223300120DFAA7A901120DFA64AA01120DFAA848
:10224300AA01120DFA58AC01120DFA6CAC01120D71
:10225300FA76AC01120DFA80AC01120DFA8CAC01C6
:10226300120DFAA8AC01120DFA53AD01120DFA9238
:10227300AD01120DFA9CAD01120DFAA6AD01120DBE
:10228300FA16AE01120DFA61AE01120DFA76AF0124
:10229300120DFAD2AF01120DFA53B001120DFA1258
:1022A300B101120DFA1BB201120DFA4FB301120D57
:1022B300FA3DB401120DFA55B401120DFAB0B4018E
:1022C300120DFACEB401120DFA16B501120DFA3D34
:1022D300B501120DFAD8B501120DFA9EB601120D11
:1022E300FA30B701120DFAAAB701120DFAC4B801F8
:1022F300120DFA71B901120DFA99BA01120DFAE928
:10230300BA01120DFA4DBB01120DFAAFBB01120D4A
:10231300FADDBB01120DFA01BC01120DFA36BC0144
:10232300120DFA67BC01120DFA9ABC01120DFABA2A
:10233300BC01120DFA22BD01120DFA16BE01120DD7
:10234300FA71BE01120DFA9ABE01120DFA22BF01F3
:10235300120DFAA5BF01120DFAD0BF01120DFAB585
:10236300C001120DFA81F203120DFAB9F203120D34
:10237300FADAF203120DFA1CF303120DFA7EF303D9
:10238300120DFA88F303120DFA98F303120DFAD320
:10239300F303120DFAB3F703120DFAA0F903120DAA
:1023A300FA86FB03120DFA1DFC03120DFABFFC03A0
:1023B300120DFA248102120DFAA28102120DFAFE05
:1023C3008102120DFA498202120DFA648202120D81
:1023D300FA8F8202120DFAAC8202120DFAB882024F
:1023E300120DFA4F8402120DFA688402120DFAEDEF
:1023F3008402120DFA008502120DFA1F8502120DD6
:10240300FAC38502120DFA448702120DFAF7880205
:10241300120DFA8D8902120DFA908902120DFA003B
:102423008A02120DFA1E8A02120DFAB58A02120DE1
:10243300FAFD8A02120DFA008B02120DFAC68B0204
:10244300120DFA338C02120DFA598C02120DFAE4B2
:102453008C02120DFA028D02120DFA488D02120D32
:10246300FAFC8D02120DFA468E02120DFA758E02D7
:10247300120DFAD28E02120DFA078F02120DFA33E1
:102483008F02120DFA418F02120DFA8E8F02120D76
:10249300FAFE8F02120DFA479002120DFA93900280
:1024A300120DFABF9002120DFACA9002120DFAE849
:1024B3009002120DFAD39102120DFADD9102120D60
:1024C300FA189202120DFA289202120DFA319202B0
:1024D300120DFA859202120DFA999202120DFAC8A0
:1024E3009302120DFADD9302120DFA6B9402120D90
:1024F300FAB09402120DFA3C9502120DFA479502B6
:10250300120DFA899602120DFAA49602120DFAF030
:102513009602120DFA5F9702120DFA989702120DA6
:10252300FAB29702120DFAF49702120DFAC49A0244
:10253300120DFA719B02120DFADE9B02120DFA1EA6
:102543009E02120DFA369E02120DFA399E02120DE8
:10255300FA459E02120DFA599E02120DFA619E026D
:10256300120DFA949E02120DFA969F02120DFA1D95
:10257300A002120DFA8DA002120DFA0FA102120D84
:10258300FAD0A102120DFAEFA102120DFA90A202E3
:10259300120DFAEDA202120DFAF0A202120DFA6464
:1025A300A302120DFAB3A402120DFAB9A502120D79
:1025B300FA44A602120DFA5FA702120DFA27A80227
:1025C300120DFA58A802120DFA7BA802120DFA8412
:1025D300A802120DFAB3A802120DFA43A902120DB2
:1025E300FAF9A902120DFA6EAA02120DFA15AB023C
:1025F300120DFA8AAB02120DFAC1AB02120DFAFFE9
:10260300AB02120DFADCD202120DFA419004120D44
:10261300FA418F04120DFA5A8E04120DFA4A8C04F1
:10262300120DFA588B04120DFAF68A04120DFA01F0
:10263300B303120DFAF7B203120DFA8CB203120DA3
:10264300FAC0B003120DFA7EB003120DFAEEF601D2
:10265300120DFA96D202120DFA82AF03120DFA5638
:10266300AF03120DFA2ED202120DFA19D202120D75
:10267300FA0DAF03120DFA4EAE03120DFA3AAB0385
:10268300120DFAFBA803120DFAC8A803120DFA6F74
:10269300A803120DFA02A803120DFAC1A703120D23
:1026A300FAFAA603120DFA94A603120DFA33A6033F
:1026B300120DFAD3A503120DFAAAA403120DFA3EC2
:1026C300A403120DFA96A303120DFA91A303120D9C
:1026D300FA85A303120DFAB89F03120DFA929F0312
:1026E300120DFAEED102120DFAD19404120DFA9DD5
:1026F3009404120DFA469404120DFAB49204120DC6
:10270300FA069204120DFA699104120DFA309F032E
:10271300120DFAD19E03120DFA929E03120DFA5F67
:102723009104120DFA7F9E03120DFA749E03120D8B
:10273300FA439E03120DFA309C03120DFAE2810351
:10274300120DFAA39B03120DFAF89004120DFA5F0F
:102753009B03120DFA339B03120DFA868A04120DA2
:10276300FA598A04120DFA268A04120DFAFE890414
:10277300120DFA9F8904120DFA7F8904120DFA4A89
:102783008904120DFAF68504120DFADE8304120D84
:10279300FAC88104120DFA488104120DFAF4800478
:1027A300120DFA008004120DFAA88004120DFA012A
:1027B300F10100000080FBE4738F000100751C87AA
:1027C300000100731C350004003C1C25000200407E
:1027D3001C26000200421C27000200441C280001A2
:1027E300004E1C290001004F1C84000400C21986FE
:1027F300000100E01B2A000100501C2B00010051C6
:102803001C2C000100551C2D000800CE192E0001C0
:1028130000561C2F000100571C30000100581C31CA
:10282300000100591C32000100D61933000100D702
:1028330019340001005A1C36000100D81938000170
:10284300005B1C39000100541C83000200711C63EF
:10285300000100E41964000100521C6500010053EB
:102863001C6D000100E51971000800C6196600011E
:1028730000701C43000100611C44000200621C45FF
:10288300000100641C46000200651C47000800DCD0
:102893001948000100671C4B000100681C0400017B
:1028A30000741CA1000100781C37000100771C880C
:1028B300000100761C3C000100D9193D0001005CB9
:1028C3001C49000200691C67000100E6194D000263
:1028D300006B1C4E0001006D1C4F0002006E1C3E7D
:1028E300000100601C51000100DA19520001005E72
:1028F3001C530001005F1C54000100DB19000000A1
:10290300000000000136360101000102010001034D
:102913000100010401060605020000070100340856
:1029230001000F090401010D0100FF0E080000174B
:10293300020000190100FF1A0100011B0100FE1C27
:102943000100081D0200001F0100012001000121F8
:102953000200002301000F240200002601000127CA
:10296300010008280200FF2A0100072B0102402C66
:102973000100002D0100012E0100012F0100FF3095
:10298300010B1D310800003A0100083B01000F3C18
:102993000100013D0100FF3E040000420400004627
:1029A3000400004A0400004E0400005204000056D4
:1029B3000400005A0400000000000020019A840073
:1029C30000010020019B8400000200200196840086
:1029D30000030020019784000004004201CE83001D
:1029E30000050042014383000006004201A7830063
:1029F30000070030019884000000404201A78300D3
:102A030000FDFF210192842A0400003905AC182A35
:102A130004C8003905B4182A04C9003905B0182AB6
:102A23000401022123121C2A0421022123061C2A49
:102A33000422022123081C2A04200210230A1C2A30
:102A430004250210230B1C0103710301030103017D
:102A53000301030103220302030103100300030024
:102A630003000300030003000300034203000324E5
:102A730003060300030003040312032503230325B2
:102A830003230304030403000300030003440300BC
:102A930003000323030003650321003503810300BF
:102AA30003050300030003000300032503230303BB
:102AB30000710030016000110070003102200350EA
:102AC30004800010006100000014006300730072B2
:102AD3000062004300000013000600000000000431
:102AE3000012000000000000000000040004003792
:102AF3000037003C024400000000000000000065B5
:102B03000000003500810000000500000083000084
:102B130000010171010101010111010101310101F3
:102B23000101018001100161013B00140063017385
:102B3300017201620143010001130106013D0135E8
:102B4300000401120100010001000100010401045D
:102B530001330133013C014401320136000001001D
:102B63000165010001350081010001050182018336
:102B730001000103027102300160021102700201BF
:102B830002020202028002100261023A0041006363
:102B9300027302720262024302000213023800004F
:102BA30002000204021202000200020002000204F8
:102BB300020402370037003C0244020002390000DD
:102BC3000200026502000235028102000205028250
:102BD300028302000236000100060000000F00001D
:102BE300000000000000000000000003FFFF0000E1
:102BF3000403FFFF0000FFFF0FF4010005C40403FB
:102C030020000100000B0000000000000000030191
:102C13000F000000000000000000000000000000A2
:102C230000000000000000000000000000000000A1
:102C3300000000451975194B197F1851197B19515B
:102C430019871957197F1851197B195D197F1800B6
:102C530000000063197F180000000069197F186FD6
:102C6300197F1800000000000000000000000000B1
:102C73000000000000000000000000000000000051
:102C83000000000000000000000000000000000041
:102C930000BB1B0100BB1B0200311B02802B1B036B
:102CA30000371B04003D1B0480431B0500491B0622
:102CB30000551B3100671B33006D1B3400731BFF72
:102CC300FF0000030003000400080010001F003E83
:102CD300007B00F600EC01D703AF075D0FB91E714F
:102CE3003D000007ECFDFDFDECDCDCCCBCACAC9C9A
:102CF3009C8C7C7C6C6C5C5C5C4C4C3C3C2C2C1C41
:102D03001C0AA921027321057F210779210C5B216C
:102D13000D6721FF000000160F00000B150B0200CA
:102D230002220F3300000E0F5A6967426565416C3A
:102D33006C69616E63653039D0D1D2D3D4D5D6D71F
:102D4300D8D9DADBDCDDDEDF150AF4D4C0A5958241
:102D530072636155504900034D4C4651181A2505BD
:102D6300020001191618161618230300303016181E
:102D73001920231A1C1E30303017181921301B1D3F
:102D83001F30003C40423A3F3F392F47300C0E0280
:102D93000B040B0A0708000F0204020101010109D9
:102DA3000200BE040AE8030000E8030100F6FB4B3F
:102DB3002D0300E62C0E0010030A0C040408040380
:102DC30028020C051E0815FF00FF0412091EC0820D
:102DD300C08312120D901A0F744BF0A3741FF0905E
:102DE3001A117451F0A3741FF0901A137457F0A3BF
:102DF300741FF0901A15745DF0A3741FF0025B0C3E
:102E030074F7120949901A03E4F0E9901A02F07C6E
:102E1300DC7D197A047B1A12185B901C67E0901A08
:102E23000CF0901A0D74C6F0A37419023D9974F056
:102E3300120949EAFEEBFF54807003022FA2901A95
:102E430002123E2E7003022F9BEA241B1256997026
:102E53007CEA241F12569964137002A3E0706E8AF1
:102E6300828B83122FF0901A1D124C2B750A00755A
:102E73000B00800D123C6F126D0B121771AA0EAB73
:102E83000FEA4B60488A828B83E0650C7004A3E0F1
:102E9300650D702C8A828B83A3A3A3A3E0F50EA3F5
:102EA300E0F50FE50A450B8A828B83A3A3A3A360F6
:102EB300C3123F71850A82850B83A3A3A3A380B7A3
:102EC3008A0A8B0B8A828B83124C2780B4E50824F1
:102ED3002A125699FCE5082402F8E43509F9E8FAC0
:102EE300E9FB901A1D1230D7A3A3E06402703C8A59
:102EF300828B83124C2B800B88828983A3A3A3A389
:102F0300123F71E849601F88828983E06A7003A3D6
:102F1300E06B70E488828983A3A3E06C70DA901C71
:102F23006D1259C9806BECF9121F878508828509D8
:102F330083E06401704FE5082418122FD9120E1B89
:102F43001262B3120C7BE5082412122FD9120E1B46
:102F5300E508123E22120E17E508240B1262B7127F
:102F63000C7FE5082417123DBFE5082402FCE43575
:102F730009FDE5082419FAE43509FB122791740ABF
:102F8300120E2A800CE064027007AA08AB09122013
:102F930065AA08AB091216DBEEFAEF6480802DEA0E
:102FA3005402600C901C807401F0EA6402FA8023DE
:102FB300EA5408601A121F81EA4B700B901A1F1211
:102FC300618E7A08122FE6EE6408FAEFFB80047A2A
:102FD300007B0002693DF582E43509F583E0F50ADB
:102FE300780A22FB901A02E0F912183122A3A3E017
:102FF300F50CA3E0F50D227B00901A02E0F91218FC
:103003002574042274F41209498A088B098A828B75
:1030130083A3A3A3124A23123DCA38F583E02409EC
:10302300FA1268D570030230CA8A828B8374021243
:103033004A988508828509831230D7E8F0A3E912FC
:10304300654F8A828B83A3A3A3A3A3A3A3A3F0E5C2
:10305300082403F8E435091230CC123DCA3AF5834B
:10306300E08E828B83A3A3A3A3F0EE2409FAE43FAB
:10307300FB8E828F83A3A3125C7BF5838882E0A2FD
:10308300E58E828F83A3A3A3A3A3500474018001BD
:10309300E4F0E5082403F5828983124C2BEA1251EC
:1030A300AC3BF58312689C120E13123DC93B125DB3
:1030B3006D8E828F83A3A3127A4B120E2AEEFAEF40
:1030C300FB901A021269228016F98882F583E0FACE
:1030D300A3E0CA22124DC8A3A3227402120E2A7FB0
:1030E30004020BF674F21209498A088B09ECFAED13
:1030F300FB740E121140E0FC1212438A0C8B0DAECE
:103103000CAF0DEA4F6030AC08AD09121231E96023
:1031130026AC08AD09EEFAEFFB121237E970148EF4
:10312300828F83123F5EFAEFFB12122BAA08AB09C0
:1031330012125B7900800279B4024D1774F0120900
:103143004974F6120EDDEAFEEBFF8C088D09750F4C
:10315300B3852182852283E4F0750E008002050E7B
:10316300902DC1E493F8E50EC3984003023266AA9A
:103173000E7B0012127F8A0A8B0BEA4B60E08A8275
:103183008B83A3A312326D28F0F8C3EE98EF94005B
:1031930050CC7C157D007900AA08AB091216C385B3
:1031A3000A82850B83A3A3A3A3126D48E0F8EEC3A1
:1031B300982925E0F8E433F9E50A28F582E50B3987
:1031C300F583A3A3A3A3A3A3123DD4A31257F08A09
:1031D3000C8B0DAC0CAD0DAA08AB0912185B850A5C
:1031E30082850B83A3E06401700A1262B374011237
:1031F3003DE680447401120EBD850A82850B83125D
:103203004C29121267E9603D7409121140E0C0E0D5
:103213001262B3D0E0F07409121140E0640370133A
:103223007401120EBDE508240BFAE43509FB1218EC
:103233005B80127401121140123F71E5081257D6D8
:103243003509126D09850A82850B831262BF123D0F
:10325300E6A3A3E0C0E0E50824141262B7D0E0F0CF
:10326300750F00A90F740A02693AA3A3A3E0F885B6
:103273002182852283E02274F7120949E9FE8A82BA
:103283008B83A3A3A3A3A3A3E0540860338A828BF5
:1032930083A3A3A3A3A3A3E0540260218A828B8305
:1032A300A3A3A3A3A3A3A3A3A3E06406600F74E94A
:1032B3006E600A74CD6E600574F06E7003121F6940
:1032C30002461674F012094974EF120EDD740F12E0
:1032D30011401260727408121140E9F0ECFEEDFF28
:1032E30074051211401243DE124602A3E0F91212D2
:1032F3004F7406121140126072740612114012527A
:103303003D7003023581123E0EE0FA74061211403D
:10331300E0F9121EA91235E1F8A3E0F9E8497003B8
:10332300023581EE2403F50AE43FF50BEE2406F59E
:1033330008E43FF5097C00850882F583124C2B8550
:103343000A82850B83E0F91212557403121140129D
:103353006072850A82850B83E0C0E0852182852225
:10336300831235DAD0E0125352F985218285228304
:10337300123C76124EA4123270FAA3E0CA2407F567
:1033830082E43AF583E8F0A3E412607D2406F58233
:10339300E438F583E4126D15124A17120E13EE1278
:1033A3003DCA3F125D6D7403121140124A23240972
:1033B300127A45120E2A7429121140126D421230EC
:1033C300D11253653A126D09742B121140E0C0E01B
:1033D300852182852283125204D0E0F074021211F7
:1033E30040E4F0742512114078081210CB0234D84F
:1033F3007403121140125D358882F5831235C9A317
:10340300A3A31257FBFB12126D850E82850F83A3B4
:10341300EAF0A3EBF074031211401235DAA312356C
:10342300C9125A0AA2E6500F850E82850F83A3A301
:10343300A3A3A3E0D2E1F07405121140E0706B8501
:103443000E82850F83A3123F71901A5DE0687003AB
:10345300A3E0697055850E82850F83A3A3A3123D54
:10346300A9750C00780C120E1B7808120E0F742924
:10347300121140E0F50C780C120E1B742712114048
:10348300120C7F901A6A120C7F7900741912114082
:10349300124BFB1220AD740A120E2A850E82850F81
:1034A30083A3A3A3A3A3E04405F07402121140E095
:1034B30004FC8E828F83124C258E828F83A3A3A359
:1034C300E0F9121255740312114012607274021261
:1034D3001140E004F0740312114012523D6067740E
:1034E30002121140E0FA7406121140123F71C3EA4E
:1034F30098E499505174021211401238B385218215
:10350300852283E028F8A3E039F9E8240FF50EE4D7
:1035130039F50F850E82F583E4F07403121140121E
:1035230035D4640160030233F3740512114074014E
:10353300126928F07403121140125AFC1238D6E8AB
:10354300F0A3E9023417852182852283124C2B12C2
:103553001EAF852182852283120C7F7426121140AF
:10356300E0FD7425121140E0FC740A121140E0F9E9
:10357300EEFAEFFB121F637402120E2A80438E824F
:103583008F83A3A3A3E0C0E0740C121140D0E0F03A
:10359300126791E0C0E0740D121140D0E0F07406A0
:1035A30012114012523D7009740E12114074B98009
:1035B30007740E1211407410F07409120EB5122024
:1035C300A7741102693AE0850E82850F83A3A3A332
:1035D30022E012532AE022E012532AA3A3228521D8
:1035E30082852283EAF0A3EB1252462274F0120979
:1035F3004974E1120EDD7404121140E9F0740312F0
:103603001140ECF07402121140EDF08A0E8B0F742E
:103613002F121140122FF2AA0CFB121E9D740112DD
:103623001140E9F0AA0CAB0D121EA3740112114054
:10363300E070030238AE852182852283E480158EF3
:10364300828F83A3A3A3A3A3E0D2E3F08521828582
:103653002283E004126880F8852182852283E0C3F7
:103663009840030238A57401121140E07003023838
:10367300A58521828522831238B3E50C28F8E50D50
:1036830039F9E8240FFEE439FF8E82F583A3A3A35F
:10369300A3A3E0A2E040B5750800750A08750B0006
:1036A3007402121140E060037508207C087D0079E4
:1036B300007405120EB51216C38E828F83E0603E2E
:1036C300901AADE06401701AE508D2E3F508750BB2
:1036D300101238C3121140E8F0A3E91256EE74FF3A
:1036E300807643080C750A0C8E828F83A31238CE22
:1036F300126D0B740512114074FFF0A3805A740409
:10370300121140E06009E508D2E6F508750A0A8E51
:10371300828F83A3E064FE7003A3E0F4703074121D
:1037230012114074041262DDF8741D121140E81284
:103733004A987412120EB5121DCB7D007C007900DD
:103743007415121140AA82AB83121BA3800B12388B
:10375300C3121140E8F0A3E9F07407121140E50821
:10376300F0123E05C0E07409121140D0E0F0740A73
:103773001211407401F07405120EB512206B74110E
:10378300121140E06003023883740D12114012538A
:103793004D8E828F83A3A3A3A3F0740D1211401245
:1037A3004A66E50AF0A3E50BF07403121140E0C08A
:1037B300E01249F7D0E0125A0A6011901AADE0C046
:1037C300E0740D121140124A41D0E0F0740D121151
:1037D30040123F71850C82850D83A3A3A3A3A3127B
:1037E30038BC241C12606C126D251238BE1259BCF1
:1037F300391267B0C0E01249DED0E0126875C0E04C
:10380300740D121140124524D0E0126576C0E074A5
:103813000D12114012451AD0E0F0740D121140122E
:1038230038CE1238BC242A12606C850E82850F8331
:10383300A3A3A3A3A3A3A3A3E0126065123DF4C0B3
:10384300E0124506D0E0F0740D121140124C2B85A6
:103853000E82850F8312688B2428F582E43B126D58
:1038630009123DFD12689C120E13125D66EA125F87
:10387300FE3B127A49120E2A7405120EB5122071FC
:103883008E828F83A3A3A3A3A3E0D2E0F0741112CB
:103893001140E060030236427401121140E0140249
:1038A300364E7900AA0CAB0D121F6F741F02693AD2
:1038B300E075F007A4F8A9F022A3A3124C2FE82285
:1038C3008E828F83A3123F75740522E01238D6A32C
:1038D300A3A322F8A3E0F9850E82850F83A32274A4
:1038E300F012094974E8120EDDE9852182852283ED
:1038F300F08A0E8B0F8A828B83A3A3A3A3A3A3A314
:10390300A3E0F9121EC78A088B09EA4B7003023938
:10391300BFE50E1251C0123E1D123DB485218285B2
:103923002283E060030239C27C04850E82850F8303
:10393300A3A3A3A3A3A3A3A3E0F9121ECDEE4F60F9
:103943007B8E828F83A3A3A3A3123F7174071211EB
:10395300401261A3123F717409121140124AC8C088
:10396300E07411121140D0E0126554A3A3A3A3A3E2
:10397300A3A3123F71740F121140126D0B74121234
:103983001140E4126930C8241FF582E438F583122C
:103993005D31C413135403FC70027C048E828F8345
:1039A300E0F97808120E17742059FD744059F97420
:1039B30003120EB5121F637402120E2A0269387CB9
:1039C30008850E82850F83A3A3A3A3A3A3A3A3E0C8
:1039D300F9121ECD8B0BEA4B7003023940EE4F6098
:1039E300DB852182852283E0F50C780C120E1B8582
:1039F3000882850983A3A3A3A3A3A3A3E0F50C785B
:103A03000C120E1B8A828B83A3A3A3E0FB8A8285FD
:103A13000B831275688A82850B83E0FA8E828F830B
:103A2300A3A3E0F91227977402120E2A02394474F1
:103A3300F712094974FA120EDDE9FE780179017F64
:103A430000800379000F124DA7E0FCEFC39C5026C2
:103A5300EF75F007A4FC85F008AD08EA2CFCEB3DFC
:103A6300FD124396E0A2E050DA540C60D6E0A2E2E5
:103A730050D3780080CF8A828B83A3A3A3A3A3A36D
:103A8300E0703DE9A2E0400574016E70338A828BD9
:103A930083A3A3A3A3A3A37401123D86E0C0E07490
:103AA30003121140D0E01243F5E0C0E07404121198
:103AB30040D0E0F07405121140E8125CD01220A748
:103AC3007406024613C082C0837901121F6F025B22
:103AD3000C74F4120949EA4B901C806019E4F08AD3
:103AE300088B09F50AF50B7808120E0F7A02122FCC
:103AF300FA120E2A800A7401F07A027B00122FE771
:103B03000230E274F012094974F3120EDD740312E9
:103B13001140E4F0A3F0901A1D123DB47401121188
:103B230040E4F0A3124A9D04F0901A57E0A2E35038
:103B330003023BF9123D7A74091211401211057404
:103B43000912114078081210CB901A1F7808120E30
:103B5300C5740512114078081210DA123C7D740501
:103B6300121140780812107D50077A017B00023C45
:103B73006A7405121140780C1210CB901C6CE0F59E
:103B830009780C79081208DAA80CA90D901C6DE0CD
:103B9300C398E4995003E08001E88521828522835C
:103BA300F0740912114078081210CBC008C009C084
:103BB3000AC00B7405121140780C1210CB123C7D15
:103BC300780C79081208DAE4F50AF50BD00FD00E59
:103BD300D00DD00C780C7908120F99901A1F780C1D
:103BE3001210DA8011123C6F126D0BEEFAEFFB121A
:103BF3001771AE08AF09EE4F60658E828F83123264
:103C03006DC398502DEE2403F8E43FF9E0FA88825F
:103C13008983E0C39AF0602374031211401240D7E2
:103C23007401121140EEF0A3EF1261BEFEA3E0FF98
:103C330080C48E828F83A3A3A3E4F08E828F83122A
:103C43007A02740112114012523D8E828F83A3A314
:103C5300A3A36091126197121140123C768089747C
:103C630003121140124C2B740D02693A123F7590E6
:103C73001A1D22125D5CA3A3A322901C6B127A0A65
:103C8300E4F50AF50B2274F01209498A088B0989B5
:103C93000A78007900901A1D123DB4FBEE4B601EAA
:103CA300088E828F83A3A3A3A3124BF5601008E8A9
:103CB3007001098E828F83123DB0EA4F70E3901C2E
:103CC3006E124C2BC3E89AE99B4003023D6D7A06C2
:103CD300123D70A80CA90DEA497003023D6D8A825A
:103CE3008B83E508F0A3E509123D8FE50AF0901CEC
:103CF3006D124DAF123D86A3E4F0A3F0901A1D128E
:103D03004BF5600D8E828F83A3A3A3A3126D0B804B
:103D130017901A1D126D0B901A57E0A2E340091277
:103D23003D7A901A1F121105901A57E0A2E3503AF8
:103D33007A087B00901A02E0F9121837EA4B4C4DCF
:103D43007028901C6BE0F508A3E085080CF50DE4E2
:103D5300F50EF50F780C120E0F7A087B00901A02FD
:103D6300E0F912182B7404120E2A02693D7B00122B
:103D7300176B8A0C8B0D22121843EAF8EBF9ECFA55
:103D8300EDFB22123D8A22123D8FA322F08A828B01
:103D930083A3A322E508F0024616F08E828F83A345
:103DA300A3A3A3A3A3221256A7A3A3F022A3A3A36F
:103DB300A3E0FEA3E0FF227F05020BF6F582E435C4
:103DC30009F583E0F922EA123DCE222410F582E4BC
:103DD30022123DDCA3A3A3A322123F798508828587
:103DE300098322123DEA22F0850A82850B83A3A36D
:103DF30022E50E2411123E1AE022E50E240E123E95
:103E03001A22E50E2410123E1AE022123E1222EE6E
:103E1300123DCE3FF58322F582E4350FF58322244C
:103E23000FF50AE43509F50B780A22E0F91216EDCD
:103E33008A088B09EA4B2274F2120949890B8A0812
:103E43008B098A828B83124C2B121F93EA4B6004DB
:103E530079B8806A121F9FE9F8902DBAE493F9E8C4
:103E6300C399400479B280567A15123D70AE0CAFF7
:103E73000DEA4F7004791080458A828B83E4F0A3A6
:103E8300123D8FE50BF0750A007808120E137C12B1
:103E93007D00EA2403126847120E2A901A23125255
:103EA3003D7008901A23800C123F71888289831217
:103EB3003EC470F4EEF0A3EFF0121FB17900024D8F
:103EC30017124C2FEA4B8882898322C082C08390C9
:103ED3001A2380048C828D83127569EC4D60288CC3
:103EE300828D83A3A3E069600574FF6970E68C8209
:103EF3008D83A3A3A3E06A7003A3E06B70D6EC24C5
:103F030003FAE43DFB80047A007B00025B0C74F748
:103F1300120949E9FD74FE6D70047C0180027C0086
:103F2300901A2380096D70027C0188828983125262
:103F33003D601F88828983A3A3A3E06A7003A3E083
:103F43006B70E7ECA2E088828983A3A3E050D6F9E3
:103F5300800279FE024616EEF9800CA3A3127A0AB8
:103F6300EE227402120E2A7F02020BF6F583123F31
:103F73007522123F7922E0F8A3E0F922123F798EED
:103F8300828F8322120E2A7F03020BF6C082C08324
:103F93007900901A23800109E0FAA3E08A82F5836D
:103FA300E582458370F1025B0C74F6120949E4F56E
:103FB30008F5097808120E17902DBAE49375F013DB
:103FC300A4A9F01240CC126D69120E2AE9FE7409FD
:103FD3006E7003121FAB023F5A74F612094974FE46
:103FE300120EDD852182852283E4F0A3F0A821A9A6
:103FF30022880889097808120E17750802750900C6
:104003007808120E171269DA120E2A023F6574F548
:1040130012094974EB120EDD852182852283E4F0B7
:10402300A3F0901A2380748E828F83A3A3E0C0E051
:104033007402121140D0E01256EEA982AA838908B5
:104043008A09750A007808120E137C127D00740623
:10405300121140126D2E120E2A7402120EAD880830
:1040630089097808120E1775081375090078081264
:104073000E1774041211401251E075F013A4F8AA3C
:10408300F075F013E91240C81269E2120E2A852175
:10409300828522831240D78E828F83123DB4EE4FE6
:1040A3007085A821A922880889097808120E177536
:1040B30008027509007808120E171269DA120E2A1F
:1040C3007415023F87A42AF9E82402FCE439FD7A37
:1040D300427B0022E02401F0A3E03400F02274F4D8
:1040E30012094974EB120EDD7E007F00A821A9227C
:1040F300880889097808120E177508028E0978084E
:10410300120E177C007D007A42126D75120E2AE999
:10411300706C8E0880567402120EAD880A890B7873
:104123000A120E17750A13750B00780A120E17E59B
:104133000875F013A4F8AAF075F013E5091240C846
:10414300126D77120E2AE9701B7403121140AA82B2
:10415300AB837402121140E0F9121F8DE970050E52
:10416300EE70010F0508E5087002050985218285B7
:104173002283123F71C3E50898E509994098EEFA46
:10418300EFFB74150230DF74F61209498C828D83BC
:10419300A3A31243E3F0EA1260043BF583E0C0E01B
:1041A3001243A0D0E0F0EA241DF582E43B123F6FF6
:1041B3001243841243DEF0A3F0EA241FF582E43BAA
:1041C300F583123DB4EC1243773DF583EEF0A3EF94
:1041D300F012437D3BF5831243AEA3A3A3A3A3A392
:1041E300EEF0A3EF125C5FFE8C828D831243ED74BD
:1041F300035EFEC39403400302436AEE6008740245
:104203006E600302428F8C828D83E0540CFE740C2B
:104213006E70030242CEE0A2E4400D88828983E0FF
:104223008C828D83A312440374086E60030242CE12
:1042330012438E7401F08A828B83A3A3A3A3A312D8
:1042430056B470148C828D83E0440C1243F5A3A3FF
:104253001243AEEEF0A3EFF08C828D83E0A2E44034
:104263002B88821243BC1243D1500109F5821243B9
:10427300BCA3A3A3A3A3A3F0A3EF1243FD8C828D3E
:1042830083A3A3A3F0E82403F85001098882898358
:10429300E0C0E0EC2411F582E43DF583D0E0124365
:1042A300ED8C828D83E0A2E7507588828983E0FEDE
:1042B3008C828D8312440374FC5E700C8C828D831C
:1042C300A3E054036403701E02436A12438EE4F0B6
:1042D300740C6E600302423988821243C21243D1C6
:1042E30050010902425B8C828D83A3E05403603248
:1042F30088828983E0C0E0EC1243A83DF583D0E0D7
:104303001244048C828D83E0540364027014888207
:104313008983E0C0E0124396D0E01244048003A3F3
:10432300E4F0EC1251AC3D126D09EC2410FEE43DB7
:10433300FFEA241DF582E43BF583E0F5088E828FC6
:1043430083E0C3982508F508F0EA2417F8E43BF95D
:104353008882F583E0C39508C0E0124384D0E0125D
:104363005C5FC39508500A124384E4F01243A0E44F
:10437300F0023F6A2415F582E422EA240DF582E473
:1043830022EC240DF582E43DF58322EC1253653DC6
:10439300F58322EC2414F582E43DF58322EC123DEF
:1043A300CE3DF583222413F582E422E0FEA3E0FF51
:1043B3008C828D83A3A3A3A3221243C2A3A3228926
:1043C30083E0F508A3E0FFE5088C828D8322A3A395
:1043D300A3A3F0A3EFF0E82402F8221243E3A322FD
:1043E300E4F08C828D83A3A3A32212440BA882A999
:1043F3008322123D8AA3A3A3A32212440BA3E02288
:10440300A312440B08A98322125C68A32274F4123A
:10441300094974F3120EDD8A0A8B0BECFEEDFF8C57
:1044230082F583E0540CF508E0A2E75006E508D2D4
:10443300E7F508E508D2E1F5081256B47006E50879
:10444300D2E4F508E0A2E55006E508D2E5F5087CDC
:10445300087D007900AA21AB221216C3740212113F
:1044630040E508126D0FC0E07403121140D0E01252
:104473004A9DE50AF0A3E50BF0740512114012659D
:104483007B121140E070777408121140124A231214
:104493005C5138126596C0E074081211401245242D
:1044A300D0E0126576C0E0740812114012451AD0AC
:1044B300E0F07408121140124510E0124A4B124A00
:1044C300CC126065EE2411125680C0E0124506D06E
:1044D300E0F0EE2414125680C0E07408121140126A
:1044E3004A232435F582E438F583D0E0124A70C0BC
:1044F300E07408121140124A27D0E01262CF740D03
:104503000230DFE82432F582E439F58322123F7F5B
:10451300A3A3A3A3A3A322124A3712677538F58373
:1045230022124A372426F582E438F5832274F712DF
:1045330009497E008A828B83A3A3A3A3A3A3A3A376
:10454300A3E0640460030245F212535DE0600302DA
:1045530045F21251BF3B12523B70030245F288826F
:104563008983E0540360030245F2E812536539F589
:1045730083E0FA8C828D83A3A3E0FBA3E0CB241119
:10458300F582E43BF583E06A706588828983A3A39F
:10459300A3A3A3A3A3A3A31245F6E06A7003A3E016
:1045A3006B704C88828983A3A3124602E0FFA3E0C9
:1045B300CF24061256806A7003A3E06B70318882A1
:1045C3008983A3A3E0F88C828D83A3A3E0F9A3E0FE
:1045D300F5838982A3A3E06860138C828D83A3A3F0
:1045E300A3E0F5838982E0540C640470027E01EE3B
:1045F300F980201245FA22124C338C828D8322A338
:10460300A31245FAA3A322740C121140E0F9740D0E
:10461300120E2A7F01020BF674F612094974FC127A
:104623000EDDEAFEEBFFECFAEDFB8C82F583A3E0F3
:1046330054036016901A1912523D60597900EEFC2A
:10464300EFFD125E5C1227BA804B8521828522839F
:10465300EEF0A3EFF07402121140124A92AC21ADB6
:10466300227AC97B1F1221F18A088B09A808A9099C
:10467300EA4960218A828B83A3A3A3A3A3A3A3A351
:10468300A37406F07A0088828B83124A2312602572
:10469300E0F912214F7404023F6774F2120949745E
:1046A300F3120EDDEAFEEBFF8A82F583A3A3A3A335
:1046B300A3A3A3A3A3A3E0F50A901C80E07005794C
:1046C300BA0249DB750801750900750C00750D0008
:1046D3007C087D007900AA21AB221216C37405124F
:1046E30011407401124AA55404601274021211405D
:1046F300E0D2E6124AA554087003750803E054108B
:10470300600674404508F508E054086022740212FC
:104713001140E044C0124AA55420600A74031211E8
:1047230040E0D2E080087403121140E0D2E1F0EEE1
:104733002415125680124A0B7003740169700674B3
:10474300084508F5088E828F83A3A3A3A3A3A3A37D
:10475300A3E0701612224B85218285228312607298
:104763007402121140E0D2E28030640F70107402C0
:10477300121140124AAD74044508F508807F8E82F9
:104783008F83A3A3A3A3A3A3A3A3E064028E828F17
:1047930083700A126D42E8F0A3E9F08060A3A3A33B
:1047A300A3A3A3A3A3E06403700DAC21AD22EEFA8F
:1047B300EFFB121FFF80468E828F83A3A3A3A3A3C5
:1047C300A3A3A3E064017035901AADE060107402F6
:1047D300121140124AAD750910750AFF8018740250
:1047E300121140E0440C124A9D74FDF0A374FFF0D3
:1047F30074044508F5088E828F83122FF2EE241578
:10480300125680A2E0503F7402121140E0540C7023
:104813001B8E828F83124C2B121C6FE9700579BBA0
:104823000249DB7402121140E0D2E5F0EE241512C6
:104833005680A2E050107402121140E0540C64043C
:104843007004E0D2E5F0EE2411125680C0E0740447
:10485300121140D0E012657D121140E0600302495D
:10486300D47408121140124A66E508F0A3E509F072
:10487300124A01E0C0E01249F7D0E0F01249E8E043
:10488300C0E07408121140124A231243A838F5837A
:10489300D0E0124ACC64017011901AADE0C0E0740C
:1048A30008121140124A41D0E0F07408121140126C
:1048B3004A611249F2FAE8241CF582E439F583EAE5
:1048C300124A98EE2415FAE43FFB8A82F5831275A7
:1048D30069E81259BC39F583124A92EE241C125628
:1048E30080C0E01249DED0E0125B02124A0B700373
:1048F3007401697013740812114012534DFAEE24B7
:104903001D125680F9121ED38E828F83A3A3A3A3F5
:10491300A3A3A3A3A3E0C0E074081211401245248B
:10492300D0E0F0740812114012451AE50AF0740839
:104933001211401251E02428F582E439F583E50C85
:10494300F0A3E50D124A78124A4B1256F91260652C
:10495300EE1249F2C0E0E82433F582E439F583D05E
:10496300E0F0EE241B125680C0E0740812114012CE
:104973004A27D0E0F0EE241A125680C0E0740812E1
:104983001140124A232432F582E438F583D0E01231
:104993004A70124A17120E1312677B127569740B51
:1049A300121140124A23242F127A45120E2AEE24A2
:1049B3001512568054406012901A3912523D600A03
:1049C300AA21AB22125E5C1227BAAA21AB221220C3
:1049D30071740C121140E0F9024D12E82420F582A3
:1049E300E439F58322EE2419F582E43FF58322129C
:1049F300678AE022E82412F582E439F58322EE2463
:104A030018F582E43FF583225480F8A3E05401F9BA
:104A130074806822F508A3E0F509750A0078082276
:104A2300124A3722124A372434F582E438F58322B6
:104A3300A3A3A3A3124A3B22E0F8A3E0C822124A8D
:104A43003712437738F58322FAA3E0FBE8242AF5EB
:104A530082E439F583EAF0A3EB22A3A3A3A3123FD5
:104A630075EE221251E41251C439F58322F0EE247B
:104A73001312570122F0EE240D12570122E0FC8A93
:104A8300828B83E02CFCA3E03400FD8A828B83ECD1
:104A9300F0A3EDF022F0A3E4F022F0852182852239
:104AA3008322F0EE241512570122E0D2E3F0124ADA
:104AB300B5228E828F83123F79852182852283E8F6
:104AC300F0A3E9F022E8F0A3E91261B8E02274F759
:104AD3001209498A828B83A3E0640170047E638098
:104AE300027E648A828B83E060087905124B052479
:104AF300F3FE901A55E06007F9124B0524F2FE020B
:104B030045F2122119E9F8EEC3982274F612094905
:104B130074FE120EDD852182852283126072E9FE06
:104B2300ECFAEDFB9005C212523D6032A821A92296
:104B3300880889097808120E177D01740E12114036
:104B4300E0FCEEF99005C21260461227BA74021215
:104B53000E2AEA4B60047900800679B2800279B6A6
:104B6300023F6574F7120949E9FE901A0F12523D8C
:104B7300601F7409121140E0F5087808120E1BEE4D
:104B8300F9901A0F1260461227BA7401120E2A8086
:104B93000279B602461674F71209498908ECFEED4C
:104BA300FF79B5E508245E602014600624F86034BC
:104BB300803D9005C4124BF56035126D861227BAFD
:104BC3008E828F831260728024901A11127569ECA1
:104BD3004D601CEEFCEFFD901A111260461227BACD
:104BE300E9F9800B901A0D124BFB12185B79000246
:104BF3004616124C2FEA4B2212756DEEFAEFFB228A
:104C030074F7120949E9FE79B574AB6E700B901A0B
:104C13000D124C2B12185B79000246168E828F837D
:104C2300A3A3A3A3A3A3A3A3124C2F22124C332207
:104C3300E0FAA3E0FB2274F1120949EAFEEBFF8CD0
:104C43000A8D0B750801901A5DE06E7003A3E06F87
:104C5300700C124D06AA0AAB0B12185B805E12226F
:104C630051EE6A7002EF6B7009AA0AAB0B1222575E
:104C7300804AAC0AAD0BEEFAEFFB121DA7E9F5086B
:104C8300901C73E070361226CBE97030E508702C67
:104C9300901A2DE06E7003A3E06F7020EE4F601C3E
:104CA300750C25750D1A750E00780C120E137C0801
:104CB3007D00AA0AAB0B126D32120E2AA9080276E6
:104CC3006574F2120949EAFEEBFF8C088D09750A37
:104CD30001124D06EEFAEFFB121855E9640170114B
:104CE300901A5D123F71850882850983126D0B80CE
:104CF3000EAC08AD09EEFAEFFB121DADE9F50AA9FA
:104D03000A80111222458A0C8B0DAC0CAD0D227456
:104D13000D120E2A7F06020BF674F6120949EAFEFB
:104D2300EBFF7A0D7B0012176BEA4B6062EE2424D3
:104D3300126A0FF0EE2425126A0FA3124DD4126AE1
:104D430015A3A31267A8124DAFF0EE124D95124DA5
:104D5300C4E8F0A3E9124DEB124DBC126D0BEE1239
:104D63004D9E12686BA3A3A3A3F0EE2433125680C7
:104D7300C0E0124DA7D0E012659A124DBCA3A3A3C5
:104D8300E8F0A3E9124DE3C0E012535DD0E0F00276
:104D93003F6A242AF582E43FF58322242EF582E438
:104DA3003FF58322EA1257D63BF58322124DB322F5
:104DB300E08A828B83A3A3A3221268CAA3A3A3A31B
:104DC30022124DC822123F798A828B83A3A3A3A305
:104DD30022F0124DD922EE2426F582E43FF58322F8
:104DE300F0EE243212570122F0EE242C1257012246
:104DF30074F412094974FE120EDDECFEEDFFEC248F
:104E03001612568064057010EC2406FCE43FFD1274
:104E13001FF9E97003024E9FAC21AD22126AC4123E
:104E23001C7585218285228312523D606B8E828F91
:104E330083E064017058E875F009A4F8AAF075F0EE
:104E430009E9A42AF9748628F8740739F9E8FAE914
:104E5300FB8882F58378081210CBEE124F411210B3
:104E63007D4027852182852283124A6112568E1244
:104E73004EA478081210CB9084227808120FE88A87
:104E8300828B8378081210DA800A79A28010EE24CC
:104E93000F126D057900800679A1800279C802306E
:104EA300DD124AC2EE1267962274F21209498A0C85
:104EB3008B0DECFEEDFFEC12568EE4F0A3F0908424
:104EC3001A78081210CBEC124F41120F486067ECAE
:104ED300240E125687703478B3901A54E0702890D9
:104EE3001A86E064017020EC2411125680F9122115
:104EF300018B09A909EE1251C03F126070EA4960A3
:104F0300047800800278A18808802EE0600464029F
:104F1300700A12200BE9F5087007801DE064037026
:104F230010EEFCEFFDAA0CAB0D121C99E9F50880FD
:104F3300087508A180037508A3A908024D17126715
:104F43009678082274F012094974F5120EDDEAFE10
:104F5300EBFFEA240AFCE43F8C82F583127A061203
:104F630051CA7403120EBD8A828B83125E66E97086
:104F7300030250307401120EBD7403120EB5121CDD
:104F830075740112114012523D7003025030E875DE
:104F9300F009A4F8AAF075F009E9A42AF9748228A3
:104FA300FC740739FDE508240E1262B7E4F004121D
:104FB3001140123F71E5081251C03509126D098C79
:104FC300828D83121129E50824121262B71211058A
:104FD30090842278081210CB8C828D837808120F6C
:104FE300D58C828D83780C1210CB90848A7808122A
:104FF30010CB780C79081208DAE5084509450A450B
:105003000B702A74011211401251E075F009A4F8D3
:10501300AAF075F009E9A42AF9748A28F5827407BD
:1050230039F5837401F07A007B081251ED8E828F7B
:1050330083A3A3A3A3A3A3A3A3A3A3E02406FCA3E3
:10504300E03400FD8E828F83125E66126588603EB7
:10505300EE240A1251B2124A667468124A98E81290
:1050630051AC39F5837402F0901A3F1211298C82E6
:105073008D8312605F125C513CF58312110590849D
:105083002278081210CB901A3F7808120FD51252CB
:1050930028705D901A0D1251D8A3A3A3A3A3A3A3B1
:1050A300A3A3A3125C87121855E97010125C4590F4
:1050B3001A0D125C57700512658860348E828F83D7
:1050C300A3A3A3A3A3A3A3A3A3A31251D8124C2BBB
:1050D300121C9FE960118E828F83A3A3A3A3A3A3B2
:1050E300125214E4F0A3F08E828F831251FAE4F08B
:1050F30012522860030251A78E828F83A3A3A3A316
:10510300A3A3127A02901A54E0600302519C901AEE
:1051130086E06401600302519C750A3A750B0078BE
:105123000A120E177402120EAD880A890B780A123E
:105133000E17127001120E2AE9705BE508240E1295
:1051430062B77401125242C0E0E50824111262B73B
:10515300D0E0F0E508240F1262B7743A124A98902F
:105163001A3B121129E50824121262B71211059095
:10517300842278081210CB901A3B7808120FD5902E
:10518300842278081210CB901A3B7808120F4870CB
:10519300081251E980031251CA1252287006125B99
:1051A3004874A1F0740B02693A240EF582E422F8E4
:1051B300E43FF9E8FCE9FD8882F58322EA1251C451
:1051C30022240FF582E422E5081251C43509F58340
:1051D300E4F0A3F02212756D8E828F83221251E4C4
:1051E30022123F79E8227A007B029018E6E0F91256
:1051F3001717228A828B83A3A3A3A3A3A3A3A3A387
:10520300A312520822124A3B240EF582E438F58396
:1052130022A3A3A3A312521C22124A3B240FF582FA
:10522300E438F583228E828F83A3A3A3A3A3A312BF
:105233004A33240FF582E438F5831251E4492212EC
:10524300524622F0852182852283E02274F61209D8
:1052530049EAFEEBFF7A237B0012176BEE240AF573
:1052630008E43FF5098508821260707C237D00798C
:10527300001216C385088285098312523D7003020A
:105283005310EEFAEFFB12201712522860748E822D
:105293008F8312534364018E828F83A3A3A3A3A39B
:1052A300A37007125339740E802112523D701012ED
:1052B3006588700B8E828F83A3A3E0A2E050071250
:1052C300532F740D800512532F740512659A5403DE
:1052D300640170071253177405800B901A55E0C0D0
:1052E300E0125317D0E0125352F58388821256AD61
:1052F300850882850983124A2312600438F583E9FD
:10530300800E8508828509831260E9800312602C70
:10531300F0023F6A8E828F83A3A3A3A3A3A3A3A3B5
:10532300A3A312532922E012604BA3228E828F8300
:10533300A3A3A3A3A3A3124A3312600A38F58322BB
:10534300A3A3A3A3A3A3A3A3A3A3125208E022127C
:10535300535622126AD9F8A3E022EA1253653BF5A9
:105363008322240CF582E42274F112094974E412B5
:105373000EDD8A0C8B0D8C088D097A237B001217A6
:105383006B8A0A8B0BAE0AAF0BEA4F7003025668A7
:10539300126010E5082415125699687003A3E0699A
:1053A3008E828F837004740280027401F0E50824F6
:1053B3000DF8E43509F98882F583E0FAC3E49AFA33
:1053C30095E0FB1256952AFAA3E03BFB8E828F836E
:1053D300A3A3A3A3125C6E8E828F83A3A3F0EE24F8
:1053E30020F582E43FF583E4F0EE2421F582E43FE7
:1053F300F583E4F0EEFAEFFB1220CB8508828509F2
:10540300831256B470098E828F83A374058006902D
:105413001A551256A2F0EE2417F50AE43FF50B8E47
:10542300828F831256ADE9850A82850B83F0EE24C1
:1054330016F8E43FF9E508240EFAE43509FB8882FF
:105443008983124A80E5082410FAE43509FB850AAA
:1054530082850B83E0FC88828983E0F88A828B83D0
:10546300E0C398C39CF81256EEF0EEFCEFFDAA0CD5
:10547300AB0D122011E9F50B8E828F83E06402706D
:1054830006125C45125672E50B600302565F750CFB
:1054930000750D00901C73E064016005E064027008
:1054A3003F1256846008EE242112568770328E8292
:1054B3008F83A3A3A31260321256BAEE2416125698
:1054C300801256E3FAE439FB123D72EA4B60111283
:1054D3006894120E131256C8AA0C126D32120E2AB9
:1054E300EEFAEFFB1220D7E9F50B901C73E0640191
:1054F3006008E064026003025652E97003025652E8
:10550300E50C450D700302565F8003850E0B1256A2
:1055130084600BEE24211256876003025658850BD4
:105523000E850C08850D09750A007808120E1312F2
:1055330056C88E828F83A3A3A3A3127A4B120E2A7B
:10554300EE2420125680600D12568D7468124A980C
:10555300EE24208015EE2421125680601512568DFC
:105563007403F0A37401F0EE2421F582E43FF58384
:10557300E4F0EEFAEFFB1220D7E9F50B70907C1301
:105583007D0079007409120EB51216C3741A121134
:105593004074011256F964687002A3E0704F8E8262
:1055A3008F83125214E06405600302550E7C087960
:1055B300FF8E828F83A3A3A3A3E0242A125C8A1203
:1055C300174DE9700302550E7C087D0079FF7401C5
:1055D300120EB51216C37401120EBD7A007B007948
:1055E300AB121FF3741912114074FC801512568DFF
:1055F300E064037004A3E06401700874191211409D
:1056030074FFF0E4F508F5097808120E1774021216
:105613000EBD7413121140AA82AB8312616F120E76
:105623002A852182852283E0602B7409120EAD88BE
:105633000889097808120E17750813750900780888
:10564300120E177C007D001269E2120E2A8006E515
:105653000C450D6007AA0CAB0D121771EEFAEFFBA8
:105663001217718003750B10A90B741C027662EE7E
:105673002406FAE43FFB12185B22EE240C125701B6
:1056830022EE2420125701640122EE1251C43FF589
:105693008322E508240EF582E43509F583E022121E
:1056A30056A7A322E08E828F8322A3E0F912211949
:1056B30022E054036401221256BE22E0FAE82AF8DB
:1056C300E43400F9228E828F83A3A3A312603612DF
:1056D30056BEEE24161257011256E3FCE439FD229E
:1056E300FAE82AF8E439F9E82404221256F22212DD
:1056F30065A9A3A3A322F01256FE22EE240FF5827E
:10570300E43FF583E0227901020DF774F4120949AD
:10571300EAFEEBFF8A82F583A3A3A3A3A3A3A3A318
:10572300124A232424F582E438F5831256B4702EEA
:105733008A828B8312534370251257DCE064057011
:105743001D1257DCA3E0F8740168600574066870E5
:10575300071251F6740280051251F67403F0EA241D
:105763000A1260DD126046E4F0EA2408F8E43F120E
:1057730030CC2431F582E43AF583E0C0E0126D7D4C
:10578300A3A3D0E01257FBCA242EF582E43AF58393
:10579300E0C0E0126D7DA3A3A3D0E0125D21C81287
:1057A30057D638123F6F126D7D1257F08A0A8B0B52
:1057B300AC0AAD0B850882850983125C8712185BDE
:1057C300850882850983124C2B1220D71260D8F0EA
:1057D3000230E2240BF582E4228A828B83A3A3A303
:1057E300A3A3A3A3A312656FF583888222A3A3A314
:1057F300A3124AC212224522125C63FAA3E02202D8
:105803005709C082C083901A2F741DF0A37420F02F
:10581300901A317429F0A37420F0901A33742FF086
:10582300A37420F0901A357423F0A37420F0025B64
:105833000C74F4120949EA2408FEE43BFF8E82F556
:10584300831251E012601CE0F50874035508F50952
:10585300125C82F8A3E08882F583E508F0A3A882AE
:10586300A983E5096009740265096003025921747B
:105873000C5508FC600A74086C600574046C70268F
:10588300740265097006E508A2E4401A8A828B83D4
:10589300A3A3A3A3A3A3A3A3125A271267753D121D
:1058A30059C2A308A983740C6C701C125A232428B0
:1058B300125A0F2428F582E43DF583A31263A3F063
:1058C300E82402F8500109740265097006E508A28C
:1058D300E4404B125A23242A125A0F242AF582E455
:1058E3003DF583A31259D1125A2D1263A3125A2DD7
:1058F300A31259C9E82404F8500109EC600F740895
:105903006C600A740C6C600574046C701112605343
:105913002426F582E43C1259C2A3A882A9838A8271
:105923008B83A3A3A3A3A3A3A3A31259F15403702B
:1059330014E508A2E1400E1260531259BC3CF583F2
:10594300E0548060081259D71259C48019901A0381
:10595300E0C0E01259D7D0E0125A0488828983123A
:105963005A0404125C68A3A882A983E508A2E7503D
:10597300458E828F831259F188828983125A0A12C3
:1059830059F6540360301260532434F582E43C1218
:1059930063A1F0E508A2E1501D8A828B83A3A3A330
:1059A300A3A3A3A3A31230D12435F582E43A12634F
:1059B300A1A3F0E824030230E2241EF582E422F5D9
:1059C300831259D1F0221259D1A3A3A3F022E08864
:1059D300828983228A828B83A3A3A3A3A3A3A3A3E2
:1059E300E0FCA3E0CC2432F582E43CF58322E01210
:1059F30059F622FCA3E0CC2425F582E43CF583E0B0
:105A030022F0901A03E0221265A5E022F582E43D1C
:105A1300F5831259D1125A1C221265A9125A272250
:105A23008E828F83E0FDA3E0CD22A3125A1C242C87
:105A3300F582E43DF58322C082C0838A828B831280
:105A43005AFCFC74035CF98A828B83A3A37401F070
:105A5300E960057402697061740C5CF8600A74088B
:105A630068600574046870137402697005ECA2E43D
:105A730040098A828B83A3A37402F0740C68700AB2
:105A83008A828B83A3A3E02402F07402697005EC7D
:105A9300A2E440258A828B83A3A3E02404F0E86078
:105AA3000F740868600A740C6860057404687009F0
:105AB3008A828B83A3A3E004F0ECA2E7502A8A82B4
:105AC3008B83A3A3E004125B021235DBE054036073
:105AD300178A828B83A3A3E004F0ECA2E150098A26
:105AE300828B83A3A3E004F08A828B83A3A3E004C5
:105AF300F08016852182852283125329A3E022F0A8
:105B03008A828B83E022120E2AD083D082020DF781
:105B1300C082C0838A828B83A3A3A3A3A3A3A3A3CB
:105B2300A3A312523D60098A828B83A3A3125B3520
