:020000040000FA
:060000000210DD0205F50F
:03001B000206B129
:03002B00020EBA08
:03004300020D5457
:0300530002052A79
:030073000207067B
:100083000205890100F0FF0700080000FFFF0000E0
:100093000504000000030001FF1E102700000020DC
:1000A300FD000206FFFF1E00800080B21A00000060
:1000B3000000000000000000000000E80300000052
:1000C30000E803000000000F0000000F0000000123
:1000D30004010C0002033184016B8501040000E17B
:1000E30018000000E8030000FFFF32198813000026
:1000F300E803000064006400B801A0BB0D00A0BBCE
:100103000D00020202070401071E02051E020A0A6D
:10011300010108080103B80B02803E0102FEFFE85B
:10012300030A050001FFFF020A011401E0020000B7
:1001330000050301010F0300030003000300030094
:10014300030003000300030005000A001400280055
:100153004F009E000000BA2C000000008E2B000010
:100163000000FF000000FF0012110B60461211296E
:10017300603DE9687008F618F618F618F6227480E0
:1001830067F712019F090909748067F72212112981
:10019300601D12110B7005191919801A120FED70D9
:1001A3001F120FD9C37003E66733191919400718D3
:1001B30018182208080874FFF618F618F618F6221D
:1001C300120FD960171211C1702192F01211AF7082
:1001D30019501720F014080808090909E7F6181937
:1001E300E7F61819E7F61819E7F6221211AF60E6D9
:1001F300E869701F0808E62480F608E436F6185408
:100203007FB47F0CE654806007F6E418F618F622F4
:10021300181822E9C6CC08C6CD08C6CE08C6CFC07A
:10022300E0E8C0E0EAC0E0EBC0E009E9F809E7FA7A
:1002330009E7FBE6F918E6F8C3EC98ED99EE9AEBBB
:10024300C2E7F5F0EFC2E795F0500E600CEBCFFB81
:10025300EACEFAE9CDF9E8CCF8EAA2E7D2E7FAEB7D
:1002630033FB13F5F0EEA2E7D2E7FEEF33FFC5F061
:1002730013A2E730E601B313C5F0C3C0E0C0F07FBB
:1002830000C39BFB605E9418600F401D14601AD07E
:10029300E023F9D0E0F80203718AF0E9486003D261
:1002A300F0E4AFF0FAF9F8803BEB30E40D89F0EAC3
:1002B3006003D2F0E4AFF0F9CAF8EB30E30D88F055
:1002C300EF6002D2F0AFF0E4CAC9F8EB5407601450
:1002D300FBC3EA13FAE913F9E813F8EF135002D258
:1002E300E0FFDBEDD0E0C0E030E739C3E49FFFF58A
:1002F300F0EC98FC42F0ED99FD42F0EE9AFE42F0EC
:10030300D0E0F9D0E0F8E5F0607AE923F9EE20E7F0
:1003130042D8028067C3EF33FFEC33FCED33FDEECD
:1003230033FE80EAEC28FCED39FDEE3AFED0E02303
:10033300F9D0E0F84002801BC3EE13FEED13FDEC91
:1003430013FCEF135002D2E0FF08B800067F7F745E
:10035300FF802EEF3350178CF020F00260100CBC9E
:10036300000C0DBD00080EBE000408E860DFE93391
:10037300E813FFEE2313FE4F4D4C8008E95480FF32
:10038300E4FEFDFCEE33EF33F47004FCFD7E80D01D
:10039300E0FBD0E0FAD0E0F8D0E0CFC618CEC61824
:1003A300CDC618CCC6F92200121129604F12110BC9
:1003B3006012E7548066F6120FED70111211C170CE
:1003C3003B090909F4F618F618F618F622120FD9A4
:1003D30070151211AF08080860EAE6447FF6187634
:1003E3008018E4F618F6221211AF60161211C170CC
:1003F30012E4F608F608F608E65480F60909091827
:10040300181822EAC0E0EBC0E0ECC0E0EDC0E0E683
:1004130087F0A4FBACF008E687F0A42CFCE435F0ED
:10042300FA1809E687F0A42C4B60027401CA35F070
:10043300FCE433FB09E687F0D2F7A42CCB35F0FCC0
:100443001908E687F0A42BCC35F0FBE433FD08193B
:10045300E687F0D2E7A42C4ACB35F0CD3400FC0973
:10046300E687F0D2E7A42DCC35F0FDE433FA091882
:10047300E687F0D2F7A42CCD35F0CA3400FC08E6A9
:1004830087F0D2E7D2F7A42ACC35F07A7E20E70BA7
:100493000ACB33CBCD33CDCC33CC33CB33501470E9
:1004A30004ED30E00ED2F1E4CD3DCDCC3CCC3B505D
:1004B30005DA05C2F1EB547FC63308E63392F0FB4D
:1004C300E73309E733C39A502D2B70190C0D4C4DAC
:1004D30070151806E608C333700D20F10AA2F01355
:1004E300F6E418800B4024E4F630F002768018F628
:1004F30018F618F68024D33B14501074FFA2F0139F
:10050300F6187680E418F618F6800FA2F013F618A2
:10051300E63303F618ECF618EDF6D0E0FDD0E0FC78
:10052300D0E0FBD0E0FA22C0E074F11209B8A2AF28
:10053300E433F509D2AF85A708AFA1EF5508FE74E0
:10054300105E60061214A075A1EF74085E600812B5
:1005530014A675A1F78024EFA2E092F0E508A2E0CB
:1005630082F05017906198E0F8900B47E0C398A28F
:10057300D265D0335002E8F075A1FEE509A2E092FE
:10058300AF7F02020A17C0E074F21209B8A2AFE407
:1005930033FED2AF9061A4E0F8759B00E591585407
:1005A3000860087591F71214F48023E591585410EC
:1005B30060087591EF1214FA8014E591A2E092F0AD
:1005C300E8A2E082F05007E0C2E0F0121644906126
:1005D300A3E0F8E5E9585404600E12161A75E9FB16
:1005E300906193E0A2E640F2EEA2E092AF7F0102B7
:1005F3000A17C0E074F21209B8A2AFE433FED2AF17
:100603009061A5E0F8E5BF585404600675BFFB127E
:10061300165C80D4C3E498F8E499F912065880264E
:10062300C3E49AFAE49BFBE920E7E9120658E4984D
:10063300F8E499F922C3E498F8E499F9120658E426
:1006430098F8E499F9C3E49AFAE49BFB22EB20E7D8
:10065300CFE920E7E0B90010BB0008E88AF084F88E
:10066300AAF022E4FBC8FA22EB70227B10C833C83D
:10067300C933C9335007C39AC3DBF280069A5001CA
:100683002ADBEAC833F4C8C933F4C9FA2275F0087F
:10069300E4C833C8C933C933C99AC99B5004C92AAA
:1006A300C93BD5F0ECFBC833F4C8E4C9FA22C0E077
:1006B300C0D0E8C0E0E9C0E0C082C083A8F9E8C0C8
:1006C300E0900AB4E0F8743328F582E4340AF58341
:1006D300D0E0F0900AB3E0F8A3E0687006E59590E7
:1006E3000AB6F0900AB4E004F0C394804002E4F048
:1006F300A374C6F0D083D082D0E0F9D0E0F8D0D094
:10070300D0E032C0E0C0D0E8C0E0E9C0E0C082C0C1
:1007130083900B37E0F8A3E0687008539AF7A3744B
:10072300018022C2EA900B37E0F8740128F074B715
:1007330028F582E4340AF583E0F5F9900B37E0C33A
:1007430094804002E4F080AC12079630F03912072F
:10075300DB803412079620F01430E72B74FFFCFB88
:10076300FA747F8022E4FCFBFA7480801AB4800858
:10077300BC00F2BB00EF800F50EBF9E4C39AFAE43C
:100783009BFBE49CFCE499C6CC18C6CB18C6CA18DC
:10079300C6F922E4C9C608CAC608CBC6D3330308C0
:1007A300CCC63392F0C3947F402E94184019C9B934
:1007B3000704CACBCC225025C309CA33CACB33CBD7
:1007C300CC33CC33D9F422F4600DC9CCC313CB138F
:1007D300CBCA13CAD9F6CC22E4FCFBFA2214FCFBE5
:1007E300FA22080808EAC0E0EBC0E086F0E7A4FAC2
:1007F300180986F0E7A42AFA180986F0E7A42AFA6A
:10080300180986F0E7A42AFA1986F0E7A4FBE5F0B5
:100813002AFA190886F0E7A42BFBE5F03AFA19083F
:1008230086F0E7A42BFBE5F03AFA18180986F0E7FF
:10083300A4C5F02BFBE43AFA1908E7C5F0C6A426D1
:10084300F6E5F03BFBE43AFA1886F0E7A4F6E5F0A8
:100853000826F6E43B08F6E43A08F6D0E0FBD0E0DD
:10086300FA22080808E630E711120F9D12087D08E6
:100873000808C64480C618181822181818E9799E63
:10088300C608CAC608CBC608CCC6C370207996CAA8
:10089300CBCC7019798ECBCC70137986CC700EF9D2
:1008A300802ACA33CACB33CBCC33CC331930E7F2EB
:1008B300CCCBCA3350147004EA30E00DE4CA3ACA10
:1008C300CB3BCBCC3CCC500209C3E913C6CC182399
:1008D30013C6CB18C6CA18C6F922E4CFC0E0E4CECB
:1008E300C0E0E4CDC0E0E4CCC0E075F020E626F63D
:1008F30008E633F608E633F608E633F6181818EC7C
:1009030033FCED33FDEE33FEEF33FFC3EC9709ED1C
:100913009709EE9709EF97191919400FFFEC97FC08
:1009230009ED97FD09EE97FE191906D5F0BFECF70F
:1009330009EDF709EEF709EFF7191919D0E0FCD023
:10094300E0FDD0E0FED0E0FF222521C582C0E0E536
:100953002234FFC583C0E0E521C3958224F810AF9C
:10096300088583228582218008858322858221D27E
:10097300AFCEF0A3E520F0A37808E608F0A3DEFAF3
:10098300EFF0A3E58124FAF8E608F0A3E608F0A364
:10099300E608F0A30808E608F0A3E608F0A315812B
:1009A3001581D0E0FED0E0F8158115811581E8C0EE
:1009B300E0EEC0E022C0D02521C582C0E0E52234AC
:1009C300FFC583C0E0E521C3958224F310AF0885FA
:1009D30083228582218008858322858221D2AFC824
:1009E300F0A3E9F0A3EAF0A3EBF0A37908E709F099
:1009F300A3D8FAECF0A3EDF0A3EEF0A3EFF0A3D0AD
:100A0300E0F0A3D0E0F0A3D0E0F0A3E520F0A3E56D
:100A1300F0F0A322852283852182E0C0E0A3E0F9E0
:100A2300A3E0FAA3E0FBA37808E0F608A3DFFAE06B
:100A3300FCA3E0FDA3E0FEA3E0FFA3E0C0E0A3E08E
:100A4300C0E0A3E0F5D0A3E0F520A3E0A3F5F01008
:100A5300AF088583228582218008858322858221B0
:100A6300D2AFD082D083D0E0F8D0E03212119AB95D
:100A73000003020AAEE490050178CE79178002F0F4
:100A8300A3D8FCD9FA7ACE7B1B90008678E679014D
:100A93008015E493A3AD82AE838A828B83F0A3AAED
:100AA30082AB838D828E83D8E9D9E77582FC758307
:100AB300817405120E177582E67583287400120E71
:100AC3001775F0108E238F2485822885832785212F
:100AD30082852283E0CEA3E0CF852882852783EB1E
:100AE300C9EAC8EDCBECCAC3E833C8E933C9EA3372
:100AF300CAEB33CBC3EA9EF526EB9FF525B350042F
:100B0300AB25AA26EC33CCED33CDD5F0DAAE23AF4B
:100B13002422121129601C12110B60171211AF70DD
:100B2300071211C17001D322C0D01211C17006D0B7
:100B3300D0B322C32233D0D0501430E0F6C3E796AB
:100B43000809E7960809E7960809E796B32220E023
:100B5300D5E6970809E6970809E6970809E697B3E3
:100B630022D083D082ECC0E0EDC0E0E493A3FCE4A8
:100B730093A3FDED4C600D120C3CEC24FFFCED3413
:100B8300FFFD80EFE493A3FCE493A3FDED4C600D24
:100B9300120CD9EC24FFFCED34FFFD80EFD0E0FD17
:100BA300D0E0FCE493A3C0E0E493C0E022D083D080
:100BB30082E9C0E0E493A3C386F0C5F095F0F90899
:100BC300E493A386F0C5F095F0700BE493A3C39967
:100BD3004005E9048002A3E475F002A42582F582AE
:100BE300E5F03583F583D0E0F9E493A3C0E0E49323
:100BF300C0E022852283852182E0A3FEE0A3F520C5
:100C03007808E0A3F608DFFAE0A3FFE0A3C0E0E082
:100C1300A3C0E0E0A3C0E0E0A3C0E0E0A3C0E01015
:100C2300AF088582218583228008858221858322DE
:100C3300D2AFD083D082020E1DC0E0C3E4939608E6
:100C43007401939618400FE4936670080874019337
:100C5300661870007019A3A3C3E4939608740193F4
:100C63009618A3A3400DD0E0D0E0D0E0020BA0A3E0
:100C7300A3A3A3A3A3D0E02274048004740280007E
:100C8300CCC0E0EDC0E0E521C39CCCAD2250011DFA
:100C930010AF068C218D2280068C218D22D2AF12BB
:100CA3000D99D0E0FDD0E0FC2274028000CCC0E0BE
:100CB300EDC0E0E521C39CCCAD2250011D10AF0671
:100CC3008C218D2280068C218D22D2AF120D77D0FC
:100CD300E0FDD0E0FC22C0E0C0F088F0E493667051
:100CE300080874019366187000A8F0A3A3700BD0D2
:100CF300F0D0E0D0E0D0E0020BA0A3A3D0F0D0E08E
:100D030022D083D082CCC0E0E493A36006120DD935
:100D13001470FAE493A36006120F1D1470FAD0E066
:100D2300FCE493A3C0E0E493C0E022C008C3E096D0
:100D3300F50808A3E096420808A3E096420808A332
:100D4300E0964208A2D265D033E5087001D3D008FB
:100D530022C0E074F21209B8A2AFE433FED2AFC2EC
:100D6300C0E5D1A2E45003121404EEA2E092AF7FD7
:100D730001020A17CAC0E0E493A3C582CCC582C5A9
:100D830083CDC583F0A3C582CCC582C583CDC5837E
:100D9300DAE5D0E0CA22CAC0E0E0A3C582CCC582AE
:100DA300C583CDC583F0A3C582CCC582C583CDC51C
:100DB30083DAE6D0E0CA2270090808082260161810
:100DC3001818C6C333C608C633C608C633C608C612
:100DD30033C6D5E0EA22C0E0E493A3D39C5010E4E9
:100DE30093A3C39C400AD0E0D0E0D0E0020D21A33E
:100DF300A3A3D0E022C008C3E096F50808A3E096B9
:100E0300420808A3E096420808A3E096450870014B
:100E1300D3D00822C09FF59FE473D09F22D083D004
:100E230082C09FE493C0E0740193C0E0740293F521
:100E33009F227404800A7403800674028002740182
:100E4300C0E0F404120E6BD0E01211382200C0D0BF
:100E5300252110AF08F521500C05228008F52150FB
:100E6300020522D2AFD0D0222521F58210AF08F59A
:100E730021400C15228008F52140021522D2AF85AE
:100E8300228322BB0102E722C082C08389828A8334
:100E9300BB0003E08002E493D083D0822260170872
:100EA3000808C6A2E713C618C613C618C613C61881
:100EB300C613C6D5E0E922C0E0C0D0E8C0E0A8A8C8
:100EC300D2AFC2C7E8A2E792AFD0E0F8D0D0D0E06B
:100ED300326016080808C6C313C618C613C618C658
:100EE30013C618C613C6D5E0EA222521F8E4352235
:100EF300F9222521FAE43522FB222521FCE43522BF
:100F0300FD22C3E0C696F608A3E0C696F608A3E062
:100F1300C696F608A3E0C696F622C0E0E493A36C57
:100F23007009D0E0D0E0D0E0020D21A3A3D0E022ED
:100F3300252110AF08F521400C15228008F521402A
:100F4300021522D2AF22C3E7960809E7960809E7FC
:100F5300960809E796A2D265D03322E76670100897
:100F630009E766700A0809E76670040809E766225C
:100F7300C3E09608A3E09608A3E09608A3E096A230
:100F8300D265D03322E066701008A3E066700A08C9
:100F9300A3E066700408A3E06622181818E4C39659
:100FA300F608E496F608E496F608E496F622C3E01B
:100FB30096F008A3E096F008A3E096F008A3E09665
:100FC300F022C3E4939608740193960874029396EF
:100FD300087403939622191919E70947097009E759
:100FE30027097005E733F4220922181818E6084682
:100FF300087009E626087005E633F4220822C3E6E2
:1010030097F60809E697F60809E697F60809E697BA
:10101300F622E026F008A3E036F008A3E036F00855
:10102300A3E036F022E026F608A3E036F608A3E0B4
:1010330036F608A3E036F622E627F60809E637F681
:101043000809E637F60809E637F622700422600D30
:1010530018C6C333C608C633C6D5E0F41822E6471C
:10106300F60809E647F60809E647F60809E647F6EB
:1010730022E056F608A3E056F608A3E056F608A3C6
:10108300E056F622E657F60809E657F60809E6574A
:10109300F60809E657F622E056F008A3E056F008F2
:1010A300A3E056F008A3E056F022C6F4C608C6F43F
:1010B300C608C6F4C608C6F4C622C3E7960809E7FD
:1010C300960809E7960809E79622C3E09608A3E085
:1010D3009608A3E09608A3E0962275D00075813F99
:1010E30075210175220500020A6F600C08C6C3133F
:1010F300C618C613C6D5E0F422E6F008A3E6F00846
:10110300A3E6F008A3E6F022E7094709C31347095A
:10111300336002E733F422E0F608A3E0F608A3E025
:10112300F608A3E0F622E6084608C3134608336030
:1011330002E633F422CAC0E0E6F0A308DAFAD0E00C
:10114300FA22800100E9F874FF28F90470F622E01E
:10115300FAA3E0FBA3E0FCA3E0FD22ECF0A3EDF097
:10116300A3EEF0A3EFF022E0F8A3E0F9A3E0FAA3E3
:10117300E0FB22E8F0A3E9F0A3EAF0A3EBF022E01E
:10118300FCA3E0FDA3E0FEA3E0FF22EAF0A3EBF063
:10119300A3ECF0A3EDF022E5C754F84401F5C779B9
:1011A30001222521F582E43522F58322E62618461D
:1011B3001846184622C2AF75D69F02000022E727C1
:1011C30019471947194722120E2006DB02120E2077
:1011D3009ADB02120E204BDC02120E209CDC021260
:1011E3000E20E0DC02120E207ADD02120E20EADD70
:1011F30002120E2019DE02120E201FDF02120E2031
:1012030049DF02120E209DDF02120E2071E002124E
:101213000E209FE202120E204DE302120E20BAE5C9
:1012230002120E203FE602120E2042E902120E20A5
:1012330076EB02120E20B2EB02120E200BED02121D
:101243000E201EED02120E205BED02120E2024EF83
:1012530002120E20DBF002120E2057F102120E20B2
:101263008AF102120E20B8F102120E20F6F10212D8
:101273000E2033F402120E2052F402120E2097F4C1
:1012830002120E202DF502120E2079F502120E2005
:101293000DF602120E20E6F602120E2042F702129B
:1012A3000E20A0F702120E2013F802120E2057F898
:1012B30002120E20AFF802120E20D1F802120E20F5
:1012C30061F902120E20F2F902120E203EFA021206
:1012D3000E206AFA02120E20ABFA02120E2041FC13
:1012E30002120E202DFD02120E2008FE02120E2005
:1012F30050EA04120E2083EA04120E20A3EA041219
:101303000E20CAEA04120E20F7EB04120E2018EC8A
:1013130004120E20E0EC04120E20D58C05120E20D0
:10132300DA8C05120E200D8D05120E200080051299
:101333000E20C78005120E20D98005120E205F8D66
:1013430005120E20708D05120E208A8D05120E20B7
:10135300F57F00120E20E7FF02120E2071FF01122B
:101363000E2081FF01120E2096FF01120E20DFFFD7
:1013730001120E20E2FE02120E2066FF02120E2060
:10138300CEFF02120E206BFA04120E207FFA041213
:101393000E20F5FA04120E2044FB04120E2079FBF2
:1013A30004120E209CFB04120E20BFFB04120E201D
:1013B300F8FB04120E2029FC04120E2070FC041208
:1013C3000E20D18D05120E20C3E304120E20D1E3AB
:1013D30004120E204AE404120E2023E504120E2008
:1013E300E6E604120E20998D05120E20B6C40412EF
:1013F3000E2022C504120E20C5C504120E203AC7C2
:1014030004120E20A1C704120E20EEC704120E20F0
:1014130047C804120E20CBC804120E2000C90412C0
:101423000E201EC904120E20A4C904120E2027CABE
:1014330004120E2034CA04120E2053CA04120E20C2
:101443007FCA04120E20E9CC04120E2029CD041207
:101453000E2065CD04120E2079CD04120E2092CDFC
:1014630004120E2084CE04120E2037CF04120E2055
:101473004BCF04120E20E18305120E2005840512C2
:101483000E201E8405120E205C8405120E208C840F
:1014930005120E20B98405120E201F8505120E2099
:1014A300228505120E202C8505120E203985051282
:1014B3000E2031F304120E2051F304120E2090F388
:1014C30004120E20AEF304120E20C9F304120E20F0
:1014D3002FF404120E203BF404120E2098F404128D
:1014E3000E20A7F404120E20CBF404120E208CF568
:1014F30004120E2099F504120E20AAF504120E20F0
:10150300DF8A05120E20278B05120E20538B05123E
:101513000E20A1CF04120E20FBD004120E2009D1FD
:1015230004120E201CD104120E2031D104120E20FD
:1015330046D104120E2059D104120E20D5D1041223
:101543000E203AD204120E20D0D204120E20A9D3B8
:1015530004120E20B9D304120E20C8D304120E2095
:10156300468A05120E206A8A05120E20928A0512F7
:101573000E20BA8A05120E20D8F504120E20FFF5AC
:1015830004120E201DF604120E208CF604120E20F7
:101593005EF004120E2077F004120E2083F0041282
:1015A3000E2097F004120E20B5F004120E20BFF0A7
:1015B30004120E20C9F004120E20DCF004120E20D7
:1015C30062F104120E20D7F104120E2006F2041267
:1015D3000E2054F204120E20A3F204120E20BEF2C7
:1015E30004120E20C8F204120E20D9F204120E20A7
:1015F3001CF304120E20828C05120E2047B4041231
:101603000E2073B404120E2090B404120E20A3B45F
:1016130004120E20BEB404120E2018B504120E20BC
:1016230046B504120E2056B904120E20B4BA0412A1
:101633000E20E6BA04120E2049BB04120E20B5BCDC
:1016430004120E20DDBC04120E20F2BC04120E2084
:1016530002BD04120E2042BD04120E2084BD0412EA
:101663000E2094BD04120E20838605120E209D8643
:1016730005120E20C58605120E20DE8605120E20E9
:10168300028705120E20208705120E2037870512C8
:101693000E20658705120E20808705120E201B8DF4
:1016A30005120E203AE004120E204AE004120E2026
:1016B3004FE104120E2081E104120E20B1E1041265
:1016C3000E20D4E104120E20EBE104120E2025E2D9
:1016D30004120E208AE204120E20CCE204120E2021
:1016E30013E304120E2040E304120E206BE30412F2
:1016F3000E20A0FE04120E20B2FE04120E20C6FF1E
:1017030004120E20C9FF04120E20B38805120E2006
:10171300E98805120E202B8905120E203B8905123C
:101723000E207F8905120E20C4BD04120E2007BEB1
:1017330004120E206CBE04120E208BBE04120E2067
:101743002DBF04120E2036BF04120E2087BF0412D1
:101753000E20B0BF04120E20BDBF04120E202FC0F6
:1017630004120E20BDC004120E2002C104120E206A
:101773003BC104120E20A0C104120E20C9C10412E1
:101783000E2040C204120E208FC204120E20CCC2BF
:1017930004120E2001C304120E2013C304120E20E0
:1017A30025C304120E2044C304120E204DC3041299
:1017B3000E2009C404120E204CC404120E208AC445
:1017C30004120E20CB8B05120E20438505120E202A
:1017D3002DF804120E2063F804120E20ABF8041245
:1017E3000E2004FA04120E20008004120E2026811B
:1017F30004120E20628104120E20208304120E2094
:101803004E8304120E20B88504120E20F8850412AC
:101813000E209A8704120E20308804120E208A8824
:1018230004120E201A8904120E205E8904120E205F
:10183300A08904120E20058B04120E20858C04123D
:101843000E20C68E04120E20F48E04120E20208F5A
:1018530004120E20298F04120E20868F04120E20EC
:101863001F9004120E20369304120E20BC93041210
:101873000E20E8FF01120E20D87B00120E20EE7B13
:1018830000120E20927C00120E20D17C00120E203A
:10189300EE7C00120E201F7D00120E206C7D0012C4
:1018A3000E20A07D00120E20DB7D00120E20D07FC3
:1018B30000120E20B38705120E20128805120E2087
:1018C300508805120E20918805120E208AFC0412FE
:1018D3000E20C8FC04120E20F1FC04120E202CFD75
:1018E30004120E208DFD04120E209FFD04120E2003
:1018F3006BFE04120E20DD7F00120E2015B30312BF
:101903000E2049B303120E2020B503120E20BFB6DA
:1019130003120E20FEB703120E20D3B803120E20BB
:1019230017BA03120E204DBA03120E2009BB03127D
:101933000E208CBD03120E20B0BE03120E20D3BEA8
:1019430003120E2066C203120E20DDC403120E2002
:1019530009C503120E2095C503120E20BCC5031240
:101963000E20F7C503120E20D2C703120E20898959
:1019730005120E206AC201120E2076C201120E2039
:10198300D8C201120E20E2C201120E2071C301124D
:101993000E20ADC301120E20A6C401120E2003C5F2
:1019A30001120E2091C501120E20E2C501120E2074
:1019B30062C601120E2024C801120E2029CA011288
:1019C3000E2023CB01120E2055CC01120E20A7CEE0
:1019D30001120E20EACF01120E208FD001120E2029
:1019E3003DD501120E2033D601120E20C9D60112A5
:1019F3000E20EED601120E208BD701120E20A8D78F
:101A030001120E20C8D701120E2036D801120E2063
:101A130053D801120E2081D801120E2019DA0112B7
:101A23000E203ADA01120E20E0DA01120E2028DB32
:101A330001120E2086DB01120E2029DC01120E207A
:101A43008EDC01120E20EDDC01120E209FDD01124F
:101A53000E200EDE01120E2049DE01120E20BDDE25
:101A630001120E2008E001120E2098E101120E204F
:101A730037E201120E2077E401120E20D9E401129D
:101A83000E2007E501120E202AE701120E20D4E9E9
:101A930001120E20E7EA01120E2056F503120E2062
:101AA30089F603120E2051F803120E202AF90312AD
:101AB3000E2044F903120E2057F903120E2076F973
:101AC30003120E203FFA03120E20A2FB03120E2074
:101AD30062FC03120E20CCFC03120E20A5FE03129F
:101AE3000E20ABDC04120E2066DD04120E20CCDDCA
:101AF30004120E20EDDD04120E20C8DE04120E20A7
:101B030034E003120E2063E003120E20DBE0031225
:101B13000E20EAE103120E2046E203120E20B3E385
:101B230003120E20CFE303120E2021E403120E2032
:101B33005FE403120E2072E403120E20CAE40312C0
:101B43000E208CE503120E2008E603120E203FE65A
:101B530003120E2077E603120E20FFE703120E2076
:101B6300DEE803120E202CEA03120E200FEB031201
:101B73000E209BEB03120E20DBEB03120E20FAEB7D
:101B830003120E2045EC03120E2065EC03120E2007
:101B9300FEEC03120E2084ED03120E20DFED031280
:101BA3000E201FEE03120E20B5F003120E20CEF10D
:101BB30003120E2014F203120E2009F303120E2057
:101BC30031F303120E2034F303120E203EF30312FB
:101BD3000E205AF303120E20D4F303120E200DF439
:101BE30003120E2039F403120E2060F403120E20A8
:101BF30084F403120E20F5F403120E2008F50312E9
:101C03000E2037F503120E20568B05120E20628B21
:101C130005120E20968B05120E20F87F00120E205F
:101C230005CA03120E2028CA03120E2075CB031215
:101C33000E20BECB03120E202ACC03120E2088CC1A
:101C430003120E208BCC03120E20DCCC03120E20C9
:101C530051CD03120E20D6CD03120E20D9CD03127F
:101C63000E205ACE03120E209BCE03120E208FB0ED
:101C730004120E2031D403120E2081D403120E203D
:101C830008D803120E203BD903120E20B5DA031233
:101C93000E20A6DA02120E203DDC03120E2092DE85
:101CA30003120E2008EF01120E20B2EF01120E20D4
:101CB3001DF001120E2038F001120E20BDF00112AA
:101CC3000E2017F101120E205EF101120E20C5F154
:101CD30001120E2044F301120E2073F401120E20A0
:101CE300FBF401120E2004F701120E201AD4021283
:101CF3000E2055F801120E2026F901120E20E1FAEA
:101D030001120E2079FC01120E200CFD01120E208F
:101D130032FE01120E20008003120E206380031294
:101D23000E20AB8003120E20EF8003120E204A8197
:101D330003120E20A78103120E20E28103120E204C
:101D4300648203120E20BE8203120E203C8403120F
:101D53000E20BC8403120E20178503120E2031853A
:101D630003120E20528503120E20AC8503120E209F
:101D7300288803120E20478803120E203789031286
:101D83000E206A8A03120E20E98A03120E20258B85
:101D930003120E20948B03120E20498C03120E2083
:101DA300218E03120E20288F03120E20A0900312FF
:101DB3000E20969203120E200C9503120E20E69627
:101DC30003120E20A79703120E201F9803120E2052
:101DD300369803120E202D9903120E20219A031216
:101DE3000E20909A03120E206CED04120E20C3EE07
:101DF30004120E2082EF04120E20EAEF04120E20CA
:101E03002BE704120E2046E704120E208AE7041281
:101E13000E20B0E704120E20D7E704120E20EFE7DE
:101E230004120E2091E804120E20A6E804120E20DC
:101E3300C9E904120E20D2E904120E20DBE90412D0
:101E43000E20E4E904120E20EEE904120E20F9D369
:101E530004120E2005D804120E200AD804120E20F4
:101E63000CD804120E206E8205120E20D4FF03122A
:101E73000E20238C05120E20338C05120E2073D8EE
:101E830004120E2035AC02120E2068AC02120E2092
:101E9300D4AC02120E206FAD02120E200CAE021251
:101EA3000E2051AE02120E2073AE02120E208CAE23
:101EB30002120E20B2AE02120E20D4AE02120E2077
:101EC30012AF02120E2056AF02120E2078AF02128A
:101ED3000E20DAAF02120E20A1B002120E2058B16A
:101EE30002120E20CAB102120E2095B202120E2067
:101EF300E8B202120E204EB302120E2088B3021271
:101F03000E20DAB302120E2048B402120E20B3B42C
:101F130002120E20B6B402120E2037B502120E20A2
:101F2300CEB502120E204EB602120E206DB602126C
:101F33000E20D1B702120E20DEB702120E20EAB82D
:101F430002120E20F7B802120E2000B902120E2060
:101F5300D8BA02120E20F2BB02120E206BBC021280
:101F63000E20DDBC02120E20FFBC02120E2093BD18
:101F730002120E2067BF02120E203EC302120E2071
:101F830052C302120E2062C302120E206CC302124D
:101F93000E2075C302120E207EC302120E2088C3C8
:101FA30002120E20B5C302120E20DEC302120E204F
:101FB300E9C302120E200DC402120E2031C4021214
:101FC3000E209BC402120E20E1C402120E20FEC496
:101FD30002120E207BC502120E20B2C502120E2081
:101FE300F1C502120E203EC602120E20C4C6021212
:101FF3000E2092C802120E2015C902120E20F9C932
:1020030002120E2060CC02120E20B9CC02120E2056
:1020130003CD02120E205ECE02120E2093CE0212C8
:102023000E20E5CE02120E209ACF02120E2049D0C6
:1020330002120E2086D002120E201BD102120E2095
:1020430087D102120E201B2F00120E204D2F0012DB
:102053000E207B2F00120E20513100120E20313240
:1020630000120E20893200120E20C43300120E20FB
:10207300103400120E20393700120E202C3A0012B1
:102083000E207C3B00120E20123C00120E201E3C40
:1020930000120E20503C00120E20D33D00120E20E1
:1020A300843F00120E20184000120E205B400012E5
:1020B3000E20D94000120E20F64000120E202641B9
:1020C30000120E205B4100120E202B4200120E2044
:1020D300D44200120E205A4500120E207A460012F6
:1020E3000E20654700120E20E74700120E201B4CFE
:1020F30000120E20584C00120E20B04C00120E207D
:10210300E34C00120E204D4D00120E20834D0012A1
:102113000E200E4E00120E20664E00120E203D4F72
:1021230000120E20F64F00120E20915000120E20C6
:10213300995300120E20B55400120E205858001265
:102143000E204C5900120E204F5900120E207E59BA
:1021530000120E20845B00120E205D5C00120E2024
:10216300A05C00120E20F65D00120E20355E0012F8
:102173000E20BE5E00120E20F25E00120E20B75F2C
:1021830000120E20CF6100120E20406200120E20BA
:10219300806200120E200E6300120E2030640012C3
:1021A3000E20F26400120E20F96600120E20116751
:1021B30000120E20256700120E205D6700120E200C
:1021C3008B6700120E200A6900120E202F6A00127C
:1021D3000E208C6A00120E203E6B00120E20656BDF
:1021E30000120E202C6C00120E20C46C00120E2064
:1021F300EA6E00120E201F6F00120E20826F001273
:102203000E20B17000120E20597100120E208A7137
:1022130000120E20A27100120E20317200120E2045
:10222300E57400120E20BD7600120E20D97600123E
:102233000E20F57600120E20C37700120E20B67B17
:1022430000120E20738501120E20A58501120E20A7
:10225300948901120E20E08901120E20268A0112B0
:102263000E20C88A01120E20248B01120E20698BC6
:1022730001120E20B08C01120E20C48D01120E200B
:10228300B39101120E20379201120E2044930112D2
:102293000E20A09301120E20909501120E20059698
:1022A30001120E200F9601120E201C9601120E2011
:1022B300479601120E202E9701120E20D897011275
:1022C3000E20569801120E20769801120E209F9828
:1022D30001120E20C19801120E20219B01120E2023
:1022E300E79B01120E202C9C01120E20A99C0112C7
:1022F3000E205A9D01120E208C9D01120E20D29D9C
:1023030001120E200E9E01120E205E9E01120E205F
:10231300B29E01120E20089F01120E20549F01123B
:102323000E20C19F01120E203CA001120E2007A215
:1023330001120E2007A301120E202CA401120E205D
:102343006BA701120E207EAA01120E203BAB0112D5
:102353000E207FAB01120E202FAD01120E2043ADD4
:1023630001120E204DAD01120E2057AD01120E20A9
:1023730063AD01120E207FAD01120E202AAE0112B1
:102383000E2069AE01120E2073AE01120E207DAE37
:1023930001120E20EDAE01120E2038AF01120E20F5
:1023A3004DB001120E20A9B001120E202AB1011264
:1023B3000E20E9B101120E20F2B201120E2026B452
:1023C30001120E2014B501120E202CB501120E209D
:1023D30087B501120E20A5B501120E20EDB501122D
:1023E3000E2014B601120E20AFB601120E2075B7DF
:1023F30001120E2007B801120E2081B801120E201F
:102403009BB901120E2048BA01120E2070BB0112B3
:102413000E20C0BB01120E2024BC01120E2086BC6C
:1024230001120E20B4BC01120E20D8BC01120E20E2
:102433000DBD01120E203EBD01120E2071BD011211
:102443000E2091BD01120E20F9BD01120E20EDBE2A
:1024530001120E2048BF01120E2071BF01120E207F
:10246300F9BF01120E207CC001120E20A7C0011279
:102473000E208CC101120E201B9404120E205394C3
:1024830004120E20749404120E20B69404120E202B
:10249300189504120E20229504120E203295041270
:1024A3000E206D9504120E204D9904120E203A9BB6
:1024B30004120E20209D04120E20B79D04120E203C
:1024C300599E04120E20248102120E20A2810212B0
:1024D3000E20FE8102120E20498202120E20648217
:1024E30002120E208F8202120E20AC8202120E20E4
:1024F300B88202120E204F8402120E206884021248
:102503000E20ED8402120E20008502120E201F857C
:1025130002120E20C38502120E20448702120E20DF
:10252300F78802120E208D8902120E209089021262
:102533000E20008A02120E201E8A02120E20B58A75
:1025430002120E20FD8A02120E20008B02120E20B0
:10255300C68B02120E20338C02120E20598C0212EB
:102563000E20E48C02120E20028D02120E20488DE2
:1025730002120E20FC8D02120E20468E02120E2035
:10258300758E02120E20D28E02120E20078F0212B7
:102593000E20338F02120E20418F02120E208E8FD7
:1025A30002120E20FE8F02120E20479002120E20FE
:1025B300939002120E20BF9002120E20CA900212B4
:1025C3000E20E89002120E20D39102120E20DD910C
:1025D30002120E20189202120E20289202120E20CE
:1025E300319202120E20859202120E20999202124B
:1025F3000E20C89302120E20DD9302120E206B945C
:1026030002120E20B09402120E203C9502120E20EC
:10261300479502120E20899602120E20A4960212EA
:102623000E20F09602120E205F9702120E2098974A
:1026330002120E20B29702120E20F49702120E20FD
:10264300C49A02120E20719B02120E20DE9B02120C
:102653000E201E9E02120E20369E02120E20399E5E
:1026630002120E20459E02120E20599E02120E20C7
:10267300619E02120E20949E02120E20969F021259
:102683000E201DA002120E208DA002120E200FA1FB
:1026930002120E20D0A102120E20EFA102120E2070
:1026A30090A202120E20EDA202120E20F0A202123C
:1026B3000E2064A302120E20B3A402120E20B9A5A9
:1026C30002120E2044A602120E205FA702120E2051
:1026D30027A802120E2058A802120E207BA802126D
:1026E3000E2084A802120E20B3A802120E2043A9C2
:1026F30002120E20F9A902120E206EAA02120E2057
:1027030015AB02120E208AAB02120E20C1AB0212CD
:102713000E20FFAB02120E2076DA02120E2028B032
:1027230004120E2014B004120E2071AF04120E20F6
:1027330071AE04120E208AAD04120E207AAB04127D
:102743000E2088AA04120E2026AA04120E2001B31A
:1027530003120E20F7B203120E208CB203120E20C6
:10276300C0B003120E20CAD902120E2052DB03128C
:102773000E207EB003120E2082AF03120E206ED302
:1027830002120E20DCD202120E2056AF03120E20CC
:102793000DAF03120E204EAE03120E203AAB0312FE
:1027A3000E20FBA803120E20C8A803120E206FA848
:1027B30003120E2002A803120E20C1A703120E203B
:1027C300FAA603120E2094A603120E2033A60312B8
:1027D3000E20D3A503120E20AAA403120E203EA49A
:1027E30003120E2096A303120E2091A303120E20B0
:1027F30085A303120E20B89F03120E20929F03128B
:102803000E2096D202120E2061D202120E202ED278
:1028130002120E2019D202120E20EED102120E2045
:1028230001B404120E20CDB304120E2076B30412A9
:102833000E20E4B104120E20309F03120E20D19E0D
:1028430003120E20929E03120E2036B104120E20A4
:102853007F9E03120E20749E03120E20439E0312CA
:102863000E20309C03120E2063D702120E20A39B6E
:1028730003120E20B1F701120E205F9B03120E20EC
:10288300339B03120E20B6A904120E2089A9041249
:102893000E2056A904120E202EA904120E20CFA832
:1028A30004120E20AFA804120E207AA804120E20E0
:1028B30026A504120E200EA304120E20F8A0041263
:1028C3000E2078A004120E2024A004120E20309FA4
:1028D30004120E20D89F04120E2099B004120E2069
:1028E30087D20300000080FB000022E4738F000105
:1028F30000741C87000100721C350004003B1C257A
:102903000002003F1C26000200411C270002004376
:102913001C280001004D1C290001004E1C840004EA
:1029230000BE1986000100DC1B2A0001004F1C2B8E
:10293300000100501C2C000100541C2D000800CA8B
:10294300192E000100551C2F000100561C300001F8
:1029530000571C31000100581C32000100D219330A
:10296300000100D31934000100591C36000100D4C2
:1029730019380001005A1C39000100531C8300025E
:1029830000701C63000100E01964000100511C6524
:10299300000100521C6D000100E11971000800C222
:1029A30019660001006F1C43000100601C44000213
:1029B30000611C45000100631C46000200641C47C3
:1029C300000800D81948000100661C4B000100678D
:1029D3001C04000100731CA1000100771C370001D7
:1029E30000761C88000100751C3C000100D5193DD0
:1029F3000001005B1C49000200681C67000100E243
:102A0300194D0002006A1C4E0001006C1C4F0002AD
:102A1300006D1C3E0001005F1C51000100D61952DD
:102A23000001005D1C530001005E1C54000100D72F
:102A33001900000000000000013636010100010208
:102A4300010001030100010401060605020000075D
:102A53000100340801000F090401010D0100FF0EFC
:102A630008000017020000190100FF1A0100011BF2
:102A73000100FE1C0100081D0200001F01000120CF
:102A8300010001210200002301000F24020000269F
:102A930001000127010008280200FF2A0100072B7B
:102AA3000102402C0100002D0100012E0100012F25
:102AB3000100FF30010B1D310800003A0100083B03
:102AC30001000F3C0100013D0100FF3E04000042F4
:102AD300040000460400004A0400004E04000052B3
:102AE300040000560400005A040000000000002007
:102AF30001718500000100200172850000020020A1
:102B0300016D850000030020016E85000004004272
:102B130001F1830000050042010B8300000600421F
:102B230001E4830000070030016F8500000040428C
:102B3300012B840000FDFF210169852A040000396F
:102B4300059F182A04C8003905A7182A04C90039A3
:102B530005A3182A0401022123121C2A042102219D
:102B630023061C2A0422022123081C2A0420021003
:102B7300230A1C2A04250210230B1C0C00550039C0
:102B830005AD180C0065003905B118010371030187
:102B930003010301030103010322030203010310E1
:102BA30003000300030003000300030003000342C8
:102BB3000300032403060300030003040312032595
:102BC3000323032503230304030403000300030077
:102BD30003440300030003230300036503210035BB
:102BE300038103000305030003000300030003251F
:102BF3000323030302710230016002110270020118
:102C030002020202028002100261023A00410063E2
:102C130002730272026202430200021302380000CE
:102C23000200020402120200020002000200020477
:102C3300020402370037003C02440200023900005C
:102C430002000265020002350281020002050282CF
:102C5300028302000201017101010101011101015D
:102C6300013101010101018001100161013B0014E7
:102C73000063017301720162014301000113010644
:102C8300013D0135000401120100010001000100B2
:102C93000104010401330133013C014401320136D3
:102CA30000000100016501000135008101000105FB
:102CB30001820183010001030071003001600011F2
:102CC30000700031022003500480001000610000F6
:102CD30000140063007300720062004300000013DD
:102CE30000060000000000040012000000000000C5
:102CF30000000004000400370037003C02440000D9
:102D030000000000000000650000003500810000A5
:102D130000050000008300000036000100060000EB
:102D2300000F00000000000000000000000000038E
:102D3300FFFF00000403FFFF0000FFFF0FF401008B
:102D430005C4040320000100000B00000000000084
:102D5300000003010F00000000000000000000005D
:102D63000000000000000000000000000000000060
:102D730000000000000000581A821A5E1A921964BB
:102D83001A881A641A941A6A1A9219641A881A7099
:102D93001A921900000000761A9219000000000030
:102DA3000000007C1A9219000000000000000000DF
:102DB3000000000000000000000000000000000010
:102DC3000000000000000000000000000000000000
:102DD3000000000000CE1C0100CE1C0200441C02B7
:102DE300803E1C03004A1C0400501C0480561C0532
:102DF300005C1C0600681C31007A1C3300801C3404
:102E030000861CFFFF0000030003000400080010FD
:102E1300001F003E007B00F600EC01D703AF075D07
:102E23000FB91E713D000007ECFDFDFDECDCDCCCB1
:102E3300BCACAC9C9C8C7C7C6C6C5C5C5C4C4C3CFF
:102E43003C2C2C1C1C03EAF5E5D5D5C5B5A59595F9
:102E5300858575756565555545453535252515159F
:102E6300050ABC22028622059222078C220C6E22BE
:102E73000D7A22FF000000160F00000B150B020055
:102E830002220F3300000E0F5A6967426565416CD9
:102E93006C69616E63653039D0D1D2D3D4D5D6D7BE
:102EA300D8D9DADBDCDDDEDF303016181920231A3F
:102EB3001C1E3000034D4C4651181A250502000113
:102EC3001916181616182303003030171819213055
:102ED3001B1D1F30003C40423A3F3F392F47300C07
:102EE3000E020B040B0A0708000F02040201010182
:102EF300010902E803000000BE040A01000E0003FA
:102F030000E803FF040914031004030A0C041E0859
:102F130028020C0508151E04C082C08312125490A7
:102F23001A0B745EF0A37420F0901A0D7464F0A36E
:102F33007420F0901A0F746AF0A37420F0901A11A1
:102F43007470F0A37420F0025C5674F712094C906D
:102F530019FFE4F0E99019FEF07CD87D197A007B23
:102F63001A1218C6901C66E0901A08F0901A097499
:102F7300C2F0A37419023EE374F012094CEAFEEBAB
:102F8300FF548070030230EC9019FE123F787003F7
:102F93000230E5EA241B1257E3707CEA241F125720
:102FA300E364137002A3E0706E8A828B8312313A5A
:102FB300901A19124D75750A00750B00800D123D9C
:102FC300B9126E551217E2AA0EAB0FEA4B60488A8C
:102FD300828B83E0650C7004A3E0650D702C8A82FC
:102FE3008B83A3A3A3A3E0F50EA3E0F50FE50A45A6
:102FF3000B8A828B83A3A3A3A360C31240BB850A5E
:1030030082850B83A3A3A3A380B78A0A8B0B8A822F
:103013008B83124D7180B4E508242A1257E3FCE533
:10302300082402F8E43509F9E8FAE9FB901A1912C1
:103033003221A3A3E06402703C8A828B83124D7514
:10304300800B88828983A3A3A3A31240BBE84960B2
:103053001F88828983E06A7003A3E06B70E488822F
:103063008983A3A3E06C70DA901C6C125B13806BF2
:10307300ECF912209A850882850983E06401704F78
:10308300E5082418123123120E411263FD120C7B42
:10309300E5082412123123120E41E508123F6C1287
:1030A3000E3DE508240B126401120C7FE50824177A
:1030B300123F09E5082402FCE43509FDE50824195B
:1030C300FAE43509FB1228BC740A120E50800CE096
:1030D30064027007AA08AB09122178AA08AB091287
:1030E300174CEEFAEF6480802DEA5402600C901CBA
:1030F3007F7401F0EA6402FA8023EA5408601A122A
:103103002094EA4B700B901A1B1262D87A08123182
:1031130030EE6408FAEFFB80047A007B00026A87D2
:10312300F582E43509F583E0F50A780A22FB901964
:10313300FEE0F912189C22A3A3E0F50CA3E0F50D21
:10314300227B009019FEE0F912189074042274F4A3
:1031530012094C8A088B098A828B83A3A3A3124B7F
:103163006D123F1438F583E02409FA126A1F7003C5
:103173000232148A828B837402124BE285088285A1
:103183000983123221E8F0A3E91266998A828B83BC
:10319300A3A3A3A3A3A3A3A3F0E5082403F8E435FF
:1031A30009123216123F143AF583E08E828B83A301
:1031B300A3A3A3F0EE2409FAE43FFB8E828F83A33B
:1031C300A3125DC5F5838882E0A2E58E828F83A377
:1031D300A3A3A3A3500474018001E4F0E50824032E
:1031E300F5828983124D75EA1252F63BF583126913
:1031F300E6120E39123F133B125EB78E828F83A302
:10320300A3127B95120E50EEFAEFFB9019FE126A91
:103213006C8016F98882F583E0FAA3E0CA22124F84
:1032230012A3A3227402120E507F04020BF674F24F
:1032330012094C8A088B09ECFAEDFB740E1211A5E6
:10324300E0FC12128A8A0C8B0DAE0CAF0DEA4F60B4
:1032530030AC08AD09121278E96026AC08AD09EE6E
:10326300FAEFFB12127EE970148E828F831240A84C
:10327300FAEFFB121272AA08AB091212A2790080AC
:103283000279B4024E6174F012094C74F6120F33D2
:10329300EAFEEBFF8C088D09750FB3852182852229
:1032A30083E4F0750E008002050E902F1AE493F864
:1032B300E50EC39840030233B0AA0E7B001212C678
:1032C3008A0A8B0BEA4B60E08A828B83A3A31233B7
:1032D300B728F0F8C3EE98EF940050CC7C157D002E
:1032E3007900AA08AB09121734850A82850B83A3D8
:1032F300A3A3A3126E92E0F8EEC3982925E0F8E4A5
:1033030033F9E50A28F582E50B39F583A3A3A3A3D3
:10331300A3A3123F1EA312593A8A0C8B0DAC0CAD1A
:103323000DAA08AB091218C6850A82850B83A3E090
:103333006401700A1263FD7401123F30804474010A
:10334300120EFD850A82850B83124D731212AEE9AC
:10335300603D74091211A5E0C0E01263FDD0E0F0F6
:1033630074091211A5E0640370137401120EFDE5D4
:1033730008240BFAE43509FB1218C68012740112F3
:1033830011A51240BBE5081259203509126E538569
:103393000A82850B83126409123F30A3A3E0C0E0C5
:1033A300E5082414126401D0E0F0750F00A90F742E
:1033B3000A026A84A3A3A3E0F8852182852283E01D
:1033C3002274F712094CE9FE8A828B83A3A3A3A379
:1033D300A3A3E0540860338A828B83A3A3A3A3A38C
:1033E300A3E0540260218A828B83A3A3A3A3A3A394
:1033F300A3A3A3E06406600F74E96E600A74CD6E44
:10340300600574F06E700312207C02476074F01242
:10341300094C74EF120F33740F1211A51261BC74AF
:10342300081211A5E9F0ECFEEDFF74051211A512C7
:10343300452812474CA3E0F912129674061211A5FF
:103443001261BC74061211A512538770030236CBA6
:10345300123F58E0FA74061211A5E0F9121FBC12CC
:10346300372BF8A3E0F9E84970030236CBEE2403C7
:10347300F50AE43FF50BEE2406F508E43FF5097C75
:1034830000850882F583124D75850A82850B83E0DA
:10349300F912129C74031211A51261BC850A82856C
:1034A3000B83E0C0E0852182852283123724D0E09C
:1034B30012549CF9852182852283123DC0124FEE5E
:1034C3001233BAFAA3E0CA2407F582E43AF583E893
:1034D300F0A3E41261C72406F582E438F583E4120D
:1034E3006E5F124B61120E39EE123F143F125EB73C
:1034F30074031211A5124B6D2409127B8F120E5007
:1035030074291211A5126E8C12321B1254AF3A1287
:103513006E53742B1211A5E0C0E0852182852283AE
:1035230012534ED0E0F074021211A5E4F074251288
:1035330011A5780812111A02362274031211A5126A
:103543005E7F8882F583123713A3A3A3125945FB29
:103553001212B4850E82850F83A3EAF0A3EBF074F5
:10356300031211A5123724A3123713125B54A2E6D8
:10357300500F850E82850F83A3A3A3A3A3E0D2E1FB
:10358300F074051211A5E0706B850E82850F83A37D
:103593001240BB901A59E0687003A3E06970558527
:1035A3000E82850F83A3A3A3123EF3750C00780C40
:1035B300120E417808120E3574291211A5E0F50C8C
:1035C300780C120E4174271211A5120C7F901A6603
:1035D300120C7F790074191211A5124D451221C0E6
:1035E300740A120E50850E82850F83A3A3A3A3A38F
:1035F300E04405F074021211A5E004FC8E828F836F
:10360300124D6F8E828F83A3A3A3E0F912129C74D1
:10361300031211A51261BC74021211A5E004F07427
:10362300031211A5125387606774021211A5E0FA01
:1036330074061211A51240BBC3EA98E49950517461
:10364300021211A51239FD852182852283E028F813
:10365300A3E039F9E8240FF50EE439F50F850E825E
:10366300F583E4F074031211A512371E640160039D
:1036730002353D74051211A57401126A72F07403C8
:103683001211A5125C46123A20E8F0A3E902356153
:10369300852182852283124D75121FC28521828561
:1036A3002283120C7F74261211A5E0FD74251211DA
:1036B300A5E0FC740A1211A5E0F9EEFAEFFB122063
:1036C300767402120E5080438E828F83A3A3A3E0ED
:1036D300C0E0740C1211A5D0E0F01268DBE0C0E08A
:1036E300740D1211A5D0E0F074061211A5125387C0
:1036F3007009740E1211A574B98007740E1211A506
:103703007410F07409120EF51221BA7411026A844E
:10371300E0850E82850F83A3A3A322E0125474E0F5
:1037230022E0125474A3A322852182852283EAF026
:10373300A3EB1253902274F012094C74E1120F336D
:1037430074041211A5E9F074031211A5ECF07402CC
:103753001211A5EDF08A0E8B0F742F1211A51231E1
:103763003CAA0CFB121FB074011211A5E9F0AA0CBC
:10377300AB0D121FB674011211A5E070030239F8E4
:10378300852182852283E480158E828F83A3A3A360
:10379300A3A3E0D2E3F0852182852283E0041269AA
:1037A300CAF8852182852283E0C39840030239EF5A
:1037B30074011211A5E070030239EF85218285227D
:1037C300831239FDE50C28F8E50D39F9E8240FFEDD
:1037D300E439FF8E82F583A3A3A3A3A3E0A2E04071
:1037E300B5750800750A08750B0074021211A5E07F
:1037F30060037508207C087D0079007405120EF5BE
:103803001217348E828F83E0603E901AA9E0640120
:10381300701AE508D2E3F508750B10123A0D121170
:10382300A5E8F0A3E912583874FF807643080C75B5
:103833000A0C8E828F83A3123A18126E55740512E6
:1038430011A574FFF0A3805A74041211A5E0600956
:10385300E508D2E6F508750A0A8E828F83A3E06431
:10386300FE7003A3E0F4703074121211A5740412F5
:103873006427F8741D1211A5E8124BE27412120E9C
:10388300F5121EDE7D007C00790074151211A5AAC5
:1038930082AB83121CB6800B123A0D1211A5E8F00D
:1038A300A3E9F074071211A5E508F0123F4FC0E039
:1038B30074091211A5D0E0F0740A1211A57401F075
:1038C3007405120EF512217E74111211A5E0600326
:1038D3000239CD740D1211A51254978E828F83A3D2
:1038E300A3A3A3F0740D1211A5124BB0E50AF0A324
:1038F300E50BF074031211A5E0C0E0124B41D0E0D8
:10390300125B546011901AA9E0C0E0740D1211A566
:10391300124B8BD0E0F0740D1211A51240BB850C35
:1039230082850D83A3A3A3A3A3123A06241C1261C9
:10393300B6126E6F123A08125B06391268FAC0E0CB
:10394300124B28D0E01269BFC0E0740D1211A5120A
:10395300466ED0E01266C0C0E0740D1211A5124687
:1039630064D0E0F0740D1211A5123A18123A06242D
:103973002A1261B6850E82850F83A3A3A3A3A3A3F3
:10398300A3A3E01261AF123F3EC0E0124650D0E065
:10399300F0740D1211A5124D75850E82850F8312D9
:1039A30069D52428F582E43B126E53123F4712690E
:1039B300E6120E39125EB0EA1261483B127B931293
:1039C3000E507405120EF51221848E828F83A3A3E9
:1039D300A3A3A3E0D2E0F074111211A5E0600302E7
:1039E300378C74011211A5E0140237987900AA0CE0
:1039F300AB0D122082741F026A84E075F007A4F8ED
:103A0300A9F022A3A3124D79E8228E828F83A312F9
:103A130040BF740522E0123A20A3A3A322F8A3E037
:103A2300F9850E82850F83A32274F012094C74E882
:103A3300120F33E9852182852283F08A0E8B0F8A48
:103A4300828B83A3A3A3A3A3A3A3A3E0F9121FDAE7
:103A53008A088B09EA4B7003023B09E50E12530AED
:103A6300123F67123EFE852182852283E0600302B6
:103A73003B0C7C04850E82850F83A3A3A3A3A3A37E
:103A8300A3A3E0F9121FE0EE4F607B8E828F83A326
:103A9300A3A3A31240BB74071211A51262ED124037
:103AA300BB74091211A5124C12C0E074111211A5B6
:103AB300D0E012669EA3A3A3A3A3A3A31240BB7447
:103AC3000F1211A5126E5574121211A5E4126A7A1F
:103AD300C8241FF582E438F583125E7BC4131354A4
:103AE30003FC70027C048E828F83E0F97808120E47
:103AF3003D742059FD744059F97403120EF51220D8
:103B0300767402120E50026A827C08850E82850F3B
:103B130083A3A3A3A3A3A3A3A3E0F9121FE08B0B87
:103B2300EA4B7003023A8AEE4F60DB8521828522DD
:103B330083E0F50C780C120E41850882850983A376
:103B4300A3A3A3A3A3A3E0F50C780C120E418A82CE
:103B53008B83A3A3A3E0FB8A82850B831276B28AAD
:103B630082850B83E0FA8E828F83A3A3E0F9122868
:103B7300C27402120E50023A8E74F712094C74FA90
:103B8300120F33E9FE780179017F00800379000F7A
:103B9300124EF1E0FCEFC39C5026EF75F007A4FC36
:103BA30085F008AD08EA2CFCEB3DFD1244E0E0A2F1
:103BB300E050DA540C60D6E0A2E250D3780080CF14
:103BC3008A828B83A3A3A3A3A3A3E0703DE9A2E00E
:103BD300400574016E70338A828B83A3A3A3A3A3CE
:103BE300A37401123ED0E0C0E074031211A5D0E02B
:103BF30012453FE0C0E074041211A5D0E0F0740553
:103C03001211A5E8125E1A1221BA740602475DC0AA
:103C130082C0837901122082025C5674F412094C2B
:103C2300EA4B901C7F6019E4F08A088B09F50AF5CA
:103C33000B7808120E357A02123144120E50800AA4
:103C43007401F07A027B0012313102322C74F012CB
:103C5300094C74F3120F3374031211A5E4F0A3F0AB
:103C6300901A19123EFE74011211A5E4F0A3124B2F
:103C7300E704F0901A53E0A2E35003023D43123EDF
:103C8300C474091211A512117674091211A57808CA
:103C930012111A901A1B7808120F0574051211A538
:103CA30078081210FC123DC774051211A57808128A
:103CB30010CD50077A017B00023DB474051211A5A3
:103CC300780C12111A901C6BE0F509780C79081224
:103CD30008DDA80CA90D901C6CE0C398E49950036F
:103CE300E08001E8852182852283F074091211A501
:103CF300780812111AC008C009C00AC00B74051253
:103D030011A5780C12111A123DC7780C7908120804
:103D1300DDE4F50AF50BD00FD00ED00DD00C780CE6
:103D23007908121001901A1B780C1210FC801112E2
:103D33003DB9126E55EEFAEFFB1217E2AE08AF096A
:103D4300EE4F60658E828F831233B7C398502DEE8A
:103D53002403F8E43FF9E0FA88828983E0C39AF008
:103D6300602374031211A512422174011211A5EEEE
:103D7300F0A3EF126308FEA3E0FF80C48E828F835B
:103D8300A3A3A3E4F08E828F83127B4C74011211E0
:103D9300A51253878E828F83A3A3A3A3609112627C
:103DA300E11211A5123DC0808974031211A5124DB1
:103DB30075740D026A841240BF901A1922125EA60E
:103DC300A3A3A322901C6A127B54E4F50AF50B22E9
:103DD30074F012094C8A088B09890A7800790090DB
:103DE3001A19123EFEFBEE4B601E088E828F83A3D0
:103DF300A3A3A3124D3F601008E87001098E828FC0
:103E030083123EFAEA4F70E3901C6D124D75C3E8BE
:103E13009AE99B4003023EB77A06123EBAA80CA960
:103E23000DEA497003023EB78A828B83E508F0A34B
:103E3300E509123ED9E50AF0901C6C124EF9123EC8
:103E4300D0A3E4F0A3F0901A19124D3F600D8E82B7
:103E53008F83A3A3A3A3126E558017901A19126E12
:103E630055901A53E0A2E34009123EC4901A1B1264
:103E73001176901A53E0A2E3503A7A087B00901926
:103E8300FEE0F91218A2EA4B4C4D7028901C6AE030
:103E9300F508A3E085080CF50DE4F50EF50F780C95
:103EA300120E357A087B009019FEE0F91218967409
:103EB30004120E50026A877B001217DC8A0C8B0DEA
:103EC300221218AEEAF8EBF9ECFAEDFB22123ED41B
:103ED30022123ED9A322F08A828B83A3A322E50870
:103EE300F0024760F08E828F83A3A3A3A3A3A32230
:103EF3001257F1A3A3F022A3A3A3A3E0FEA3E0FF21
:103F0300227F05020BF6F582E43509F583E0F922F9
:103F1300EA123F18222410F582E422123F26A3A3BB
:103F2300A3A3221240C385088285098322123F344A
:103F330022F0850A82850B83A3A322E50E241112A6
:103F43003F64E022E50E240E123F6422E50E2410A6
:103F5300123F64E022123F5C22EE123F183FF583CA
:103F630022F582E4350FF58322240FF50AE435099F
:103F7300F50B780A22E0F912175E8A088B09EA4BDF
:103F83002274F212094C890B8A088B098A828B836B
:103F9300124D751220A6EA4B600479B8806A12208C
:103FA300B2E9F8902F0BE493F9E8C399400479B28E
:103FB30080567A15123EBAAE0CAF0DEA4F700479F3
:103FC3001080458A828B83E4F0A3123ED9E50BF07F
:103FD300750A007808120E397C127D00EA24031258
:103FE3006991120E50901A1F1253877008901A1F6E
:103FF300800C1240BB8882898312400E70F4EEF06D
:10400300A3EFF01220C47900024E61124D79EA4BFE
:104013008882898322C082C083901A1F80048C8285
:104023008D831276B3EC4D60288C828D83A3A3E03D
:1040330069600574FF6970E68C828D83A3A3A3E096
:104043006A7003A3E06B70D6EC2403FAE43DFB80B3
:10405300047A007B00025C5674F712094CE9FD7484
:10406300FE6D70047C0180027C00901A1F80096D34
:1040730070027C0188828983125387601F8882893A
:1040830083A3A3A3E06A7003A3E06B70E7ECA2E051
:1040930088828983A3A3E050D6F9800279FE024780
:1040A30060EEF9800CA3A3127B54EE227402120E6D
:1040B300507F02020BF6F5831240BF221240C32247
:1040C300E0F8A3E0F9221240C38E828F8322120EFE
:1040D300507F03020BF6C082C0837900901A1F80C1
:1040E3000109E0FAA3E08A82F583E582458370F152
:1040F300025C5674F612094CE4F508F509780812C7
:104103000E3D902F0BE49375F013A4A9F012421601
:10411300126EB3120E50E9FE74096E70031220BEC4
:104123000240A474F612094C74FE120F33852182E7
:10413300852283E4F0A3F0A821A9228808890978BD
:1041430008120E3D7508027509007808120E3D121B
:104153006B24120E500240AF74F512094C74EB122B
:104163000F33852182852283E4F0A3F0901A1F8008
:10417300748E828F83A3A3E0C0E074021211A5D0D2
:10418300E0125838A982AA8389088A09750A007837
:1041930008120E397C127D0074061211A5126E7876
:1041A300120E507402120EED880889097808120E57
:1041B3003D7508137509007808120E3D7404121139
:1041C300A512532A75F013A4F8AAF075F013E91297
:1041D3004212126B2C120E508521828522831242C9
:1041E300218E828F83123EFEEE4F7085A821A92275
:1041F300880889097808120E3D7508027509007848
:1042030008120E3D126B24120E5074150240D1A4F5
:104213002AF9E82402FCE439FD7A427B0022E024F7
:1042230001F0A3E03400F02274F412094C74EB1291
:104233000F337E007F00A821A92288088909780806
:10424300120E3D7508028E097808120E3D7C007D22
:10425300007A42126EBF120E50E9706C8E088056BF
:104263007402120EED880A890B780A120E3D750A44
:1042730013750B00780A120E3DE50875F013A4F8C8
:10428300AAF075F013E509124212126EC1120E5014
:10429300E9701B74031211A5AA82AB837402121175
:1042A300A5E0F91220A0E970050EEE70010F0508D4
:1042B300E508700205098521828522831240BBC36C
:1042C300E50898E509994098EEFAEFFB7415023278
:1042D3002974F612094C8C828D83A3A312452DF009
:1042E300EA12614E3BF583E0C0E01244EAD0E0F00D
:1042F300EA241DF582E43B1240B91244CE1245284C
:10430300F0A3F0EA241FF582E43BF583123EFEECB2
:104313001244C13DF583EEF0A3EFF01244C73BF521
:10432300831244F8A3A3A3A3A3A3EEF0A3EF125D08
:10433300A9FE8C828D8312453774035EFEC39403FA
:1043430040030244B4EE600874026E60030243D972
:104353008C828D83E0540CFE740C6E70030244183F
:10436300E0A2E4400D88828983E08C828D83A312CE
:10437300454D74086E60030244181244D87401F06A
:104383008A828B83A3A3A3A3A31257FE70148C82E8
:104393008D83E0440C12453FA3A31244F8EEF0A32F
:1043A300EFF08C828D83E0A2E4402B8882124506D5
:1043B30012451B500109F582124506A3A3A3A3A32B
:1043C300A3F0A3EF1245478C828D83A3A3A3F0E848
:1043D3002403F850010988828983E0C0E0EC2411AA
:1043E300F582E43DF583D0E01245378C828D83E07E
:1043F300A2E7507588828983E0FE8C828D83124503
:104403004D74FC5E700C8C828D83A3E054036403B3
:10441300701E0244B41244D8E4F0740C6E600302BC
:104423004383888212450C12451B5001090243A5A0
:104433008C828D83A3E05403603288828983E0C039
:10444300E0EC1244F23DF583D0E012454E8C828DB0
:1044530083E054036402701488828983E0C0E0120D
:1044630044E0D0E012454E8003A3E4F0EC1252F690
:104473003D126E53EC2410FEE43DFFEA241DF58249
:10448300E43BF583E0F5088E828F83E0C39825082B
:10449300F508F0EA2417F8E43BF98882F583E0C3D2
:1044A3009508C0E01244CED0E0125DA9C395085030
:1044B3000A1244CEE4F01244EAE4F00240B42415B4
:1044C300F582E422EA240DF582E422EC240DF58240
:1044D300E43DF58322EC1254AF3DF58322EC241422
:1044E300F582E43DF58322EC123F183DF583222447
:1044F30013F582E422E0FEA3E0FF8C828D83A3A365
:10450300A3A32212450CA3A3228983E0F508A3E009
:10451300FFE5088C828D8322A3A3A3A3F0A3EFF06E
:10452300E82402F82212452DA322E4F08C828D8325
:10453300A3A3A322124555A882A98322123ED4A382
:10454300A3A3A322124555A3E022A312455508A90C
:104553008322125DB2A32274F412094C74F3120F76
:10456300338A0A8B0BECFEEDFF8C82F583E0540C4F
:10457300F508E0A2E75006E508D2E7F508E508D21A
:10458300E1F5081257FE7006E508D2E4F508E0A24B
:10459300E55006E508D2E5F5087C087D007900AA18
:1045A30021AB2212173474021211A5E508126E59B9
:1045B300C0E074031211A5D0E0124BE7E50AF0A3A3
:1045C300E50BF074051211A51266C51211A5E07072
:1045D3007774081211A5124B6D125D9B381266E0B9
:1045E300C0E074081211A512466ED0E01266C0C076
:1045F300E074081211A5124664D0E0F07408121199
:10460300A512465AE0124B95124C161261AFEE24D6
:10461300111257CAC0E0124650D0E0F0EE24141233
:1046230057CAC0E074081211A5124B6D2435F582E8
:10463300E438F583D0E0124BBAC0E074081211A538
:10464300124B71D0E0126419740D023229E824323E
:10465300F582E439F583221240C9A3A3A3A3A3A33C
:1046630022124B811268BF38F58322124B81242614
:10467300F582E438F5832274F712094C7E008A82AE
:104683008B83A3A3A3A3A3A3A3A3A3E064046003B3
:1046930002473C1254A7E0600302473C1253093B14
:1046A300125385700302473C88828983E054036078
:1046B3000302473CE81254AF39F583E0FA8C828D4C
:1046C30083A3A3E0FBA3E0CB2411F582E43BF583B2
:1046D300E06A706588828983A3A3A3A3A3A3A3A38A
:1046E300A3124740E06A7003A3E06B704C88828991
:1046F30083A3A312474CE0FFA3E0CF24061257CABB
:104703006A7003A3E06B703188828983A3A3E0F806
:104713008C828D83A3A3E0F9A3E0F5838982A3A30D
:10472300E06860138C828D83A3A3A3E0F583898261
:10473300E0540C640470027E01EEF98020124744B9
:1047430022124D7D8C828D8322A3A3124744A3A3FF
:1047530022740C1211A5E0F9740D120E507F0102A0
:104763000BF674F612094C74FC120F33EAFEEBFFDE
:10477300ECFAEDFB8C82F583A3E054036016901AE8
:104783001512538760597900EEFCEFFD125FA612F4
:1047930028EE804B852182852283EEF0A3EFF0740F
:1047A300021211A5124BDCAC21AD227ADC7B201264
:1047B30023048A088B09A808A909EA4960218A8287
:1047C3008B83A3A3A3A3A3A3A3A3A37406F07A0039
:1047D30088828B83124B6D12616FE0F9122262742F
:1047E300040240B174F212094C74F3120F33EAFE5F
:1047F300EBFF8A82F583A3A3A3A3A3A3A3A3A3A3EA
:10480300E0F50A901C7FE0700579BA024B25750824
:1048130001750900750C00750D007C087D00790099
:10482300AA21AB2212173474051211A57401124B7D
:10483300EF5404601274021211A5E0D2E6124BEF9A
:1048430054087003750803E054106006744045086B
:10485300F508E05408602274021211A5E044C01266
:104863004BEF5420600A74031211A5E0D2E08008D4
:1048730074031211A5E0D2E1F0EE24151257CA1207
:104883004B557003740169700674084508F5088E6A
:10489300828F83A3A3A3A3A3A3A3A3E070161223CE
:1048A3005E8521828522831261BC74021211A5E008
:1048B300D2E28030640F701074021211A5124BF70C
:1048C30074044508F508807F8E828F83A3A3A3A376
:1048D300A3A3A3A3E064028E828F83700A126E8C5B
:1048E300E8F0A3E9F08060A3A3A3A3A3A3A3A3E099
:1048F3006403700DAC21AD22EEFAEFFB122112809E
:10490300468E828F83A3A3A3A3A3A3A3A3E06401DF
:104913007035901AA9E0601074021211A5124BF7BA
:10492300750910750AFF801874021211A5E0440C72
:10493300124BE774FDF0A374FFF074044508F50807
:104943008E828F8312313CEE24151257CAA2E05097
:104953003F74021211A5E0540C701B8E828F8312D8
:104963004D75121D82E9700579BB024B2574021245
:1049730011A5E0D2E5F0EE24151257CAA2E05010BB
:1049830074021211A5E0540C64047004E0D2E5F043
:10499300EE24111257CAC0E074041211A5D0E0121C
:1049A30066C71211A5E06003024B1E74081211A51D
:1049B300124BB0E508F0A3E509F0124B4BE0C0E061
:1049C300124B41D0E0F0124B32E0C0E074081211F8
:1049D300A5124B6D1244F238F583D0E0124C1664E5
:1049E300017011901AA9E0C0E074081211A5124BCE
:1049F3008BD0E0F074081211A5124BAB124B3CFAAA
:104A0300E8241CF582E439F583EA124BE2EE24151F
:104A1300FAE43FFB8A82F5831276B3E8125B063928
:104A2300F583124BDCEE241C1257CAC0E0124B284C
:104A3300D0E0125C4C124B5570037401697013740F
:104A4300081211A5125497FAEE241D1257CAF9122F
:104A53001FE68E828F83A3A3A3A3A3A3A3A3A3E091
:104A6300C0E074081211A512466ED0E0F07408126B
:104A730011A5124664E50AF074081211A512532A0F
:104A83002428F582E439F583E50CF0A3E50D124BF8
:104A9300C2124B951258431261AFEE124B3CC0E069
:104AA300E82433F582E439F583D0E0F0EE241B12D9
:104AB30057CAC0E074081211A5124B71D0E0F0EE92
:104AC300241A1257CAC0E074081211A5124B6D24A0
:104AD30032F582E438F583D0E0124BBA124B6112FF
:104AE3000E391268C51276B3740B1211A5124B6DF1
:104AF300242F127B8F120E50EE24151257CA5440E6
:104B03006012901A35125387600AAA21AB22125FF2
:104B1300A61228EEAA21AB22122184740C1211A52D
:104B2300E0F9024E5CE82420F582E439F58322EEB5
:104B33002419F582E43FF583221268D4E022E824A5
:104B430012F582E439F58322EE2418F582E43FF569
:104B530083225480F8A3E05401F974806822F50895
:104B6300A3E0F509750A00780822124B8122124B43
:104B7300812434F582E438F58322A3A3A3A3124B43
:104B83008522E0F8A3E0C822124B811244C138F514
:104B93008322FAA3E0FBE8242AF582E439F583EAC9
:104BA300F0A3EB22A3A3A3A31240BFEE2212532E22
:104BB30012530E39F58322F0EE241312584B22F0D0
:104BC300EE240D12584B22E0FC8A828B83E02CFCEE
:104BD300A3E03400FD8A828B83ECF0A3EDF022F096
:104BE300A3E4F022F085218285228322F0EE2415AE
:104BF30012584B22E0D2E3F0124BFF228E828F83B6
:104C03001240C3852182852283E8F0A3E9F022E8DC
:104C1300F0A3E9126302E02274F712094C8A828B33
:104C230083A3E0640170047E6380027E648A828BC6
:104C330083E060087905124C4F24F3FE901A51E08B
:104C43006007F9124C4F24F2FE02473C12222CE972
:104C5300F8EEC3982274F612094C74FE120F3385D2
:104C630021828522831261BCE9FEECFAEDFB9005FB
:104C7300C21253876032A821A922880889097808BB
:104C8300120E3D7D01740E1211A5E0FCEEF99005A4
:104C9300C21261901228EE7402120E50EA4B6004A5
:104CA3007900800679B2800279B60240AF74F712B8
:104CB300094CE9FE901A0B125387601F74091211F5
:104CC300A5E0F5087808120E41EEF9901A0B12616F
:104CD300901228EE7401120E50800279B6024760DA
:104CE30074F712094C8908ECFEEDFF79B5E5082449
:104CF3005E602014600624F86034803D9005C41281
:104D03004D3F6035126ED01228EE8E828F83126172
:104D1300BC8024901A0D1276B3EC4D601CEEFCEFB0
:104D2300FD901A0D1261901228EEE9F9800B901A8A
:104D330009124D451218C67900024760124D79EAEF
:104D43004B221276B7EEFAEFFB2274F712094CE905
:104D5300FE79B574AB6E700B901A09124D7512186B
:104D6300C679000247608E828F83A3A3A3A3A3A364
:104D7300A3A3124D7922124D7D22E0FAA3E0FB2278
:104D830074F112094CEAFEEBFF8C0A8D0B750801D6
:104D9300901A59E06E7003A3E06F700C124E50AA84
:104DA3000AAB0B1218C6805E122364EE6A7002EF20
:104DB3006B7009AA0AAB0B12236A804AAC0AAD0BCB
:104DC300EEFAEFFB121EBAE9F508901C72E070369A
:104DD3001227EAE97030E508702C901A29E06E700A
:104DE30003A3E06F7020EE4F601C750C21750D1A44
:104DF300750E00780C120E397C087D00AA0AAB0BE5
:104E0300126E7C120E50A9080277AF74F212094C8D
:104E1300EAFEEBFF8C088D09750A01124E50EEFA7B
:104E2300EFFB1218C0E964017011901A591240BBCC
:104E3300850882850983126E55800EAC08AD09EE94
:104E4300FAEFFB121EC0E9F50AA90A8011122358D2
:104E53008A0C8B0DAC0CAD0D22740D120E507F0617
:104E6300020BF674F612094CEAFEEBFF7A0D7B0097
:104E73001217DCEA4B6062EE2424126B59F0EE2425
:104E830025126B59A3124F1E126B5FA3A31268F274
:104E9300124EF9F0EE124EDF124F0EE8F0A3E912B4
:104EA3004F35124F06126E55EE124EE81269B5A336
:104EB300A3A3A3F0EE24331257CAC0E0124EF1D0DD
:104EC300E01266E4124F06A3A3A3E8F0A3E9124F8E
:104ED3002DC0E01254A7D0E0F00240B4242AF5829A
:104EE300E43FF58322242EF582E43FF58322EA1280
:104EF30059203BF58322124EFD22E08A828B83A345
:104F0300A3A322126A14A3A3A3A322124F12221251
:104F130040C38A828B83A3A3A3A322F0124F23222D
:104F2300EE2426F582E43FF58322F0EE2432125874
:104F33004B22F0EE242C12584B2274F412094C74B9
:104F4300FE120F33ECFEEDFFEC24161257CA640574
:104F53007010EC2406FCE43FFD12210CE9700302FF
:104F63004FE9AC21AD22126C0E121D88852182857A
:104F73002283125387606B8E828F83E064017058A3
:104F8300E875F009A4F8AAF075F009E9A42AF97400
:104F93008228F8740739F9E8FAE9FB8882F58378FF
:104FA3000812111AEE12508B1210CD402785218260
:104FB300852283124BAB1257D8124FEE7808121189
:104FC3001A90846978081210288A828B83780812D1
:104FD30010FC800A79A28010EE240F126E4F790024
:104FE300800679A1800279C8023227124C0CEE1296
:104FF30068E02274F212094C8A0C8B0DECFEEDFF73
:10500300EC1257D8E4F0A3F0908441780812111AF7
:10501300EC12508B120F886067EC240E1257D1707C
:105023003478B3901A50E07028901A82E0640170CB
:1050330020EC24111257CAF91222148B09A909EE84
:1050430012530A3F1261BAEA496004780080027879
:10505300A18808802EE060046402700A12211EE910
:10506300F5087007801DE064037010EEFCEFFDAAE5
:105073000CAB0D121DACE9F50880087508A180037F
:105083007508A3A908024E611268E078082274F03B
:1050930012094C74F5120F33EAFEEBFFEA240AFC03
:1050A300E43F8C82F583127B501253147403120E67
:1050B300FD8A828B83125FB0E9700302517A740117
:1050C300120EFD7403120EF5121D8874011211A540
:1050D300125387700302517AE875F009A4F8AAF015
:1050E30075F009E9A42AF9747E28FC740739FDE5F3
:1050F30008240E126401E4F0041211A51240BBE56A
:105103000812530A3509126E538C828D8312116A69
:10511300E50824121264011211769084697808124A
:10512300111A8C828D8378081210158C828D8378E6
:105133000C12111A908561780812111A780C7908EB
:105143001208DDE5084509450A450B702A7401126A
:1051530011A512532A75F009A4F8AAF075F009E90C
:10516300A42AF9748628F582740739F5837401F04B
:105173007A007B081253378E828F83A3A3A3A3A342
:10518300A3A3A3A3A3E02406FCA3E03400FD8E8223
:105193008F83125FB01266D2603EEE240A1252FC75
:1051A300124BB07468124BE2E81252F639F583746D
:1051B30002F0901A3B12116A8C828D831261A9123C
:1051C3005D9B3CF583121176908469780812111A5D
:1051D300901A3B7808121015125372705D901A09D9
:1051E300125322A3A3A3A3A3A3A3A3A3A3125DD197
:1051F3001218C0E97010125D8F901A09125DA17028
:10520300051266D260348E828F83A3A3A3A3A3A3C4
:10521300A3A3A3A3125322124D75121DB2E9601169
:105223008E828F83A3A3A3A3A3A312535EE4F0A34D
:10523300F08E828F83125344E4F0125372600302A0
:1052430052F18E828F83A3A3A3A3A3A3127B4C90BB
:105253001A50E060030252E6901A82E06401600390
:105263000252E6750A3A750B00780A120E3D740273
:10527300120EED880A890B780A120E3D12714B1239
:105283000E50E9705BE508240E1264017401125399
:105293008CC0E0E5082411126401D0E0F0E5082495
:1052A3000F126401743A124BE2901A3712116AE535
:1052B300082412126401121176908469780812117D
:1052C3001A901A3778081210159084697808121109
:1052D3001A901A377808120F887008125333800314
:1052E3001253141253727006125C9274A1F0740B71
:1052F300026A84240EF582E422F8E43FF9E8FCE92B
:10530300FD8882F58322EA12530E22240FF582E4EC
:1053130022E50812530E3509F583E4F0A3F02212B7
:1053230076B78E828F832212532E221240C3E82235
:105333007A007B029018E1E0F9121788228A828BA7
:1053430083A3A3A3A3A3A3A3A3A3A312535222128E
:105353004B85240EF582E438F58322A3A3A3A3127D
:10536300536622124B85240FF582E438F583228E8F
:10537300828F83A3A3A3A3A3A3124B7D240FF58240
:10538300E438F58312532E492212539022F08521DB
:1053930082852283E02274F612094CEAFEEBFF7A3F
:1053A300237B001217DCEE240AF508E43FF5098598
:1053B30008821261BA7C237D0079001217348508B4
:1053C30082850983125387700302545AEEFAEFFB66
:1053D30012212A12537260748E828F8312548D6449
:1053E300018E828F83A3A3A3A3A3A3700712548365
:1053F300740E802112538770101266D2700B8E8246
:105403008F83A3A3E0A2E05007125479740D8005A3
:1054130012547974051266E454036401700712543C
:10542300617405800B901A51E0C0E0125461D0E022
:1054330012549CF58388821257F785088285098365
:10544300124B6D12614E38F583E9800E8508828513
:1054530009831262338003126176F00240B48E82B4
:105463008F83A3A3A3A3A3A3A3A3A3A312547322CE
:10547300E0126195A3228E828F83A3A3A3A3A3A388
:10548300124B7D12615438F58322A3A3A3A3A3A3D4
:10549300A3A3A3A3125352E0221254A022126C23FB
:1054A300F8A3E022EA1254AF3BF58322240CF582E1
:1054B300E42274F112094C74E4120F338A0C8B0D3D
:1054C3008C088D097A237B001217DC8A0A8B0BAEBA
:1054D3000AAF0BEA4F70030257B212615AE5082470
:1054E300151257E3687003A3E0698E828F837004FB
:1054F300740280027401F0E508240DF8E43509F91B
:105503008882F583E0FAC3E49AFA95E0FB1257DF49
:105513002AFAA3E03BFB8E828F83A3A3A3A3125D8E
:10552300B88E828F83A3A3F0EE2420F582E43FF5A7
:1055330083E4F0EE2421F582E43FF583E4F0EEFA10
:10554300EFFB1221DE8508828509831257FE70095D
:105553008E828F83A374058006901A511257ECF044
:10556300EE2417F50AE43FF50B8E828F831257F76B
:10557300E9850A82850B83F0EE2416F8E43FF9E50A
:1055830008240EFAE43509FB88828983124BCAE5A5
:10559300082410FAE43509FB850A82850B83E0FCB5
:1055A30088828983E0F88A828B83E0C398C39CF85E
:1055B300125838F0EEFCEFFDAA0CAB0D122124E9D2
:1055C300F50B8E828F83E064027006125D8F125793
:1055D300BCE50B60030257A9750C00750D00901C08
:1055E30072E064016005E06402703F1257CE600808
:1055F300EE24211257D170328E828F83A3A3A3127C
:10560300617C125804EE24161257CA12582DFAE47C
:1056130039FB123EBCEA4B60111269DE120E3912DD
:105623005812AA0C126E7C120E50EEFAEFFB1221E6
:10563300EAE9F50B901C72E064016008E064026023
:105643000302579CE9700302579CE50C450D700358
:105653000257A98003850E0B1257CE600BEE24214F
:105663001257D160030257A2850B0E850C08850DD6
:1056730009750A007808120E391258128E828F8328
:10568300A3A3A3A3127B95120E50EE24201257CA94
:10569300600D1257D77468124BE2EE24208015EE8A
:1056A30024211257CA60151257D77403F0A374014B
:1056B300F0EE2421F582E43FF583E4F0EEFAEFFB0C
:1056C3001221EAE9F50B70907C137D0079007409CF
:1056D300120EF5121734741A1211A57401125843DD
:1056E30064687002A3E0704F8E828F8312535EE072
:1056F300640560030256587C0879FF8E828F83A36A
:10570300A3A3A3E0242A125DD41217BEE9700302F7
:1057130056587C087D0079FF7401120EF512173478
:105723007401120EFD7A007B0079AB122106741905
:105733001211A574FC80151257D7E064037004A3FB
:10574300E06401700874191211A574FFF0E4F50800
:10575300F5097808120E3D7402120EFD741312112E
:10576300A5AA82AB831262B9120E508521828522CB
:1057730083E0602B7409120EED88088909780812FA
:105783000E3D7508137509007808120E3D7C007DE7
:1057930000126B2C120E508006E50C450D6007AA13
:1057A3000CAB0D1217E2EEFAEFFB1217E280037552
:1057B3000B10A90B741C0277ACEE2406FAE43FFB32
:1057C3001218C622EE240C12584B22EE2420125833
:1057D3004B640122EE12530E3FF58322E508240E9B
:1057E300F582E43509F583E0221257F1A322E08E16
:1057F300828F8322A3E0F912222C22E05403640156
:105803002212580822E0FAE82AF8E43400F9228E3A
:10581300828F83A3A3A3126180125808EE24161269
:10582300584B12582DFCE439FD22FAE82AF8E439E2
:10583300F9E824042212583C221266F3A3A3A322FC
:10584300F012584822EE240FF582E43FF583E0225C
:105853007901020E1D74F412094CEAFEEBFF8A82F1
:10586300F583A3A3A3A3A3A3A3A3124B6D2424F59E
:1058730082E438F5831257FE702E8A828B8312548A
:105883008D7025125926E06405701D125926A3E078
:10589300F874016860057406687007125340740257
:1058A30080051253407403F0EA240A12622712613E
:1058B30090E4F0EA2408F8E43F1232162431F5822A
:1058C300E43AF583E0C0E0126EC7A3A3D0E0125917
:1058D30045CA242EF582E43AF583E0C0E0126EC790
:1058E300A3A3A3D0E0125E6BC8125920381240B9AB
:1058F300126EC712593A8A0A8B0BAC0AAD0B850894
:1059030082850983125DD11218C6850882850983B1
:10591300124D751221EA126222F002322C240BF589
:1059230082E4228A828B83A3A3A3A3A3A3A3A312A8
:1059330066B9F583888222A3A3A3A3124C0C122376
:105943005822125DADFAA3E022025853C082C083ED
:10595300901A2B7430F0A37421F0901A2D743CF03C
:10596300A37421F0901A2F7442F0A37421F0901ABB
:10597300317436F0A37421F0025C5674F412094CAE
:10598300EA2408FEE43BFF8E82F58312532A126158
:1059930066E0F50874035508F509125DCCF8A3E039
:1059A3008882F583E508F0A3A882A983E509600945
:1059B300740265096003025A6B740C5508FC600A93
:1059C30074086C600574046C7026740265097006B3
:1059D300E508A2E4401A8A828B83A3A3A3A3A3A30B
:1059E300A3A3125B711268BF3D125B0CA308A983CA
:1059F300740C6C701C125B6D2428125B592428F5FF
:105A030082E43DF583A31264EDF0E82402F850012B
:105A130009740265097006E508A2E4404B125B6D48
:105A2300242A125B59242AF582E43DF583A3125BF1
:105A33001B125B771264ED125B77A3125B13E824EE
:105A430004F8500109EC600F74086C600A740C6C64
:105A5300600574046C701112619D2426F582E43C88
:105A6300125B0CA3A882A9838A828B83A3A3A3A31B
:105A7300A3A3A3A3125B3B54037014E508A2E14064
:105A83000E12619D125B063CF583E05480600812A0
:105A93005B21125B0E80199019FFE0C0E0125B21BD
:105AA300D0E0125B4E88828983125B4E04125DB292
:105AB300A3A882A983E508A2E750458E828F8312AB
:105AC3005B3B88828983125B54125B4054036030D2
:105AD30012619D2434F582E43C1264EBF0E508A2E4
:105AE300E1501D8A828B83A3A3A3A3A3A3A3A31221
:105AF300321B2435F582E43A1264EBA3F0E8240365
:105B030002322C241EF582E422F583125B1BF02261
:105B1300125B1BA3A3A3F022E088828983228A82DB
:105B23008B83A3A3A3A3A3A3A3A3E0FCA3E0CC24FD
