:020000040000FA
:0600000002109D0205F252
:03001B000206AE2C
:03002B00020E6062
:03004300020D2E7D
:030053000205277C
:030073000207037E
:100083000205860100F0FF0700080000FFFF0000E3
:100093000504000000030001FF32102700000020C8
:1000A300FD000206FFFF1E93190000000000000080
:1000B30000000000000000E80300000000E8030067
:1000C3000000000F0000000F0000000104010C00FD
:1000D30002027A8401948401040000E41800000001
:1000E300E8030000FFFF35190188130000E803004F
:1000F3000064006400B801A0BB0D00A0BB0D0002AA
:100103000202070401071E02051E020A0A01010872
:10011300080103B80B02803E0102FEFFE8030A0553
:100123000001FFFF020A011401E0020000000503C1
:1001330001010F0300030003000300030003000396
:10014300000300030005000A00140028004F009E6E
:100153000000006A2B000000003E2A00000000FFA0
:10016300000000FF001210E960461210AD603DE987
:10017300687008F618F618F618F622748067F712F6
:10018300019C090909748067F7221210AD601D12E2
:1001930010E97005191919801A120FC1701F120F77
:1001A300ADC37003E66733191919400718181822ED
:1001B30008080874FFF618F618F618F622120FADA1
:1001C300601712114A702192F012115C70195017C6
:1001D30020F014080808090909E7F61819E7F618C2
:1001E30019E7F61819E7F62212115C60E6E8697060
:1001F3001F0808E62480F608E436F618547FB47F17
:100203000CE654806007F6E418F618F62218182254
:10021300E9C6CC08C6CD08C6CE08C6CFC0E0E8C044
:10022300E0EAC0E0EBC0E009E9F809E7FA09E7FB17
:10023300E6F918E6F8C3EC98ED99EE9AEBC2E7F508
:10024300F0EFC2E795F0500E600CEBCFFBEACEFA6D
:10025300E9CDF9E8CCF8EAA2E7D2E7FAEB33FB13EE
:10026300F5F0EEA2E7D2E7FEEF33FFC5F013A2E706
:1002730030E601B313C5F0C3C0E0C0F07F00C39BF9
:10028300FB605E9418600F401D14601AD0E023F9E0
:10029300D0E0F802036E8AF0E9486003D2F0E4AFDD
:1002A300F0FAF9F8803BEB30E40D89F0EA6003D211
:1002B300F0E4AFF0F9CAF8EB30E30D88F0EF600239
:1002C300D2F0AFF0E4CAC9F8EB54076014FBC3EAF9
:1002D30013FAE913F9E813F8EF135002D2E0FFDB46
:1002E300EDD0E0C0E030E739C3E49FFFF5F0EC98D0
:1002F300FC42F0ED99FD42F0EE9AFE42F0D0E0F9B7
:10030300D0E0F8E5F0607AE923F9EE20E742D8027D
:100313008067C3EF33FFEC33FCED33FDEE33FE8038
:10032300EAEC28FCED39FDEE3AFED0E023F9D0E00B
:10033300F84002801BC3EE13FEED13FDEC13FCEF3C
:10034300135002D2E0FF08B800067F7F74FF802EAF
:10035300EF3350178CF020F00260100CBC000C0D32
:10036300BD00080EBE000408E860DFE933E813FFB0
:10037300EE2313FE4F4D4C8008E95480FFE4FEFD4D
:10038300FCEE33EF33F47004FCFD7E80D0E0FBD051
:10039300E0FAD0E0F8D0E0CFC618CEC618CDC61824
:1003A300CCC6F922001210AD604F1210E96012E7BB
:1003B300548066F6120FC1701112114A703B09097D
:1003C30009F4F618F618F618F622120FAD70151286
:1003D300115C08080860EAE6447FF618768018E4A2
:1003E300F618F62212115C601612114A7012E4F626
:1003F30008F608F608E65480F609090918181822C1
:10040300EAC0E0EBC0E0ECC0E0EDC0E0E687F0A4BA
:10041300FBACF008E687F0A42CFCE435F0FA1809ED
:10042300E687F0A42C4B60027401CA35F0FCE43378
:10043300FB09E687F0D2F7A42CCB35F0FC1908E6CC
:1004430087F0A42BCC35F0FBE433FD0819E687F0E5
:10045300D2E7A42C4ACB35F0CD3400FC09E687F073
:10046300D2E7A42DCC35F0FDE433FA0918E687F082
:10047300D2F7A42CCD35F0CA3400FC08E687F0D2BD
:10048300E7D2F7A42ACC35F07A7E20E70B0ACB33E8
:10049300CBCD33CDCC33CC33CB3350147004ED30D0
:1004A300E00ED2F1E4CD3DCDCC3CCC3B5005DA059A
:1004B300C2F1EB547FC63308E63392F0FBE733090E
:1004C300E733C39A502D2B70190C0D4C4D70151832
:1004D30006E608C333700D20F10AA2F013F6E41800
:1004E300800B4024E4F630F002768018F618F618F4
:1004F300F68024D33B14501074FFA2F013F6187641
:1005030080E418F618F6800FA2F013F618E633030A
:10051300F618ECF618EDF6D0E0FDD0E0FCD0E0FBE9
:10052300D0E0FA22C0E074F11209B5A2AFE433F5CA
:1005330009D2AF85A708AFA1EF5508FE74105E601E
:100543000612141D75A1EF74085E6008121423755A
:10055300A1F78024EFA2E092F0E508A2E082F05038
:1005630017906198E0F8900B46E0C398A2D265D04B
:10057300335002E8F075A1FEE509A2E092AF7F02D5
:10058300020A14C0E074F21209B5A2AFE433FED23A
:10059300AF9061A4E0F8759B00E59158540860089A
:1005A3007591F71214718023E59158541060087502
:1005B30091EF1214778014E591A2E092F0E8A2E0A3
:1005C30082F05007E0C2E0F01215C19061A3E0F899
:1005D300E5E9585404600E12159775E9FB90619391
:1005E300E0A2E640F2EEA2E092AF7F01020A14C05D
:1005F300E074F21209B5A2AFE433FED2AF9061A565
:10060300E0F8E5BF585404600675BFFB1215D980A6
:10061300D4C3E498F8E499F91206558026C3E49A02
:10062300FAE49BFBE920E7E9120655E498F8E4991C
:10063300F922C3E498F8E499F9120655E498F8E42A
:1006430099F9C3E49AFAE49BFB22EB20E7CFE92074
:10065300E7E0B90010BB0008E88AF084F8AAF022AA
:10066300E4FBC8FA22EB70227B10C833C8C933C934
:10067300335007C39AC3DBF280069A50012ADBEAA0
:10068300C833F4C8C933F4C9FA2275F008E4C8338F
:10069300C8C933C933C99AC99B5004C92AC93BD5B0
:1006A300F0ECFBC833F4C8E4C9FA22C0E0C0D0E8D8
:1006B300C0E0E9C0E0C082C083A8F9E8C0E0900AC6
:1006C300B3E0F8743228F582E4340AF583D0E0F01D
:1006D300900AB2E0F8A3E0687006E595900AB5F0D9
:1006E300900AB3E004F0C394804002E4F0A374C61C
:1006F300F0D083D082D0E0F9D0E0F8D0D0D0E0328F
:10070300C0E0C0D0E8C0E0E9C0E0C082C083900B85
:1007130036E0F8A3E0687008539AF7A374018022C7
:10072300C2EA900B36E0F8740128F074B628F5821B
:10073300E4340AF583E0F5F9900B36E0C394804086
:1007430002E4F080AC12079330F0391207D88034FA
:1007530012079320F01430E72B74FFFCFBFA747F2D
:100763008022E4FCFBFA7480801AB48008BC00F297
:10077300BB00EF800F50EBF9E4C39AFAE49BFBE470
:100783009CFCE499C6CC18C6CB18C6CA18C6F92275
:10079300E4C9C608CAC608CBC6D3330308CCC633DC
:1007A30092F0C3947F402E94184019C9B90704CA24
:1007B300CBCC225025C309CA33CACB33CBCC33CCE1
:1007C30033D9F422F4600DC9CCC313CB13CBCA13B2
:1007D300CAD9F6CC22E4FCFBFA2214FCFBFA220869
:1007E3000808EAC0E0EBC0E086F0E7A4FA1809863F
:1007F300F0E7A42AFA180986F0E7A42AFA1809866A
:10080300F0E7A42AFA1986F0E7A4FBE5F02AFA191F
:100813000886F0E7A42BFBE5F03AFA190886F0E71F
:10082300A42BFBE5F03AFA18180986F0E7A4C5F003
:100833002BFBE43AFA1908E7C5F0C6A426F6E5F05F
:100843003BFBE43AFA1886F0E7A4F6E5F00826F64F
:10085300E43B08F6E43A08F6D0E0FBD0E0FA2208DD
:100863000808E630E711120F5D12087A080808C677
:100873004480C618181822181818E9799EC608CAA1
:10088300C608CBC608CCC6C370207996CACBCC7039
:1008930019798ECBCC70137986CC700EF9802ACA65
:1008A30033CACB33CBCC33CC331930E7F2CCCBCAFE
:1008B3003350147004EA30E00DE4CA3ACACB3BCBA0
:1008C300CC3CCC500209C3E913C6CC182313C6CBC6
:1008D30018C6CA18C6F922E4CFC0E0E4CEC0E0E4EB
:1008E300CDC0E0E4CCC0E075F020E626F608E633A0
:1008F300F608E633F608E633F6181818EC33FCED81
:1009030033FDEE33FEEF33FFC3EC9709ED9709EEAA
:100913009709EF97191919400FFFEC97FC09ED9709
:10092300FD09EE97FE191906D5F0BFECF709EDF7AF
:1009330009EEF709EFF7191919D0E0FCD0E0FDD063
:10094300E0FED0E0FF222521C582C0E0E52234FF8E
:10095300C583C0E0E521C3958224F810AF088583E1
:10096300228582218008858322858221D2AFCEF021
:10097300A3E520F0A37808E608F0A3DEFAEFF0A3DE
:10098300E58124FAF8E608F0A3E608F0A3E608F008
:10099300A30808E608F0A3E608F0A315811581D0A3
:1009A300E0FED0E0F8158115811581E8C0E0EEC0C6
:1009B300E022C0D02521C582C0E0E52234FFC583F3
:1009C300C0E0E521C3958224F310AF088583228517
:1009D30082218008858322858221D2AFC8F0A3E9D2
:1009E300F0A3EAF0A3EBF0A37908E709F0A3D8FAA0
:1009F300ECF0A3EDF0A3EEF0A3EFF0A3D0E0F0A3AF
:100A0300D0E0F0A3D0E0F0A3E520F0A3E5F0F0A35D
:100A130022852283852182E0C0E0A3E0F9A3E0FAE6
:100A2300A3E0FBA37808E0F608A3DFFAE0FCA3E069
:100A3300FDA3E0FEA3E0FFA3E0C0E0A3E0C0E0A3CA
:100A4300E0F5D0A3E0F520A3E0A3F5F010AF08850F
:100A530083228582218008858322858221D2AFD09B
:100A630082D083D0E0F8D0E032121135B90003020E
:100A73000AABE490050178D079178002F0A3D8FC83
:100A8300D9FA7AD07B1B90008678E379018015E44C
:100A930093A3AD82AE838A828B83F0A3AA82AB83B6
:100AA3008D828E83D8E9D9E77582347583E3740424
:100AB300120DF17582A97583277400120DF10000E0
:100AC3002275F0108E238F24858228858327852124
:100AD30082852283E0CEA3E0CF852882852783EB1E
:100AE300C9EAC8EDCBECCAC3E833C8E933C9EA3372
:100AF300CAEB33CBC3EA9EF526EB9FF525B350042F
:100B0300AB25AA26EC33CCED33CDD5F0DAAE23AF4B
:100B130024221210AD601C1210E9601712115C70D0
:100B23000712114A7001D322C0D012114A7006D0A5
:100B3300D0B322C32233D0D0501430E0F6C3E796AB
:100B43000809E7960809E7960809E796B32220E023
:100B5300D5E6970809E6970809E6970809E697B3E3
:100B630022D083D082ECC0E0EDC0E0E493A3FCE4A8
:100B730093A3FDED4C600D120C3CEC24FFFCED3413
:100B8300FFFD80EFE493A3FCE493A3FDED4C600D24
:100B9300120CD9EC24FFFCED34FFFD80EFD0E0FD17
:100BA300D0E0FCE493A3C0E0E493C0E022D083D080
:100BB30082E9C0E0E493A3C386F0C5F095F0F90899
:100BC300E493A386F0C5F095F0700BE493A3C39967
:100BD3004005E9048002A3E475F002A42582F582AE
:100BE300E5F03583F583D0E0F9E493A3C0E0E49323
:100BF300C0E022852283852182E0A3FEE0A3F520C5
:100C03007808E0A3F608DFFAE0A3FFE0A3C0E0E082
:100C1300A3C0E0E0A3C0E0E0A3C0E0E0A3C0E01015
:100C2300AF088582218583228008858221858322DE
:100C3300D2AFD083D082020DF7C0E0C3E49396080D
:100C43007401939618400FE4936670080874019337
:100C5300661870007019A3A3C3E4939608740193F4
:100C63009618A3A3400DD0E0D0E0D0E0020BA0A3E0
:100C7300A3A3A3A3A3D0E02274048004740280007E
:100C8300CCC0E0EDC0E0E521C39CCCAD2250011DFA
:100C930010AF068C218D2280068C218D22D2AF12BB
:100CA3000D73D0E0FDD0E0FC2274028000CCC0E0E4
:100CB300EDC0E0E521C39CCCAD2250011D10AF0671
:100CC3008C218D2280068C218D22D2AF120D51D022
:100CD300E0FDD0E0FC22C0E0C0F088F0E493667051
:100CE300080874019366187000A8F0A3A3700BD0D2
:100CF300F0D0E0D0E0D0E0020BA0A3A3D0F0D0E08E
:100D030022D083D082CCC0E0E493A36006120D947A
:100D13001470FAE493A36006120EF31470FAD0E091
:100D2300FCE493A3C0E0E493C0E022C0E074F212B9
:100D330009B5A2AFE433FED2AFC2C0E5D1A2E450FD
:100D430003121381EEA2E092AF7F01020A14CAC01C
:100D5300E0E493A3C582CCC582C583CDC583F0A34C
:100D6300C582CCC582C583CDC583DAE5D0E0CA226E
:100D7300CAC0E0E0A3C582CCC582C583CDC583F0DC
:100D8300A3C582CCC582C583CDC583DAE6D0E0CACC
:100D930022C0E0E493A3D39C5010E493A3C39C40EC
:100DA3000AD0E0D0E0D0E0020D21A3A3A3D0E0223B
:100DB300C008C3E096F50808A3E096420808A3E03C
:100DC30096420808A3E09645087001D3D008227024
:100DD30009080808226016181818C6C333C608C6BF
:100DE30033C608C633C608C633C6D5E0EA22C09F59
:100DF300F59FE473D09F22D083D082C09FE493C039
:100E0300E0740193C0E0740293F59F227404800A96
:100E130074038006740280027401C0E0F404120EAD
:100E230045D0E01210F82200C0D0252110AF08F5FC
:100E330021500C05228008F52150020522D2AFD0A3
:100E4300D0222521F58210AF08F521400C15228010
:100E530008F52140021522D2AF85228322C0E0C0CB
:100E6300D0E8C0E0A8A8D2AFC2C7E8A2E792AFD04B
:100E7300E0F8D0D0D0E032BB0102E722C082C083C9
:100E830089828A83BB0003E08002E493D083D0820B
:100E9300226016080808C6C313C618C613C618C6A8
:100EA30013C618C613C6D5E0EA222521F8E4352275
:100EB300F9222521FAE43522FB222521FCE43522FF
:100EC300FD22C3E0C696F608A3E0C696F608A3E0A3
:100ED300C696F608A3E0C696F622252110AF08F5BC
:100EE30021400C15228008F52140021522D2AF22A1
:100EF300C0E0E493A36C7009D0E0D0E0D0E0020D31
:100F030021A3A3D0E022E76670100809E766700A00
:100F13000809E76670040809E76622C3E09608A398
:100F2300E09608A3E09608A3E096A2D265D0332208
:100F3300C3E7960809E7960809E7960809E796A222
:100F4300D265D03322E066701008A3E066700A0809
:100F5300A3E066700408A3E06622181818E4C39699
:100F6300F608E496F608E496F608E496F622C3E457
:100F730093960874019396087402939608740393E6
:100F83009622C3E096F008A3E096F008A3E096F05B
:100F930008A3E096F022C3E697F60809E697F60859
:100FA30009E697F60809E697F622191919E709479A
:100FB300097009E727097005E733F4220922181895
:100FC30018E60846087009E626087005E633F42299
:100FD3000822E026F008A3E036F008A3E036F00884
:100FE300A3E036F022E026F608A3E036F608A3E0F5
:100FF30036F608A3E036F622E627F60809E637F6C2
:101003000809E637F60809E637F622700422600D70
:1010130018C6C333C608C633C6D5E0F41822E6574C
:10102300F60809E657F60809E657F60809E657F6FB
:1010330022E056F008A3E056F008A3E056F008A318
:10104300E056F022E647F60809E647F60809E647C0
:10105300F60809E647F622E056F608A3E056F60836
:10106300A3E056F608A3E056F622C6F4C608C6F473
:10107300C608C6F4C608C6F4C622C3E09608A3E0B1
:101083009608A3E09608A3E09622C3E7960809E72B
:10109300960809E7960809E7962275D00075813FFF
:1010A30075210175220500020A6CE6084608C31380
:1010B3004608336002E633F422600C08C6C313C645
:1010C30018C613C6D5E0F422E0F608A3E0F608A399
:1010D300E0F608A3E0F622E6F008A3E6F008A3E6AC
:1010E300F008A3E6F022E7094709C3134709336071
:1010F30002E733F422CAC0E0E6F0A308DAFAD0E04C
:10110300FA22E8F0A3E9F0A3EAF0A3EBF022E0FA75
:10111300A3E0FBA3E0FCA3E0FD22EAF0A3EBF0A332
:10112300ECF0A3EDF022E0F8A3E0F9A3E0FAA3E0EA
:10113300FB22E5C754F84401F5C77901222521F5BF
:1011430082E43522F58322E72719471947194722F5
:10115300C2AF75D69F02000022E62618461846182D
:101163004622120DFA1AD402120DFA63D702120D97
:10117300FACAD902120DFA76DA02120DFAA6DA02C7
:10118300120DFA06DB02120DFA9ADB02120DFA4B6C
:10119300DC02120DFA9CDC02120DFAE0DC02120DE5
:1011A300FA7ADD02120DFAEADD02120DFA19DE02F5
:1011B300120DFA1FDF02120DFA49DF02120DFA9D1A
:1011C300DF02120DFA71E002120DFA9FE202120D14
:1011D300FA4DE302120DFABAE502120DFA3FE602E6
:1011E300120DFA42E902120DFA76EB02120DFAB26F
:1011F300EB02120DFA0BED02120DFA1EED02120DA7
:10120300FA5BED02120DFA24EF02120DFADBF00283
:10121300120DFA57F102120DFA8AF102120DFAB801
:10122300F102120DFAF6F102120DFA33F402120D65
:10123300FA52F402120DFA97F402120DFA2DF50286
:10124300120DFA79F502120DFA0DF602120DFAE6F5
:10125300F602120DFA42F702120DFAA0F702120D6E
:10126300FA13F802120DFA57F802120DFAAFF80248
:10127300120DFAD1F802120DFA61F902120DFAF207
:10128300F902120DFA3EFA02120DFA6AFA02120D6F
:10129300FAABFA02120DFA41FC02120DFA2DFD020D
:1012A300120DFA08FE02120DFA73D304120DFAA6F8
:1012B300D304120DFAC6D304120DFAEDD304120DA2
:1012C300FA1AD504120DFA3BD504120DFA03D6040B
:1012D300120DFA9CEE04120DFAA1EE04120DFAD4CB
:1012E300EE04120DFA38E104120DFAFFE104120DB7
:1012F300FA11E204120DFA26EF04120DFA37EF0485
:10130300120DFA51EF04120DFAFCFF02120DFAE767
:10131300FF02120DFAA6EC04120DFAB6EC04120D3C
:10132300FACBEC04120DFA14ED04120DFAE2FE02EC
:10133300120DFA66FF02120DFACEFF02120DFAEB3E
:10134300FF03120DFAE6CC04120DFAF4CC04120DCD
:10135300FA6DCD04120DFA46CE04120DFA09D0042B
:10136300120DFA60EF04120DFAE0AE04120DFA4CFE
:10137300AF04120DFAEFAF04120DFA64B104120DAB
:10138300FACBB104120DFA18B204120DFA71B204B9
:10139300120DFAF5B204120DFA2AB304120DFA482B
:1013A300B304120DFACEB304120DFA51B404120DA4
:1013B300FA5EB404120DFA887A00120DFAB47A00B8
:1013C300120DFA1E7D00120DFA5E7D00120DFA9ABF
:1013D3007D00120DFAAE7D00120DFAC77D00120DCD
:1013E300FAB97E00120DFA6C7F00120DFA807F00AD
:1013F300120DFA19E504120DFA3DE504120DFA5621
:10140300E504120DFA94E504120DFAC4E504120D75
:10141300FAF1E504120DFA57E604120DFA5AE6043E
:10142300120DFA64E604120DFA71E604120DFA5471
:10143300DC04120DFA74DC04120DFAB3DC04120D91
:10144300FAD1DC04120DFAECDC04120DFA52DD04BD
:10145300120DFA5EDD04120DFABBDD04120DFACA99
:10146300DD04120DFAEEDD04120DFAAFDE04120DE7
:10147300FABCDE04120DFACDDE04120DFA2FEC04D1
:10148300120DFA77EC04120DFAA3EC04120DFABF55
:10149300B404120DFA19B604120DFA27B604120D8C
:1014A300FA3AB604120DFA4FB604120DFA64B604F2
:1014B300120DFA77B604120DFAF3B604120DFA58A8
:1014C300B704120DFAEEB704120DFAC7B804120DE1
:1014D300FAD7B804120DFAE6B804120DFA62FF0146
:1014E300120DFA86FF01120DFAAEFF01120DFAD6A4
:1014F300FF01120DFA96FD03120DFABDFD03120D45
:10150300FADBFD03120DFA4AFE03120DFA81D90428
:10151300120DFA9AD904120DFAA6D904120DFABAC9
:10152300D904120DFAD8D904120DFAE2D904120D16
:10153300FAECD904120DFAFFD904120DFA85DA0474
:10154300120DFAFADA04120DFA29DB04120DFA77F6
:10155300DB04120DFAC6DB04120DFAE1DB04120DF3
:10156300FAEBDB04120DFAFCDB04120DFA3FDC0488
:10157300120DFA49EE04120DFA179504120DFA43EF
:101583009504120DFA609504120DFA739504120D69
:10159300FA8E9504120DFAE89504120DFA169604C4
:1015A300120DFA269A04120DFA849B04120DFAB650
:1015B3009B04120DFA199C04120DFA859D04120D59
:1015C300FAAD9D04120DFAC29D04120DFAD29D04C8
:1015D300120DFA129E04120DFA549E04120DFA64AF
:1015E3009E04120DFA11E904120DFA2BE904120DEF
:1015F300FA53E904120DFA6CE904120DFA90E904A6
:10160300120DFAAEE904120DFAC5E904120DFAF34C
:10161300E904120DFA0EEA04120DFAE2EE04120DB9
:10162300FA5DC904120DFA6DC904120DFA72CA04E7
:10163300120DFAA4CA04120DFAD4CA04120DFAF751
:10164300CA04120DFA0ECB04120DFA48CB04120D84
:10165300FAADCB04120DFAEFCB04120DFA36CC041B
:10166300120DFA63CC04120DFA8ECC04120DFA7B20
:10167300E604120DFA8DE604120DFAA1E704120D29
:10168300FAA4E704120DFA41EB04120DFA77EB0406
:10169300120DFA8FEB04120DFAD1EB04120DFAE1DD
:1016A300EB04120DFA25EC04120DFAEEA704120D49
:1016B300FA31A804120DFA96A804120DFAB5A8047B
:1016C300120DFA57A904120DFA60A904120DFAB10A
:1016D300A904120DFADAA904120DFAE7A904120DEE
:1016E300FA59AA04120DFAE7AA04120DFA2CAB0454
:1016F300120DFA65AB04120DFACAAB04120DFAF31C
:10170300AB04120DFA6AAC04120DFAB9AC04120D53
:10171300FAF6AC04120DFA2BAD04120DFA3DAD042A
:10172300120DFA4FAD04120DFA6EAD04120DFA77D5
:10173300AD04120DFA33AE04120DFA76AE04120D97
:10174300FAB4AE04120DFA92ED04120DFAD1E704C5
:10175300120DFAFBDE04120DFA30DF04120DFA78D3
:10176300DF04120DFAD1E004120DFA66DE03120D46
:10177300FA8CDF03120DFAC8DF03120DFA86E103B8
:10178300120DFAB4E103120DFA1EE403120DFA5E10
:10179300E403120DFA00E603120DFA96E603120DA6
:1017A300FAF0E603120DFA80E703120DFAC4E70319
:1017B300120DFA06E803120DFA6BE903120DFAEBA8
:1017C300EA03120DFA2CED03120DFA5AED03120D72
:1017D300FA86ED03120DFA8FED03120DFAECED0309
:1017E300120DFA85EE03120DFA9CF103120DFA2283
:1017F300F203120DFA947F00120DFAAA7F00120D64
:10180300FAC9C104120DFADFC104120DFA83C2042E
:10181300120DFAC2C204120DFADFC204120DFA103D
:10182300C304120DFA5DC304120DFA91C304120D21
:10183300FACCC304120DFAC1C504120DFA41EA042D
:10184300120DFAA0EA04120DFADEEA04120DFA1FD1
:10185300EB04120DFA93C101120DFA9FC101120D8F
:10186300FA01C201120DFA0BC201120DFA9AC2015A
:10187300120DFAD6C201120DFACDC301120DFA2AC6
:10188300C401120DFAB8C401120DFA09C501120DF3
:10189300FA89C501120DFA4BC701120DFA50C9019D
:1018A300120DFA4ACA01120DFA7CCB01120DFACEBF
:1018B300CD01120DFA11CF01120DFAB6CF01120D9F
:1018C300FA69D401120DFA5FD501120DFAF5D501AB
:1018D300120DFA1AD601120DFAB7D601120DFAD467
:1018E300D601120DFAF4D601120DFA62D701120DC8
:1018F300FA7FD701120DFAADD701120DFA45D901BE
:10190300120DFA66D901120DFA0CDA01120DFA540E
:10191300DA01120DFAB2DA01120DFA55DB01120DDA
:10192300FABADB01120DFA19DC01120DFACFDC0150
:10193300120DFA3EDD01120DFA79DD01120DFAEDF9
:10194300DD01120DFA4EDF01120DFAE5DF01120D72
:10195300FA84E001120DFAE0E201120DFA42E3010A
:10196300120DFACFE401120DFAFDE401120DFA2073
:10197300E701120DFACAE901120DFADDEA01120DAF
:10198300FA949E04120DFAAD9F04120DFA30A104CD
:10199300120DFA4AA104120DFA5DA104120DFA7C8C
:1019A300A104120DFA45A204120DFAAAA304120D02
:1019B300FA8AA404120DFAF4A404120DFABFA604C1
:1019C300120DFACEC504120DFA89C604120DFAEFF0
:1019D300C604120DFA10C704120DFAEBC704120D58
:1019E300FA44C903120DFA73C903120DFAEBC903C2
:1019F300120DFAFACA03120DFA56CB03120DFAC3EB
:101A0300CC03120DFADFCC03120DFA31CD03120D04
:101A1300FA6FCD03120DFA82CD03120DFADACD035C
:101A2300120DFA9CCE03120DFA18CF03120DFA4FC2
:101A3300CF03120DFA87CF03120DFA0FD103120D44
:101A4300FAEED103120DFA3CD303120DFA1FD4039D
:101A5300120DFAABD403120DFAEBD403120DFA0AEA
:101A6300D503120DFA55D503120DFA75D503120DD0
:101A7300FA0ED603120DFA94D603120DFAEFD6031B
:101A8300120DFA2FD703120DFAC5D903120DFADE80
:101A9300DA03120DFA24DB03120DFA19DC03120D1B
:101AA300FA41DC03120DFA44DC03120DFA4EDC0397
:101AB300120DFA6ADC03120DFAE4DC03120DFA1DAF
:101AC300DD03120DFA49DD03120DFA70DD03120D69
:101AD300FA94DD03120DFA05DE03120DFA18DE0384
:101AE300120DFA47DE03120DFA1DED04120DFA2949
:101AF300ED04120DFA5DED04120DFAFBFF01120D58
:101B0300FA15B303120DFA38B303120DFA85B403B1
:101B1300120DFACEB403120DFA3AB503120DFA9868
:101B2300B503120DFA9BB503120DFAECB503120DB2
:101B3300FA61B603120DFAE6B603120DFAE9B6031B
:101B4300120DFA6AB703120DFAABB703120DFA9727
:101B5300BB03120DFA41BD03120DFA91BD03120D21
:101B6300FA18C103120DFA4BC203120DFAC5C303CF
:101B7300120DFA62C403120DFA4DC503120DFAA237
:101B8300C703120DFAF2EE01120DFA9CEF01120DCA
:101B9300FA07F001120DFA22F001120DFAA7F00173
:101BA300120DFA01F101120DFAE49004120DFAAFCD
:101BB300F101120DFA2EF301120DFA5DF401120D6B
:101BC300FAE5F401120DFAEEF601120DFA6ED302E4
:101BD300120DFA3FF801120DFA10F901120DFACBAA
:101BE300FA01120DFA63FC01120DFAF6FC01120D53
:101BF300FA1CFE01120DFA008003120DFA63800332
:101C0300120DFAAB8003120DFAEF8003120DFA4A9C
:101C13008103120DFAA78103120DFAE28103120D5B
:101C2300FA61D202120DFABE8203120DFA3C84034A
:101C3300120DFABC8403120DFA178503120DFA3143
:101C43008503120DFA528503120DFAAC8503120DAA
:101C5300FA288803120DFA478803120DFA3789030D
:101C6300120DFA6A8A03120DFAE98A03120DFA2594
:101C73008B03120DFA948B03120DFA498C03120D88
:101C8300FA218E03120DFA288F03120DFAA0900386
:101C9300120DFA969203120DFA0C9503120DFAE641
:101CA3009603120DFAA79703120DFA1F9803120D4C
:101CB300FA369803120DFA2D9903120DFA219A039D
:101CC300120DFA909A03120DFA8FD604120DFAE64A
:101CD300D704120DFAA5D804120DFA0DD904120D6A
:101CE300FA4ED004120DFA69D004120DFAADD004E5
:101CF300120DFAD3D004120DFAFAD004120DFA120F
:101D0300D104120DFAB4D104120DFAC9D104120D83
:101D1300FAECD204120DFAF5D204120DFAFED20433
:101D2300120DFA07D304120DFA11D304120DFA1788
:101D3300B904120DFA23BD04120DFA28BD04120DC5
:101D4300FA2ABD04120DFAA6E304120DFA98EF0461
:101D5300120DFAEAED04120DFAFAED04120DFA91DE
:101D6300BD04120DFA35AC02120DFA68AC02120D65
:101D7300FAD4AC02120DFA6FAD02120DFA0CAE02D8
:101D8300120DFA51AE02120DFA73AE02120DFA8C55
:101D9300AE02120DFAB2AE02120DFAD4AE02120D59
:101DA300FA12AF02120DFA56AF02120DFA78AF0211
:101DB300120DFADAAF02120DFAA1B002120DFA589F
:101DC300B102120DFACAB102120DFA95B202120D46
:101DD300FAE8B202120DFA4EB302120DFA88B302F8
:101DE300120DFADAB302120DFA48B402120DFAB365
:101DF300B402120DFAB6B402120DFA37B502120D7F
:101E0300FACEB502120DFA4EB602120DFA6DB602F3
:101E1300120DFAD1B702120DFADEB702120DFAEA69
:101E2300B802120DFAF7B802120DFA00B902120D38
:101E3300FAD8BA02120DFAF2BB02120DFA6BBC0207
:101E4300120DFADDBC02120DFAFFBC02120DFA9359
:101E5300BD02120DFA67BF02120DFA3EC302120D44
:101E6300FA52C302120DFA62C302120DFA6CC302D4
:101E7300120DFA75C302120DFA7EC302120DFA880F
:101E8300C302120DFAB5C302120DFADEC302120D1C
:101E9300FAE9C302120DFA0DC402120DFA31C4029B
:101EA300120DFA9BC402120DFAE1C402120DFAFEDE
:101EB300C402120DFA7BC502120DFAB2C502120D4D
:101EC300FAF1C502120DFA3EC602120DFAC4C60299
:101ED300120DFA92C802120DFA15C902120DFAF97F
:101EE300C902120DFA60CC02120DFAB9CC02120D1E
:101EF300FA03CD02120DFA5ECE02120DFA93CE0250
:101F0300120DFAE5CE02120DFA9ACF02120DFA491A
:101F1300D002120DFA86D002120DFA1BD102120D55
:101F2300FA87D102120DFACB2D00120DFAFD2D0006
:101F3300120DFA2B2E00120DFA013000120DFAE1E8
:101F43003000120DFA393100120DFA743200120DFD
:101F5300FAC03200120DFAE93500120DFADC38002E
:101F6300120DFA2C3A00120DFAC23A00120DFACEF3
:101F73003A00120DFA003B00120DFA833C00120DD9
:101F8300FA343E00120DFAC83E00120DFA0B3F0060
:101F9300120DFA893F00120DFAA63F00120DFAD670
:101FA3003F00120DFA0B4000120DFADB4000120D38
:101FB300FA844100120DFA0A4400120DFA2A450070
:101FC300120DFA154600120DFA974600120DFACBC0
:101FD3004A00120DFA084B00120DFA604B00120D65
:101FE300FA934B00120DFAFD4B00120DFA334C001D
:101FF300120DFABE4C00120DFA164D00120DFAED39
:102003004D00120DFAA64E00120DFA414F00120DAB
:10201300FA495200120DFA655300120DFA085700DF
:10202300120DFAFC5700120DFAFF5700120DFA2E8B
:102033005800120DFA345A00120DFA0D5B00120DFE
:10204300FA505B00120DFAA65C00120DFAE55C0073
:10205300120DFA6E5D00120DFAA25D00120DFA6701
:102063005E00120DFA7F6000120DFAF06000120D8F
:10207300FA306100120DFABE6100120DFAE062003F
:10208300120DFAA26300120DFAA96500120DFAC12E
:102093006500120DFAD56500120DFA0D6600120DDA
:1020A300FA3B6600120DFABA6700120DFADF6800F8
:1020B300120DFA3C6900120DFAEE6900120DFA15C1
:1020C3006A00120DFADC6A00120DFA746B00120D2D
:1020D300FA9A6D00120DFACF6D00120DFA326E00EE
:1020E300120DFA616F00120DFA097000120DFA3A1F
:1020F3007000120DFA527000120DFAE17000120D09
:10210300FA957300120DFA6D7500120DFA897500B8
:10211300120DFAA57500120DFA737600120DFA6608
:102123007A00120DFA9C8401120DFACE8401120D6D
:10213300FABD8801120DFA098901120DFA4F8901BE
:10214300120DFAF18901120DFA4D8A01120DFA925C
:102153008A01120DFAD98B01120DFAED8C01120DC1
:10216300FADC9001120DFA609101120DFA6D9201E1
:10217300120DFAC99201120DFAB99401120DFA2E39
:102183009501120DFA389501120DFA459501120DBC
:10219300FA709501120DFA579601120DFA01970183
:1021A300120DFA7F9701120DFA9F9701120DFAC8CB
:1021B3009701120DFAEA9701120DFA4A9A01120DCC
:1021C300FA109B01120DFA559B01120DFAD29B01D5
:1021D300120DFA839C01120DFAB59C01120DFAFB44
:1021E3009C01120DFA379D01120DFA879D01120D04
:1021F300FADB9D01120DFA319E01120DFA7D9E014B
:10220300120DFAEA9E01120DFA659F01120DFA30C2
:10221300A101120DFA30A201120DFA55A301120DFC
:10222300FA94A601120DFAA7A901120DFA64AA01E4
:10223300120DFAA8AA01120DFA58AC01120DFA6C8C
:10224300AC01120DFA76AC01120DFA80AC01120D3D
:10225300FA8CAC01120DFAA8AC01120DFA53AD01C0
:10226300120DFA92AD01120DFA9CAD01120DFAA6F0
:10227300AD01120DFA16AE01120DFA61AE01120D87
:10228300FA76AF01120DFAD2AF01120DFA53B00173
:10229300120DFA12B101120DFA1BB201120DFA4F0F
:1022A300B301120DFA3DB401120DFA55B401120D2A
:1022B300FAB0B401120DFACEB401120DFA16B5013B
:1022C300120DFA3DB501120DFAD8B501120DFA9EA1
:1022D300B601120DFA30B701120DFAAAB701120DA9
:1022E300FAC4B801120DFA71B901120DFA99BA01C3
:1022F300120DFAE9BA01120DFA4DBB01120DFAAF34
:10230300BB01120DFADDBB01120DFA01BC01120D66
:10231300FA36BC01120DFA67BC01120DFA9ABC0120
:10232300120DFABABC01120DFA22BD01120DFA16F2
:10233300BE01120DFA71BE01120DFA9ABE01120D01
:10234300FA22BF01120DFAA5BF01120DFAD0BF0187
:10235300120DFAB5C001120DFA81F203120DFAB98A
:10236300F203120DFADAF203120DFA1CF303120D43
:10237300FA7EF303120DFA88F303120DFA98F303AE
:10238300120DFAD3F303120DFAB3F703120DFAA0E9
:10239300F903120DFA86FB03120DFA1DFC03120D4D
:1023A300FABFFC03120DFA248102120DFAA2810274
:1023B300120DFAFE8102120DFA498202120DFA641D
:1023C3008202120DFA8F8202120DFAAC8202120DF2
:1023D300FAB88202120DFA4F8402120DFA688402CF
:1023E300120DFAED8402120DFA008502120DFA1F86
:1023F3008502120DFAC38502120DFA448702120DEB
:10240300FAF78802120DFA8D8902120DFA908902E9
:10241300120DFA008A02120DFA1E8A02120DFAB583
:102423008A02120DFAFD8A02120DFA008B02120DB6
:10243300FAC68B02120DFA338C02120DFA598C0272
:10244300120DFAE48C02120DFA028D02120DFA48F3
:102453008D02120DFAFC8D02120DFA468E02120D38
:10246300FA758E02120DFAD28E02120DFA078F023E
:10247300120DFA338F02120DFA418F02120DFA8EEA
:102483008F02120DFAFE8F02120DFA479002120DFF
:10249300FA939002120DFABF9002120DFACA90023B
:1024A300120DFAE89002120DFAD39102120DFADD21
:1024B3009102120DFA189202120DFA289202120DCD
:1024C300FA319202120DFA859202120DFA999202D2
:1024D300120DFAC89302120DFADD9302120DFA6B74
:1024E3009402120DFAB09402120DFA3C9502120DE9
:1024F300FA479502120DFA899602120DFAA4960272
:10250300120DFAF09602120DFA5F9702120DFA9865
:102513009702120DFAB29702120DFAF49702120DF6
:10252300FAC49A02120DFA719B02120DFADE9B0293
:10253300120DFA1E9E02120DFA369E02120DFA3980
:102543009E02120DFA459E02120DFA599E02120DB9
:10255300FA619E02120DFA949E02120DFA969F02E0
:10256300120DFA1DA002120DFA8DA002120DFA0F20
:10257300A102120DFAD0A102120DFAEFA102120D5F
:10258300FA90A202120DFAEDA202120DFAF0A202C3
:10259300120DFA64A302120DFAB3A402120DFAB9D2
:1025A300A502120DFA44A602120DFA5FA702120D3C
:1025B300FA27A802120DFA58A802120DFA7BA802F4
:1025C300120DFA84A802120DFAB3A802120DFA43EF
:1025D300A902120DFAF9A902120DFA6EAA02120D3E
:1025E300FA15AB02120DFA8AAB02120DFAC1AB0255
:1025F300120DFAFFAB02120DFADCD202120DFA41F0
:102603009004120DFA418F04120DFA5A8E04120D22
:10261300FA4A8C04120DFA588B04120DFAF68A0446
:10262300120DFA01B303120DFAF7B203120DFA8C6D
:10263300B203120DFAC0B003120DFA7EB003120DED
:10264300FA9BF701120DFA96D202120DFA82AF032A
:10265300120DFA56AF03120DFA2ED202120DFA1909
:10266300D202120DFA0DAF03120DFA4EAE03120D84
:10267300FA3AAB03120DFAFBA803120DFAC8A8032A
:10268300120DFA6FA803120DFA02A803120DFAC174
:10269300A703120DFAFAA603120DFA94A603120D5C
:1026A300FA33A603120DFAD3A503120DFAAAA40353
:1026B300120DFA3EA403120DFA96A303120DFA911A
:1026C300A303120DFA85A303120DFAB89F03120D8B
:1026D300FA929F03120DFAEED102120DFAD194046D
:1026E300120DFA9D9404120DFA469404120DFAB4D5
:1026F3009204120DFA069204120DFA699104120D56
:10270300FA309F03120DFAD19E03120DFA929E0323
:10271300120DFA5F9104120DFA7F9E03120DFA74E3
:102723009E03120DFA439E03120DFA309C03120D01
:10273300FA648203120DFAA39B03120DFAF89004B4
:10274300120DFA5F9B03120DFA339B03120DFA86E7
:102753008A04120DFA598A04120DFA268A04120DFC
:10276300FAFE8904120DFA9F8904120DFA7F890477
:10277300120DFA4A8904120DFAF68504120DFADED7
:102783008304120DFAC88104120DFA488104120D54
:10279300FAF48004120DFA008004120DFAA88004E2
:1027A300120DFA48F10100000080FBE4738F000171
:1027B30000731C87000100711C350004003A1C25BE
:1027C3000002003E1C26000200401C2700020042BB
:1027D3001C280001004C1C290001004D1C8400042E
:1027E30000C01986000100DE1B2A0001004E1C2BCD
:1027F3000001004F1C2C000100531C2D000800CCCD
:10280300192E000100541C2F000100551C3000013B
:1028130000561C31000100571C32000100D419334B
:10282300000100D51934000100581C36000100D600
:102833001938000100591C39000100521C830002A1
:10284300006F1C63000100E21964000100501C6565
:10285300000100511C6D000100E31971000800C460
:1028630019660001006E1C430001005F1C44000256
:1028730000601C45000100621C46000200631C4707
:10288300000800DA1948000100651C4B00010066CE
:102893001C04000100721CA1000100761C3700011A
:1028A30000751C88000100741C3C000100D7193D11
:1028B3000001005A1C49000200671C67000100E484
:1028C300194D000200691C4E0001006B1C4F0002F1
:1028D300006C1C3E0001005E1C51000100D819521F
:1028E3000001005C1C530001005D1C54000100D971
:1028F300190000000000000001363601010001024A
:10290300010001030100010401060605020000079E
:102913000100340801000F090401010D0100FF0E3D
:1029230008000017020000190100FF1A0100011B33
:102933000100FE1C0100081D0200001F0100012010
:10294300010001210200002301000F2402000026E0
:1029530001000127010008280200FF2A0100072BBC
:102963000102402C0100002D0100012E0100012F66
:102973000100FF30010B1D310800003A0100083B44
:1029830001000F3C0100013D0100FF3E0400004235
:10299300040000460400004A0400004E04000052F4
:1029A300040000560400005A040000000000002048
:1029B300019A840000010020019B84000002002092
:1029C3000196840000030020019784000004004264
:1029D30001CE83000005004201438300000600424C
:1029E30001A78300000700300198840000004042E3
:1029F30001A7830000FDFF210192842A040000390E
:102A030005AA182A04C8003905B2182A04C90039CE
:102A130005AE182A0401022123101C2A04210221D5
:102A230023041C2A0422022123061C2A0420021048
:102A330023081C2A0425021023091C010371030126
:102A43000301030103010301032203020301031032
:102A53000300030003000300030003000300034219
:102A630003000324030603000300030403120325E6
:102A730003230325032303040304030003000300C8
:102A8300034403000300032303000365032100350C
:102A93000381030003050300030003000300032570
:102AA3000323030302710230016002110270020169
:102AB30002020202028002100261023A0041006334
:102AC3000273027202620243020002130238000020
:102AD30002000204021202000200020002000204C9
:102AE300020402370037003C0244020002390000AE
:102AF3000200026502000235028102000205028221
:102B030002830200020101710101010101110101AE
:102B1300013101010101018001100161013B001438
:102B23000063017301720162014301000113010695
:102B3300013D013500040112010001000100010003
:102B43000104010401330133013C01440132013624
:102B5300000001000165010001350081010001054C
:102B63000182018301000103007100300160001143
:102B73000070003102200350048000100061000047
:102B8300001400630073007200620043000000132E
:102B93000006000000000004001200000000000016
:102BA30000000004000400370037003C024400002A
:102BB30000000000000000650000003500810000F7
:102BC300000500000083000000360001000600003D
:102BD300000F0000000000000000000000000003E0
:102BE300FFFF00000403FFFF0000FFFF0FF40100DD
:102BF30005C4040320000100000B000000000000D6
:102C0300000003010F0000000000000000000000AE
:102C130000000000000000000000000000000000B1
:102C230000000000000000391969193F19731845A5
:102C3300196F1945197B194B19731845196F1951D8
:102C43001973180000000057197318000000005D85
:102C530019731863197318000000000000000000C6
:102C63000000000000000000000000000000000061
:102C73000000000000000000000000000000000051
:102C83000000000000AF1B0100AF1B0200251B0268
:102C9300801F1B03002B1B0400311B0480371B0503
:102CA300003D1B0600491B31005B1B3300611B34D5
:102CB30000671BFFFF00000300030004000800106F
:102CC300001F003E007B00F600EC01D703AF075D59
:102CD3000FB91E713D000007ECFDFDFDECDCDCCC03
:102CE300BCACAC9C9C8C7C7C6C6C5C5C5C4C4C3C51
:102CF3003C2C2C1C1C03EAF5E5D5D5C5B5A595954B
:102D030085857575656555554545353525251515F0
:102D1300050A9D21026721057321076D210C4F21AF
:102D23000D5B21FF000000160F00000B150B0200C6
:102D330002220F3300000E0F5A6967426565416C2A
:102D43006C69616E63653039D0D1D2D3D4D5D6D70F
:102D5300D8D9DADBDCDDDEDF303016181920231A90
:102D63001C1E3000034D4C4651181A250502000164
:102D730019161816161823030030301718192130A6
:102D83001B1D1F30003C40423A3F3F392F47300C58
:102D93000E020B040B0A0708000F020402010101D3
:102DA300010902E803000000BE040A01000E00034B
:102DB30000E803FF040912031004030A0C041E08AD
:102DC30028020C0508151E04C082C08312120D9040
:102DD3001A0D743FF0A3741FF0901A0F7445F0A3FB
:102DE300741FF0901A11744BF0A3741FF0901A1310
:102DF3007451F0A3741FF0025B0674F71209499033
:102E03001A01E4F0E9901A00F07CDA7D197A027B6A
:102E13001A12184F901C65E0901A0AF0901A0B745E
:102E2300C4F0A37419023D9374F0120949EAFEEB4E
:102E3300FF54807003022F9C901A00123E287003E7
:102E4300022F95EA241B125693707CEA241F125614
:102E53009364137002A3E0706E8A828B83122FEA4D
:102E6300901A1B124C25750A00750B00800D123C3D
:102E730069126D05121765AA0EAB0FEA4B60488AFB
:102E8300828B83E0650C7004A3E0650D702C8A824D
:102E93008B83A3A3A3A3E0F50EA3E0F50FE50A45F7
:102EA3000B8A828B83A3A3A3A360C3123F6B850A00
:102EB30082850B83A3A3A3A380B78A0A8B0B8A8281
:102EC3008B83124C2180B4E508242A125693FCE527
:102ED300082402F8E43509F9E8FAE9FB901A1B1211
:102EE30030D1A3A3E06402703C8A828B83124C2509
:102EF300800B88828983A3A3A3A3123F6BE8496055
:102F03001F88828983E06A7003A3E06B70E4888280
:102F13008983A3A3E06C70DA901C6B1259C3806B96
:102F2300ECF9121F7B850882850983E06401704FE9
:102F3300E5082418122FD3120E1B1262AD120C7B5C
:102F4300E5082412122FD3120E1BE508123E1C12A1
:102F53000E17E508240B1262B1120C7FE508241743
:102F6300123DB9E5082402FCE43509FDE5082419FE
:102F7300FAE43509FB122785740A120E2A800CE045
:102F830064027007AA08AB09122059AA08AB0912F8
:102F930016CFEEFAEF6480802DEA5402600C901C89
:102FA3007E7401F0EA6402FA8023EA5408601A127C
:102FB3001F75EA4B700B901A1D1261887A08122F45
:102FC300E0EE6408FAEFFB80047A007B00026937C5
:102FD300F582E43509F583E0F50A780A22FB901AB5
:102FE30000E0F912182522A3A3E0F50CA3E0F50DE8
:102FF300227B00901A00E0F912181974042274F469
:103003001209498A088B098A828B83A3A3A3124AD4
:103013001D123DC438F583E02409FA1268CF70030A
:103023000230C48A828B837402124A928508828595
:1030330009831230D1E8F0A3E91265498A828B83B0
:10304300A3A3A3A3A3A3A3A3F0E5082403F8E43550
:10305300091230C6123DC43AF583E08E828B83A3F6
:10306300A3A3A3F0EE2409FAE43FFB8E828F83A38C
:10307300A3125C75F5838882E0A2E58E828F83A319
:10308300A3A3A3A3500474018001E4F0E50824037F
:10309300F5828983124C25EA1251A63BF583126807
:1030A30096120E13123DC33B125D678E828F83A36C
:1030B300A3127A45120E2AEEFAEFFB901A00126958
:1030C3001C8016F98882F583E0FAA3E0CA22124D28
:1030D300C2A3A3227402120E2A7F04020BF674F217
:1030E3001209498A088B09ECFAEDFB740E121140A0
:1030F300E0FC1212438A0C8B0DAE0CAF0DEA4F604D
:1031030030AC08AD09121231E96026AC08AD09EE06
:10311300FAEFFB121237E970148E828F83123F5835
:10312300FAEFFB12122BAA08AB0912125B7900808B
:103133000279B4024D1174F012094974F6120EDDCE
:10314300EAFEEBFF8C088D09750FB385218285227A
:1031530083E4F0750E008002050E902DCAE493F807
:10316300E50EC3984003023260AA0E7B0012127F61
:103173008A0A8B0BEA4B60E08A828B83A3A3123209
:103183006728F0F8C3EE98EF940050CC7C157D00CF
:103193007900AA08AB091216B7850A82850B83A3A7
:1031A300A3A3A3126D42E0F8EEC3982925E0F8E447
:1031B30033F9E50A28F582E50B39F583A3A3A3A325
:1031C300A3A3123DCEA31257EA8A0C8B0DAC0CAD10
:1031D3000DAA08AB0912184F850A82850B83A3E059
:1031E3006401700A1262AD7401123DE080447401FF
:1031F300120EBD850A82850B83124C23121267E9D6
:10320300603D7409121140E0C0E01262ADD0E0F0FD
:103213007409121140E0640370137401120EBDE5CA
:1032230008240BFAE43509FB12184F8012740112BB
:103233001140123F6BE5081257D03509126D038513
:103243000A82850B831262B9123DE0A3A3E0C0E0BA
:10325300E50824141262B1D0E0F0750F00A90F74D1
:103263000A026934A3A3A3E0F8852182852283E0BF
:103273002274F7120949E9FE8A828B83A3A3A3A3CD
:10328300A3A3E0540860338A828B83A3A3A3A3A3DD
:10329300A3E0540260218A828B83A3A3A3A3A3A3E5
:1032A300A3A3A3E06406600F74E96E600A74CD6E95
:1032B300600574F06E7003121F5D02461074F01205
:1032C300094974EF120EDD740F12114012606C7411
:1032D30008121140E9F0ECFEEDFF740512114012E3
:1032E30043D81245FCA3E0F912124F7406121140A1
:1032F30012606C7406121140125237700302357B50
:10330300123E08E0FA7406121140E0F9121E9D12F3
:1033130035DBF8A3E0F9E849700302357BEE2403BB
:10332300F50AE43FF50BEE2406F508E43FF5097CC6
:1033330000850882F583124C25850A82850B83E07C
:10334300F9121255740312114012606C850A8285BA
:103353000B83E0C0E08521828522831235D4D0E03F
:1033630012534CF9852182852283123C70124E9EA2
:1033730012326AFAA3E0CA2407F582E43AF583E835
:10338300F0A3E41260772406F582E438F583E412AF
:103393006D0F124A11120E13EE123DC43F125D67F8
:1033A3007403121140124A1D2409127A3F120E2A85
:1033B3007429121140126D3C1230CB12535F3A1232
:1033C3006D03742B121140E0C0E0852182852283B6
:1033D3001251FED0E0F07402121140E4F074251291
:1033E300114078081210CB0234D274031211401228
:1033F3005D2F8882F5831235C3A3A3A31257F5FB70
:1034030012126D850E82850F83A3EAF0A3EBF0748D
:10341300031211401235D4A31235C3125A04A2E683
:10342300500F850E82850F83A3A3A3A3A3E0D2E14C
:10343300F07405121140E0706B850E82850F83A333
:10344300123F6B901A5BE0687003A3E069705585C7
:103453000E82850F83A3A3A3123DA3750C00780CE2
:10346300120E1B7808120E0F7429121140E0F50C8E
:10347300780C120E1B7427121140120C7F901A68DD
:10348300120C7F79007419121140124BF51220A10E
:10349300740A120E2A850E82850F83A3A3A3A3A306
:1034A300E04405F07402121140E004FC8E828F8325
:1034B300124C1F8E828F83A3A3A3E0F912125574BB
:1034C3000312114012606C7402121140E004F07494
:1034D3000312114012523760677402121140E0FA6E
:1034E3007406121140123F6BC3EA98E49950517469
:1034F300021211401238AD852182852283E028F81B
:10350300A3E039F9E8240FF50EE439F50F850E82AF
:10351300F583E4F074031211401235CE64016003A5
:103523000233ED74051211407401126922F0740321
:10353300121140125AF61238D0E8F0A3E9023411FE
:10354300852182852283124C25121EA38521828523
:103553002283120C7F7426121140E0FD7425121190
:1035630040E0FC740A121140E0F9EEFAEFFB121F7F
:10357300577402120E2A80438E828F83A3A3A3E083
:10358300C0E0740C121140D0E0F012678BE0C0E091
:10359300740D121140D0E0F074061211401252372C
:1035A3007009740E12114074B98007740E12114021
:1035B3007410F07409120EB512209B741102693451
:1035C300E0850E82850F83A3A3A322E0125324E098
:1035D30022E0125324A3A322852182852283EAF0C9
:1035E300A3EB1252402274F012094974E1120EDD6A
:1035F3007404121140E9F07403121140ECF07402E8
:10360300121140EDF08A0E8B0F742F121140122FFE
:10361300ECAA0CFB121E917401121140E9F0AA0CE2
:10362300AB0D121E977401121140E070030238A80B
:10363300852182852283E480158E828F83A3A3A3B1
:10364300A3A3E0D2E3F0852182852283E0041268FC
:103653007AF8852182852283E0C398400302389F4C
:103663007401121140E0700302389F852182852284
:10367300831238ADE50C28F8E50D39F9E8240FFE7F
:10368300E439FF8E82F583A3A3A3A3A3E0A2E040C2
:10369300B5750800750A08750B007402121140E035
:1036A30060037508207C087D0079007405120EB54F
:1036B3001216B78E828F83E0603E901AABE06401EE
:1036C300701AE508D2E3F508750B101238BD121114
:1036D30040E8F0A3E91256E874FF807643080C75BE
:1036E3000A0C8E828F83A31238C8126D05740512DB
:1036F300114074FFF0A3805A7404121140E0600972
:10370300E508D2E6F508750A0A8E828F83A3E06482
:10371300FE7003A3E0F470307412121140740412AB
:1037230062D7F8741D121140E8124A927412120EF5
:10373300B5121DBF7D007C0079007415121140AADB
:1037430082AB83121B97800B1238BD121140E8F035
:10375300A3E9F07407121140E508F0123DFFC0E041
:103763007409121140D0E0F0740A1211407401F090
:103773007405120EB512205F7411121140E060033C
:1037830002387D740D1211401253478E828F83A32A
:10379300A3A3A3F0740D121140124A60E50AF0A32B
:1037A300E50BF07403121140E0C0E01249F1D0E0E0
:1037B300125A046011901AABE0C0E0740D1211406C
:1037C300124A3BD0E0F0740D121140123F6B850C8E
:1037D30082850D83A3A3A3A3A31238B6241C12606E
:1037E30066126D1F1238B81259B6391267AAC0E0B3
:1037F3001249D8D0E012686FC0E0740D1211401264
:10380300451ED0E0126570C0E0740D1211401245E0
:1038130014D0E0F0740D1211401238C81238B624D7
:103823002A126066850E82850F83A3A3A3A3A3A395
:10383300A3A3E012605F123DEEC0E0124500D0E0AA
:10384300F0740D121140124C25850E82850F8312E0
:1038530068852428F582E43B126D03123DF7126854
:1038630096120E13125D60EA125FF83B127A43124E
:103873000E2A7405120EB51220658E828F83A3A3C0
:10388300A3A3A3E0D2E0F07411121140E06003029D
:10389300363C7401121140E0140236487900AA0C38
:1038A300AB0D121F63741F026934E075F007A4F8AF
:1038B300A9F022A3A3124C29E8228E828F83A3129C
:1038C3003F6F740522E01238D0A3A3A322F8A3E02C
:1038D300F9850E82850F83A32274F012094974E8D7
:1038E300120EDDE9852182852283F08A0E8B0F8AF1
:1038F300828B83A3A3A3A3A3A3A3A3E0F9121EBB59
:103903008A088B09EA4B70030239B9E50E1251BAE2
:10391300123E17123DAE852182852283E0600302A9
:1039230039BC7C04850E82850F83A3A3A3A3A3A321
:10393300A3A3E0F9121EC1EE4F607B8E828F83A397
:10394300A3A3A3123F6B740712114012619D123F90
:103953006B7409121140124AC2C0E0741112114073
:10396300D0E012654EA3A3A3A3A3A3A3123F6B743A
:103973000F121140126D057412121140E412692ADC
:10398300C8241FF582E438F583125D2BC413135446
:1039930003FC70027C048E828F83E0F97808120E98
:1039A30017742059FD744059F97403120EB5121F90
:1039B300577402120E2A0269327C08850E82850F23
:1039C30083A3A3A3A3A3A3A3A3E0F9121EC18B0BF9
:1039D300EA4B700302393AEE4F60DB852182852280
:1039E30083E0F50C780C120E1B850882850983A3EE
:1039F300A3A3A3A3A3A3E0F50C780C120E1B8A8246
:103A03008B83A3A3A3E0FB8A82850B831275628A4F
:103A130082850B83E0FA8E828F83A3A3E0F91227BA
:103A23008B7402120E2A02393E74F712094974FA92
:103A3300120EDDE9FE780179017F00800379000F22
:103A4300124DA1E0FCEFC39C5026EF75F007A4FCD8
:103A530085F008AD08EA2CFCEB3DFD124390E0A293
:103A6300E050DA540C60D6E0A2E250D3780080CF65
:103A73008A828B83A3A3A3A3A3A3E0703DE9A2E05F
:103A8300400574016E70338A828B83A3A3A3A3A31F
:103A9300A37401123D80E0C0E07403121140D0E032
:103AA3001243EFE0C0E07404121140D0E0F074055B
:103AB300121140E8125CCA12209B740602460DC024
:103AC30082C0837901121F63025B0674F4120949F1
:103AD300EA4B901C7E6019E4F08A088B09F50AF51D
:103AE3000B7808120E0F7A02122FF4120E2A800A94
:103AF3007401F07A027B00122FE10230DC74F012C1
:103B0300094974F3120EDD7403121140E4F0A3F0BB
:103B1300901A1B123DAE7401121140E4F0A3124A35
:103B23009704F0901A55E0A2E35003023BF3123DD1
:103B330074740912114012110574091211407808A6
:103B43001210CB901A1D7808120EC574051211407D
:103B530078081210DA123C777405121140780812B3
:103B6300107D50077A017B00023C647405121140FA
:103B7300780C1210CB901C6AE0F509780C790812C6
:103B830008DAA80CA90D901C6BE0C398E4995003C4
:103B9300E08001E8852182852283F07409121140B7
:103BA30078081210CBC008C009C00AC00B740512F4
:103BB3001140780C1210CB123C77780C790812085C
:103BC300DAE4F50AF50BD00FD00ED00DD00C780C3B
:103BD3007908120F99901A1D780C1210DA801112BD
:103BE3003C69126D05EEFAEFFB121765AE08AF09DB
:103BF300EE4F60658E828F83123267C398502DEE2D
:103C03002403F8E43FF9E0FA88828983E0C39AF059
:103C1300602374031211401240D17401121140EE5B
:103C2300F0A3EF1261B8FEA3E0FF80C48E828F83FE
:103C3300A3A3A3E4F08E828F831279FC7401121183
:103C4300401252378E828F83A3A3A3A36091126184
:103C530091121140123C7080897403121140124C6E
:103C630025740D026934123F6F901A1B22125D56A0
:103C7300A3A3A322901C69127A04E4F50AF50B228C
:103C830074F01209498A088B09890A78007900902F
:103C93001A1B123DAEFBEE4B601E088E828F83A370
:103CA300A3A3A3124BEF601008E87001098E828F63
:103CB30083123DAAEA4F70E3901C6C124C25C3E8B3
:103CC3009AE99B4003023D677A06123D6AA80CA954
:103CD3000DEA497003023D678A828B83E508F0A3EE
:103CE300E509123D89E50AF0901C6B124DA9123DBE
:103CF30080A3E4F0A3F0901A1B124BEF600D8E82A9
:103D03008F83A3A3A3A3126D058017901A1B126DB3
:103D130005901A55E0A2E34009123D74901A1D1252
:103D23001105901A55E0A2E3503A7A087B00901AE5
:103D330000E0F912182BEA4B4C4D7028901C69E0F7
:103D4300F508A3E085080CF50DE4F50EF50F780CE6
:103D5300120E0F7A087B00901A00E0F912181F74F4
:103D630004120E2A0269377B0012175F8A0C8B0D2F
:103D730022121837EAF8EBF9ECFAEDFB22123D8434
:103D830022123D89A322F08A828B83A3A322E50812
:103D9300F0024610F08E828F83A3A3A3A3A3A322D2
:103DA3001256A1A3A3F022A3A3A3A3E0FEA3E0FFC3
:103DB300227F05020BF6F582E43509F583E0F9224B
:103DC300EA123DC8222410F582E422123DD6A3A3B1
:103DD300A3A322123F7385088285098322123DE43F
:103DE30022F0850A82850B83A3A322E50E241112F8
:103DF3003E14E022E50E240E123E1422E50E24109A
:103E0300123E14E022123E0C22EE123DC83FF5830F
:103E130022F582E4350FF58322240FF50AE43509F0
:103E2300F50B780A22E0F91216E18A088B09EA4BAE
:103E33002274F2120949890B8A088B098A828B83BF
:103E4300124C25121F87EA4B600479B8806A121F4F
:103E530093E9F8902DBBE493F9E8C399400479B250
:103E630080567A15123D6AAE0CAF0DEA4F70047995
:103E73001080458A828B83E4F0A3123D89E50BF021
:103E8300750A007808120E137C127D00EA240312CF
:103E93006841120E2A901A211252377008901A2183
:103EA300800C123F6B88828983123EBE70F4EEF061
:103EB300A3EFF0121FA57900024D11124C29EA4B12
:103EC3008882898322C082C083901A2180048C82D5
:103ED3008D83127563EC4D60288C828D83A3A3E0E0
:103EE30069600574FF6970E68C828D83A3A3A3E0E8
:103EF3006A7003A3E06B70D6EC2403FAE43DFB8005
:103F0300047A007B00025B0674F7120949E9FD7429
:103F1300FE6D70047C0180027C00901A2180096D83
:103F230070027C0188828983125237601F888289DC
:103F330083A3A3A3E06A7003A3E06B70E7ECA2E0A2
:103F430088828983A3A3E050D6F9800279FE0246D2
:103F530010EEF9800CA3A3127A04EE227402120E5F
:103F63002A7F02020BF6F583123F6F22123F732260
:103F7300E0F8A3E0F922123F738E828F8322120EA0
:103F83002A7F03020BF6C082C0837900901A218036
:103F93000109E0FAA3E08A82F583E582458370F1A3
:103FA300025B0674F6120949E4F508F5097808126C
:103FB3000E17902DBBE49375F013A4A9F01240C61D
:103FC300126D63120E2AE9FE74096E7003121F9FAD
:103FD300023F5474F612094974FE120EDD852182E4
:103FE300852283E4F0A3F0A821A92288088909780F
:103FF30008120E177508027509007808120E1712B9
:1040030069D4120E2A023F5F74F512094974EB1248
:104013000EDD852182852283E4F0A3F0901A2180AE
:10402300748E828F83A3A3E0C0E07402121140D088
:10403300E01256E8A982AA8389088A09750A0078DA
:1040430008120E137C127D007406121140126D28A3
:10405300120E2A7402120EAD880889097808120E0E
:10406300177508137509007808120E1774041211D6
:10407300401251DA75F013A4F8AAF075F013E9129F
:1040830040C21269DC120E2A8521828522831240E6
:10409300D18E828F83123DAEEE4F7085A821A92267
:1040A300880889097808120E1775080275090078BF
:1040B30008120E171269D4120E2A7415023F81A436
:1040C3002AF9E82402FCE439FD7A427B0022E02449
:1040D30001F0A3E03400F02274F412094974EB12E6
:1040E3000EDD7E007F00A821A922880889097808AF
:1040F300120E177508028E097808120E177C007DC0
:10410300007A42126D6F120E2AE9706C8E08805687
:104113007402120EAD880A890B780A120E17750AFB
:1041230013750B00780A120E17E50875F013A4F83F
:10413300AAF075F013E5091240C2126D71120E2A2E
:10414300E9701B7403121140AA82AB83740212112B
:1041530040E0F9121F81E970050EEE70010F0508AA
:10416300E50870020509852182852283123F6BC30E
:10417300E50898E509994098EEFAEFFB74150230CB
:10418300D974F61209498C828D83A3A31243DDF0FF
:10419300EA125FFE3BF583E0C0E012439AD0E0F001
:1041A300EA241DF582E43B123F6912437E1243D891
:1041B300F0A3F0EA241FF582E43BF583123DAEEC55
:1041C3001243713DF583EEF0A3EFF01243773BF515
:1041D300831243A8A3A3A3A3A3A3EEF0A3EF125CAC
:1041E30059FE8C828D831243E774035EFEC39403EE
:1041F3004003024364EE600874026E600302428966
:104203008C828D83E0540CFE740C6E70030242C8E2
:10421300E0A2E4400D88828983E08C828D83A3121F
:1042230043FD74086E60030242C81243887401F0B0
:104233008A828B83A3A3A3A3A31256AE70148C828A
:104243008D83E0440C1243EFA3A31243A8EEF0A323
:10425300EFF08C828D83E0A2E4402B88821243B678
:104263001243CB500109F5821243B6A3A3A3A3A320
:10427300A3F0A3EF1243F78C828D83A3A3A3F0E8EB
:104283002403F850010988828983E0C0E0EC2411FB
:10429300F582E43DF583D0E01243E78C828D83E021
:1042A300A2E7507588828983E0FE8C828D83124356
:1042B300FD74FC5E700C8C828D83A3E05403640355
:1042C300701E024364124388E4F0740C6E600302B0
:1042D300423388821243BC1243CB50010902425538
:1042E3008C828D83A3E05403603288828983E0C08B
:1042F300E0EC1243A23DF583D0E01243FE8C828DA5
:1043030083E054036402701488828983E0C0E0125E
:104313004390D0E01243FE8003A3E4F0EC1251A6D5
:104323003D126D03EC2410FEE43DFFEA241DF582EB
:10433300E43BF583E0F5088E828F83E0C39825087C
:10434300F508F0EA2417F8E43BF98882F583E0C323
:104353009508C0E012437ED0E0125C59C395085023
:104363000A12437EE4F012439AE4F0023F642415F8
:10437300F582E422EA240DF582E422EC240DF58291
:10438300E43DF58322EC12535F3DF58322EC2414C4
:10439300F582E43DF58322EC123DC83DF5832224EA
:1043A30013F582E422E0FEA3E0FF8C828D83A3A3B6
:1043B300A3A3221243BCA3A3228983E0F508A3E0AD
:1043C300FFE5088C828D8322A3A3A3A3F0A3EFF0C0
:1043D300E82402F8221243DDA322E4F08C828D83C9
:1043E300A3A3A322124405A882A98322123D84A376
:1043F300A3A3A322124405A3E022A312440508A900
:104403008322125C62A32274F412094974F3120E1C
:10441300DD8A0A8B0BECFEEDFF8C82F583E0540CF6
:10442300F508E0A2E75006E508D2E7F508E508D26B
:10443300E1F5081256AE7006E508D2E4F508E0A2ED
:10444300E55006E508D2E5F5087C087D007900AA69
:1044530021AB221216B77402121140E508126D093E
:10446300C0E07403121140D0E0124A97E50AF0A3AA
:10447300E50BF07405121140126575121140E070DE
:10448300777408121140124A1D125C4B3812659062
:10449300C0E0740812114012451ED0E0126570C0CE
:1044A300E07408121140124514D0E0F074081211A0
:1044B3004012450AE0124A45124AC612605FEE24D2
:1044C3001112567AC0E0124500D0E0F0EE24141227
:1044D300567AC0E07408121140124A1D2435F58241
:1044E300E438F583D0E0124A6AC0E0740812114040
:1044F300124A21D0E01262C9740D0230D9E8243285
:10450300F582E439F58322123F79A3A3A3A3A3A3DE
:1045130022124A3112676F38F58322124A31242658
:10452300F582E438F5832274F71209497E008A8202
:104533008B83A3A3A3A3A3A3A3A3A3E06404600304
:104543000245EC125357E060030245EC1251B93BAC
:1045530012523570030245EC88828983E05403606C
:10456300030245ECE812535F39F583E0FA8C828D40
:1045730083A3A3E0FBA3E0CB2411F582E43BF58303
:10458300E06A706588828983A3A3A3A3A3A3A3A3DB
:10459300A31245F0E06A7003A3E06B704C88828934
:1045A30083A3A31245FCE0FFA3E0CF240612567AAF
:1045B3006A7003A3E06B703188828983A3A3E0F858
:1045C3008C828D83A3A3E0F9A3E0F5838982A3A35F
:1045D300E06860138C828D83A3A3A3E0F5838982B3
:1045E300E0540C640470027E01EEF980201245F45D
:1045F30022124C2D8C828D8322A3A31245F4A3A3F4
:1046030022740C121140E0F9740D120E2A7F01027C
:104613000BF674F612094974FC120EDDEAFEEBFF89
:10462300ECFAEDFB8C82F583A3E054036016901A39
:104633001712523760597900EEFCEFFD125E5612E5
:1046430027AE804B852182852283EEF0A3EFF074A1
:1046530002121140124A8CAC21AD227ABD7B1F128B
:1046630021E58A088B09A808A909EA4960218A82F9
:104673008B83A3A3A3A3A3A3A3A3A37406F07A008A
:1046830088828B83124A1D12601FE0F91221437442
:1046930004023F6174F212094974F3120EDDEAFE5B
:1046A300EBFF8A82F583A3A3A3A3A3A3A3A3A3A33B
:1046B300E0F50A901C7EE0700579BA0249D57508C9
:1046C30001750900750C00750D007C087D007900EB
:1046D300AA21AB221216B774051211407401124AB3
:1046E3009F540460127402121140E0D2E6124A9FF2
:1046F30054087003750803E05410600674404508BD
:10470300F508E0540860227402121140E044C0121C
:104713004A9F5420600A7403121140E0D2E08008DB
:104723007403121140E0D2E1F0EE241512567A120E
:104733004A057003740169700674084508F5088E0C
:10474300828F83A3A3A3A3A3A3A3A3E07016122220
:104753003F85218285228312606C7402121140E02E
:10476300D2E28030640F70107402121140124AA713
:1047730074044508F508807F8E828F83A3A3A3A3C7
:10478300A3A3A3A3E064028E828F83700A126D3CFD
:10479300E8F0A3E9F08060A3A3A3A3A3A3A3A3E0EA
:1047A3006403700DAC21AD22EEFAEFFB121FF38010
:1047B300468E828F83A3A3A3A3A3A3A3A3E0640131
:1047C3007035901AABE060107402121140124AA7C0
:1047D300750910750AFF80187402121140E0440C29
:1047E300124A9774FDF0A374FFF074044508F508AA
:1047F3008E828F83122FECEE241512567AA2E0508C
:104803003F7402121140E0540C701B8E828F83128E
:104813004C25121C63E9700579BB0249D574021259
:104823001140E0D2E5F0EE241512567AA2E05010C2
:104833007402121140E0540C64047004E0D2E5F0F9
:10484300EE241112567AC0E07404121140D0E01223
:104853006577121140E060030249CE7408121140DB
:10486300124A60E508F0A3E509F01249FBE0C0E055
:104873001249F1D0E0F01249E2E0C0E074081211ED
:1048830040124A1D1243A238F583D0E0124AC6648F
:10489300017011901AABE0C0E07408121140124A83
:1048A3003BD0E0F07408121140124A5B1249ECFA53
:1048B300E8241CF582E439F583EA124A92EE2415C2
:1048C300FAE43FFB8A82F583127563E81259B6391D
:1048D300F583124A8CEE241C12567AC0E01249D892
:1048E300D0E0125AFC124A05700374016970137404
:1048F30008121140125347FAEE241D12567AF91288
:104903001EC78E828F83A3A3A3A3A3A3A3A3A3E002
:10491300C0E0740812114012451ED0E0F074081272
:104923001140124514E50AF074081211401251DACD
:104933002428F582E439F583E50CF0A3E50D124A4A
:1049430072124A451256F312605FEE1249ECC0E050
:10495300E82433F582E439F583D0E0F0EE241B122A
:10496300567AC0E07408121140124A21D0E0F0EEEA
:10497300241A12567AC0E07408121140124A1D24F8
:1049830032F582E438F583D0E0124A6A124A1112F2
:104993000E13126775127563740B121140124A1DC0
:1049A300242F127A3F120E2AEE241512567A5440FF
:1049B3006012901A37125237600AAA21AB22125E94
:1049C300561227AEAA21AB22122065740C12114095
:1049D300E0F9024D0CE82420F582E439F58322EE58
:1049E3002419F582E43FF58322126784E022E82448
:1049F30012F582E439F58322EE2418F582E43FF5BB
:104A030083225480F8A3E05401F974806822F508E6
:104A1300A3E0F509750A00780822124A3122124AE6
:104A2300312434F582E438F58322A3A3A3A3124AE5
:104A33003522E0F8A3E0C822124A3112437138F557
:104A43008322FAA3E0FBE8242AF582E439F583EA1A
:104A5300F0A3EB22A3A3A3A3123F6FEE221251DE16
:104A63001251BE39F58322F0EE24131256FB22F0C5
:104A7300EE240D1256FB22E0FC8A828B83E02CFC91
:104A8300A3E03400FD8A828B83ECF0A3EDF022F0E7
:104A9300A3E4F022F085218285228322F0EE2415FF
:104AA3001256FB22E0D2E3F0124AAF228E828F83AA
:104AB300123F73852182852283E8F0A3E9F022E87F
:104AC300F0A3E91261B2E02274F71209498A828BDA
:104AD30083A3E0640170047E6380027E648A828B18
:104AE30083E060087905124AFF24F3FE901A53E02D
:104AF3006007F9124AFF24F2FE0245EC12210DE988
:104B0300F8EEC3982274F612094974FE120EDD857D
:104B1300218285228312606CE9FEECFAEDFB90059D
:104B2300C21252376032A821A9228808890978085D
:104B3300120E177D01740E121140E0FCEEF9900580
:104B4300C21260401227AE7402120E2AEA4B6004AE
:104B53007900800679B2800279B6023F5F74F7125A
:104B63000949E9FE901A0D125237601F7409121198
:104B730040E0F5087808120E1BEEF9901A0D12604A
:104B8300401227AE7401120E2A800279B602461033
:104B930074F71209498908ECFEEDFF79B5E508249D
:104BA3005E602014600624F86034803D9005C412D2
:104BB3004BEF6035126D801227AE8E828F831260A9
:104BC3006C8024901A0F127563EC4D601CEEFCEFA1
:104BD300FD901A0F1260401227AEE9F9800B901A6C
:104BE3000B124BF512184F7900024610124C29EAAA
:104BF3004B22127567EEFAEFFB2274F7120949E9AB
:104C0300FE79B574AB6E700B901A0B124C2512180B
:104C13004F79000246108E828F83A3A3A3A3A3A37D
:104C2300A3A3124C2922124C2D22E0FAA3E0FB226B
:104C330074F1120949EAFEEBFF8C0A8D0B7508012A
:104C4300901A5BE06E7003A3E06F700C124D00AA24
:104C53000AAB0B12184F805E122245EE6A7002EF08
:104C63006B7009AA0AAB0B12224B804AAC0AAD0B3C
:104C7300EEFAEFFB121D9BE9F508901C71E070360C
:104C83001226BFE97030E508702C901A2BE06E7085
:104C930003A3E06F7020EE4F601C750C23750D1A93
:104CA300750E00780C120E137C087D00AA0AAB0B5C
:104CB300126D2C120E2AA90802765F74F2120949AA
:104CC300EAFEEBFF8C088D09750A01124D00EEFA1E
:104CD300EFFB121849E964017011901A5B123F6BE4
:104CE300850882850983126D05800EAC08AD09EE37
:104CF300FAEFFB121DA1E9F50AA90A801112223964
:104D03008A0C8B0DAC0CAD0D22740D120E2A7F068E
:104D1300020BF674F6120949EAFEEBFF7A0D7B00EB
:104D230012175FEA4B6062EE2424126A09F0EE2444
:104D330025126A09A3124DCE126A0FA3A31267A20A
:104D4300124DA9F0EE124D8F124DBEE8F0A3E912F9
:104D53004DE5124DB6126D05EE124D98126865A31E
:104D6300A3A3A3F0EE243312567AC0E0124DA1D0D0
:104D7300E0126594124DB6A3A3A3E8F0A3E9124D84
:104D8300DDC0E0125357D0E0F0023F64242AF582DD
:104D9300E43FF58322242EF582E43FF58322EA12D1
:104DA30057D03BF58322124DAD22E08A828B83A339
:104DB300A3A3221268C4A3A3A3A322124DC2221247
:104DC3003F738A828B83A3A3A3A322F0124DD32222
:104DD300EE2426F582E43FF58322F0EE24321256C8
:104DE300FB22F0EE242C1256FB2274F412094974B0
:104DF300FE120EDDECFEEDFFEC241612567A64056E
:104E03007010EC2406FCE43FFD121FEDE970030271
:104E13004E99AC21AD22126ABE121C69852182858E
:104E23002283125237606B8E828F83E06401705845
:104E3300E875F009A4F8AAF075F009E9A42AF97451
:104E43008428F8740739F9E8FAE9FB8882F583784E
:104E5300081210CBEE124F3B12107D4027852182A2
:104E6300852283124A5B125688124E9E78081210CE
:104E7300CB9084227808120FE88A828B83780812F9
:104E830010DA800A79A28010EE240F126CFF7900E9
:104E9300800679A1800279C80230D7124ABCEE128B
:104EA30067902274F21209498A0C8B0DECFEEDFF18
:104EB300EC125688E4F0A3F090841A78081210CB11
:104EC300EC124F3B120F486067EC240E12568170B0
:104ED3003478B3901A52E07028901A84E064017019
:104EE30020EC241112567AF91220F58B09A909EE48
:104EF3001251BA3F12606AEA49600478008002786E
:104F0300A18808802EE060046402700A121FFFE982
:104F1300F5087007801DE064037010EEFCEFFDAA36
:104F23000CAB0D121C8DE9F50880087508A18003F0
:104F33007508A3A908024D1112679078082274F02E
:104F430012094974F5120EDDEAFEEBFFEA240AFCAE
:104F5300E43F8C82F583127A001251C47403120E5B
:104F6300BD8A828B83125E60E9700302502A74014A
:104F7300120EBD7403120EB5121C69740112114096
:104F8300125237700302502AE875F009A4F8AAF008
:104F930075F009E9A42AF9748028FC740739FDE542
:104FA30008240E1262B1E4F004121140123F6BE5C3
:104FB300081251BA3509126D038C828D831211299F
:104FC300E50824121262B1121105908422780812A6
:104FD30010CB8C828D837808120FD58C828D8378C9
:104FE3000C1210CB90848A78081210CB780C7908B5
:104FF3001208DAE5084509450A450B702A740112BF
:1050030011401251DA75F009A4F8AAF075F009E914
:10501300A42AF9748828F582740739F5837401F09A
:105023007A007B081251E78E828F83A3A3A3A3A3E5
:10503300A3A3A3A3A3E02406FCA3E03400FD8E8274
:105043008F83125E60126582603EEE240A1251ACB9
:10505300124A607468124A92E81251A639F58374B1
:1050630002F0901A3D1211298C828D83126059121D
:105073005C4B3CF58312110590842278081210CB07
:10508300901A3D7808120FD5125222705D901A0BB8
:105093001251D2A3A3A3A3A3A3A3A3A3A3125C818B
:1050A300121849E97010125C3F901A0B125C517090
:1050B3000512658260348E828F83A3A3A3A3A3A367
:1050C300A3A3A3A31251D2124C25121C93E960117E
:1050D3008E828F83A3A3A3A3A3A312520EE4F0A3F0
:1050E300F08E828F831251F4E4F012522260030295
:1050F30051A18E828F83A3A3A3A3A3A31279FC90B0
:105103001A52E06003025196901A84E0640160032E
:10511300025196750A3A750B00780A120E1774023B
:10512300120EAD880A890B780A120E17126FFB1242
:105133000E2AE9705BE508240E1262B17401125263
:105143003CC0E0E50824111262B1D0E0F0E5082488
:105153000F1262B1743A124A92901A39121129E568
:105163000824121262B112110590842278081210D9
:10517300CB901A397808120FD59084227808121030
:10518300CB901A397808120F4870081251E3800344
:105193001251C41252227006125B4274A1F0740BB6
:1051A300026934240EF582E422F8E43FF9E8FCE9CD
:1051B300FD8882F58322EA1251BE22240FF582E490
:1051C30022E5081251BE3509F583E4F0A3F022125B
:1051D30075678E828F83221251DE22123F73E8227B
:1051E3007A007B029018E4E0F912170B228A828B73
:1051F30083A3A3A3A3A3A3A3A3A3A3125202221231
:105203004A35240EF582E438F58322A3A3A3A3121F
:10521300521622124A35240FF582E438F583228E82
:10522300828F83A3A3A3A3A3A3124A2D240FF582E2
:10523300E438F5831251DE492212524022F08521CF
:1052430082852283E02274F6120949EAFEEBFF7A93
:10525300237B0012175FEE240AF508E43FF5098566
:10526300088212606A7C237D0079001216B78508D4
:1052730082850983125237700302530AEEFAEFFB59
:1052830012200B12522260748E828F8312533D645C
:10529300018E828F83A3A3A3A3A3A3700712533307
:1052A300740E80211252377010126582700B8E8239
:1052B3008F83A3A3E0A2E05007125329740D800546
:1052C3001253297405126594540364017007125331
:1052D300117405800B901A53E0C0E0125311D0E013
:1052E30012534CF58388821256A785088285098359
:1052F300124A1D125FFE38F583E9800E8508828508
:1053030009831260E38003126026F0023F648E82F9
:105313008F83A3A3A3A3A3A3A3A3A3A31253232270
:10532300E0126045A3228E828F83A3A3A3A3A3A32A
:10533300124A2D12600438F58322A3A3A3A3A3A3C7
:10534300A3A3A3A3125202E02212535022126AD340
:10535300F8A3E022EA12535F3BF58322240CF58283
:10536300E42274F112094974E4120EDD8A0C8B0DE8
:105373008C088D097A237B0012175F8A0A8B0BAE88
:105383000AAF0BEA4F700302566212600AE5082463
:1053930015125693687003A3E0698E828F8370049D
:1053A300740280027401F0E508240DF8E43509F96C
:1053B3008882F583E0FAC3E49AFA95E0FB12568FEC
:1053C3002AFAA3E03BFB8E828F83A3A3A3A3125CE1
:1053D300688E828F83A3A3F0EE2420F582E43FF549
:1053E30083E4F0EE2421F582E43FF583E4F0EEFA62
:1053F300EFFB1220BF8508828509831256AE700920
:105403008E828F83A374058006901A5312569CF0E4
:10541300EE2417F50AE43FF50B8E828F831256A70D
:10542300E9850A82850B83F0EE2416F8E43FF9E55B
:1054330008240EFAE43509FB88828983124A7AE547
:10544300082410FAE43509FB850A82850B83E0FC06
:1054530088828983E0F88A828B83E0C398C39CF8AF
:105463001256E8F0EEFCEFFDAA0CAB0D122005E995
:10547300F50B8E828F83E064027006125C3F125636
:105483006CE50B6003025659750C00750D00901CFA
:1054930071E064016005E06402703F12567E6008AB
:1054A300EE242112568170328E828F83A3A3A3121E
:1054B300602C1256B4EE241612567A1256DDFAE414
:1054C30039FB123D6CEA4B601112688E120E1312F7
:1054D30056C2AA0C126D2C120E2AEEFAEFFB122002
:1054E300CBE9F50B901C71E064016008E064026095
:1054F3000302564CE9700302564CE50C450D70034C
:105503000256598003850E0B12567E600BEE242142
:105513001256816003025652850B0E850C08850DC9
:1055230009750A007808120E131256C28E828F83F1
:10553300A3A3A3A3127A45120E2AEE242012567AAD
:10554300600D1256877468124A92EE24208015EE7D
:10555300242112567A60151256877403F0A374013E
:10556300F0EE2421F582E43FF583E4F0EEFAEFFB5D
:105573001220CBE9F50B70907C137D007900740940
:10558300120EB51216B7741A12114074011256F3A3
:1055930064687002A3E0704F8E828F8312520EE014
:1055A300640560030255087C0879FF8E828F83A30C
:1055B300A3A3A3E0242A125C84121741E970030217
:1055C30055087C087D0079FF7401120EB51216B7D9
:1055D3007401120EBD7A007B0079AB121FE77419B8
:1055E30012114074FC8015125687E064037004A303
:1055F300E064017008741912114074FFF0E4F508B7
:10560300F5097808120E177402120EBD74131211E5
:1056130040AA82AB83126169120E2A8521828522F8
:1056230083E0602B7409120EAD880889097808128B
:105633000E177508137509007808120E177C007D84
:10564300001269DC120E2A8006E50C450D6007AADC
:105653000CAB0D121765EEFAEFFB1217658003759D
:105663000B10A90B741C02765CEE2406FAE43FFBD4
:1056730012184F22EE240C1256FB22EE242012564F
:10568300FB640122EE1251BE3FF58322E508240E8E
:10569300F582E43509F583E0221256A1A322E08EB8
:1056A300828F8322A3E0F912210D22E054036401C7
:1056B300221256B822E0FAE82AF8E43400F9228EDE
:1056C300828F83A3A3A31260301256B8EE2416125E
:1056D30056FB1256DDFCE439FD22FAE82AF8E439D8
:1056E300F9E82404221256EC221265A3A3A3A322F1
:1056F300F01256F822EE240FF582E43FF583E02200
:105703007901020DF774F4120949EAFEEBFF8A826C
:10571300F583A3A3A3A3A3A3A3A3124A1D2424F540
:1057230082E438F5831256AE702E8A828B8312532D
:105733003D70251257D6E06405701D1257D6A3E0BD
:10574300F8740168600574066870071251F07402FA
:1057530080051251F07403F0EA240A1260D7126034
:1057630040E4F0EA2408F8E43F1230C62431F5821D
:10577300E43AF583E0C0E0126D77A3A3D0E01257BB
:10578300F5CA242EF582E43AF583E0C0E0126D7782
:10579300A3A3A3D0E0125D1BC81257D038123F69F0
:1057A300126D771257EA8A0A8B0BAC0AAD0B850888
:1057B30082850983125C8112184F850882850983CB
:1057C300124C251220CB1260D2F00230DC240BF5F0
:1057D30082E4228A828B83A3A3A3A3A3A3A3A312FA
:1057E3006569F583888222A3A3A3A3124ABC12226C
:1057F3003922125C5DFAA3E022025703C082C08300
:10580300901A2D7411F0A37420F0901A2F741DF0C8
:10581300A37420F0901A317423F0A37420F0901A2B
:10582300337417F0A37420F0025B0674F412094971
:10583300EA2408FEE43BFF8E82F5831251DA1260FC
:1058430016E0F50874035508F509125C7CF8A3E02B
:105853008882F583E508F0A3A882A983E509600996
:1058630074026509600302591B740C5508FC600A35
:1058730074086C600574046C702674026509700604
:10588300E508A2E4401A8A828B83A3A3A3A3A3A35C
:10589300A3A3125A2112676F3D1259BCA308A9830F
:1058A300740C6C701C125A1D2428125A092428F5F2
:1058B30082E43DF583A312639DF0E82402F85001CE
:1058C30009740265097006E508A2E4404B125A1DEB
:1058D300242A125A09242AF582E43DF583A3125996
:1058E300CB125A2712639D125A27A31259C3E824D5
:1058F30004F8500109EC600F74086C600A740C6CB6
:10590300600574046C701112604D2426F582E43C2A
:105913001259BCA3A882A9838A828B83A3A3A3A3BE
:10592300A3A3A3A31259EB54037014E508A2E14007
:105933000E12604D1259B63CF583E0548060081294
:1059430059D11259BE8019901A01E0C0E01259D101
:10595300D0E01259FE888289831259FE04125C62D8
:10596300A3A882A983E508A2E750458E828F8312FC
:1059730059EB88828983125A041259F05403603018
:1059830012604D2434F582E43C12639BF0E508A2D7
:10599300E1501D8A828B83A3A3A3A3A3A3A3A31272
:1059A30030CB2435F582E43A12639BA3F0E8240359
:1059B3000230DC241EF582E422F5831259CBF02257
:1059C3001259CBA3A3A3F022E088828983228A827F
:1059D3008B83A3A3A3A3A3A3A3A3E0FCA3E0CC244F
:1059E30032F582E43CF58322E01259F022FCA3E075
:1059F300CC2425F582E43CF583E022F0901A01E003
:105A03002212659FE022F582E43DF5831259CB1201
:105A13005A16221265A3125A21228E828F83E0FD29
:105A2300A3E0CD22A3125A16242CF582E43DF5837C
:105A330022C082C0838A828B83125AF6FC74035C71
:105A4300F98A828B83A3A37401F0E9600574026968
:105A53007061740C5CF8600A74086860057404680B
:105A630070137402697005ECA2E440098A828B8387
:105A7300A3A37402F0740C68700A8A828B83A3A3B5
:105A8300E02402F07402697005ECA2E440258A82E6
:105A93008B83A3A3E02404F0E8600F740868600A12
:105AA300740C68600574046870098A828B83A3A3ED
:105AB300E004F0ECA2E7502A8A828B83A3A3E004DC
:105AC300125AFC1235D5E0540360178A828B83A3E4
:105AD300A3E004F0ECA2E150098A828B83A3A3E044
:105AE30004F08A828B83A3A3E004F08016852182CD
:105AF300852283125323A3E022F08A828B83E02240
:105B0300120E2AD083D082020DF7C082C0838A820C
:105B13008B83A3A3A3A3A3A3A3A3A3A3125237601B
:105B2300098A828B83A3A3125B2F80D7A3A3A3A38A
