:020000040000FA
:060000000210DD0205F50F
:03001B000206B129
:03002B00020EBA08
:03004300020D5457
:0300530002052A79
:030073000207067B
:100083000205890100F0FF0700080000FFFF0000E0
:100093000504000000030001FF1E102700000020DC
:1000A300FD000206FFFF1E00800080BE1A00000054
:1000B3000000000000000000000000E80300000052
:1000C30000E803000000000F0000000F0000000123
:1000D30004010C0002033184016B8501040000E379
:1000E30018000000E8030000FFFF34198813000024
:1000F300E803000064006400B801A0BB0D00A0BBCE
:100103000D00020202070401071E02051E020A0A6D
:10011300010108080103B80B02803E0102FEFFE85B
:10012300030A050001FFFF020A011401E0020000B7
:1001330000050301010F0300030003000300030094
:10014300030003000300030005000A001400280055
:100153004F009E000000022C000000009A2B0000BC
:100163000000FF000000FF0012110B60461211296E
:10017300603DE9687008F618F618F618F6227480E0
:1001830067F712019F090909748067F72212112981
:10019300601D12110B7005191919801A120FED70D9
:1001A3001F120FD9C37003E66733191919400718D3
:1001B30018182208080874FFF618F618F618F6221D
:1001C300120FD960171211C1702192F01211AF7082
:1001D30019501720F014080808090909E7F6181937
:1001E300E7F61819E7F61819E7F6221211AF60E6D9
:1001F300E869701F0808E62480F608E436F6185408
:100203007FB47F0CE654806007F6E418F618F622F4
:10021300181822E9C6CC08C6CD08C6CE08C6CFC07A
:10022300E0E8C0E0EAC0E0EBC0E009E9F809E7FA7A
:1002330009E7FBE6F918E6F8C3EC98ED99EE9AEBBB
:10024300C2E7F5F0EFC2E795F0500E600CEBCFFB81
:10025300EACEFAE9CDF9E8CCF8EAA2E7D2E7FAEB7D
:1002630033FB13F5F0EEA2E7D2E7FEEF33FFC5F061
:1002730013A2E730E601B313C5F0C3C0E0C0F07FBB
:1002830000C39BFB605E9418600F401D14601AD07E
:10029300E023F9D0E0F80203718AF0E9486003D261
:1002A300F0E4AFF0FAF9F8803BEB30E40D89F0EAC3
:1002B3006003D2F0E4AFF0F9CAF8EB30E30D88F055
:1002C300EF6002D2F0AFF0E4CAC9F8EB5407601450
:1002D300FBC3EA13FAE913F9E813F8EF135002D258
:1002E300E0FFDBEDD0E0C0E030E739C3E49FFFF58A
:1002F300F0EC98FC42F0ED99FD42F0EE9AFE42F0EC
:10030300D0E0F9D0E0F8E5F0607AE923F9EE20E7F0
:1003130042D8028067C3EF33FFEC33FCED33FDEECD
:1003230033FE80EAEC28FCED39FDEE3AFED0E02303
:10033300F9D0E0F84002801BC3EE13FEED13FDEC91
:1003430013FCEF135002D2E0FF08B800067F7F745E
:10035300FF802EEF3350178CF020F00260100CBC9E
:10036300000C0DBD00080EBE000408E860DFE93391
:10037300E813FFEE2313FE4F4D4C8008E95480FF32
:10038300E4FEFDFCEE33EF33F47004FCFD7E80D01D
:10039300E0FBD0E0FAD0E0F8D0E0CFC618CEC61824
:1003A300CDC618CCC6F92200121129604F12110BC9
:1003B3006012E7548066F6120FED70111211C170CE
:1003C3003B090909F4F618F618F618F622120FD9A4
:1003D30070151211AF08080860EAE6447FF6187634
:1003E3008018E4F618F6221211AF60161211C170CC
:1003F30012E4F608F608F608E65480F60909091827
:10040300181822EAC0E0EBC0E0ECC0E0EDC0E0E683
:1004130087F0A4FBACF008E687F0A42CFCE435F0ED
:10042300FA1809E687F0A42C4B60027401CA35F070
:10043300FCE433FB09E687F0D2F7A42CCB35F0FCC0
:100443001908E687F0A42BCC35F0FBE433FD08193B
:10045300E687F0D2E7A42C4ACB35F0CD3400FC0973
:10046300E687F0D2E7A42DCC35F0FDE433FA091882
:10047300E687F0D2F7A42CCD35F0CA3400FC08E6A9
:1004830087F0D2E7D2F7A42ACC35F07A7E20E70BA7
:100493000ACB33CBCD33CDCC33CC33CB33501470E9
:1004A30004ED30E00ED2F1E4CD3DCDCC3CCC3B505D
:1004B30005DA05C2F1EB547FC63308E63392F0FB4D
:1004C300E73309E733C39A502D2B70190C0D4C4DAC
:1004D30070151806E608C333700D20F10AA2F01355
:1004E300F6E418800B4024E4F630F002768018F628
:1004F30018F618F68024D33B14501074FFA2F0139F
:10050300F6187680E418F618F6800FA2F013F618A2
:10051300E63303F618ECF618EDF6D0E0FDD0E0FC78
:10052300D0E0FBD0E0FA22C0E074F11209B8A2AF28
:10053300E433F509D2AF85A708AFA1EF5508FE74E0
:10054300105E60061214A075A1EF74085E600812B5
:1005530014A675A1F78024EFA2E092F0E508A2E0CB
:1005630082F05017906198E0F8900B47E0C398A28F
:10057300D265D0335002E8F075A1FEE509A2E092FE
:10058300AF7F02020A17C0E074F21209B8A2AFE407
:1005930033FED2AF9061A4E0F8759B00E591585407
:1005A3000860087591F71214F48023E591585410EC
:1005B30060087591EF1214FA8014E591A2E092F0AD
:1005C300E8A2E082F05007E0C2E0F012165090611A
:1005D300A3E0F8E5E9585404600E12162675E9FB0A
:1005E300906193E0A2E640F2EEA2E092AF7F0102B7
:1005F3000A17C0E074F21209B8A2AFE433FED2AF17
:100603009061A5E0F8E5BF585404600675BFFB127E
:10061300166880D4C3E498F8E499F9120658802642
:10062300C3E49AFAE49BFBE920E7E9120658E4984D
:10063300F8E499F922C3E498F8E499F9120658E426
:1006430098F8E499F9C3E49AFAE49BFB22EB20E7D8
:10065300CFE920E7E0B90010BB0008E88AF084F88E
:10066300AAF022E4FBC8FA22EB70227B10C833C83D
:10067300C933C9335007C39AC3DBF280069A5001CA
:100683002ADBEAC833F4C8C933F4C9FA2275F0087F
:10069300E4C833C8C933C933C99AC99B5004C92AAA
:1006A300C93BD5F0ECFBC833F4C8E4C9FA22C0E077
:1006B300C0D0E8C0E0E9C0E0C082C083A8F9E8C0C8
:1006C300E0900AB4E0F8743328F582E4340AF58341
:1006D300D0E0F0900AB3E0F8A3E0687006E59590E7
:1006E3000AB6F0900AB4E004F0C394804002E4F048
:1006F300A374C6F0D083D082D0E0F9D0E0F8D0D094
:10070300D0E032C0E0C0D0E8C0E0E9C0E0C082C0C1
:1007130083900B37E0F8A3E0687008539AF7A3744B
:10072300018022C2EA900B37E0F8740128F074B715
:1007330028F582E4340AF583E0F5F9900B37E0C33A
:1007430094804002E4F080AC12079630F03912072F
:10075300DB803412079620F01430E72B74FFFCFB88
:10076300FA747F8022E4FCFBFA7480801AB4800858
:10077300BC00F2BB00EF800F50EBF9E4C39AFAE43C
:100783009BFBE49CFCE499C6CC18C6CB18C6CA18DC
:10079300C6F922E4C9C608CAC608CBC6D3330308C0
:1007A300CCC63392F0C3947F402E94184019C9B934
:1007B3000704CACBCC225025C309CA33CACB33CBD7
:1007C300CC33CC33D9F422F4600DC9CCC313CB138F
:1007D300CBCA13CAD9F6CC22E4FCFBFA2214FCFBE5
:1007E300FA22080808EAC0E0EBC0E086F0E7A4FAC2
:1007F300180986F0E7A42AFA180986F0E7A42AFA6A
:10080300180986F0E7A42AFA1986F0E7A4FBE5F0B5
:100813002AFA190886F0E7A42BFBE5F03AFA19083F
:1008230086F0E7A42BFBE5F03AFA18180986F0E7FF
:10083300A4C5F02BFBE43AFA1908E7C5F0C6A426D1
:10084300F6E5F03BFBE43AFA1886F0E7A4F6E5F0A8
:100853000826F6E43B08F6E43A08F6D0E0FBD0E0DD
:10086300FA22080808E630E711120F9D12087D08E6
:100873000808C64480C618181822181818E9799E63
:10088300C608CAC608CBC608CCC6C370207996CAA8
:10089300CBCC7019798ECBCC70137986CC700EF9D2
:1008A300802ACA33CACB33CBCC33CC331930E7F2EB
:1008B300CCCBCA3350147004EA30E00DE4CA3ACA10
:1008C300CB3BCBCC3CCC500209C3E913C6CC182399
:1008D30013C6CB18C6CA18C6F922E4CFC0E0E4CECB
:1008E300C0E0E4CDC0E0E4CCC0E075F020E626F63D
:1008F30008E633F608E633F608E633F6181818EC7C
:1009030033FCED33FDEE33FEEF33FFC3EC9709ED1C
:100913009709EE9709EF97191919400FFFEC97FC08
:1009230009ED97FD09EE97FE191906D5F0BFECF70F
:1009330009EDF709EEF709EFF7191919D0E0FCD023
:10094300E0FDD0E0FED0E0FF222521C582C0E0E536
:100953002234FFC583C0E0E521C3958224F810AF9C
:10096300088583228582218008858322858221D27E
:10097300AFCEF0A3E520F0A37808E608F0A3DEFAF3
:10098300EFF0A3E58124FAF8E608F0A3E608F0A364
:10099300E608F0A30808E608F0A3E608F0A315812B
:1009A3001581D0E0FED0E0F8158115811581E8C0EE
:1009B300E0EEC0E022C0D02521C582C0E0E52234AC
:1009C300FFC583C0E0E521C3958224F310AF0885FA
:1009D30083228582218008858322858221D2AFC824
:1009E300F0A3E9F0A3EAF0A3EBF0A37908E709F099
:1009F300A3D8FAECF0A3EDF0A3EEF0A3EFF0A3D0AD
:100A0300E0F0A3D0E0F0A3D0E0F0A3E520F0A3E56D
:100A1300F0F0A322852283852182E0C0E0A3E0F9E0
:100A2300A3E0FAA3E0FBA37808E0F608A3DFFAE06B
:100A3300FCA3E0FDA3E0FEA3E0FFA3E0C0E0A3E08E
:100A4300C0E0A3E0F5D0A3E0F520A3E0A3F5F01008
:100A5300AF088583228582218008858322858221B0
:100A6300D2AFD082D083D0E0F8D0E03212119AB95D
:100A73000003020AAEE490050178D079178002F0F2
:100A8300A3D8FCD9FA7AD07B1B90008678E679014B
:100A93008015E493A3AD82AE838A828B83F0A3AAED
:100AA30082AB838D828E83D8E9D9E77582FC758307
:100AB300817405120E177582F27583287400120E65
:100AC3001775F0108E238F2485822885832785212F
:100AD30082852283E0CEA3E0CF852882852783EB1E
:100AE300C9EAC8EDCBECCAC3E833C8E933C9EA3372
:100AF300CAEB33CBC3EA9EF526EB9FF525B350042F
:100B0300AB25AA26EC33CCED33CDD5F0DAAE23AF4B
:100B13002422121129601C12110B60171211AF70DD
:100B2300071211C17001D322C0D01211C17006D0B7
:100B3300D0B322C32233D0D0501430E0F6C3E796AB
:100B43000809E7960809E7960809E796B32220E023
:100B5300D5E6970809E6970809E6970809E697B3E3
:100B630022D083D082ECC0E0EDC0E0E493A3FCE4A8
:100B730093A3FDED4C600D120C3CEC24FFFCED3413
:100B8300FFFD80EFE493A3FCE493A3FDED4C600D24
:100B9300120CD9EC24FFFCED34FFFD80EFD0E0FD17
:100BA300D0E0FCE493A3C0E0E493C0E022D083D080
:100BB30082E9C0E0E493A3C386F0C5F095F0F90899
:100BC300E493A386F0C5F095F0700BE493A3C39967
:100BD3004005E9048002A3E475F002A42582F582AE
:100BE300E5F03583F583D0E0F9E493A3C0E0E49323
:100BF300C0E022852283852182E0A3FEE0A3F520C5
:100C03007808E0A3F608DFFAE0A3FFE0A3C0E0E082
:100C1300A3C0E0E0A3C0E0E0A3C0E0E0A3C0E01015
:100C2300AF088582218583228008858221858322DE
:100C3300D2AFD083D082020E1DC0E0C3E4939608E6
:100C43007401939618400FE4936670080874019337
:100C5300661870007019A3A3C3E4939608740193F4
:100C63009618A3A3400DD0E0D0E0D0E0020BA0A3E0
:100C7300A3A3A3A3A3D0E02274048004740280007E
:100C8300CCC0E0EDC0E0E521C39CCCAD2250011DFA
:100C930010AF068C218D2280068C218D22D2AF12BB
:100CA3000D99D0E0FDD0E0FC2274028000CCC0E0BE
:100CB300EDC0E0E521C39CCCAD2250011D10AF0671
:100CC3008C218D2280068C218D22D2AF120D77D0FC
:100CD300E0FDD0E0FC22C0E0C0F088F0E493667051
:100CE300080874019366187000A8F0A3A3700BD0D2
:100CF300F0D0E0D0E0D0E0020BA0A3A3D0F0D0E08E
:100D030022D083D082CCC0E0E493A36006120DD935
:100D13001470FAE493A36006120F1D1470FAD0E066
:100D2300FCE493A3C0E0E493C0E022C008C3E096D0
:100D3300F50808A3E096420808A3E096420808A332
:100D4300E0964208A2D265D033E5087001D3D008FB
:100D530022C0E074F21209B8A2AFE433FED2AFC2EC
:100D6300C0E5D1A2E45003121404EEA2E092AF7FD7
:100D730001020A17CAC0E0E493A3C582CCC582C5A9
:100D830083CDC583F0A3C582CCC582C583CDC5837E
:100D9300DAE5D0E0CA22CAC0E0E0A3C582CCC582AE
:100DA300C583CDC583F0A3C582CCC582C583CDC51C
:100DB30083DAE6D0E0CA2270090808082260161810
:100DC3001818C6C333C608C633C608C633C608C612
:100DD30033C6D5E0EA22C0E0E493A3D39C5010E4E9
:100DE30093A3C39C400AD0E0D0E0D0E0020D21A33E
:100DF300A3A3D0E022C008C3E096F50808A3E096B9
:100E0300420808A3E096420808A3E096450870014B
:100E1300D3D00822C09FF59FE473D09F22D083D004
:100E230082C09FE493C0E0740193C0E0740293F521
:100E33009F227404800A7403800674028002740182
:100E4300C0E0F404120E6BD0E01211382200C0D0BF
:100E5300252110AF08F521500C05228008F52150FB
:100E6300020522D2AFD0D0222521F58210AF08F59A
:100E730021400C15228008F52140021522D2AF85AE
:100E8300228322BB0102E722C082C08389828A8334
:100E9300BB0003E08002E493D083D0822260170872
:100EA3000808C6A2E713C618C613C618C613C61881
:100EB300C613C6D5E0E922C0E0C0D0E8C0E0A8A8C8
:100EC300D2AFC2C7E8A2E792AFD0E0F8D0D0D0E06B
:100ED300326016080808C6C313C618C613C618C658
:100EE30013C618C613C6D5E0EA222521F8E4352235
:100EF300F9222521FAE43522FB222521FCE43522BF
:100F0300FD22C3E0C696F608A3E0C696F608A3E062
:100F1300C696F608A3E0C696F622C0E0E493A36C57
:100F23007009D0E0D0E0D0E0020D21A3A3D0E022ED
:100F3300252110AF08F521400C15228008F521402A
:100F4300021522D2AF22C3E7960809E7960809E7FC
:100F5300960809E796A2D265D03322E76670100897
:100F630009E766700A0809E76670040809E766225C
:100F7300C3E09608A3E09608A3E09608A3E096A230
:100F8300D265D03322E066701008A3E066700A08C9
:100F9300A3E066700408A3E06622181818E4C39659
:100FA300F608E496F608E496F608E496F622C3E01B
:100FB30096F008A3E096F008A3E096F008A3E09665
:100FC300F022C3E4939608740193960874029396EF
:100FD300087403939622191919E70947097009E759
:100FE30027097005E733F4220922181818E6084682
:100FF300087009E626087005E633F4220822C3E6E2
:1010030097F60809E697F60809E697F60809E697BA
:10101300F622E026F008A3E036F008A3E036F00855
:10102300A3E036F022E026F608A3E036F608A3E0B4
:1010330036F608A3E036F622E627F60809E637F681
:101043000809E637F60809E637F622700422600D30
:1010530018C6C333C608C633C6D5E0F41822E6471C
:10106300F60809E647F60809E647F60809E647F6EB
:1010730022E056F608A3E056F608A3E056F608A3C6
:10108300E056F622E657F60809E657F60809E6574A
:10109300F60809E657F622E056F008A3E056F008F2
:1010A300A3E056F008A3E056F022C6F4C608C6F43F
:1010B300C608C6F4C608C6F4C622C3E7960809E7FD
:1010C300960809E7960809E79622C3E09608A3E085
:1010D3009608A3E09608A3E0962275D00075813F99
:1010E30075210175220500020A6F600C08C6C3133F
:1010F300C618C613C6D5E0F422E6F008A3E6F00846
:10110300A3E6F008A3E6F022E7094709C31347095A
:10111300336002E733F422E0F608A3E0F608A3E025
:10112300F608A3E0F622E6084608C3134608336030
:1011330002E633F422CAC0E0E6F0A308DAFAD0E00C
:10114300FA22800100E9F874FF28F90470F622E01E
:10115300FAA3E0FBA3E0FCA3E0FD22ECF0A3EDF097
:10116300A3EEF0A3EFF022E0F8A3E0F9A3E0FAA3E3
:10117300E0FB22E8F0A3E9F0A3EAF0A3EBF022E01E
:10118300FCA3E0FDA3E0FEA3E0FF22EAF0A3EBF063
:10119300A3ECF0A3EDF022E5C754F84401F5C779B9
:1011A30001222521F582E43522F58322E62618461D
:1011B3001846184622C2AF75D69F02000022E727C1
:1011C30019471947194722120E2006DB02120E2077
:1011D3009ADB02120E204BDC02120E209CDC021260
:1011E3000E20E0DC02120E207ADD02120E20EADD70
:1011F30002120E2019DE02120E201FDF02120E2031
:1012030049DF02120E209DDF02120E2071E002124E
:101213000E209FE202120E204DE302120E20BAE5C9
:1012230002120E203FE602120E2042E902120E20A5
:1012330076EB02120E20B2EB02120E200BED02121D
:101243000E201EED02120E205BED02120E2024EF83
:1012530002120E20DBF002120E2057F102120E20B2
:101263008AF102120E20B8F102120E20F6F10212D8
:101273000E2033F402120E2052F402120E2097F4C1
:1012830002120E202DF502120E2079F502120E2005
:101293000DF602120E20E6F602120E2042F702129B
:1012A3000E20A0F702120E2013F802120E2057F898
:1012B30002120E20AFF802120E20D1F802120E20F5
:1012C30061F902120E20F2F902120E203EFA021206
:1012D3000E206AFA02120E20ABFA02120E2041FC13
:1012E30002120E202DFD02120E2008FE02120E2005
:1012F30067EA04120E209AEA04120E20BAEA0412D4
:101303000E20E1EA04120E200EEC04120E202FEC44
:1013130004120E20F7EC04120E20918D05120E20FC
:10132300968D05120E20C98D05120E200080051220
:101333000E20C78005120E20D98005120E201B8EA9
:1013430005120E202C8E05120E20468E05120E203D
:10135300FD7F00120E208D8E05120E2071FF0112EB
:101363000E2081FF01120E2096FF01120E20DFFFD7
:1013730001120E20E2FE02120E2066FF02120E2060
:10138300CEFF02120E20C0FA04120E20D4FA041269
:101393000E204AFB04120E2099FB04120E20CEFBF2
:1013A30004120E20F1FB04120E2014FC04120E2072
:1013B3004DFC04120E207EFC04120E20C5FC041208
:1013C3000E20A28E05120E20DAE304120E20E8E3AB
:1013D30004120E2061E404120E203AE504120E20DA
:1013E300FDE604120E20558E05120E20D3C40412FE
:1013F3000E203FC504120E20E2C504120E2057C76B
:1014030004120E20BEC704120E200BC804120E20B5
:1014130064C804120E20E8C804120E201DC9041269
:101423000E203BC904120E20C1C904120E2044CA67
:1014330004120E2051CA04120E2070CA04120E2088
:101443009CCA04120E2006CD04120E2046CD0412AF
:101453000E2082CD04120E2096CD04120E20AFCDA5
:1014630004120E20A1CE04120E2054CF04120E201B
:1014730068CF04120E20EA8305120E200E84051293
:101483000E20278405120E20658405120E209584F4
:1014930005120E20C28405120E20288505120E2087
:1014A3002B8505120E20358505120E204285051267
:1014B3000E2086F304120E20A6F304120E20E5F389
:1014C30004120E2003F404120E201EF404120E2044
:1014D30084F404120E2090F404120E20EDF404128E
:1014E3000E20FCF404120E2020F504120E20E1F568
:1014F30004120E20EEF504120E20FFF504120E2046
:10150300EE8B05120E20368C05120E20628C05120E
:101513000E20BECF04120E2012D104120E2020D1B1
:1015230004120E2033D104120E2048D104120E20CF
:101533005DD104120E2070D104120E20ECD10412DE
:101543000E2051D204120E20E7D204120E20C0D373
:1015530004120E20D0D304120E20DFD304120E2067
:10156300558B05120E20798B05120E20A18B0512C7
:101573000E20C98B05120E202DF604120E2054F6F0
:1015830004120E2072F604120E20E1F604120E204D
:1015930083ED04120E209CED04120E20A8ED04121C
:1015A3000E20BCED04120E20DAED04120E20E4ED41
:1015B30004120E20EEED04120E2001EE04120E2092
:1015C3008BEE04120E2000EF04120E2034EF0412EF
:1015D3000E2082EF04120E20CFEF04120E20EAEF4A
:1015E30004120E20F4EF04120E201AF004120E203F
:1015F3007FF004120E209E8A05120E20C08A051267
:101603000E20E37F00120E2047B404120E2073B4A1
:1016130004120E2090B404120E20A3B404120E2060
:10162300BEB404120E2018B504120E2046B50412DF
:101633000E205AB904120E20B8BA04120E20EABAC8
:1016430004120E204DBB04120E20D2BC04120E2035
:10165300FABC04120E200FBD04120E201FBD04128B
:101663000E205FBD04120E20A1BD04120E20B1BDD9
:1016730004120E20E28705120E20FC8705120E20AD
:10168300248805120E203D8805120E20618805125C
:101693000E207F8805120E20968805120E20C4881E
:1016A30005120E20DF8805120E20D78D05120E209D
:1016B30051E004120E2061E004120E2066E10412D0
:1016C3000E2098E104120E20C8E104120E20EBE173
:1016D30004120E2002E204120E203CE204120E2039
:1016E300A1E204120E20E3E204120E202AE3041204
:1016F3000E2057E304120E2082E304120E204C85C1
:1017030005120E205E8505120E20728605120E202C
:10171300758605120E20128905120E2048890512BE
:101723000E208A8905120E209A8905120E20DE8961
:1017330005120E20E1BD04120E2024BE04120E2059
:1017430089BE04120E20A8BE04120E204ABF041242
:101753000E2053BF04120E20A4BF04120E20CDBFCF
:1017630004120E20DABF04120E204CC004120E2005
:10177300DAC004120E201FC104120E2058C1041235
:101783000E20BDC104120E20E6C104120E205DC25C
:1017930004120E20ACC204120E20E9C204120E2061
:1017A3001EC304120E2030C304120E2042C30412BF
:1017B3000E2061C304120E206AC304120E2026C435
:1017C30004120E2069C404120E20A7C404120E20B2
:1017D300DA8C05120E20A28605120E2082F804125E
:1017E3000E20B8F804120E2000F904120E2059FA44
:1017F30004120E20008004120E20268104120E20F3
:10180300628104120E20208304120E204E830412E0
:101813000E20B88504120E20F88504120E209A8734
:1018230004120E20308804120E208A8804120E201F
:101833001A8904120E205E8904120E20A089041254
:101843000E20058B04120E20858C04120E20C68EEA
:1018530004120E20F48E04120E20208F04120E2088
:10186300298F04120E20868F04120E201F9004125B
:101873000E20369304120E20BC9304120E20E7FFB1
:1018830002120E20DE7B00120E20F47B00120E20CB
:10189300987C00120E20D77C00120E20F47C0012DC
:1018A3000E20257D00120E20727D00120E20A67DD3
:1018B30000120E20E17D00120E20D67F00120E20B2
:1018C300F5FE04120E2054FF04120E2092FF0412A0
:1018D3000E20D3FF04120E20DFFC04120E201DFD88
:1018E30004120E2046FD04120E2081FD04120E2068
:1018F300E2FD04120E20F4FD04120E20C0FE0412B9
:101903000E20E8FF01120E2015B303120E2049B377
:1019130003120E2020B503120E20BFB603120E20B1
:10192300FEB703120E20D3B803120E2017BA031208
:101933000E204DBA03120E2009BB03120E208CBDDC
:1019430003120E20B0BE03120E20D3BE03120E20CC
:1019530066C203120E20DDC403120E2009C5031252
:101963000E2095C503120E20BCC503120E20F7C529
:1019730003120E20D2C703120E20E88905120E208F
:101983006AC201120E2076C201120E20D8C20112C1
:101993000E20E2C201120E2071C301120E20ADC34C
:1019A30001120E20A6C401120E2003C501120E203F
:1019B30091C501120E20E2C501120E2062C601126A
:1019C3000E2024C801120E2029CA01120E2023CB97
:1019D30001120E2055CC01120E20A7CE01120E20AB
:1019E300EACF01120E208FD001120E203DD5011235
:1019F3000E2033D601120E20C9D601120E20EED6C8
:101A030001120E208BD701120E20A8D701120E202F
:101A1300C8D701120E2036D801120E2053D8011256
:101A23000E2081D801120E2019DA01120E203ADAA3
:101A330001120E20E0DA01120E2028DB01120E2023
:101A430086DB01120E2029DC01120E208EDC01122E
:101A53000E20EDDC01120E209FDD01120E200EDEA2
:101A630001120E2049DE01120E20BDDE01120E20EE
:101A730008E001120E2098E101120E2037E2011254
:101A83000E2077E401120E20D9E401120E2007E59F
:101A930001120E202AE701120E20D4E901120E20B2
:101AA300E7EA01120E2056F503120E2089F60312FF
:101AB3000E2051F803120E202AF903120E2044F9C6
:101AC30003120E2057F903120E2076F903120E208B
:101AD3003FFA03120E20A2FB03120E2062FC031234
:101AE3000E20CCFC03120E20A5FE03120E20C2DC36
:101AF30004120E207DDD04120E20E3DD04120E20FD
:101B030004DE04120E20DFDE04120E2034E0031282
:101B13000E2063E003120E20DBE003120E20EAE145
:101B230003120E2046E203120E20B3E303120E202B
:101B3300CFE303120E2021E403120E205FE403120D
:101B43000E2072E403120E20CAE403120E208CE569
:101B530003120E2008E603120E203FE603120E20A6
:101B630077E603120E20FFE703120E20DEE80312CE
:101B73000E202CEA03120E200FEB03120E209BEB18
:101B830003120E20DBEB03120E20FAEB03120E20DE
:101B930045EC03120E2065EC03120E20FEEC03123B
:101BA3000E2084ED03120E20DFED03120E201FEE34
:101BB30003120E20B5F003120E20CEF103120E20F5
:101BC30014F203120E2009F303120E2031F3031251
:101BD3000E2034F303120E203EF303120E205AF3A9
:101BE30003120E20D4F303120E200DF403120E2061
:101BF30039F403120E2060F403120E2084F403124E
:101C03000E20F5F403120E2008F503120E2037F50B
:101C130003120E20658C05120E20718C05120E2006
:101C2300A58C05120E20FDFF02120E2005CA031219
:101C33000E2028CA03120E2075CB03120E20BECB32
:101C430003120E202ACC03120E2088CC03120E207E
:101C53008BCC03120E20DCCC03120E2051CD0312C9
:101C63000E20D6CD03120E20D9CD03120E205ACE4C
:101C730003120E208FB004120E2087D203120E20FF
:101C830031D403120E2081D403120E2008D803127C
:101C93000E203BD903120E20A6DA02120E2052DBCD
:101CA30003120E203DDC03120E2092DE03120E20DF
:101CB30008EF01120E20B2EF01120E201DF00112E7
:101CC3000E2038F001120E20BDF001120E2017F184
:101CD30001120E205EF101120E20C5F101120E2039
:101CE30044F301120E2073F401120E20FBF40112CF
:101CF3000E201AD402120E20B1F701120E2055F84D
:101D030001120E2026F901120E20E1FA01120E2013
:101D130079FC01120E200CFD01120E2032FE01127D
:101D23000E20008003120E20638003120E20AB806E
:101D330003120E20EF8003120E204A8103120E209D
:101D4300A78103120E20E28103120E206482031284
:101D53000E20BE8203120E203C8403120E20BC848C
:101D630003120E20178503120E20318503120E2055
:101D7300528503120E20AC8503120E20288803120D
:101D83000E20478803120E20378903120E206A8A19
:101D930003120E20E98A03120E20258B03120E2054
:101DA300948B03120E20498C03120E20218E0312F2
:101DB3000E20288F03120E20A09003120E2096925D
:101DC30003120E200C9503120E20E69603120E202A
:101DD300A79703120E201F9803120E2036980312A2
:101DE3000E202D9903120E20219A03120E20909A91
:101DF30003120E208AF004120E20E1F104120E20C9
:101E0300A0F204120E2008F304120E2042E704127B
:101E13000E205DE704120E20A1E704120E20C7E78F
:101E230004120E20EEE704120E2006E804120E2020
:101E3300A8E804120E20BDE804120E20E0E9041203
:101E43000E20E9E904120E20F2E904120E20FBE948
:101E530004120E2005EA04120E2010D404120E20E0
:101E63001CD804120E2021D804120E2023D80412E9
:101E73000E20778205120E20D4FF03120E20328D1E
:101E830005120E20428D05120E208AD804120E2050
:101E930035AC02120E2068AC02120E20D4AC021232
:101EA3000E206FAD02120E200CAE02120E2051AEA8
:101EB30002120E2073AE02120E208CAE02120E20FE
:101EC300B2AE02120E20D4AE02120E2012AF0212D4
:101ED3000E2056AF02120E2078AF02120E20DAAF98
:101EE30002120E20A1B002120E2058B102120E20CF
:101EF300CAB102120E2095B202120E20E8B20212EB
:101F03000E204EB302120E2088B302120E20DAB353
:101F130002120E2048B402120E20B3B402120E2095
:101F2300B6B402120E2037B502120E20CEB502123D
:101F33000E204EB602120E206DB602120E20D1B73D
:101F430002120E20DEB702120E20EAB802120E2091
:101F5300F7B802120E2000B902120E20D8BA0212EC
:101F63000E20F2BB02120E206BBC02120E20DDBC4F
:101F730002120E20FFBC02120E2093BD02120E208D
:101F830067BF02120E203EC302120E2052C302127A
:101F93000E2062C302120E206CC302120E2075C300
:101FA30002120E207EC302120E2088C302120E20DC
:101FB300B5C302120E20DEC302120E20E9C30212C1
:101FC3000E200DC402120E2031C402120E209BC437
:101FD30002120E20E1C402120E20FEC402120E20D1
:101FE3007BC502120E20B2C502120E20F1C50212E9
:101FF3000E203EC602120E20C4C602120E2092C844
:1020030002120E2015C902120E20F9C902120E2067
:1020130060CC02120E20B9CC02120E2003CD0212A4
:102023000E205ECE02120E2093CE02120E20E5CEBB
:1020330002120E209ACF02120E2049D002120E2055
:1020430086D002120E201BD102120E2087D102125B
:102053000E20212F00120E20532F00120E20812F4D
:1020630000120E20573100120E20373200120E20BC
:102073008F3200120E20CA3300120E2016340012C3
:102083000E203F3700120E20323A00120E20823B00
:1020930000120E20183C00120E20243C00120E20C9
:1020A300563C00120E20D93D00120E208A3F00122A
:1020B3000E201E4000120E20614000120E20DF4051
:1020C30000120E20FC4000120E202C4100120E20A4
:1020D300614100120E20314200120E20DA4200123A
:1020E3000E20604500120E20804600120E206B4722
:1020F30000120E20ED4700120E20214C00120E207C
:102103005E4C00120E20B64C00120E20E94C001259
:102113000E20534D00120E20894D00120E20144E36
:1021230000120E206C4E00120E20434F00120E20A0
:10213300FC4F00120E20975000120E209F530012E6
:102143000E20BB5400120E205E5800120E2052596E
:1021530000120E20555900120E20845900120E2031
:102163008A5B00120E20635C00120E20A65C001234
:102173000E20FC5D00120E203B5E00120E20C45E9A
:1021830000120E20F85E00120E20BD5F00120E201A
:10219300D56100120E20466200120E2086620012E4
:1021A3000E20146300120E20366400120E20F86411
:1021B30000120E20FF6600120E20176700120E2079
:1021C3002B6700120E20636700120E209167001226
:1021D3000E20106900120E20356A00120E20926A3A
:1021E30000120E20446B00120E206B6B00120E20A7
:1021F300326C00120E20CA6C00120E20F06E001218
:102203000E20256F00120E20886F00120E20B7706B
:1022130000120E205F7100120E20907100120E202A
:10222300A87100120E20377200120E20EB740012F8
:102233000E20C37600120E20DF7600120E20FB76EE
:1022430000120E20C97700120E20BC7B00120E2054
:10225300738501120E20A58501120E2094890112A7
:102263000E20E08901120E20268A01120E20C88A50
:1022730001120E20248B01120E20698B01120E20F5
:10228300B08C01120E20C48D01120E20B3910112E5
:102293000E20379201120E20449301120E20A093B8
:1022A30001120E20909501120E20059601120E20A8
:1022B3000F9601120E201C9601120E204796011252
:1022C3000E202E9701120E20D89701120E20569839
:1022D30001120E20769801120E209F9801120E20F3
:1022E300C19801120E20219B01120E20E79B0112BF
:1022F3000E202C9C01120E20A99C01120E205A9D27
:1023030001120E208C9D01120E20D29D01120E206F
:102313000E9E01120E205E9E01120E20B29E01122D
:102323000E20089F01120E20549F01120E20C19F00
:1023330001120E203CA001120E2007A201120E2052
:1023430007A301120E202CA401120E206BA7011269
:102353000E207EAA01120E203BAB01120E207FAB92
:1023630001120E202FAD01120E2043AD01120E20DB
:102373004DAD01120E2057AD01120E2063AD0112B7
:102383000E207FAD01120E202AAE01120E2069AE7F
:1023930001120E2073AE01120E207DAE01120E202B
:1023A300EDAE01120E2038AF01120E204DB0011216
:1023B3000E20A9B001120E202AB101120E20E9B19C
:1023C30001120E20F2B201120E2026B401120E20C9
:1023D30014B501120E202CB501120E2087B501127F
:1023E3000E20A5B501120E20EDB501120E2014B674
:1023F30001120E20AFB601120E2075B701120E2086
:1024030007B801120E2081B801120E209BB90112E8
:102413000E2048BA01120E2070BB01120E20C0BB61
:1024230001120E2024BC01120E2086BC01120E20C4
:10243300B4BC01120E20D8BC01120E200DBD011236
:102443000E203EBD01120E2071BD01120E2091BD62
:1024530001120E20F9BD01120E20EDBE01120E2055
:1024630048BF01120E2071BF01120E20F9BF0112E5
:102473000E207CC001120E20A7C001120E208CC1B9
:1024830001120E201B9404120E20539404120E20EA
:10249300749404120E20B69404120E20189504129C
:1024A3000E20229504120E20329504120E206D95F3
:1024B30004120E204D9904120E203A9B04120E2092
:1024C300209D04120E20B79D04120E20599E041263
:1024D3000E20248102120E20A28102120E20FE8100
:1024E30002120E20498202120E20648202120E2072
:1024F3008F8202120E20AC8202120E20B8820212C8
:102503000E204F8402120E20688402120E20ED84E6
:1025130002120E20008502120E201F8502120E20C9
:10252300C38502120E20448702120E20F78802127E
:102533000E208D8902120E20908902120E20008A2D
:1025430002120E201E8A02120E20B58A02120E20DB
:10255300FD8A02120E20008B02120E20C68B02127D
:102563000E20338C02120E20598C02120E20E48CA2
:1025730002120E20028D02120E20488D02120E202E
:10258300FC8D02120E20468E02120E20758E021250
:102593000E20D28E02120E20078F02120E20338FCE
:1025A30002120E20418F02120E208E8F02120E2075
:1025B300FE8F02120E20479002120E2093900212F9
:1025C3000E20BF9002120E20CA9002120E20E89035
:1025D30002120E20D39102120E20DD9102120E2060
:1025E300189202120E20289202120E203192021229
:1025F3000E20859202120E20999202120E20C89389
:1026030002120E20DD9302120E206B9402120E2092
:10261300B09402120E203C9502120E20479502122E
:102623000E20899602120E20A49602120E20F09616
:1026330002120E205F9702120E20989702120E20AC
:10264300B29702120E20F49702120E20C49A0212BD
:102653000E20719B02120E20DE9B02120E201E9E84
:1026630002120E20369E02120E20399E02120E20F6
:10267300459E02120E20599E02120E20619E0212E6
:102683000E20949E02120E20969F02120E201DA071
:1026930002120E208DA002120E200FA102120E2094
:1026A300D0A102120E20EFA102120E2090A202125C
:1026B3000E20EDA202120E20F0A202120E2064A33D
:1026C30002120E20B3A402120E20B9A502120E208C
:1026D30044A602120E205FA702120E2027A80212A0
:1026E3000E2058A802120E207BA802120E2084A8E6
:1026F30002120E20B3A802120E2043A902120E20CA
:10270300F9A902120E206EAA02120E2015AB0212B4
:102713000E208AAB02120E20C1AB02120E20FFABB9
:1027230002120E2076DA02120E2028B004120E20B6
:1027330014B004120E2071AF04120E2071AE0412F5
:102743000E208AAD04120E207AAB04120E2088AA42
:1027530004120E2026AA04120E2001B303120E2027
:10276300F7B203120E208CB203120E20C0B0031274
:102773000E20CAD902120E20B5DA03120E207EB043
:1027830003120E2082AF03120E206ED302120E200C
:10279300DCD202120E2056AF03120E200DAF03122D
:1027A3000E204EAE03120E203AAB03120E20FBA8EE
:1027B30003120E20C8A803120E206FA803120E20C6
:1027C30002A803120E20C1A703120E20FAA60312B9
:1027D3000E2094A603120E2033A603120E20D3A5B7
:1027E30003120E20AAA403120E203EA403120E20ED
:1027F30096A303120E2091A303120E2085A30312A6
:102803000E20B89F03120E20929F03120E2096D221
:1028130002120E2061D202120E202ED202120E20BC
:1028230019D202120E20EED102120E2001B40412AC
:102833000E20CDB304120E2076B304120E20E4B1A1
:1028430004120E20309F03120E20D19E03120E207D
:10285300929E03120E2036B104120E207F9E0312A5
:102863000E20749E03120E20439E03120E20309CF2
:1028730003120E2063D702120E20A39B03120E2015
:1028830004F701120E205F9B03120E20339B0312E9
:102893000E20B6A904120E2089A904120E2056A9EF
:1028A30004120E202EA904120E20CFA804120E200B
:1028B300AFA804120E207AA804120E2026A5041233
:1028C3000E200EA304120E20F8A004120E2078A0EE
:1028D30004120E2024A004120E20309F04120E2096
:1028E300D89F04120E2099B004120E209BCE030031
:1028F300000080FB000022E4738F000100761C8738
:10290300000100741C350004003D1C250002004139
:102913001C26000200431C27000200451C2800015E
:10292300004F1C29000100501C84000400C01986BC
:10293300000100DE1B2A000100511C2B0001005284
:102943001C2C000100561C2D000800CC192E000180
:1029530000571C2F000100581C30000100591C3186
:102963000001005A1C32000100D41933000100D5C4
:1029730019340001005B1C36000100D61938000130
:10298300005C1C39000100551C83000200721C63AB
:10299300000100E21964000100531C6500010054AA
:1029A3001C6D000100E31971000800C419660001E1
:1029B30000711C43000100621C44000200631C45BB
:1029C300000100651C46000200661C47000800DA8F
:1029D3001948000100681C4B000100691C04000138
:1029E30000751CA1000100791C37000100781C88C8
:1029F300000100771C3C000100D7193D0001005D78
:102A03001C490002006A1C67000100E4194D000222
:102A1300006C1C4E0001006E1C4F0002006F1C3E38
:102A2300000100611C51000100D819520001005F30
:102A33001C53000100601C54000100D91900000060
:102A4300000000000136360101000102010001030C
:102A53000100010401060605020000070100340815
:102A630001000F090401010D0100FF0E080000170A
:102A7300020000190100FF1A0100011B0100FE1CE6
:102A83000100081D0200001F0100012001000121B7
:102A93000200002301000F24020000260100012789
:102AA300010008280200FF2A0100072B0102402C25
:102AB3000100002D0100012E0100012F0100FF3054
:102AC300010B1D310800003A0100083B01000F3CD7
:102AD3000100013D0100FF3E0400004204000046E6
:102AE3000400004A0400004E040000520400005693
:102AF3000400005A0400000000000020017185005A
:102B0300000100200172850000020020016D850094
:102B130000030020016E85000004004201F18300E0
:102B230000050042010B83000006004201E483001C
:102B330000070030016F850000004042012B840034
:102B430000FDFF210169852A0400003905A1182A27
:102B530004C8003905A9182A04C9003905A5182A8B
:102B63000401022123141C2A0421022123081C2A04
:102B730004220221230A1C2A04200210230C1C2AEB
:102B830004250210230D1C0C0055003905AF180C49
:102B93000065003905B31801037103010301030143
:102BA30003010301032203020301031003000300D3
:102BB3000300030003000300030003420300032494
:102BC3000306030003000304031203250323032561
:102BD300032303040304030003000300034403006B
:102BE300030003230300036503210035038103006E
:102BF300030503000300030003000325032303036A
:102C03000071003001600011007000310220035098
:102C13000480001000610000001400630073007260
:102C230000620043000000130006000000000004DF
:102C33000012000000000000000000040004003740
:102C43000037003C02440000000000000000006563
:102C53000000003500810000000500000083000033
:102C630000010171010101010111010101310101A2
:102C73000101018001100161013B00140063017334
:102C8300017201620143010001130106013D013597
:102C9300000401120100010001000100010401040C
:102CA30001330133013C01440132013600000100CC
:102CB30001650100013500810100010501820183E5
:102CC300010001030271023001600211027002016E
:102CD30002020202028002100261023A0041006312
:102CE30002730272026202430200021302380000FE
:102CF30002000204021202000200020002000204A7
:102D0300020402370037003C02440200023900008B
:102D130002000265020002350281020002050282FE
:102D2300028302000236000100060000000F0000CB
:102D3300000000000000000000000003FFFF00008F
:102D43000403FFFF0000FFFF0FF4010005C40403A9
:102D530020000100000B0000000000000000030140
:102D63000F00000000000000000000000000000051
:102D73000000000000000000000000000000000050
:102D8300000000641A8E1A6A1A9E19701A941A7037
:102D93001AA01A761A9E19701A941A7C1A9E190090
:102DA300000000821A9E1900000000000000008845
:102DB3001A9E19000000000000000000000000003F
:102DC3000000000000000000000000000000000000
:102DD30000000000000000000000000000000000F0
:102DE30000DA1C0100DA1C0200501C02804A1C039A
:102DF30000561C04005C1C0480621C0500681C0651
:102E030000EC283100861C33008C1C3400921CFF1C
:102E1300FF0000030003000400080010001F003E31
:102E2300007B00F600EC01D703AF075D0FB91E71FD
:102E33003D000007ECFDFDFDECDCDCCCBCACAC9C48
:102E43009C8C7C7C6C6C5C5C5C4C4C3C3C2C2C1CEF
:102E53001C0AC822029222059E220798220C7A227B
:102E63000D8622FF000000160F00000B150B020059
:102E730002220F3300000E0F5A6967426565416CE9
:102E83006C69616E63653039D0D1D2D3D4D5D6D7CE
:102E9300D8D9DADBDCDDDEDF150AF4D4C0A59582F0
:102EA30072636155504900034D4C4651181A25056C
:102EB30002000119161816161823030030301618CD
:102EC3001920231A1C1E30303017181921301B1DEE
:102ED3001F30003C40423A3F3F392F47300C0E022F
:102EE3000B040B0A0708000F020402010101010988
:102EF3000200BE040AE8030000E8030100F6FB9B9E
:102F03002E0300362E0E0010030A0C0404080403DB
:102F130028020C051E0815FF00FF0414091EC082B9
:102F2300C083121254901A0D746AF0A37420F090A7
:102F33001A0F7470F0A37420F0901A117476F0A332
:102F43007420F0901A13747CF0A37420F0025C5C7C
:102F530074F712094C901A01E4F0E9901A00F07C1E
:102F6300DA7D197A027B1A1218D2901C68E0901A43
:102F73000AF0901A0B74C4F0A37419023EE974F0BA
:102F830012094CEAFEEBFF548070030230F2901AF0
:102F930000123F7E70030230EBEA241B1257E970E4
:102FA3007CEA241F1257E964137002A3E0706E8A4F
:102FB300828B83123140901A1B124D7B750A007568
:102FC3000B00800D123DBF126E5B1217EEAA0EAB03
:102FD3000FEA4B60488A828B83E0650C7004A3E0A0
:102FE300650D702C8A828B83A3A3A3A3E0F50EA3A4
:102FF300E0F50FE50A450B8A828B83A3A3A3A360A5
:10300300C31240C1850A82850B83A3A3A3A380B700
:103013008A0A8B0B8A828B83124D7780B4E508244E
:103023002A1257E9FCE5082402F8E43509F9E8FA1D
:10303300E9FB901A1B123227A3A3E06402703C8AB7
:10304300828B83124D7B800B88828983A3A3A3A3E6
:103053001240C1E849601F88828983E06A7003A334
:10306300E06B70E488828983A3A3E06C70DA901C20
:103073006E125B19806BECF91220A6850882850914
:1030830083E06401704FE5082418123129120E41C0
:10309300126403120C7BE5082412123129120E412B
:1030A300E508123F72120E3DE508240B1264071265
:1030B3000C7FE5082417123F0FE5082402FCE435D2
:1030C30009FDE5082419FAE43509FB1228C8740A36
:1030D300120E50800CE064027007AA08AB0912219B
:1030E30084AA08AB09121758EEFAEF6480802DEA20
:1030F3005402600C901C817401F0EA6402FA80238C
:10310300EA5408601A1220A0EA4B700B901A1D12A1
:1031130062DE7A08123136EE6408FAEFFB80047A35
:10312300007B00026A8DF582E43509F583E0F50A38
:10313300780A22FB901A00E0F91218A822A3A3E050
:10314300F50CA3E0F50D227B00901A00E0F91218AC
:103153009C74042274F412094C8A088B098A828BAA
:1031630083A3A3A3124B73123F1A38F583E02409F8
:10317300FA126A25700302321A8A828B837402124E
:103183004BE8850882850983123227E8F0A3E91208
:10319300669F8A828B83A3A3A3A3A3A3A3A3F0E520
:1031A300082403F8E4350912321C123F1A3AF58356
:1031B300E08E828B83A3A3A3A3F0EE2409FAE43F5A
:1031C300FB8E828F83A3A3125DCBF5838882E0A25B
:1031D300E58E828F83A3A3A3A3A35004740180016C
:1031E300E4F0E5082403F5828983124D7BEA125249
:1031F300FC3BF5831269EC120E39123F193B125E48
:10320300BD8E828F83A3A3127B9B120E50EEFAEF27
:10321300FB901A00126A728016F98882F583E0FA2D
:10322300A3E0CA22124F18A3A3227402120E507FE6
:1032330004020BF674F212094C8A088B09ECFAEDBE
:10324300FB740E1211A5E0FC12128A8A0C8B0DAED0
:103253000CAF0DEA4F6030AC08AD09121278E9608B
:1032630026AC08AD09EEFAEFFB12127EE970148E5C
:10327300828F831240AEFAEFFB121272AA08AB09D7
:103283001212A27900800279B4024E6774F0120917
:103293004C74F6120F33EAFEEBFF8C088D09750FA1
:1032A300B3852182852283E4F0750E008002050E2A
:1032B300902F11E493F8E50EC39840030233B6AAA6
:1032C3000E7B001212C68A0A8B0BEA4B60E08A82DD
:1032D3008B83A3A31233BD28F0F8C3EE98EF9400B9
:1032E30050CC7C157D007900AA08AB0912174085E4
:1032F3000A82850B83A3A3A3A3126E98E0F8EEC3FF
:10330300982925E0F8E433F9E50A28F582E50B3935
:10331300F583A3A3A3A3A3A3123F24A31259408A13
:103323000C8B0DAC0CAD0DAA08AB091218D2850A93
:1033330082850B83A3E06401700A12640374011293
:103343003F3680447401120EFD850A82850B831279
:103353004D791212AEE9603D74091211A5E0C0E087
:10336300126403D0E0F074091211A5E06403701332
:103373007401120EFDE508240BFAE43509FB12185B
:10338300D2801274011211A51240C1E50812592608
:103393003509126E59850A82850B8312640F123F19
:1033A30036A3A3E0C0E0E5082414126407D0E0F0DC
:1033B300750F00A90F740A026A8AA3A3A3E0F88514
:1033C3002182852283E02274F712094CE9FE8A8266
:1033D3008B83A3A3A3A3A3A3E0540860338A828BA4
:1033E30083A3A3A3A3A3A3E0540260218A828B83B4
:1033F300A3A3A3A3A3A3A3A3A3E06406600F74E9F9
:103403006E600A74CD6E600574F06E7003122088CE
:1034130002476674F012094C74EF120F33740F12E3
:1034230011A51261C274081211A5E9F0ECFEEDFFBB
:1034330074051211A512452E124752A3E0F9121278
:103443009674061211A51261C274061211A51253C5
:103453008D70030236D1123F5EE0FA74061211A595
:10346300E0F9121FC8123731F8A3E0F9E8497003F5
:103473000236D1EE2403F50AE43FF50BEE2406F5FC
:1034830008E43FF5097C00850882F583124D7B85AE
:103493000A82850B83E0F912129C74031211A512A0
:1034A30061C2850A82850B83E0C0E0852182852283
:1034B3008312372AD0E01254A2F985218285228310
:1034C300123DC6124FF41233C0FAA3E0CA2407F523
:1034D30082E43AF583E8F0A3E41261CD2406F58291
:1034E300E438F583E4126E65124B67120E39EE125F
:1034F3003F1A3F125EBD74031211A5124B732409C8
:10350300127B95120E5074291211A5126E9212326B
:10351300211254B53A126E59742B1211A5E0C0E072
:10352300852182852283125354D0E0F07402121154
:10353300A5E4F074251211A5780812111A02362891
:1035430074031211A5125E858882F583123719A3BD
:10355300A3A312594BFB1212B4850E82850F83A3CA
:10356300EAF0A3EBF074031211A512372AA3123762
:1035730019125B5AA2E6500F850E82850F83A3A30F
:10358300A3A3A3E0D2E1F074051211A5E0706B854B
:103593000E82850F83A31240C1901A5BE06870030B
:1035A300A3E0697055850E82850F83A3A3A3123E02
:1035B300F9750C00780C120E417808120E35742937
:1035C3001211A5E0F50C780C120E4174271211A507
:1035D300120C7F901A68120C7F790074191211A5CE
:1035E300124D4B1221CC740A120E50850E82850F98
:1035F30083A3A3A3A3A3E04405F074021211A5E0DF
:1036030004FC8E828F83124D758E828F83A3A3A3B6
:10361300E0F912129C74031211A51261C274021212
:1036230011A5E004F074031211A512538D606774A1
:10363300021211A5E0FA74061211A51240C1C3EAE1
:1036430098E499505174021211A5123A038521820C
:10365300852283E028F8A3E039F9E8240FF50EE486
:1036630039F50F850E82F583E4F074031211A51268
:1036730037246401600302354374051211A57401F4
:10368300126A78F074031211A5125C4C123A26E800
:10369300F0A3E9023567852182852283124D7B12CF
:1036A3001FCE852182852283120C7F74261211A5D9
:1036B300E0FD74251211A5E0FC740A1211A5E0F9CE
:1036C300EEFAEFFB1220827402120E5080438E82B8
:1036D3008F83A3A3A3E0C0E0740C1211A5D0E0F084
:1036E3001268E1E0C0E0740D1211A5D0E0F0740699
:1036F3001211A512538D7009740E1211A574B9809D
:1037030007740E1211A57410F07409120EF512212C
:10371300C67411026A8AE0850E82850F83A3A3A370
:1037230022E012547AE022E012547AA3A3228521E4
:1037330082852283EAF0A3EB1253962274F01209D6
:103743004C74E1120F3374041211A5E9F0740312DF
:1037530011A5ECF074021211A5EDF08A0E8B0F7413
:103763002F1211A5123142AA0CFB121FBC740112B5
:1037730011A5E9F0AA0CAB0D121FC274011211A519
:10378300E070030239FE852182852283E480158E51
:10379300828F83A3A3A3A3A3E0D2E3F08521828531
:1037A3002283E0041269D0F8852182852283E0C355
:1037B3009840030239F574011211A5E07003023930
:1037C300F5852182852283123A03E50C28F8E50D5D
:1037D30039F9E8240FFEE439FF8E82F583A3A3A30E
:1037E300A3A3E0A2E040B5750800750A08750B00B5
:1037F30074021211A5E060037508207C087D00792E
:10380300007405120EF51217408E828F83E0603E1E
:10381300901AABE06401701AE508D2E3F508750B62
:1038230010123A131211A5E8F0A3E912583E74FFDF
:10383300807643080C750A0C8E828F83A3123A1E7E
:10384300126E5B74051211A574FFF0A3805A740401
:103853001211A5E06009E508D2E6F508750A0A8E9B
:10386300828F83A3E064FE7003A3E0F470307412CC
:103873001211A5740412642DF8741D1211A5E81217
:103883004BE87412120EF5121EEA7D007C007900DB
:1038930074151211A5AA82AB83121CC2800B123AB3
:1038A300131211A5E8F0A3E9F074071211A5E508B6
:1038B300F0123F55C0E074091211A5D0E0F0740A6C
:1038C3001211A57401F07405120EF512218A7411F8
:1038D3001211A5E060030239D3740D1211A512541D
:1038E3009D8E828F83A3A3A3A3F0740D1211A5123F
:1038F3004BB6E50AF0A3E50BF074031211A5E0C083
:10390300E0124B47D0E0125B5A6011901AABE0C053
:10391300E0740D1211A5124B91D0E0F0740D121149
:10392300A51240C1850C82850D83A3A3A3A3A31273
:103933003A0C241C1261BC126E75123A0E125B0C07
:1039430039126900C0E0124B2ED0E01269C5C0E005
:10395300740D1211A5124674D0E01266C6C0E0744D
:103963000D1211A512466AD0E0F0740D1211A512C2
:103973003A1E123A0C242A1261BC850E82850F83EB
:10398300A3A3A3A3A3A3A3A3E01261B5123F44C0BF
:10399300E0124656D0E0F0740D1211A5124D7B854E
:1039A3000E82850F831269DB2428F582E43B126EB5
:1039B30059123F4D1269EC120E39125EB6EA1261CA
:1039C3004E3B127B99120E507405120EF512219084
:1039D3008E828F83A3A3A3A3A3E0D2E0F07411127A
:1039E30011A5E0600302379274011211A5E01402DD
:1039F300379E7900AA0CAB0D12208E741F026A8ABF
:103A0300E075F007A4F8A9F022A3A3124D7FE822E2
:103A13008E828F83A31240C5740522E0123A26A337
:103A2300A3A322F8A3E0F9850E82850F83A3227452
:103A3300F012094C74E8120F33E985218285228341
:103A4300F08A0E8B0F8A828B83A3A3A3A3A3A3A3C2
:103A5300A3E0F9121FE68A088B09EA4B7003023BC5
:103A63000FE50E125310123F6D123F04852182851C
:103A73002283E06003023B127C04850E82850F8360
:103A8300A3A3A3A3A3A3A3A3E0F9121FECEE4F6088
:103A93007B8E828F83A3A3A3A31240C17407121149
:103AA300A51262F31240C174091211A5124C18C079
:103AB300E074111211A5D0E01266A4A3A3A3A3A3DB
:103AC300A3A31240C1740F1211A5126E5B741212DC
:103AD30011A5E4126A80C8241FF582E438F5831225
:103AE3005E81C413135403FC70027C048E828F83A3
:103AF300E0F97808120E3D742059FD744059F974A9
:103B030003120EF51220827402120E50026A887C90
:103B130008850E82850F83A3A3A3A3A3A3A3A3E076
:103B2300F9121FEC8B0BEA4B7003023A90EE4F60D5
:103B3300DB852182852283E0F50C780C120E41850A
:103B43000882850983A3A3A3A3A3A3A3E0F50C7809
:103B53000C120E418A828B83A3A3A3E0FB8A828586
:103B63000B831276B88A82850B83E0FA8E828F8369
:103B7300A3A3E0F91228CE7402120E50023A9474F1
:103B8300F712094C74FA120F33E9FE780179017FB9
:103B930000800379000F124EF7E0FCEFC39C502620
:103BA300EF75F007A4FC85F008AD08EA2CFCEB3DAB
:103BB300FD1244E6E0A2E050DA540C60D6E0A2E243
:103BC30050D3780080CF8A828B83A3A3A3A3A3A31C
:103BD300E0703DE9A2E0400574016E70338A828B88
:103BE30083A3A3A3A3A3A37401123ED6E0C0E074EE
:103BF300031211A5D0E0124545E0C0E07404121190
:103C0300A5D0E0F074051211A5E8125E201221C6BA
:103C13007406024763C082C083790112208E025C5E
:103C23005C74F412094CEA4B901C816019E4F08A2D
:103C3300088B09F50AF50B7808120E357A02123152
:103C43004A120E50800A7401F07A027B0012313757
:103C530002323274F012094C74F3120F33740312EC
:103C630011A5E4F0A3F0901A1B123F047401121182
:103C7300A5E4F0A3124BED04F0901A55E0A2E35033
:103C830003023D49123ECA74091211A5121176743A
:103C9300091211A5780812111A901A1D7808120F2B
:103CA3000574051211A578081210FC123DCD740598
:103CB3001211A578081210CD50077A017B00023D3E
:103CC300BA74051211A5780C12111A901C6DE0F547
:103CD30009780C79081208DDA80CA90D901C6EE078
:103CE300C398E4995003E08001E88521828522830B
:103CF300F074091211A5780812111AC008C009C07E
:103D03000AC00B74051211A5780C12111A123DCDBD
:103D1300780C79081208DDE4F50AF50BD00FD00E04
:103D2300D00DD00C780C7908121001901A1D780C64
:103D33001210FC8011123DBF126E5BEEFAEFFB1204
:103D430017EEAE08AF09EE4F60658E828F83123394
:103D5300BDC398502DEE2403F8E43FF9E0FA8882BE
:103D63008983E0C39AF0602374031211A5124227DA
:103D730074011211A5EEF0A3EF12630EFEA3E0FF90
:103D830080C48E828F83A3A3A3E4F08E828F8312D9
:103D93007B5274011211A512538D8E828F83A3A3BC
:103DA300A3A360911262E71211A5123DC680897424
:103DB300031211A5124D7B740D026A8A1240C5903D
:103DC3001A1B22125EACA3A3A322901C6C127B5A73
:103DD300E4F50AF50B2274F012094C8A088B098961
:103DE3000A78007900901A1B123F04FBEE4B601E09
:103DF300088E828F83A3A3A3A3124D45601008E806
:103E03007001098E828F83123F00EA4F70E3901C8A
:103E13006F124D7BC3E89AE99B4003023EBD7A06CD
:103E2300123EC0A80CA90DEA497003023EBD8A8266
:103E33008B83E508F0A3E509123EDFE50AF0901C49
:103E43006E124EFF123ED6A3E4F0A3F0901A1B129B
:103E53004D45600D8E828F83A3A3A3A3126E5B8057
:103E630017901A1B126E5B901A55E0A2E3400912D9
:103E73003ECA901A1D121176901A55E0A2E3503AE9
:103E83007A087B00901A00E0F91218AEEA4B4C4D09
:103E93007028901C6CE0F508A3E085080CF50DE490
:103EA300F50EF50F780C120E357A087B00901A0088
:103EB300E0F91218A27404120E50026A8D7B0012EC
:103EC30017E88A0C8B0D221218BAEAF8EBF9ECFA10
:103ED300EDFB22123EDA22123EDFA322F08A828B0E
:103EE30083A3A322E508F0024766F08E828F83A3A3
:103EF300A3A3A3A3A3221257F7A3A3F022A3A3A3CD
:103F0300A3E0FEA3E0FF227F05020BF6F582E43572
:103F130009F583E0F922EA123F1E222410F582E418
:103F230022123F2CA3A3A3A3221240C98508828592
:103F3300098322123F3A22F0850A82850B83A3A3C9
:103F430022E50E2411123F6AE022E50E240E123FF1
:103F53006A22E50E2410123F6AE022123F6222EE2B
:103F6300123F1E3FF58322F582E4350FF5832224A9
:103F73000FF50AE43509F50B780A22E0F912176AFE
:103F83008A088B09EA4B2274F212094C890B8A08BE
:103F93008B098A828B83124D7B1220B2EA4B600419
:103FA30079B8806A1220BEE9F8902F0AE493F9E801
:103FB300C399400479B280567A15123EC0AE0CAF55
:103FC3000DEA4F7004791080458A828B83E4F0A355
:103FD300123EDFE50BF0750A007808120E397C12E9
:103FE3007D00EA2403126997120E50901A2112538E
:103FF3008D7008901A21800C1240C1888289831227
:10400300401470F4EEF0A3EFF01220D07900024ECA
:1040130067124D7FEA4B8882898322C082C08390D6
:104023001A2180048C828D831276B9EC4D60288C22
:10403300828D83A3A3E069600574FF6970E68C82B7
:104043008D83A3A3A3E06A7003A3E06B70D6EC2473
:1040530003FAE43DFB80047A007B00025C5C74F7A6
:1040630012094CE9FD74FE6D70047C0180027C0032
:10407300901A2180096D70027C0188828983125312
:104083008D601F88828983A3A3A3E06A7003A3E0E2
:104093006B70E7ECA2E088828983A3A3E050D6F992
:1040A300800279FE024766EEF9800CA3A3127B5AC5
:1040B300EE227402120E507F02020BF6F5831240B9
:1040C300C5221240C922E0F8A3E0F9221240C98EAA
:1040D300828F8322120E507F03020BF6C082C083AD
:1040E3007900901A21800109E0FAA3E08A82F5831E
:1040F300E582458370F1025C5C74F612094CE4F5C9
:1041030008F5097808120E3D902F0AE49375F01311
:10411300A4A9F012421C126EB9120E50E9FE7409E2
:104123006E70031220CA0240AA74F612094C74FE80
:10413300120F33852182852283E4F0A3F0A821A9FD
:1041430022880889097808120E3D7508027509004E
:104153007808120E3D126B2A120E500240B574F508
:1041630012094C74EB120F33852182852283E4F00C
:10417300A3F0901A2180748E828F83A3A3E0C0E002
:1041830074021211A5D0E012583EA982AA838908AD
:104193008A09750A007808120E397C127D007406AC
:1041A3001211A5126E7E120E507402120EED8808C3
:1041B30089097808120E3D750813750900780812ED
:1041C3000E3D74041211A512533075F013A4F8AA0E
:1041D300F075F013E9124218126B32120E5085215A
:1041E300828522831242278E828F83123F04EE4FF1
:1041F3007085A821A922880889097808120E3D75BF
:1042030008027509007808120E3D126B2A120E502F
:1042130074150240D7A42AF9E82402FCE439FD7A94
:10422300427B0022E02401F0A3E03400F02274F486
:1042330012094C74EB120F337E007F00A821A922D0
:10424300880889097808120E3D7508028E097808D6
:10425300120E3D7C007D007A42126EC5120E50E9AB
:10426300706C8E0880567402120EED880A890B78E2
:104273000A120E3D750A13750B00780A120E3DE5FE
:104283000875F013A4F8AAF075F013E509124218A3
:10429300126EC7120E50E9701B74031211A5AA8285
:1042A300AB8374021211A5E0F91220ACE970050E7C
:1042B300EE70010F0508E508700205098521828566
:1042C30022831240C1C3E50898E509994098EEFAA4
:1042D300EFFB741502322F74F612094C8C828D8316
:1042E300A3A3124533F0EA1261543BF583E0C0E027
:1042F3001244F0D0E0F0EA241DF582E43B1240BF03
:104303001244D412452EF0A3F0EA241FF582E43BB5
:10431300F583123F04EC1244C73DF583EEF0A3EF9F
:10432300F01244CD3BF5831244FEA3A3A3A3A3A39E
:10433300EEF0A3EF125DAFFE8C828D8312453D74C8
:10434300035EFEC3940340030244BAEE60087402A2
:104353006E60030243DF8C828D83E0540CFE740C89
:104363006E700302441EE0A2E4400D88828983E05C
:104373008C828D83A312455374086E600302441E1E
:104383001244DE7401F08A828B83A3A3A3A3A31236
:10439300580470148C828D83E0440C124545A3A30A
:1043A3001244FEEEF0A3EFF08C828D83E0A2E44092
:1043B3002B888212450C124521500109F5821245C2
:1043C3000CA3A3A3A3A3A3F0A3EF12454D8C828D4B
:1043D30083A3A3A3F0E82403F85001098882898307
:1043E300E0C0E0EC2411F582E43DF583D0E0124512
:1043F3003D8C828D83E0A2E7507588828983E0FE3D
:104403008C828D8312455374FC5E700C8C828D8379
:10441300A3E054036403701E0244BA1244DEE4F0C2
:10442300740C6E600302438988821245121245217F
:104433005001090243AB8C828D83A3E054036032A5
:1044430088828983E0C0E0EC1244F83DF583D0E034
:104453001245548C828D83E0540364027014888265
:104463008983E0C0E01244E6D0E01245548003A300
:10447300E4F0EC1252FC3D126E59EC2410FEE43DC4
:10448300FFEA241DF582E43BF583E0F5088E828F75
:1044930083E0C3982508F508F0EA2417F8E43BF90C
:1044A3008882F583E0C39508C0E01244D4D0E012BB
:1044B3005DAFC39508500A1244D4E4F01244F0E40B
:1044C300F00240BA2415F582E422EA240DF582E4D1
:1044D30022EC240DF582E43DF58322EC1254B53D24
:1044E300F58322EC2414F582E43DF58322EC123F9C
:1044F3001E3DF583222413F582E422E0FEA3E0FFB0
:104503008C828D83A3A3A3A322124512A3A3228982
:1045130083E0F508A3E0FFE5088C828D8322A3A343
:10452300A3A3F0A3EFF0E82402F822124533A32259
:10453300E4F08C828D83A3A3A32212455BA882A9F6
:104543008322123EDAA3A3A3A32212455BA3E02294
:10455300A312455B08A98322125DB8A32274F41247
:10456300094C74F3120F338A0A8B0BECFEEDFF8CAC
:1045730082F583E0540CF508E0A2E75006E508D283
:10458300E7F508E508D2E1F5081258047006E508D6
:10459300D2E4F508E0A2E55006E508D2E5F5087C8B
:1045A300087D007900AA21AB221217407402121170
:1045B300A5E508126E5FC0E074031211A5D0E012E6
:1045C3004BEDE50AF0A3E50BF074051211A5126695
:1045D300CB1211A5E0707774081211A5124B731258
:1045E3005DA1381266E6C0E074081211A512467484
:1045F300D0E01266C6C0E074081211A512466AD054
:10460300E0F074081211A5124660E0124B9B124CA5
:104613001C1261B5EE24111257D0C0E0124656D0D9
:10462300E0F0EE24141257D0C0E074081211A51262
:104633004B732435F582E438F583D0E0124BC0C0C8
:10464300E074081211A5124B77D0E012641F740DA9
:1046530002322FE82432F582E439F583221240CF67
:10466300A3A3A3A3A3A322124B871268C538F58380
:1046730022124B872426F582E438F5832274F7123D
:10468300094C7E008A828B83A3A3A3A3A3A3A3A322
:10469300A3E0640460030247421254ADE0600302E6
:1046A300474212530F3B12538B70030247428882D7
:1046B3008983E054036003024742E81254B539F595
:1046C30083E0FA8C828D83A3A3E0FBA3E0CB2411C8
:1046D300F582E43BF583E06A706588828983A3A34E
:1046E300A3A3A3A3A3A3A3124746E06A7003A3E073
:1046F3006B704C88828983A3A3124752E0FFA3E027
:10470300CF24061257D06A7003A3E06B70318882FE
:104713008983A3A3E0F88C828D83A3A3E0F9A3E0AC
:10472300F5838982A3A3E06860138C828D83A3A39E
:10473300A3E0F5838982E0540C640470027E01EEE9
:10474300F9802012474A22124D838C828D8322A343
:10475300A312474AA3A322740C1211A5E0F9740D06
:10476300120E507F01020BF674F612094C74FC1200
:104773000F33EAFEEBFFECFAEDFB8C82F583A3E04B
:1047830054036016901A1712538D60597900EEFC8A
:10479300EFFD125FAC1228FA804B852182852283BC
:1047A300EEF0A3EFF074021211A5124BE2AC21ADAF
:1047B300227AE87B201223108A088B09A808A9090A
:1047C300EA4960218A828B83A3A3A3A3A3A3A3A300
:1047D300A37406F07A0088828B83124B731261757F
:1047E300E0F912226E74040240B774F212094C7499
:1047F300F3120F33EAFEEBFF8A82F583A3A3A3A38D
:10480300A3A3A3A3A3A3E0F50A901C81E0700579F9
:10481300BA024B2B750801750900750C00750D0064
:104823007C087D007900AA21AB221217407405127F
:1048330011A57401124BF55404601274021211A5F0
:10484300E0D2E6124BF554087003750803E05410E8
:10485300600674404508F508E054086022740212AB
:1048630011A5E044C0124BF55420600A74031211E1
:10487300A5E0D2E0800874031211A5E0D2E1F0EEC6
:1048830024151257D0124B5B7003740169700674C0
:10489300084508F5088E828F83A3A3A3A3A3A3A32C
:1048A300A3E0701612236A8521828522831261C2D6
:1048B30074021211A5E0D2E28030640F701074020A
:1048C3001211A5124BFD74044508F508807F8E82F2
:1048D3008F83A3A3A3A3A3A3A3A3E064028E828FC6
:1048E30083700A126E92E8F0A3E9F08060A3A3A399
:1048F300A3A3A3A3A3E06403700DAC21AD22EEFA3E
:10490300EFFB12211E80468E828F83A3A3A3A3A352
:10491300A3A3A3E064017035901AABE060107402A6
:104923001211A5124BFD750910750AFF8018740248
:104933001211A5E0440C124BED74FDF0A374FFF0CB
:1049430074044508F5088E828F83123142EE2415D4
:104953001257D0A2E0503F74021211A5E0540C701C
:104963001B8E828F83124D7B121D8EE9700579BBDE
:10497300024B2B74021211A5E0D2E5F0EE241512BE
:1049830057D0A2E0501074021211A5E0540C640435
:104993007004E0D2E5F0EE24111257D0C0E07404A5
:1049A3001211A5D0E01266CD1211A5E06003024BEF
:1049B3002474081211A5124BB6E508F0A3E509F01B
:1049C300124B51E0C0E0124B47D0E0F0124B38E0FD
:1049D300C0E074081211A5124B731244F838F58322
:1049E300D0E0124C1C64017011901AABE0C0E0746B
:1049F300081211A5124B91D0E0F074081211A51200
:104A03004BB1124B42FAE8241CF582E439F583EAF0
:104A1300124BE8EE2415FAE43FFB8A82F583127603
:104A2300B9E8125B0C39F583124BE2EE241C1257E2
:104A3300D0C0E0124B2ED0E0125C52124B5B7003DD
:104A4300740169701374081211A512549DFAEE24AF
:104A53001D1257D0F9121FF28E828F83A3A3A3A333
:104A6300A3A3A3A3A3E0C0E074081211A512467484
:104A7300D0E0F074081211A512466AE50AF0740832
:104A83001211A51253302428F582E439F583E50C7D
:104A9300F0A3E50D124BC8124B9B1258491261B596
:104AA300EE124B42C0E0E82433F582E439F583D0BB
:104AB300E0F0EE241B1257D0C0E074081211A512C7
:104AC3004B77D0E0F0EE241A1257D0C0E0740812EE
:104AD30011A5124B732432F582E438F583D0E0122A
:104AE3004BC0124B67120E391268CB1276B9740B96
:104AF3001211A5124B73242F127B95120E50EE2424
:104B0300151257D054406012901A3712538D600A11
:104B1300AA21AB22125FAC1228FAAA21AB221221DE
:104B230090740C1211A5E0F9024E62E82420F5827C
:104B3300E439F58322EE2419F582E43FF58322124A
:104B430068DAE022E82412F582E439F58322EE24C0
:104B530018F582E43FF583225480F8A3E05401F969
:104B630074806822F508A3E0F509750A0078082225
:104B7300124B8722124B872434F582E438F58322C3
:104B8300A3A3A3A3124B8B22E0F8A3E0C822124BEA
:104B9300871244C738F58322FAA3E0FBE8242AF5F9
:104BA30082E439F583EAF0A3EB22A3A3A3A3124083
:104BB300C5EE2212533412531439F58322F0EE2436
:104BC3001312585122F0EE240D12585122E0FC8AA0
:104BD300828B83E02CFCA3E03400FD8A828B83EC80
:104BE300F0A3EDF022F0A3E4F022F08521828522E8
:104BF3008322F0EE241512585122E0D2E3F0124C36
:104C030005228E828F831240C9852182852283E803
:104C1300F0A3E9F022E8F0A3E9126308E02274F7B5
:104C230012094C8A828B83A3E0640170047E638043
:104C3300027E648A828B83E060087905124C5524D6
:104C4300F3FE901A53E06007F9124C5524F2FE026A
:104C53004742122238E9F8EEC3982274F612094C3F
:104C630074FE120F338521828522831261C2E9FE0D
:104C7300ECFAEDFB9005C212538D6032A821A922F4
:104C8300880889097808120E3D7D01740E1211A55A
:104C9300E0FCEEF99005C21261961228FA74021232
:104CA3000E50EA4B60047900800679B2800279B62F
:104CB3000240B574F712094CE9FE901A0D12538D98
:104CC300601F74091211A5E0F5087808120E41EE71
:104CD300F9901A0D1261961228FA7401120E50807F
:104CE3000279B602476674F712094C8908ECFEEDA7
:104CF300FF79B5E508245E602014600624F860346B
:104D0300803D9005C4124D456035126ED61228FAC7
:104D13008E828F831261C28024901A0F1276B9ECAF
:104D23004D601CEEFCEFFD901A0F1261961228FAEB
:104D3300E9F9800B901A0B124D4B1218D27900022D
:104D43004766124D7FEA4B221276BDEEFAEFFB2245
:104D530074F712094CE9FE79B574AB6E700B901AB7
:104D63000B124D7B1218D279000247668E828F8315
:104D7300A3A3A3A3A3A3A3A3124D7F22124D832214
:104D8300E0FAA3E0FB2274F112094CEAFEEBFF8C7C
:104D93000A8D0B750801901A5BE06E7003A3E06F38
:104DA300700C124E56AA0AAB0B1218D2805E122355
:104DB30070EE6A7002EF6B7009AA0AAB0B122376CE
:104DC300804AAC0AAD0BEEFAEFFB121EC6E9F508FA
:104DD300901C74E070361227F6E97030E508702CE9
:104DE300901A2BE06E7003A3E06F7020EE4F601CEF
:104DF300750C23750D1A750E00780C120E397C088C
:104E03007D00AA0AAB0B126E82120E50A90802771C
:104E1300B574F212094CEAFEEBFF8C088D09750A92
:104E230001124E56EEFAEFFB1218CCE96401701131
:104E3300901A5B1240C1850882850983126E5B80DC
:104E43000EAC08AD09EEFAEFFB121ECCE9F50AA988
:104E53000A80111223648A0C8B0DAC0CAD0D2274E5
:104E63000D120E507F06020BF674F612094CEAFE81
:104E7300EBFF7A0D7B001217E8EA4B6062EE242405
:104E8300126B5FF0EE2425126B5FA3124F24126B9B
:104E930065A3A31268F8124EFFF0EE124EE5124F0F
:104EA30014E8F0A3E9124F3B124F0C126E5BEE12A3
:104EB3004EEE1269BBA3A3A3A3F0EE24331257D083
:104EC300C0E0124EF7D0E01266EA124F0CA3A3A380
:104ED300E8F0A3E9124F33C0E01254ADD0E0F00282
:104EE30040BA242AF582E43FF58322242EF582E496
:104EF3003FF58322EA1259263BF58322124F032200
:104F0300E08A828B83A3A3A322126A1AA3A3A3A377
:104F130022124F18221240C98A828B83A3A3A3A310
:104F230022F0124F2922EE2426F582E43FF5832254
:104F3300F0EE243212585122F0EE242C1258512252
:104F430074F412094C74FE120F33ECFEEDFFEC24E3
:104F5300161257D064057010EC2406FCE43FFD12D2
:104F63002118E97003024FEFAC21AD22126C141229
:104F73001D9485218285228312538D606B8E828FCF
:104F830083E064017058E875F009A4F8AAF075F09D
:104F930009E9A42AF9748428F8740739F9E8FAE9C5
:104FA300FB8882F583780812111AEE1250911210C1
:104FB300CD4027852182852283124BB11257DE1201
:104FC3004FF4780812111A90846978081210288A0D
:104FD300828B8378081210FC800A79A28010EE2459
:104FE3000F126E557900800679A1800279C80232CA
:104FF3002D124C12EE1268E62274F212094C8A0C3E
:105003008B0DECFEEDFFEC1257DEE4F0A3F0908481
:1050130041780812111AEC125091120F886067EC54
:10502300240E1257D7703478B3901A52E070289038
:105033001A84E064017020EC24111257D0F9122273
:10504300208B09A909EE1253103F1261C0EA49608F
:10505300047800800278A18808802EE0600464024E
:10506300700A12212AE9F5087007801DE0640370B5
:1050730010EEFCEFFDAA0CAB0D121DB8E9F508808C
:10508300087508A180037508A3A908024E67126872
:10509300E678082274F012094C74F5120F33EAFE15
:1050A300EBFFEA240AFCE43F8C82F583127B561261
:1050B300531A7403120EFD8A828B83125FB6E97052
:1050C300030251807401120EFD7403120EF5121DBA
:1050D3009474011211A512538D7003025180E87567
:1050E300F009A4F8AAF075F009E9A42AF974802854
:1050F300FC740739FDE508240E126407E4F004127A
:1051030011A51240C1E5081253103509126E598CCE
:10511300828D8312116AE508241212640712117634
:10512300908469780812111A8C828D837808121082
:10513300158C828D83780C12111A90856178081270
:10514300111A780C79081208DDE5084509450A4566
:105153000B702A74011211A512533075F009A4F8CB
:10516300AAF075F009E9A42AF9748828F58274076E
:1051730039F5837401F07A007B0812533D8E828FD8
:1051830083A3A3A3A3A3A3A3A3A3A3E02406FCA392
:10519300E03400FD8E828F83125FB61266D8603EC4
:1051A300EE240A125302124BB67468124BE8E8124B
:1051B30052FC39F5837402F0901A3D12116A8C8205
:1051C3008D831261AF125DA13CF583121176908439
:1051D30069780812111A901A3D78081210151253A3
:1051E30078705D901A0B125328A3A3A3A3A3A3A3C0
:1051F300A3A3A3125DD71218CCE97010125D95908A
:105203001A0B125DA770051266D860348E828F83E5
:10521300A3A3A3A3A3A3A3A3A3A3125328124D7BC6
:10522300121DBEE960118E828F83A3A3A3A3A3A340
:10523300125364E4F0A3F08E828F8312534AE4F096
:1052430012537860030252F78E828F83A3A3A3A322
:10525300A3A3127B52901A52E060030252EC901AFD
:1052630084E0640160030252EC750A3A750B00781E
:105273000A120E3D7402120EED880A890B780A1287
:105283000E3D127151120E50E9705BE508240E12A7
:1052930064077401125392C0E0E5082411126407F5
:1052A300D0E0F0E508240F126407743A124BE8903B
:1052B3001A3912116AE50824121264071211769042
:1052C3008469780812111A901A3978081210159007
:1052D3008469780812111A901A397808120F8870A5
:1052E30008125339800312531A1253787006125C52
:1052F3009874A1F0740B026A8A240EF582E422F8F2
:10530300E43FF9E8FCE9FD8882F58322EA125314AD
:1053130022240FF582E422E5081253143509F5839C
:10532300E4F0A3F0221276BD8E828F8322125334CF
:10533300221240C9E8227A007B029018E3E0F912B6
:105343001794228A828B83A3A3A3A3A3A3A3A3A3B8
:10535300A312535822124B8B240EF582E438F583A3
:1053630022A3A3A3A312536C22124B8B240FF58207
:10537300E438F583228E828F83A3A3A3A3A3A3126E
:105383004B83240FF582E438F583125334492212F8
:10539300539622F0852182852283E02274F6120936
:1053A3004CEAFEEBFF7A237B001217E8EE240AF5A2
:1053B30008E43FF5098508821261C07C237D0079EA
:1053C3000012174085088285098312538D700302EA
:1053D3005460EEFAEFFB12213612537860748E821A
:1053E3008F8312549364018E828F83A3A3A3A3A3F9
:1053F300A37007125489740E802112538D701012FA
:1054030066D8700B8E828F83A3A3E0A2E0500712AD
:10541300547F740D800512547F74051266EA540399
:10542300640170071254677405800B901A53E0C02F
:10543300E0125467D0E01254A2F58388821257FD1C
:10544300850882850983124B7312615438F583E909
:10545300800E850882850983126239800312617C7C
:10546300F00240BA8E828F83A3A3A3A3A3A3A3A313
:10547300A3A312547922E012619BA3228E828F830D
:10548300A3A3A3A3A3A3124B8312615A38F58322C8
:10549300A3A3A3A3A3A3A3A3A3A3125358E02212DA
:1054A30054A622126C29F8A3E022EA1254B53BF564
:1054B3008322240CF582E42274F112094C74E41261
:1054C3000F338A0C8B0D8C088D097A237B001217FE
:1054D300E88A0A8B0BAE0AAF0BEA4F70030257B888
:1054E300126160E50824151257E9687003A3E069A7
:1054F3008E828F837004740280027401F0E50824A5
:105503000DF8E43509F98882F583E0FAC3E49AFAE1
:1055130095E0FB1257E52AFAA3E03BFB8E828F83CB
:10552300A3A3A3A3125DBE8E828F83A3A3F0EE2455
:1055330020F582E43FF583E4F0EE2421F582E43F95
:10554300F583E4F0EEFAEFFB1221EA850882850980
:105553008312580470098E828F83A374058006908A
:105563001A531257F2F0EE2417F50AE43FF50B8EA7
:10557300828F831257FDE9850A82850B83F0EE241F
:1055830016F8E43FF9E508240EFAE43509FB8882AE
:105593008983124BD0E5082410FAE43509FB850A08
:1055A30082850B83E0FC88828983E0F88A828B837F
:1055B300E0C398C39CF812583EF0EEFCEFFDAA0C32
:1055C300AB0D122130E9F50B8E828F83E0640270FC
:1055D30006125D951257C2E50B60030257AF750CB7
:1055E30000750D00901C74E064016005E0640270B6
:1055F3003F1257D46008EE24211257D770328E829F
:105603008F83A3A3A312618212580AEE24161257A2
:10561300D0125833FAE439FB123EC2EA4B6011123E
:1056230069E4120E39125818AA0C126E82120E5027
:10563300EEFAEFFB1221F6E9F50B901C74E064011E
:105643006008E0640260030257A2E970030257A2F4
:10565300E50C450D70030257AF8003850E0B1257FF
:10566300D4600BEE24211257D760030257A8850B91
:105673000E850C08850D09750A007808120E39127B
:1056830058188E828F83A3A3A3A3127B9B120E5061
:10569300EE24201257D0600D1257DD7468124BE8C8
:1056A300EE24208015EE24211257D060151257DD09
:1056B3007403F0A37401F0EE2421F582E43FF58333
:1056C300E4F0EEFAEFFB1221F6E9F50B70907C1390
:1056D3007D0079007409120EF5121740741A121125
:1056E300A5740112584964687002A3E0704F8E825A
:1056F3008F83125364E06405600302565E7C08796D
:10570300FF8E828F83A3A3A3A3E0242A125DDA1260
:1057130017CAE9700302565E7C087D0079FF7401A5
:10572300120EF51217407401120EFD7A007B0079F8
:10573300AB12211274191211A574FC80151257DDD6
:10574300E064037004A3E06401700874191211A5E6
:1057530074FFF0E4F508F5097808120E3D7402129F
:105763000EFD74131211A5AA82AB831262BF120E2F
:1057730050852182852283E0602B7409120EED8807
:105783000889097808120E3D750813750900780811
:10579300120E3D7C007D00126B32120E508006E526
:1057A3000C450D6007AA0CAB0D1217EEEEFAEFFBDA
:1057B3001217EE8003750B10A90B741C0277B2EE5F
:1057C3002406FAE43FFB1218D222EE240C1258519D
:1057D30022EE2420125851640122EE1253143FF595
:1057E3008322E508240EF582E43509F583E02212CD
:1057F30057F7A322E08E828F8322A3E0F912223887
:1058030022E0540364012212580E22E0FAE82AF837
:10581300E43400F9228E828F83A3A3A3126186123C
:10582300580EEE2416125851125833FCE439FD2257
:10583300FAE82AF8E439F9E8240422125842221239
:1058430066F9A3A3A322F012584E22EE240FF58289
:10585300E43FF583E0227901020E1D74F412094C32
:10586300EAFEEBFF8A82F583A3A3A3A3A3A3A3A3C7
:10587300124B732424F582E438F583125804702EF6
:105883008A828B83125493702512592CE06405701D
:105893001D12592CA3E0F874016860057406687042
:1058A30007125346740280051253467403F0EA2428
:1058B3000A12622D126196E4F0EA2408F8E43F121A
:1058C300321C2431F582E43AF583E0C0E0126ECD58
:1058D300A3A3D0E012594BCA242EF582E43AF583F0
:1058E300E0C0E0126ECDA3A3A3D0E0125E71C81294
:1058F3005926381240BF126ECD1259408A0A8B0BBB
:10590300AC0AAD0B850882850983125DD71218D2C4
:10591300850882850983124D7B1221F6126228F0D5
:10592300023232240BF582E4228A828B83A3A3A35F
:10593300A3A3A3A3A31266BFF583888222A3A3A371
:10594300A3124C1212236422125DB3FAA3E02202C3
:105953005859C082C083901A2D743CF0A37421F06F
:10596300901A2F7448F0A37421F0901A31744EF0FA
:10597300A37421F0901A337442F0A37421F0025CF3
:105983005C74F412094CEA2408FEE43BFF8E82F5B2
:105993008312533012616CE0F50874035508F5095E
:1059A300125DD2F8A3E08882F583E508F0A3A8820C
:1059B300A983E5096009740265096003025A7174D9
:1059C3000C5508FC600A74086C600574046C70263E
:1059D300740265097006E508A2E4401A8A828B8383
:1059E300A3A3A3A3A3A3A3A3125B771268C53D122A
:1059F3005B12A308A983740C6C701C125B732428BC
:105A0300125B5F2428F582E43DF583A31264F3F06F
:105A1300E82402F8500109740265097006E508A23A
:105A2300E4404B125B73242A125B5F242AF582E461
:105A33003DF583A3125B21125B7D1264F3125B7D40
:105A4300A3125B19E82404F8500109EC600F7408F1
:105A53006C600A740C6C600574046C70111261A3A1
:105A63002426F582E43C125B12A3A882A9838A82CE
:105A73008B83A3A3A3A3A3A3A3A3125B4154037088
:105A830014E508A2E1400E1261A3125B0C3CF583FE
:105A9300E054806008125B27125B148019901A018E
:105AA300E0C0E0125B27D0E0125B54888289831246
:105AB3005B5404125DB8A3A882A983E508A2E7504A
:105AC300458E828F83125B4188828983125B5A12CF
:105AD3005B46540360301261A32434F582E43C1224
:105AE30064F1F0E508A2E1501D8A828B83A3A3A38E
:105AF300A3A3A3A3A31232212435F582E43A1264AB
:105B0300F1A3F0E82403023232241EF582E422F5E5
:105B130083125B21F022125B21A3A3A3F022E0886E
:105B2300828983228A828B83A3A3A3A3A3A3A3A390
